{
	"contracts/TokenBasic.sol": {
		"MyNFT": {
			"abi": [
				{
					"inputs": [
						{
							"internalType": "uint256",
							"name": "_price",
							"type": "uint256"
						}
					],
					"stateMutability": "nonpayable",
					"type": "constructor"
				},
				{
					"inputs": [
						{
							"internalType": "address",
							"name": "sender",
							"type": "address"
						},
						{
							"internalType": "uint256",
							"name": "tokenId",
							"type": "uint256"
						},
						{
							"internalType": "address",
							"name": "owner",
							"type": "address"
						}
					],
					"name": "ERC721IncorrectOwner",
					"type": "error"
				},
				{
					"inputs": [
						{
							"internalType": "address",
							"name": "operator",
							"type": "address"
						},
						{
							"internalType": "uint256",
							"name": "tokenId",
							"type": "uint256"
						}
					],
					"name": "ERC721InsufficientApproval",
					"type": "error"
				},
				{
					"inputs": [
						{
							"internalType": "address",
							"name": "approver",
							"type": "address"
						}
					],
					"name": "ERC721InvalidApprover",
					"type": "error"
				},
				{
					"inputs": [
						{
							"internalType": "address",
							"name": "operator",
							"type": "address"
						}
					],
					"name": "ERC721InvalidOperator",
					"type": "error"
				},
				{
					"inputs": [
						{
							"internalType": "address",
							"name": "owner",
							"type": "address"
						}
					],
					"name": "ERC721InvalidOwner",
					"type": "error"
				},
				{
					"inputs": [
						{
							"internalType": "address",
							"name": "receiver",
							"type": "address"
						}
					],
					"name": "ERC721InvalidReceiver",
					"type": "error"
				},
				{
					"inputs": [
						{
							"internalType": "address",
							"name": "sender",
							"type": "address"
						}
					],
					"name": "ERC721InvalidSender",
					"type": "error"
				},
				{
					"inputs": [
						{
							"internalType": "uint256",
							"name": "tokenId",
							"type": "uint256"
						}
					],
					"name": "ERC721NonexistentToken",
					"type": "error"
				},
				{
					"anonymous": false,
					"inputs": [
						{
							"indexed": true,
							"internalType": "address",
							"name": "owner",
							"type": "address"
						},
						{
							"indexed": true,
							"internalType": "address",
							"name": "approved",
							"type": "address"
						},
						{
							"indexed": true,
							"internalType": "uint256",
							"name": "tokenId",
							"type": "uint256"
						}
					],
					"name": "Approval",
					"type": "event"
				},
				{
					"anonymous": false,
					"inputs": [
						{
							"indexed": true,
							"internalType": "address",
							"name": "owner",
							"type": "address"
						},
						{
							"indexed": true,
							"internalType": "address",
							"name": "operator",
							"type": "address"
						},
						{
							"indexed": false,
							"internalType": "bool",
							"name": "approved",
							"type": "bool"
						}
					],
					"name": "ApprovalForAll",
					"type": "event"
				},
				{
					"anonymous": false,
					"inputs": [
						{
							"indexed": false,
							"internalType": "uint256",
							"name": "_fromTokenId",
							"type": "uint256"
						},
						{
							"indexed": false,
							"internalType": "uint256",
							"name": "_toTokenId",
							"type": "uint256"
						}
					],
					"name": "BatchMetadataUpdate",
					"type": "event"
				},
				{
					"anonymous": false,
					"inputs": [
						{
							"indexed": false,
							"internalType": "uint256",
							"name": "_tokenId",
							"type": "uint256"
						}
					],
					"name": "MetadataUpdate",
					"type": "event"
				},
				{
					"anonymous": false,
					"inputs": [
						{
							"indexed": true,
							"internalType": "address",
							"name": "from",
							"type": "address"
						},
						{
							"indexed": true,
							"internalType": "address",
							"name": "to",
							"type": "address"
						},
						{
							"indexed": true,
							"internalType": "uint256",
							"name": "tokenId",
							"type": "uint256"
						}
					],
					"name": "Transfer",
					"type": "event"
				},
				{
					"inputs": [
						{
							"internalType": "address",
							"name": "to",
							"type": "address"
						},
						{
							"internalType": "uint256",
							"name": "tokenId",
							"type": "uint256"
						}
					],
					"name": "approve",
					"outputs": [],
					"stateMutability": "nonpayable",
					"type": "function"
				},
				{
					"inputs": [
						{
							"internalType": "address",
							"name": "owner",
							"type": "address"
						}
					],
					"name": "balanceOf",
					"outputs": [
						{
							"internalType": "uint256",
							"name": "",
							"type": "uint256"
						}
					],
					"stateMutability": "view",
					"type": "function"
				},
				{
					"inputs": [
						{
							"internalType": "uint256",
							"name": "tokenId",
							"type": "uint256"
						}
					],
					"name": "getApproved",
					"outputs": [
						{
							"internalType": "address",
							"name": "",
							"type": "address"
						}
					],
					"stateMutability": "view",
					"type": "function"
				},
				{
					"inputs": [
						{
							"internalType": "address",
							"name": "owner",
							"type": "address"
						},
						{
							"internalType": "address",
							"name": "operator",
							"type": "address"
						}
					],
					"name": "isApprovedForAll",
					"outputs": [
						{
							"internalType": "bool",
							"name": "",
							"type": "bool"
						}
					],
					"stateMutability": "view",
					"type": "function"
				},
				{
					"inputs": [
						{
							"internalType": "string",
							"name": "tokenURI",
							"type": "string"
						}
					],
					"name": "mintNFT",
					"outputs": [
						{
							"internalType": "uint256",
							"name": "",
							"type": "uint256"
						}
					],
					"stateMutability": "payable",
					"type": "function"
				},
				{
					"inputs": [],
					"name": "name",
					"outputs": [
						{
							"internalType": "string",
							"name": "",
							"type": "string"
						}
					],
					"stateMutability": "view",
					"type": "function"
				},
				{
					"inputs": [
						{
							"internalType": "uint256",
							"name": "tokenId",
							"type": "uint256"
						}
					],
					"name": "ownerOf",
					"outputs": [
						{
							"internalType": "address",
							"name": "",
							"type": "address"
						}
					],
					"stateMutability": "view",
					"type": "function"
				},
				{
					"inputs": [
						{
							"internalType": "address",
							"name": "from",
							"type": "address"
						},
						{
							"internalType": "address",
							"name": "to",
							"type": "address"
						},
						{
							"internalType": "uint256",
							"name": "tokenId",
							"type": "uint256"
						}
					],
					"name": "safeTransferFrom",
					"outputs": [],
					"stateMutability": "nonpayable",
					"type": "function"
				},
				{
					"inputs": [
						{
							"internalType": "address",
							"name": "from",
							"type": "address"
						},
						{
							"internalType": "address",
							"name": "to",
							"type": "address"
						},
						{
							"internalType": "uint256",
							"name": "tokenId",
							"type": "uint256"
						},
						{
							"internalType": "bytes",
							"name": "data",
							"type": "bytes"
						}
					],
					"name": "safeTransferFrom",
					"outputs": [],
					"stateMutability": "nonpayable",
					"type": "function"
				},
				{
					"inputs": [
						{
							"internalType": "address",
							"name": "operator",
							"type": "address"
						},
						{
							"internalType": "bool",
							"name": "approved",
							"type": "bool"
						}
					],
					"name": "setApprovalForAll",
					"outputs": [],
					"stateMutability": "nonpayable",
					"type": "function"
				},
				{
					"inputs": [
						{
							"internalType": "bytes4",
							"name": "interfaceId",
							"type": "bytes4"
						}
					],
					"name": "supportsInterface",
					"outputs": [
						{
							"internalType": "bool",
							"name": "",
							"type": "bool"
						}
					],
					"stateMutability": "view",
					"type": "function"
				},
				{
					"inputs": [],
					"name": "symbol",
					"outputs": [
						{
							"internalType": "string",
							"name": "",
							"type": "string"
						}
					],
					"stateMutability": "view",
					"type": "function"
				},
				{
					"inputs": [
						{
							"internalType": "uint256",
							"name": "tokenId",
							"type": "uint256"
						}
					],
					"name": "tokenURI",
					"outputs": [
						{
							"internalType": "string",
							"name": "",
							"type": "string"
						}
					],
					"stateMutability": "view",
					"type": "function"
				},
				{
					"inputs": [
						{
							"internalType": "address",
							"name": "from",
							"type": "address"
						},
						{
							"internalType": "address",
							"name": "to",
							"type": "address"
						},
						{
							"internalType": "uint256",
							"name": "tokenId",
							"type": "uint256"
						}
					],
					"name": "transferFrom",
					"outputs": [],
					"stateMutability": "nonpayable",
					"type": "function"
				}
			],
			"devdoc": {
				"errors": {
					"ERC721IncorrectOwner(address,uint256,address)": [
						{
							"details": "Indicates an error related to the ownership over a particular token. Used in transfers.",
							"params": {
								"owner": "Address of the current owner of a token.",
								"sender": "Address whose tokens are being transferred.",
								"tokenId": "Identifier number of a token."
							}
						}
					],
					"ERC721InsufficientApproval(address,uint256)": [
						{
							"details": "Indicates a failure with the `operator`’s approval. Used in transfers.",
							"params": {
								"operator": "Address that may be allowed to operate on tokens without being their owner.",
								"tokenId": "Identifier number of a token."
							}
						}
					],
					"ERC721InvalidApprover(address)": [
						{
							"details": "Indicates a failure with the `approver` of a token to be approved. Used in approvals.",
							"params": {
								"approver": "Address initiating an approval operation."
							}
						}
					],
					"ERC721InvalidOperator(address)": [
						{
							"details": "Indicates a failure with the `operator` to be approved. Used in approvals.",
							"params": {
								"operator": "Address that may be allowed to operate on tokens without being their owner."
							}
						}
					],
					"ERC721InvalidOwner(address)": [
						{
							"details": "Indicates that an address can't be an owner. For example, `address(0)` is a forbidden owner in EIP-20. Used in balance queries.",
							"params": {
								"owner": "Address of the current owner of a token."
							}
						}
					],
					"ERC721InvalidReceiver(address)": [
						{
							"details": "Indicates a failure with the token `receiver`. Used in transfers.",
							"params": {
								"receiver": "Address to which tokens are being transferred."
							}
						}
					],
					"ERC721InvalidSender(address)": [
						{
							"details": "Indicates a failure with the token `sender`. Used in transfers.",
							"params": {
								"sender": "Address whose tokens are being transferred."
							}
						}
					],
					"ERC721NonexistentToken(uint256)": [
						{
							"details": "Indicates a `tokenId` whose `owner` is the zero address.",
							"params": {
								"tokenId": "Identifier number of a token."
							}
						}
					]
				},
				"events": {
					"Approval(address,address,uint256)": {
						"details": "Emitted when `owner` enables `approved` to manage the `tokenId` token."
					},
					"ApprovalForAll(address,address,bool)": {
						"details": "Emitted when `owner` enables or disables (`approved`) `operator` to manage all of its assets."
					},
					"BatchMetadataUpdate(uint256,uint256)": {
						"details": "This event emits when the metadata of a range of tokens is changed. So that the third-party platforms such as NFT market could timely update the images and related attributes of the NFTs."
					},
					"MetadataUpdate(uint256)": {
						"details": "This event emits when the metadata of a token is changed. So that the third-party platforms such as NFT market could timely update the images and related attributes of the NFT."
					},
					"Transfer(address,address,uint256)": {
						"details": "Emitted when `tokenId` token is transferred from `from` to `to`."
					}
				},
				"kind": "dev",
				"methods": {
					"approve(address,uint256)": {
						"details": "See {IERC721-approve}."
					},
					"balanceOf(address)": {
						"details": "See {IERC721-balanceOf}."
					},
					"getApproved(uint256)": {
						"details": "See {IERC721-getApproved}."
					},
					"isApprovedForAll(address,address)": {
						"details": "See {IERC721-isApprovedForAll}."
					},
					"name()": {
						"details": "See {IERC721Metadata-name}."
					},
					"ownerOf(uint256)": {
						"details": "See {IERC721-ownerOf}."
					},
					"safeTransferFrom(address,address,uint256)": {
						"details": "See {IERC721-safeTransferFrom}."
					},
					"safeTransferFrom(address,address,uint256,bytes)": {
						"details": "See {IERC721-safeTransferFrom}."
					},
					"setApprovalForAll(address,bool)": {
						"details": "See {IERC721-setApprovalForAll}."
					},
					"supportsInterface(bytes4)": {
						"details": "See {IERC165-supportsInterface}"
					},
					"symbol()": {
						"details": "See {IERC721Metadata-symbol}."
					},
					"tokenURI(uint256)": {
						"details": "See {IERC721Metadata-tokenURI}."
					},
					"transferFrom(address,address,uint256)": {
						"details": "See {IERC721-transferFrom}."
					}
				},
				"version": 1
			},
			"evm": {
				"assembly": "    /* \"contracts/TokenBasic.sol\":201:813  contract MyNFT is ERC721URIStorage {... */\n  mstore(0x40, 0x80)\n    /* \"contracts/TokenBasic.sol\":319:435  constructor(uint _price) ERC721(\"ZEUS\", \"Z\") {... */\n  callvalue\n  dup1\n  iszero\n  tag_1\n  jumpi\n  0x00\n  dup1\n  revert\ntag_1:\n  pop\n  mload(0x40)\n  sub(codesize, bytecodeSize)\n  dup1\n  bytecodeSize\n  dup4\n  codecopy\n  dup2\n  dup2\n  add\n  0x40\n  mstore\n  dup2\n  add\n  swap1\n  tag_2\n  swap2\n  swap1\n  tag_3\n  jump\t// in\ntag_2:\n    /* \"@openzeppelin/contracts/token/ERC721/ERC721.sol\":1381:1494  constructor(string memory name_, string memory symbol_) {... */\n  mload(0x40)\n  dup1\n  0x40\n  add\n  0x40\n  mstore\n  dup1\n  0x04\n  dup2\n  mstore\n  0x20\n  add\n  0x5a45555300000000000000000000000000000000000000000000000000000000\n  dup2\n  mstore\n  pop\n  mload(0x40)\n  dup1\n  0x40\n  add\n  0x40\n  mstore\n  dup1\n  0x01\n  dup2\n  mstore\n  0x20\n  add\n  0x5a00000000000000000000000000000000000000000000000000000000000000\n  dup2\n  mstore\n  pop\n    /* \"@openzeppelin/contracts/token/ERC721/ERC721.sol\":1455:1460  name_ */\n  dup2\n    /* \"@openzeppelin/contracts/token/ERC721/ERC721.sol\":1447:1452  _name */\n  0x00\n    /* \"@openzeppelin/contracts/token/ERC721/ERC721.sol\":1447:1460  _name = name_ */\n  swap1\n  dup2\n  tag_7\n  swap2\n  swap1\n  tag_8\n  jump\t// in\ntag_7:\n  pop\n    /* \"@openzeppelin/contracts/token/ERC721/ERC721.sol\":1480:1487  symbol_ */\n  dup1\n    /* \"@openzeppelin/contracts/token/ERC721/ERC721.sol\":1470:1477  _symbol */\n  0x01\n    /* \"@openzeppelin/contracts/token/ERC721/ERC721.sol\":1470:1487  _symbol = symbol_ */\n  swap1\n  dup2\n  tag_9\n  swap2\n  swap1\n  tag_8\n  jump\t// in\ntag_9:\n  pop\n    /* \"@openzeppelin/contracts/token/ERC721/ERC721.sol\":1381:1494  constructor(string memory name_, string memory symbol_) {... */\n  pop\n  pop\n    /* \"contracts/TokenBasic.sol\":391:401  msg.sender */\n  caller\n    /* \"contracts/TokenBasic.sol\":375:380  owner */\n  0x08\n  0x00\n    /* \"contracts/TokenBasic.sol\":375:402  owner = payable(msg.sender) */\n  0x0100\n  exp\n  dup2\n  sload\n  dup2\n  0xffffffffffffffffffffffffffffffffffffffff\n  mul\n  not\n  and\n  swap1\n  dup4\n  0xffffffffffffffffffffffffffffffffffffffff\n  and\n  mul\n  or\n  swap1\n  sstore\n  pop\n    /* \"contracts/TokenBasic.sol\":421:427  _price */\n  dup1\n    /* \"contracts/TokenBasic.sol\":413:418  price */\n  0x09\n    /* \"contracts/TokenBasic.sol\":413:427  price = _price */\n  dup2\n  swap1\n  sstore\n  pop\n    /* \"contracts/TokenBasic.sol\":319:435  constructor(uint _price) ERC721(\"ZEUS\", \"Z\") {... */\n  pop\n    /* \"contracts/TokenBasic.sol\":201:813  contract MyNFT is ERC721URIStorage {... */\n  jump(tag_11)\n    /* \"#utility.yul\":88:205   */\ntag_13:\n    /* \"#utility.yul\":197:198   */\n  0x00\n    /* \"#utility.yul\":194:195   */\n  dup1\n    /* \"#utility.yul\":187:199   */\n  revert\n    /* \"#utility.yul\":334:411   */\ntag_15:\n    /* \"#utility.yul\":371:378   */\n  0x00\n    /* \"#utility.yul\":400:405   */\n  dup2\n    /* \"#utility.yul\":389:405   */\n  swap1\n  pop\n    /* \"#utility.yul\":334:411   */\n  swap2\n  swap1\n  pop\n  jump\t// out\n    /* \"#utility.yul\":417:539   */\ntag_16:\n    /* \"#utility.yul\":490:514   */\n  tag_43\n    /* \"#utility.yul\":508:513   */\n  dup2\n    /* \"#utility.yul\":490:514   */\n  tag_15\n  jump\t// in\ntag_43:\n    /* \"#utility.yul\":483:488   */\n  dup2\n    /* \"#utility.yul\":480:515   */\n  eq\n    /* \"#utility.yul\":470:533   */\n  tag_44\n  jumpi\n    /* \"#utility.yul\":529:530   */\n  0x00\n    /* \"#utility.yul\":526:527   */\n  dup1\n    /* \"#utility.yul\":519:531   */\n  revert\n    /* \"#utility.yul\":470:533   */\ntag_44:\n    /* \"#utility.yul\":417:539   */\n  pop\n  jump\t// out\n    /* \"#utility.yul\":545:688   */\ntag_17:\n    /* \"#utility.yul\":602:607   */\n  0x00\n    /* \"#utility.yul\":633:639   */\n  dup2\n    /* \"#utility.yul\":627:640   */\n  mload\n    /* \"#utility.yul\":618:640   */\n  swap1\n  pop\n    /* \"#utility.yul\":649:682   */\n  tag_46\n    /* \"#utility.yul\":676:681   */\n  dup2\n    /* \"#utility.yul\":649:682   */\n  tag_16\n  jump\t// in\ntag_46:\n    /* \"#utility.yul\":545:688   */\n  swap3\n  swap2\n  pop\n  pop\n  jump\t// out\n    /* \"#utility.yul\":694:1045   */\ntag_3:\n    /* \"#utility.yul\":764:770   */\n  0x00\n    /* \"#utility.yul\":813:815   */\n  0x20\n    /* \"#utility.yul\":801:810   */\n  dup3\n    /* \"#utility.yul\":792:799   */\n  dup5\n    /* \"#utility.yul\":788:811   */\n  sub\n    /* \"#utility.yul\":784:816   */\n  slt\n    /* \"#utility.yul\":781:900   */\n  iszero\n  tag_48\n  jumpi\n    /* \"#utility.yul\":819:898   */\n  tag_49\n  tag_13\n  jump\t// in\ntag_49:\n    /* \"#utility.yul\":781:900   */\ntag_48:\n    /* \"#utility.yul\":939:940   */\n  0x00\n    /* \"#utility.yul\":964:1028   */\n  tag_50\n    /* \"#utility.yul\":1020:1027   */\n  dup5\n    /* \"#utility.yul\":1011:1017   */\n  dup3\n    /* \"#utility.yul\":1000:1009   */\n  dup6\n    /* \"#utility.yul\":996:1018   */\n  add\n    /* \"#utility.yul\":964:1028   */\n  tag_17\n  jump\t// in\ntag_50:\n    /* \"#utility.yul\":954:1028   */\n  swap2\n  pop\n    /* \"#utility.yul\":910:1038   */\n  pop\n    /* \"#utility.yul\":694:1045   */\n  swap3\n  swap2\n  pop\n  pop\n  jump\t// out\n    /* \"#utility.yul\":1051:1150   */\ntag_18:\n    /* \"#utility.yul\":1103:1109   */\n  0x00\n    /* \"#utility.yul\":1137:1142   */\n  dup2\n    /* \"#utility.yul\":1131:1143   */\n  mload\n    /* \"#utility.yul\":1121:1143   */\n  swap1\n  pop\n    /* \"#utility.yul\":1051:1150   */\n  swap2\n  swap1\n  pop\n  jump\t// out\n    /* \"#utility.yul\":1156:1336   */\ntag_19:\n    /* \"#utility.yul\":1204:1281   */\n  0x4e487b7100000000000000000000000000000000000000000000000000000000\n    /* \"#utility.yul\":1201:1202   */\n  0x00\n    /* \"#utility.yul\":1194:1282   */\n  mstore\n    /* \"#utility.yul\":1301:1305   */\n  0x41\n    /* \"#utility.yul\":1298:1299   */\n  0x04\n    /* \"#utility.yul\":1291:1306   */\n  mstore\n    /* \"#utility.yul\":1325:1329   */\n  0x24\n    /* \"#utility.yul\":1322:1323   */\n  0x00\n    /* \"#utility.yul\":1315:1330   */\n  revert\n    /* \"#utility.yul\":1342:1522   */\ntag_20:\n    /* \"#utility.yul\":1390:1467   */\n  0x4e487b7100000000000000000000000000000000000000000000000000000000\n    /* \"#utility.yul\":1387:1388   */\n  0x00\n    /* \"#utility.yul\":1380:1468   */\n  mstore\n    /* \"#utility.yul\":1487:1491   */\n  0x22\n    /* \"#utility.yul\":1484:1485   */\n  0x04\n    /* \"#utility.yul\":1477:1492   */\n  mstore\n    /* \"#utility.yul\":1511:1515   */\n  0x24\n    /* \"#utility.yul\":1508:1509   */\n  0x00\n    /* \"#utility.yul\":1501:1516   */\n  revert\n    /* \"#utility.yul\":1528:1848   */\ntag_21:\n    /* \"#utility.yul\":1572:1578   */\n  0x00\n    /* \"#utility.yul\":1609:1610   */\n  0x02\n    /* \"#utility.yul\":1603:1607   */\n  dup3\n    /* \"#utility.yul\":1599:1611   */\n  div\n    /* \"#utility.yul\":1589:1611   */\n  swap1\n  pop\n    /* \"#utility.yul\":1656:1657   */\n  0x01\n    /* \"#utility.yul\":1650:1654   */\n  dup3\n    /* \"#utility.yul\":1646:1658   */\n  and\n    /* \"#utility.yul\":1677:1695   */\n  dup1\n    /* \"#utility.yul\":1667:1748   */\n  tag_55\n  jumpi\n    /* \"#utility.yul\":1733:1737   */\n  0x7f\n    /* \"#utility.yul\":1725:1731   */\n  dup3\n    /* \"#utility.yul\":1721:1738   */\n  and\n    /* \"#utility.yul\":1711:1738   */\n  swap2\n  pop\n    /* \"#utility.yul\":1667:1748   */\ntag_55:\n    /* \"#utility.yul\":1795:1797   */\n  0x20\n    /* \"#utility.yul\":1787:1793   */\n  dup3\n    /* \"#utility.yul\":1784:1798   */\n  lt\n    /* \"#utility.yul\":1764:1782   */\n  dup2\n    /* \"#utility.yul\":1761:1799   */\n  sub\n    /* \"#utility.yul\":1758:1842   */\n  tag_56\n  jumpi\n    /* \"#utility.yul\":1814:1832   */\n  tag_57\n  tag_20\n  jump\t// in\ntag_57:\n    /* \"#utility.yul\":1758:1842   */\ntag_56:\n    /* \"#utility.yul\":1579:1848   */\n  pop\n    /* \"#utility.yul\":1528:1848   */\n  swap2\n  swap1\n  pop\n  jump\t// out\n    /* \"#utility.yul\":1854:1995   */\ntag_22:\n    /* \"#utility.yul\":1903:1907   */\n  0x00\n    /* \"#utility.yul\":1926:1929   */\n  dup2\n    /* \"#utility.yul\":1918:1929   */\n  swap1\n  pop\n    /* \"#utility.yul\":1949:1952   */\n  dup2\n    /* \"#utility.yul\":1946:1947   */\n  0x00\n    /* \"#utility.yul\":1939:1953   */\n  mstore\n    /* \"#utility.yul\":1983:1987   */\n  0x20\n    /* \"#utility.yul\":1980:1981   */\n  0x00\n    /* \"#utility.yul\":1970:1988   */\n  keccak256\n    /* \"#utility.yul\":1962:1988   */\n  swap1\n  pop\n    /* \"#utility.yul\":1854:1995   */\n  swap2\n  swap1\n  pop\n  jump\t// out\n    /* \"#utility.yul\":2001:2094   */\ntag_23:\n    /* \"#utility.yul\":2038:2044   */\n  0x00\n    /* \"#utility.yul\":2085:2087   */\n  0x20\n    /* \"#utility.yul\":2080:2082   */\n  0x1f\n    /* \"#utility.yul\":2073:2078   */\n  dup4\n    /* \"#utility.yul\":2069:2083   */\n  add\n    /* \"#utility.yul\":2065:2088   */\n  div\n    /* \"#utility.yul\":2055:2088   */\n  swap1\n  pop\n    /* \"#utility.yul\":2001:2094   */\n  swap2\n  swap1\n  pop\n  jump\t// out\n    /* \"#utility.yul\":2100:2207   */\ntag_24:\n    /* \"#utility.yul\":2144:2152   */\n  0x00\n    /* \"#utility.yul\":2194:2199   */\n  dup3\n    /* \"#utility.yul\":2188:2192   */\n  dup3\n    /* \"#utility.yul\":2184:2200   */\n  shl\n    /* \"#utility.yul\":2163:2200   */\n  swap1\n  pop\n    /* \"#utility.yul\":2100:2207   */\n  swap3\n  swap2\n  pop\n  pop\n  jump\t// out\n    /* \"#utility.yul\":2213:2606   */\ntag_25:\n    /* \"#utility.yul\":2282:2288   */\n  0x00\n    /* \"#utility.yul\":2332:2333   */\n  0x08\n    /* \"#utility.yul\":2320:2330   */\n  dup4\n    /* \"#utility.yul\":2316:2334   */\n  mul\n    /* \"#utility.yul\":2355:2452   */\n  tag_62\n    /* \"#utility.yul\":2385:2451   */\n  0xffffffffffffffffffffffffffffffffffffffffffffffffffffffffffffffff\n    /* \"#utility.yul\":2374:2383   */\n  dup3\n    /* \"#utility.yul\":2355:2452   */\n  tag_24\n  jump\t// in\ntag_62:\n    /* \"#utility.yul\":2473:2512   */\n  tag_63\n    /* \"#utility.yul\":2503:2511   */\n  dup7\n    /* \"#utility.yul\":2492:2501   */\n  dup4\n    /* \"#utility.yul\":2473:2512   */\n  tag_24\n  jump\t// in\ntag_63:\n    /* \"#utility.yul\":2461:2512   */\n  swap6\n  pop\n    /* \"#utility.yul\":2545:2549   */\n  dup1\n    /* \"#utility.yul\":2541:2550   */\n  not\n    /* \"#utility.yul\":2534:2539   */\n  dup5\n    /* \"#utility.yul\":2530:2551   */\n  and\n    /* \"#utility.yul\":2521:2551   */\n  swap4\n  pop\n    /* \"#utility.yul\":2594:2598   */\n  dup1\n    /* \"#utility.yul\":2584:2592   */\n  dup7\n    /* \"#utility.yul\":2580:2599   */\n  and\n    /* \"#utility.yul\":2573:2578   */\n  dup5\n    /* \"#utility.yul\":2570:2600   */\n  or\n    /* \"#utility.yul\":2560:2600   */\n  swap3\n  pop\n    /* \"#utility.yul\":2289:2606   */\n  pop\n  pop\n    /* \"#utility.yul\":2213:2606   */\n  swap4\n  swap3\n  pop\n  pop\n  pop\n  jump\t// out\n    /* \"#utility.yul\":2612:2672   */\ntag_26:\n    /* \"#utility.yul\":2640:2643   */\n  0x00\n    /* \"#utility.yul\":2661:2666   */\n  dup2\n    /* \"#utility.yul\":2654:2666   */\n  swap1\n  pop\n    /* \"#utility.yul\":2612:2672   */\n  swap2\n  swap1\n  pop\n  jump\t// out\n    /* \"#utility.yul\":2678:2820   */\ntag_27:\n    /* \"#utility.yul\":2728:2737   */\n  0x00\n    /* \"#utility.yul\":2761:2814   */\n  tag_66\n    /* \"#utility.yul\":2779:2813   */\n  tag_67\n    /* \"#utility.yul\":2788:2812   */\n  tag_68\n    /* \"#utility.yul\":2806:2811   */\n  dup5\n    /* \"#utility.yul\":2788:2812   */\n  tag_15\n  jump\t// in\ntag_68:\n    /* \"#utility.yul\":2779:2813   */\n  tag_26\n  jump\t// in\ntag_67:\n    /* \"#utility.yul\":2761:2814   */\n  tag_15\n  jump\t// in\ntag_66:\n    /* \"#utility.yul\":2748:2814   */\n  swap1\n  pop\n    /* \"#utility.yul\":2678:2820   */\n  swap2\n  swap1\n  pop\n  jump\t// out\n    /* \"#utility.yul\":2826:2901   */\ntag_28:\n    /* \"#utility.yul\":2869:2872   */\n  0x00\n    /* \"#utility.yul\":2890:2895   */\n  dup2\n    /* \"#utility.yul\":2883:2895   */\n  swap1\n  pop\n    /* \"#utility.yul\":2826:2901   */\n  swap2\n  swap1\n  pop\n  jump\t// out\n    /* \"#utility.yul\":2907:3176   */\ntag_29:\n    /* \"#utility.yul\":3017:3056   */\n  tag_71\n    /* \"#utility.yul\":3048:3055   */\n  dup4\n    /* \"#utility.yul\":3017:3056   */\n  tag_27\n  jump\t// in\ntag_71:\n    /* \"#utility.yul\":3078:3169   */\n  tag_72\n    /* \"#utility.yul\":3127:3168   */\n  tag_73\n    /* \"#utility.yul\":3151:3167   */\n  dup3\n    /* \"#utility.yul\":3127:3168   */\n  tag_28\n  jump\t// in\ntag_73:\n    /* \"#utility.yul\":3119:3125   */\n  dup5\n    /* \"#utility.yul\":3112:3116   */\n  dup5\n    /* \"#utility.yul\":3106:3117   */\n  sload\n    /* \"#utility.yul\":3078:3169   */\n  tag_25\n  jump\t// in\ntag_72:\n    /* \"#utility.yul\":3072:3076   */\n  dup3\n    /* \"#utility.yul\":3065:3170   */\n  sstore\n    /* \"#utility.yul\":2983:3176   */\n  pop\n    /* \"#utility.yul\":2907:3176   */\n  pop\n  pop\n  pop\n  jump\t// out\n    /* \"#utility.yul\":3182:3255   */\ntag_30:\n    /* \"#utility.yul\":3227:3230   */\n  0x00\n    /* \"#utility.yul\":3182:3255   */\n  swap1\n  jump\t// out\n    /* \"#utility.yul\":3261:3450   */\ntag_31:\n    /* \"#utility.yul\":3338:3370   */\n  tag_76\n  tag_30\n  jump\t// in\ntag_76:\n    /* \"#utility.yul\":3379:3444   */\n  tag_77\n    /* \"#utility.yul\":3437:3443   */\n  dup2\n    /* \"#utility.yul\":3429:3435   */\n  dup5\n    /* \"#utility.yul\":3423:3427   */\n  dup5\n    /* \"#utility.yul\":3379:3444   */\n  tag_29\n  jump\t// in\ntag_77:\n    /* \"#utility.yul\":3314:3450   */\n  pop\n    /* \"#utility.yul\":3261:3450   */\n  pop\n  pop\n  jump\t// out\n    /* \"#utility.yul\":3456:3642   */\ntag_32:\n    /* \"#utility.yul\":3516:3636   */\ntag_79:\n    /* \"#utility.yul\":3533:3536   */\n  dup2\n    /* \"#utility.yul\":3526:3531   */\n  dup2\n    /* \"#utility.yul\":3523:3537   */\n  lt\n    /* \"#utility.yul\":3516:3636   */\n  iszero\n  tag_81\n  jumpi\n    /* \"#utility.yul\":3587:3626   */\n  tag_82\n    /* \"#utility.yul\":3624:3625   */\n  0x00\n    /* \"#utility.yul\":3617:3622   */\n  dup3\n    /* \"#utility.yul\":3587:3626   */\n  tag_31\n  jump\t// in\ntag_82:\n    /* \"#utility.yul\":3560:3561   */\n  0x01\n    /* \"#utility.yul\":3553:3558   */\n  dup2\n    /* \"#utility.yul\":3549:3562   */\n  add\n    /* \"#utility.yul\":3540:3562   */\n  swap1\n  pop\n    /* \"#utility.yul\":3516:3636   */\n  jump(tag_79)\ntag_81:\n    /* \"#utility.yul\":3456:3642   */\n  pop\n  pop\n  jump\t// out\n    /* \"#utility.yul\":3648:4191   */\ntag_33:\n    /* \"#utility.yul\":3749:3751   */\n  0x1f\n    /* \"#utility.yul\":3744:3747   */\n  dup3\n    /* \"#utility.yul\":3741:3752   */\n  gt\n    /* \"#utility.yul\":3738:4184   */\n  iszero\n  tag_84\n  jumpi\n    /* \"#utility.yul\":3783:3821   */\n  tag_85\n    /* \"#utility.yul\":3815:3820   */\n  dup2\n    /* \"#utility.yul\":3783:3821   */\n  tag_22\n  jump\t// in\ntag_85:\n    /* \"#utility.yul\":3867:3896   */\n  tag_86\n    /* \"#utility.yul\":3885:3895   */\n  dup5\n    /* \"#utility.yul\":3867:3896   */\n  tag_23\n  jump\t// in\ntag_86:\n    /* \"#utility.yul\":3857:3865   */\n  dup2\n    /* \"#utility.yul\":3853:3897   */\n  add\n    /* \"#utility.yul\":4050:4052   */\n  0x20\n    /* \"#utility.yul\":4038:4048   */\n  dup6\n    /* \"#utility.yul\":4035:4053   */\n  lt\n    /* \"#utility.yul\":4032:4081   */\n  iszero\n  tag_87\n  jumpi\n    /* \"#utility.yul\":4071:4079   */\n  dup2\n    /* \"#utility.yul\":4056:4079   */\n  swap1\n  pop\n    /* \"#utility.yul\":4032:4081   */\ntag_87:\n    /* \"#utility.yul\":4094:4174   */\n  tag_88\n    /* \"#utility.yul\":4150:4172   */\n  tag_89\n    /* \"#utility.yul\":4168:4171   */\n  dup6\n    /* \"#utility.yul\":4150:4172   */\n  tag_23\n  jump\t// in\ntag_89:\n    /* \"#utility.yul\":4140:4148   */\n  dup4\n    /* \"#utility.yul\":4136:4173   */\n  add\n    /* \"#utility.yul\":4123:4134   */\n  dup3\n    /* \"#utility.yul\":4094:4174   */\n  tag_32\n  jump\t// in\ntag_88:\n    /* \"#utility.yul\":3753:4184   */\n  pop\n  pop\n    /* \"#utility.yul\":3738:4184   */\ntag_84:\n    /* \"#utility.yul\":3648:4191   */\n  pop\n  pop\n  pop\n  jump\t// out\n    /* \"#utility.yul\":4197:4314   */\ntag_34:\n    /* \"#utility.yul\":4251:4259   */\n  0x00\n    /* \"#utility.yul\":4301:4306   */\n  dup3\n    /* \"#utility.yul\":4295:4299   */\n  dup3\n    /* \"#utility.yul\":4291:4307   */\n  shr\n    /* \"#utility.yul\":4270:4307   */\n  swap1\n  pop\n    /* \"#utility.yul\":4197:4314   */\n  swap3\n  swap2\n  pop\n  pop\n  jump\t// out\n    /* \"#utility.yul\":4320:4489   */\ntag_35:\n    /* \"#utility.yul\":4364:4370   */\n  0x00\n    /* \"#utility.yul\":4397:4448   */\n  tag_92\n    /* \"#utility.yul\":4445:4446   */\n  0x00\n    /* \"#utility.yul\":4441:4447   */\n  not\n    /* \"#utility.yul\":4433:4438   */\n  dup5\n    /* \"#utility.yul\":4430:4431   */\n  0x08\n    /* \"#utility.yul\":4426:4439   */\n  mul\n    /* \"#utility.yul\":4397:4448   */\n  tag_34\n  jump\t// in\ntag_92:\n    /* \"#utility.yul\":4393:4449   */\n  not\n    /* \"#utility.yul\":4478:4482   */\n  dup1\n    /* \"#utility.yul\":4472:4476   */\n  dup4\n    /* \"#utility.yul\":4468:4483   */\n  and\n    /* \"#utility.yul\":4458:4483   */\n  swap2\n  pop\n    /* \"#utility.yul\":4371:4489   */\n  pop\n    /* \"#utility.yul\":4320:4489   */\n  swap3\n  swap2\n  pop\n  pop\n  jump\t// out\n    /* \"#utility.yul\":4494:4789   */\ntag_36:\n    /* \"#utility.yul\":4570:4574   */\n  0x00\n    /* \"#utility.yul\":4716:4745   */\n  tag_94\n    /* \"#utility.yul\":4741:4744   */\n  dup4\n    /* \"#utility.yul\":4735:4739   */\n  dup4\n    /* \"#utility.yul\":4716:4745   */\n  tag_35\n  jump\t// in\ntag_94:\n    /* \"#utility.yul\":4708:4745   */\n  swap2\n  pop\n    /* \"#utility.yul\":4778:4781   */\n  dup3\n    /* \"#utility.yul\":4775:4776   */\n  0x02\n    /* \"#utility.yul\":4771:4782   */\n  mul\n    /* \"#utility.yul\":4765:4769   */\n  dup3\n    /* \"#utility.yul\":4762:4783   */\n  or\n    /* \"#utility.yul\":4754:4783   */\n  swap1\n  pop\n    /* \"#utility.yul\":4494:4789   */\n  swap3\n  swap2\n  pop\n  pop\n  jump\t// out\n    /* \"#utility.yul\":4794:6189   */\ntag_8:\n    /* \"#utility.yul\":4911:4948   */\n  tag_96\n    /* \"#utility.yul\":4944:4947   */\n  dup3\n    /* \"#utility.yul\":4911:4948   */\n  tag_18\n  jump\t// in\ntag_96:\n    /* \"#utility.yul\":5013:5031   */\n  0xffffffffffffffff\n    /* \"#utility.yul\":5005:5011   */\n  dup2\n    /* \"#utility.yul\":5002:5032   */\n  gt\n    /* \"#utility.yul\":4999:5055   */\n  iszero\n  tag_97\n  jumpi\n    /* \"#utility.yul\":5035:5053   */\n  tag_98\n  tag_19\n  jump\t// in\ntag_98:\n    /* \"#utility.yul\":4999:5055   */\ntag_97:\n    /* \"#utility.yul\":5079:5117   */\n  tag_99\n    /* \"#utility.yul\":5111:5115   */\n  dup3\n    /* \"#utility.yul\":5105:5116   */\n  sload\n    /* \"#utility.yul\":5079:5117   */\n  tag_21\n  jump\t// in\ntag_99:\n    /* \"#utility.yul\":5164:5231   */\n  tag_100\n    /* \"#utility.yul\":5224:5230   */\n  dup3\n    /* \"#utility.yul\":5216:5222   */\n  dup3\n    /* \"#utility.yul\":5210:5214   */\n  dup6\n    /* \"#utility.yul\":5164:5231   */\n  tag_33\n  jump\t// in\ntag_100:\n    /* \"#utility.yul\":5258:5259   */\n  0x00\n    /* \"#utility.yul\":5282:5286   */\n  0x20\n    /* \"#utility.yul\":5269:5286   */\n  swap1\n  pop\n    /* \"#utility.yul\":5314:5316   */\n  0x1f\n    /* \"#utility.yul\":5306:5312   */\n  dup4\n    /* \"#utility.yul\":5303:5317   */\n  gt\n    /* \"#utility.yul\":5331:5332   */\n  0x01\n    /* \"#utility.yul\":5326:5944   */\n  dup2\n  eq\n  tag_102\n  jumpi\n    /* \"#utility.yul\":5988:5989   */\n  0x00\n    /* \"#utility.yul\":6005:6011   */\n  dup5\n    /* \"#utility.yul\":6002:6079   */\n  iszero\n  tag_103\n  jumpi\n    /* \"#utility.yul\":6054:6063   */\n  dup3\n    /* \"#utility.yul\":6049:6052   */\n  dup8\n    /* \"#utility.yul\":6045:6064   */\n  add\n    /* \"#utility.yul\":6039:6065   */\n  mload\n    /* \"#utility.yul\":6030:6065   */\n  swap1\n  pop\n    /* \"#utility.yul\":6002:6079   */\ntag_103:\n    /* \"#utility.yul\":6105:6172   */\n  tag_104\n    /* \"#utility.yul\":6165:6171   */\n  dup6\n    /* \"#utility.yul\":6158:6163   */\n  dup3\n    /* \"#utility.yul\":6105:6172   */\n  tag_36\n  jump\t// in\ntag_104:\n    /* \"#utility.yul\":6099:6103   */\n  dup7\n    /* \"#utility.yul\":6092:6173   */\n  sstore\n    /* \"#utility.yul\":5961:6183   */\n  pop\n    /* \"#utility.yul\":5296:6183   */\n  jump(tag_101)\n    /* \"#utility.yul\":5326:5944   */\ntag_102:\n    /* \"#utility.yul\":5378:5382   */\n  0x1f\n    /* \"#utility.yul\":5374:5383   */\n  not\n    /* \"#utility.yul\":5366:5372   */\n  dup5\n    /* \"#utility.yul\":5362:5384   */\n  and\n    /* \"#utility.yul\":5412:5449   */\n  tag_105\n    /* \"#utility.yul\":5444:5448   */\n  dup7\n    /* \"#utility.yul\":5412:5449   */\n  tag_22\n  jump\t// in\ntag_105:\n    /* \"#utility.yul\":5471:5472   */\n  0x00\n    /* \"#utility.yul\":5485:5693   */\ntag_106:\n    /* \"#utility.yul\":5499:5506   */\n  dup3\n    /* \"#utility.yul\":5496:5497   */\n  dup2\n    /* \"#utility.yul\":5493:5507   */\n  lt\n    /* \"#utility.yul\":5485:5693   */\n  iszero\n  tag_108\n  jumpi\n    /* \"#utility.yul\":5578:5587   */\n  dup5\n    /* \"#utility.yul\":5573:5576   */\n  dup10\n    /* \"#utility.yul\":5569:5588   */\n  add\n    /* \"#utility.yul\":5563:5589   */\n  mload\n    /* \"#utility.yul\":5555:5561   */\n  dup3\n    /* \"#utility.yul\":5548:5590   */\n  sstore\n    /* \"#utility.yul\":5629:5630   */\n  0x01\n    /* \"#utility.yul\":5621:5627   */\n  dup3\n    /* \"#utility.yul\":5617:5631   */\n  add\n    /* \"#utility.yul\":5607:5631   */\n  swap2\n  pop\n    /* \"#utility.yul\":5676:5678   */\n  0x20\n    /* \"#utility.yul\":5665:5674   */\n  dup6\n    /* \"#utility.yul\":5661:5679   */\n  add\n    /* \"#utility.yul\":5648:5679   */\n  swap5\n  pop\n    /* \"#utility.yul\":5522:5526   */\n  0x20\n    /* \"#utility.yul\":5519:5520   */\n  dup2\n    /* \"#utility.yul\":5515:5527   */\n  add\n    /* \"#utility.yul\":5510:5527   */\n  swap1\n  pop\n    /* \"#utility.yul\":5485:5693   */\n  jump(tag_106)\ntag_108:\n    /* \"#utility.yul\":5721:5727   */\n  dup7\n    /* \"#utility.yul\":5712:5719   */\n  dup4\n    /* \"#utility.yul\":5709:5728   */\n  lt\n    /* \"#utility.yul\":5706:5885   */\n  iszero\n  tag_109\n  jumpi\n    /* \"#utility.yul\":5779:5788   */\n  dup5\n    /* \"#utility.yul\":5774:5777   */\n  dup10\n    /* \"#utility.yul\":5770:5789   */\n  add\n    /* \"#utility.yul\":5764:5790   */\n  mload\n    /* \"#utility.yul\":5822:5870   */\n  tag_110\n    /* \"#utility.yul\":5864:5868   */\n  0x1f\n    /* \"#utility.yul\":5856:5862   */\n  dup10\n    /* \"#utility.yul\":5852:5869   */\n  and\n    /* \"#utility.yul\":5841:5850   */\n  dup3\n    /* \"#utility.yul\":5822:5870   */\n  tag_35\n  jump\t// in\ntag_110:\n    /* \"#utility.yul\":5814:5820   */\n  dup4\n    /* \"#utility.yul\":5807:5871   */\n  sstore\n    /* \"#utility.yul\":5729:5885   */\n  pop\n    /* \"#utility.yul\":5706:5885   */\ntag_109:\n    /* \"#utility.yul\":5931:5932   */\n  0x01\n    /* \"#utility.yul\":5927:5928   */\n  0x02\n    /* \"#utility.yul\":5919:5925   */\n  dup9\n    /* \"#utility.yul\":5915:5929   */\n  mul\n    /* \"#utility.yul\":5911:5933   */\n  add\n    /* \"#utility.yul\":5905:5909   */\n  dup9\n    /* \"#utility.yul\":5898:5934   */\n  sstore\n    /* \"#utility.yul\":5333:5944   */\n  pop\n  pop\n  pop\n    /* \"#utility.yul\":5296:6183   */\ntag_101:\n  pop\n    /* \"#utility.yul\":4886:6189   */\n  pop\n  pop\n  pop\n    /* \"#utility.yul\":4794:6189   */\n  pop\n  pop\n  jump\t// out\n    /* \"contracts/TokenBasic.sol\":201:813  contract MyNFT is ERC721URIStorage {... */\ntag_11:\n  dataSize(sub_0)\n  dup1\n  dataOffset(sub_0)\n  0x00\n  codecopy\n  0x00\n  return\nstop\n\nsub_0: assembly {\n        /* \"contracts/TokenBasic.sol\":201:813  contract MyNFT is ERC721URIStorage {... */\n      mstore(0x40, 0x80)\n      jumpi(tag_1, lt(calldatasize, 0x04))\n      shr(0xe0, calldataload(0x00))\n      dup1\n      0x70a08231\n      gt\n      tag_16\n      jumpi\n      dup1\n      0xb88d4fde\n      gt\n      tag_17\n      jumpi\n      dup1\n      0xb88d4fde\n      eq\n      tag_12\n      jumpi\n      dup1\n      0xc87b56dd\n      eq\n      tag_13\n      jumpi\n      dup1\n      0xe985e9c5\n      eq\n      tag_14\n      jumpi\n      dup1\n      0xfb37e883\n      eq\n      tag_15\n      jumpi\n      jump(tag_1)\n    tag_17:\n      dup1\n      0x70a08231\n      eq\n      tag_9\n      jumpi\n      dup1\n      0x95d89b41\n      eq\n      tag_10\n      jumpi\n      dup1\n      0xa22cb465\n      eq\n      tag_11\n      jumpi\n      jump(tag_1)\n    tag_16:\n      dup1\n      0x095ea7b3\n      gt\n      tag_18\n      jumpi\n      dup1\n      0x095ea7b3\n      eq\n      tag_5\n      jumpi\n      dup1\n      0x23b872dd\n      eq\n      tag_6\n      jumpi\n      dup1\n      0x42842e0e\n      eq\n      tag_7\n      jumpi\n      dup1\n      0x6352211e\n      eq\n      tag_8\n      jumpi\n      jump(tag_1)\n    tag_18:\n      dup1\n      0x01ffc9a7\n      eq\n      tag_2\n      jumpi\n      dup1\n      0x06fdde03\n      eq\n      tag_3\n      jumpi\n      dup1\n      0x081812fc\n      eq\n      tag_4\n      jumpi\n    tag_1:\n      0x00\n      dup1\n      revert\n        /* \"@openzeppelin/contracts/token/ERC721/extensions/ERC721URIStorage.sol\":937:1144  function supportsInterface(bytes4 interfaceId) public view virtual override(ERC721, IERC165) returns (bool) {... */\n    tag_2:\n      callvalue\n      dup1\n      iszero\n      tag_19\n      jumpi\n      0x00\n      dup1\n      revert\n    tag_19:\n      pop\n      tag_20\n      0x04\n      dup1\n      calldatasize\n      sub\n      dup2\n      add\n      swap1\n      tag_21\n      swap2\n      swap1\n      tag_22\n      jump\t// in\n    tag_21:\n      tag_23\n      jump\t// in\n    tag_20:\n      mload(0x40)\n      tag_24\n      swap2\n      swap1\n      tag_25\n      jump\t// in\n    tag_24:\n      mload(0x40)\n      dup1\n      swap2\n      sub\n      swap1\n      return\n        /* \"@openzeppelin/contracts/token/ERC721/ERC721.sol\":2365:2454  function name() public view virtual returns (string memory) {... */\n    tag_3:\n      callvalue\n      dup1\n      iszero\n      tag_26\n      jumpi\n      0x00\n      dup1\n      revert\n    tag_26:\n      pop\n      tag_27\n      tag_28\n      jump\t// in\n    tag_27:\n      mload(0x40)\n      tag_29\n      swap2\n      swap1\n      tag_30\n      jump\t// in\n    tag_29:\n      mload(0x40)\n      dup1\n      swap2\n      sub\n      swap1\n      return\n        /* \"@openzeppelin/contracts/token/ERC721/ERC721.sol\":3497:3651  function getApproved(uint256 tokenId) public view virtual returns (address) {... */\n    tag_4:\n      callvalue\n      dup1\n      iszero\n      tag_31\n      jumpi\n      0x00\n      dup1\n      revert\n    tag_31:\n      pop\n      tag_32\n      0x04\n      dup1\n      calldatasize\n      sub\n      dup2\n      add\n      swap1\n      tag_33\n      swap2\n      swap1\n      tag_34\n      jump\t// in\n    tag_33:\n      tag_35\n      jump\t// in\n    tag_32:\n      mload(0x40)\n      tag_36\n      swap2\n      swap1\n      tag_37\n      jump\t// in\n    tag_36:\n      mload(0x40)\n      dup1\n      swap2\n      sub\n      swap1\n      return\n        /* \"@openzeppelin/contracts/token/ERC721/ERC721.sol\":3323:3436  function approve(address to, uint256 tokenId) public virtual {... */\n    tag_5:\n      callvalue\n      dup1\n      iszero\n      tag_38\n      jumpi\n      0x00\n      dup1\n      revert\n    tag_38:\n      pop\n      tag_39\n      0x04\n      dup1\n      calldatasize\n      sub\n      dup2\n      add\n      swap1\n      tag_40\n      swap2\n      swap1\n      tag_41\n      jump\t// in\n    tag_40:\n      tag_42\n      jump\t// in\n    tag_39:\n      stop\n        /* \"@openzeppelin/contracts/token/ERC721/ERC721.sol\":4143:4721  function transferFrom(address from, address to, uint256 tokenId) public virtual {... */\n    tag_6:\n      callvalue\n      dup1\n      iszero\n      tag_43\n      jumpi\n      0x00\n      dup1\n      revert\n    tag_43:\n      pop\n      tag_44\n      0x04\n      dup1\n      calldatasize\n      sub\n      dup2\n      add\n      swap1\n      tag_45\n      swap2\n      swap1\n      tag_46\n      jump\t// in\n    tag_45:\n      tag_47\n      jump\t// in\n    tag_44:\n      stop\n        /* \"@openzeppelin/contracts/token/ERC721/ERC721.sol\":4787:4919  function safeTransferFrom(address from, address to, uint256 tokenId) public {... */\n    tag_7:\n      callvalue\n      dup1\n      iszero\n      tag_48\n      jumpi\n      0x00\n      dup1\n      revert\n    tag_48:\n      pop\n      tag_49\n      0x04\n      dup1\n      calldatasize\n      sub\n      dup2\n      add\n      swap1\n      tag_50\n      swap2\n      swap1\n      tag_46\n      jump\t// in\n    tag_50:\n      tag_51\n      jump\t// in\n    tag_49:\n      stop\n        /* \"@openzeppelin/contracts/token/ERC721/ERC721.sol\":2185:2303  function ownerOf(uint256 tokenId) public view virtual returns (address) {... */\n    tag_8:\n      callvalue\n      dup1\n      iszero\n      tag_52\n      jumpi\n      0x00\n      dup1\n      revert\n    tag_52:\n      pop\n      tag_53\n      0x04\n      dup1\n      calldatasize\n      sub\n      dup2\n      add\n      swap1\n      tag_54\n      swap2\n      swap1\n      tag_34\n      jump\t// in\n    tag_54:\n      tag_55\n      jump\t// in\n    tag_53:\n      mload(0x40)\n      tag_56\n      swap2\n      swap1\n      tag_37\n      jump\t// in\n    tag_56:\n      mload(0x40)\n      dup1\n      swap2\n      sub\n      swap1\n      return\n        /* \"@openzeppelin/contracts/token/ERC721/ERC721.sol\":1920:2128  function balanceOf(address owner) public view virtual returns (uint256) {... */\n    tag_9:\n      callvalue\n      dup1\n      iszero\n      tag_57\n      jumpi\n      0x00\n      dup1\n      revert\n    tag_57:\n      pop\n      tag_58\n      0x04\n      dup1\n      calldatasize\n      sub\n      dup2\n      add\n      swap1\n      tag_59\n      swap2\n      swap1\n      tag_60\n      jump\t// in\n    tag_59:\n      tag_61\n      jump\t// in\n    tag_58:\n      mload(0x40)\n      tag_62\n      swap2\n      swap1\n      tag_63\n      jump\t// in\n    tag_62:\n      mload(0x40)\n      dup1\n      swap2\n      sub\n      swap1\n      return\n        /* \"@openzeppelin/contracts/token/ERC721/ERC721.sol\":2518:2611  function symbol() public view virtual returns (string memory) {... */\n    tag_10:\n      callvalue\n      dup1\n      iszero\n      tag_64\n      jumpi\n      0x00\n      dup1\n      revert\n    tag_64:\n      pop\n      tag_65\n      tag_66\n      jump\t// in\n    tag_65:\n      mload(0x40)\n      tag_67\n      swap2\n      swap1\n      tag_30\n      jump\t// in\n    tag_67:\n      mload(0x40)\n      dup1\n      swap2\n      sub\n      swap1\n      return\n        /* \"@openzeppelin/contracts/token/ERC721/ERC721.sol\":3718:3862  function setApprovalForAll(address operator, bool approved) public virtual {... */\n    tag_11:\n      callvalue\n      dup1\n      iszero\n      tag_68\n      jumpi\n      0x00\n      dup1\n      revert\n    tag_68:\n      pop\n      tag_69\n      0x04\n      dup1\n      calldatasize\n      sub\n      dup2\n      add\n      swap1\n      tag_70\n      swap2\n      swap1\n      tag_71\n      jump\t// in\n    tag_70:\n      tag_72\n      jump\t// in\n    tag_69:\n      stop\n        /* \"@openzeppelin/contracts/token/ERC721/ERC721.sol\":4985:5193  function safeTransferFrom(address from, address to, uint256 tokenId, bytes memory data) public virtual {... */\n    tag_12:\n      callvalue\n      dup1\n      iszero\n      tag_73\n      jumpi\n      0x00\n      dup1\n      revert\n    tag_73:\n      pop\n      tag_74\n      0x04\n      dup1\n      calldatasize\n      sub\n      dup2\n      add\n      swap1\n      tag_75\n      swap2\n      swap1\n      tag_76\n      jump\t// in\n    tag_75:\n      tag_77\n      jump\t// in\n    tag_74:\n      stop\n        /* \"@openzeppelin/contracts/token/ERC721/extensions/ERC721URIStorage.sol\":1210:1803  function tokenURI(uint256 tokenId) public view virtual override returns (string memory) {... */\n    tag_13:\n      callvalue\n      dup1\n      iszero\n      tag_78\n      jumpi\n      0x00\n      dup1\n      revert\n    tag_78:\n      pop\n      tag_79\n      0x04\n      dup1\n      calldatasize\n      sub\n      dup2\n      add\n      swap1\n      tag_80\n      swap2\n      swap1\n      tag_34\n      jump\t// in\n    tag_80:\n      tag_81\n      jump\t// in\n    tag_79:\n      mload(0x40)\n      tag_82\n      swap2\n      swap1\n      tag_30\n      jump\t// in\n    tag_82:\n      mload(0x40)\n      dup1\n      swap2\n      sub\n      swap1\n      return\n        /* \"@openzeppelin/contracts/token/ERC721/ERC721.sol\":3928:4081  function isApprovedForAll(address owner, address operator) public view virtual returns (bool) {... */\n    tag_14:\n      callvalue\n      dup1\n      iszero\n      tag_83\n      jumpi\n      0x00\n      dup1\n      revert\n    tag_83:\n      pop\n      tag_84\n      0x04\n      dup1\n      calldatasize\n      sub\n      dup2\n      add\n      swap1\n      tag_85\n      swap2\n      swap1\n      tag_86\n      jump\t// in\n    tag_85:\n      tag_87\n      jump\t// in\n    tag_84:\n      mload(0x40)\n      tag_88\n      swap2\n      swap1\n      tag_25\n      jump\t// in\n    tag_88:\n      mload(0x40)\n      dup1\n      swap2\n      sub\n      swap1\n      return\n        /* \"contracts/TokenBasic.sol\":443:810  function mintNFT(string memory tokenURI)... */\n    tag_15:\n      tag_89\n      0x04\n      dup1\n      calldatasize\n      sub\n      dup2\n      add\n      swap1\n      tag_90\n      swap2\n      swap1\n      tag_91\n      jump\t// in\n    tag_90:\n      tag_92\n      jump\t// in\n    tag_89:\n      mload(0x40)\n      tag_93\n      swap2\n      swap1\n      tag_63\n      jump\t// in\n    tag_93:\n      mload(0x40)\n      dup1\n      swap2\n      sub\n      swap1\n      return\n        /* \"@openzeppelin/contracts/token/ERC721/extensions/ERC721URIStorage.sol\":937:1144  function supportsInterface(bytes4 interfaceId) public view virtual override(ERC721, IERC165) returns (bool) {... */\n    tag_23:\n        /* \"@openzeppelin/contracts/token/ERC721/extensions/ERC721URIStorage.sol\":1039:1043  bool */\n      0x00\n        /* \"@openzeppelin/contracts/token/ERC721/extensions/ERC721URIStorage.sol\":760:770  0x49064906 */\n      0x49064906\n        /* \"@openzeppelin/contracts/token/ERC721/extensions/ERC721URIStorage.sol\":753:771  bytes4(0x49064906) */\n      0xe0\n      shl\n        /* \"@openzeppelin/contracts/token/ERC721/extensions/ERC721URIStorage.sol\":1062:1097  interfaceId == ERC4906_INTERFACE_ID */\n      not(0xffffffffffffffffffffffffffffffffffffffffffffffffffffffff)\n      and\n        /* \"@openzeppelin/contracts/token/ERC721/extensions/ERC721URIStorage.sol\":1062:1073  interfaceId */\n      dup3\n        /* \"@openzeppelin/contracts/token/ERC721/extensions/ERC721URIStorage.sol\":1062:1097  interfaceId == ERC4906_INTERFACE_ID */\n      not(0xffffffffffffffffffffffffffffffffffffffffffffffffffffffff)\n      and\n      eq\n        /* \"@openzeppelin/contracts/token/ERC721/extensions/ERC721URIStorage.sol\":1062:1137  interfaceId == ERC4906_INTERFACE_ID || super.supportsInterface(interfaceId) */\n      dup1\n      tag_95\n      jumpi\n      pop\n        /* \"@openzeppelin/contracts/token/ERC721/extensions/ERC721URIStorage.sol\":1101:1137  super.supportsInterface(interfaceId) */\n      tag_96\n        /* \"@openzeppelin/contracts/token/ERC721/extensions/ERC721URIStorage.sol\":1125:1136  interfaceId */\n      dup3\n        /* \"@openzeppelin/contracts/token/ERC721/extensions/ERC721URIStorage.sol\":1101:1124  super.supportsInterface */\n      tag_97\n        /* \"@openzeppelin/contracts/token/ERC721/extensions/ERC721URIStorage.sol\":1101:1137  super.supportsInterface(interfaceId) */\n      jump\t// in\n    tag_96:\n        /* \"@openzeppelin/contracts/token/ERC721/extensions/ERC721URIStorage.sol\":1062:1137  interfaceId == ERC4906_INTERFACE_ID || super.supportsInterface(interfaceId) */\n    tag_95:\n        /* \"@openzeppelin/contracts/token/ERC721/extensions/ERC721URIStorage.sol\":1055:1137  return interfaceId == ERC4906_INTERFACE_ID || super.supportsInterface(interfaceId) */\n      swap1\n      pop\n        /* \"@openzeppelin/contracts/token/ERC721/extensions/ERC721URIStorage.sol\":937:1144  function supportsInterface(bytes4 interfaceId) public view virtual override(ERC721, IERC165) returns (bool) {... */\n      swap2\n      swap1\n      pop\n      jump\t// out\n        /* \"@openzeppelin/contracts/token/ERC721/ERC721.sol\":2365:2454  function name() public view virtual returns (string memory) {... */\n    tag_28:\n        /* \"@openzeppelin/contracts/token/ERC721/ERC721.sol\":2410:2423  string memory */\n      0x60\n        /* \"@openzeppelin/contracts/token/ERC721/ERC721.sol\":2442:2447  _name */\n      0x00\n        /* \"@openzeppelin/contracts/token/ERC721/ERC721.sol\":2435:2447  return _name */\n      dup1\n      sload\n      tag_99\n      swap1\n      tag_100\n      jump\t// in\n    tag_99:\n      dup1\n      0x1f\n      add\n      0x20\n      dup1\n      swap2\n      div\n      mul\n      0x20\n      add\n      mload(0x40)\n      swap1\n      dup2\n      add\n      0x40\n      mstore\n      dup1\n      swap3\n      swap2\n      swap1\n      dup2\n      dup2\n      mstore\n      0x20\n      add\n      dup3\n      dup1\n      sload\n      tag_101\n      swap1\n      tag_100\n      jump\t// in\n    tag_101:\n      dup1\n      iszero\n      tag_102\n      jumpi\n      dup1\n      0x1f\n      lt\n      tag_103\n      jumpi\n      0x0100\n      dup1\n      dup4\n      sload\n      div\n      mul\n      dup4\n      mstore\n      swap2\n      0x20\n      add\n      swap2\n      jump(tag_102)\n    tag_103:\n      dup3\n      add\n      swap2\n      swap1\n      0x00\n      mstore\n      keccak256(0x00, 0x20)\n      swap1\n    tag_104:\n      dup2\n      sload\n      dup2\n      mstore\n      swap1\n      0x01\n      add\n      swap1\n      0x20\n      add\n      dup1\n      dup4\n      gt\n      tag_104\n      jumpi\n      dup3\n      swap1\n      sub\n      0x1f\n      and\n      dup3\n      add\n      swap2\n    tag_102:\n      pop\n      pop\n      pop\n      pop\n      pop\n      swap1\n      pop\n        /* \"@openzeppelin/contracts/token/ERC721/ERC721.sol\":2365:2454  function name() public view virtual returns (string memory) {... */\n      swap1\n      jump\t// out\n        /* \"@openzeppelin/contracts/token/ERC721/ERC721.sol\":3497:3651  function getApproved(uint256 tokenId) public view virtual returns (address) {... */\n    tag_35:\n        /* \"@openzeppelin/contracts/token/ERC721/ERC721.sol\":3564:3571  address */\n      0x00\n        /* \"@openzeppelin/contracts/token/ERC721/ERC721.sol\":3583:3605  _requireOwned(tokenId) */\n      tag_106\n        /* \"@openzeppelin/contracts/token/ERC721/ERC721.sol\":3597:3604  tokenId */\n      dup3\n        /* \"@openzeppelin/contracts/token/ERC721/ERC721.sol\":3583:3596  _requireOwned */\n      tag_107\n        /* \"@openzeppelin/contracts/token/ERC721/ERC721.sol\":3583:3605  _requireOwned(tokenId) */\n      jump\t// in\n    tag_106:\n      pop\n        /* \"@openzeppelin/contracts/token/ERC721/ERC721.sol\":3623:3644  _getApproved(tokenId) */\n      tag_108\n        /* \"@openzeppelin/contracts/token/ERC721/ERC721.sol\":3636:3643  tokenId */\n      dup3\n        /* \"@openzeppelin/contracts/token/ERC721/ERC721.sol\":3623:3635  _getApproved */\n      tag_109\n        /* \"@openzeppelin/contracts/token/ERC721/ERC721.sol\":3623:3644  _getApproved(tokenId) */\n      jump\t// in\n    tag_108:\n        /* \"@openzeppelin/contracts/token/ERC721/ERC721.sol\":3616:3644  return _getApproved(tokenId) */\n      swap1\n      pop\n        /* \"@openzeppelin/contracts/token/ERC721/ERC721.sol\":3497:3651  function getApproved(uint256 tokenId) public view virtual returns (address) {... */\n      swap2\n      swap1\n      pop\n      jump\t// out\n        /* \"@openzeppelin/contracts/token/ERC721/ERC721.sol\":3323:3436  function approve(address to, uint256 tokenId) public virtual {... */\n    tag_42:\n        /* \"@openzeppelin/contracts/token/ERC721/ERC721.sol\":3394:3429  _approve(to, tokenId, _msgSender()) */\n      tag_111\n        /* \"@openzeppelin/contracts/token/ERC721/ERC721.sol\":3403:3405  to */\n      dup3\n        /* \"@openzeppelin/contracts/token/ERC721/ERC721.sol\":3407:3414  tokenId */\n      dup3\n        /* \"@openzeppelin/contracts/token/ERC721/ERC721.sol\":3416:3428  _msgSender() */\n      tag_112\n        /* \"@openzeppelin/contracts/token/ERC721/ERC721.sol\":3416:3426  _msgSender */\n      tag_113\n        /* \"@openzeppelin/contracts/token/ERC721/ERC721.sol\":3416:3428  _msgSender() */\n      jump\t// in\n    tag_112:\n        /* \"@openzeppelin/contracts/token/ERC721/ERC721.sol\":3394:3402  _approve */\n      tag_114\n        /* \"@openzeppelin/contracts/token/ERC721/ERC721.sol\":3394:3429  _approve(to, tokenId, _msgSender()) */\n      jump\t// in\n    tag_111:\n        /* \"@openzeppelin/contracts/token/ERC721/ERC721.sol\":3323:3436  function approve(address to, uint256 tokenId) public virtual {... */\n      pop\n      pop\n      jump\t// out\n        /* \"@openzeppelin/contracts/token/ERC721/ERC721.sol\":4143:4721  function transferFrom(address from, address to, uint256 tokenId) public virtual {... */\n    tag_47:\n        /* \"@openzeppelin/contracts/token/ERC721/ERC721.sol\":4251:4252  0 */\n      0x00\n        /* \"@openzeppelin/contracts/token/ERC721/ERC721.sol\":4237:4253  to == address(0) */\n      0xffffffffffffffffffffffffffffffffffffffff\n      and\n        /* \"@openzeppelin/contracts/token/ERC721/ERC721.sol\":4237:4239  to */\n      dup3\n        /* \"@openzeppelin/contracts/token/ERC721/ERC721.sol\":4237:4253  to == address(0) */\n      0xffffffffffffffffffffffffffffffffffffffff\n      and\n      sub\n        /* \"@openzeppelin/contracts/token/ERC721/ERC721.sol\":4233:4320  if (to == address(0)) {... */\n      tag_116\n      jumpi\n        /* \"@openzeppelin/contracts/token/ERC721/ERC721.sol\":4306:4307  0 */\n      0x00\n        /* \"@openzeppelin/contracts/token/ERC721/ERC721.sol\":4276:4309  ERC721InvalidReceiver(address(0)) */\n      mload(0x40)\n      0x64a0ae9200000000000000000000000000000000000000000000000000000000\n      dup2\n      mstore\n      0x04\n      add\n      tag_117\n      swap2\n      swap1\n      tag_37\n      jump\t// in\n    tag_117:\n      mload(0x40)\n      dup1\n      swap2\n      sub\n      swap1\n      revert\n        /* \"@openzeppelin/contracts/token/ERC721/ERC721.sol\":4233:4320  if (to == address(0)) {... */\n    tag_116:\n        /* \"@openzeppelin/contracts/token/ERC721/ERC721.sol\":4538:4559  address previousOwner */\n      0x00\n        /* \"@openzeppelin/contracts/token/ERC721/ERC721.sol\":4562:4596  _update(to, tokenId, _msgSender()) */\n      tag_118\n        /* \"@openzeppelin/contracts/token/ERC721/ERC721.sol\":4570:4572  to */\n      dup4\n        /* \"@openzeppelin/contracts/token/ERC721/ERC721.sol\":4574:4581  tokenId */\n      dup4\n        /* \"@openzeppelin/contracts/token/ERC721/ERC721.sol\":4583:4595  _msgSender() */\n      tag_119\n        /* \"@openzeppelin/contracts/token/ERC721/ERC721.sol\":4583:4593  _msgSender */\n      tag_113\n        /* \"@openzeppelin/contracts/token/ERC721/ERC721.sol\":4583:4595  _msgSender() */\n      jump\t// in\n    tag_119:\n        /* \"@openzeppelin/contracts/token/ERC721/ERC721.sol\":4562:4569  _update */\n      tag_120\n        /* \"@openzeppelin/contracts/token/ERC721/ERC721.sol\":4562:4596  _update(to, tokenId, _msgSender()) */\n      jump\t// in\n    tag_118:\n        /* \"@openzeppelin/contracts/token/ERC721/ERC721.sol\":4538:4596  address previousOwner = _update(to, tokenId, _msgSender()) */\n      swap1\n      pop\n        /* \"@openzeppelin/contracts/token/ERC721/ERC721.sol\":4627:4631  from */\n      dup4\n        /* \"@openzeppelin/contracts/token/ERC721/ERC721.sol\":4610:4631  previousOwner != from */\n      0xffffffffffffffffffffffffffffffffffffffff\n      and\n        /* \"@openzeppelin/contracts/token/ERC721/ERC721.sol\":4610:4623  previousOwner */\n      dup2\n        /* \"@openzeppelin/contracts/token/ERC721/ERC721.sol\":4610:4631  previousOwner != from */\n      0xffffffffffffffffffffffffffffffffffffffff\n      and\n      eq\n        /* \"@openzeppelin/contracts/token/ERC721/ERC721.sol\":4606:4715  if (previousOwner != from) {... */\n      tag_121\n      jumpi\n        /* \"@openzeppelin/contracts/token/ERC721/ERC721.sol\":4675:4679  from */\n      dup4\n        /* \"@openzeppelin/contracts/token/ERC721/ERC721.sol\":4681:4688  tokenId */\n      dup3\n        /* \"@openzeppelin/contracts/token/ERC721/ERC721.sol\":4690:4703  previousOwner */\n      dup3\n        /* \"@openzeppelin/contracts/token/ERC721/ERC721.sol\":4654:4704  ERC721IncorrectOwner(from, tokenId, previousOwner) */\n      mload(0x40)\n      0x64283d7b00000000000000000000000000000000000000000000000000000000\n      dup2\n      mstore\n      0x04\n      add\n      tag_122\n      swap4\n      swap3\n      swap2\n      swap1\n      tag_123\n      jump\t// in\n    tag_122:\n      mload(0x40)\n      dup1\n      swap2\n      sub\n      swap1\n      revert\n        /* \"@openzeppelin/contracts/token/ERC721/ERC721.sol\":4606:4715  if (previousOwner != from) {... */\n    tag_121:\n        /* \"@openzeppelin/contracts/token/ERC721/ERC721.sol\":4223:4721  {... */\n      pop\n        /* \"@openzeppelin/contracts/token/ERC721/ERC721.sol\":4143:4721  function transferFrom(address from, address to, uint256 tokenId) public virtual {... */\n      pop\n      pop\n      pop\n      jump\t// out\n        /* \"@openzeppelin/contracts/token/ERC721/ERC721.sol\":4787:4919  function safeTransferFrom(address from, address to, uint256 tokenId) public {... */\n    tag_51:\n        /* \"@openzeppelin/contracts/token/ERC721/ERC721.sol\":4873:4912  safeTransferFrom(from, to, tokenId, \"\") */\n      tag_125\n        /* \"@openzeppelin/contracts/token/ERC721/ERC721.sol\":4890:4894  from */\n      dup4\n        /* \"@openzeppelin/contracts/token/ERC721/ERC721.sol\":4896:4898  to */\n      dup4\n        /* \"@openzeppelin/contracts/token/ERC721/ERC721.sol\":4900:4907  tokenId */\n      dup4\n        /* \"@openzeppelin/contracts/token/ERC721/ERC721.sol\":4873:4912  safeTransferFrom(from, to, tokenId, \"\") */\n      mload(0x40)\n      dup1\n      0x20\n      add\n      0x40\n      mstore\n      dup1\n      0x00\n      dup2\n      mstore\n      pop\n        /* \"@openzeppelin/contracts/token/ERC721/ERC721.sol\":4873:4889  safeTransferFrom */\n      tag_77\n        /* \"@openzeppelin/contracts/token/ERC721/ERC721.sol\":4873:4912  safeTransferFrom(from, to, tokenId, \"\") */\n      jump\t// in\n    tag_125:\n        /* \"@openzeppelin/contracts/token/ERC721/ERC721.sol\":4787:4919  function safeTransferFrom(address from, address to, uint256 tokenId) public {... */\n      pop\n      pop\n      pop\n      jump\t// out\n        /* \"@openzeppelin/contracts/token/ERC721/ERC721.sol\":2185:2303  function ownerOf(uint256 tokenId) public view virtual returns (address) {... */\n    tag_55:\n        /* \"@openzeppelin/contracts/token/ERC721/ERC721.sol\":2248:2255  address */\n      0x00\n        /* \"@openzeppelin/contracts/token/ERC721/ERC721.sol\":2274:2296  _requireOwned(tokenId) */\n      tag_127\n        /* \"@openzeppelin/contracts/token/ERC721/ERC721.sol\":2288:2295  tokenId */\n      dup3\n        /* \"@openzeppelin/contracts/token/ERC721/ERC721.sol\":2274:2287  _requireOwned */\n      tag_107\n        /* \"@openzeppelin/contracts/token/ERC721/ERC721.sol\":2274:2296  _requireOwned(tokenId) */\n      jump\t// in\n    tag_127:\n        /* \"@openzeppelin/contracts/token/ERC721/ERC721.sol\":2267:2296  return _requireOwned(tokenId) */\n      swap1\n      pop\n        /* \"@openzeppelin/contracts/token/ERC721/ERC721.sol\":2185:2303  function ownerOf(uint256 tokenId) public view virtual returns (address) {... */\n      swap2\n      swap1\n      pop\n      jump\t// out\n        /* \"@openzeppelin/contracts/token/ERC721/ERC721.sol\":1920:2128  function balanceOf(address owner) public view virtual returns (uint256) {... */\n    tag_61:\n        /* \"@openzeppelin/contracts/token/ERC721/ERC721.sol\":1983:1990  uint256 */\n      0x00\n        /* \"@openzeppelin/contracts/token/ERC721/ERC721.sol\":2023:2024  0 */\n      dup1\n        /* \"@openzeppelin/contracts/token/ERC721/ERC721.sol\":2006:2025  owner == address(0) */\n      0xffffffffffffffffffffffffffffffffffffffff\n      and\n        /* \"@openzeppelin/contracts/token/ERC721/ERC721.sol\":2006:2011  owner */\n      dup3\n        /* \"@openzeppelin/contracts/token/ERC721/ERC721.sol\":2006:2025  owner == address(0) */\n      0xffffffffffffffffffffffffffffffffffffffff\n      and\n      sub\n        /* \"@openzeppelin/contracts/token/ERC721/ERC721.sol\":2002:2089  if (owner == address(0)) {... */\n      tag_129\n      jumpi\n        /* \"@openzeppelin/contracts/token/ERC721/ERC721.sol\":2075:2076  0 */\n      0x00\n        /* \"@openzeppelin/contracts/token/ERC721/ERC721.sol\":2048:2078  ERC721InvalidOwner(address(0)) */\n      mload(0x40)\n      0x89c62b6400000000000000000000000000000000000000000000000000000000\n      dup2\n      mstore\n      0x04\n      add\n      tag_130\n      swap2\n      swap1\n      tag_37\n      jump\t// in\n    tag_130:\n      mload(0x40)\n      dup1\n      swap2\n      sub\n      swap1\n      revert\n        /* \"@openzeppelin/contracts/token/ERC721/ERC721.sol\":2002:2089  if (owner == address(0)) {... */\n    tag_129:\n        /* \"@openzeppelin/contracts/token/ERC721/ERC721.sol\":2105:2114  _balances */\n      0x03\n        /* \"@openzeppelin/contracts/token/ERC721/ERC721.sol\":2105:2121  _balances[owner] */\n      0x00\n        /* \"@openzeppelin/contracts/token/ERC721/ERC721.sol\":2115:2120  owner */\n      dup4\n        /* \"@openzeppelin/contracts/token/ERC721/ERC721.sol\":2105:2121  _balances[owner] */\n      0xffffffffffffffffffffffffffffffffffffffff\n      and\n      0xffffffffffffffffffffffffffffffffffffffff\n      and\n      dup2\n      mstore\n      0x20\n      add\n      swap1\n      dup2\n      mstore\n      0x20\n      add\n      0x00\n      keccak256\n      sload\n        /* \"@openzeppelin/contracts/token/ERC721/ERC721.sol\":2098:2121  return _balances[owner] */\n      swap1\n      pop\n        /* \"@openzeppelin/contracts/token/ERC721/ERC721.sol\":1920:2128  function balanceOf(address owner) public view virtual returns (uint256) {... */\n      swap2\n      swap1\n      pop\n      jump\t// out\n        /* \"@openzeppelin/contracts/token/ERC721/ERC721.sol\":2518:2611  function symbol() public view virtual returns (string memory) {... */\n    tag_66:\n        /* \"@openzeppelin/contracts/token/ERC721/ERC721.sol\":2565:2578  string memory */\n      0x60\n        /* \"@openzeppelin/contracts/token/ERC721/ERC721.sol\":2597:2604  _symbol */\n      0x01\n        /* \"@openzeppelin/contracts/token/ERC721/ERC721.sol\":2590:2604  return _symbol */\n      dup1\n      sload\n      tag_132\n      swap1\n      tag_100\n      jump\t// in\n    tag_132:\n      dup1\n      0x1f\n      add\n      0x20\n      dup1\n      swap2\n      div\n      mul\n      0x20\n      add\n      mload(0x40)\n      swap1\n      dup2\n      add\n      0x40\n      mstore\n      dup1\n      swap3\n      swap2\n      swap1\n      dup2\n      dup2\n      mstore\n      0x20\n      add\n      dup3\n      dup1\n      sload\n      tag_133\n      swap1\n      tag_100\n      jump\t// in\n    tag_133:\n      dup1\n      iszero\n      tag_134\n      jumpi\n      dup1\n      0x1f\n      lt\n      tag_135\n      jumpi\n      0x0100\n      dup1\n      dup4\n      sload\n      div\n      mul\n      dup4\n      mstore\n      swap2\n      0x20\n      add\n      swap2\n      jump(tag_134)\n    tag_135:\n      dup3\n      add\n      swap2\n      swap1\n      0x00\n      mstore\n      keccak256(0x00, 0x20)\n      swap1\n    tag_136:\n      dup2\n      sload\n      dup2\n      mstore\n      swap1\n      0x01\n      add\n      swap1\n      0x20\n      add\n      dup1\n      dup4\n      gt\n      tag_136\n      jumpi\n      dup3\n      swap1\n      sub\n      0x1f\n      and\n      dup3\n      add\n      swap2\n    tag_134:\n      pop\n      pop\n      pop\n      pop\n      pop\n      swap1\n      pop\n        /* \"@openzeppelin/contracts/token/ERC721/ERC721.sol\":2518:2611  function symbol() public view virtual returns (string memory) {... */\n      swap1\n      jump\t// out\n        /* \"@openzeppelin/contracts/token/ERC721/ERC721.sol\":3718:3862  function setApprovalForAll(address operator, bool approved) public virtual {... */\n    tag_72:\n        /* \"@openzeppelin/contracts/token/ERC721/ERC721.sol\":3803:3855  _setApprovalForAll(_msgSender(), operator, approved) */\n      tag_138\n        /* \"@openzeppelin/contracts/token/ERC721/ERC721.sol\":3822:3834  _msgSender() */\n      tag_139\n        /* \"@openzeppelin/contracts/token/ERC721/ERC721.sol\":3822:3832  _msgSender */\n      tag_113\n        /* \"@openzeppelin/contracts/token/ERC721/ERC721.sol\":3822:3834  _msgSender() */\n      jump\t// in\n    tag_139:\n        /* \"@openzeppelin/contracts/token/ERC721/ERC721.sol\":3836:3844  operator */\n      dup4\n        /* \"@openzeppelin/contracts/token/ERC721/ERC721.sol\":3846:3854  approved */\n      dup4\n        /* \"@openzeppelin/contracts/token/ERC721/ERC721.sol\":3803:3821  _setApprovalForAll */\n      tag_140\n        /* \"@openzeppelin/contracts/token/ERC721/ERC721.sol\":3803:3855  _setApprovalForAll(_msgSender(), operator, approved) */\n      jump\t// in\n    tag_138:\n        /* \"@openzeppelin/contracts/token/ERC721/ERC721.sol\":3718:3862  function setApprovalForAll(address operator, bool approved) public virtual {... */\n      pop\n      pop\n      jump\t// out\n        /* \"@openzeppelin/contracts/token/ERC721/ERC721.sol\":4985:5193  function safeTransferFrom(address from, address to, uint256 tokenId, bytes memory data) public virtual {... */\n    tag_77:\n        /* \"@openzeppelin/contracts/token/ERC721/ERC721.sol\":5098:5129  transferFrom(from, to, tokenId) */\n      tag_142\n        /* \"@openzeppelin/contracts/token/ERC721/ERC721.sol\":5111:5115  from */\n      dup5\n        /* \"@openzeppelin/contracts/token/ERC721/ERC721.sol\":5117:5119  to */\n      dup5\n        /* \"@openzeppelin/contracts/token/ERC721/ERC721.sol\":5121:5128  tokenId */\n      dup5\n        /* \"@openzeppelin/contracts/token/ERC721/ERC721.sol\":5098:5110  transferFrom */\n      tag_47\n        /* \"@openzeppelin/contracts/token/ERC721/ERC721.sol\":5098:5129  transferFrom(from, to, tokenId) */\n      jump\t// in\n    tag_142:\n        /* \"@openzeppelin/contracts/token/ERC721/ERC721.sol\":5139:5186  _checkOnERC721Received(from, to, tokenId, data) */\n      tag_143\n        /* \"@openzeppelin/contracts/token/ERC721/ERC721.sol\":5162:5166  from */\n      dup5\n        /* \"@openzeppelin/contracts/token/ERC721/ERC721.sol\":5168:5170  to */\n      dup5\n        /* \"@openzeppelin/contracts/token/ERC721/ERC721.sol\":5172:5179  tokenId */\n      dup5\n        /* \"@openzeppelin/contracts/token/ERC721/ERC721.sol\":5181:5185  data */\n      dup5\n        /* \"@openzeppelin/contracts/token/ERC721/ERC721.sol\":5139:5161  _checkOnERC721Received */\n      tag_144\n        /* \"@openzeppelin/contracts/token/ERC721/ERC721.sol\":5139:5186  _checkOnERC721Received(from, to, tokenId, data) */\n      jump\t// in\n    tag_143:\n        /* \"@openzeppelin/contracts/token/ERC721/ERC721.sol\":4985:5193  function safeTransferFrom(address from, address to, uint256 tokenId, bytes memory data) public virtual {... */\n      pop\n      pop\n      pop\n      pop\n      jump\t// out\n        /* \"@openzeppelin/contracts/token/ERC721/extensions/ERC721URIStorage.sol\":1210:1803  function tokenURI(uint256 tokenId) public view virtual override returns (string memory) {... */\n    tag_81:\n        /* \"@openzeppelin/contracts/token/ERC721/extensions/ERC721URIStorage.sol\":1283:1296  string memory */\n      0x60\n        /* \"@openzeppelin/contracts/token/ERC721/extensions/ERC721URIStorage.sol\":1308:1330  _requireOwned(tokenId) */\n      tag_146\n        /* \"@openzeppelin/contracts/token/ERC721/extensions/ERC721URIStorage.sol\":1322:1329  tokenId */\n      dup3\n        /* \"@openzeppelin/contracts/token/ERC721/extensions/ERC721URIStorage.sol\":1308:1321  _requireOwned */\n      tag_107\n        /* \"@openzeppelin/contracts/token/ERC721/extensions/ERC721URIStorage.sol\":1308:1330  _requireOwned(tokenId) */\n      jump\t// in\n    tag_146:\n      pop\n        /* \"@openzeppelin/contracts/token/ERC721/extensions/ERC721URIStorage.sol\":1341:1364  string memory _tokenURI */\n      0x00\n        /* \"@openzeppelin/contracts/token/ERC721/extensions/ERC721URIStorage.sol\":1367:1377  _tokenURIs */\n      0x06\n        /* \"@openzeppelin/contracts/token/ERC721/extensions/ERC721URIStorage.sol\":1367:1386  _tokenURIs[tokenId] */\n      0x00\n        /* \"@openzeppelin/contracts/token/ERC721/extensions/ERC721URIStorage.sol\":1378:1385  tokenId */\n      dup5\n        /* \"@openzeppelin/contracts/token/ERC721/extensions/ERC721URIStorage.sol\":1367:1386  _tokenURIs[tokenId] */\n      dup2\n      mstore\n      0x20\n      add\n      swap1\n      dup2\n      mstore\n      0x20\n      add\n      0x00\n      keccak256\n        /* \"@openzeppelin/contracts/token/ERC721/extensions/ERC721URIStorage.sol\":1341:1386  string memory _tokenURI = _tokenURIs[tokenId] */\n      dup1\n      sload\n      tag_147\n      swap1\n      tag_100\n      jump\t// in\n    tag_147:\n      dup1\n      0x1f\n      add\n      0x20\n      dup1\n      swap2\n      div\n      mul\n      0x20\n      add\n      mload(0x40)\n      swap1\n      dup2\n      add\n      0x40\n      mstore\n      dup1\n      swap3\n      swap2\n      swap1\n      dup2\n      dup2\n      mstore\n      0x20\n      add\n      dup3\n      dup1\n      sload\n      tag_148\n      swap1\n      tag_100\n      jump\t// in\n    tag_148:\n      dup1\n      iszero\n      tag_149\n      jumpi\n      dup1\n      0x1f\n      lt\n      tag_150\n      jumpi\n      0x0100\n      dup1\n      dup4\n      sload\n      div\n      mul\n      dup4\n      mstore\n      swap2\n      0x20\n      add\n      swap2\n      jump(tag_149)\n    tag_150:\n      dup3\n      add\n      swap2\n      swap1\n      0x00\n      mstore\n      keccak256(0x00, 0x20)\n      swap1\n    tag_151:\n      dup2\n      sload\n      dup2\n      mstore\n      swap1\n      0x01\n      add\n      swap1\n      0x20\n      add\n      dup1\n      dup4\n      gt\n      tag_151\n      jumpi\n      dup3\n      swap1\n      sub\n      0x1f\n      and\n      dup3\n      add\n      swap2\n    tag_149:\n      pop\n      pop\n      pop\n      pop\n      pop\n      swap1\n      pop\n        /* \"@openzeppelin/contracts/token/ERC721/extensions/ERC721URIStorage.sol\":1396:1414  string memory base */\n      0x00\n        /* \"@openzeppelin/contracts/token/ERC721/extensions/ERC721URIStorage.sol\":1417:1427  _baseURI() */\n      tag_152\n        /* \"@openzeppelin/contracts/token/ERC721/extensions/ERC721URIStorage.sol\":1417:1425  _baseURI */\n      tag_153\n        /* \"@openzeppelin/contracts/token/ERC721/extensions/ERC721URIStorage.sol\":1417:1427  _baseURI() */\n      jump\t// in\n    tag_152:\n        /* \"@openzeppelin/contracts/token/ERC721/extensions/ERC721URIStorage.sol\":1396:1427  string memory base = _baseURI() */\n      swap1\n      pop\n        /* \"@openzeppelin/contracts/token/ERC721/extensions/ERC721URIStorage.sol\":1522:1523  0 */\n      0x00\n        /* \"@openzeppelin/contracts/token/ERC721/extensions/ERC721URIStorage.sol\":1506:1510  base */\n      dup2\n        /* \"@openzeppelin/contracts/token/ERC721/extensions/ERC721URIStorage.sol\":1500:1518  bytes(base).length */\n      mload\n        /* \"@openzeppelin/contracts/token/ERC721/extensions/ERC721URIStorage.sol\":1500:1523  bytes(base).length == 0 */\n      sub\n        /* \"@openzeppelin/contracts/token/ERC721/extensions/ERC721URIStorage.sol\":1496:1566  if (bytes(base).length == 0) {... */\n      tag_154\n      jumpi\n        /* \"@openzeppelin/contracts/token/ERC721/extensions/ERC721URIStorage.sol\":1546:1555  _tokenURI */\n      dup2\n        /* \"@openzeppelin/contracts/token/ERC721/extensions/ERC721URIStorage.sol\":1539:1555  return _tokenURI */\n      swap3\n      pop\n      pop\n      pop\n      jump(tag_145)\n        /* \"@openzeppelin/contracts/token/ERC721/extensions/ERC721URIStorage.sol\":1496:1566  if (bytes(base).length == 0) {... */\n    tag_154:\n        /* \"@openzeppelin/contracts/token/ERC721/extensions/ERC721URIStorage.sol\":1691:1692  0 */\n      0x00\n        /* \"@openzeppelin/contracts/token/ERC721/extensions/ERC721URIStorage.sol\":1671:1680  _tokenURI */\n      dup3\n        /* \"@openzeppelin/contracts/token/ERC721/extensions/ERC721URIStorage.sol\":1665:1688  bytes(_tokenURI).length */\n      mload\n        /* \"@openzeppelin/contracts/token/ERC721/extensions/ERC721URIStorage.sol\":1665:1692  bytes(_tokenURI).length > 0 */\n      gt\n        /* \"@openzeppelin/contracts/token/ERC721/extensions/ERC721URIStorage.sol\":1661:1756  if (bytes(_tokenURI).length > 0) {... */\n      iszero\n      tag_155\n      jumpi\n        /* \"@openzeppelin/contracts/token/ERC721/extensions/ERC721URIStorage.sol\":1729:1733  base */\n      dup1\n        /* \"@openzeppelin/contracts/token/ERC721/extensions/ERC721URIStorage.sol\":1735:1744  _tokenURI */\n      dup3\n        /* \"@openzeppelin/contracts/token/ERC721/extensions/ERC721URIStorage.sol\":1715:1745  string.concat(base, _tokenURI) */\n      add(0x20, mload(0x40))\n      tag_156\n      swap3\n      swap2\n      swap1\n      tag_157\n      jump\t// in\n    tag_156:\n      mload(0x40)\n      0x20\n      dup2\n      dup4\n      sub\n      sub\n      dup2\n      mstore\n      swap1\n      0x40\n      mstore\n        /* \"@openzeppelin/contracts/token/ERC721/extensions/ERC721URIStorage.sol\":1708:1745  return string.concat(base, _tokenURI) */\n      swap3\n      pop\n      pop\n      pop\n      jump(tag_145)\n        /* \"@openzeppelin/contracts/token/ERC721/extensions/ERC721URIStorage.sol\":1661:1756  if (bytes(_tokenURI).length > 0) {... */\n    tag_155:\n        /* \"@openzeppelin/contracts/token/ERC721/extensions/ERC721URIStorage.sol\":1773:1796  super.tokenURI(tokenId) */\n      tag_158\n        /* \"@openzeppelin/contracts/token/ERC721/extensions/ERC721URIStorage.sol\":1788:1795  tokenId */\n      dup5\n        /* \"@openzeppelin/contracts/token/ERC721/extensions/ERC721URIStorage.sol\":1773:1787  super.tokenURI */\n      tag_159\n        /* \"@openzeppelin/contracts/token/ERC721/extensions/ERC721URIStorage.sol\":1773:1796  super.tokenURI(tokenId) */\n      jump\t// in\n    tag_158:\n        /* \"@openzeppelin/contracts/token/ERC721/extensions/ERC721URIStorage.sol\":1766:1796  return super.tokenURI(tokenId) */\n      swap3\n      pop\n      pop\n      pop\n        /* \"@openzeppelin/contracts/token/ERC721/extensions/ERC721URIStorage.sol\":1210:1803  function tokenURI(uint256 tokenId) public view virtual override returns (string memory) {... */\n    tag_145:\n      swap2\n      swap1\n      pop\n      jump\t// out\n        /* \"@openzeppelin/contracts/token/ERC721/ERC721.sol\":3928:4081  function isApprovedForAll(address owner, address operator) public view virtual returns (bool) {... */\n    tag_87:\n        /* \"@openzeppelin/contracts/token/ERC721/ERC721.sol\":4016:4020  bool */\n      0x00\n        /* \"@openzeppelin/contracts/token/ERC721/ERC721.sol\":4039:4057  _operatorApprovals */\n      0x05\n        /* \"@openzeppelin/contracts/token/ERC721/ERC721.sol\":4039:4064  _operatorApprovals[owner] */\n      0x00\n        /* \"@openzeppelin/contracts/token/ERC721/ERC721.sol\":4058:4063  owner */\n      dup5\n        /* \"@openzeppelin/contracts/token/ERC721/ERC721.sol\":4039:4064  _operatorApprovals[owner] */\n      0xffffffffffffffffffffffffffffffffffffffff\n      and\n      0xffffffffffffffffffffffffffffffffffffffff\n      and\n      dup2\n      mstore\n      0x20\n      add\n      swap1\n      dup2\n      mstore\n      0x20\n      add\n      0x00\n      keccak256\n        /* \"@openzeppelin/contracts/token/ERC721/ERC721.sol\":4039:4074  _operatorApprovals[owner][operator] */\n      0x00\n        /* \"@openzeppelin/contracts/token/ERC721/ERC721.sol\":4065:4073  operator */\n      dup4\n        /* \"@openzeppelin/contracts/token/ERC721/ERC721.sol\":4039:4074  _operatorApprovals[owner][operator] */\n      0xffffffffffffffffffffffffffffffffffffffff\n      and\n      0xffffffffffffffffffffffffffffffffffffffff\n      and\n      dup2\n      mstore\n      0x20\n      add\n      swap1\n      dup2\n      mstore\n      0x20\n      add\n      0x00\n      keccak256\n      0x00\n      swap1\n      sload\n      swap1\n      0x0100\n      exp\n      swap1\n      div\n      0xff\n      and\n        /* \"@openzeppelin/contracts/token/ERC721/ERC721.sol\":4032:4074  return _operatorApprovals[owner][operator] */\n      swap1\n      pop\n        /* \"@openzeppelin/contracts/token/ERC721/ERC721.sol\":3928:4081  function isApprovedForAll(address owner, address operator) public view virtual returns (bool) {... */\n      swap3\n      swap2\n      pop\n      pop\n      jump\t// out\n        /* \"contracts/TokenBasic.sol\":443:810  function mintNFT(string memory tokenURI)... */\n    tag_92:\n        /* \"contracts/TokenBasic.sol\":535:542  uint256 */\n      0x00\n        /* \"contracts/TokenBasic.sol\":581:586  price */\n      sload(0x09)\n        /* \"contracts/TokenBasic.sol\":568:577  msg.value */\n      callvalue\n        /* \"contracts/TokenBasic.sol\":568:586  msg.value >= price */\n      lt\n      iszero\n        /* \"contracts/TokenBasic.sol\":560:618  require(msg.value >= price, \"You don't have enough funds\") */\n      tag_162\n      jumpi\n      mload(0x40)\n      0x08c379a000000000000000000000000000000000000000000000000000000000\n      dup2\n      mstore\n      0x04\n      add\n      tag_163\n      swap1\n      tag_164\n      jump\t// in\n    tag_163:\n      mload(0x40)\n      dup1\n      swap2\n      sub\n      swap1\n      revert\n    tag_162:\n        /* \"contracts/TokenBasic.sol\":629:634  owner */\n      0x08\n      0x00\n      swap1\n      sload\n      swap1\n      0x0100\n      exp\n      swap1\n      div\n      0xffffffffffffffffffffffffffffffffffffffff\n      and\n        /* \"contracts/TokenBasic.sol\":629:643  owner.transfer */\n      0xffffffffffffffffffffffffffffffffffffffff\n      and\n        /* \"contracts/TokenBasic.sol\":629:654  owner.transfer(msg.value) */\n      0x08fc\n        /* \"contracts/TokenBasic.sol\":644:653  msg.value */\n      callvalue\n        /* \"contracts/TokenBasic.sol\":629:654  owner.transfer(msg.value) */\n      swap1\n      dup2\n      iszero\n      mul\n      swap1\n      mload(0x40)\n      0x00\n      mload(0x40)\n      dup1\n      dup4\n      sub\n      dup2\n      dup6\n      dup9\n      dup9\n      call\n      swap4\n      pop\n      pop\n      pop\n      pop\n      iszero\n      dup1\n      iszero\n      tag_166\n      jumpi\n      returndatasize\n      0x00\n      dup1\n      returndatacopy\n      revert(0x00, returndatasize)\n    tag_166:\n      pop\n        /* \"contracts/TokenBasic.sol\":689:690  1 */\n      0x01\n        /* \"contracts/TokenBasic.sol\":677:686  _tokenIds */\n      sload(0x07)\n        /* \"contracts/TokenBasic.sol\":677:690  _tokenIds + 1 */\n      tag_167\n      swap2\n      swap1\n      tag_168\n      jump\t// in\n    tag_167:\n        /* \"contracts/TokenBasic.sol\":665:674  _tokenIds */\n      0x07\n        /* \"contracts/TokenBasic.sol\":665:690  _tokenIds = _tokenIds + 1 */\n      dup2\n      swap1\n      sstore\n      pop\n        /* \"contracts/TokenBasic.sol\":701:729  _mint(msg.sender, _tokenIds) */\n      tag_169\n        /* \"contracts/TokenBasic.sol\":707:717  msg.sender */\n      caller\n        /* \"contracts/TokenBasic.sol\":719:728  _tokenIds */\n      sload(0x07)\n        /* \"contracts/TokenBasic.sol\":701:706  _mint */\n      tag_170\n        /* \"contracts/TokenBasic.sol\":701:729  _mint(msg.sender, _tokenIds) */\n      jump\t// in\n    tag_169:\n        /* \"contracts/TokenBasic.sol\":740:773  _setTokenURI(_tokenIds, tokenURI) */\n      tag_171\n        /* \"contracts/TokenBasic.sol\":753:762  _tokenIds */\n      sload(0x07)\n        /* \"contracts/TokenBasic.sol\":764:772  tokenURI */\n      dup4\n        /* \"contracts/TokenBasic.sol\":740:752  _setTokenURI */\n      tag_172\n        /* \"contracts/TokenBasic.sol\":740:773  _setTokenURI(_tokenIds, tokenURI) */\n      jump\t// in\n    tag_171:\n        /* \"contracts/TokenBasic.sol\":793:802  _tokenIds */\n      sload(0x07)\n        /* \"contracts/TokenBasic.sol\":786:802  return _tokenIds */\n      swap1\n      pop\n        /* \"contracts/TokenBasic.sol\":443:810  function mintNFT(string memory tokenURI)... */\n      swap2\n      swap1\n      pop\n      jump\t// out\n        /* \"@openzeppelin/contracts/token/ERC721/ERC721.sol\":1561:1861  function supportsInterface(bytes4 interfaceId) public view virtual override(ERC165, IERC165) returns (bool) {... */\n    tag_97:\n        /* \"@openzeppelin/contracts/token/ERC721/ERC721.sol\":1663:1667  bool */\n      0x00\n        /* \"@openzeppelin/contracts/token/ERC721/ERC721.sol\":1713:1738  type(IERC721).interfaceId */\n      0x80ac58cd00000000000000000000000000000000000000000000000000000000\n        /* \"@openzeppelin/contracts/token/ERC721/ERC721.sol\":1698:1738  interfaceId == type(IERC721).interfaceId */\n      not(0xffffffffffffffffffffffffffffffffffffffffffffffffffffffff)\n      and\n        /* \"@openzeppelin/contracts/token/ERC721/ERC721.sol\":1698:1709  interfaceId */\n      dup3\n        /* \"@openzeppelin/contracts/token/ERC721/ERC721.sol\":1698:1738  interfaceId == type(IERC721).interfaceId */\n      not(0xffffffffffffffffffffffffffffffffffffffffffffffffffffffff)\n      and\n      eq\n        /* \"@openzeppelin/contracts/token/ERC721/ERC721.sol\":1698:1802  interfaceId == type(IERC721).interfaceId ||... */\n      dup1\n      tag_174\n      jumpi\n      pop\n        /* \"@openzeppelin/contracts/token/ERC721/ERC721.sol\":1769:1802  type(IERC721Metadata).interfaceId */\n      0x5b5e139f00000000000000000000000000000000000000000000000000000000\n        /* \"@openzeppelin/contracts/token/ERC721/ERC721.sol\":1754:1802  interfaceId == type(IERC721Metadata).interfaceId */\n      not(0xffffffffffffffffffffffffffffffffffffffffffffffffffffffff)\n      and\n        /* \"@openzeppelin/contracts/token/ERC721/ERC721.sol\":1754:1765  interfaceId */\n      dup3\n        /* \"@openzeppelin/contracts/token/ERC721/ERC721.sol\":1754:1802  interfaceId == type(IERC721Metadata).interfaceId */\n      not(0xffffffffffffffffffffffffffffffffffffffffffffffffffffffff)\n      and\n      eq\n        /* \"@openzeppelin/contracts/token/ERC721/ERC721.sol\":1698:1802  interfaceId == type(IERC721).interfaceId ||... */\n    tag_174:\n        /* \"@openzeppelin/contracts/token/ERC721/ERC721.sol\":1698:1854  interfaceId == type(IERC721).interfaceId ||... */\n      dup1\n      tag_175\n      jumpi\n      pop\n        /* \"@openzeppelin/contracts/token/ERC721/ERC721.sol\":1818:1854  super.supportsInterface(interfaceId) */\n      tag_176\n        /* \"@openzeppelin/contracts/token/ERC721/ERC721.sol\":1842:1853  interfaceId */\n      dup3\n        /* \"@openzeppelin/contracts/token/ERC721/ERC721.sol\":1818:1841  super.supportsInterface */\n      tag_177\n        /* \"@openzeppelin/contracts/token/ERC721/ERC721.sol\":1818:1854  super.supportsInterface(interfaceId) */\n      jump\t// in\n    tag_176:\n        /* \"@openzeppelin/contracts/token/ERC721/ERC721.sol\":1698:1854  interfaceId == type(IERC721).interfaceId ||... */\n    tag_175:\n        /* \"@openzeppelin/contracts/token/ERC721/ERC721.sol\":1679:1854  return... */\n      swap1\n      pop\n        /* \"@openzeppelin/contracts/token/ERC721/ERC721.sol\":1561:1861  function supportsInterface(bytes4 interfaceId) public view virtual override(ERC165, IERC165) returns (bool) {... */\n      swap2\n      swap1\n      pop\n      jump\t// out\n        /* \"@openzeppelin/contracts/token/ERC721/ERC721.sol\":16138:16379  function _requireOwned(uint256 tokenId) internal view returns (address) {... */\n    tag_107:\n        /* \"@openzeppelin/contracts/token/ERC721/ERC721.sol\":16201:16208  address */\n      0x00\n        /* \"@openzeppelin/contracts/token/ERC721/ERC721.sol\":16220:16233  address owner */\n      dup1\n        /* \"@openzeppelin/contracts/token/ERC721/ERC721.sol\":16236:16253  _ownerOf(tokenId) */\n      tag_179\n        /* \"@openzeppelin/contracts/token/ERC721/ERC721.sol\":16245:16252  tokenId */\n      dup4\n        /* \"@openzeppelin/contracts/token/ERC721/ERC721.sol\":16236:16244  _ownerOf */\n      tag_180\n        /* \"@openzeppelin/contracts/token/ERC721/ERC721.sol\":16236:16253  _ownerOf(tokenId) */\n      jump\t// in\n    tag_179:\n        /* \"@openzeppelin/contracts/token/ERC721/ERC721.sol\":16220:16253  address owner = _ownerOf(tokenId) */\n      swap1\n      pop\n        /* \"@openzeppelin/contracts/token/ERC721/ERC721.sol\":16284:16285  0 */\n      0x00\n        /* \"@openzeppelin/contracts/token/ERC721/ERC721.sol\":16267:16286  owner == address(0) */\n      0xffffffffffffffffffffffffffffffffffffffff\n      and\n        /* \"@openzeppelin/contracts/token/ERC721/ERC721.sol\":16267:16272  owner */\n      dup2\n        /* \"@openzeppelin/contracts/token/ERC721/ERC721.sol\":16267:16286  owner == address(0) */\n      0xffffffffffffffffffffffffffffffffffffffff\n      and\n      sub\n        /* \"@openzeppelin/contracts/token/ERC721/ERC721.sol\":16263:16351  if (owner == address(0)) {... */\n      tag_181\n      jumpi\n        /* \"@openzeppelin/contracts/token/ERC721/ERC721.sol\":16332:16339  tokenId */\n      dup3\n        /* \"@openzeppelin/contracts/token/ERC721/ERC721.sol\":16309:16340  ERC721NonexistentToken(tokenId) */\n      mload(0x40)\n      0x7e27328900000000000000000000000000000000000000000000000000000000\n      dup2\n      mstore\n      0x04\n      add\n      tag_182\n      swap2\n      swap1\n      tag_63\n      jump\t// in\n    tag_182:\n      mload(0x40)\n      dup1\n      swap2\n      sub\n      swap1\n      revert\n        /* \"@openzeppelin/contracts/token/ERC721/ERC721.sol\":16263:16351  if (owner == address(0)) {... */\n    tag_181:\n        /* \"@openzeppelin/contracts/token/ERC721/ERC721.sol\":16367:16372  owner */\n      dup1\n        /* \"@openzeppelin/contracts/token/ERC721/ERC721.sol\":16360:16372  return owner */\n      swap2\n      pop\n      pop\n        /* \"@openzeppelin/contracts/token/ERC721/ERC721.sol\":16138:16379  function _requireOwned(uint256 tokenId) internal view returns (address) {... */\n      swap2\n      swap1\n      pop\n      jump\t// out\n        /* \"@openzeppelin/contracts/token/ERC721/ERC721.sol\":5938:6065  function _getApproved(uint256 tokenId) internal view virtual returns (address) {... */\n    tag_109:\n        /* \"@openzeppelin/contracts/token/ERC721/ERC721.sol\":6008:6015  address */\n      0x00\n        /* \"@openzeppelin/contracts/token/ERC721/ERC721.sol\":6034:6049  _tokenApprovals */\n      0x04\n        /* \"@openzeppelin/contracts/token/ERC721/ERC721.sol\":6034:6058  _tokenApprovals[tokenId] */\n      0x00\n        /* \"@openzeppelin/contracts/token/ERC721/ERC721.sol\":6050:6057  tokenId */\n      dup4\n        /* \"@openzeppelin/contracts/token/ERC721/ERC721.sol\":6034:6058  _tokenApprovals[tokenId] */\n      dup2\n      mstore\n      0x20\n      add\n      swap1\n      dup2\n      mstore\n      0x20\n      add\n      0x00\n      keccak256\n      0x00\n      swap1\n      sload\n      swap1\n      0x0100\n      exp\n      swap1\n      div\n      0xffffffffffffffffffffffffffffffffffffffff\n      and\n        /* \"@openzeppelin/contracts/token/ERC721/ERC721.sol\":6027:6058  return _tokenApprovals[tokenId] */\n      swap1\n      pop\n        /* \"@openzeppelin/contracts/token/ERC721/ERC721.sol\":5938:6065  function _getApproved(uint256 tokenId) internal view virtual returns (address) {... */\n      swap2\n      swap1\n      pop\n      jump\t// out\n        /* \"@openzeppelin/contracts/utils/Context.sol\":656:752  function _msgSender() internal view virtual returns (address) {... */\n    tag_113:\n        /* \"@openzeppelin/contracts/utils/Context.sol\":709:716  address */\n      0x00\n        /* \"@openzeppelin/contracts/utils/Context.sol\":735:745  msg.sender */\n      caller\n        /* \"@openzeppelin/contracts/utils/Context.sol\":728:745  return msg.sender */\n      swap1\n      pop\n        /* \"@openzeppelin/contracts/utils/Context.sol\":656:752  function _msgSender() internal view virtual returns (address) {... */\n      swap1\n      jump\t// out\n        /* \"@openzeppelin/contracts/token/ERC721/ERC721.sol\":14418:14538  function _approve(address to, uint256 tokenId, address auth) internal {... */\n    tag_114:\n        /* \"@openzeppelin/contracts/token/ERC721/ERC721.sol\":14498:14531  _approve(to, tokenId, auth, true) */\n      tag_186\n        /* \"@openzeppelin/contracts/token/ERC721/ERC721.sol\":14507:14509  to */\n      dup4\n        /* \"@openzeppelin/contracts/token/ERC721/ERC721.sol\":14511:14518  tokenId */\n      dup4\n        /* \"@openzeppelin/contracts/token/ERC721/ERC721.sol\":14520:14524  auth */\n      dup4\n        /* \"@openzeppelin/contracts/token/ERC721/ERC721.sol\":14526:14530  true */\n      0x01\n        /* \"@openzeppelin/contracts/token/ERC721/ERC721.sol\":14498:14506  _approve */\n      tag_187\n        /* \"@openzeppelin/contracts/token/ERC721/ERC721.sol\":14498:14531  _approve(to, tokenId, auth, true) */\n      jump\t// in\n    tag_186:\n        /* \"@openzeppelin/contracts/token/ERC721/ERC721.sol\":14418:14538  function _approve(address to, uint256 tokenId, address auth) internal {... */\n      pop\n      pop\n      pop\n      jump\t// out\n        /* \"@openzeppelin/contracts/token/ERC721/ERC721.sol\":8838:9633  function _update(address to, uint256 tokenId, address auth) internal virtual returns (address) {... */\n    tag_120:\n        /* \"@openzeppelin/contracts/token/ERC721/ERC721.sol\":8924:8931  address */\n      0x00\n        /* \"@openzeppelin/contracts/token/ERC721/ERC721.sol\":8943:8955  address from */\n      dup1\n        /* \"@openzeppelin/contracts/token/ERC721/ERC721.sol\":8958:8975  _ownerOf(tokenId) */\n      tag_189\n        /* \"@openzeppelin/contracts/token/ERC721/ERC721.sol\":8967:8974  tokenId */\n      dup5\n        /* \"@openzeppelin/contracts/token/ERC721/ERC721.sol\":8958:8966  _ownerOf */\n      tag_180\n        /* \"@openzeppelin/contracts/token/ERC721/ERC721.sol\":8958:8975  _ownerOf(tokenId) */\n      jump\t// in\n    tag_189:\n        /* \"@openzeppelin/contracts/token/ERC721/ERC721.sol\":8943:8975  address from = _ownerOf(tokenId) */\n      swap1\n      pop\n        /* \"@openzeppelin/contracts/token/ERC721/ERC721.sol\":9051:9052  0 */\n      0x00\n        /* \"@openzeppelin/contracts/token/ERC721/ERC721.sol\":9035:9053  auth != address(0) */\n      0xffffffffffffffffffffffffffffffffffffffff\n      and\n        /* \"@openzeppelin/contracts/token/ERC721/ERC721.sol\":9035:9039  auth */\n      dup4\n        /* \"@openzeppelin/contracts/token/ERC721/ERC721.sol\":9035:9053  auth != address(0) */\n      0xffffffffffffffffffffffffffffffffffffffff\n      and\n      eq\n        /* \"@openzeppelin/contracts/token/ERC721/ERC721.sol\":9031:9117  if (auth != address(0)) {... */\n      tag_190\n      jumpi\n        /* \"@openzeppelin/contracts/token/ERC721/ERC721.sol\":9069:9106  _checkAuthorized(from, auth, tokenId) */\n      tag_191\n        /* \"@openzeppelin/contracts/token/ERC721/ERC721.sol\":9086:9090  from */\n      dup2\n        /* \"@openzeppelin/contracts/token/ERC721/ERC721.sol\":9092:9096  auth */\n      dup5\n        /* \"@openzeppelin/contracts/token/ERC721/ERC721.sol\":9098:9105  tokenId */\n      dup7\n        /* \"@openzeppelin/contracts/token/ERC721/ERC721.sol\":9069:9085  _checkAuthorized */\n      tag_192\n        /* \"@openzeppelin/contracts/token/ERC721/ERC721.sol\":9069:9106  _checkAuthorized(from, auth, tokenId) */\n      jump\t// in\n    tag_191:\n        /* \"@openzeppelin/contracts/token/ERC721/ERC721.sol\":9031:9117  if (auth != address(0)) {... */\n    tag_190:\n        /* \"@openzeppelin/contracts/token/ERC721/ERC721.sol\":9177:9178  0 */\n      0x00\n        /* \"@openzeppelin/contracts/token/ERC721/ERC721.sol\":9161:9179  from != address(0) */\n      0xffffffffffffffffffffffffffffffffffffffff\n      and\n        /* \"@openzeppelin/contracts/token/ERC721/ERC721.sol\":9161:9165  from */\n      dup2\n        /* \"@openzeppelin/contracts/token/ERC721/ERC721.sol\":9161:9179  from != address(0) */\n      0xffffffffffffffffffffffffffffffffffffffff\n      and\n      eq\n        /* \"@openzeppelin/contracts/token/ERC721/ERC721.sol\":9157:9413  if (from != address(0)) {... */\n      tag_193\n      jumpi\n        /* \"@openzeppelin/contracts/token/ERC721/ERC721.sol\":9277:9325  _approve(address(0), tokenId, address(0), false) */\n      tag_194\n        /* \"@openzeppelin/contracts/token/ERC721/ERC721.sol\":9294:9295  0 */\n      0x00\n        /* \"@openzeppelin/contracts/token/ERC721/ERC721.sol\":9298:9305  tokenId */\n      dup6\n        /* \"@openzeppelin/contracts/token/ERC721/ERC721.sol\":9315:9316  0 */\n      0x00\n        /* \"@openzeppelin/contracts/token/ERC721/ERC721.sol\":9319:9324  false */\n      dup1\n        /* \"@openzeppelin/contracts/token/ERC721/ERC721.sol\":9277:9285  _approve */\n      tag_187\n        /* \"@openzeppelin/contracts/token/ERC721/ERC721.sol\":9277:9325  _approve(address(0), tokenId, address(0), false) */\n      jump\t// in\n    tag_194:\n        /* \"@openzeppelin/contracts/token/ERC721/ERC721.sol\":9387:9388  1 */\n      0x01\n        /* \"@openzeppelin/contracts/token/ERC721/ERC721.sol\":9368:9377  _balances */\n      0x03\n        /* \"@openzeppelin/contracts/token/ERC721/ERC721.sol\":9368:9383  _balances[from] */\n      0x00\n        /* \"@openzeppelin/contracts/token/ERC721/ERC721.sol\":9378:9382  from */\n      dup4\n        /* \"@openzeppelin/contracts/token/ERC721/ERC721.sol\":9368:9383  _balances[from] */\n      0xffffffffffffffffffffffffffffffffffffffff\n      and\n      0xffffffffffffffffffffffffffffffffffffffff\n      and\n      dup2\n      mstore\n      0x20\n      add\n      swap1\n      dup2\n      mstore\n      0x20\n      add\n      0x00\n      keccak256\n      0x00\n        /* \"@openzeppelin/contracts/token/ERC721/ERC721.sol\":9368:9388  _balances[from] -= 1 */\n      dup3\n      dup3\n      sload\n      sub\n      swap3\n      pop\n      pop\n      dup2\n      swap1\n      sstore\n      pop\n        /* \"@openzeppelin/contracts/token/ERC721/ERC721.sol\":9157:9413  if (from != address(0)) {... */\n    tag_193:\n        /* \"@openzeppelin/contracts/token/ERC721/ERC721.sol\":9441:9442  0 */\n      0x00\n        /* \"@openzeppelin/contracts/token/ERC721/ERC721.sol\":9427:9443  to != address(0) */\n      0xffffffffffffffffffffffffffffffffffffffff\n      and\n        /* \"@openzeppelin/contracts/token/ERC721/ERC721.sol\":9427:9429  to */\n      dup6\n        /* \"@openzeppelin/contracts/token/ERC721/ERC721.sol\":9427:9443  to != address(0) */\n      0xffffffffffffffffffffffffffffffffffffffff\n      and\n      eq\n        /* \"@openzeppelin/contracts/token/ERC721/ERC721.sol\":9423:9530  if (to != address(0)) {... */\n      tag_195\n      jumpi\n        /* \"@openzeppelin/contracts/token/ERC721/ERC721.sol\":9504:9505  1 */\n      0x01\n        /* \"@openzeppelin/contracts/token/ERC721/ERC721.sol\":9487:9496  _balances */\n      0x03\n        /* \"@openzeppelin/contracts/token/ERC721/ERC721.sol\":9487:9500  _balances[to] */\n      0x00\n        /* \"@openzeppelin/contracts/token/ERC721/ERC721.sol\":9497:9499  to */\n      dup8\n        /* \"@openzeppelin/contracts/token/ERC721/ERC721.sol\":9487:9500  _balances[to] */\n      0xffffffffffffffffffffffffffffffffffffffff\n      and\n      0xffffffffffffffffffffffffffffffffffffffff\n      and\n      dup2\n      mstore\n      0x20\n      add\n      swap1\n      dup2\n      mstore\n      0x20\n      add\n      0x00\n      keccak256\n      0x00\n        /* \"@openzeppelin/contracts/token/ERC721/ERC721.sol\":9487:9505  _balances[to] += 1 */\n      dup3\n      dup3\n      sload\n      add\n      swap3\n      pop\n      pop\n      dup2\n      swap1\n      sstore\n      pop\n        /* \"@openzeppelin/contracts/token/ERC721/ERC721.sol\":9423:9530  if (to != address(0)) {... */\n    tag_195:\n        /* \"@openzeppelin/contracts/token/ERC721/ERC721.sol\":9559:9561  to */\n      dup5\n        /* \"@openzeppelin/contracts/token/ERC721/ERC721.sol\":9540:9547  _owners */\n      0x02\n        /* \"@openzeppelin/contracts/token/ERC721/ERC721.sol\":9540:9556  _owners[tokenId] */\n      0x00\n        /* \"@openzeppelin/contracts/token/ERC721/ERC721.sol\":9548:9555  tokenId */\n      dup7\n        /* \"@openzeppelin/contracts/token/ERC721/ERC721.sol\":9540:9556  _owners[tokenId] */\n      dup2\n      mstore\n      0x20\n      add\n      swap1\n      dup2\n      mstore\n      0x20\n      add\n      0x00\n      keccak256\n      0x00\n        /* \"@openzeppelin/contracts/token/ERC721/ERC721.sol\":9540:9561  _owners[tokenId] = to */\n      0x0100\n      exp\n      dup2\n      sload\n      dup2\n      0xffffffffffffffffffffffffffffffffffffffff\n      mul\n      not\n      and\n      swap1\n      dup4\n      0xffffffffffffffffffffffffffffffffffffffff\n      and\n      mul\n      or\n      swap1\n      sstore\n      pop\n        /* \"@openzeppelin/contracts/token/ERC721/ERC721.sol\":9596:9603  tokenId */\n      dup4\n        /* \"@openzeppelin/contracts/token/ERC721/ERC721.sol\":9592:9594  to */\n      dup6\n        /* \"@openzeppelin/contracts/token/ERC721/ERC721.sol\":9577:9604  Transfer(from, to, tokenId) */\n      0xffffffffffffffffffffffffffffffffffffffff\n      and\n        /* \"@openzeppelin/contracts/token/ERC721/ERC721.sol\":9586:9590  from */\n      dup3\n        /* \"@openzeppelin/contracts/token/ERC721/ERC721.sol\":9577:9604  Transfer(from, to, tokenId) */\n      0xffffffffffffffffffffffffffffffffffffffff\n      and\n      0xddf252ad1be2c89b69c2b068fc378daa952ba7f163c4a11628f55a4df523b3ef\n      mload(0x40)\n      mload(0x40)\n      dup1\n      swap2\n      sub\n      swap1\n      log4\n        /* \"@openzeppelin/contracts/token/ERC721/ERC721.sol\":9622:9626  from */\n      dup1\n        /* \"@openzeppelin/contracts/token/ERC721/ERC721.sol\":9615:9626  return from */\n      swap2\n      pop\n      pop\n        /* \"@openzeppelin/contracts/token/ERC721/ERC721.sol\":8838:9633  function _update(address to, uint256 tokenId, address auth) internal virtual returns (address) {... */\n      swap4\n      swap3\n      pop\n      pop\n      pop\n      jump\t// out\n        /* \"@openzeppelin/contracts/token/ERC721/ERC721.sol\":15591:15903  function _setApprovalForAll(address owner, address operator, bool approved) internal virtual {... */\n    tag_140:\n        /* \"@openzeppelin/contracts/token/ERC721/ERC721.sol\":15718:15719  0 */\n      0x00\n        /* \"@openzeppelin/contracts/token/ERC721/ERC721.sol\":15698:15720  operator == address(0) */\n      0xffffffffffffffffffffffffffffffffffffffff\n      and\n        /* \"@openzeppelin/contracts/token/ERC721/ERC721.sol\":15698:15706  operator */\n      dup3\n        /* \"@openzeppelin/contracts/token/ERC721/ERC721.sol\":15698:15720  operator == address(0) */\n      0xffffffffffffffffffffffffffffffffffffffff\n      and\n      sub\n        /* \"@openzeppelin/contracts/token/ERC721/ERC721.sol\":15694:15785  if (operator == address(0)) {... */\n      tag_197\n      jumpi\n        /* \"@openzeppelin/contracts/token/ERC721/ERC721.sol\":15765:15773  operator */\n      dup2\n        /* \"@openzeppelin/contracts/token/ERC721/ERC721.sol\":15743:15774  ERC721InvalidOperator(operator) */\n      mload(0x40)\n      0x5b08ba1800000000000000000000000000000000000000000000000000000000\n      dup2\n      mstore\n      0x04\n      add\n      tag_198\n      swap2\n      swap1\n      tag_37\n      jump\t// in\n    tag_198:\n      mload(0x40)\n      dup1\n      swap2\n      sub\n      swap1\n      revert\n        /* \"@openzeppelin/contracts/token/ERC721/ERC721.sol\":15694:15785  if (operator == address(0)) {... */\n    tag_197:\n        /* \"@openzeppelin/contracts/token/ERC721/ERC721.sol\":15832:15840  approved */\n      dup1\n        /* \"@openzeppelin/contracts/token/ERC721/ERC721.sol\":15794:15812  _operatorApprovals */\n      0x05\n        /* \"@openzeppelin/contracts/token/ERC721/ERC721.sol\":15794:15819  _operatorApprovals[owner] */\n      0x00\n        /* \"@openzeppelin/contracts/token/ERC721/ERC721.sol\":15813:15818  owner */\n      dup6\n        /* \"@openzeppelin/contracts/token/ERC721/ERC721.sol\":15794:15819  _operatorApprovals[owner] */\n      0xffffffffffffffffffffffffffffffffffffffff\n      and\n      0xffffffffffffffffffffffffffffffffffffffff\n      and\n      dup2\n      mstore\n      0x20\n      add\n      swap1\n      dup2\n      mstore\n      0x20\n      add\n      0x00\n      keccak256\n        /* \"@openzeppelin/contracts/token/ERC721/ERC721.sol\":15794:15829  _operatorApprovals[owner][operator] */\n      0x00\n        /* \"@openzeppelin/contracts/token/ERC721/ERC721.sol\":15820:15828  operator */\n      dup5\n        /* \"@openzeppelin/contracts/token/ERC721/ERC721.sol\":15794:15829  _operatorApprovals[owner][operator] */\n      0xffffffffffffffffffffffffffffffffffffffff\n      and\n      0xffffffffffffffffffffffffffffffffffffffff\n      and\n      dup2\n      mstore\n      0x20\n      add\n      swap1\n      dup2\n      mstore\n      0x20\n      add\n      0x00\n      keccak256\n      0x00\n        /* \"@openzeppelin/contracts/token/ERC721/ERC721.sol\":15794:15840  _operatorApprovals[owner][operator] = approved */\n      0x0100\n      exp\n      dup2\n      sload\n      dup2\n      0xff\n      mul\n      not\n      and\n      swap1\n      dup4\n      iszero\n      iszero\n      mul\n      or\n      swap1\n      sstore\n      pop\n        /* \"@openzeppelin/contracts/token/ERC721/ERC721.sol\":15877:15885  operator */\n      dup2\n        /* \"@openzeppelin/contracts/token/ERC721/ERC721.sol\":15855:15896  ApprovalForAll(owner, operator, approved) */\n      0xffffffffffffffffffffffffffffffffffffffff\n      and\n        /* \"@openzeppelin/contracts/token/ERC721/ERC721.sol\":15870:15875  owner */\n      dup4\n        /* \"@openzeppelin/contracts/token/ERC721/ERC721.sol\":15855:15896  ApprovalForAll(owner, operator, approved) */\n      0xffffffffffffffffffffffffffffffffffffffff\n      and\n      0x17307eab39ab6107e8899845ad3d59bd9653f200f220920489ca2b5937696c31\n        /* \"@openzeppelin/contracts/token/ERC721/ERC721.sol\":15887:15895  approved */\n      dup4\n        /* \"@openzeppelin/contracts/token/ERC721/ERC721.sol\":15855:15896  ApprovalForAll(owner, operator, approved) */\n      mload(0x40)\n      tag_199\n      swap2\n      swap1\n      tag_25\n      jump\t// in\n    tag_199:\n      mload(0x40)\n      dup1\n      swap2\n      sub\n      swap1\n      log3\n        /* \"@openzeppelin/contracts/token/ERC721/ERC721.sol\":15591:15903  function _setApprovalForAll(address owner, address operator, bool approved) internal virtual {... */\n      pop\n      pop\n      pop\n      jump\t// out\n        /* \"@openzeppelin/contracts/token/ERC721/ERC721.sol\":16918:17700  function _checkOnERC721Received(address from, address to, uint256 tokenId, bytes memory data) private {... */\n    tag_144:\n        /* \"@openzeppelin/contracts/token/ERC721/ERC721.sol\":17051:17052  0 */\n      0x00\n        /* \"@openzeppelin/contracts/token/ERC721/ERC721.sol\":17034:17036  to */\n      dup4\n        /* \"@openzeppelin/contracts/token/ERC721/ERC721.sol\":17034:17048  to.code.length */\n      0xffffffffffffffffffffffffffffffffffffffff\n      and\n      extcodesize\n        /* \"@openzeppelin/contracts/token/ERC721/ERC721.sol\":17034:17052  to.code.length > 0 */\n      gt\n        /* \"@openzeppelin/contracts/token/ERC721/ERC721.sol\":17030:17694  if (to.code.length > 0) {... */\n      iszero\n      tag_201\n      jumpi\n        /* \"@openzeppelin/contracts/token/ERC721/ERC721.sol\":17088:17090  to */\n      dup3\n        /* \"@openzeppelin/contracts/token/ERC721/ERC721.sol\":17072:17108  IERC721Receiver(to).onERC721Received */\n      0xffffffffffffffffffffffffffffffffffffffff\n      and\n      0x150b7a02\n        /* \"@openzeppelin/contracts/token/ERC721/ERC721.sol\":17109:17121  _msgSender() */\n      tag_202\n        /* \"@openzeppelin/contracts/token/ERC721/ERC721.sol\":17109:17119  _msgSender */\n      tag_113\n        /* \"@openzeppelin/contracts/token/ERC721/ERC721.sol\":17109:17121  _msgSender() */\n      jump\t// in\n    tag_202:\n        /* \"@openzeppelin/contracts/token/ERC721/ERC721.sol\":17123:17127  from */\n      dup7\n        /* \"@openzeppelin/contracts/token/ERC721/ERC721.sol\":17129:17136  tokenId */\n      dup6\n        /* \"@openzeppelin/contracts/token/ERC721/ERC721.sol\":17138:17142  data */\n      dup6\n        /* \"@openzeppelin/contracts/token/ERC721/ERC721.sol\":17072:17143  IERC721Receiver(to).onERC721Received(_msgSender(), from, tokenId, data) */\n      mload(0x40)\n      dup6\n      0xffffffff\n      and\n      0xe0\n      shl\n      dup2\n      mstore\n      0x04\n      add\n      tag_203\n      swap5\n      swap4\n      swap3\n      swap2\n      swap1\n      tag_204\n      jump\t// in\n    tag_203:\n      0x20\n      mload(0x40)\n      dup1\n      dup4\n      sub\n      dup2\n      0x00\n      dup8\n      gas\n      call\n      swap3\n      pop\n      pop\n      pop\n      dup1\n      iszero\n      tag_205\n      jumpi\n      pop\n      mload(0x40)\n      returndatasize\n      not(0x1f)\n      0x1f\n      dup3\n      add\n      and\n      dup3\n      add\n      dup1\n      0x40\n      mstore\n      pop\n      dup2\n      add\n      swap1\n      tag_206\n      swap2\n      swap1\n      tag_207\n      jump\t// in\n    tag_206:\n      0x01\n    tag_205:\n        /* \"@openzeppelin/contracts/token/ERC721/ERC721.sol\":17068:17684  try IERC721Receiver(to).onERC721Received(_msgSender(), from, tokenId, data) returns (bytes4 retval) {... */\n      tag_208\n      jumpi\n      returndatasize\n      dup1\n      0x00\n      dup2\n      eq\n      tag_213\n      jumpi\n      mload(0x40)\n      swap2\n      pop\n      and(add(returndatasize, 0x3f), not(0x1f))\n      dup3\n      add\n      0x40\n      mstore\n      returndatasize\n      dup3\n      mstore\n      returndatasize\n      0x00\n      0x20\n      dup5\n      add\n      returndatacopy\n      jump(tag_212)\n    tag_213:\n      0x60\n      swap2\n      pop\n    tag_212:\n      pop\n        /* \"@openzeppelin/contracts/token/ERC721/ERC721.sol\":17398:17399  0 */\n      0x00\n        /* \"@openzeppelin/contracts/token/ERC721/ERC721.sol\":17381:17387  reason */\n      dup2\n        /* \"@openzeppelin/contracts/token/ERC721/ERC721.sol\":17381:17394  reason.length */\n      mload\n        /* \"@openzeppelin/contracts/token/ERC721/ERC721.sol\":17381:17399  reason.length == 0 */\n      sub\n        /* \"@openzeppelin/contracts/token/ERC721/ERC721.sol\":17377:17670  if (reason.length == 0) {... */\n      tag_214\n      jumpi\n        /* \"@openzeppelin/contracts/token/ERC721/ERC721.sol\":17452:17454  to */\n      dup4\n        /* \"@openzeppelin/contracts/token/ERC721/ERC721.sol\":17430:17455  ERC721InvalidReceiver(to) */\n      mload(0x40)\n      0x64a0ae9200000000000000000000000000000000000000000000000000000000\n      dup2\n      mstore\n      0x04\n      add\n      tag_215\n      swap2\n      swap1\n      tag_37\n      jump\t// in\n    tag_215:\n      mload(0x40)\n      dup1\n      swap2\n      sub\n      swap1\n      revert\n        /* \"@openzeppelin/contracts/token/ERC721/ERC721.sol\":17377:17670  if (reason.length == 0) {... */\n    tag_214:\n        /* \"@openzeppelin/contracts/token/ERC721/ERC721.sol\":17622:17628  reason */\n      dup1\n        /* \"@openzeppelin/contracts/token/ERC721/ERC721.sol\":17616:17629  mload(reason) */\n      mload\n        /* \"@openzeppelin/contracts/token/ERC721/ERC721.sol\":17607:17613  reason */\n      dup2\n        /* \"@openzeppelin/contracts/token/ERC721/ERC721.sol\":17603:17605  32 */\n      0x20\n        /* \"@openzeppelin/contracts/token/ERC721/ERC721.sol\":17599:17614  add(32, reason) */\n      add\n        /* \"@openzeppelin/contracts/token/ERC721/ERC721.sol\":17592:17630  revert(add(32, reason), mload(reason)) */\n      revert\n        /* \"@openzeppelin/contracts/token/ERC721/ERC721.sol\":17068:17684  try IERC721Receiver(to).onERC721Received(_msgSender(), from, tokenId, data) returns (bytes4 retval) {... */\n    tag_208:\n        /* \"@openzeppelin/contracts/token/ERC721/ERC721.sol\":17200:17241  IERC721Receiver.onERC721Received.selector */\n      shl(0xe0, 0x150b7a02)\n        /* \"@openzeppelin/contracts/token/ERC721/ERC721.sol\":17190:17241  retval != IERC721Receiver.onERC721Received.selector */\n      not(0xffffffffffffffffffffffffffffffffffffffffffffffffffffffff)\n      and\n        /* \"@openzeppelin/contracts/token/ERC721/ERC721.sol\":17190:17196  retval */\n      dup2\n        /* \"@openzeppelin/contracts/token/ERC721/ERC721.sol\":17190:17241  retval != IERC721Receiver.onERC721Received.selector */\n      not(0xffffffffffffffffffffffffffffffffffffffffffffffffffffffff)\n      and\n      eq\n        /* \"@openzeppelin/contracts/token/ERC721/ERC721.sol\":17186:17316  if (retval != IERC721Receiver.onERC721Received.selector) {... */\n      tag_218\n      jumpi\n        /* \"@openzeppelin/contracts/token/ERC721/ERC721.sol\":17294:17296  to */\n      dup4\n        /* \"@openzeppelin/contracts/token/ERC721/ERC721.sol\":17272:17297  ERC721InvalidReceiver(to) */\n      mload(0x40)\n      0x64a0ae9200000000000000000000000000000000000000000000000000000000\n      dup2\n      mstore\n      0x04\n      add\n      tag_219\n      swap2\n      swap1\n      tag_37\n      jump\t// in\n    tag_219:\n      mload(0x40)\n      dup1\n      swap2\n      sub\n      swap1\n      revert\n        /* \"@openzeppelin/contracts/token/ERC721/ERC721.sol\":17186:17316  if (retval != IERC721Receiver.onERC721Received.selector) {... */\n    tag_218:\n        /* \"@openzeppelin/contracts/token/ERC721/ERC721.sol\":17144:17330  returns (bytes4 retval) {... */\n      pop\n        /* \"@openzeppelin/contracts/token/ERC721/ERC721.sol\":17030:17694  if (to.code.length > 0) {... */\n    tag_201:\n        /* \"@openzeppelin/contracts/token/ERC721/ERC721.sol\":16918:17700  function _checkOnERC721Received(address from, address to, uint256 tokenId, bytes memory data) private {... */\n      pop\n      pop\n      pop\n      pop\n      jump\t// out\n        /* \"@openzeppelin/contracts/token/ERC721/ERC721.sol\":3174:3266  function _baseURI() internal view virtual returns (string memory) {... */\n    tag_153:\n        /* \"@openzeppelin/contracts/token/ERC721/ERC721.sol\":3225:3238  string memory */\n      0x60\n        /* \"@openzeppelin/contracts/token/ERC721/ERC721.sol\":3250:3259  return \"\" */\n      mload(0x40)\n      dup1\n      0x20\n      add\n      0x40\n      mstore\n      dup1\n      0x00\n      dup2\n      mstore\n      pop\n      swap1\n      pop\n        /* \"@openzeppelin/contracts/token/ERC721/ERC721.sol\":3174:3266  function _baseURI() internal view virtual returns (string memory) {... */\n      swap1\n      jump\t// out\n        /* \"@openzeppelin/contracts/token/ERC721/ERC721.sol\":2677:2932  function tokenURI(uint256 tokenId) public view virtual returns (string memory) {... */\n    tag_159:\n        /* \"@openzeppelin/contracts/token/ERC721/ERC721.sol\":2741:2754  string memory */\n      0x60\n        /* \"@openzeppelin/contracts/token/ERC721/ERC721.sol\":2766:2788  _requireOwned(tokenId) */\n      tag_222\n        /* \"@openzeppelin/contracts/token/ERC721/ERC721.sol\":2780:2787  tokenId */\n      dup3\n        /* \"@openzeppelin/contracts/token/ERC721/ERC721.sol\":2766:2779  _requireOwned */\n      tag_107\n        /* \"@openzeppelin/contracts/token/ERC721/ERC721.sol\":2766:2788  _requireOwned(tokenId) */\n      jump\t// in\n    tag_222:\n      pop\n        /* \"@openzeppelin/contracts/token/ERC721/ERC721.sol\":2799:2820  string memory baseURI */\n      0x00\n        /* \"@openzeppelin/contracts/token/ERC721/ERC721.sol\":2823:2833  _baseURI() */\n      tag_223\n        /* \"@openzeppelin/contracts/token/ERC721/ERC721.sol\":2823:2831  _baseURI */\n      tag_153\n        /* \"@openzeppelin/contracts/token/ERC721/ERC721.sol\":2823:2833  _baseURI() */\n      jump\t// in\n    tag_223:\n        /* \"@openzeppelin/contracts/token/ERC721/ERC721.sol\":2799:2833  string memory baseURI = _baseURI() */\n      swap1\n      pop\n        /* \"@openzeppelin/contracts/token/ERC721/ERC721.sol\":2874:2875  0 */\n      0x00\n        /* \"@openzeppelin/contracts/token/ERC721/ERC721.sol\":2856:2863  baseURI */\n      dup2\n        /* \"@openzeppelin/contracts/token/ERC721/ERC721.sol\":2850:2871  bytes(baseURI).length */\n      mload\n        /* \"@openzeppelin/contracts/token/ERC721/ERC721.sol\":2850:2875  bytes(baseURI).length > 0 */\n      gt\n        /* \"@openzeppelin/contracts/token/ERC721/ERC721.sol\":2850:2925  bytes(baseURI).length > 0 ? string.concat(baseURI, tokenId.toString()) : \"\" */\n      tag_224\n      jumpi\n      mload(0x40)\n      dup1\n      0x20\n      add\n      0x40\n      mstore\n      dup1\n      0x00\n      dup2\n      mstore\n      pop\n      jump(tag_225)\n    tag_224:\n        /* \"@openzeppelin/contracts/token/ERC721/ERC721.sol\":2892:2899  baseURI */\n      dup1\n        /* \"@openzeppelin/contracts/token/ERC721/ERC721.sol\":2901:2919  tokenId.toString() */\n      tag_226\n        /* \"@openzeppelin/contracts/token/ERC721/ERC721.sol\":2901:2908  tokenId */\n      dup5\n        /* \"@openzeppelin/contracts/token/ERC721/ERC721.sol\":2901:2917  tokenId.toString */\n      tag_227\n        /* \"@openzeppelin/contracts/token/ERC721/ERC721.sol\":2901:2919  tokenId.toString() */\n      jump\t// in\n    tag_226:\n        /* \"@openzeppelin/contracts/token/ERC721/ERC721.sol\":2878:2920  string.concat(baseURI, tokenId.toString()) */\n      add(0x20, mload(0x40))\n      tag_228\n      swap3\n      swap2\n      swap1\n      tag_157\n      jump\t// in\n    tag_228:\n      mload(0x40)\n      0x20\n      dup2\n      dup4\n      sub\n      sub\n      dup2\n      mstore\n      swap1\n      0x40\n      mstore\n        /* \"@openzeppelin/contracts/token/ERC721/ERC721.sol\":2850:2925  bytes(baseURI).length > 0 ? string.concat(baseURI, tokenId.toString()) : \"\" */\n    tag_225:\n        /* \"@openzeppelin/contracts/token/ERC721/ERC721.sol\":2843:2925  return bytes(baseURI).length > 0 ? string.concat(baseURI, tokenId.toString()) : \"\" */\n      swap2\n      pop\n      pop\n        /* \"@openzeppelin/contracts/token/ERC721/ERC721.sol\":2677:2932  function tokenURI(uint256 tokenId) public view virtual returns (string memory) {... */\n      swap2\n      swap1\n      pop\n      jump\t// out\n        /* \"@openzeppelin/contracts/token/ERC721/ERC721.sol\":9955:10282  function _mint(address to, uint256 tokenId) internal {... */\n    tag_170:\n        /* \"@openzeppelin/contracts/token/ERC721/ERC721.sol\":10036:10037  0 */\n      0x00\n        /* \"@openzeppelin/contracts/token/ERC721/ERC721.sol\":10022:10038  to == address(0) */\n      0xffffffffffffffffffffffffffffffffffffffff\n      and\n        /* \"@openzeppelin/contracts/token/ERC721/ERC721.sol\":10022:10024  to */\n      dup3\n        /* \"@openzeppelin/contracts/token/ERC721/ERC721.sol\":10022:10038  to == address(0) */\n      0xffffffffffffffffffffffffffffffffffffffff\n      and\n      sub\n        /* \"@openzeppelin/contracts/token/ERC721/ERC721.sol\":10018:10105  if (to == address(0)) {... */\n      tag_230\n      jumpi\n        /* \"@openzeppelin/contracts/token/ERC721/ERC721.sol\":10091:10092  0 */\n      0x00\n        /* \"@openzeppelin/contracts/token/ERC721/ERC721.sol\":10061:10094  ERC721InvalidReceiver(address(0)) */\n      mload(0x40)\n      0x64a0ae9200000000000000000000000000000000000000000000000000000000\n      dup2\n      mstore\n      0x04\n      add\n      tag_231\n      swap2\n      swap1\n      tag_37\n      jump\t// in\n    tag_231:\n      mload(0x40)\n      dup1\n      swap2\n      sub\n      swap1\n      revert\n        /* \"@openzeppelin/contracts/token/ERC721/ERC721.sol\":10018:10105  if (to == address(0)) {... */\n    tag_230:\n        /* \"@openzeppelin/contracts/token/ERC721/ERC721.sol\":10114:10135  address previousOwner */\n      0x00\n        /* \"@openzeppelin/contracts/token/ERC721/ERC721.sol\":10138:10170  _update(to, tokenId, address(0)) */\n      tag_232\n        /* \"@openzeppelin/contracts/token/ERC721/ERC721.sol\":10146:10148  to */\n      dup4\n        /* \"@openzeppelin/contracts/token/ERC721/ERC721.sol\":10150:10157  tokenId */\n      dup4\n        /* \"@openzeppelin/contracts/token/ERC721/ERC721.sol\":10167:10168  0 */\n      0x00\n        /* \"@openzeppelin/contracts/token/ERC721/ERC721.sol\":10138:10145  _update */\n      tag_120\n        /* \"@openzeppelin/contracts/token/ERC721/ERC721.sol\":10138:10170  _update(to, tokenId, address(0)) */\n      jump\t// in\n    tag_232:\n        /* \"@openzeppelin/contracts/token/ERC721/ERC721.sol\":10114:10170  address previousOwner = _update(to, tokenId, address(0)) */\n      swap1\n      pop\n        /* \"@openzeppelin/contracts/token/ERC721/ERC721.sol\":10209:10210  0 */\n      0x00\n        /* \"@openzeppelin/contracts/token/ERC721/ERC721.sol\":10184:10211  previousOwner != address(0) */\n      0xffffffffffffffffffffffffffffffffffffffff\n      and\n        /* \"@openzeppelin/contracts/token/ERC721/ERC721.sol\":10184:10197  previousOwner */\n      dup2\n        /* \"@openzeppelin/contracts/token/ERC721/ERC721.sol\":10184:10211  previousOwner != address(0) */\n      0xffffffffffffffffffffffffffffffffffffffff\n      and\n      eq\n        /* \"@openzeppelin/contracts/token/ERC721/ERC721.sol\":10180:10276  if (previousOwner != address(0)) {... */\n      tag_233\n      jumpi\n        /* \"@openzeppelin/contracts/token/ERC721/ERC721.sol\":10262:10263  0 */\n      0x00\n        /* \"@openzeppelin/contracts/token/ERC721/ERC721.sol\":10234:10265  ERC721InvalidSender(address(0)) */\n      mload(0x40)\n      0x73c6ac6e00000000000000000000000000000000000000000000000000000000\n      dup2\n      mstore\n      0x04\n      add\n      tag_234\n      swap2\n      swap1\n      tag_37\n      jump\t// in\n    tag_234:\n      mload(0x40)\n      dup1\n      swap2\n      sub\n      swap1\n      revert\n        /* \"@openzeppelin/contracts/token/ERC721/ERC721.sol\":10180:10276  if (previousOwner != address(0)) {... */\n    tag_233:\n        /* \"@openzeppelin/contracts/token/ERC721/ERC721.sol\":10008:10282  {... */\n      pop\n        /* \"@openzeppelin/contracts/token/ERC721/ERC721.sol\":9955:10282  function _mint(address to, uint256 tokenId) internal {... */\n      pop\n      pop\n      jump\t// out\n        /* \"@openzeppelin/contracts/token/ERC721/extensions/ERC721URIStorage.sol\":1922:2089  function _setTokenURI(uint256 tokenId, string memory _tokenURI) internal virtual {... */\n    tag_172:\n        /* \"@openzeppelin/contracts/token/ERC721/extensions/ERC721URIStorage.sol\":2035:2044  _tokenURI */\n      dup1\n        /* \"@openzeppelin/contracts/token/ERC721/extensions/ERC721URIStorage.sol\":2013:2023  _tokenURIs */\n      0x06\n        /* \"@openzeppelin/contracts/token/ERC721/extensions/ERC721URIStorage.sol\":2013:2032  _tokenURIs[tokenId] */\n      0x00\n        /* \"@openzeppelin/contracts/token/ERC721/extensions/ERC721URIStorage.sol\":2024:2031  tokenId */\n      dup5\n        /* \"@openzeppelin/contracts/token/ERC721/extensions/ERC721URIStorage.sol\":2013:2032  _tokenURIs[tokenId] */\n      dup2\n      mstore\n      0x20\n      add\n      swap1\n      dup2\n      mstore\n      0x20\n      add\n      0x00\n      keccak256\n        /* \"@openzeppelin/contracts/token/ERC721/extensions/ERC721URIStorage.sol\":2013:2044  _tokenURIs[tokenId] = _tokenURI */\n      swap1\n      dup2\n      tag_236\n      swap2\n      swap1\n      tag_237\n      jump\t// in\n    tag_236:\n      pop\n        /* \"@openzeppelin/contracts/token/ERC721/extensions/ERC721URIStorage.sol\":2059:2082  MetadataUpdate(tokenId) */\n      0xf8e1a15aba9398e019f0b49df1a4fde98ee17ae345cb5f6b5e2c27f5033e8ce7\n        /* \"@openzeppelin/contracts/token/ERC721/extensions/ERC721URIStorage.sol\":2074:2081  tokenId */\n      dup3\n        /* \"@openzeppelin/contracts/token/ERC721/extensions/ERC721URIStorage.sol\":2059:2082  MetadataUpdate(tokenId) */\n      mload(0x40)\n      tag_238\n      swap2\n      swap1\n      tag_63\n      jump\t// in\n    tag_238:\n      mload(0x40)\n      dup1\n      swap2\n      sub\n      swap1\n      log1\n        /* \"@openzeppelin/contracts/token/ERC721/extensions/ERC721URIStorage.sol\":1922:2089  function _setTokenURI(uint256 tokenId, string memory _tokenURI) internal virtual {... */\n      pop\n      pop\n      jump\t// out\n        /* \"@openzeppelin/contracts/utils/introspection/ERC165.sol\":762:908  function supportsInterface(bytes4 interfaceId) public view virtual returns (bool) {... */\n    tag_177:\n        /* \"@openzeppelin/contracts/utils/introspection/ERC165.sol\":838:842  bool */\n      0x00\n        /* \"@openzeppelin/contracts/utils/introspection/ERC165.sol\":876:901  type(IERC165).interfaceId */\n      0x01ffc9a700000000000000000000000000000000000000000000000000000000\n        /* \"@openzeppelin/contracts/utils/introspection/ERC165.sol\":861:901  interfaceId == type(IERC165).interfaceId */\n      not(0xffffffffffffffffffffffffffffffffffffffffffffffffffffffff)\n      and\n        /* \"@openzeppelin/contracts/utils/introspection/ERC165.sol\":861:872  interfaceId */\n      dup3\n        /* \"@openzeppelin/contracts/utils/introspection/ERC165.sol\":861:901  interfaceId == type(IERC165).interfaceId */\n      not(0xffffffffffffffffffffffffffffffffffffffffffffffffffffffff)\n      and\n      eq\n        /* \"@openzeppelin/contracts/utils/introspection/ERC165.sol\":854:901  return interfaceId == type(IERC165).interfaceId */\n      swap1\n      pop\n        /* \"@openzeppelin/contracts/utils/introspection/ERC165.sol\":762:908  function supportsInterface(bytes4 interfaceId) public view virtual returns (bool) {... */\n      swap2\n      swap1\n      pop\n      jump\t// out\n        /* \"@openzeppelin/contracts/token/ERC721/ERC721.sol\":5707:5822  function _ownerOf(uint256 tokenId) internal view virtual returns (address) {... */\n    tag_180:\n        /* \"@openzeppelin/contracts/token/ERC721/ERC721.sol\":5773:5780  address */\n      0x00\n        /* \"@openzeppelin/contracts/token/ERC721/ERC721.sol\":5799:5806  _owners */\n      0x02\n        /* \"@openzeppelin/contracts/token/ERC721/ERC721.sol\":5799:5815  _owners[tokenId] */\n      0x00\n        /* \"@openzeppelin/contracts/token/ERC721/ERC721.sol\":5807:5814  tokenId */\n      dup4\n        /* \"@openzeppelin/contracts/token/ERC721/ERC721.sol\":5799:5815  _owners[tokenId] */\n      dup2\n      mstore\n      0x20\n      add\n      swap1\n      dup2\n      mstore\n      0x20\n      add\n      0x00\n      keccak256\n      0x00\n      swap1\n      sload\n      swap1\n      0x0100\n      exp\n      swap1\n      div\n      0xffffffffffffffffffffffffffffffffffffffff\n      and\n        /* \"@openzeppelin/contracts/token/ERC721/ERC721.sol\":5792:5815  return _owners[tokenId] */\n      swap1\n      pop\n        /* \"@openzeppelin/contracts/token/ERC721/ERC721.sol\":5707:5822  function _ownerOf(uint256 tokenId) internal view virtual returns (address) {... */\n      swap2\n      swap1\n      pop\n      jump\t// out\n        /* \"@openzeppelin/contracts/token/ERC721/ERC721.sol\":14720:15382  function _approve(address to, uint256 tokenId, address auth, bool emitEvent) internal virtual {... */\n    tag_187:\n        /* \"@openzeppelin/contracts/token/ERC721/ERC721.sol\":14880:14889  emitEvent */\n      dup1\n        /* \"@openzeppelin/contracts/token/ERC721/ERC721.sol\":14880:14911  emitEvent || auth != address(0) */\n      dup1\n      tag_242\n      jumpi\n      pop\n        /* \"@openzeppelin/contracts/token/ERC721/ERC721.sol\":14909:14910  0 */\n      0x00\n        /* \"@openzeppelin/contracts/token/ERC721/ERC721.sol\":14893:14911  auth != address(0) */\n      0xffffffffffffffffffffffffffffffffffffffff\n      and\n        /* \"@openzeppelin/contracts/token/ERC721/ERC721.sol\":14893:14897  auth */\n      dup3\n        /* \"@openzeppelin/contracts/token/ERC721/ERC721.sol\":14893:14911  auth != address(0) */\n      0xffffffffffffffffffffffffffffffffffffffff\n      and\n      eq\n      iszero\n        /* \"@openzeppelin/contracts/token/ERC721/ERC721.sol\":14880:14911  emitEvent || auth != address(0) */\n    tag_242:\n        /* \"@openzeppelin/contracts/token/ERC721/ERC721.sol\":14876:15336  if (emitEvent || auth != address(0)) {... */\n      iszero\n      tag_243\n      jumpi\n        /* \"@openzeppelin/contracts/token/ERC721/ERC721.sol\":14927:14940  address owner */\n      0x00\n        /* \"@openzeppelin/contracts/token/ERC721/ERC721.sol\":14943:14965  _requireOwned(tokenId) */\n      tag_244\n        /* \"@openzeppelin/contracts/token/ERC721/ERC721.sol\":14957:14964  tokenId */\n      dup5\n        /* \"@openzeppelin/contracts/token/ERC721/ERC721.sol\":14943:14956  _requireOwned */\n      tag_107\n        /* \"@openzeppelin/contracts/token/ERC721/ERC721.sol\":14943:14965  _requireOwned(tokenId) */\n      jump\t// in\n    tag_244:\n        /* \"@openzeppelin/contracts/token/ERC721/ERC721.sol\":14927:14965  address owner = _requireOwned(tokenId) */\n      swap1\n      pop\n        /* \"@openzeppelin/contracts/token/ERC721/ERC721.sol\":15109:15110  0 */\n      0x00\n        /* \"@openzeppelin/contracts/token/ERC721/ERC721.sol\":15093:15111  auth != address(0) */\n      0xffffffffffffffffffffffffffffffffffffffff\n      and\n        /* \"@openzeppelin/contracts/token/ERC721/ERC721.sol\":15093:15097  auth */\n      dup4\n        /* \"@openzeppelin/contracts/token/ERC721/ERC721.sol\":15093:15111  auth != address(0) */\n      0xffffffffffffffffffffffffffffffffffffffff\n      and\n      eq\n      iszero\n        /* \"@openzeppelin/contracts/token/ERC721/ERC721.sol\":15093:15128  auth != address(0) && owner != auth */\n      dup1\n      iszero\n      tag_245\n      jumpi\n      pop\n        /* \"@openzeppelin/contracts/token/ERC721/ERC721.sol\":15124:15128  auth */\n      dup3\n        /* \"@openzeppelin/contracts/token/ERC721/ERC721.sol\":15115:15128  owner != auth */\n      0xffffffffffffffffffffffffffffffffffffffff\n      and\n        /* \"@openzeppelin/contracts/token/ERC721/ERC721.sol\":15115:15120  owner */\n      dup2\n        /* \"@openzeppelin/contracts/token/ERC721/ERC721.sol\":15115:15128  owner != auth */\n      0xffffffffffffffffffffffffffffffffffffffff\n      and\n      eq\n      iszero\n        /* \"@openzeppelin/contracts/token/ERC721/ERC721.sol\":15093:15128  auth != address(0) && owner != auth */\n    tag_245:\n        /* \"@openzeppelin/contracts/token/ERC721/ERC721.sol\":15093:15162  auth != address(0) && owner != auth && !isApprovedForAll(owner, auth) */\n      dup1\n      iszero\n      tag_246\n      jumpi\n      pop\n        /* \"@openzeppelin/contracts/token/ERC721/ERC721.sol\":15133:15162  isApprovedForAll(owner, auth) */\n      tag_247\n        /* \"@openzeppelin/contracts/token/ERC721/ERC721.sol\":15150:15155  owner */\n      dup2\n        /* \"@openzeppelin/contracts/token/ERC721/ERC721.sol\":15157:15161  auth */\n      dup5\n        /* \"@openzeppelin/contracts/token/ERC721/ERC721.sol\":15133:15149  isApprovedForAll */\n      tag_87\n        /* \"@openzeppelin/contracts/token/ERC721/ERC721.sol\":15133:15162  isApprovedForAll(owner, auth) */\n      jump\t// in\n    tag_247:\n        /* \"@openzeppelin/contracts/token/ERC721/ERC721.sol\":15132:15162  !isApprovedForAll(owner, auth) */\n      iszero\n        /* \"@openzeppelin/contracts/token/ERC721/ERC721.sol\":15093:15162  auth != address(0) && owner != auth && !isApprovedForAll(owner, auth) */\n    tag_246:\n        /* \"@openzeppelin/contracts/token/ERC721/ERC721.sol\":15089:15231  if (auth != address(0) && owner != auth && !isApprovedForAll(owner, auth)) {... */\n      iszero\n      tag_248\n      jumpi\n        /* \"@openzeppelin/contracts/token/ERC721/ERC721.sol\":15211:15215  auth */\n      dup3\n        /* \"@openzeppelin/contracts/token/ERC721/ERC721.sol\":15189:15216  ERC721InvalidApprover(auth) */\n      mload(0x40)\n      0xa9fbf51f00000000000000000000000000000000000000000000000000000000\n      dup2\n      mstore\n      0x04\n      add\n      tag_249\n      swap2\n      swap1\n      tag_37\n      jump\t// in\n    tag_249:\n      mload(0x40)\n      dup1\n      swap2\n      sub\n      swap1\n      revert\n        /* \"@openzeppelin/contracts/token/ERC721/ERC721.sol\":15089:15231  if (auth != address(0) && owner != auth && !isApprovedForAll(owner, auth)) {... */\n    tag_248:\n        /* \"@openzeppelin/contracts/token/ERC721/ERC721.sol\":15249:15258  emitEvent */\n      dup2\n        /* \"@openzeppelin/contracts/token/ERC721/ERC721.sol\":15245:15326  if (emitEvent) {... */\n      iszero\n      tag_250\n      jumpi\n        /* \"@openzeppelin/contracts/token/ERC721/ERC721.sol\":15303:15310  tokenId */\n      dup4\n        /* \"@openzeppelin/contracts/token/ERC721/ERC721.sol\":15299:15301  to */\n      dup6\n        /* \"@openzeppelin/contracts/token/ERC721/ERC721.sol\":15283:15311  Approval(owner, to, tokenId) */\n      0xffffffffffffffffffffffffffffffffffffffff\n      and\n        /* \"@openzeppelin/contracts/token/ERC721/ERC721.sol\":15292:15297  owner */\n      dup3\n        /* \"@openzeppelin/contracts/token/ERC721/ERC721.sol\":15283:15311  Approval(owner, to, tokenId) */\n      0xffffffffffffffffffffffffffffffffffffffff\n      and\n      0x8c5be1e5ebec7d5bd14f71427d1e84f3dd0314c0f7b2291e5b200ac8c7c3b925\n      mload(0x40)\n      mload(0x40)\n      dup1\n      swap2\n      sub\n      swap1\n      log4\n        /* \"@openzeppelin/contracts/token/ERC721/ERC721.sol\":15245:15326  if (emitEvent) {... */\n    tag_250:\n        /* \"@openzeppelin/contracts/token/ERC721/ERC721.sol\":14913:15336  {... */\n      pop\n        /* \"@openzeppelin/contracts/token/ERC721/ERC721.sol\":14876:15336  if (emitEvent || auth != address(0)) {... */\n    tag_243:\n        /* \"@openzeppelin/contracts/token/ERC721/ERC721.sol\":15373:15375  to */\n      dup4\n        /* \"@openzeppelin/contracts/token/ERC721/ERC721.sol\":15346:15361  _tokenApprovals */\n      0x04\n        /* \"@openzeppelin/contracts/token/ERC721/ERC721.sol\":15346:15370  _tokenApprovals[tokenId] */\n      0x00\n        /* \"@openzeppelin/contracts/token/ERC721/ERC721.sol\":15362:15369  tokenId */\n      dup6\n        /* \"@openzeppelin/contracts/token/ERC721/ERC721.sol\":15346:15370  _tokenApprovals[tokenId] */\n      dup2\n      mstore\n      0x20\n      add\n      swap1\n      dup2\n      mstore\n      0x20\n      add\n      0x00\n      keccak256\n      0x00\n        /* \"@openzeppelin/contracts/token/ERC721/ERC721.sol\":15346:15375  _tokenApprovals[tokenId] = to */\n      0x0100\n      exp\n      dup2\n      sload\n      dup2\n      0xffffffffffffffffffffffffffffffffffffffff\n      mul\n      not\n      and\n      swap1\n      dup4\n      0xffffffffffffffffffffffffffffffffffffffff\n      and\n      mul\n      or\n      swap1\n      sstore\n      pop\n        /* \"@openzeppelin/contracts/token/ERC721/ERC721.sol\":14720:15382  function _approve(address to, uint256 tokenId, address auth, bool emitEvent) internal virtual {... */\n      pop\n      pop\n      pop\n      pop\n      jump\t// out\n        /* \"@openzeppelin/contracts/token/ERC721/ERC721.sol\":7082:7450  function _checkAuthorized(address owner, address spender, uint256 tokenId) internal view virtual {... */\n    tag_192:\n        /* \"@openzeppelin/contracts/token/ERC721/ERC721.sol\":7194:7232  _isAuthorized(owner, spender, tokenId) */\n      tag_252\n        /* \"@openzeppelin/contracts/token/ERC721/ERC721.sol\":7208:7213  owner */\n      dup4\n        /* \"@openzeppelin/contracts/token/ERC721/ERC721.sol\":7215:7222  spender */\n      dup4\n        /* \"@openzeppelin/contracts/token/ERC721/ERC721.sol\":7224:7231  tokenId */\n      dup4\n        /* \"@openzeppelin/contracts/token/ERC721/ERC721.sol\":7194:7207  _isAuthorized */\n      tag_253\n        /* \"@openzeppelin/contracts/token/ERC721/ERC721.sol\":7194:7232  _isAuthorized(owner, spender, tokenId) */\n      jump\t// in\n    tag_252:\n        /* \"@openzeppelin/contracts/token/ERC721/ERC721.sol\":7189:7444  if (!_isAuthorized(owner, spender, tokenId)) {... */\n      tag_254\n      jumpi\n        /* \"@openzeppelin/contracts/token/ERC721/ERC721.sol\":7269:7270  0 */\n      0x00\n        /* \"@openzeppelin/contracts/token/ERC721/ERC721.sol\":7252:7271  owner == address(0) */\n      0xffffffffffffffffffffffffffffffffffffffff\n      and\n        /* \"@openzeppelin/contracts/token/ERC721/ERC721.sol\":7252:7257  owner */\n      dup4\n        /* \"@openzeppelin/contracts/token/ERC721/ERC721.sol\":7252:7271  owner == address(0) */\n      0xffffffffffffffffffffffffffffffffffffffff\n      and\n      sub\n        /* \"@openzeppelin/contracts/token/ERC721/ERC721.sol\":7248:7434  if (owner == address(0)) {... */\n      tag_255\n      jumpi\n        /* \"@openzeppelin/contracts/token/ERC721/ERC721.sol\":7321:7328  tokenId */\n      dup1\n        /* \"@openzeppelin/contracts/token/ERC721/ERC721.sol\":7298:7329  ERC721NonexistentToken(tokenId) */\n      mload(0x40)\n      0x7e27328900000000000000000000000000000000000000000000000000000000\n      dup2\n      mstore\n      0x04\n      add\n      tag_256\n      swap2\n      swap1\n      tag_63\n      jump\t// in\n    tag_256:\n      mload(0x40)\n      dup1\n      swap2\n      sub\n      swap1\n      revert\n        /* \"@openzeppelin/contracts/token/ERC721/ERC721.sol\":7248:7434  if (owner == address(0)) {... */\n    tag_255:\n        /* \"@openzeppelin/contracts/token/ERC721/ERC721.sol\":7402:7409  spender */\n      dup2\n        /* \"@openzeppelin/contracts/token/ERC721/ERC721.sol\":7411:7418  tokenId */\n      dup2\n        /* \"@openzeppelin/contracts/token/ERC721/ERC721.sol\":7375:7419  ERC721InsufficientApproval(spender, tokenId) */\n      mload(0x40)\n      0x177e802f00000000000000000000000000000000000000000000000000000000\n      dup2\n      mstore\n      0x04\n      add\n      tag_258\n      swap3\n      swap2\n      swap1\n      tag_259\n      jump\t// in\n    tag_258:\n      mload(0x40)\n      dup1\n      swap2\n      sub\n      swap1\n      revert\n        /* \"@openzeppelin/contracts/token/ERC721/ERC721.sol\":7189:7444  if (!_isAuthorized(owner, spender, tokenId)) {... */\n    tag_254:\n        /* \"@openzeppelin/contracts/token/ERC721/ERC721.sol\":7082:7450  function _checkAuthorized(address owner, address spender, uint256 tokenId) internal view virtual {... */\n      pop\n      pop\n      pop\n      jump\t// out\n        /* \"@openzeppelin/contracts/utils/Strings.sol\":637:1335  function toString(uint256 value) internal pure returns (string memory) {... */\n    tag_227:\n        /* \"@openzeppelin/contracts/utils/Strings.sol\":693:706  string memory */\n      0x60\n        /* \"@openzeppelin/contracts/utils/Strings.sol\":742:756  uint256 length */\n      0x00\n        /* \"@openzeppelin/contracts/utils/Strings.sol\":779:780  1 */\n      0x01\n        /* \"@openzeppelin/contracts/utils/Strings.sol\":759:776  Math.log10(value) */\n      tag_261\n        /* \"@openzeppelin/contracts/utils/Strings.sol\":770:775  value */\n      dup5\n        /* \"@openzeppelin/contracts/utils/Strings.sol\":759:769  Math.log10 */\n      tag_262\n        /* \"@openzeppelin/contracts/utils/Strings.sol\":759:776  Math.log10(value) */\n      jump\t// in\n    tag_261:\n        /* \"@openzeppelin/contracts/utils/Strings.sol\":759:780  Math.log10(value) + 1 */\n      add\n        /* \"@openzeppelin/contracts/utils/Strings.sol\":742:780  uint256 length = Math.log10(value) + 1 */\n      swap1\n      pop\n        /* \"@openzeppelin/contracts/utils/Strings.sol\":794:814  string memory buffer */\n      0x00\n        /* \"@openzeppelin/contracts/utils/Strings.sol\":828:834  length */\n      dup2\n        /* \"@openzeppelin/contracts/utils/Strings.sol\":817:835  new string(length) */\n      0xffffffffffffffff\n      dup2\n      gt\n      iszero\n      tag_263\n      jumpi\n      tag_264\n      tag_265\n      jump\t// in\n    tag_264:\n    tag_263:\n      mload(0x40)\n      swap1\n      dup1\n      dup3\n      mstore\n      dup1\n      0x1f\n      add\n      not(0x1f)\n      and\n      0x20\n      add\n      dup3\n      add\n      0x40\n      mstore\n      dup1\n      iszero\n      tag_266\n      jumpi\n      dup2\n      0x20\n      add\n      0x01\n      dup3\n      mul\n      dup1\n      calldatasize\n      dup4\n      calldatacopy\n      dup1\n      dup3\n      add\n      swap2\n      pop\n      pop\n      swap1\n      pop\n    tag_266:\n      pop\n        /* \"@openzeppelin/contracts/utils/Strings.sol\":794:835  string memory buffer = new string(length) */\n      swap1\n      pop\n        /* \"@openzeppelin/contracts/utils/Strings.sol\":849:860  uint256 ptr */\n      0x00\n        /* \"@openzeppelin/contracts/utils/Strings.sol\":975:981  length */\n      dup3\n        /* \"@openzeppelin/contracts/utils/Strings.sol\":971:973  32 */\n      0x20\n        /* \"@openzeppelin/contracts/utils/Strings.sol\":967:982  add(32, length) */\n      add\n        /* \"@openzeppelin/contracts/utils/Strings.sol\":959:965  buffer */\n      dup3\n        /* \"@openzeppelin/contracts/utils/Strings.sol\":955:983  add(buffer, add(32, length)) */\n      add\n        /* \"@openzeppelin/contracts/utils/Strings.sol\":948:983  ptr := add(buffer, add(32, length)) */\n      swap1\n      pop\n        /* \"@openzeppelin/contracts/utils/Strings.sol\":1010:1292  while (true) {... */\n    tag_267:\n        /* \"@openzeppelin/contracts/utils/Strings.sol\":1017:1021  true */\n      0x01\n        /* \"@openzeppelin/contracts/utils/Strings.sol\":1010:1292  while (true) {... */\n      iszero\n      tag_268\n      jumpi\n        /* \"@openzeppelin/contracts/utils/Strings.sol\":1041:1046  ptr-- */\n      dup1\n      dup1\n      0x01\n      swap1\n      sub\n      swap2\n      pop\n      pop\n        /* \"@openzeppelin/contracts/utils/Strings.sol\":1180:1190  HEX_DIGITS */\n      0x3031323334353637383961626364656600000000000000000000000000000000\n        /* \"@openzeppelin/contracts/utils/Strings.sol\":1175:1177  10 */\n      0x0a\n        /* \"@openzeppelin/contracts/utils/Strings.sol\":1168:1173  value */\n      dup7\n        /* \"@openzeppelin/contracts/utils/Strings.sol\":1164:1178  mod(value, 10) */\n      mod\n        /* \"@openzeppelin/contracts/utils/Strings.sol\":1159:1191  byte(mod(value, 10), HEX_DIGITS) */\n      byte\n        /* \"@openzeppelin/contracts/utils/Strings.sol\":1154:1157  ptr */\n      dup2\n        /* \"@openzeppelin/contracts/utils/Strings.sol\":1146:1192  mstore8(ptr, byte(mod(value, 10), HEX_DIGITS)) */\n      mstore8\n        /* \"@openzeppelin/contracts/utils/Strings.sol\":1236:1238  10 */\n      0x0a\n        /* \"@openzeppelin/contracts/utils/Strings.sol\":1227:1238  value /= 10 */\n      dup6\n      dup2\n      tag_269\n      jumpi\n      tag_270\n      tag_271\n      jump\t// in\n    tag_270:\n    tag_269:\n      div\n      swap5\n      pop\n        /* \"@openzeppelin/contracts/utils/Strings.sol\":1269:1270  0 */\n      0x00\n        /* \"@openzeppelin/contracts/utils/Strings.sol\":1260:1265  value */\n      dup6\n        /* \"@openzeppelin/contracts/utils/Strings.sol\":1260:1270  value == 0 */\n      sub\n        /* \"@openzeppelin/contracts/utils/Strings.sol\":1010:1292  while (true) {... */\n      tag_267\n        /* \"@openzeppelin/contracts/utils/Strings.sol\":1256:1277  if (value == 0) break */\n      jumpi\n        /* \"@openzeppelin/contracts/utils/Strings.sol\":1010:1292  while (true) {... */\n    tag_268:\n        /* \"@openzeppelin/contracts/utils/Strings.sol\":1312:1318  buffer */\n      dup2\n        /* \"@openzeppelin/contracts/utils/Strings.sol\":1305:1318  return buffer */\n      swap4\n      pop\n      pop\n      pop\n      pop\n        /* \"@openzeppelin/contracts/utils/Strings.sol\":637:1335  function toString(uint256 value) internal pure returns (string memory) {... */\n      swap2\n      swap1\n      pop\n      jump\t// out\n        /* \"@openzeppelin/contracts/token/ERC721/ERC721.sol\":6376:6648  function _isAuthorized(address owner, address spender, uint256 tokenId) internal view virtual returns (bool) {... */\n    tag_253:\n        /* \"@openzeppelin/contracts/token/ERC721/ERC721.sol\":6479:6483  bool */\n      0x00\n        /* \"@openzeppelin/contracts/token/ERC721/ERC721.sol\":6533:6534  0 */\n      dup1\n        /* \"@openzeppelin/contracts/token/ERC721/ERC721.sol\":6514:6535  spender != address(0) */\n      0xffffffffffffffffffffffffffffffffffffffff\n      and\n        /* \"@openzeppelin/contracts/token/ERC721/ERC721.sol\":6514:6521  spender */\n      dup4\n        /* \"@openzeppelin/contracts/token/ERC721/ERC721.sol\":6514:6535  spender != address(0) */\n      0xffffffffffffffffffffffffffffffffffffffff\n      and\n      eq\n      iszero\n        /* \"@openzeppelin/contracts/token/ERC721/ERC721.sol\":6514:6641  spender != address(0) &&... */\n      dup1\n      iszero\n      tag_274\n      jumpi\n      pop\n        /* \"@openzeppelin/contracts/token/ERC721/ERC721.sol\":6561:6568  spender */\n      dup3\n        /* \"@openzeppelin/contracts/token/ERC721/ERC721.sol\":6552:6568  owner == spender */\n      0xffffffffffffffffffffffffffffffffffffffff\n      and\n        /* \"@openzeppelin/contracts/token/ERC721/ERC721.sol\":6552:6557  owner */\n      dup5\n        /* \"@openzeppelin/contracts/token/ERC721/ERC721.sol\":6552:6568  owner == spender */\n      0xffffffffffffffffffffffffffffffffffffffff\n      and\n      eq\n        /* \"@openzeppelin/contracts/token/ERC721/ERC721.sol\":6552:6604  owner == spender || isApprovedForAll(owner, spender) */\n      dup1\n      tag_275\n      jumpi\n      pop\n        /* \"@openzeppelin/contracts/token/ERC721/ERC721.sol\":6572:6604  isApprovedForAll(owner, spender) */\n      tag_276\n        /* \"@openzeppelin/contracts/token/ERC721/ERC721.sol\":6589:6594  owner */\n      dup5\n        /* \"@openzeppelin/contracts/token/ERC721/ERC721.sol\":6596:6603  spender */\n      dup5\n        /* \"@openzeppelin/contracts/token/ERC721/ERC721.sol\":6572:6588  isApprovedForAll */\n      tag_87\n        /* \"@openzeppelin/contracts/token/ERC721/ERC721.sol\":6572:6604  isApprovedForAll(owner, spender) */\n      jump\t// in\n    tag_276:\n        /* \"@openzeppelin/contracts/token/ERC721/ERC721.sol\":6552:6604  owner == spender || isApprovedForAll(owner, spender) */\n    tag_275:\n        /* \"@openzeppelin/contracts/token/ERC721/ERC721.sol\":6552:6640  owner == spender || isApprovedForAll(owner, spender) || _getApproved(tokenId) == spender */\n      dup1\n      tag_277\n      jumpi\n      pop\n        /* \"@openzeppelin/contracts/token/ERC721/ERC721.sol\":6633:6640  spender */\n      dup3\n        /* \"@openzeppelin/contracts/token/ERC721/ERC721.sol\":6608:6640  _getApproved(tokenId) == spender */\n      0xffffffffffffffffffffffffffffffffffffffff\n      and\n        /* \"@openzeppelin/contracts/token/ERC721/ERC721.sol\":6608:6629  _getApproved(tokenId) */\n      tag_278\n        /* \"@openzeppelin/contracts/token/ERC721/ERC721.sol\":6621:6628  tokenId */\n      dup4\n        /* \"@openzeppelin/contracts/token/ERC721/ERC721.sol\":6608:6620  _getApproved */\n      tag_109\n        /* \"@openzeppelin/contracts/token/ERC721/ERC721.sol\":6608:6629  _getApproved(tokenId) */\n      jump\t// in\n    tag_278:\n        /* \"@openzeppelin/contracts/token/ERC721/ERC721.sol\":6608:6640  _getApproved(tokenId) == spender */\n      0xffffffffffffffffffffffffffffffffffffffff\n      and\n      eq\n        /* \"@openzeppelin/contracts/token/ERC721/ERC721.sol\":6552:6640  owner == spender || isApprovedForAll(owner, spender) || _getApproved(tokenId) == spender */\n    tag_277:\n        /* \"@openzeppelin/contracts/token/ERC721/ERC721.sol\":6514:6641  spender != address(0) &&... */\n    tag_274:\n        /* \"@openzeppelin/contracts/token/ERC721/ERC721.sol\":6495:6641  return... */\n      swap1\n      pop\n        /* \"@openzeppelin/contracts/token/ERC721/ERC721.sol\":6376:6648  function _isAuthorized(address owner, address spender, uint256 tokenId) internal view virtual returns (bool) {... */\n      swap4\n      swap3\n      pop\n      pop\n      pop\n      jump\t// out\n        /* \"@openzeppelin/contracts/utils/math/Math.sol\":12214:13130  function log10(uint256 value) internal pure returns (uint256) {... */\n    tag_262:\n        /* \"@openzeppelin/contracts/utils/math/Math.sol\":12267:12274  uint256 */\n      0x00\n        /* \"@openzeppelin/contracts/utils/math/Math.sol\":12286:12300  uint256 result */\n      dup1\n        /* \"@openzeppelin/contracts/utils/math/Math.sol\":12303:12304  0 */\n      0x00\n        /* \"@openzeppelin/contracts/utils/math/Math.sol\":12286:12304  uint256 result = 0 */\n      swap1\n      pop\n        /* \"@openzeppelin/contracts/utils/math/Math.sol\":12351:12359  10 ** 64 */\n      0x184f03e93ff9f4daa797ed6e38ed64bf6a1f010000000000000000\n        /* \"@openzeppelin/contracts/utils/math/Math.sol\":12342:12347  value */\n      dup4\n        /* \"@openzeppelin/contracts/utils/math/Math.sol\":12342:12359  value >= 10 ** 64 */\n      lt\n        /* \"@openzeppelin/contracts/utils/math/Math.sol\":12338:12441  if (value >= 10 ** 64) {... */\n      tag_280\n      jumpi\n        /* \"@openzeppelin/contracts/utils/math/Math.sol\":12388:12396  10 ** 64 */\n      0x184f03e93ff9f4daa797ed6e38ed64bf6a1f010000000000000000\n        /* \"@openzeppelin/contracts/utils/math/Math.sol\":12379:12396  value /= 10 ** 64 */\n      dup4\n      dup2\n      tag_281\n      jumpi\n      tag_282\n      tag_271\n      jump\t// in\n    tag_282:\n    tag_281:\n      div\n      swap3\n      pop\n        /* \"@openzeppelin/contracts/utils/math/Math.sol\":12424:12426  64 */\n      0x40\n        /* \"@openzeppelin/contracts/utils/math/Math.sol\":12414:12426  result += 64 */\n      dup2\n      add\n      swap1\n      pop\n        /* \"@openzeppelin/contracts/utils/math/Math.sol\":12338:12441  if (value >= 10 ** 64) {... */\n    tag_280:\n        /* \"@openzeppelin/contracts/utils/math/Math.sol\":12467:12475  10 ** 32 */\n      0x04ee2d6d415b85acef8100000000\n        /* \"@openzeppelin/contracts/utils/math/Math.sol\":12458:12463  value */\n      dup4\n        /* \"@openzeppelin/contracts/utils/math/Math.sol\":12458:12475  value >= 10 ** 32 */\n      lt\n        /* \"@openzeppelin/contracts/utils/math/Math.sol\":12454:12557  if (value >= 10 ** 32) {... */\n      tag_283\n      jumpi\n        /* \"@openzeppelin/contracts/utils/math/Math.sol\":12504:12512  10 ** 32 */\n      0x04ee2d6d415b85acef8100000000\n        /* \"@openzeppelin/contracts/utils/math/Math.sol\":12495:12512  value /= 10 ** 32 */\n      dup4\n      dup2\n      tag_284\n      jumpi\n      tag_285\n      tag_271\n      jump\t// in\n    tag_285:\n    tag_284:\n      div\n      swap3\n      pop\n        /* \"@openzeppelin/contracts/utils/math/Math.sol\":12540:12542  32 */\n      0x20\n        /* \"@openzeppelin/contracts/utils/math/Math.sol\":12530:12542  result += 32 */\n      dup2\n      add\n      swap1\n      pop\n        /* \"@openzeppelin/contracts/utils/math/Math.sol\":12454:12557  if (value >= 10 ** 32) {... */\n    tag_283:\n        /* \"@openzeppelin/contracts/utils/math/Math.sol\":12583:12591  10 ** 16 */\n      0x2386f26fc10000\n        /* \"@openzeppelin/contracts/utils/math/Math.sol\":12574:12579  value */\n      dup4\n        /* \"@openzeppelin/contracts/utils/math/Math.sol\":12574:12591  value >= 10 ** 16 */\n      lt\n        /* \"@openzeppelin/contracts/utils/math/Math.sol\":12570:12673  if (value >= 10 ** 16) {... */\n      tag_286\n      jumpi\n        /* \"@openzeppelin/contracts/utils/math/Math.sol\":12620:12628  10 ** 16 */\n      0x2386f26fc10000\n        /* \"@openzeppelin/contracts/utils/math/Math.sol\":12611:12628  value /= 10 ** 16 */\n      dup4\n      dup2\n      tag_287\n      jumpi\n      tag_288\n      tag_271\n      jump\t// in\n    tag_288:\n    tag_287:\n      div\n      swap3\n      pop\n        /* \"@openzeppelin/contracts/utils/math/Math.sol\":12656:12658  16 */\n      0x10\n        /* \"@openzeppelin/contracts/utils/math/Math.sol\":12646:12658  result += 16 */\n      dup2\n      add\n      swap1\n      pop\n        /* \"@openzeppelin/contracts/utils/math/Math.sol\":12570:12673  if (value >= 10 ** 16) {... */\n    tag_286:\n        /* \"@openzeppelin/contracts/utils/math/Math.sol\":12699:12706  10 ** 8 */\n      0x05f5e100\n        /* \"@openzeppelin/contracts/utils/math/Math.sol\":12690:12695  value */\n      dup4\n        /* \"@openzeppelin/contracts/utils/math/Math.sol\":12690:12706  value >= 10 ** 8 */\n      lt\n        /* \"@openzeppelin/contracts/utils/math/Math.sol\":12686:12786  if (value >= 10 ** 8) {... */\n      tag_289\n      jumpi\n        /* \"@openzeppelin/contracts/utils/math/Math.sol\":12735:12742  10 ** 8 */\n      0x05f5e100\n        /* \"@openzeppelin/contracts/utils/math/Math.sol\":12726:12742  value /= 10 ** 8 */\n      dup4\n      dup2\n      tag_290\n      jumpi\n      tag_291\n      tag_271\n      jump\t// in\n    tag_291:\n    tag_290:\n      div\n      swap3\n      pop\n        /* \"@openzeppelin/contracts/utils/math/Math.sol\":12770:12771  8 */\n      0x08\n        /* \"@openzeppelin/contracts/utils/math/Math.sol\":12760:12771  result += 8 */\n      dup2\n      add\n      swap1\n      pop\n        /* \"@openzeppelin/contracts/utils/math/Math.sol\":12686:12786  if (value >= 10 ** 8) {... */\n    tag_289:\n        /* \"@openzeppelin/contracts/utils/math/Math.sol\":12812:12819  10 ** 4 */\n      0x2710\n        /* \"@openzeppelin/contracts/utils/math/Math.sol\":12803:12808  value */\n      dup4\n        /* \"@openzeppelin/contracts/utils/math/Math.sol\":12803:12819  value >= 10 ** 4 */\n      lt\n        /* \"@openzeppelin/contracts/utils/math/Math.sol\":12799:12899  if (value >= 10 ** 4) {... */\n      tag_292\n      jumpi\n        /* \"@openzeppelin/contracts/utils/math/Math.sol\":12848:12855  10 ** 4 */\n      0x2710\n        /* \"@openzeppelin/contracts/utils/math/Math.sol\":12839:12855  value /= 10 ** 4 */\n      dup4\n      dup2\n      tag_293\n      jumpi\n      tag_294\n      tag_271\n      jump\t// in\n    tag_294:\n    tag_293:\n      div\n      swap3\n      pop\n        /* \"@openzeppelin/contracts/utils/math/Math.sol\":12883:12884  4 */\n      0x04\n        /* \"@openzeppelin/contracts/utils/math/Math.sol\":12873:12884  result += 4 */\n      dup2\n      add\n      swap1\n      pop\n        /* \"@openzeppelin/contracts/utils/math/Math.sol\":12799:12899  if (value >= 10 ** 4) {... */\n    tag_292:\n        /* \"@openzeppelin/contracts/utils/math/Math.sol\":12925:12932  10 ** 2 */\n      0x64\n        /* \"@openzeppelin/contracts/utils/math/Math.sol\":12916:12921  value */\n      dup4\n        /* \"@openzeppelin/contracts/utils/math/Math.sol\":12916:12932  value >= 10 ** 2 */\n      lt\n        /* \"@openzeppelin/contracts/utils/math/Math.sol\":12912:13012  if (value >= 10 ** 2) {... */\n      tag_295\n      jumpi\n        /* \"@openzeppelin/contracts/utils/math/Math.sol\":12961:12968  10 ** 2 */\n      0x64\n        /* \"@openzeppelin/contracts/utils/math/Math.sol\":12952:12968  value /= 10 ** 2 */\n      dup4\n      dup2\n      tag_296\n      jumpi\n      tag_297\n      tag_271\n      jump\t// in\n    tag_297:\n    tag_296:\n      div\n      swap3\n      pop\n        /* \"@openzeppelin/contracts/utils/math/Math.sol\":12996:12997  2 */\n      0x02\n        /* \"@openzeppelin/contracts/utils/math/Math.sol\":12986:12997  result += 2 */\n      dup2\n      add\n      swap1\n      pop\n        /* \"@openzeppelin/contracts/utils/math/Math.sol\":12912:13012  if (value >= 10 ** 2) {... */\n    tag_295:\n        /* \"@openzeppelin/contracts/utils/math/Math.sol\":13038:13045  10 ** 1 */\n      0x0a\n        /* \"@openzeppelin/contracts/utils/math/Math.sol\":13029:13034  value */\n      dup4\n        /* \"@openzeppelin/contracts/utils/math/Math.sol\":13029:13045  value >= 10 ** 1 */\n      lt\n        /* \"@openzeppelin/contracts/utils/math/Math.sol\":13025:13091  if (value >= 10 ** 1) {... */\n      tag_298\n      jumpi\n        /* \"@openzeppelin/contracts/utils/math/Math.sol\":13075:13076  1 */\n      0x01\n        /* \"@openzeppelin/contracts/utils/math/Math.sol\":13065:13076  result += 1 */\n      dup2\n      add\n      swap1\n      pop\n        /* \"@openzeppelin/contracts/utils/math/Math.sol\":13025:13091  if (value >= 10 ** 1) {... */\n    tag_298:\n        /* \"@openzeppelin/contracts/utils/math/Math.sol\":13117:13123  result */\n      dup1\n        /* \"@openzeppelin/contracts/utils/math/Math.sol\":13110:13123  return result */\n      swap2\n      pop\n      pop\n        /* \"@openzeppelin/contracts/utils/math/Math.sol\":12214:13130  function log10(uint256 value) internal pure returns (uint256) {... */\n      swap2\n      swap1\n      pop\n      jump\t// out\n        /* \"#utility.yul\":7:82   */\n    tag_299:\n        /* \"#utility.yul\":40:46   */\n      0x00\n        /* \"#utility.yul\":73:75   */\n      0x40\n        /* \"#utility.yul\":67:76   */\n      mload\n        /* \"#utility.yul\":57:76   */\n      swap1\n      pop\n        /* \"#utility.yul\":7:82   */\n      swap1\n      jump\t// out\n        /* \"#utility.yul\":88:205   */\n    tag_300:\n        /* \"#utility.yul\":197:198   */\n      0x00\n        /* \"#utility.yul\":194:195   */\n      dup1\n        /* \"#utility.yul\":187:199   */\n      revert\n        /* \"#utility.yul\":211:328   */\n    tag_301:\n        /* \"#utility.yul\":320:321   */\n      0x00\n        /* \"#utility.yul\":317:318   */\n      dup1\n        /* \"#utility.yul\":310:322   */\n      revert\n        /* \"#utility.yul\":334:483   */\n    tag_302:\n        /* \"#utility.yul\":370:377   */\n      0x00\n        /* \"#utility.yul\":410:476   */\n      0xffffffff00000000000000000000000000000000000000000000000000000000\n        /* \"#utility.yul\":403:408   */\n      dup3\n        /* \"#utility.yul\":399:477   */\n      and\n        /* \"#utility.yul\":388:477   */\n      swap1\n      pop\n        /* \"#utility.yul\":334:483   */\n      swap2\n      swap1\n      pop\n      jump\t// out\n        /* \"#utility.yul\":489:609   */\n    tag_303:\n        /* \"#utility.yul\":561:584   */\n      tag_365\n        /* \"#utility.yul\":578:583   */\n      dup2\n        /* \"#utility.yul\":561:584   */\n      tag_302\n      jump\t// in\n    tag_365:\n        /* \"#utility.yul\":554:559   */\n      dup2\n        /* \"#utility.yul\":551:585   */\n      eq\n        /* \"#utility.yul\":541:603   */\n      tag_366\n      jumpi\n        /* \"#utility.yul\":599:600   */\n      0x00\n        /* \"#utility.yul\":596:597   */\n      dup1\n        /* \"#utility.yul\":589:601   */\n      revert\n        /* \"#utility.yul\":541:603   */\n    tag_366:\n        /* \"#utility.yul\":489:609   */\n      pop\n      jump\t// out\n        /* \"#utility.yul\":615:752   */\n    tag_304:\n        /* \"#utility.yul\":660:665   */\n      0x00\n        /* \"#utility.yul\":698:704   */\n      dup2\n        /* \"#utility.yul\":685:705   */\n      calldataload\n        /* \"#utility.yul\":676:705   */\n      swap1\n      pop\n        /* \"#utility.yul\":714:746   */\n      tag_368\n        /* \"#utility.yul\":740:745   */\n      dup2\n        /* \"#utility.yul\":714:746   */\n      tag_303\n      jump\t// in\n    tag_368:\n        /* \"#utility.yul\":615:752   */\n      swap3\n      swap2\n      pop\n      pop\n      jump\t// out\n        /* \"#utility.yul\":758:1085   */\n    tag_22:\n        /* \"#utility.yul\":816:822   */\n      0x00\n        /* \"#utility.yul\":865:867   */\n      0x20\n        /* \"#utility.yul\":853:862   */\n      dup3\n        /* \"#utility.yul\":844:851   */\n      dup5\n        /* \"#utility.yul\":840:863   */\n      sub\n        /* \"#utility.yul\":836:868   */\n      slt\n        /* \"#utility.yul\":833:952   */\n      iszero\n      tag_370\n      jumpi\n        /* \"#utility.yul\":871:950   */\n      tag_371\n      tag_300\n      jump\t// in\n    tag_371:\n        /* \"#utility.yul\":833:952   */\n    tag_370:\n        /* \"#utility.yul\":991:992   */\n      0x00\n        /* \"#utility.yul\":1016:1068   */\n      tag_372\n        /* \"#utility.yul\":1060:1067   */\n      dup5\n        /* \"#utility.yul\":1051:1057   */\n      dup3\n        /* \"#utility.yul\":1040:1049   */\n      dup6\n        /* \"#utility.yul\":1036:1058   */\n      add\n        /* \"#utility.yul\":1016:1068   */\n      tag_304\n      jump\t// in\n    tag_372:\n        /* \"#utility.yul\":1006:1068   */\n      swap2\n      pop\n        /* \"#utility.yul\":962:1078   */\n      pop\n        /* \"#utility.yul\":758:1085   */\n      swap3\n      swap2\n      pop\n      pop\n      jump\t// out\n        /* \"#utility.yul\":1091:1181   */\n    tag_305:\n        /* \"#utility.yul\":1125:1132   */\n      0x00\n        /* \"#utility.yul\":1168:1173   */\n      dup2\n        /* \"#utility.yul\":1161:1174   */\n      iszero\n        /* \"#utility.yul\":1154:1175   */\n      iszero\n        /* \"#utility.yul\":1143:1175   */\n      swap1\n      pop\n        /* \"#utility.yul\":1091:1181   */\n      swap2\n      swap1\n      pop\n      jump\t// out\n        /* \"#utility.yul\":1187:1296   */\n    tag_306:\n        /* \"#utility.yul\":1268:1289   */\n      tag_375\n        /* \"#utility.yul\":1283:1288   */\n      dup2\n        /* \"#utility.yul\":1268:1289   */\n      tag_305\n      jump\t// in\n    tag_375:\n        /* \"#utility.yul\":1263:1266   */\n      dup3\n        /* \"#utility.yul\":1256:1290   */\n      mstore\n        /* \"#utility.yul\":1187:1296   */\n      pop\n      pop\n      jump\t// out\n        /* \"#utility.yul\":1302:1512   */\n    tag_25:\n        /* \"#utility.yul\":1389:1393   */\n      0x00\n        /* \"#utility.yul\":1427:1429   */\n      0x20\n        /* \"#utility.yul\":1416:1425   */\n      dup3\n        /* \"#utility.yul\":1412:1430   */\n      add\n        /* \"#utility.yul\":1404:1430   */\n      swap1\n      pop\n        /* \"#utility.yul\":1440:1505   */\n      tag_377\n        /* \"#utility.yul\":1502:1503   */\n      0x00\n        /* \"#utility.yul\":1491:1500   */\n      dup4\n        /* \"#utility.yul\":1487:1504   */\n      add\n        /* \"#utility.yul\":1478:1484   */\n      dup5\n        /* \"#utility.yul\":1440:1505   */\n      tag_306\n      jump\t// in\n    tag_377:\n        /* \"#utility.yul\":1302:1512   */\n      swap3\n      swap2\n      pop\n      pop\n      jump\t// out\n        /* \"#utility.yul\":1518:1617   */\n    tag_307:\n        /* \"#utility.yul\":1570:1576   */\n      0x00\n        /* \"#utility.yul\":1604:1609   */\n      dup2\n        /* \"#utility.yul\":1598:1610   */\n      mload\n        /* \"#utility.yul\":1588:1610   */\n      swap1\n      pop\n        /* \"#utility.yul\":1518:1617   */\n      swap2\n      swap1\n      pop\n      jump\t// out\n        /* \"#utility.yul\":1623:1792   */\n    tag_308:\n        /* \"#utility.yul\":1707:1718   */\n      0x00\n        /* \"#utility.yul\":1741:1747   */\n      dup3\n        /* \"#utility.yul\":1736:1739   */\n      dup3\n        /* \"#utility.yul\":1729:1748   */\n      mstore\n        /* \"#utility.yul\":1781:1785   */\n      0x20\n        /* \"#utility.yul\":1776:1779   */\n      dup3\n        /* \"#utility.yul\":1772:1786   */\n      add\n        /* \"#utility.yul\":1757:1786   */\n      swap1\n      pop\n        /* \"#utility.yul\":1623:1792   */\n      swap3\n      swap2\n      pop\n      pop\n      jump\t// out\n        /* \"#utility.yul\":1798:1937   */\n    tag_309:\n        /* \"#utility.yul\":1887:1893   */\n      dup3\n        /* \"#utility.yul\":1882:1885   */\n      dup2\n        /* \"#utility.yul\":1877:1880   */\n      dup4\n        /* \"#utility.yul\":1871:1894   */\n      mcopy\n        /* \"#utility.yul\":1928:1929   */\n      0x00\n        /* \"#utility.yul\":1919:1925   */\n      dup4\n        /* \"#utility.yul\":1914:1917   */\n      dup4\n        /* \"#utility.yul\":1910:1926   */\n      add\n        /* \"#utility.yul\":1903:1930   */\n      mstore\n        /* \"#utility.yul\":1798:1937   */\n      pop\n      pop\n      pop\n      jump\t// out\n        /* \"#utility.yul\":1943:2045   */\n    tag_310:\n        /* \"#utility.yul\":1984:1990   */\n      0x00\n        /* \"#utility.yul\":2035:2037   */\n      0x1f\n        /* \"#utility.yul\":2031:2038   */\n      not\n        /* \"#utility.yul\":2026:2028   */\n      0x1f\n        /* \"#utility.yul\":2019:2024   */\n      dup4\n        /* \"#utility.yul\":2015:2029   */\n      add\n        /* \"#utility.yul\":2011:2039   */\n      and\n        /* \"#utility.yul\":2001:2039   */\n      swap1\n      pop\n        /* \"#utility.yul\":1943:2045   */\n      swap2\n      swap1\n      pop\n      jump\t// out\n        /* \"#utility.yul\":2051:2428   */\n    tag_311:\n        /* \"#utility.yul\":2139:2142   */\n      0x00\n        /* \"#utility.yul\":2167:2206   */\n      tag_383\n        /* \"#utility.yul\":2200:2205   */\n      dup3\n        /* \"#utility.yul\":2167:2206   */\n      tag_307\n      jump\t// in\n    tag_383:\n        /* \"#utility.yul\":2222:2293   */\n      tag_384\n        /* \"#utility.yul\":2286:2292   */\n      dup2\n        /* \"#utility.yul\":2281:2284   */\n      dup6\n        /* \"#utility.yul\":2222:2293   */\n      tag_308\n      jump\t// in\n    tag_384:\n        /* \"#utility.yul\":2215:2293   */\n      swap4\n      pop\n        /* \"#utility.yul\":2302:2367   */\n      tag_385\n        /* \"#utility.yul\":2360:2366   */\n      dup2\n        /* \"#utility.yul\":2355:2358   */\n      dup6\n        /* \"#utility.yul\":2348:2352   */\n      0x20\n        /* \"#utility.yul\":2341:2346   */\n      dup7\n        /* \"#utility.yul\":2337:2353   */\n      add\n        /* \"#utility.yul\":2302:2367   */\n      tag_309\n      jump\t// in\n    tag_385:\n        /* \"#utility.yul\":2392:2421   */\n      tag_386\n        /* \"#utility.yul\":2414:2420   */\n      dup2\n        /* \"#utility.yul\":2392:2421   */\n      tag_310\n      jump\t// in\n    tag_386:\n        /* \"#utility.yul\":2387:2390   */\n      dup5\n        /* \"#utility.yul\":2383:2422   */\n      add\n        /* \"#utility.yul\":2376:2422   */\n      swap2\n      pop\n        /* \"#utility.yul\":2143:2428   */\n      pop\n        /* \"#utility.yul\":2051:2428   */\n      swap3\n      swap2\n      pop\n      pop\n      jump\t// out\n        /* \"#utility.yul\":2434:2747   */\n    tag_30:\n        /* \"#utility.yul\":2547:2551   */\n      0x00\n        /* \"#utility.yul\":2585:2587   */\n      0x20\n        /* \"#utility.yul\":2574:2583   */\n      dup3\n        /* \"#utility.yul\":2570:2588   */\n      add\n        /* \"#utility.yul\":2562:2588   */\n      swap1\n      pop\n        /* \"#utility.yul\":2634:2643   */\n      dup2\n        /* \"#utility.yul\":2628:2632   */\n      dup2\n        /* \"#utility.yul\":2624:2644   */\n      sub\n        /* \"#utility.yul\":2620:2621   */\n      0x00\n        /* \"#utility.yul\":2609:2618   */\n      dup4\n        /* \"#utility.yul\":2605:2622   */\n      add\n        /* \"#utility.yul\":2598:2645   */\n      mstore\n        /* \"#utility.yul\":2662:2740   */\n      tag_388\n        /* \"#utility.yul\":2735:2739   */\n      dup2\n        /* \"#utility.yul\":2726:2732   */\n      dup5\n        /* \"#utility.yul\":2662:2740   */\n      tag_311\n      jump\t// in\n    tag_388:\n        /* \"#utility.yul\":2654:2740   */\n      swap1\n      pop\n        /* \"#utility.yul\":2434:2747   */\n      swap3\n      swap2\n      pop\n      pop\n      jump\t// out\n        /* \"#utility.yul\":2753:2830   */\n    tag_312:\n        /* \"#utility.yul\":2790:2797   */\n      0x00\n        /* \"#utility.yul\":2819:2824   */\n      dup2\n        /* \"#utility.yul\":2808:2824   */\n      swap1\n      pop\n        /* \"#utility.yul\":2753:2830   */\n      swap2\n      swap1\n      pop\n      jump\t// out\n        /* \"#utility.yul\":2836:2958   */\n    tag_313:\n        /* \"#utility.yul\":2909:2933   */\n      tag_391\n        /* \"#utility.yul\":2927:2932   */\n      dup2\n        /* \"#utility.yul\":2909:2933   */\n      tag_312\n      jump\t// in\n    tag_391:\n        /* \"#utility.yul\":2902:2907   */\n      dup2\n        /* \"#utility.yul\":2899:2934   */\n      eq\n        /* \"#utility.yul\":2889:2952   */\n      tag_392\n      jumpi\n        /* \"#utility.yul\":2948:2949   */\n      0x00\n        /* \"#utility.yul\":2945:2946   */\n      dup1\n        /* \"#utility.yul\":2938:2950   */\n      revert\n        /* \"#utility.yul\":2889:2952   */\n    tag_392:\n        /* \"#utility.yul\":2836:2958   */\n      pop\n      jump\t// out\n        /* \"#utility.yul\":2964:3103   */\n    tag_314:\n        /* \"#utility.yul\":3010:3015   */\n      0x00\n        /* \"#utility.yul\":3048:3054   */\n      dup2\n        /* \"#utility.yul\":3035:3055   */\n      calldataload\n        /* \"#utility.yul\":3026:3055   */\n      swap1\n      pop\n        /* \"#utility.yul\":3064:3097   */\n      tag_394\n        /* \"#utility.yul\":3091:3096   */\n      dup2\n        /* \"#utility.yul\":3064:3097   */\n      tag_313\n      jump\t// in\n    tag_394:\n        /* \"#utility.yul\":2964:3103   */\n      swap3\n      swap2\n      pop\n      pop\n      jump\t// out\n        /* \"#utility.yul\":3109:3438   */\n    tag_34:\n        /* \"#utility.yul\":3168:3174   */\n      0x00\n        /* \"#utility.yul\":3217:3219   */\n      0x20\n        /* \"#utility.yul\":3205:3214   */\n      dup3\n        /* \"#utility.yul\":3196:3203   */\n      dup5\n        /* \"#utility.yul\":3192:3215   */\n      sub\n        /* \"#utility.yul\":3188:3220   */\n      slt\n        /* \"#utility.yul\":3185:3304   */\n      iszero\n      tag_396\n      jumpi\n        /* \"#utility.yul\":3223:3302   */\n      tag_397\n      tag_300\n      jump\t// in\n    tag_397:\n        /* \"#utility.yul\":3185:3304   */\n    tag_396:\n        /* \"#utility.yul\":3343:3344   */\n      0x00\n        /* \"#utility.yul\":3368:3421   */\n      tag_398\n        /* \"#utility.yul\":3413:3420   */\n      dup5\n        /* \"#utility.yul\":3404:3410   */\n      dup3\n        /* \"#utility.yul\":3393:3402   */\n      dup6\n        /* \"#utility.yul\":3389:3411   */\n      add\n        /* \"#utility.yul\":3368:3421   */\n      tag_314\n      jump\t// in\n    tag_398:\n        /* \"#utility.yul\":3358:3421   */\n      swap2\n      pop\n        /* \"#utility.yul\":3314:3431   */\n      pop\n        /* \"#utility.yul\":3109:3438   */\n      swap3\n      swap2\n      pop\n      pop\n      jump\t// out\n        /* \"#utility.yul\":3444:3570   */\n    tag_315:\n        /* \"#utility.yul\":3481:3488   */\n      0x00\n        /* \"#utility.yul\":3521:3563   */\n      0xffffffffffffffffffffffffffffffffffffffff\n        /* \"#utility.yul\":3514:3519   */\n      dup3\n        /* \"#utility.yul\":3510:3564   */\n      and\n        /* \"#utility.yul\":3499:3564   */\n      swap1\n      pop\n        /* \"#utility.yul\":3444:3570   */\n      swap2\n      swap1\n      pop\n      jump\t// out\n        /* \"#utility.yul\":3576:3672   */\n    tag_316:\n        /* \"#utility.yul\":3613:3620   */\n      0x00\n        /* \"#utility.yul\":3642:3666   */\n      tag_401\n        /* \"#utility.yul\":3660:3665   */\n      dup3\n        /* \"#utility.yul\":3642:3666   */\n      tag_315\n      jump\t// in\n    tag_401:\n        /* \"#utility.yul\":3631:3666   */\n      swap1\n      pop\n        /* \"#utility.yul\":3576:3672   */\n      swap2\n      swap1\n      pop\n      jump\t// out\n        /* \"#utility.yul\":3678:3796   */\n    tag_317:\n        /* \"#utility.yul\":3765:3789   */\n      tag_403\n        /* \"#utility.yul\":3783:3788   */\n      dup2\n        /* \"#utility.yul\":3765:3789   */\n      tag_316\n      jump\t// in\n    tag_403:\n        /* \"#utility.yul\":3760:3763   */\n      dup3\n        /* \"#utility.yul\":3753:3790   */\n      mstore\n        /* \"#utility.yul\":3678:3796   */\n      pop\n      pop\n      jump\t// out\n        /* \"#utility.yul\":3802:4024   */\n    tag_37:\n        /* \"#utility.yul\":3895:3899   */\n      0x00\n        /* \"#utility.yul\":3933:3935   */\n      0x20\n        /* \"#utility.yul\":3922:3931   */\n      dup3\n        /* \"#utility.yul\":3918:3936   */\n      add\n        /* \"#utility.yul\":3910:3936   */\n      swap1\n      pop\n        /* \"#utility.yul\":3946:4017   */\n      tag_405\n        /* \"#utility.yul\":4014:4015   */\n      0x00\n        /* \"#utility.yul\":4003:4012   */\n      dup4\n        /* \"#utility.yul\":3999:4016   */\n      add\n        /* \"#utility.yul\":3990:3996   */\n      dup5\n        /* \"#utility.yul\":3946:4017   */\n      tag_317\n      jump\t// in\n    tag_405:\n        /* \"#utility.yul\":3802:4024   */\n      swap3\n      swap2\n      pop\n      pop\n      jump\t// out\n        /* \"#utility.yul\":4030:4152   */\n    tag_318:\n        /* \"#utility.yul\":4103:4127   */\n      tag_407\n        /* \"#utility.yul\":4121:4126   */\n      dup2\n        /* \"#utility.yul\":4103:4127   */\n      tag_316\n      jump\t// in\n    tag_407:\n        /* \"#utility.yul\":4096:4101   */\n      dup2\n        /* \"#utility.yul\":4093:4128   */\n      eq\n        /* \"#utility.yul\":4083:4146   */\n      tag_408\n      jumpi\n        /* \"#utility.yul\":4142:4143   */\n      0x00\n        /* \"#utility.yul\":4139:4140   */\n      dup1\n        /* \"#utility.yul\":4132:4144   */\n      revert\n        /* \"#utility.yul\":4083:4146   */\n    tag_408:\n        /* \"#utility.yul\":4030:4152   */\n      pop\n      jump\t// out\n        /* \"#utility.yul\":4158:4297   */\n    tag_319:\n        /* \"#utility.yul\":4204:4209   */\n      0x00\n        /* \"#utility.yul\":4242:4248   */\n      dup2\n        /* \"#utility.yul\":4229:4249   */\n      calldataload\n        /* \"#utility.yul\":4220:4249   */\n      swap1\n      pop\n        /* \"#utility.yul\":4258:4291   */\n      tag_410\n        /* \"#utility.yul\":4285:4290   */\n      dup2\n        /* \"#utility.yul\":4258:4291   */\n      tag_318\n      jump\t// in\n    tag_410:\n        /* \"#utility.yul\":4158:4297   */\n      swap3\n      swap2\n      pop\n      pop\n      jump\t// out\n        /* \"#utility.yul\":4303:4777   */\n    tag_41:\n        /* \"#utility.yul\":4371:4377   */\n      0x00\n        /* \"#utility.yul\":4379:4385   */\n      dup1\n        /* \"#utility.yul\":4428:4430   */\n      0x40\n        /* \"#utility.yul\":4416:4425   */\n      dup4\n        /* \"#utility.yul\":4407:4414   */\n      dup6\n        /* \"#utility.yul\":4403:4426   */\n      sub\n        /* \"#utility.yul\":4399:4431   */\n      slt\n        /* \"#utility.yul\":4396:4515   */\n      iszero\n      tag_412\n      jumpi\n        /* \"#utility.yul\":4434:4513   */\n      tag_413\n      tag_300\n      jump\t// in\n    tag_413:\n        /* \"#utility.yul\":4396:4515   */\n    tag_412:\n        /* \"#utility.yul\":4554:4555   */\n      0x00\n        /* \"#utility.yul\":4579:4632   */\n      tag_414\n        /* \"#utility.yul\":4624:4631   */\n      dup6\n        /* \"#utility.yul\":4615:4621   */\n      dup3\n        /* \"#utility.yul\":4604:4613   */\n      dup7\n        /* \"#utility.yul\":4600:4622   */\n      add\n        /* \"#utility.yul\":4579:4632   */\n      tag_319\n      jump\t// in\n    tag_414:\n        /* \"#utility.yul\":4569:4632   */\n      swap3\n      pop\n        /* \"#utility.yul\":4525:4642   */\n      pop\n        /* \"#utility.yul\":4681:4683   */\n      0x20\n        /* \"#utility.yul\":4707:4760   */\n      tag_415\n        /* \"#utility.yul\":4752:4759   */\n      dup6\n        /* \"#utility.yul\":4743:4749   */\n      dup3\n        /* \"#utility.yul\":4732:4741   */\n      dup7\n        /* \"#utility.yul\":4728:4750   */\n      add\n        /* \"#utility.yul\":4707:4760   */\n      tag_314\n      jump\t// in\n    tag_415:\n        /* \"#utility.yul\":4697:4760   */\n      swap2\n      pop\n        /* \"#utility.yul\":4652:4770   */\n      pop\n        /* \"#utility.yul\":4303:4777   */\n      swap3\n      pop\n      swap3\n      swap1\n      pop\n      jump\t// out\n        /* \"#utility.yul\":4783:5402   */\n    tag_46:\n        /* \"#utility.yul\":4860:4866   */\n      0x00\n        /* \"#utility.yul\":4868:4874   */\n      dup1\n        /* \"#utility.yul\":4876:4882   */\n      0x00\n        /* \"#utility.yul\":4925:4927   */\n      0x60\n        /* \"#utility.yul\":4913:4922   */\n      dup5\n        /* \"#utility.yul\":4904:4911   */\n      dup7\n        /* \"#utility.yul\":4900:4923   */\n      sub\n        /* \"#utility.yul\":4896:4928   */\n      slt\n        /* \"#utility.yul\":4893:5012   */\n      iszero\n      tag_417\n      jumpi\n        /* \"#utility.yul\":4931:5010   */\n      tag_418\n      tag_300\n      jump\t// in\n    tag_418:\n        /* \"#utility.yul\":4893:5012   */\n    tag_417:\n        /* \"#utility.yul\":5051:5052   */\n      0x00\n        /* \"#utility.yul\":5076:5129   */\n      tag_419\n        /* \"#utility.yul\":5121:5128   */\n      dup7\n        /* \"#utility.yul\":5112:5118   */\n      dup3\n        /* \"#utility.yul\":5101:5110   */\n      dup8\n        /* \"#utility.yul\":5097:5119   */\n      add\n        /* \"#utility.yul\":5076:5129   */\n      tag_319\n      jump\t// in\n    tag_419:\n        /* \"#utility.yul\":5066:5129   */\n      swap4\n      pop\n        /* \"#utility.yul\":5022:5139   */\n      pop\n        /* \"#utility.yul\":5178:5180   */\n      0x20\n        /* \"#utility.yul\":5204:5257   */\n      tag_420\n        /* \"#utility.yul\":5249:5256   */\n      dup7\n        /* \"#utility.yul\":5240:5246   */\n      dup3\n        /* \"#utility.yul\":5229:5238   */\n      dup8\n        /* \"#utility.yul\":5225:5247   */\n      add\n        /* \"#utility.yul\":5204:5257   */\n      tag_319\n      jump\t// in\n    tag_420:\n        /* \"#utility.yul\":5194:5257   */\n      swap3\n      pop\n        /* \"#utility.yul\":5149:5267   */\n      pop\n        /* \"#utility.yul\":5306:5308   */\n      0x40\n        /* \"#utility.yul\":5332:5385   */\n      tag_421\n        /* \"#utility.yul\":5377:5384   */\n      dup7\n        /* \"#utility.yul\":5368:5374   */\n      dup3\n        /* \"#utility.yul\":5357:5366   */\n      dup8\n        /* \"#utility.yul\":5353:5375   */\n      add\n        /* \"#utility.yul\":5332:5385   */\n      tag_314\n      jump\t// in\n    tag_421:\n        /* \"#utility.yul\":5322:5385   */\n      swap2\n      pop\n        /* \"#utility.yul\":5277:5395   */\n      pop\n        /* \"#utility.yul\":4783:5402   */\n      swap3\n      pop\n      swap3\n      pop\n      swap3\n      jump\t// out\n        /* \"#utility.yul\":5408:5737   */\n    tag_60:\n        /* \"#utility.yul\":5467:5473   */\n      0x00\n        /* \"#utility.yul\":5516:5518   */\n      0x20\n        /* \"#utility.yul\":5504:5513   */\n      dup3\n        /* \"#utility.yul\":5495:5502   */\n      dup5\n        /* \"#utility.yul\":5491:5514   */\n      sub\n        /* \"#utility.yul\":5487:5519   */\n      slt\n        /* \"#utility.yul\":5484:5603   */\n      iszero\n      tag_423\n      jumpi\n        /* \"#utility.yul\":5522:5601   */\n      tag_424\n      tag_300\n      jump\t// in\n    tag_424:\n        /* \"#utility.yul\":5484:5603   */\n    tag_423:\n        /* \"#utility.yul\":5642:5643   */\n      0x00\n        /* \"#utility.yul\":5667:5720   */\n      tag_425\n        /* \"#utility.yul\":5712:5719   */\n      dup5\n        /* \"#utility.yul\":5703:5709   */\n      dup3\n        /* \"#utility.yul\":5692:5701   */\n      dup6\n        /* \"#utility.yul\":5688:5710   */\n      add\n        /* \"#utility.yul\":5667:5720   */\n      tag_319\n      jump\t// in\n    tag_425:\n        /* \"#utility.yul\":5657:5720   */\n      swap2\n      pop\n        /* \"#utility.yul\":5613:5730   */\n      pop\n        /* \"#utility.yul\":5408:5737   */\n      swap3\n      swap2\n      pop\n      pop\n      jump\t// out\n        /* \"#utility.yul\":5743:5861   */\n    tag_320:\n        /* \"#utility.yul\":5830:5854   */\n      tag_427\n        /* \"#utility.yul\":5848:5853   */\n      dup2\n        /* \"#utility.yul\":5830:5854   */\n      tag_312\n      jump\t// in\n    tag_427:\n        /* \"#utility.yul\":5825:5828   */\n      dup3\n        /* \"#utility.yul\":5818:5855   */\n      mstore\n        /* \"#utility.yul\":5743:5861   */\n      pop\n      pop\n      jump\t// out\n        /* \"#utility.yul\":5867:6089   */\n    tag_63:\n        /* \"#utility.yul\":5960:5964   */\n      0x00\n        /* \"#utility.yul\":5998:6000   */\n      0x20\n        /* \"#utility.yul\":5987:5996   */\n      dup3\n        /* \"#utility.yul\":5983:6001   */\n      add\n        /* \"#utility.yul\":5975:6001   */\n      swap1\n      pop\n        /* \"#utility.yul\":6011:6082   */\n      tag_429\n        /* \"#utility.yul\":6079:6080   */\n      0x00\n        /* \"#utility.yul\":6068:6077   */\n      dup4\n        /* \"#utility.yul\":6064:6081   */\n      add\n        /* \"#utility.yul\":6055:6061   */\n      dup5\n        /* \"#utility.yul\":6011:6082   */\n      tag_320\n      jump\t// in\n    tag_429:\n        /* \"#utility.yul\":5867:6089   */\n      swap3\n      swap2\n      pop\n      pop\n      jump\t// out\n        /* \"#utility.yul\":6095:6211   */\n    tag_321:\n        /* \"#utility.yul\":6165:6186   */\n      tag_431\n        /* \"#utility.yul\":6180:6185   */\n      dup2\n        /* \"#utility.yul\":6165:6186   */\n      tag_305\n      jump\t// in\n    tag_431:\n        /* \"#utility.yul\":6158:6163   */\n      dup2\n        /* \"#utility.yul\":6155:6187   */\n      eq\n        /* \"#utility.yul\":6145:6205   */\n      tag_432\n      jumpi\n        /* \"#utility.yul\":6201:6202   */\n      0x00\n        /* \"#utility.yul\":6198:6199   */\n      dup1\n        /* \"#utility.yul\":6191:6203   */\n      revert\n        /* \"#utility.yul\":6145:6205   */\n    tag_432:\n        /* \"#utility.yul\":6095:6211   */\n      pop\n      jump\t// out\n        /* \"#utility.yul\":6217:6350   */\n    tag_322:\n        /* \"#utility.yul\":6260:6265   */\n      0x00\n        /* \"#utility.yul\":6298:6304   */\n      dup2\n        /* \"#utility.yul\":6285:6305   */\n      calldataload\n        /* \"#utility.yul\":6276:6305   */\n      swap1\n      pop\n        /* \"#utility.yul\":6314:6344   */\n      tag_434\n        /* \"#utility.yul\":6338:6343   */\n      dup2\n        /* \"#utility.yul\":6314:6344   */\n      tag_321\n      jump\t// in\n    tag_434:\n        /* \"#utility.yul\":6217:6350   */\n      swap3\n      swap2\n      pop\n      pop\n      jump\t// out\n        /* \"#utility.yul\":6356:6824   */\n    tag_71:\n        /* \"#utility.yul\":6421:6427   */\n      0x00\n        /* \"#utility.yul\":6429:6435   */\n      dup1\n        /* \"#utility.yul\":6478:6480   */\n      0x40\n        /* \"#utility.yul\":6466:6475   */\n      dup4\n        /* \"#utility.yul\":6457:6464   */\n      dup6\n        /* \"#utility.yul\":6453:6476   */\n      sub\n        /* \"#utility.yul\":6449:6481   */\n      slt\n        /* \"#utility.yul\":6446:6565   */\n      iszero\n      tag_436\n      jumpi\n        /* \"#utility.yul\":6484:6563   */\n      tag_437\n      tag_300\n      jump\t// in\n    tag_437:\n        /* \"#utility.yul\":6446:6565   */\n    tag_436:\n        /* \"#utility.yul\":6604:6605   */\n      0x00\n        /* \"#utility.yul\":6629:6682   */\n      tag_438\n        /* \"#utility.yul\":6674:6681   */\n      dup6\n        /* \"#utility.yul\":6665:6671   */\n      dup3\n        /* \"#utility.yul\":6654:6663   */\n      dup7\n        /* \"#utility.yul\":6650:6672   */\n      add\n        /* \"#utility.yul\":6629:6682   */\n      tag_319\n      jump\t// in\n    tag_438:\n        /* \"#utility.yul\":6619:6682   */\n      swap3\n      pop\n        /* \"#utility.yul\":6575:6692   */\n      pop\n        /* \"#utility.yul\":6731:6733   */\n      0x20\n        /* \"#utility.yul\":6757:6807   */\n      tag_439\n        /* \"#utility.yul\":6799:6806   */\n      dup6\n        /* \"#utility.yul\":6790:6796   */\n      dup3\n        /* \"#utility.yul\":6779:6788   */\n      dup7\n        /* \"#utility.yul\":6775:6797   */\n      add\n        /* \"#utility.yul\":6757:6807   */\n      tag_322\n      jump\t// in\n    tag_439:\n        /* \"#utility.yul\":6747:6807   */\n      swap2\n      pop\n        /* \"#utility.yul\":6702:6817   */\n      pop\n        /* \"#utility.yul\":6356:6824   */\n      swap3\n      pop\n      swap3\n      swap1\n      pop\n      jump\t// out\n        /* \"#utility.yul\":6830:6947   */\n    tag_323:\n        /* \"#utility.yul\":6939:6940   */\n      0x00\n        /* \"#utility.yul\":6936:6937   */\n      dup1\n        /* \"#utility.yul\":6929:6941   */\n      revert\n        /* \"#utility.yul\":6953:7070   */\n    tag_324:\n        /* \"#utility.yul\":7062:7063   */\n      0x00\n        /* \"#utility.yul\":7059:7060   */\n      dup1\n        /* \"#utility.yul\":7052:7064   */\n      revert\n        /* \"#utility.yul\":7076:7256   */\n    tag_265:\n        /* \"#utility.yul\":7124:7201   */\n      0x4e487b7100000000000000000000000000000000000000000000000000000000\n        /* \"#utility.yul\":7121:7122   */\n      0x00\n        /* \"#utility.yul\":7114:7202   */\n      mstore\n        /* \"#utility.yul\":7221:7225   */\n      0x41\n        /* \"#utility.yul\":7218:7219   */\n      0x04\n        /* \"#utility.yul\":7211:7226   */\n      mstore\n        /* \"#utility.yul\":7245:7249   */\n      0x24\n        /* \"#utility.yul\":7242:7243   */\n      0x00\n        /* \"#utility.yul\":7235:7250   */\n      revert\n        /* \"#utility.yul\":7262:7543   */\n    tag_325:\n        /* \"#utility.yul\":7345:7372   */\n      tag_444\n        /* \"#utility.yul\":7367:7371   */\n      dup3\n        /* \"#utility.yul\":7345:7372   */\n      tag_310\n      jump\t// in\n    tag_444:\n        /* \"#utility.yul\":7337:7343   */\n      dup2\n        /* \"#utility.yul\":7333:7373   */\n      add\n        /* \"#utility.yul\":7475:7481   */\n      dup2\n        /* \"#utility.yul\":7463:7473   */\n      dup2\n        /* \"#utility.yul\":7460:7482   */\n      lt\n        /* \"#utility.yul\":7439:7457   */\n      0xffffffffffffffff\n        /* \"#utility.yul\":7427:7437   */\n      dup3\n        /* \"#utility.yul\":7424:7458   */\n      gt\n        /* \"#utility.yul\":7421:7483   */\n      or\n        /* \"#utility.yul\":7418:7506   */\n      iszero\n      tag_445\n      jumpi\n        /* \"#utility.yul\":7486:7504   */\n      tag_446\n      tag_265\n      jump\t// in\n    tag_446:\n        /* \"#utility.yul\":7418:7506   */\n    tag_445:\n        /* \"#utility.yul\":7526:7536   */\n      dup1\n        /* \"#utility.yul\":7522:7524   */\n      0x40\n        /* \"#utility.yul\":7515:7537   */\n      mstore\n        /* \"#utility.yul\":7305:7543   */\n      pop\n        /* \"#utility.yul\":7262:7543   */\n      pop\n      pop\n      jump\t// out\n        /* \"#utility.yul\":7549:7678   */\n    tag_326:\n        /* \"#utility.yul\":7583:7589   */\n      0x00\n        /* \"#utility.yul\":7610:7630   */\n      tag_448\n      tag_299\n      jump\t// in\n    tag_448:\n        /* \"#utility.yul\":7600:7630   */\n      swap1\n      pop\n        /* \"#utility.yul\":7639:7672   */\n      tag_449\n        /* \"#utility.yul\":7667:7671   */\n      dup3\n        /* \"#utility.yul\":7659:7665   */\n      dup3\n        /* \"#utility.yul\":7639:7672   */\n      tag_325\n      jump\t// in\n    tag_449:\n        /* \"#utility.yul\":7549:7678   */\n      swap2\n      swap1\n      pop\n      jump\t// out\n        /* \"#utility.yul\":7684:7991   */\n    tag_327:\n        /* \"#utility.yul\":7745:7749   */\n      0x00\n        /* \"#utility.yul\":7835:7853   */\n      0xffffffffffffffff\n        /* \"#utility.yul\":7827:7833   */\n      dup3\n        /* \"#utility.yul\":7824:7854   */\n      gt\n        /* \"#utility.yul\":7821:7877   */\n      iszero\n      tag_451\n      jumpi\n        /* \"#utility.yul\":7857:7875   */\n      tag_452\n      tag_265\n      jump\t// in\n    tag_452:\n        /* \"#utility.yul\":7821:7877   */\n    tag_451:\n        /* \"#utility.yul\":7895:7924   */\n      tag_453\n        /* \"#utility.yul\":7917:7923   */\n      dup3\n        /* \"#utility.yul\":7895:7924   */\n      tag_310\n      jump\t// in\n    tag_453:\n        /* \"#utility.yul\":7887:7924   */\n      swap1\n      pop\n        /* \"#utility.yul\":7979:7983   */\n      0x20\n        /* \"#utility.yul\":7973:7977   */\n      dup2\n        /* \"#utility.yul\":7969:7984   */\n      add\n        /* \"#utility.yul\":7961:7984   */\n      swap1\n      pop\n        /* \"#utility.yul\":7684:7991   */\n      swap2\n      swap1\n      pop\n      jump\t// out\n        /* \"#utility.yul\":7997:8145   */\n    tag_328:\n        /* \"#utility.yul\":8095:8101   */\n      dup3\n        /* \"#utility.yul\":8090:8093   */\n      dup2\n        /* \"#utility.yul\":8085:8088   */\n      dup4\n        /* \"#utility.yul\":8072:8102   */\n      calldatacopy\n        /* \"#utility.yul\":8136:8137   */\n      0x00\n        /* \"#utility.yul\":8127:8133   */\n      dup4\n        /* \"#utility.yul\":8122:8125   */\n      dup4\n        /* \"#utility.yul\":8118:8134   */\n      add\n        /* \"#utility.yul\":8111:8138   */\n      mstore\n        /* \"#utility.yul\":7997:8145   */\n      pop\n      pop\n      pop\n      jump\t// out\n        /* \"#utility.yul\":8151:8574   */\n    tag_329:\n        /* \"#utility.yul\":8228:8233   */\n      0x00\n        /* \"#utility.yul\":8253:8318   */\n      tag_456\n        /* \"#utility.yul\":8269:8317   */\n      tag_457\n        /* \"#utility.yul\":8310:8316   */\n      dup5\n        /* \"#utility.yul\":8269:8317   */\n      tag_327\n      jump\t// in\n    tag_457:\n        /* \"#utility.yul\":8253:8318   */\n      tag_326\n      jump\t// in\n    tag_456:\n        /* \"#utility.yul\":8244:8318   */\n      swap1\n      pop\n        /* \"#utility.yul\":8341:8347   */\n      dup3\n        /* \"#utility.yul\":8334:8339   */\n      dup2\n        /* \"#utility.yul\":8327:8348   */\n      mstore\n        /* \"#utility.yul\":8379:8383   */\n      0x20\n        /* \"#utility.yul\":8372:8377   */\n      dup2\n        /* \"#utility.yul\":8368:8384   */\n      add\n        /* \"#utility.yul\":8417:8420   */\n      dup5\n        /* \"#utility.yul\":8408:8414   */\n      dup5\n        /* \"#utility.yul\":8403:8406   */\n      dup5\n        /* \"#utility.yul\":8399:8415   */\n      add\n        /* \"#utility.yul\":8396:8421   */\n      gt\n        /* \"#utility.yul\":8393:8505   */\n      iszero\n      tag_458\n      jumpi\n        /* \"#utility.yul\":8424:8503   */\n      tag_459\n      tag_324\n      jump\t// in\n    tag_459:\n        /* \"#utility.yul\":8393:8505   */\n    tag_458:\n        /* \"#utility.yul\":8514:8568   */\n      tag_460\n        /* \"#utility.yul\":8561:8567   */\n      dup5\n        /* \"#utility.yul\":8556:8559   */\n      dup3\n        /* \"#utility.yul\":8551:8554   */\n      dup6\n        /* \"#utility.yul\":8514:8568   */\n      tag_328\n      jump\t// in\n    tag_460:\n        /* \"#utility.yul\":8234:8574   */\n      pop\n        /* \"#utility.yul\":8151:8574   */\n      swap4\n      swap3\n      pop\n      pop\n      pop\n      jump\t// out\n        /* \"#utility.yul\":8593:8931   */\n    tag_330:\n        /* \"#utility.yul\":8648:8653   */\n      0x00\n        /* \"#utility.yul\":8697:8700   */\n      dup3\n        /* \"#utility.yul\":8690:8694   */\n      0x1f\n        /* \"#utility.yul\":8682:8688   */\n      dup4\n        /* \"#utility.yul\":8678:8695   */\n      add\n        /* \"#utility.yul\":8674:8701   */\n      slt\n        /* \"#utility.yul\":8664:8786   */\n      tag_462\n      jumpi\n        /* \"#utility.yul\":8705:8784   */\n      tag_463\n      tag_323\n      jump\t// in\n    tag_463:\n        /* \"#utility.yul\":8664:8786   */\n    tag_462:\n        /* \"#utility.yul\":8822:8828   */\n      dup2\n        /* \"#utility.yul\":8809:8829   */\n      calldataload\n        /* \"#utility.yul\":8847:8925   */\n      tag_464\n        /* \"#utility.yul\":8921:8924   */\n      dup5\n        /* \"#utility.yul\":8913:8919   */\n      dup3\n        /* \"#utility.yul\":8906:8910   */\n      0x20\n        /* \"#utility.yul\":8898:8904   */\n      dup7\n        /* \"#utility.yul\":8894:8911   */\n      add\n        /* \"#utility.yul\":8847:8925   */\n      tag_329\n      jump\t// in\n    tag_464:\n        /* \"#utility.yul\":8838:8925   */\n      swap2\n      pop\n        /* \"#utility.yul\":8654:8931   */\n      pop\n        /* \"#utility.yul\":8593:8931   */\n      swap3\n      swap2\n      pop\n      pop\n      jump\t// out\n        /* \"#utility.yul\":8937:9880   */\n    tag_76:\n        /* \"#utility.yul\":9032:9038   */\n      0x00\n        /* \"#utility.yul\":9040:9046   */\n      dup1\n        /* \"#utility.yul\":9048:9054   */\n      0x00\n        /* \"#utility.yul\":9056:9062   */\n      dup1\n        /* \"#utility.yul\":9105:9108   */\n      0x80\n        /* \"#utility.yul\":9093:9102   */\n      dup6\n        /* \"#utility.yul\":9084:9091   */\n      dup8\n        /* \"#utility.yul\":9080:9103   */\n      sub\n        /* \"#utility.yul\":9076:9109   */\n      slt\n        /* \"#utility.yul\":9073:9193   */\n      iszero\n      tag_466\n      jumpi\n        /* \"#utility.yul\":9112:9191   */\n      tag_467\n      tag_300\n      jump\t// in\n    tag_467:\n        /* \"#utility.yul\":9073:9193   */\n    tag_466:\n        /* \"#utility.yul\":9232:9233   */\n      0x00\n        /* \"#utility.yul\":9257:9310   */\n      tag_468\n        /* \"#utility.yul\":9302:9309   */\n      dup8\n        /* \"#utility.yul\":9293:9299   */\n      dup3\n        /* \"#utility.yul\":9282:9291   */\n      dup9\n        /* \"#utility.yul\":9278:9300   */\n      add\n        /* \"#utility.yul\":9257:9310   */\n      tag_319\n      jump\t// in\n    tag_468:\n        /* \"#utility.yul\":9247:9310   */\n      swap5\n      pop\n        /* \"#utility.yul\":9203:9320   */\n      pop\n        /* \"#utility.yul\":9359:9361   */\n      0x20\n        /* \"#utility.yul\":9385:9438   */\n      tag_469\n        /* \"#utility.yul\":9430:9437   */\n      dup8\n        /* \"#utility.yul\":9421:9427   */\n      dup3\n        /* \"#utility.yul\":9410:9419   */\n      dup9\n        /* \"#utility.yul\":9406:9428   */\n      add\n        /* \"#utility.yul\":9385:9438   */\n      tag_319\n      jump\t// in\n    tag_469:\n        /* \"#utility.yul\":9375:9438   */\n      swap4\n      pop\n        /* \"#utility.yul\":9330:9448   */\n      pop\n        /* \"#utility.yul\":9487:9489   */\n      0x40\n        /* \"#utility.yul\":9513:9566   */\n      tag_470\n        /* \"#utility.yul\":9558:9565   */\n      dup8\n        /* \"#utility.yul\":9549:9555   */\n      dup3\n        /* \"#utility.yul\":9538:9547   */\n      dup9\n        /* \"#utility.yul\":9534:9556   */\n      add\n        /* \"#utility.yul\":9513:9566   */\n      tag_314\n      jump\t// in\n    tag_470:\n        /* \"#utility.yul\":9503:9566   */\n      swap3\n      pop\n        /* \"#utility.yul\":9458:9576   */\n      pop\n        /* \"#utility.yul\":9643:9645   */\n      0x60\n        /* \"#utility.yul\":9632:9641   */\n      dup6\n        /* \"#utility.yul\":9628:9646   */\n      add\n        /* \"#utility.yul\":9615:9647   */\n      calldataload\n        /* \"#utility.yul\":9674:9692   */\n      0xffffffffffffffff\n        /* \"#utility.yul\":9666:9672   */\n      dup2\n        /* \"#utility.yul\":9663:9693   */\n      gt\n        /* \"#utility.yul\":9660:9777   */\n      iszero\n      tag_471\n      jumpi\n        /* \"#utility.yul\":9696:9775   */\n      tag_472\n      tag_301\n      jump\t// in\n    tag_472:\n        /* \"#utility.yul\":9660:9777   */\n    tag_471:\n        /* \"#utility.yul\":9801:9863   */\n      tag_473\n        /* \"#utility.yul\":9855:9862   */\n      dup8\n        /* \"#utility.yul\":9846:9852   */\n      dup3\n        /* \"#utility.yul\":9835:9844   */\n      dup9\n        /* \"#utility.yul\":9831:9853   */\n      add\n        /* \"#utility.yul\":9801:9863   */\n      tag_330\n      jump\t// in\n    tag_473:\n        /* \"#utility.yul\":9791:9863   */\n      swap2\n      pop\n        /* \"#utility.yul\":9586:9873   */\n      pop\n        /* \"#utility.yul\":8937:9880   */\n      swap3\n      swap6\n      swap2\n      swap5\n      pop\n      swap3\n      pop\n      jump\t// out\n        /* \"#utility.yul\":9886:10360   */\n    tag_86:\n        /* \"#utility.yul\":9954:9960   */\n      0x00\n        /* \"#utility.yul\":9962:9968   */\n      dup1\n        /* \"#utility.yul\":10011:10013   */\n      0x40\n        /* \"#utility.yul\":9999:10008   */\n      dup4\n        /* \"#utility.yul\":9990:9997   */\n      dup6\n        /* \"#utility.yul\":9986:10009   */\n      sub\n        /* \"#utility.yul\":9982:10014   */\n      slt\n        /* \"#utility.yul\":9979:10098   */\n      iszero\n      tag_475\n      jumpi\n        /* \"#utility.yul\":10017:10096   */\n      tag_476\n      tag_300\n      jump\t// in\n    tag_476:\n        /* \"#utility.yul\":9979:10098   */\n    tag_475:\n        /* \"#utility.yul\":10137:10138   */\n      0x00\n        /* \"#utility.yul\":10162:10215   */\n      tag_477\n        /* \"#utility.yul\":10207:10214   */\n      dup6\n        /* \"#utility.yul\":10198:10204   */\n      dup3\n        /* \"#utility.yul\":10187:10196   */\n      dup7\n        /* \"#utility.yul\":10183:10205   */\n      add\n        /* \"#utility.yul\":10162:10215   */\n      tag_319\n      jump\t// in\n    tag_477:\n        /* \"#utility.yul\":10152:10215   */\n      swap3\n      pop\n        /* \"#utility.yul\":10108:10225   */\n      pop\n        /* \"#utility.yul\":10264:10266   */\n      0x20\n        /* \"#utility.yul\":10290:10343   */\n      tag_478\n        /* \"#utility.yul\":10335:10342   */\n      dup6\n        /* \"#utility.yul\":10326:10332   */\n      dup3\n        /* \"#utility.yul\":10315:10324   */\n      dup7\n        /* \"#utility.yul\":10311:10333   */\n      add\n        /* \"#utility.yul\":10290:10343   */\n      tag_319\n      jump\t// in\n    tag_478:\n        /* \"#utility.yul\":10280:10343   */\n      swap2\n      pop\n        /* \"#utility.yul\":10235:10353   */\n      pop\n        /* \"#utility.yul\":9886:10360   */\n      swap3\n      pop\n      swap3\n      swap1\n      pop\n      jump\t// out\n        /* \"#utility.yul\":10366:10674   */\n    tag_331:\n        /* \"#utility.yul\":10428:10432   */\n      0x00\n        /* \"#utility.yul\":10518:10536   */\n      0xffffffffffffffff\n        /* \"#utility.yul\":10510:10516   */\n      dup3\n        /* \"#utility.yul\":10507:10537   */\n      gt\n        /* \"#utility.yul\":10504:10560   */\n      iszero\n      tag_480\n      jumpi\n        /* \"#utility.yul\":10540:10558   */\n      tag_481\n      tag_265\n      jump\t// in\n    tag_481:\n        /* \"#utility.yul\":10504:10560   */\n    tag_480:\n        /* \"#utility.yul\":10578:10607   */\n      tag_482\n        /* \"#utility.yul\":10600:10606   */\n      dup3\n        /* \"#utility.yul\":10578:10607   */\n      tag_310\n      jump\t// in\n    tag_482:\n        /* \"#utility.yul\":10570:10607   */\n      swap1\n      pop\n        /* \"#utility.yul\":10662:10666   */\n      0x20\n        /* \"#utility.yul\":10656:10660   */\n      dup2\n        /* \"#utility.yul\":10652:10667   */\n      add\n        /* \"#utility.yul\":10644:10667   */\n      swap1\n      pop\n        /* \"#utility.yul\":10366:10674   */\n      swap2\n      swap1\n      pop\n      jump\t// out\n        /* \"#utility.yul\":10680:11105   */\n    tag_332:\n        /* \"#utility.yul\":10758:10763   */\n      0x00\n        /* \"#utility.yul\":10783:10849   */\n      tag_484\n        /* \"#utility.yul\":10799:10848   */\n      tag_485\n        /* \"#utility.yul\":10841:10847   */\n      dup5\n        /* \"#utility.yul\":10799:10848   */\n      tag_331\n      jump\t// in\n    tag_485:\n        /* \"#utility.yul\":10783:10849   */\n      tag_326\n      jump\t// in\n    tag_484:\n        /* \"#utility.yul\":10774:10849   */\n      swap1\n      pop\n        /* \"#utility.yul\":10872:10878   */\n      dup3\n        /* \"#utility.yul\":10865:10870   */\n      dup2\n        /* \"#utility.yul\":10858:10879   */\n      mstore\n        /* \"#utility.yul\":10910:10914   */\n      0x20\n        /* \"#utility.yul\":10903:10908   */\n      dup2\n        /* \"#utility.yul\":10899:10915   */\n      add\n        /* \"#utility.yul\":10948:10951   */\n      dup5\n        /* \"#utility.yul\":10939:10945   */\n      dup5\n        /* \"#utility.yul\":10934:10937   */\n      dup5\n        /* \"#utility.yul\":10930:10946   */\n      add\n        /* \"#utility.yul\":10927:10952   */\n      gt\n        /* \"#utility.yul\":10924:11036   */\n      iszero\n      tag_486\n      jumpi\n        /* \"#utility.yul\":10955:11034   */\n      tag_487\n      tag_324\n      jump\t// in\n    tag_487:\n        /* \"#utility.yul\":10924:11036   */\n    tag_486:\n        /* \"#utility.yul\":11045:11099   */\n      tag_488\n        /* \"#utility.yul\":11092:11098   */\n      dup5\n        /* \"#utility.yul\":11087:11090   */\n      dup3\n        /* \"#utility.yul\":11082:11085   */\n      dup6\n        /* \"#utility.yul\":11045:11099   */\n      tag_328\n      jump\t// in\n    tag_488:\n        /* \"#utility.yul\":10764:11105   */\n      pop\n        /* \"#utility.yul\":10680:11105   */\n      swap4\n      swap3\n      pop\n      pop\n      pop\n      jump\t// out\n        /* \"#utility.yul\":11125:11465   */\n    tag_333:\n        /* \"#utility.yul\":11181:11186   */\n      0x00\n        /* \"#utility.yul\":11230:11233   */\n      dup3\n        /* \"#utility.yul\":11223:11227   */\n      0x1f\n        /* \"#utility.yul\":11215:11221   */\n      dup4\n        /* \"#utility.yul\":11211:11228   */\n      add\n        /* \"#utility.yul\":11207:11234   */\n      slt\n        /* \"#utility.yul\":11197:11319   */\n      tag_490\n      jumpi\n        /* \"#utility.yul\":11238:11317   */\n      tag_491\n      tag_323\n      jump\t// in\n    tag_491:\n        /* \"#utility.yul\":11197:11319   */\n    tag_490:\n        /* \"#utility.yul\":11355:11361   */\n      dup2\n        /* \"#utility.yul\":11342:11362   */\n      calldataload\n        /* \"#utility.yul\":11380:11459   */\n      tag_492\n        /* \"#utility.yul\":11455:11458   */\n      dup5\n        /* \"#utility.yul\":11447:11453   */\n      dup3\n        /* \"#utility.yul\":11440:11444   */\n      0x20\n        /* \"#utility.yul\":11432:11438   */\n      dup7\n        /* \"#utility.yul\":11428:11445   */\n      add\n        /* \"#utility.yul\":11380:11459   */\n      tag_332\n      jump\t// in\n    tag_492:\n        /* \"#utility.yul\":11371:11459   */\n      swap2\n      pop\n        /* \"#utility.yul\":11187:11465   */\n      pop\n        /* \"#utility.yul\":11125:11465   */\n      swap3\n      swap2\n      pop\n      pop\n      jump\t// out\n        /* \"#utility.yul\":11471:11980   */\n    tag_91:\n        /* \"#utility.yul\":11540:11546   */\n      0x00\n        /* \"#utility.yul\":11589:11591   */\n      0x20\n        /* \"#utility.yul\":11577:11586   */\n      dup3\n        /* \"#utility.yul\":11568:11575   */\n      dup5\n        /* \"#utility.yul\":11564:11587   */\n      sub\n        /* \"#utility.yul\":11560:11592   */\n      slt\n        /* \"#utility.yul\":11557:11676   */\n      iszero\n      tag_494\n      jumpi\n        /* \"#utility.yul\":11595:11674   */\n      tag_495\n      tag_300\n      jump\t// in\n    tag_495:\n        /* \"#utility.yul\":11557:11676   */\n    tag_494:\n        /* \"#utility.yul\":11743:11744   */\n      0x00\n        /* \"#utility.yul\":11732:11741   */\n      dup3\n        /* \"#utility.yul\":11728:11745   */\n      add\n        /* \"#utility.yul\":11715:11746   */\n      calldataload\n        /* \"#utility.yul\":11773:11791   */\n      0xffffffffffffffff\n        /* \"#utility.yul\":11765:11771   */\n      dup2\n        /* \"#utility.yul\":11762:11792   */\n      gt\n        /* \"#utility.yul\":11759:11876   */\n      iszero\n      tag_496\n      jumpi\n        /* \"#utility.yul\":11795:11874   */\n      tag_497\n      tag_301\n      jump\t// in\n    tag_497:\n        /* \"#utility.yul\":11759:11876   */\n    tag_496:\n        /* \"#utility.yul\":11900:11963   */\n      tag_498\n        /* \"#utility.yul\":11955:11962   */\n      dup5\n        /* \"#utility.yul\":11946:11952   */\n      dup3\n        /* \"#utility.yul\":11935:11944   */\n      dup6\n        /* \"#utility.yul\":11931:11953   */\n      add\n        /* \"#utility.yul\":11900:11963   */\n      tag_333\n      jump\t// in\n    tag_498:\n        /* \"#utility.yul\":11890:11963   */\n      swap2\n      pop\n        /* \"#utility.yul\":11686:11973   */\n      pop\n        /* \"#utility.yul\":11471:11980   */\n      swap3\n      swap2\n      pop\n      pop\n      jump\t// out\n        /* \"#utility.yul\":11986:12166   */\n    tag_334:\n        /* \"#utility.yul\":12034:12111   */\n      0x4e487b7100000000000000000000000000000000000000000000000000000000\n        /* \"#utility.yul\":12031:12032   */\n      0x00\n        /* \"#utility.yul\":12024:12112   */\n      mstore\n        /* \"#utility.yul\":12131:12135   */\n      0x22\n        /* \"#utility.yul\":12128:12129   */\n      0x04\n        /* \"#utility.yul\":12121:12136   */\n      mstore\n        /* \"#utility.yul\":12155:12159   */\n      0x24\n        /* \"#utility.yul\":12152:12153   */\n      0x00\n        /* \"#utility.yul\":12145:12160   */\n      revert\n        /* \"#utility.yul\":12172:12492   */\n    tag_100:\n        /* \"#utility.yul\":12216:12222   */\n      0x00\n        /* \"#utility.yul\":12253:12254   */\n      0x02\n        /* \"#utility.yul\":12247:12251   */\n      dup3\n        /* \"#utility.yul\":12243:12255   */\n      div\n        /* \"#utility.yul\":12233:12255   */\n      swap1\n      pop\n        /* \"#utility.yul\":12300:12301   */\n      0x01\n        /* \"#utility.yul\":12294:12298   */\n      dup3\n        /* \"#utility.yul\":12290:12302   */\n      and\n        /* \"#utility.yul\":12321:12339   */\n      dup1\n        /* \"#utility.yul\":12311:12392   */\n      tag_501\n      jumpi\n        /* \"#utility.yul\":12377:12381   */\n      0x7f\n        /* \"#utility.yul\":12369:12375   */\n      dup3\n        /* \"#utility.yul\":12365:12382   */\n      and\n        /* \"#utility.yul\":12355:12382   */\n      swap2\n      pop\n        /* \"#utility.yul\":12311:12392   */\n    tag_501:\n        /* \"#utility.yul\":12439:12441   */\n      0x20\n        /* \"#utility.yul\":12431:12437   */\n      dup3\n        /* \"#utility.yul\":12428:12442   */\n      lt\n        /* \"#utility.yul\":12408:12426   */\n      dup2\n        /* \"#utility.yul\":12405:12443   */\n      sub\n        /* \"#utility.yul\":12402:12486   */\n      tag_502\n      jumpi\n        /* \"#utility.yul\":12458:12476   */\n      tag_503\n      tag_334\n      jump\t// in\n    tag_503:\n        /* \"#utility.yul\":12402:12486   */\n    tag_502:\n        /* \"#utility.yul\":12223:12492   */\n      pop\n        /* \"#utility.yul\":12172:12492   */\n      swap2\n      swap1\n      pop\n      jump\t// out\n        /* \"#utility.yul\":12498:12940   */\n    tag_123:\n        /* \"#utility.yul\":12647:12651   */\n      0x00\n        /* \"#utility.yul\":12685:12687   */\n      0x60\n        /* \"#utility.yul\":12674:12683   */\n      dup3\n        /* \"#utility.yul\":12670:12688   */\n      add\n        /* \"#utility.yul\":12662:12688   */\n      swap1\n      pop\n        /* \"#utility.yul\":12698:12769   */\n      tag_505\n        /* \"#utility.yul\":12766:12767   */\n      0x00\n        /* \"#utility.yul\":12755:12764   */\n      dup4\n        /* \"#utility.yul\":12751:12768   */\n      add\n        /* \"#utility.yul\":12742:12748   */\n      dup7\n        /* \"#utility.yul\":12698:12769   */\n      tag_317\n      jump\t// in\n    tag_505:\n        /* \"#utility.yul\":12779:12851   */\n      tag_506\n        /* \"#utility.yul\":12847:12849   */\n      0x20\n        /* \"#utility.yul\":12836:12845   */\n      dup4\n        /* \"#utility.yul\":12832:12850   */\n      add\n        /* \"#utility.yul\":12823:12829   */\n      dup6\n        /* \"#utility.yul\":12779:12851   */\n      tag_320\n      jump\t// in\n    tag_506:\n        /* \"#utility.yul\":12861:12933   */\n      tag_507\n        /* \"#utility.yul\":12929:12931   */\n      0x40\n        /* \"#utility.yul\":12918:12927   */\n      dup4\n        /* \"#utility.yul\":12914:12932   */\n      add\n        /* \"#utility.yul\":12905:12911   */\n      dup5\n        /* \"#utility.yul\":12861:12933   */\n      tag_317\n      jump\t// in\n    tag_507:\n        /* \"#utility.yul\":12498:12940   */\n      swap5\n      swap4\n      pop\n      pop\n      pop\n      pop\n      jump\t// out\n        /* \"#utility.yul\":12946:13094   */\n    tag_335:\n        /* \"#utility.yul\":13048:13059   */\n      0x00\n        /* \"#utility.yul\":13085:13088   */\n      dup2\n        /* \"#utility.yul\":13070:13088   */\n      swap1\n      pop\n        /* \"#utility.yul\":12946:13094   */\n      swap3\n      swap2\n      pop\n      pop\n      jump\t// out\n        /* \"#utility.yul\":13100:13490   */\n    tag_336:\n        /* \"#utility.yul\":13206:13209   */\n      0x00\n        /* \"#utility.yul\":13234:13273   */\n      tag_510\n        /* \"#utility.yul\":13267:13272   */\n      dup3\n        /* \"#utility.yul\":13234:13273   */\n      tag_307\n      jump\t// in\n    tag_510:\n        /* \"#utility.yul\":13289:13378   */\n      tag_511\n        /* \"#utility.yul\":13371:13377   */\n      dup2\n        /* \"#utility.yul\":13366:13369   */\n      dup6\n        /* \"#utility.yul\":13289:13378   */\n      tag_335\n      jump\t// in\n    tag_511:\n        /* \"#utility.yul\":13282:13378   */\n      swap4\n      pop\n        /* \"#utility.yul\":13387:13452   */\n      tag_512\n        /* \"#utility.yul\":13445:13451   */\n      dup2\n        /* \"#utility.yul\":13440:13443   */\n      dup6\n        /* \"#utility.yul\":13433:13437   */\n      0x20\n        /* \"#utility.yul\":13426:13431   */\n      dup7\n        /* \"#utility.yul\":13422:13438   */\n      add\n        /* \"#utility.yul\":13387:13452   */\n      tag_309\n      jump\t// in\n    tag_512:\n        /* \"#utility.yul\":13477:13483   */\n      dup1\n        /* \"#utility.yul\":13472:13475   */\n      dup5\n        /* \"#utility.yul\":13468:13484   */\n      add\n        /* \"#utility.yul\":13461:13484   */\n      swap2\n      pop\n        /* \"#utility.yul\":13210:13490   */\n      pop\n        /* \"#utility.yul\":13100:13490   */\n      swap3\n      swap2\n      pop\n      pop\n      jump\t// out\n        /* \"#utility.yul\":13496:13931   */\n    tag_157:\n        /* \"#utility.yul\":13676:13679   */\n      0x00\n        /* \"#utility.yul\":13698:13793   */\n      tag_514\n        /* \"#utility.yul\":13789:13792   */\n      dup3\n        /* \"#utility.yul\":13780:13786   */\n      dup6\n        /* \"#utility.yul\":13698:13793   */\n      tag_336\n      jump\t// in\n    tag_514:\n        /* \"#utility.yul\":13691:13793   */\n      swap2\n      pop\n        /* \"#utility.yul\":13810:13905   */\n      tag_515\n        /* \"#utility.yul\":13901:13904   */\n      dup3\n        /* \"#utility.yul\":13892:13898   */\n      dup5\n        /* \"#utility.yul\":13810:13905   */\n      tag_336\n      jump\t// in\n    tag_515:\n        /* \"#utility.yul\":13803:13905   */\n      swap2\n      pop\n        /* \"#utility.yul\":13922:13925   */\n      dup2\n        /* \"#utility.yul\":13915:13925   */\n      swap1\n      pop\n        /* \"#utility.yul\":13496:13931   */\n      swap4\n      swap3\n      pop\n      pop\n      pop\n      jump\t// out\n        /* \"#utility.yul\":13937:14114   */\n    tag_337:\n        /* \"#utility.yul\":14077:14106   */\n      0x596f7520646f6e2774206861766520656e6f7567682066756e64730000000000\n        /* \"#utility.yul\":14073:14074   */\n      0x00\n        /* \"#utility.yul\":14065:14071   */\n      dup3\n        /* \"#utility.yul\":14061:14075   */\n      add\n        /* \"#utility.yul\":14054:14107   */\n      mstore\n        /* \"#utility.yul\":13937:14114   */\n      pop\n      jump\t// out\n        /* \"#utility.yul\":14120:14486   */\n    tag_338:\n        /* \"#utility.yul\":14262:14265   */\n      0x00\n        /* \"#utility.yul\":14283:14350   */\n      tag_518\n        /* \"#utility.yul\":14347:14349   */\n      0x1b\n        /* \"#utility.yul\":14342:14345   */\n      dup4\n        /* \"#utility.yul\":14283:14350   */\n      tag_308\n      jump\t// in\n    tag_518:\n        /* \"#utility.yul\":14276:14350   */\n      swap2\n      pop\n        /* \"#utility.yul\":14359:14452   */\n      tag_519\n        /* \"#utility.yul\":14448:14451   */\n      dup3\n        /* \"#utility.yul\":14359:14452   */\n      tag_337\n      jump\t// in\n    tag_519:\n        /* \"#utility.yul\":14477:14479   */\n      0x20\n        /* \"#utility.yul\":14472:14475   */\n      dup3\n        /* \"#utility.yul\":14468:14480   */\n      add\n        /* \"#utility.yul\":14461:14480   */\n      swap1\n      pop\n        /* \"#utility.yul\":14120:14486   */\n      swap2\n      swap1\n      pop\n      jump\t// out\n        /* \"#utility.yul\":14492:14911   */\n    tag_164:\n        /* \"#utility.yul\":14658:14662   */\n      0x00\n        /* \"#utility.yul\":14696:14698   */\n      0x20\n        /* \"#utility.yul\":14685:14694   */\n      dup3\n        /* \"#utility.yul\":14681:14699   */\n      add\n        /* \"#utility.yul\":14673:14699   */\n      swap1\n      pop\n        /* \"#utility.yul\":14745:14754   */\n      dup2\n        /* \"#utility.yul\":14739:14743   */\n      dup2\n        /* \"#utility.yul\":14735:14755   */\n      sub\n        /* \"#utility.yul\":14731:14732   */\n      0x00\n        /* \"#utility.yul\":14720:14729   */\n      dup4\n        /* \"#utility.yul\":14716:14733   */\n      add\n        /* \"#utility.yul\":14709:14756   */\n      mstore\n        /* \"#utility.yul\":14773:14904   */\n      tag_521\n        /* \"#utility.yul\":14899:14903   */\n      dup2\n        /* \"#utility.yul\":14773:14904   */\n      tag_338\n      jump\t// in\n    tag_521:\n        /* \"#utility.yul\":14765:14904   */\n      swap1\n      pop\n        /* \"#utility.yul\":14492:14911   */\n      swap2\n      swap1\n      pop\n      jump\t// out\n        /* \"#utility.yul\":14917:15097   */\n    tag_339:\n        /* \"#utility.yul\":14965:15042   */\n      0x4e487b7100000000000000000000000000000000000000000000000000000000\n        /* \"#utility.yul\":14962:14963   */\n      0x00\n        /* \"#utility.yul\":14955:15043   */\n      mstore\n        /* \"#utility.yul\":15062:15066   */\n      0x11\n        /* \"#utility.yul\":15059:15060   */\n      0x04\n        /* \"#utility.yul\":15052:15067   */\n      mstore\n        /* \"#utility.yul\":15086:15090   */\n      0x24\n        /* \"#utility.yul\":15083:15084   */\n      0x00\n        /* \"#utility.yul\":15076:15091   */\n      revert\n        /* \"#utility.yul\":15103:15294   */\n    tag_168:\n        /* \"#utility.yul\":15143:15146   */\n      0x00\n        /* \"#utility.yul\":15162:15182   */\n      tag_524\n        /* \"#utility.yul\":15180:15181   */\n      dup3\n        /* \"#utility.yul\":15162:15182   */\n      tag_312\n      jump\t// in\n    tag_524:\n        /* \"#utility.yul\":15157:15182   */\n      swap2\n      pop\n        /* \"#utility.yul\":15196:15216   */\n      tag_525\n        /* \"#utility.yul\":15214:15215   */\n      dup4\n        /* \"#utility.yul\":15196:15216   */\n      tag_312\n      jump\t// in\n    tag_525:\n        /* \"#utility.yul\":15191:15216   */\n      swap3\n      pop\n        /* \"#utility.yul\":15239:15240   */\n      dup3\n        /* \"#utility.yul\":15236:15237   */\n      dup3\n        /* \"#utility.yul\":15232:15241   */\n      add\n        /* \"#utility.yul\":15225:15241   */\n      swap1\n      pop\n        /* \"#utility.yul\":15260:15263   */\n      dup1\n        /* \"#utility.yul\":15257:15258   */\n      dup3\n        /* \"#utility.yul\":15254:15264   */\n      gt\n        /* \"#utility.yul\":15251:15287   */\n      iszero\n      tag_526\n      jumpi\n        /* \"#utility.yul\":15267:15285   */\n      tag_527\n      tag_339\n      jump\t// in\n    tag_527:\n        /* \"#utility.yul\":15251:15287   */\n    tag_526:\n        /* \"#utility.yul\":15103:15294   */\n      swap3\n      swap2\n      pop\n      pop\n      jump\t// out\n        /* \"#utility.yul\":15300:15398   */\n    tag_340:\n        /* \"#utility.yul\":15351:15357   */\n      0x00\n        /* \"#utility.yul\":15385:15390   */\n      dup2\n        /* \"#utility.yul\":15379:15391   */\n      mload\n        /* \"#utility.yul\":15369:15391   */\n      swap1\n      pop\n        /* \"#utility.yul\":15300:15398   */\n      swap2\n      swap1\n      pop\n      jump\t// out\n        /* \"#utility.yul\":15404:15572   */\n    tag_341:\n        /* \"#utility.yul\":15487:15498   */\n      0x00\n        /* \"#utility.yul\":15521:15527   */\n      dup3\n        /* \"#utility.yul\":15516:15519   */\n      dup3\n        /* \"#utility.yul\":15509:15528   */\n      mstore\n        /* \"#utility.yul\":15561:15565   */\n      0x20\n        /* \"#utility.yul\":15556:15559   */\n      dup3\n        /* \"#utility.yul\":15552:15566   */\n      add\n        /* \"#utility.yul\":15537:15566   */\n      swap1\n      pop\n        /* \"#utility.yul\":15404:15572   */\n      swap3\n      swap2\n      pop\n      pop\n      jump\t// out\n        /* \"#utility.yul\":15578:15951   */\n    tag_342:\n        /* \"#utility.yul\":15664:15667   */\n      0x00\n        /* \"#utility.yul\":15692:15730   */\n      tag_531\n        /* \"#utility.yul\":15724:15729   */\n      dup3\n        /* \"#utility.yul\":15692:15730   */\n      tag_340\n      jump\t// in\n    tag_531:\n        /* \"#utility.yul\":15746:15816   */\n      tag_532\n        /* \"#utility.yul\":15809:15815   */\n      dup2\n        /* \"#utility.yul\":15804:15807   */\n      dup6\n        /* \"#utility.yul\":15746:15816   */\n      tag_341\n      jump\t// in\n    tag_532:\n        /* \"#utility.yul\":15739:15816   */\n      swap4\n      pop\n        /* \"#utility.yul\":15825:15890   */\n      tag_533\n        /* \"#utility.yul\":15883:15889   */\n      dup2\n        /* \"#utility.yul\":15878:15881   */\n      dup6\n        /* \"#utility.yul\":15871:15875   */\n      0x20\n        /* \"#utility.yul\":15864:15869   */\n      dup7\n        /* \"#utility.yul\":15860:15876   */\n      add\n        /* \"#utility.yul\":15825:15890   */\n      tag_309\n      jump\t// in\n    tag_533:\n        /* \"#utility.yul\":15915:15944   */\n      tag_534\n        /* \"#utility.yul\":15937:15943   */\n      dup2\n        /* \"#utility.yul\":15915:15944   */\n      tag_310\n      jump\t// in\n    tag_534:\n        /* \"#utility.yul\":15910:15913   */\n      dup5\n        /* \"#utility.yul\":15906:15945   */\n      add\n        /* \"#utility.yul\":15899:15945   */\n      swap2\n      pop\n        /* \"#utility.yul\":15668:15951   */\n      pop\n        /* \"#utility.yul\":15578:15951   */\n      swap3\n      swap2\n      pop\n      pop\n      jump\t// out\n        /* \"#utility.yul\":15957:16597   */\n    tag_204:\n        /* \"#utility.yul\":16152:16156   */\n      0x00\n        /* \"#utility.yul\":16190:16193   */\n      0x80\n        /* \"#utility.yul\":16179:16188   */\n      dup3\n        /* \"#utility.yul\":16175:16194   */\n      add\n        /* \"#utility.yul\":16167:16194   */\n      swap1\n      pop\n        /* \"#utility.yul\":16204:16275   */\n      tag_536\n        /* \"#utility.yul\":16272:16273   */\n      0x00\n        /* \"#utility.yul\":16261:16270   */\n      dup4\n        /* \"#utility.yul\":16257:16274   */\n      add\n        /* \"#utility.yul\":16248:16254   */\n      dup8\n        /* \"#utility.yul\":16204:16275   */\n      tag_317\n      jump\t// in\n    tag_536:\n        /* \"#utility.yul\":16285:16357   */\n      tag_537\n        /* \"#utility.yul\":16353:16355   */\n      0x20\n        /* \"#utility.yul\":16342:16351   */\n      dup4\n        /* \"#utility.yul\":16338:16356   */\n      add\n        /* \"#utility.yul\":16329:16335   */\n      dup7\n        /* \"#utility.yul\":16285:16357   */\n      tag_317\n      jump\t// in\n    tag_537:\n        /* \"#utility.yul\":16367:16439   */\n      tag_538\n        /* \"#utility.yul\":16435:16437   */\n      0x40\n        /* \"#utility.yul\":16424:16433   */\n      dup4\n        /* \"#utility.yul\":16420:16438   */\n      add\n        /* \"#utility.yul\":16411:16417   */\n      dup6\n        /* \"#utility.yul\":16367:16439   */\n      tag_320\n      jump\t// in\n    tag_538:\n        /* \"#utility.yul\":16486:16495   */\n      dup2\n        /* \"#utility.yul\":16480:16484   */\n      dup2\n        /* \"#utility.yul\":16476:16496   */\n      sub\n        /* \"#utility.yul\":16471:16473   */\n      0x60\n        /* \"#utility.yul\":16460:16469   */\n      dup4\n        /* \"#utility.yul\":16456:16474   */\n      add\n        /* \"#utility.yul\":16449:16497   */\n      mstore\n        /* \"#utility.yul\":16514:16590   */\n      tag_539\n        /* \"#utility.yul\":16585:16589   */\n      dup2\n        /* \"#utility.yul\":16576:16582   */\n      dup5\n        /* \"#utility.yul\":16514:16590   */\n      tag_342\n      jump\t// in\n    tag_539:\n        /* \"#utility.yul\":16506:16590   */\n      swap1\n      pop\n        /* \"#utility.yul\":15957:16597   */\n      swap6\n      swap5\n      pop\n      pop\n      pop\n      pop\n      pop\n      jump\t// out\n        /* \"#utility.yul\":16603:16744   */\n    tag_343:\n        /* \"#utility.yul\":16659:16664   */\n      0x00\n        /* \"#utility.yul\":16690:16696   */\n      dup2\n        /* \"#utility.yul\":16684:16697   */\n      mload\n        /* \"#utility.yul\":16675:16697   */\n      swap1\n      pop\n        /* \"#utility.yul\":16706:16738   */\n      tag_541\n        /* \"#utility.yul\":16732:16737   */\n      dup2\n        /* \"#utility.yul\":16706:16738   */\n      tag_303\n      jump\t// in\n    tag_541:\n        /* \"#utility.yul\":16603:16744   */\n      swap3\n      swap2\n      pop\n      pop\n      jump\t// out\n        /* \"#utility.yul\":16750:17099   */\n    tag_207:\n        /* \"#utility.yul\":16819:16825   */\n      0x00\n        /* \"#utility.yul\":16868:16870   */\n      0x20\n        /* \"#utility.yul\":16856:16865   */\n      dup3\n        /* \"#utility.yul\":16847:16854   */\n      dup5\n        /* \"#utility.yul\":16843:16866   */\n      sub\n        /* \"#utility.yul\":16839:16871   */\n      slt\n        /* \"#utility.yul\":16836:16955   */\n      iszero\n      tag_543\n      jumpi\n        /* \"#utility.yul\":16874:16953   */\n      tag_544\n      tag_300\n      jump\t// in\n    tag_544:\n        /* \"#utility.yul\":16836:16955   */\n    tag_543:\n        /* \"#utility.yul\":16994:16995   */\n      0x00\n        /* \"#utility.yul\":17019:17082   */\n      tag_545\n        /* \"#utility.yul\":17074:17081   */\n      dup5\n        /* \"#utility.yul\":17065:17071   */\n      dup3\n        /* \"#utility.yul\":17054:17063   */\n      dup6\n        /* \"#utility.yul\":17050:17072   */\n      add\n        /* \"#utility.yul\":17019:17082   */\n      tag_343\n      jump\t// in\n    tag_545:\n        /* \"#utility.yul\":17009:17082   */\n      swap2\n      pop\n        /* \"#utility.yul\":16965:17092   */\n      pop\n        /* \"#utility.yul\":16750:17099   */\n      swap3\n      swap2\n      pop\n      pop\n      jump\t// out\n        /* \"#utility.yul\":17105:17246   */\n    tag_344:\n        /* \"#utility.yul\":17154:17158   */\n      0x00\n        /* \"#utility.yul\":17177:17180   */\n      dup2\n        /* \"#utility.yul\":17169:17180   */\n      swap1\n      pop\n        /* \"#utility.yul\":17200:17203   */\n      dup2\n        /* \"#utility.yul\":17197:17198   */\n      0x00\n        /* \"#utility.yul\":17190:17204   */\n      mstore\n        /* \"#utility.yul\":17234:17238   */\n      0x20\n        /* \"#utility.yul\":17231:17232   */\n      0x00\n        /* \"#utility.yul\":17221:17239   */\n      keccak256\n        /* \"#utility.yul\":17213:17239   */\n      swap1\n      pop\n        /* \"#utility.yul\":17105:17246   */\n      swap2\n      swap1\n      pop\n      jump\t// out\n        /* \"#utility.yul\":17252:17345   */\n    tag_345:\n        /* \"#utility.yul\":17289:17295   */\n      0x00\n        /* \"#utility.yul\":17336:17338   */\n      0x20\n        /* \"#utility.yul\":17331:17333   */\n      0x1f\n        /* \"#utility.yul\":17324:17329   */\n      dup4\n        /* \"#utility.yul\":17320:17334   */\n      add\n        /* \"#utility.yul\":17316:17339   */\n      div\n        /* \"#utility.yul\":17306:17339   */\n      swap1\n      pop\n        /* \"#utility.yul\":17252:17345   */\n      swap2\n      swap1\n      pop\n      jump\t// out\n        /* \"#utility.yul\":17351:17458   */\n    tag_346:\n        /* \"#utility.yul\":17395:17403   */\n      0x00\n        /* \"#utility.yul\":17445:17450   */\n      dup3\n        /* \"#utility.yul\":17439:17443   */\n      dup3\n        /* \"#utility.yul\":17435:17451   */\n      shl\n        /* \"#utility.yul\":17414:17451   */\n      swap1\n      pop\n        /* \"#utility.yul\":17351:17458   */\n      swap3\n      swap2\n      pop\n      pop\n      jump\t// out\n        /* \"#utility.yul\":17464:17857   */\n    tag_347:\n        /* \"#utility.yul\":17533:17539   */\n      0x00\n        /* \"#utility.yul\":17583:17584   */\n      0x08\n        /* \"#utility.yul\":17571:17581   */\n      dup4\n        /* \"#utility.yul\":17567:17585   */\n      mul\n        /* \"#utility.yul\":17606:17703   */\n      tag_550\n        /* \"#utility.yul\":17636:17702   */\n      0xffffffffffffffffffffffffffffffffffffffffffffffffffffffffffffffff\n        /* \"#utility.yul\":17625:17634   */\n      dup3\n        /* \"#utility.yul\":17606:17703   */\n      tag_346\n      jump\t// in\n    tag_550:\n        /* \"#utility.yul\":17724:17763   */\n      tag_551\n        /* \"#utility.yul\":17754:17762   */\n      dup7\n        /* \"#utility.yul\":17743:17752   */\n      dup4\n        /* \"#utility.yul\":17724:17763   */\n      tag_346\n      jump\t// in\n    tag_551:\n        /* \"#utility.yul\":17712:17763   */\n      swap6\n      pop\n        /* \"#utility.yul\":17796:17800   */\n      dup1\n        /* \"#utility.yul\":17792:17801   */\n      not\n        /* \"#utility.yul\":17785:17790   */\n      dup5\n        /* \"#utility.yul\":17781:17802   */\n      and\n        /* \"#utility.yul\":17772:17802   */\n      swap4\n      pop\n        /* \"#utility.yul\":17845:17849   */\n      dup1\n        /* \"#utility.yul\":17835:17843   */\n      dup7\n        /* \"#utility.yul\":17831:17850   */\n      and\n        /* \"#utility.yul\":17824:17829   */\n      dup5\n        /* \"#utility.yul\":17821:17851   */\n      or\n        /* \"#utility.yul\":17811:17851   */\n      swap3\n      pop\n        /* \"#utility.yul\":17540:17857   */\n      pop\n      pop\n        /* \"#utility.yul\":17464:17857   */\n      swap4\n      swap3\n      pop\n      pop\n      pop\n      jump\t// out\n        /* \"#utility.yul\":17863:17923   */\n    tag_348:\n        /* \"#utility.yul\":17891:17894   */\n      0x00\n        /* \"#utility.yul\":17912:17917   */\n      dup2\n        /* \"#utility.yul\":17905:17917   */\n      swap1\n      pop\n        /* \"#utility.yul\":17863:17923   */\n      swap2\n      swap1\n      pop\n      jump\t// out\n        /* \"#utility.yul\":17929:18071   */\n    tag_349:\n        /* \"#utility.yul\":17979:17988   */\n      0x00\n        /* \"#utility.yul\":18012:18065   */\n      tag_554\n        /* \"#utility.yul\":18030:18064   */\n      tag_555\n        /* \"#utility.yul\":18039:18063   */\n      tag_556\n        /* \"#utility.yul\":18057:18062   */\n      dup5\n        /* \"#utility.yul\":18039:18063   */\n      tag_312\n      jump\t// in\n    tag_556:\n        /* \"#utility.yul\":18030:18064   */\n      tag_348\n      jump\t// in\n    tag_555:\n        /* \"#utility.yul\":18012:18065   */\n      tag_312\n      jump\t// in\n    tag_554:\n        /* \"#utility.yul\":17999:18065   */\n      swap1\n      pop\n        /* \"#utility.yul\":17929:18071   */\n      swap2\n      swap1\n      pop\n      jump\t// out\n        /* \"#utility.yul\":18077:18152   */\n    tag_350:\n        /* \"#utility.yul\":18120:18123   */\n      0x00\n        /* \"#utility.yul\":18141:18146   */\n      dup2\n        /* \"#utility.yul\":18134:18146   */\n      swap1\n      pop\n        /* \"#utility.yul\":18077:18152   */\n      swap2\n      swap1\n      pop\n      jump\t// out\n        /* \"#utility.yul\":18158:18427   */\n    tag_351:\n        /* \"#utility.yul\":18268:18307   */\n      tag_559\n        /* \"#utility.yul\":18299:18306   */\n      dup4\n        /* \"#utility.yul\":18268:18307   */\n      tag_349\n      jump\t// in\n    tag_559:\n        /* \"#utility.yul\":18329:18420   */\n      tag_560\n        /* \"#utility.yul\":18378:18419   */\n      tag_561\n        /* \"#utility.yul\":18402:18418   */\n      dup3\n        /* \"#utility.yul\":18378:18419   */\n      tag_350\n      jump\t// in\n    tag_561:\n        /* \"#utility.yul\":18370:18376   */\n      dup5\n        /* \"#utility.yul\":18363:18367   */\n      dup5\n        /* \"#utility.yul\":18357:18368   */\n      sload\n        /* \"#utility.yul\":18329:18420   */\n      tag_347\n      jump\t// in\n    tag_560:\n        /* \"#utility.yul\":18323:18327   */\n      dup3\n        /* \"#utility.yul\":18316:18421   */\n      sstore\n        /* \"#utility.yul\":18234:18427   */\n      pop\n        /* \"#utility.yul\":18158:18427   */\n      pop\n      pop\n      pop\n      jump\t// out\n        /* \"#utility.yul\":18433:18506   */\n    tag_352:\n        /* \"#utility.yul\":18478:18481   */\n      0x00\n        /* \"#utility.yul\":18433:18506   */\n      swap1\n      jump\t// out\n        /* \"#utility.yul\":18512:18701   */\n    tag_353:\n        /* \"#utility.yul\":18589:18621   */\n      tag_564\n      tag_352\n      jump\t// in\n    tag_564:\n        /* \"#utility.yul\":18630:18695   */\n      tag_565\n        /* \"#utility.yul\":18688:18694   */\n      dup2\n        /* \"#utility.yul\":18680:18686   */\n      dup5\n        /* \"#utility.yul\":18674:18678   */\n      dup5\n        /* \"#utility.yul\":18630:18695   */\n      tag_351\n      jump\t// in\n    tag_565:\n        /* \"#utility.yul\":18565:18701   */\n      pop\n        /* \"#utility.yul\":18512:18701   */\n      pop\n      pop\n      jump\t// out\n        /* \"#utility.yul\":18707:18893   */\n    tag_354:\n        /* \"#utility.yul\":18767:18887   */\n    tag_567:\n        /* \"#utility.yul\":18784:18787   */\n      dup2\n        /* \"#utility.yul\":18777:18782   */\n      dup2\n        /* \"#utility.yul\":18774:18788   */\n      lt\n        /* \"#utility.yul\":18767:18887   */\n      iszero\n      tag_569\n      jumpi\n        /* \"#utility.yul\":18838:18877   */\n      tag_570\n        /* \"#utility.yul\":18875:18876   */\n      0x00\n        /* \"#utility.yul\":18868:18873   */\n      dup3\n        /* \"#utility.yul\":18838:18877   */\n      tag_353\n      jump\t// in\n    tag_570:\n        /* \"#utility.yul\":18811:18812   */\n      0x01\n        /* \"#utility.yul\":18804:18809   */\n      dup2\n        /* \"#utility.yul\":18800:18813   */\n      add\n        /* \"#utility.yul\":18791:18813   */\n      swap1\n      pop\n        /* \"#utility.yul\":18767:18887   */\n      jump(tag_567)\n    tag_569:\n        /* \"#utility.yul\":18707:18893   */\n      pop\n      pop\n      jump\t// out\n        /* \"#utility.yul\":18899:19442   */\n    tag_355:\n        /* \"#utility.yul\":19000:19002   */\n      0x1f\n        /* \"#utility.yul\":18995:18998   */\n      dup3\n        /* \"#utility.yul\":18992:19003   */\n      gt\n        /* \"#utility.yul\":18989:19435   */\n      iszero\n      tag_572\n      jumpi\n        /* \"#utility.yul\":19034:19072   */\n      tag_573\n        /* \"#utility.yul\":19066:19071   */\n      dup2\n        /* \"#utility.yul\":19034:19072   */\n      tag_344\n      jump\t// in\n    tag_573:\n        /* \"#utility.yul\":19118:19147   */\n      tag_574\n        /* \"#utility.yul\":19136:19146   */\n      dup5\n        /* \"#utility.yul\":19118:19147   */\n      tag_345\n      jump\t// in\n    tag_574:\n        /* \"#utility.yul\":19108:19116   */\n      dup2\n        /* \"#utility.yul\":19104:19148   */\n      add\n        /* \"#utility.yul\":19301:19303   */\n      0x20\n        /* \"#utility.yul\":19289:19299   */\n      dup6\n        /* \"#utility.yul\":19286:19304   */\n      lt\n        /* \"#utility.yul\":19283:19332   */\n      iszero\n      tag_575\n      jumpi\n        /* \"#utility.yul\":19322:19330   */\n      dup2\n        /* \"#utility.yul\":19307:19330   */\n      swap1\n      pop\n        /* \"#utility.yul\":19283:19332   */\n    tag_575:\n        /* \"#utility.yul\":19345:19425   */\n      tag_576\n        /* \"#utility.yul\":19401:19423   */\n      tag_577\n        /* \"#utility.yul\":19419:19422   */\n      dup6\n        /* \"#utility.yul\":19401:19423   */\n      tag_345\n      jump\t// in\n    tag_577:\n        /* \"#utility.yul\":19391:19399   */\n      dup4\n        /* \"#utility.yul\":19387:19424   */\n      add\n        /* \"#utility.yul\":19374:19385   */\n      dup3\n        /* \"#utility.yul\":19345:19425   */\n      tag_354\n      jump\t// in\n    tag_576:\n        /* \"#utility.yul\":19004:19435   */\n      pop\n      pop\n        /* \"#utility.yul\":18989:19435   */\n    tag_572:\n        /* \"#utility.yul\":18899:19442   */\n      pop\n      pop\n      pop\n      jump\t// out\n        /* \"#utility.yul\":19448:19565   */\n    tag_356:\n        /* \"#utility.yul\":19502:19510   */\n      0x00\n        /* \"#utility.yul\":19552:19557   */\n      dup3\n        /* \"#utility.yul\":19546:19550   */\n      dup3\n        /* \"#utility.yul\":19542:19558   */\n      shr\n        /* \"#utility.yul\":19521:19558   */\n      swap1\n      pop\n        /* \"#utility.yul\":19448:19565   */\n      swap3\n      swap2\n      pop\n      pop\n      jump\t// out\n        /* \"#utility.yul\":19571:19740   */\n    tag_357:\n        /* \"#utility.yul\":19615:19621   */\n      0x00\n        /* \"#utility.yul\":19648:19699   */\n      tag_580\n        /* \"#utility.yul\":19696:19697   */\n      0x00\n        /* \"#utility.yul\":19692:19698   */\n      not\n        /* \"#utility.yul\":19684:19689   */\n      dup5\n        /* \"#utility.yul\":19681:19682   */\n      0x08\n        /* \"#utility.yul\":19677:19690   */\n      mul\n        /* \"#utility.yul\":19648:19699   */\n      tag_356\n      jump\t// in\n    tag_580:\n        /* \"#utility.yul\":19644:19700   */\n      not\n        /* \"#utility.yul\":19729:19733   */\n      dup1\n        /* \"#utility.yul\":19723:19727   */\n      dup4\n        /* \"#utility.yul\":19719:19734   */\n      and\n        /* \"#utility.yul\":19709:19734   */\n      swap2\n      pop\n        /* \"#utility.yul\":19622:19740   */\n      pop\n        /* \"#utility.yul\":19571:19740   */\n      swap3\n      swap2\n      pop\n      pop\n      jump\t// out\n        /* \"#utility.yul\":19745:20040   */\n    tag_358:\n        /* \"#utility.yul\":19821:19825   */\n      0x00\n        /* \"#utility.yul\":19967:19996   */\n      tag_582\n        /* \"#utility.yul\":19992:19995   */\n      dup4\n        /* \"#utility.yul\":19986:19990   */\n      dup4\n        /* \"#utility.yul\":19967:19996   */\n      tag_357\n      jump\t// in\n    tag_582:\n        /* \"#utility.yul\":19959:19996   */\n      swap2\n      pop\n        /* \"#utility.yul\":20029:20032   */\n      dup3\n        /* \"#utility.yul\":20026:20027   */\n      0x02\n        /* \"#utility.yul\":20022:20033   */\n      mul\n        /* \"#utility.yul\":20016:20020   */\n      dup3\n        /* \"#utility.yul\":20013:20034   */\n      or\n        /* \"#utility.yul\":20005:20034   */\n      swap1\n      pop\n        /* \"#utility.yul\":19745:20040   */\n      swap3\n      swap2\n      pop\n      pop\n      jump\t// out\n        /* \"#utility.yul\":20045:21440   */\n    tag_237:\n        /* \"#utility.yul\":20162:20199   */\n      tag_584\n        /* \"#utility.yul\":20195:20198   */\n      dup3\n        /* \"#utility.yul\":20162:20199   */\n      tag_307\n      jump\t// in\n    tag_584:\n        /* \"#utility.yul\":20264:20282   */\n      0xffffffffffffffff\n        /* \"#utility.yul\":20256:20262   */\n      dup2\n        /* \"#utility.yul\":20253:20283   */\n      gt\n        /* \"#utility.yul\":20250:20306   */\n      iszero\n      tag_585\n      jumpi\n        /* \"#utility.yul\":20286:20304   */\n      tag_586\n      tag_265\n      jump\t// in\n    tag_586:\n        /* \"#utility.yul\":20250:20306   */\n    tag_585:\n        /* \"#utility.yul\":20330:20368   */\n      tag_587\n        /* \"#utility.yul\":20362:20366   */\n      dup3\n        /* \"#utility.yul\":20356:20367   */\n      sload\n        /* \"#utility.yul\":20330:20368   */\n      tag_100\n      jump\t// in\n    tag_587:\n        /* \"#utility.yul\":20415:20482   */\n      tag_588\n        /* \"#utility.yul\":20475:20481   */\n      dup3\n        /* \"#utility.yul\":20467:20473   */\n      dup3\n        /* \"#utility.yul\":20461:20465   */\n      dup6\n        /* \"#utility.yul\":20415:20482   */\n      tag_355\n      jump\t// in\n    tag_588:\n        /* \"#utility.yul\":20509:20510   */\n      0x00\n        /* \"#utility.yul\":20533:20537   */\n      0x20\n        /* \"#utility.yul\":20520:20537   */\n      swap1\n      pop\n        /* \"#utility.yul\":20565:20567   */\n      0x1f\n        /* \"#utility.yul\":20557:20563   */\n      dup4\n        /* \"#utility.yul\":20554:20568   */\n      gt\n        /* \"#utility.yul\":20582:20583   */\n      0x01\n        /* \"#utility.yul\":20577:21195   */\n      dup2\n      eq\n      tag_590\n      jumpi\n        /* \"#utility.yul\":21239:21240   */\n      0x00\n        /* \"#utility.yul\":21256:21262   */\n      dup5\n        /* \"#utility.yul\":21253:21330   */\n      iszero\n      tag_591\n      jumpi\n        /* \"#utility.yul\":21305:21314   */\n      dup3\n        /* \"#utility.yul\":21300:21303   */\n      dup8\n        /* \"#utility.yul\":21296:21315   */\n      add\n        /* \"#utility.yul\":21290:21316   */\n      mload\n        /* \"#utility.yul\":21281:21316   */\n      swap1\n      pop\n        /* \"#utility.yul\":21253:21330   */\n    tag_591:\n        /* \"#utility.yul\":21356:21423   */\n      tag_592\n        /* \"#utility.yul\":21416:21422   */\n      dup6\n        /* \"#utility.yul\":21409:21414   */\n      dup3\n        /* \"#utility.yul\":21356:21423   */\n      tag_358\n      jump\t// in\n    tag_592:\n        /* \"#utility.yul\":21350:21354   */\n      dup7\n        /* \"#utility.yul\":21343:21424   */\n      sstore\n        /* \"#utility.yul\":21212:21434   */\n      pop\n        /* \"#utility.yul\":20547:21434   */\n      jump(tag_589)\n        /* \"#utility.yul\":20577:21195   */\n    tag_590:\n        /* \"#utility.yul\":20629:20633   */\n      0x1f\n        /* \"#utility.yul\":20625:20634   */\n      not\n        /* \"#utility.yul\":20617:20623   */\n      dup5\n        /* \"#utility.yul\":20613:20635   */\n      and\n        /* \"#utility.yul\":20663:20700   */\n      tag_593\n        /* \"#utility.yul\":20695:20699   */\n      dup7\n        /* \"#utility.yul\":20663:20700   */\n      tag_344\n      jump\t// in\n    tag_593:\n        /* \"#utility.yul\":20722:20723   */\n      0x00\n        /* \"#utility.yul\":20736:20944   */\n    tag_594:\n        /* \"#utility.yul\":20750:20757   */\n      dup3\n        /* \"#utility.yul\":20747:20748   */\n      dup2\n        /* \"#utility.yul\":20744:20758   */\n      lt\n        /* \"#utility.yul\":20736:20944   */\n      iszero\n      tag_596\n      jumpi\n        /* \"#utility.yul\":20829:20838   */\n      dup5\n        /* \"#utility.yul\":20824:20827   */\n      dup10\n        /* \"#utility.yul\":20820:20839   */\n      add\n        /* \"#utility.yul\":20814:20840   */\n      mload\n        /* \"#utility.yul\":20806:20812   */\n      dup3\n        /* \"#utility.yul\":20799:20841   */\n      sstore\n        /* \"#utility.yul\":20880:20881   */\n      0x01\n        /* \"#utility.yul\":20872:20878   */\n      dup3\n        /* \"#utility.yul\":20868:20882   */\n      add\n        /* \"#utility.yul\":20858:20882   */\n      swap2\n      pop\n        /* \"#utility.yul\":20927:20929   */\n      0x20\n        /* \"#utility.yul\":20916:20925   */\n      dup6\n        /* \"#utility.yul\":20912:20930   */\n      add\n        /* \"#utility.yul\":20899:20930   */\n      swap5\n      pop\n        /* \"#utility.yul\":20773:20777   */\n      0x20\n        /* \"#utility.yul\":20770:20771   */\n      dup2\n        /* \"#utility.yul\":20766:20778   */\n      add\n        /* \"#utility.yul\":20761:20778   */\n      swap1\n      pop\n        /* \"#utility.yul\":20736:20944   */\n      jump(tag_594)\n    tag_596:\n        /* \"#utility.yul\":20972:20978   */\n      dup7\n        /* \"#utility.yul\":20963:20970   */\n      dup4\n        /* \"#utility.yul\":20960:20979   */\n      lt\n        /* \"#utility.yul\":20957:21136   */\n      iszero\n      tag_597\n      jumpi\n        /* \"#utility.yul\":21030:21039   */\n      dup5\n        /* \"#utility.yul\":21025:21028   */\n      dup10\n        /* \"#utility.yul\":21021:21040   */\n      add\n        /* \"#utility.yul\":21015:21041   */\n      mload\n        /* \"#utility.yul\":21073:21121   */\n      tag_598\n        /* \"#utility.yul\":21115:21119   */\n      0x1f\n        /* \"#utility.yul\":21107:21113   */\n      dup10\n        /* \"#utility.yul\":21103:21120   */\n      and\n        /* \"#utility.yul\":21092:21101   */\n      dup3\n        /* \"#utility.yul\":21073:21121   */\n      tag_357\n      jump\t// in\n    tag_598:\n        /* \"#utility.yul\":21065:21071   */\n      dup4\n        /* \"#utility.yul\":21058:21122   */\n      sstore\n        /* \"#utility.yul\":20980:21136   */\n      pop\n        /* \"#utility.yul\":20957:21136   */\n    tag_597:\n        /* \"#utility.yul\":21182:21183   */\n      0x01\n        /* \"#utility.yul\":21178:21179   */\n      0x02\n        /* \"#utility.yul\":21170:21176   */\n      dup9\n        /* \"#utility.yul\":21166:21180   */\n      mul\n        /* \"#utility.yul\":21162:21184   */\n      add\n        /* \"#utility.yul\":21156:21160   */\n      dup9\n        /* \"#utility.yul\":21149:21185   */\n      sstore\n        /* \"#utility.yul\":20584:21195   */\n      pop\n      pop\n      pop\n        /* \"#utility.yul\":20547:21434   */\n    tag_589:\n      pop\n        /* \"#utility.yul\":20137:21440   */\n      pop\n      pop\n      pop\n        /* \"#utility.yul\":20045:21440   */\n      pop\n      pop\n      jump\t// out\n        /* \"#utility.yul\":21446:21778   */\n    tag_259:\n        /* \"#utility.yul\":21567:21571   */\n      0x00\n        /* \"#utility.yul\":21605:21607   */\n      0x40\n        /* \"#utility.yul\":21594:21603   */\n      dup3\n        /* \"#utility.yul\":21590:21608   */\n      add\n        /* \"#utility.yul\":21582:21608   */\n      swap1\n      pop\n        /* \"#utility.yul\":21618:21689   */\n      tag_600\n        /* \"#utility.yul\":21686:21687   */\n      0x00\n        /* \"#utility.yul\":21675:21684   */\n      dup4\n        /* \"#utility.yul\":21671:21688   */\n      add\n        /* \"#utility.yul\":21662:21668   */\n      dup6\n        /* \"#utility.yul\":21618:21689   */\n      tag_317\n      jump\t// in\n    tag_600:\n        /* \"#utility.yul\":21699:21771   */\n      tag_601\n        /* \"#utility.yul\":21767:21769   */\n      0x20\n        /* \"#utility.yul\":21756:21765   */\n      dup4\n        /* \"#utility.yul\":21752:21770   */\n      add\n        /* \"#utility.yul\":21743:21749   */\n      dup5\n        /* \"#utility.yul\":21699:21771   */\n      tag_320\n      jump\t// in\n    tag_601:\n        /* \"#utility.yul\":21446:21778   */\n      swap4\n      swap3\n      pop\n      pop\n      pop\n      jump\t// out\n        /* \"#utility.yul\":21784:21964   */\n    tag_271:\n        /* \"#utility.yul\":21832:21909   */\n      0x4e487b7100000000000000000000000000000000000000000000000000000000\n        /* \"#utility.yul\":21829:21830   */\n      0x00\n        /* \"#utility.yul\":21822:21910   */\n      mstore\n        /* \"#utility.yul\":21929:21933   */\n      0x12\n        /* \"#utility.yul\":21926:21927   */\n      0x04\n        /* \"#utility.yul\":21919:21934   */\n      mstore\n        /* \"#utility.yul\":21953:21957   */\n      0x24\n        /* \"#utility.yul\":21950:21951   */\n      0x00\n        /* \"#utility.yul\":21943:21958   */\n      revert\n\n    auxdata: 0xa2646970667358221220b50c300b17a68342c1512d0335b3150b11cbd4ddf7ad6aeb3e1e8b0f9daad26464736f6c63430008190033\n}\n",
				"bytecode": {
					"linkReferences": {},
					"object": "608060405234801561000f575f80fd5b506040516128cc3803806128cc83398181016040528101906100319190610142565b6040518060400160405280600481526020017f5a455553000000000000000000000000000000000000000000000000000000008152506040518060400160405280600181526020017f5a00000000000000000000000000000000000000000000000000000000000000815250815f90816100ab919061039e565b5080600190816100bb919061039e565b5050503360085f6101000a81548173ffffffffffffffffffffffffffffffffffffffff021916908373ffffffffffffffffffffffffffffffffffffffff160217905550806009819055505061046d565b5f80fd5b5f819050919050565b6101218161010f565b811461012b575f80fd5b50565b5f8151905061013c81610118565b92915050565b5f602082840312156101575761015661010b565b5b5f6101648482850161012e565b91505092915050565b5f81519050919050565b7f4e487b71000000000000000000000000000000000000000000000000000000005f52604160045260245ffd5b7f4e487b71000000000000000000000000000000000000000000000000000000005f52602260045260245ffd5b5f60028204905060018216806101e857607f821691505b6020821081036101fb576101fa6101a4565b5b50919050565b5f819050815f5260205f209050919050565b5f6020601f8301049050919050565b5f82821b905092915050565b5f6008830261025d7fffffffffffffffffffffffffffffffffffffffffffffffffffffffffffffffff82610222565b6102678683610222565b95508019841693508086168417925050509392505050565b5f819050919050565b5f6102a261029d6102988461010f565b61027f565b61010f565b9050919050565b5f819050919050565b6102bb83610288565b6102cf6102c7826102a9565b84845461022e565b825550505050565b5f90565b6102e36102d7565b6102ee8184846102b2565b505050565b5b81811015610311576103065f826102db565b6001810190506102f4565b5050565b601f8211156103565761032781610201565b61033084610213565b8101602085101561033f578190505b61035361034b85610213565b8301826102f3565b50505b505050565b5f82821c905092915050565b5f6103765f198460080261035b565b1980831691505092915050565b5f61038e8383610367565b9150826002028217905092915050565b6103a78261016d565b67ffffffffffffffff8111156103c0576103bf610177565b5b6103ca82546101d1565b6103d5828285610315565b5f60209050601f831160018114610406575f84156103f4578287015190505b6103fe8582610383565b865550610465565b601f19841661041486610201565b5f5b8281101561043b57848901518255600182019150602085019450602081019050610416565b868310156104585784890151610454601f891682610367565b8355505b6001600288020188555050505b505050505050565b6124528061047a5f395ff3fe6080604052600436106100dc575f3560e01c806370a082311161007e578063b88d4fde11610058578063b88d4fde146102c4578063c87b56dd146102ec578063e985e9c514610328578063fb37e88314610364576100dc565b806370a082311461023657806395d89b4114610272578063a22cb4651461029c576100dc565b8063095ea7b3116100ba578063095ea7b31461018257806323b872dd146101aa57806342842e0e146101d25780636352211e146101fa576100dc565b806301ffc9a7146100e057806306fdde031461011c578063081812fc14610146575b5f80fd5b3480156100eb575f80fd5b50610106600480360381019061010191906118e4565b610394565b6040516101139190611929565b60405180910390f35b348015610127575f80fd5b506101306103f4565b60405161013d91906119b2565b60405180910390f35b348015610151575f80fd5b5061016c60048036038101906101679190611a05565b610483565b6040516101799190611a6f565b60405180910390f35b34801561018d575f80fd5b506101a860048036038101906101a39190611ab2565b61049e565b005b3480156101b5575f80fd5b506101d060048036038101906101cb9190611af0565b6104b4565b005b3480156101dd575f80fd5b506101f860048036038101906101f39190611af0565b6105b3565b005b348015610205575f80fd5b50610220600480360381019061021b9190611a05565b6105d2565b60405161022d9190611a6f565b60405180910390f35b348015610241575f80fd5b5061025c60048036038101906102579190611b40565b6105e3565b6040516102699190611b7a565b60405180910390f35b34801561027d575f80fd5b50610286610699565b60405161029391906119b2565b60405180910390f35b3480156102a7575f80fd5b506102c260048036038101906102bd9190611bbd565b610729565b005b3480156102cf575f80fd5b506102ea60048036038101906102e59190611d27565b61073f565b005b3480156102f7575f80fd5b50610312600480360381019061030d9190611a05565b61075c565b60405161031f91906119b2565b60405180910390f35b348015610333575f80fd5b5061034e60048036038101906103499190611da7565b610867565b60405161035b9190611929565b60405180910390f35b61037e60048036038101906103799190611e83565b6108f5565b60405161038b9190611b7a565b60405180910390f35b5f634906490660e01b7bffffffffffffffffffffffffffffffffffffffffffffffffffffffff1916827bffffffffffffffffffffffffffffffffffffffffffffffffffffffff191614806103ed57506103ec826109d7565b5b9050919050565b60605f805461040290611ef7565b80601f016020809104026020016040519081016040528092919081815260200182805461042e90611ef7565b80156104795780601f1061045057610100808354040283529160200191610479565b820191905f5260205f20905b81548152906001019060200180831161045c57829003601f168201915b5050505050905090565b5f61048d82610ab8565b5061049782610b3e565b9050919050565b6104b082826104ab610b77565b610b7e565b5050565b5f73ffffffffffffffffffffffffffffffffffffffff168273ffffffffffffffffffffffffffffffffffffffff1603610524575f6040517f64a0ae9200000000000000000000000000000000000000000000000000000000815260040161051b9190611a6f565b60405180910390fd5b5f6105378383610532610b77565b610b90565b90508373ffffffffffffffffffffffffffffffffffffffff168173ffffffffffffffffffffffffffffffffffffffff16146105ad578382826040517f64283d7b0000000000000000000000000000000000000000000000000000000081526004016105a493929190611f27565b60405180910390fd5b50505050565b6105cd83838360405180602001604052805f81525061073f565b505050565b5f6105dc82610ab8565b9050919050565b5f8073ffffffffffffffffffffffffffffffffffffffff168273ffffffffffffffffffffffffffffffffffffffff1603610654575f6040517f89c62b6400000000000000000000000000000000000000000000000000000000815260040161064b9190611a6f565b60405180910390fd5b60035f8373ffffffffffffffffffffffffffffffffffffffff1673ffffffffffffffffffffffffffffffffffffffff1681526020019081526020015f20549050919050565b6060600180546106a890611ef7565b80601f01602080910402602001604051908101604052809291908181526020018280546106d490611ef7565b801561071f5780601f106106f65761010080835404028352916020019161071f565b820191905f5260205f20905b81548152906001019060200180831161070257829003601f168201915b5050505050905090565b61073b610734610b77565b8383610d9b565b5050565b61074a8484846104b4565b61075684848484610f04565b50505050565b606061076782610ab8565b505f60065f8481526020019081526020015f20805461078590611ef7565b80601f01602080910402602001604051908101604052809291908181526020018280546107b190611ef7565b80156107fc5780601f106107d3576101008083540402835291602001916107fc565b820191905f5260205f20905b8154815290600101906020018083116107df57829003601f168201915b505050505090505f61080c6110b6565b90505f815103610820578192505050610862565b5f8251111561085457808260405160200161083c929190611f96565b60405160208183030381529060405292505050610862565b61085d846110cc565b925050505b919050565b5f60055f8473ffffffffffffffffffffffffffffffffffffffff1673ffffffffffffffffffffffffffffffffffffffff1681526020019081526020015f205f8373ffffffffffffffffffffffffffffffffffffffff1673ffffffffffffffffffffffffffffffffffffffff1681526020019081526020015f205f9054906101000a900460ff16905092915050565b5f60095434101561093b576040517f08c379a000000000000000000000000000000000000000000000000000000000815260040161093290612003565b60405180910390fd5b60085f9054906101000a900473ffffffffffffffffffffffffffffffffffffffff1673ffffffffffffffffffffffffffffffffffffffff166108fc3490811502906040515f60405180830381858888f1935050505015801561099f573d5f803e3d5ffd5b5060016007546109af919061204e565b6007819055506109c133600754611132565b6109cd60075483611225565b6007549050919050565b5f7f80ac58cd000000000000000000000000000000000000000000000000000000007bffffffffffffffffffffffffffffffffffffffffffffffffffffffff1916827bffffffffffffffffffffffffffffffffffffffffffffffffffffffff19161480610aa157507f5b5e139f000000000000000000000000000000000000000000000000000000007bffffffffffffffffffffffffffffffffffffffffffffffffffffffff1916827bffffffffffffffffffffffffffffffffffffffffffffffffffffffff1916145b80610ab15750610ab08261127f565b5b9050919050565b5f80610ac3836112e8565b90505f73ffffffffffffffffffffffffffffffffffffffff168173ffffffffffffffffffffffffffffffffffffffff1603610b3557826040517f7e273289000000000000000000000000000000000000000000000000000000008152600401610b2c9190611b7a565b60405180910390fd5b80915050919050565b5f60045f8381526020019081526020015f205f9054906101000a900473ffffffffffffffffffffffffffffffffffffffff169050919050565b5f33905090565b610b8b8383836001611321565b505050565b5f80610b9b846112e8565b90505f73ffffffffffffffffffffffffffffffffffffffff168373ffffffffffffffffffffffffffffffffffffffff1614610bdc57610bdb8184866114e0565b5b5f73ffffffffffffffffffffffffffffffffffffffff168173ffffffffffffffffffffffffffffffffffffffff1614610c6757610c1b5f855f80611321565b600160035f8373ffffffffffffffffffffffffffffffffffffffff1673ffffffffffffffffffffffffffffffffffffffff1681526020019081526020015f205f82825403925050819055505b5f73ffffffffffffffffffffffffffffffffffffffff168573ffffffffffffffffffffffffffffffffffffffff1614610ce657600160035f8773ffffffffffffffffffffffffffffffffffffffff1673ffffffffffffffffffffffffffffffffffffffff1681526020019081526020015f205f82825401925050819055505b8460025f8681526020019081526020015f205f6101000a81548173ffffffffffffffffffffffffffffffffffffffff021916908373ffffffffffffffffffffffffffffffffffffffff160217905550838573ffffffffffffffffffffffffffffffffffffffff168273ffffffffffffffffffffffffffffffffffffffff167fddf252ad1be2c89b69c2b068fc378daa952ba7f163c4a11628f55a4df523b3ef60405160405180910390a4809150509392505050565b5f73ffffffffffffffffffffffffffffffffffffffff168273ffffffffffffffffffffffffffffffffffffffff1603610e0b57816040517f5b08ba18000000000000000000000000000000000000000000000000000000008152600401610e029190611a6f565b60405180910390fd5b8060055f8573ffffffffffffffffffffffffffffffffffffffff1673ffffffffffffffffffffffffffffffffffffffff1681526020019081526020015f205f8473ffffffffffffffffffffffffffffffffffffffff1673ffffffffffffffffffffffffffffffffffffffff1681526020019081526020015f205f6101000a81548160ff0219169083151502179055508173ffffffffffffffffffffffffffffffffffffffff168373ffffffffffffffffffffffffffffffffffffffff167f17307eab39ab6107e8899845ad3d59bd9653f200f220920489ca2b5937696c3183604051610ef79190611929565b60405180910390a3505050565b5f8373ffffffffffffffffffffffffffffffffffffffff163b11156110b0578273ffffffffffffffffffffffffffffffffffffffff1663150b7a02610f47610b77565b8685856040518563ffffffff1660e01b8152600401610f6994939291906120d3565b6020604051808303815f875af1925050508015610fa457506040513d601f19601f82011682018060405250810190610fa19190612131565b60015b611025573d805f8114610fd2576040519150601f19603f3d011682016040523d82523d5f602084013e610fd7565b606091505b505f81510361101d57836040517f64a0ae920000000000000000000000000000000000000000000000000000000081526004016110149190611a6f565b60405180910390fd5b805181602001fd5b63150b7a0260e01b7bffffffffffffffffffffffffffffffffffffffffffffffffffffffff1916817bffffffffffffffffffffffffffffffffffffffffffffffffffffffff1916146110ae57836040517f64a0ae920000000000000000000000000000000000000000000000000000000081526004016110a59190611a6f565b60405180910390fd5b505b50505050565b606060405180602001604052805f815250905090565b60606110d782610ab8565b505f6110e16110b6565b90505f8151116110ff5760405180602001604052805f81525061112a565b80611109846115a3565b60405160200161111a929190611f96565b6040516020818303038152906040525b915050919050565b5f73ffffffffffffffffffffffffffffffffffffffff168273ffffffffffffffffffffffffffffffffffffffff16036111a2575f6040517f64a0ae920000000000000000000000000000000000000000000000000000000081526004016111999190611a6f565b60405180910390fd5b5f6111ae83835f610b90565b90505f73ffffffffffffffffffffffffffffffffffffffff168173ffffffffffffffffffffffffffffffffffffffff1614611220575f6040517f73c6ac6e0000000000000000000000000000000000000000000000000000000081526004016112179190611a6f565b60405180910390fd5b505050565b8060065f8481526020019081526020015f20908161124391906122f9565b507ff8e1a15aba9398e019f0b49df1a4fde98ee17ae345cb5f6b5e2c27f5033e8ce7826040516112739190611b7a565b60405180910390a15050565b5f7f01ffc9a7000000000000000000000000000000000000000000000000000000007bffffffffffffffffffffffffffffffffffffffffffffffffffffffff1916827bffffffffffffffffffffffffffffffffffffffffffffffffffffffff1916149050919050565b5f60025f8381526020019081526020015f205f9054906101000a900473ffffffffffffffffffffffffffffffffffffffff169050919050565b808061135957505f73ffffffffffffffffffffffffffffffffffffffff168273ffffffffffffffffffffffffffffffffffffffff1614155b1561148b575f61136884610ab8565b90505f73ffffffffffffffffffffffffffffffffffffffff168373ffffffffffffffffffffffffffffffffffffffff16141580156113d257508273ffffffffffffffffffffffffffffffffffffffff168173ffffffffffffffffffffffffffffffffffffffff1614155b80156113e557506113e38184610867565b155b1561142757826040517fa9fbf51f00000000000000000000000000000000000000000000000000000000815260040161141e9190611a6f565b60405180910390fd5b811561148957838573ffffffffffffffffffffffffffffffffffffffff168273ffffffffffffffffffffffffffffffffffffffff167f8c5be1e5ebec7d5bd14f71427d1e84f3dd0314c0f7b2291e5b200ac8c7c3b92560405160405180910390a45b505b8360045f8581526020019081526020015f205f6101000a81548173ffffffffffffffffffffffffffffffffffffffff021916908373ffffffffffffffffffffffffffffffffffffffff16021790555050505050565b6114eb83838361166d565b61159e575f73ffffffffffffffffffffffffffffffffffffffff168373ffffffffffffffffffffffffffffffffffffffff160361155f57806040517f7e2732890000000000000000000000000000000000000000000000000000000081526004016115569190611b7a565b60405180910390fd5b81816040517f177e802f0000000000000000000000000000000000000000000000000000000081526004016115959291906123c8565b60405180910390fd5b505050565b60605f60016115b18461172d565b0190505f8167ffffffffffffffff8111156115cf576115ce611c03565b5b6040519080825280601f01601f1916602001820160405280156116015781602001600182028036833780820191505090505b5090505f82602001820190505b600115611662578080600190039150507f3031323334353637383961626364656600000000000000000000000000000000600a86061a8153600a8581611657576116566123ef565b5b0494505f850361160e575b819350505050919050565b5f8073ffffffffffffffffffffffffffffffffffffffff168373ffffffffffffffffffffffffffffffffffffffff161415801561172457508273ffffffffffffffffffffffffffffffffffffffff168473ffffffffffffffffffffffffffffffffffffffff1614806116e557506116e48484610867565b5b8061172357508273ffffffffffffffffffffffffffffffffffffffff1661170b83610b3e565b73ffffffffffffffffffffffffffffffffffffffff16145b5b90509392505050565b5f805f90507a184f03e93ff9f4daa797ed6e38ed64bf6a1f0100000000000000008310611789577a184f03e93ff9f4daa797ed6e38ed64bf6a1f010000000000000000838161177f5761177e6123ef565b5b0492506040810190505b6d04ee2d6d415b85acef810000000083106117c6576d04ee2d6d415b85acef810000000083816117bc576117bb6123ef565b5b0492506020810190505b662386f26fc1000083106117f557662386f26fc1000083816117eb576117ea6123ef565b5b0492506010810190505b6305f5e100831061181e576305f5e1008381611814576118136123ef565b5b0492506008810190505b6127108310611843576127108381611839576118386123ef565b5b0492506004810190505b60648310611866576064838161185c5761185b6123ef565b5b0492506002810190505b600a8310611875576001810190505b80915050919050565b5f604051905090565b5f80fd5b5f80fd5b5f7fffffffff0000000000000000000000000000000000000000000000000000000082169050919050565b6118c38161188f565b81146118cd575f80fd5b50565b5f813590506118de816118ba565b92915050565b5f602082840312156118f9576118f8611887565b5b5f611906848285016118d0565b91505092915050565b5f8115159050919050565b6119238161190f565b82525050565b5f60208201905061193c5f83018461191a565b92915050565b5f81519050919050565b5f82825260208201905092915050565b8281835e5f83830152505050565b5f601f19601f8301169050919050565b5f61198482611942565b61198e818561194c565b935061199e81856020860161195c565b6119a78161196a565b840191505092915050565b5f6020820190508181035f8301526119ca818461197a565b905092915050565b5f819050919050565b6119e4816119d2565b81146119ee575f80fd5b50565b5f813590506119ff816119db565b92915050565b5f60208284031215611a1a57611a19611887565b5b5f611a27848285016119f1565b91505092915050565b5f73ffffffffffffffffffffffffffffffffffffffff82169050919050565b5f611a5982611a30565b9050919050565b611a6981611a4f565b82525050565b5f602082019050611a825f830184611a60565b92915050565b611a9181611a4f565b8114611a9b575f80fd5b50565b5f81359050611aac81611a88565b92915050565b5f8060408385031215611ac857611ac7611887565b5b5f611ad585828601611a9e565b9250506020611ae6858286016119f1565b9150509250929050565b5f805f60608486031215611b0757611b06611887565b5b5f611b1486828701611a9e565b9350506020611b2586828701611a9e565b9250506040611b36868287016119f1565b9150509250925092565b5f60208284031215611b5557611b54611887565b5b5f611b6284828501611a9e565b91505092915050565b611b74816119d2565b82525050565b5f602082019050611b8d5f830184611b6b565b92915050565b611b9c8161190f565b8114611ba6575f80fd5b50565b5f81359050611bb781611b93565b92915050565b5f8060408385031215611bd357611bd2611887565b5b5f611be085828601611a9e565b9250506020611bf185828601611ba9565b9150509250929050565b5f80fd5b5f80fd5b7f4e487b71000000000000000000000000000000000000000000000000000000005f52604160045260245ffd5b611c398261196a565b810181811067ffffffffffffffff82111715611c5857611c57611c03565b5b80604052505050565b5f611c6a61187e565b9050611c768282611c30565b919050565b5f67ffffffffffffffff821115611c9557611c94611c03565b5b611c9e8261196a565b9050602081019050919050565b828183375f83830152505050565b5f611ccb611cc684611c7b565b611c61565b905082815260208101848484011115611ce757611ce6611bff565b5b611cf2848285611cab565b509392505050565b5f82601f830112611d0e57611d0d611bfb565b5b8135611d1e848260208601611cb9565b91505092915050565b5f805f8060808587031215611d3f57611d3e611887565b5b5f611d4c87828801611a9e565b9450506020611d5d87828801611a9e565b9350506040611d6e878288016119f1565b925050606085013567ffffffffffffffff811115611d8f57611d8e61188b565b5b611d9b87828801611cfa565b91505092959194509250565b5f8060408385031215611dbd57611dbc611887565b5b5f611dca85828601611a9e565b9250506020611ddb85828601611a9e565b9150509250929050565b5f67ffffffffffffffff821115611dff57611dfe611c03565b5b611e088261196a565b9050602081019050919050565b5f611e27611e2284611de5565b611c61565b905082815260208101848484011115611e4357611e42611bff565b5b611e4e848285611cab565b509392505050565b5f82601f830112611e6a57611e69611bfb565b5b8135611e7a848260208601611e15565b91505092915050565b5f60208284031215611e9857611e97611887565b5b5f82013567ffffffffffffffff811115611eb557611eb461188b565b5b611ec184828501611e56565b91505092915050565b7f4e487b71000000000000000000000000000000000000000000000000000000005f52602260045260245ffd5b5f6002820490506001821680611f0e57607f821691505b602082108103611f2157611f20611eca565b5b50919050565b5f606082019050611f3a5f830186611a60565b611f476020830185611b6b565b611f546040830184611a60565b949350505050565b5f81905092915050565b5f611f7082611942565b611f7a8185611f5c565b9350611f8a81856020860161195c565b80840191505092915050565b5f611fa18285611f66565b9150611fad8284611f66565b91508190509392505050565b7f596f7520646f6e2774206861766520656e6f7567682066756e647300000000005f82015250565b5f611fed601b8361194c565b9150611ff882611fb9565b602082019050919050565b5f6020820190508181035f83015261201a81611fe1565b9050919050565b7f4e487b71000000000000000000000000000000000000000000000000000000005f52601160045260245ffd5b5f612058826119d2565b9150612063836119d2565b925082820190508082111561207b5761207a612021565b5b92915050565b5f81519050919050565b5f82825260208201905092915050565b5f6120a582612081565b6120af818561208b565b93506120bf81856020860161195c565b6120c88161196a565b840191505092915050565b5f6080820190506120e65f830187611a60565b6120f36020830186611a60565b6121006040830185611b6b565b8181036060830152612112818461209b565b905095945050505050565b5f8151905061212b816118ba565b92915050565b5f6020828403121561214657612145611887565b5b5f6121538482850161211d565b91505092915050565b5f819050815f5260205f209050919050565b5f6020601f8301049050919050565b5f82821b905092915050565b5f600883026121b87fffffffffffffffffffffffffffffffffffffffffffffffffffffffffffffffff8261217d565b6121c2868361217d565b95508019841693508086168417925050509392505050565b5f819050919050565b5f6121fd6121f86121f3846119d2565b6121da565b6119d2565b9050919050565b5f819050919050565b612216836121e3565b61222a61222282612204565b848454612189565b825550505050565b5f90565b61223e612232565b61224981848461220d565b505050565b5b8181101561226c576122615f82612236565b60018101905061224f565b5050565b601f8211156122b1576122828161215c565b61228b8461216e565b8101602085101561229a578190505b6122ae6122a68561216e565b83018261224e565b50505b505050565b5f82821c905092915050565b5f6122d15f19846008026122b6565b1980831691505092915050565b5f6122e983836122c2565b9150826002028217905092915050565b61230282611942565b67ffffffffffffffff81111561231b5761231a611c03565b5b6123258254611ef7565b612330828285612270565b5f60209050601f831160018114612361575f841561234f578287015190505b61235985826122de565b8655506123c0565b601f19841661236f8661215c565b5f5b8281101561239657848901518255600182019150602085019450602081019050612371565b868310156123b357848901516123af601f8916826122c2565b8355505b6001600288020188555050505b505050505050565b5f6040820190506123db5f830185611a60565b6123e86020830184611b6b565b9392505050565b7f4e487b71000000000000000000000000000000000000000000000000000000005f52601260045260245ffdfea2646970667358221220b50c300b17a68342c1512d0335b3150b11cbd4ddf7ad6aeb3e1e8b0f9daad26464736f6c63430008190033",
					"opcodes": "PUSH1 0x80 PUSH1 0x40 MSTORE CALLVALUE DUP1 ISZERO PUSH2 0xF JUMPI PUSH0 DUP1 REVERT JUMPDEST POP PUSH1 0x40 MLOAD PUSH2 0x28CC CODESIZE SUB DUP1 PUSH2 0x28CC DUP4 CODECOPY DUP2 DUP2 ADD PUSH1 0x40 MSTORE DUP2 ADD SWAP1 PUSH2 0x31 SWAP2 SWAP1 PUSH2 0x142 JUMP JUMPDEST PUSH1 0x40 MLOAD DUP1 PUSH1 0x40 ADD PUSH1 0x40 MSTORE DUP1 PUSH1 0x4 DUP2 MSTORE PUSH1 0x20 ADD PUSH32 0x5A45555300000000000000000000000000000000000000000000000000000000 DUP2 MSTORE POP PUSH1 0x40 MLOAD DUP1 PUSH1 0x40 ADD PUSH1 0x40 MSTORE DUP1 PUSH1 0x1 DUP2 MSTORE PUSH1 0x20 ADD PUSH32 0x5A00000000000000000000000000000000000000000000000000000000000000 DUP2 MSTORE POP DUP2 PUSH0 SWAP1 DUP2 PUSH2 0xAB SWAP2 SWAP1 PUSH2 0x39E JUMP JUMPDEST POP DUP1 PUSH1 0x1 SWAP1 DUP2 PUSH2 0xBB SWAP2 SWAP1 PUSH2 0x39E JUMP JUMPDEST POP POP POP CALLER PUSH1 0x8 PUSH0 PUSH2 0x100 EXP DUP2 SLOAD DUP2 PUSH20 0xFFFFFFFFFFFFFFFFFFFFFFFFFFFFFFFFFFFFFFFF MUL NOT AND SWAP1 DUP4 PUSH20 0xFFFFFFFFFFFFFFFFFFFFFFFFFFFFFFFFFFFFFFFF AND MUL OR SWAP1 SSTORE POP DUP1 PUSH1 0x9 DUP2 SWAP1 SSTORE POP POP PUSH2 0x46D JUMP JUMPDEST PUSH0 DUP1 REVERT JUMPDEST PUSH0 DUP2 SWAP1 POP SWAP2 SWAP1 POP JUMP JUMPDEST PUSH2 0x121 DUP2 PUSH2 0x10F JUMP JUMPDEST DUP2 EQ PUSH2 0x12B JUMPI PUSH0 DUP1 REVERT JUMPDEST POP JUMP JUMPDEST PUSH0 DUP2 MLOAD SWAP1 POP PUSH2 0x13C DUP2 PUSH2 0x118 JUMP JUMPDEST SWAP3 SWAP2 POP POP JUMP JUMPDEST PUSH0 PUSH1 0x20 DUP3 DUP5 SUB SLT ISZERO PUSH2 0x157 JUMPI PUSH2 0x156 PUSH2 0x10B JUMP JUMPDEST JUMPDEST PUSH0 PUSH2 0x164 DUP5 DUP3 DUP6 ADD PUSH2 0x12E JUMP JUMPDEST SWAP2 POP POP SWAP3 SWAP2 POP POP JUMP JUMPDEST PUSH0 DUP2 MLOAD SWAP1 POP SWAP2 SWAP1 POP JUMP JUMPDEST PUSH32 0x4E487B7100000000000000000000000000000000000000000000000000000000 PUSH0 MSTORE PUSH1 0x41 PUSH1 0x4 MSTORE PUSH1 0x24 PUSH0 REVERT JUMPDEST PUSH32 0x4E487B7100000000000000000000000000000000000000000000000000000000 PUSH0 MSTORE PUSH1 0x22 PUSH1 0x4 MSTORE PUSH1 0x24 PUSH0 REVERT JUMPDEST PUSH0 PUSH1 0x2 DUP3 DIV SWAP1 POP PUSH1 0x1 DUP3 AND DUP1 PUSH2 0x1E8 JUMPI PUSH1 0x7F DUP3 AND SWAP2 POP JUMPDEST PUSH1 0x20 DUP3 LT DUP2 SUB PUSH2 0x1FB JUMPI PUSH2 0x1FA PUSH2 0x1A4 JUMP JUMPDEST JUMPDEST POP SWAP2 SWAP1 POP JUMP JUMPDEST PUSH0 DUP2 SWAP1 POP DUP2 PUSH0 MSTORE PUSH1 0x20 PUSH0 KECCAK256 SWAP1 POP SWAP2 SWAP1 POP JUMP JUMPDEST PUSH0 PUSH1 0x20 PUSH1 0x1F DUP4 ADD DIV SWAP1 POP SWAP2 SWAP1 POP JUMP JUMPDEST PUSH0 DUP3 DUP3 SHL SWAP1 POP SWAP3 SWAP2 POP POP JUMP JUMPDEST PUSH0 PUSH1 0x8 DUP4 MUL PUSH2 0x25D PUSH32 0xFFFFFFFFFFFFFFFFFFFFFFFFFFFFFFFFFFFFFFFFFFFFFFFFFFFFFFFFFFFFFFFF DUP3 PUSH2 0x222 JUMP JUMPDEST PUSH2 0x267 DUP7 DUP4 PUSH2 0x222 JUMP JUMPDEST SWAP6 POP DUP1 NOT DUP5 AND SWAP4 POP DUP1 DUP7 AND DUP5 OR SWAP3 POP POP POP SWAP4 SWAP3 POP POP POP JUMP JUMPDEST PUSH0 DUP2 SWAP1 POP SWAP2 SWAP1 POP JUMP JUMPDEST PUSH0 PUSH2 0x2A2 PUSH2 0x29D PUSH2 0x298 DUP5 PUSH2 0x10F JUMP JUMPDEST PUSH2 0x27F JUMP JUMPDEST PUSH2 0x10F JUMP JUMPDEST SWAP1 POP SWAP2 SWAP1 POP JUMP JUMPDEST PUSH0 DUP2 SWAP1 POP SWAP2 SWAP1 POP JUMP JUMPDEST PUSH2 0x2BB DUP4 PUSH2 0x288 JUMP JUMPDEST PUSH2 0x2CF PUSH2 0x2C7 DUP3 PUSH2 0x2A9 JUMP JUMPDEST DUP5 DUP5 SLOAD PUSH2 0x22E JUMP JUMPDEST DUP3 SSTORE POP POP POP POP JUMP JUMPDEST PUSH0 SWAP1 JUMP JUMPDEST PUSH2 0x2E3 PUSH2 0x2D7 JUMP JUMPDEST PUSH2 0x2EE DUP2 DUP5 DUP5 PUSH2 0x2B2 JUMP JUMPDEST POP POP POP JUMP JUMPDEST JUMPDEST DUP2 DUP2 LT ISZERO PUSH2 0x311 JUMPI PUSH2 0x306 PUSH0 DUP3 PUSH2 0x2DB JUMP JUMPDEST PUSH1 0x1 DUP2 ADD SWAP1 POP PUSH2 0x2F4 JUMP JUMPDEST POP POP JUMP JUMPDEST PUSH1 0x1F DUP3 GT ISZERO PUSH2 0x356 JUMPI PUSH2 0x327 DUP2 PUSH2 0x201 JUMP JUMPDEST PUSH2 0x330 DUP5 PUSH2 0x213 JUMP JUMPDEST DUP2 ADD PUSH1 0x20 DUP6 LT ISZERO PUSH2 0x33F JUMPI DUP2 SWAP1 POP JUMPDEST PUSH2 0x353 PUSH2 0x34B DUP6 PUSH2 0x213 JUMP JUMPDEST DUP4 ADD DUP3 PUSH2 0x2F3 JUMP JUMPDEST POP POP JUMPDEST POP POP POP JUMP JUMPDEST PUSH0 DUP3 DUP3 SHR SWAP1 POP SWAP3 SWAP2 POP POP JUMP JUMPDEST PUSH0 PUSH2 0x376 PUSH0 NOT DUP5 PUSH1 0x8 MUL PUSH2 0x35B JUMP JUMPDEST NOT DUP1 DUP4 AND SWAP2 POP POP SWAP3 SWAP2 POP POP JUMP JUMPDEST PUSH0 PUSH2 0x38E DUP4 DUP4 PUSH2 0x367 JUMP JUMPDEST SWAP2 POP DUP3 PUSH1 0x2 MUL DUP3 OR SWAP1 POP SWAP3 SWAP2 POP POP JUMP JUMPDEST PUSH2 0x3A7 DUP3 PUSH2 0x16D JUMP JUMPDEST PUSH8 0xFFFFFFFFFFFFFFFF DUP2 GT ISZERO PUSH2 0x3C0 JUMPI PUSH2 0x3BF PUSH2 0x177 JUMP JUMPDEST JUMPDEST PUSH2 0x3CA DUP3 SLOAD PUSH2 0x1D1 JUMP JUMPDEST PUSH2 0x3D5 DUP3 DUP3 DUP6 PUSH2 0x315 JUMP JUMPDEST PUSH0 PUSH1 0x20 SWAP1 POP PUSH1 0x1F DUP4 GT PUSH1 0x1 DUP2 EQ PUSH2 0x406 JUMPI PUSH0 DUP5 ISZERO PUSH2 0x3F4 JUMPI DUP3 DUP8 ADD MLOAD SWAP1 POP JUMPDEST PUSH2 0x3FE DUP6 DUP3 PUSH2 0x383 JUMP JUMPDEST DUP7 SSTORE POP PUSH2 0x465 JUMP JUMPDEST PUSH1 0x1F NOT DUP5 AND PUSH2 0x414 DUP7 PUSH2 0x201 JUMP JUMPDEST PUSH0 JUMPDEST DUP3 DUP2 LT ISZERO PUSH2 0x43B JUMPI DUP5 DUP10 ADD MLOAD DUP3 SSTORE PUSH1 0x1 DUP3 ADD SWAP2 POP PUSH1 0x20 DUP6 ADD SWAP5 POP PUSH1 0x20 DUP2 ADD SWAP1 POP PUSH2 0x416 JUMP JUMPDEST DUP7 DUP4 LT ISZERO PUSH2 0x458 JUMPI DUP5 DUP10 ADD MLOAD PUSH2 0x454 PUSH1 0x1F DUP10 AND DUP3 PUSH2 0x367 JUMP JUMPDEST DUP4 SSTORE POP JUMPDEST PUSH1 0x1 PUSH1 0x2 DUP9 MUL ADD DUP9 SSTORE POP POP POP JUMPDEST POP POP POP POP POP POP JUMP JUMPDEST PUSH2 0x2452 DUP1 PUSH2 0x47A PUSH0 CODECOPY PUSH0 RETURN INVALID PUSH1 0x80 PUSH1 0x40 MSTORE PUSH1 0x4 CALLDATASIZE LT PUSH2 0xDC JUMPI PUSH0 CALLDATALOAD PUSH1 0xE0 SHR DUP1 PUSH4 0x70A08231 GT PUSH2 0x7E JUMPI DUP1 PUSH4 0xB88D4FDE GT PUSH2 0x58 JUMPI DUP1 PUSH4 0xB88D4FDE EQ PUSH2 0x2C4 JUMPI DUP1 PUSH4 0xC87B56DD EQ PUSH2 0x2EC JUMPI DUP1 PUSH4 0xE985E9C5 EQ PUSH2 0x328 JUMPI DUP1 PUSH4 0xFB37E883 EQ PUSH2 0x364 JUMPI PUSH2 0xDC JUMP JUMPDEST DUP1 PUSH4 0x70A08231 EQ PUSH2 0x236 JUMPI DUP1 PUSH4 0x95D89B41 EQ PUSH2 0x272 JUMPI DUP1 PUSH4 0xA22CB465 EQ PUSH2 0x29C JUMPI PUSH2 0xDC JUMP JUMPDEST DUP1 PUSH4 0x95EA7B3 GT PUSH2 0xBA JUMPI DUP1 PUSH4 0x95EA7B3 EQ PUSH2 0x182 JUMPI DUP1 PUSH4 0x23B872DD EQ PUSH2 0x1AA JUMPI DUP1 PUSH4 0x42842E0E EQ PUSH2 0x1D2 JUMPI DUP1 PUSH4 0x6352211E EQ PUSH2 0x1FA JUMPI PUSH2 0xDC JUMP JUMPDEST DUP1 PUSH4 0x1FFC9A7 EQ PUSH2 0xE0 JUMPI DUP1 PUSH4 0x6FDDE03 EQ PUSH2 0x11C JUMPI DUP1 PUSH4 0x81812FC EQ PUSH2 0x146 JUMPI JUMPDEST PUSH0 DUP1 REVERT JUMPDEST CALLVALUE DUP1 ISZERO PUSH2 0xEB JUMPI PUSH0 DUP1 REVERT JUMPDEST POP PUSH2 0x106 PUSH1 0x4 DUP1 CALLDATASIZE SUB DUP2 ADD SWAP1 PUSH2 0x101 SWAP2 SWAP1 PUSH2 0x18E4 JUMP JUMPDEST PUSH2 0x394 JUMP JUMPDEST PUSH1 0x40 MLOAD PUSH2 0x113 SWAP2 SWAP1 PUSH2 0x1929 JUMP JUMPDEST PUSH1 0x40 MLOAD DUP1 SWAP2 SUB SWAP1 RETURN JUMPDEST CALLVALUE DUP1 ISZERO PUSH2 0x127 JUMPI PUSH0 DUP1 REVERT JUMPDEST POP PUSH2 0x130 PUSH2 0x3F4 JUMP JUMPDEST PUSH1 0x40 MLOAD PUSH2 0x13D SWAP2 SWAP1 PUSH2 0x19B2 JUMP JUMPDEST PUSH1 0x40 MLOAD DUP1 SWAP2 SUB SWAP1 RETURN JUMPDEST CALLVALUE DUP1 ISZERO PUSH2 0x151 JUMPI PUSH0 DUP1 REVERT JUMPDEST POP PUSH2 0x16C PUSH1 0x4 DUP1 CALLDATASIZE SUB DUP2 ADD SWAP1 PUSH2 0x167 SWAP2 SWAP1 PUSH2 0x1A05 JUMP JUMPDEST PUSH2 0x483 JUMP JUMPDEST PUSH1 0x40 MLOAD PUSH2 0x179 SWAP2 SWAP1 PUSH2 0x1A6F JUMP JUMPDEST PUSH1 0x40 MLOAD DUP1 SWAP2 SUB SWAP1 RETURN JUMPDEST CALLVALUE DUP1 ISZERO PUSH2 0x18D JUMPI PUSH0 DUP1 REVERT JUMPDEST POP PUSH2 0x1A8 PUSH1 0x4 DUP1 CALLDATASIZE SUB DUP2 ADD SWAP1 PUSH2 0x1A3 SWAP2 SWAP1 PUSH2 0x1AB2 JUMP JUMPDEST PUSH2 0x49E JUMP JUMPDEST STOP JUMPDEST CALLVALUE DUP1 ISZERO PUSH2 0x1B5 JUMPI PUSH0 DUP1 REVERT JUMPDEST POP PUSH2 0x1D0 PUSH1 0x4 DUP1 CALLDATASIZE SUB DUP2 ADD SWAP1 PUSH2 0x1CB SWAP2 SWAP1 PUSH2 0x1AF0 JUMP JUMPDEST PUSH2 0x4B4 JUMP JUMPDEST STOP JUMPDEST CALLVALUE DUP1 ISZERO PUSH2 0x1DD JUMPI PUSH0 DUP1 REVERT JUMPDEST POP PUSH2 0x1F8 PUSH1 0x4 DUP1 CALLDATASIZE SUB DUP2 ADD SWAP1 PUSH2 0x1F3 SWAP2 SWAP1 PUSH2 0x1AF0 JUMP JUMPDEST PUSH2 0x5B3 JUMP JUMPDEST STOP JUMPDEST CALLVALUE DUP1 ISZERO PUSH2 0x205 JUMPI PUSH0 DUP1 REVERT JUMPDEST POP PUSH2 0x220 PUSH1 0x4 DUP1 CALLDATASIZE SUB DUP2 ADD SWAP1 PUSH2 0x21B SWAP2 SWAP1 PUSH2 0x1A05 JUMP JUMPDEST PUSH2 0x5D2 JUMP JUMPDEST PUSH1 0x40 MLOAD PUSH2 0x22D SWAP2 SWAP1 PUSH2 0x1A6F JUMP JUMPDEST PUSH1 0x40 MLOAD DUP1 SWAP2 SUB SWAP1 RETURN JUMPDEST CALLVALUE DUP1 ISZERO PUSH2 0x241 JUMPI PUSH0 DUP1 REVERT JUMPDEST POP PUSH2 0x25C PUSH1 0x4 DUP1 CALLDATASIZE SUB DUP2 ADD SWAP1 PUSH2 0x257 SWAP2 SWAP1 PUSH2 0x1B40 JUMP JUMPDEST PUSH2 0x5E3 JUMP JUMPDEST PUSH1 0x40 MLOAD PUSH2 0x269 SWAP2 SWAP1 PUSH2 0x1B7A JUMP JUMPDEST PUSH1 0x40 MLOAD DUP1 SWAP2 SUB SWAP1 RETURN JUMPDEST CALLVALUE DUP1 ISZERO PUSH2 0x27D JUMPI PUSH0 DUP1 REVERT JUMPDEST POP PUSH2 0x286 PUSH2 0x699 JUMP JUMPDEST PUSH1 0x40 MLOAD PUSH2 0x293 SWAP2 SWAP1 PUSH2 0x19B2 JUMP JUMPDEST PUSH1 0x40 MLOAD DUP1 SWAP2 SUB SWAP1 RETURN JUMPDEST CALLVALUE DUP1 ISZERO PUSH2 0x2A7 JUMPI PUSH0 DUP1 REVERT JUMPDEST POP PUSH2 0x2C2 PUSH1 0x4 DUP1 CALLDATASIZE SUB DUP2 ADD SWAP1 PUSH2 0x2BD SWAP2 SWAP1 PUSH2 0x1BBD JUMP JUMPDEST PUSH2 0x729 JUMP JUMPDEST STOP JUMPDEST CALLVALUE DUP1 ISZERO PUSH2 0x2CF JUMPI PUSH0 DUP1 REVERT JUMPDEST POP PUSH2 0x2EA PUSH1 0x4 DUP1 CALLDATASIZE SUB DUP2 ADD SWAP1 PUSH2 0x2E5 SWAP2 SWAP1 PUSH2 0x1D27 JUMP JUMPDEST PUSH2 0x73F JUMP JUMPDEST STOP JUMPDEST CALLVALUE DUP1 ISZERO PUSH2 0x2F7 JUMPI PUSH0 DUP1 REVERT JUMPDEST POP PUSH2 0x312 PUSH1 0x4 DUP1 CALLDATASIZE SUB DUP2 ADD SWAP1 PUSH2 0x30D SWAP2 SWAP1 PUSH2 0x1A05 JUMP JUMPDEST PUSH2 0x75C JUMP JUMPDEST PUSH1 0x40 MLOAD PUSH2 0x31F SWAP2 SWAP1 PUSH2 0x19B2 JUMP JUMPDEST PUSH1 0x40 MLOAD DUP1 SWAP2 SUB SWAP1 RETURN JUMPDEST CALLVALUE DUP1 ISZERO PUSH2 0x333 JUMPI PUSH0 DUP1 REVERT JUMPDEST POP PUSH2 0x34E PUSH1 0x4 DUP1 CALLDATASIZE SUB DUP2 ADD SWAP1 PUSH2 0x349 SWAP2 SWAP1 PUSH2 0x1DA7 JUMP JUMPDEST PUSH2 0x867 JUMP JUMPDEST PUSH1 0x40 MLOAD PUSH2 0x35B SWAP2 SWAP1 PUSH2 0x1929 JUMP JUMPDEST PUSH1 0x40 MLOAD DUP1 SWAP2 SUB SWAP1 RETURN JUMPDEST PUSH2 0x37E PUSH1 0x4 DUP1 CALLDATASIZE SUB DUP2 ADD SWAP1 PUSH2 0x379 SWAP2 SWAP1 PUSH2 0x1E83 JUMP JUMPDEST PUSH2 0x8F5 JUMP JUMPDEST PUSH1 0x40 MLOAD PUSH2 0x38B SWAP2 SWAP1 PUSH2 0x1B7A JUMP JUMPDEST PUSH1 0x40 MLOAD DUP1 SWAP2 SUB SWAP1 RETURN JUMPDEST PUSH0 PUSH4 0x49064906 PUSH1 0xE0 SHL PUSH28 0xFFFFFFFFFFFFFFFFFFFFFFFFFFFFFFFFFFFFFFFFFFFFFFFFFFFFFFFF NOT AND DUP3 PUSH28 0xFFFFFFFFFFFFFFFFFFFFFFFFFFFFFFFFFFFFFFFFFFFFFFFFFFFFFFFF NOT AND EQ DUP1 PUSH2 0x3ED JUMPI POP PUSH2 0x3EC DUP3 PUSH2 0x9D7 JUMP JUMPDEST JUMPDEST SWAP1 POP SWAP2 SWAP1 POP JUMP JUMPDEST PUSH1 0x60 PUSH0 DUP1 SLOAD PUSH2 0x402 SWAP1 PUSH2 0x1EF7 JUMP JUMPDEST DUP1 PUSH1 0x1F ADD PUSH1 0x20 DUP1 SWAP2 DIV MUL PUSH1 0x20 ADD PUSH1 0x40 MLOAD SWAP1 DUP2 ADD PUSH1 0x40 MSTORE DUP1 SWAP3 SWAP2 SWAP1 DUP2 DUP2 MSTORE PUSH1 0x20 ADD DUP3 DUP1 SLOAD PUSH2 0x42E SWAP1 PUSH2 0x1EF7 JUMP JUMPDEST DUP1 ISZERO PUSH2 0x479 JUMPI DUP1 PUSH1 0x1F LT PUSH2 0x450 JUMPI PUSH2 0x100 DUP1 DUP4 SLOAD DIV MUL DUP4 MSTORE SWAP2 PUSH1 0x20 ADD SWAP2 PUSH2 0x479 JUMP JUMPDEST DUP3 ADD SWAP2 SWAP1 PUSH0 MSTORE PUSH1 0x20 PUSH0 KECCAK256 SWAP1 JUMPDEST DUP2 SLOAD DUP2 MSTORE SWAP1 PUSH1 0x1 ADD SWAP1 PUSH1 0x20 ADD DUP1 DUP4 GT PUSH2 0x45C JUMPI DUP3 SWAP1 SUB PUSH1 0x1F AND DUP3 ADD SWAP2 JUMPDEST POP POP POP POP POP SWAP1 POP SWAP1 JUMP JUMPDEST PUSH0 PUSH2 0x48D DUP3 PUSH2 0xAB8 JUMP JUMPDEST POP PUSH2 0x497 DUP3 PUSH2 0xB3E JUMP JUMPDEST SWAP1 POP SWAP2 SWAP1 POP JUMP JUMPDEST PUSH2 0x4B0 DUP3 DUP3 PUSH2 0x4AB PUSH2 0xB77 JUMP JUMPDEST PUSH2 0xB7E JUMP JUMPDEST POP POP JUMP JUMPDEST PUSH0 PUSH20 0xFFFFFFFFFFFFFFFFFFFFFFFFFFFFFFFFFFFFFFFF AND DUP3 PUSH20 0xFFFFFFFFFFFFFFFFFFFFFFFFFFFFFFFFFFFFFFFF AND SUB PUSH2 0x524 JUMPI PUSH0 PUSH1 0x40 MLOAD PUSH32 0x64A0AE9200000000000000000000000000000000000000000000000000000000 DUP2 MSTORE PUSH1 0x4 ADD PUSH2 0x51B SWAP2 SWAP1 PUSH2 0x1A6F JUMP JUMPDEST PUSH1 0x40 MLOAD DUP1 SWAP2 SUB SWAP1 REVERT JUMPDEST PUSH0 PUSH2 0x537 DUP4 DUP4 PUSH2 0x532 PUSH2 0xB77 JUMP JUMPDEST PUSH2 0xB90 JUMP JUMPDEST SWAP1 POP DUP4 PUSH20 0xFFFFFFFFFFFFFFFFFFFFFFFFFFFFFFFFFFFFFFFF AND DUP2 PUSH20 0xFFFFFFFFFFFFFFFFFFFFFFFFFFFFFFFFFFFFFFFF AND EQ PUSH2 0x5AD JUMPI DUP4 DUP3 DUP3 PUSH1 0x40 MLOAD PUSH32 0x64283D7B00000000000000000000000000000000000000000000000000000000 DUP2 MSTORE PUSH1 0x4 ADD PUSH2 0x5A4 SWAP4 SWAP3 SWAP2 SWAP1 PUSH2 0x1F27 JUMP JUMPDEST PUSH1 0x40 MLOAD DUP1 SWAP2 SUB SWAP1 REVERT JUMPDEST POP POP POP POP JUMP JUMPDEST PUSH2 0x5CD DUP4 DUP4 DUP4 PUSH1 0x40 MLOAD DUP1 PUSH1 0x20 ADD PUSH1 0x40 MSTORE DUP1 PUSH0 DUP2 MSTORE POP PUSH2 0x73F JUMP JUMPDEST POP POP POP JUMP JUMPDEST PUSH0 PUSH2 0x5DC DUP3 PUSH2 0xAB8 JUMP JUMPDEST SWAP1 POP SWAP2 SWAP1 POP JUMP JUMPDEST PUSH0 DUP1 PUSH20 0xFFFFFFFFFFFFFFFFFFFFFFFFFFFFFFFFFFFFFFFF AND DUP3 PUSH20 0xFFFFFFFFFFFFFFFFFFFFFFFFFFFFFFFFFFFFFFFF AND SUB PUSH2 0x654 JUMPI PUSH0 PUSH1 0x40 MLOAD PUSH32 0x89C62B6400000000000000000000000000000000000000000000000000000000 DUP2 MSTORE PUSH1 0x4 ADD PUSH2 0x64B SWAP2 SWAP1 PUSH2 0x1A6F JUMP JUMPDEST PUSH1 0x40 MLOAD DUP1 SWAP2 SUB SWAP1 REVERT JUMPDEST PUSH1 0x3 PUSH0 DUP4 PUSH20 0xFFFFFFFFFFFFFFFFFFFFFFFFFFFFFFFFFFFFFFFF AND PUSH20 0xFFFFFFFFFFFFFFFFFFFFFFFFFFFFFFFFFFFFFFFF AND DUP2 MSTORE PUSH1 0x20 ADD SWAP1 DUP2 MSTORE PUSH1 0x20 ADD PUSH0 KECCAK256 SLOAD SWAP1 POP SWAP2 SWAP1 POP JUMP JUMPDEST PUSH1 0x60 PUSH1 0x1 DUP1 SLOAD PUSH2 0x6A8 SWAP1 PUSH2 0x1EF7 JUMP JUMPDEST DUP1 PUSH1 0x1F ADD PUSH1 0x20 DUP1 SWAP2 DIV MUL PUSH1 0x20 ADD PUSH1 0x40 MLOAD SWAP1 DUP2 ADD PUSH1 0x40 MSTORE DUP1 SWAP3 SWAP2 SWAP1 DUP2 DUP2 MSTORE PUSH1 0x20 ADD DUP3 DUP1 SLOAD PUSH2 0x6D4 SWAP1 PUSH2 0x1EF7 JUMP JUMPDEST DUP1 ISZERO PUSH2 0x71F JUMPI DUP1 PUSH1 0x1F LT PUSH2 0x6F6 JUMPI PUSH2 0x100 DUP1 DUP4 SLOAD DIV MUL DUP4 MSTORE SWAP2 PUSH1 0x20 ADD SWAP2 PUSH2 0x71F JUMP JUMPDEST DUP3 ADD SWAP2 SWAP1 PUSH0 MSTORE PUSH1 0x20 PUSH0 KECCAK256 SWAP1 JUMPDEST DUP2 SLOAD DUP2 MSTORE SWAP1 PUSH1 0x1 ADD SWAP1 PUSH1 0x20 ADD DUP1 DUP4 GT PUSH2 0x702 JUMPI DUP3 SWAP1 SUB PUSH1 0x1F AND DUP3 ADD SWAP2 JUMPDEST POP POP POP POP POP SWAP1 POP SWAP1 JUMP JUMPDEST PUSH2 0x73B PUSH2 0x734 PUSH2 0xB77 JUMP JUMPDEST DUP4 DUP4 PUSH2 0xD9B JUMP JUMPDEST POP POP JUMP JUMPDEST PUSH2 0x74A DUP5 DUP5 DUP5 PUSH2 0x4B4 JUMP JUMPDEST PUSH2 0x756 DUP5 DUP5 DUP5 DUP5 PUSH2 0xF04 JUMP JUMPDEST POP POP POP POP JUMP JUMPDEST PUSH1 0x60 PUSH2 0x767 DUP3 PUSH2 0xAB8 JUMP JUMPDEST POP PUSH0 PUSH1 0x6 PUSH0 DUP5 DUP2 MSTORE PUSH1 0x20 ADD SWAP1 DUP2 MSTORE PUSH1 0x20 ADD PUSH0 KECCAK256 DUP1 SLOAD PUSH2 0x785 SWAP1 PUSH2 0x1EF7 JUMP JUMPDEST DUP1 PUSH1 0x1F ADD PUSH1 0x20 DUP1 SWAP2 DIV MUL PUSH1 0x20 ADD PUSH1 0x40 MLOAD SWAP1 DUP2 ADD PUSH1 0x40 MSTORE DUP1 SWAP3 SWAP2 SWAP1 DUP2 DUP2 MSTORE PUSH1 0x20 ADD DUP3 DUP1 SLOAD PUSH2 0x7B1 SWAP1 PUSH2 0x1EF7 JUMP JUMPDEST DUP1 ISZERO PUSH2 0x7FC JUMPI DUP1 PUSH1 0x1F LT PUSH2 0x7D3 JUMPI PUSH2 0x100 DUP1 DUP4 SLOAD DIV MUL DUP4 MSTORE SWAP2 PUSH1 0x20 ADD SWAP2 PUSH2 0x7FC JUMP JUMPDEST DUP3 ADD SWAP2 SWAP1 PUSH0 MSTORE PUSH1 0x20 PUSH0 KECCAK256 SWAP1 JUMPDEST DUP2 SLOAD DUP2 MSTORE SWAP1 PUSH1 0x1 ADD SWAP1 PUSH1 0x20 ADD DUP1 DUP4 GT PUSH2 0x7DF JUMPI DUP3 SWAP1 SUB PUSH1 0x1F AND DUP3 ADD SWAP2 JUMPDEST POP POP POP POP POP SWAP1 POP PUSH0 PUSH2 0x80C PUSH2 0x10B6 JUMP JUMPDEST SWAP1 POP PUSH0 DUP2 MLOAD SUB PUSH2 0x820 JUMPI DUP2 SWAP3 POP POP POP PUSH2 0x862 JUMP JUMPDEST PUSH0 DUP3 MLOAD GT ISZERO PUSH2 0x854 JUMPI DUP1 DUP3 PUSH1 0x40 MLOAD PUSH1 0x20 ADD PUSH2 0x83C SWAP3 SWAP2 SWAP1 PUSH2 0x1F96 JUMP JUMPDEST PUSH1 0x40 MLOAD PUSH1 0x20 DUP2 DUP4 SUB SUB DUP2 MSTORE SWAP1 PUSH1 0x40 MSTORE SWAP3 POP POP POP PUSH2 0x862 JUMP JUMPDEST PUSH2 0x85D DUP5 PUSH2 0x10CC JUMP JUMPDEST SWAP3 POP POP POP JUMPDEST SWAP2 SWAP1 POP JUMP JUMPDEST PUSH0 PUSH1 0x5 PUSH0 DUP5 PUSH20 0xFFFFFFFFFFFFFFFFFFFFFFFFFFFFFFFFFFFFFFFF AND PUSH20 0xFFFFFFFFFFFFFFFFFFFFFFFFFFFFFFFFFFFFFFFF AND DUP2 MSTORE PUSH1 0x20 ADD SWAP1 DUP2 MSTORE PUSH1 0x20 ADD PUSH0 KECCAK256 PUSH0 DUP4 PUSH20 0xFFFFFFFFFFFFFFFFFFFFFFFFFFFFFFFFFFFFFFFF AND PUSH20 0xFFFFFFFFFFFFFFFFFFFFFFFFFFFFFFFFFFFFFFFF AND DUP2 MSTORE PUSH1 0x20 ADD SWAP1 DUP2 MSTORE PUSH1 0x20 ADD PUSH0 KECCAK256 PUSH0 SWAP1 SLOAD SWAP1 PUSH2 0x100 EXP SWAP1 DIV PUSH1 0xFF AND SWAP1 POP SWAP3 SWAP2 POP POP JUMP JUMPDEST PUSH0 PUSH1 0x9 SLOAD CALLVALUE LT ISZERO PUSH2 0x93B JUMPI PUSH1 0x40 MLOAD PUSH32 0x8C379A000000000000000000000000000000000000000000000000000000000 DUP2 MSTORE PUSH1 0x4 ADD PUSH2 0x932 SWAP1 PUSH2 0x2003 JUMP JUMPDEST PUSH1 0x40 MLOAD DUP1 SWAP2 SUB SWAP1 REVERT JUMPDEST PUSH1 0x8 PUSH0 SWAP1 SLOAD SWAP1 PUSH2 0x100 EXP SWAP1 DIV PUSH20 0xFFFFFFFFFFFFFFFFFFFFFFFFFFFFFFFFFFFFFFFF AND PUSH20 0xFFFFFFFFFFFFFFFFFFFFFFFFFFFFFFFFFFFFFFFF AND PUSH2 0x8FC CALLVALUE SWAP1 DUP2 ISZERO MUL SWAP1 PUSH1 0x40 MLOAD PUSH0 PUSH1 0x40 MLOAD DUP1 DUP4 SUB DUP2 DUP6 DUP9 DUP9 CALL SWAP4 POP POP POP POP ISZERO DUP1 ISZERO PUSH2 0x99F JUMPI RETURNDATASIZE PUSH0 DUP1 RETURNDATACOPY RETURNDATASIZE PUSH0 REVERT JUMPDEST POP PUSH1 0x1 PUSH1 0x7 SLOAD PUSH2 0x9AF SWAP2 SWAP1 PUSH2 0x204E JUMP JUMPDEST PUSH1 0x7 DUP2 SWAP1 SSTORE POP PUSH2 0x9C1 CALLER PUSH1 0x7 SLOAD PUSH2 0x1132 JUMP JUMPDEST PUSH2 0x9CD PUSH1 0x7 SLOAD DUP4 PUSH2 0x1225 JUMP JUMPDEST PUSH1 0x7 SLOAD SWAP1 POP SWAP2 SWAP1 POP JUMP JUMPDEST PUSH0 PUSH32 0x80AC58CD00000000000000000000000000000000000000000000000000000000 PUSH28 0xFFFFFFFFFFFFFFFFFFFFFFFFFFFFFFFFFFFFFFFFFFFFFFFFFFFFFFFF NOT AND DUP3 PUSH28 0xFFFFFFFFFFFFFFFFFFFFFFFFFFFFFFFFFFFFFFFFFFFFFFFFFFFFFFFF NOT AND EQ DUP1 PUSH2 0xAA1 JUMPI POP PUSH32 0x5B5E139F00000000000000000000000000000000000000000000000000000000 PUSH28 0xFFFFFFFFFFFFFFFFFFFFFFFFFFFFFFFFFFFFFFFFFFFFFFFFFFFFFFFF NOT AND DUP3 PUSH28 0xFFFFFFFFFFFFFFFFFFFFFFFFFFFFFFFFFFFFFFFFFFFFFFFFFFFFFFFF NOT AND EQ JUMPDEST DUP1 PUSH2 0xAB1 JUMPI POP PUSH2 0xAB0 DUP3 PUSH2 0x127F JUMP JUMPDEST JUMPDEST SWAP1 POP SWAP2 SWAP1 POP JUMP JUMPDEST PUSH0 DUP1 PUSH2 0xAC3 DUP4 PUSH2 0x12E8 JUMP JUMPDEST SWAP1 POP PUSH0 PUSH20 0xFFFFFFFFFFFFFFFFFFFFFFFFFFFFFFFFFFFFFFFF AND DUP2 PUSH20 0xFFFFFFFFFFFFFFFFFFFFFFFFFFFFFFFFFFFFFFFF AND SUB PUSH2 0xB35 JUMPI DUP3 PUSH1 0x40 MLOAD PUSH32 0x7E27328900000000000000000000000000000000000000000000000000000000 DUP2 MSTORE PUSH1 0x4 ADD PUSH2 0xB2C SWAP2 SWAP1 PUSH2 0x1B7A JUMP JUMPDEST PUSH1 0x40 MLOAD DUP1 SWAP2 SUB SWAP1 REVERT JUMPDEST DUP1 SWAP2 POP POP SWAP2 SWAP1 POP JUMP JUMPDEST PUSH0 PUSH1 0x4 PUSH0 DUP4 DUP2 MSTORE PUSH1 0x20 ADD SWAP1 DUP2 MSTORE PUSH1 0x20 ADD PUSH0 KECCAK256 PUSH0 SWAP1 SLOAD SWAP1 PUSH2 0x100 EXP SWAP1 DIV PUSH20 0xFFFFFFFFFFFFFFFFFFFFFFFFFFFFFFFFFFFFFFFF AND SWAP1 POP SWAP2 SWAP1 POP JUMP JUMPDEST PUSH0 CALLER SWAP1 POP SWAP1 JUMP JUMPDEST PUSH2 0xB8B DUP4 DUP4 DUP4 PUSH1 0x1 PUSH2 0x1321 JUMP JUMPDEST POP POP POP JUMP JUMPDEST PUSH0 DUP1 PUSH2 0xB9B DUP5 PUSH2 0x12E8 JUMP JUMPDEST SWAP1 POP PUSH0 PUSH20 0xFFFFFFFFFFFFFFFFFFFFFFFFFFFFFFFFFFFFFFFF AND DUP4 PUSH20 0xFFFFFFFFFFFFFFFFFFFFFFFFFFFFFFFFFFFFFFFF AND EQ PUSH2 0xBDC JUMPI PUSH2 0xBDB DUP2 DUP5 DUP7 PUSH2 0x14E0 JUMP JUMPDEST JUMPDEST PUSH0 PUSH20 0xFFFFFFFFFFFFFFFFFFFFFFFFFFFFFFFFFFFFFFFF AND DUP2 PUSH20 0xFFFFFFFFFFFFFFFFFFFFFFFFFFFFFFFFFFFFFFFF AND EQ PUSH2 0xC67 JUMPI PUSH2 0xC1B PUSH0 DUP6 PUSH0 DUP1 PUSH2 0x1321 JUMP JUMPDEST PUSH1 0x1 PUSH1 0x3 PUSH0 DUP4 PUSH20 0xFFFFFFFFFFFFFFFFFFFFFFFFFFFFFFFFFFFFFFFF AND PUSH20 0xFFFFFFFFFFFFFFFFFFFFFFFFFFFFFFFFFFFFFFFF AND DUP2 MSTORE PUSH1 0x20 ADD SWAP1 DUP2 MSTORE PUSH1 0x20 ADD PUSH0 KECCAK256 PUSH0 DUP3 DUP3 SLOAD SUB SWAP3 POP POP DUP2 SWAP1 SSTORE POP JUMPDEST PUSH0 PUSH20 0xFFFFFFFFFFFFFFFFFFFFFFFFFFFFFFFFFFFFFFFF AND DUP6 PUSH20 0xFFFFFFFFFFFFFFFFFFFFFFFFFFFFFFFFFFFFFFFF AND EQ PUSH2 0xCE6 JUMPI PUSH1 0x1 PUSH1 0x3 PUSH0 DUP8 PUSH20 0xFFFFFFFFFFFFFFFFFFFFFFFFFFFFFFFFFFFFFFFF AND PUSH20 0xFFFFFFFFFFFFFFFFFFFFFFFFFFFFFFFFFFFFFFFF AND DUP2 MSTORE PUSH1 0x20 ADD SWAP1 DUP2 MSTORE PUSH1 0x20 ADD PUSH0 KECCAK256 PUSH0 DUP3 DUP3 SLOAD ADD SWAP3 POP POP DUP2 SWAP1 SSTORE POP JUMPDEST DUP5 PUSH1 0x2 PUSH0 DUP7 DUP2 MSTORE PUSH1 0x20 ADD SWAP1 DUP2 MSTORE PUSH1 0x20 ADD PUSH0 KECCAK256 PUSH0 PUSH2 0x100 EXP DUP2 SLOAD DUP2 PUSH20 0xFFFFFFFFFFFFFFFFFFFFFFFFFFFFFFFFFFFFFFFF MUL NOT AND SWAP1 DUP4 PUSH20 0xFFFFFFFFFFFFFFFFFFFFFFFFFFFFFFFFFFFFFFFF AND MUL OR SWAP1 SSTORE POP DUP4 DUP6 PUSH20 0xFFFFFFFFFFFFFFFFFFFFFFFFFFFFFFFFFFFFFFFF AND DUP3 PUSH20 0xFFFFFFFFFFFFFFFFFFFFFFFFFFFFFFFFFFFFFFFF AND PUSH32 0xDDF252AD1BE2C89B69C2B068FC378DAA952BA7F163C4A11628F55A4DF523B3EF PUSH1 0x40 MLOAD PUSH1 0x40 MLOAD DUP1 SWAP2 SUB SWAP1 LOG4 DUP1 SWAP2 POP POP SWAP4 SWAP3 POP POP POP JUMP JUMPDEST PUSH0 PUSH20 0xFFFFFFFFFFFFFFFFFFFFFFFFFFFFFFFFFFFFFFFF AND DUP3 PUSH20 0xFFFFFFFFFFFFFFFFFFFFFFFFFFFFFFFFFFFFFFFF AND SUB PUSH2 0xE0B JUMPI DUP2 PUSH1 0x40 MLOAD PUSH32 0x5B08BA1800000000000000000000000000000000000000000000000000000000 DUP2 MSTORE PUSH1 0x4 ADD PUSH2 0xE02 SWAP2 SWAP1 PUSH2 0x1A6F JUMP JUMPDEST PUSH1 0x40 MLOAD DUP1 SWAP2 SUB SWAP1 REVERT JUMPDEST DUP1 PUSH1 0x5 PUSH0 DUP6 PUSH20 0xFFFFFFFFFFFFFFFFFFFFFFFFFFFFFFFFFFFFFFFF AND PUSH20 0xFFFFFFFFFFFFFFFFFFFFFFFFFFFFFFFFFFFFFFFF AND DUP2 MSTORE PUSH1 0x20 ADD SWAP1 DUP2 MSTORE PUSH1 0x20 ADD PUSH0 KECCAK256 PUSH0 DUP5 PUSH20 0xFFFFFFFFFFFFFFFFFFFFFFFFFFFFFFFFFFFFFFFF AND PUSH20 0xFFFFFFFFFFFFFFFFFFFFFFFFFFFFFFFFFFFFFFFF AND DUP2 MSTORE PUSH1 0x20 ADD SWAP1 DUP2 MSTORE PUSH1 0x20 ADD PUSH0 KECCAK256 PUSH0 PUSH2 0x100 EXP DUP2 SLOAD DUP2 PUSH1 0xFF MUL NOT AND SWAP1 DUP4 ISZERO ISZERO MUL OR SWAP1 SSTORE POP DUP2 PUSH20 0xFFFFFFFFFFFFFFFFFFFFFFFFFFFFFFFFFFFFFFFF AND DUP4 PUSH20 0xFFFFFFFFFFFFFFFFFFFFFFFFFFFFFFFFFFFFFFFF AND PUSH32 0x17307EAB39AB6107E8899845AD3D59BD9653F200F220920489CA2B5937696C31 DUP4 PUSH1 0x40 MLOAD PUSH2 0xEF7 SWAP2 SWAP1 PUSH2 0x1929 JUMP JUMPDEST PUSH1 0x40 MLOAD DUP1 SWAP2 SUB SWAP1 LOG3 POP POP POP JUMP JUMPDEST PUSH0 DUP4 PUSH20 0xFFFFFFFFFFFFFFFFFFFFFFFFFFFFFFFFFFFFFFFF AND EXTCODESIZE GT ISZERO PUSH2 0x10B0 JUMPI DUP3 PUSH20 0xFFFFFFFFFFFFFFFFFFFFFFFFFFFFFFFFFFFFFFFF AND PUSH4 0x150B7A02 PUSH2 0xF47 PUSH2 0xB77 JUMP JUMPDEST DUP7 DUP6 DUP6 PUSH1 0x40 MLOAD DUP6 PUSH4 0xFFFFFFFF AND PUSH1 0xE0 SHL DUP2 MSTORE PUSH1 0x4 ADD PUSH2 0xF69 SWAP5 SWAP4 SWAP3 SWAP2 SWAP1 PUSH2 0x20D3 JUMP JUMPDEST PUSH1 0x20 PUSH1 0x40 MLOAD DUP1 DUP4 SUB DUP2 PUSH0 DUP8 GAS CALL SWAP3 POP POP POP DUP1 ISZERO PUSH2 0xFA4 JUMPI POP PUSH1 0x40 MLOAD RETURNDATASIZE PUSH1 0x1F NOT PUSH1 0x1F DUP3 ADD AND DUP3 ADD DUP1 PUSH1 0x40 MSTORE POP DUP2 ADD SWAP1 PUSH2 0xFA1 SWAP2 SWAP1 PUSH2 0x2131 JUMP JUMPDEST PUSH1 0x1 JUMPDEST PUSH2 0x1025 JUMPI RETURNDATASIZE DUP1 PUSH0 DUP2 EQ PUSH2 0xFD2 JUMPI PUSH1 0x40 MLOAD SWAP2 POP PUSH1 0x1F NOT PUSH1 0x3F RETURNDATASIZE ADD AND DUP3 ADD PUSH1 0x40 MSTORE RETURNDATASIZE DUP3 MSTORE RETURNDATASIZE PUSH0 PUSH1 0x20 DUP5 ADD RETURNDATACOPY PUSH2 0xFD7 JUMP JUMPDEST PUSH1 0x60 SWAP2 POP JUMPDEST POP PUSH0 DUP2 MLOAD SUB PUSH2 0x101D JUMPI DUP4 PUSH1 0x40 MLOAD PUSH32 0x64A0AE9200000000000000000000000000000000000000000000000000000000 DUP2 MSTORE PUSH1 0x4 ADD PUSH2 0x1014 SWAP2 SWAP1 PUSH2 0x1A6F JUMP JUMPDEST PUSH1 0x40 MLOAD DUP1 SWAP2 SUB SWAP1 REVERT JUMPDEST DUP1 MLOAD DUP2 PUSH1 0x20 ADD REVERT JUMPDEST PUSH4 0x150B7A02 PUSH1 0xE0 SHL PUSH28 0xFFFFFFFFFFFFFFFFFFFFFFFFFFFFFFFFFFFFFFFFFFFFFFFFFFFFFFFF NOT AND DUP2 PUSH28 0xFFFFFFFFFFFFFFFFFFFFFFFFFFFFFFFFFFFFFFFFFFFFFFFFFFFFFFFF NOT AND EQ PUSH2 0x10AE JUMPI DUP4 PUSH1 0x40 MLOAD PUSH32 0x64A0AE9200000000000000000000000000000000000000000000000000000000 DUP2 MSTORE PUSH1 0x4 ADD PUSH2 0x10A5 SWAP2 SWAP1 PUSH2 0x1A6F JUMP JUMPDEST PUSH1 0x40 MLOAD DUP1 SWAP2 SUB SWAP1 REVERT JUMPDEST POP JUMPDEST POP POP POP POP JUMP JUMPDEST PUSH1 0x60 PUSH1 0x40 MLOAD DUP1 PUSH1 0x20 ADD PUSH1 0x40 MSTORE DUP1 PUSH0 DUP2 MSTORE POP SWAP1 POP SWAP1 JUMP JUMPDEST PUSH1 0x60 PUSH2 0x10D7 DUP3 PUSH2 0xAB8 JUMP JUMPDEST POP PUSH0 PUSH2 0x10E1 PUSH2 0x10B6 JUMP JUMPDEST SWAP1 POP PUSH0 DUP2 MLOAD GT PUSH2 0x10FF JUMPI PUSH1 0x40 MLOAD DUP1 PUSH1 0x20 ADD PUSH1 0x40 MSTORE DUP1 PUSH0 DUP2 MSTORE POP PUSH2 0x112A JUMP JUMPDEST DUP1 PUSH2 0x1109 DUP5 PUSH2 0x15A3 JUMP JUMPDEST PUSH1 0x40 MLOAD PUSH1 0x20 ADD PUSH2 0x111A SWAP3 SWAP2 SWAP1 PUSH2 0x1F96 JUMP JUMPDEST PUSH1 0x40 MLOAD PUSH1 0x20 DUP2 DUP4 SUB SUB DUP2 MSTORE SWAP1 PUSH1 0x40 MSTORE JUMPDEST SWAP2 POP POP SWAP2 SWAP1 POP JUMP JUMPDEST PUSH0 PUSH20 0xFFFFFFFFFFFFFFFFFFFFFFFFFFFFFFFFFFFFFFFF AND DUP3 PUSH20 0xFFFFFFFFFFFFFFFFFFFFFFFFFFFFFFFFFFFFFFFF AND SUB PUSH2 0x11A2 JUMPI PUSH0 PUSH1 0x40 MLOAD PUSH32 0x64A0AE9200000000000000000000000000000000000000000000000000000000 DUP2 MSTORE PUSH1 0x4 ADD PUSH2 0x1199 SWAP2 SWAP1 PUSH2 0x1A6F JUMP JUMPDEST PUSH1 0x40 MLOAD DUP1 SWAP2 SUB SWAP1 REVERT JUMPDEST PUSH0 PUSH2 0x11AE DUP4 DUP4 PUSH0 PUSH2 0xB90 JUMP JUMPDEST SWAP1 POP PUSH0 PUSH20 0xFFFFFFFFFFFFFFFFFFFFFFFFFFFFFFFFFFFFFFFF AND DUP2 PUSH20 0xFFFFFFFFFFFFFFFFFFFFFFFFFFFFFFFFFFFFFFFF AND EQ PUSH2 0x1220 JUMPI PUSH0 PUSH1 0x40 MLOAD PUSH32 0x73C6AC6E00000000000000000000000000000000000000000000000000000000 DUP2 MSTORE PUSH1 0x4 ADD PUSH2 0x1217 SWAP2 SWAP1 PUSH2 0x1A6F JUMP JUMPDEST PUSH1 0x40 MLOAD DUP1 SWAP2 SUB SWAP1 REVERT JUMPDEST POP POP POP JUMP JUMPDEST DUP1 PUSH1 0x6 PUSH0 DUP5 DUP2 MSTORE PUSH1 0x20 ADD SWAP1 DUP2 MSTORE PUSH1 0x20 ADD PUSH0 KECCAK256 SWAP1 DUP2 PUSH2 0x1243 SWAP2 SWAP1 PUSH2 0x22F9 JUMP JUMPDEST POP PUSH32 0xF8E1A15ABA9398E019F0B49DF1A4FDE98EE17AE345CB5F6B5E2C27F5033E8CE7 DUP3 PUSH1 0x40 MLOAD PUSH2 0x1273 SWAP2 SWAP1 PUSH2 0x1B7A JUMP JUMPDEST PUSH1 0x40 MLOAD DUP1 SWAP2 SUB SWAP1 LOG1 POP POP JUMP JUMPDEST PUSH0 PUSH32 0x1FFC9A700000000000000000000000000000000000000000000000000000000 PUSH28 0xFFFFFFFFFFFFFFFFFFFFFFFFFFFFFFFFFFFFFFFFFFFFFFFFFFFFFFFF NOT AND DUP3 PUSH28 0xFFFFFFFFFFFFFFFFFFFFFFFFFFFFFFFFFFFFFFFFFFFFFFFFFFFFFFFF NOT AND EQ SWAP1 POP SWAP2 SWAP1 POP JUMP JUMPDEST PUSH0 PUSH1 0x2 PUSH0 DUP4 DUP2 MSTORE PUSH1 0x20 ADD SWAP1 DUP2 MSTORE PUSH1 0x20 ADD PUSH0 KECCAK256 PUSH0 SWAP1 SLOAD SWAP1 PUSH2 0x100 EXP SWAP1 DIV PUSH20 0xFFFFFFFFFFFFFFFFFFFFFFFFFFFFFFFFFFFFFFFF AND SWAP1 POP SWAP2 SWAP1 POP JUMP JUMPDEST DUP1 DUP1 PUSH2 0x1359 JUMPI POP PUSH0 PUSH20 0xFFFFFFFFFFFFFFFFFFFFFFFFFFFFFFFFFFFFFFFF AND DUP3 PUSH20 0xFFFFFFFFFFFFFFFFFFFFFFFFFFFFFFFFFFFFFFFF AND EQ ISZERO JUMPDEST ISZERO PUSH2 0x148B JUMPI PUSH0 PUSH2 0x1368 DUP5 PUSH2 0xAB8 JUMP JUMPDEST SWAP1 POP PUSH0 PUSH20 0xFFFFFFFFFFFFFFFFFFFFFFFFFFFFFFFFFFFFFFFF AND DUP4 PUSH20 0xFFFFFFFFFFFFFFFFFFFFFFFFFFFFFFFFFFFFFFFF AND EQ ISZERO DUP1 ISZERO PUSH2 0x13D2 JUMPI POP DUP3 PUSH20 0xFFFFFFFFFFFFFFFFFFFFFFFFFFFFFFFFFFFFFFFF AND DUP2 PUSH20 0xFFFFFFFFFFFFFFFFFFFFFFFFFFFFFFFFFFFFFFFF AND EQ ISZERO JUMPDEST DUP1 ISZERO PUSH2 0x13E5 JUMPI POP PUSH2 0x13E3 DUP2 DUP5 PUSH2 0x867 JUMP JUMPDEST ISZERO JUMPDEST ISZERO PUSH2 0x1427 JUMPI DUP3 PUSH1 0x40 MLOAD PUSH32 0xA9FBF51F00000000000000000000000000000000000000000000000000000000 DUP2 MSTORE PUSH1 0x4 ADD PUSH2 0x141E SWAP2 SWAP1 PUSH2 0x1A6F JUMP JUMPDEST PUSH1 0x40 MLOAD DUP1 SWAP2 SUB SWAP1 REVERT JUMPDEST DUP2 ISZERO PUSH2 0x1489 JUMPI DUP4 DUP6 PUSH20 0xFFFFFFFFFFFFFFFFFFFFFFFFFFFFFFFFFFFFFFFF AND DUP3 PUSH20 0xFFFFFFFFFFFFFFFFFFFFFFFFFFFFFFFFFFFFFFFF AND PUSH32 0x8C5BE1E5EBEC7D5BD14F71427D1E84F3DD0314C0F7B2291E5B200AC8C7C3B925 PUSH1 0x40 MLOAD PUSH1 0x40 MLOAD DUP1 SWAP2 SUB SWAP1 LOG4 JUMPDEST POP JUMPDEST DUP4 PUSH1 0x4 PUSH0 DUP6 DUP2 MSTORE PUSH1 0x20 ADD SWAP1 DUP2 MSTORE PUSH1 0x20 ADD PUSH0 KECCAK256 PUSH0 PUSH2 0x100 EXP DUP2 SLOAD DUP2 PUSH20 0xFFFFFFFFFFFFFFFFFFFFFFFFFFFFFFFFFFFFFFFF MUL NOT AND SWAP1 DUP4 PUSH20 0xFFFFFFFFFFFFFFFFFFFFFFFFFFFFFFFFFFFFFFFF AND MUL OR SWAP1 SSTORE POP POP POP POP POP JUMP JUMPDEST PUSH2 0x14EB DUP4 DUP4 DUP4 PUSH2 0x166D JUMP JUMPDEST PUSH2 0x159E JUMPI PUSH0 PUSH20 0xFFFFFFFFFFFFFFFFFFFFFFFFFFFFFFFFFFFFFFFF AND DUP4 PUSH20 0xFFFFFFFFFFFFFFFFFFFFFFFFFFFFFFFFFFFFFFFF AND SUB PUSH2 0x155F JUMPI DUP1 PUSH1 0x40 MLOAD PUSH32 0x7E27328900000000000000000000000000000000000000000000000000000000 DUP2 MSTORE PUSH1 0x4 ADD PUSH2 0x1556 SWAP2 SWAP1 PUSH2 0x1B7A JUMP JUMPDEST PUSH1 0x40 MLOAD DUP1 SWAP2 SUB SWAP1 REVERT JUMPDEST DUP2 DUP2 PUSH1 0x40 MLOAD PUSH32 0x177E802F00000000000000000000000000000000000000000000000000000000 DUP2 MSTORE PUSH1 0x4 ADD PUSH2 0x1595 SWAP3 SWAP2 SWAP1 PUSH2 0x23C8 JUMP JUMPDEST PUSH1 0x40 MLOAD DUP1 SWAP2 SUB SWAP1 REVERT JUMPDEST POP POP POP JUMP JUMPDEST PUSH1 0x60 PUSH0 PUSH1 0x1 PUSH2 0x15B1 DUP5 PUSH2 0x172D JUMP JUMPDEST ADD SWAP1 POP PUSH0 DUP2 PUSH8 0xFFFFFFFFFFFFFFFF DUP2 GT ISZERO PUSH2 0x15CF JUMPI PUSH2 0x15CE PUSH2 0x1C03 JUMP JUMPDEST JUMPDEST PUSH1 0x40 MLOAD SWAP1 DUP1 DUP3 MSTORE DUP1 PUSH1 0x1F ADD PUSH1 0x1F NOT AND PUSH1 0x20 ADD DUP3 ADD PUSH1 0x40 MSTORE DUP1 ISZERO PUSH2 0x1601 JUMPI DUP2 PUSH1 0x20 ADD PUSH1 0x1 DUP3 MUL DUP1 CALLDATASIZE DUP4 CALLDATACOPY DUP1 DUP3 ADD SWAP2 POP POP SWAP1 POP JUMPDEST POP SWAP1 POP PUSH0 DUP3 PUSH1 0x20 ADD DUP3 ADD SWAP1 POP JUMPDEST PUSH1 0x1 ISZERO PUSH2 0x1662 JUMPI DUP1 DUP1 PUSH1 0x1 SWAP1 SUB SWAP2 POP POP PUSH32 0x3031323334353637383961626364656600000000000000000000000000000000 PUSH1 0xA DUP7 MOD BYTE DUP2 MSTORE8 PUSH1 0xA DUP6 DUP2 PUSH2 0x1657 JUMPI PUSH2 0x1656 PUSH2 0x23EF JUMP JUMPDEST JUMPDEST DIV SWAP5 POP PUSH0 DUP6 SUB PUSH2 0x160E JUMPI JUMPDEST DUP2 SWAP4 POP POP POP POP SWAP2 SWAP1 POP JUMP JUMPDEST PUSH0 DUP1 PUSH20 0xFFFFFFFFFFFFFFFFFFFFFFFFFFFFFFFFFFFFFFFF AND DUP4 PUSH20 0xFFFFFFFFFFFFFFFFFFFFFFFFFFFFFFFFFFFFFFFF AND EQ ISZERO DUP1 ISZERO PUSH2 0x1724 JUMPI POP DUP3 PUSH20 0xFFFFFFFFFFFFFFFFFFFFFFFFFFFFFFFFFFFFFFFF AND DUP5 PUSH20 0xFFFFFFFFFFFFFFFFFFFFFFFFFFFFFFFFFFFFFFFF AND EQ DUP1 PUSH2 0x16E5 JUMPI POP PUSH2 0x16E4 DUP5 DUP5 PUSH2 0x867 JUMP JUMPDEST JUMPDEST DUP1 PUSH2 0x1723 JUMPI POP DUP3 PUSH20 0xFFFFFFFFFFFFFFFFFFFFFFFFFFFFFFFFFFFFFFFF AND PUSH2 0x170B DUP4 PUSH2 0xB3E JUMP JUMPDEST PUSH20 0xFFFFFFFFFFFFFFFFFFFFFFFFFFFFFFFFFFFFFFFF AND EQ JUMPDEST JUMPDEST SWAP1 POP SWAP4 SWAP3 POP POP POP JUMP JUMPDEST PUSH0 DUP1 PUSH0 SWAP1 POP PUSH27 0x184F03E93FF9F4DAA797ED6E38ED64BF6A1F010000000000000000 DUP4 LT PUSH2 0x1789 JUMPI PUSH27 0x184F03E93FF9F4DAA797ED6E38ED64BF6A1F010000000000000000 DUP4 DUP2 PUSH2 0x177F JUMPI PUSH2 0x177E PUSH2 0x23EF JUMP JUMPDEST JUMPDEST DIV SWAP3 POP PUSH1 0x40 DUP2 ADD SWAP1 POP JUMPDEST PUSH14 0x4EE2D6D415B85ACEF8100000000 DUP4 LT PUSH2 0x17C6 JUMPI PUSH14 0x4EE2D6D415B85ACEF8100000000 DUP4 DUP2 PUSH2 0x17BC JUMPI PUSH2 0x17BB PUSH2 0x23EF JUMP JUMPDEST JUMPDEST DIV SWAP3 POP PUSH1 0x20 DUP2 ADD SWAP1 POP JUMPDEST PUSH7 0x2386F26FC10000 DUP4 LT PUSH2 0x17F5 JUMPI PUSH7 0x2386F26FC10000 DUP4 DUP2 PUSH2 0x17EB JUMPI PUSH2 0x17EA PUSH2 0x23EF JUMP JUMPDEST JUMPDEST DIV SWAP3 POP PUSH1 0x10 DUP2 ADD SWAP1 POP JUMPDEST PUSH4 0x5F5E100 DUP4 LT PUSH2 0x181E JUMPI PUSH4 0x5F5E100 DUP4 DUP2 PUSH2 0x1814 JUMPI PUSH2 0x1813 PUSH2 0x23EF JUMP JUMPDEST JUMPDEST DIV SWAP3 POP PUSH1 0x8 DUP2 ADD SWAP1 POP JUMPDEST PUSH2 0x2710 DUP4 LT PUSH2 0x1843 JUMPI PUSH2 0x2710 DUP4 DUP2 PUSH2 0x1839 JUMPI PUSH2 0x1838 PUSH2 0x23EF JUMP JUMPDEST JUMPDEST DIV SWAP3 POP PUSH1 0x4 DUP2 ADD SWAP1 POP JUMPDEST PUSH1 0x64 DUP4 LT PUSH2 0x1866 JUMPI PUSH1 0x64 DUP4 DUP2 PUSH2 0x185C JUMPI PUSH2 0x185B PUSH2 0x23EF JUMP JUMPDEST JUMPDEST DIV SWAP3 POP PUSH1 0x2 DUP2 ADD SWAP1 POP JUMPDEST PUSH1 0xA DUP4 LT PUSH2 0x1875 JUMPI PUSH1 0x1 DUP2 ADD SWAP1 POP JUMPDEST DUP1 SWAP2 POP POP SWAP2 SWAP1 POP JUMP JUMPDEST PUSH0 PUSH1 0x40 MLOAD SWAP1 POP SWAP1 JUMP JUMPDEST PUSH0 DUP1 REVERT JUMPDEST PUSH0 DUP1 REVERT JUMPDEST PUSH0 PUSH32 0xFFFFFFFF00000000000000000000000000000000000000000000000000000000 DUP3 AND SWAP1 POP SWAP2 SWAP1 POP JUMP JUMPDEST PUSH2 0x18C3 DUP2 PUSH2 0x188F JUMP JUMPDEST DUP2 EQ PUSH2 0x18CD JUMPI PUSH0 DUP1 REVERT JUMPDEST POP JUMP JUMPDEST PUSH0 DUP2 CALLDATALOAD SWAP1 POP PUSH2 0x18DE DUP2 PUSH2 0x18BA JUMP JUMPDEST SWAP3 SWAP2 POP POP JUMP JUMPDEST PUSH0 PUSH1 0x20 DUP3 DUP5 SUB SLT ISZERO PUSH2 0x18F9 JUMPI PUSH2 0x18F8 PUSH2 0x1887 JUMP JUMPDEST JUMPDEST PUSH0 PUSH2 0x1906 DUP5 DUP3 DUP6 ADD PUSH2 0x18D0 JUMP JUMPDEST SWAP2 POP POP SWAP3 SWAP2 POP POP JUMP JUMPDEST PUSH0 DUP2 ISZERO ISZERO SWAP1 POP SWAP2 SWAP1 POP JUMP JUMPDEST PUSH2 0x1923 DUP2 PUSH2 0x190F JUMP JUMPDEST DUP3 MSTORE POP POP JUMP JUMPDEST PUSH0 PUSH1 0x20 DUP3 ADD SWAP1 POP PUSH2 0x193C PUSH0 DUP4 ADD DUP5 PUSH2 0x191A JUMP JUMPDEST SWAP3 SWAP2 POP POP JUMP JUMPDEST PUSH0 DUP2 MLOAD SWAP1 POP SWAP2 SWAP1 POP JUMP JUMPDEST PUSH0 DUP3 DUP3 MSTORE PUSH1 0x20 DUP3 ADD SWAP1 POP SWAP3 SWAP2 POP POP JUMP JUMPDEST DUP3 DUP2 DUP4 MCOPY PUSH0 DUP4 DUP4 ADD MSTORE POP POP POP JUMP JUMPDEST PUSH0 PUSH1 0x1F NOT PUSH1 0x1F DUP4 ADD AND SWAP1 POP SWAP2 SWAP1 POP JUMP JUMPDEST PUSH0 PUSH2 0x1984 DUP3 PUSH2 0x1942 JUMP JUMPDEST PUSH2 0x198E DUP2 DUP6 PUSH2 0x194C JUMP JUMPDEST SWAP4 POP PUSH2 0x199E DUP2 DUP6 PUSH1 0x20 DUP7 ADD PUSH2 0x195C JUMP JUMPDEST PUSH2 0x19A7 DUP2 PUSH2 0x196A JUMP JUMPDEST DUP5 ADD SWAP2 POP POP SWAP3 SWAP2 POP POP JUMP JUMPDEST PUSH0 PUSH1 0x20 DUP3 ADD SWAP1 POP DUP2 DUP2 SUB PUSH0 DUP4 ADD MSTORE PUSH2 0x19CA DUP2 DUP5 PUSH2 0x197A JUMP JUMPDEST SWAP1 POP SWAP3 SWAP2 POP POP JUMP JUMPDEST PUSH0 DUP2 SWAP1 POP SWAP2 SWAP1 POP JUMP JUMPDEST PUSH2 0x19E4 DUP2 PUSH2 0x19D2 JUMP JUMPDEST DUP2 EQ PUSH2 0x19EE JUMPI PUSH0 DUP1 REVERT JUMPDEST POP JUMP JUMPDEST PUSH0 DUP2 CALLDATALOAD SWAP1 POP PUSH2 0x19FF DUP2 PUSH2 0x19DB JUMP JUMPDEST SWAP3 SWAP2 POP POP JUMP JUMPDEST PUSH0 PUSH1 0x20 DUP3 DUP5 SUB SLT ISZERO PUSH2 0x1A1A JUMPI PUSH2 0x1A19 PUSH2 0x1887 JUMP JUMPDEST JUMPDEST PUSH0 PUSH2 0x1A27 DUP5 DUP3 DUP6 ADD PUSH2 0x19F1 JUMP JUMPDEST SWAP2 POP POP SWAP3 SWAP2 POP POP JUMP JUMPDEST PUSH0 PUSH20 0xFFFFFFFFFFFFFFFFFFFFFFFFFFFFFFFFFFFFFFFF DUP3 AND SWAP1 POP SWAP2 SWAP1 POP JUMP JUMPDEST PUSH0 PUSH2 0x1A59 DUP3 PUSH2 0x1A30 JUMP JUMPDEST SWAP1 POP SWAP2 SWAP1 POP JUMP JUMPDEST PUSH2 0x1A69 DUP2 PUSH2 0x1A4F JUMP JUMPDEST DUP3 MSTORE POP POP JUMP JUMPDEST PUSH0 PUSH1 0x20 DUP3 ADD SWAP1 POP PUSH2 0x1A82 PUSH0 DUP4 ADD DUP5 PUSH2 0x1A60 JUMP JUMPDEST SWAP3 SWAP2 POP POP JUMP JUMPDEST PUSH2 0x1A91 DUP2 PUSH2 0x1A4F JUMP JUMPDEST DUP2 EQ PUSH2 0x1A9B JUMPI PUSH0 DUP1 REVERT JUMPDEST POP JUMP JUMPDEST PUSH0 DUP2 CALLDATALOAD SWAP1 POP PUSH2 0x1AAC DUP2 PUSH2 0x1A88 JUMP JUMPDEST SWAP3 SWAP2 POP POP JUMP JUMPDEST PUSH0 DUP1 PUSH1 0x40 DUP4 DUP6 SUB SLT ISZERO PUSH2 0x1AC8 JUMPI PUSH2 0x1AC7 PUSH2 0x1887 JUMP JUMPDEST JUMPDEST PUSH0 PUSH2 0x1AD5 DUP6 DUP3 DUP7 ADD PUSH2 0x1A9E JUMP JUMPDEST SWAP3 POP POP PUSH1 0x20 PUSH2 0x1AE6 DUP6 DUP3 DUP7 ADD PUSH2 0x19F1 JUMP JUMPDEST SWAP2 POP POP SWAP3 POP SWAP3 SWAP1 POP JUMP JUMPDEST PUSH0 DUP1 PUSH0 PUSH1 0x60 DUP5 DUP7 SUB SLT ISZERO PUSH2 0x1B07 JUMPI PUSH2 0x1B06 PUSH2 0x1887 JUMP JUMPDEST JUMPDEST PUSH0 PUSH2 0x1B14 DUP7 DUP3 DUP8 ADD PUSH2 0x1A9E JUMP JUMPDEST SWAP4 POP POP PUSH1 0x20 PUSH2 0x1B25 DUP7 DUP3 DUP8 ADD PUSH2 0x1A9E JUMP JUMPDEST SWAP3 POP POP PUSH1 0x40 PUSH2 0x1B36 DUP7 DUP3 DUP8 ADD PUSH2 0x19F1 JUMP JUMPDEST SWAP2 POP POP SWAP3 POP SWAP3 POP SWAP3 JUMP JUMPDEST PUSH0 PUSH1 0x20 DUP3 DUP5 SUB SLT ISZERO PUSH2 0x1B55 JUMPI PUSH2 0x1B54 PUSH2 0x1887 JUMP JUMPDEST JUMPDEST PUSH0 PUSH2 0x1B62 DUP5 DUP3 DUP6 ADD PUSH2 0x1A9E JUMP JUMPDEST SWAP2 POP POP SWAP3 SWAP2 POP POP JUMP JUMPDEST PUSH2 0x1B74 DUP2 PUSH2 0x19D2 JUMP JUMPDEST DUP3 MSTORE POP POP JUMP JUMPDEST PUSH0 PUSH1 0x20 DUP3 ADD SWAP1 POP PUSH2 0x1B8D PUSH0 DUP4 ADD DUP5 PUSH2 0x1B6B JUMP JUMPDEST SWAP3 SWAP2 POP POP JUMP JUMPDEST PUSH2 0x1B9C DUP2 PUSH2 0x190F JUMP JUMPDEST DUP2 EQ PUSH2 0x1BA6 JUMPI PUSH0 DUP1 REVERT JUMPDEST POP JUMP JUMPDEST PUSH0 DUP2 CALLDATALOAD SWAP1 POP PUSH2 0x1BB7 DUP2 PUSH2 0x1B93 JUMP JUMPDEST SWAP3 SWAP2 POP POP JUMP JUMPDEST PUSH0 DUP1 PUSH1 0x40 DUP4 DUP6 SUB SLT ISZERO PUSH2 0x1BD3 JUMPI PUSH2 0x1BD2 PUSH2 0x1887 JUMP JUMPDEST JUMPDEST PUSH0 PUSH2 0x1BE0 DUP6 DUP3 DUP7 ADD PUSH2 0x1A9E JUMP JUMPDEST SWAP3 POP POP PUSH1 0x20 PUSH2 0x1BF1 DUP6 DUP3 DUP7 ADD PUSH2 0x1BA9 JUMP JUMPDEST SWAP2 POP POP SWAP3 POP SWAP3 SWAP1 POP JUMP JUMPDEST PUSH0 DUP1 REVERT JUMPDEST PUSH0 DUP1 REVERT JUMPDEST PUSH32 0x4E487B7100000000000000000000000000000000000000000000000000000000 PUSH0 MSTORE PUSH1 0x41 PUSH1 0x4 MSTORE PUSH1 0x24 PUSH0 REVERT JUMPDEST PUSH2 0x1C39 DUP3 PUSH2 0x196A JUMP JUMPDEST DUP2 ADD DUP2 DUP2 LT PUSH8 0xFFFFFFFFFFFFFFFF DUP3 GT OR ISZERO PUSH2 0x1C58 JUMPI PUSH2 0x1C57 PUSH2 0x1C03 JUMP JUMPDEST JUMPDEST DUP1 PUSH1 0x40 MSTORE POP POP POP JUMP JUMPDEST PUSH0 PUSH2 0x1C6A PUSH2 0x187E JUMP JUMPDEST SWAP1 POP PUSH2 0x1C76 DUP3 DUP3 PUSH2 0x1C30 JUMP JUMPDEST SWAP2 SWAP1 POP JUMP JUMPDEST PUSH0 PUSH8 0xFFFFFFFFFFFFFFFF DUP3 GT ISZERO PUSH2 0x1C95 JUMPI PUSH2 0x1C94 PUSH2 0x1C03 JUMP JUMPDEST JUMPDEST PUSH2 0x1C9E DUP3 PUSH2 0x196A JUMP JUMPDEST SWAP1 POP PUSH1 0x20 DUP2 ADD SWAP1 POP SWAP2 SWAP1 POP JUMP JUMPDEST DUP3 DUP2 DUP4 CALLDATACOPY PUSH0 DUP4 DUP4 ADD MSTORE POP POP POP JUMP JUMPDEST PUSH0 PUSH2 0x1CCB PUSH2 0x1CC6 DUP5 PUSH2 0x1C7B JUMP JUMPDEST PUSH2 0x1C61 JUMP JUMPDEST SWAP1 POP DUP3 DUP2 MSTORE PUSH1 0x20 DUP2 ADD DUP5 DUP5 DUP5 ADD GT ISZERO PUSH2 0x1CE7 JUMPI PUSH2 0x1CE6 PUSH2 0x1BFF JUMP JUMPDEST JUMPDEST PUSH2 0x1CF2 DUP5 DUP3 DUP6 PUSH2 0x1CAB JUMP JUMPDEST POP SWAP4 SWAP3 POP POP POP JUMP JUMPDEST PUSH0 DUP3 PUSH1 0x1F DUP4 ADD SLT PUSH2 0x1D0E JUMPI PUSH2 0x1D0D PUSH2 0x1BFB JUMP JUMPDEST JUMPDEST DUP2 CALLDATALOAD PUSH2 0x1D1E DUP5 DUP3 PUSH1 0x20 DUP7 ADD PUSH2 0x1CB9 JUMP JUMPDEST SWAP2 POP POP SWAP3 SWAP2 POP POP JUMP JUMPDEST PUSH0 DUP1 PUSH0 DUP1 PUSH1 0x80 DUP6 DUP8 SUB SLT ISZERO PUSH2 0x1D3F JUMPI PUSH2 0x1D3E PUSH2 0x1887 JUMP JUMPDEST JUMPDEST PUSH0 PUSH2 0x1D4C DUP8 DUP3 DUP9 ADD PUSH2 0x1A9E JUMP JUMPDEST SWAP5 POP POP PUSH1 0x20 PUSH2 0x1D5D DUP8 DUP3 DUP9 ADD PUSH2 0x1A9E JUMP JUMPDEST SWAP4 POP POP PUSH1 0x40 PUSH2 0x1D6E DUP8 DUP3 DUP9 ADD PUSH2 0x19F1 JUMP JUMPDEST SWAP3 POP POP PUSH1 0x60 DUP6 ADD CALLDATALOAD PUSH8 0xFFFFFFFFFFFFFFFF DUP2 GT ISZERO PUSH2 0x1D8F JUMPI PUSH2 0x1D8E PUSH2 0x188B JUMP JUMPDEST JUMPDEST PUSH2 0x1D9B DUP8 DUP3 DUP9 ADD PUSH2 0x1CFA JUMP JUMPDEST SWAP2 POP POP SWAP3 SWAP6 SWAP2 SWAP5 POP SWAP3 POP JUMP JUMPDEST PUSH0 DUP1 PUSH1 0x40 DUP4 DUP6 SUB SLT ISZERO PUSH2 0x1DBD JUMPI PUSH2 0x1DBC PUSH2 0x1887 JUMP JUMPDEST JUMPDEST PUSH0 PUSH2 0x1DCA DUP6 DUP3 DUP7 ADD PUSH2 0x1A9E JUMP JUMPDEST SWAP3 POP POP PUSH1 0x20 PUSH2 0x1DDB DUP6 DUP3 DUP7 ADD PUSH2 0x1A9E JUMP JUMPDEST SWAP2 POP POP SWAP3 POP SWAP3 SWAP1 POP JUMP JUMPDEST PUSH0 PUSH8 0xFFFFFFFFFFFFFFFF DUP3 GT ISZERO PUSH2 0x1DFF JUMPI PUSH2 0x1DFE PUSH2 0x1C03 JUMP JUMPDEST JUMPDEST PUSH2 0x1E08 DUP3 PUSH2 0x196A JUMP JUMPDEST SWAP1 POP PUSH1 0x20 DUP2 ADD SWAP1 POP SWAP2 SWAP1 POP JUMP JUMPDEST PUSH0 PUSH2 0x1E27 PUSH2 0x1E22 DUP5 PUSH2 0x1DE5 JUMP JUMPDEST PUSH2 0x1C61 JUMP JUMPDEST SWAP1 POP DUP3 DUP2 MSTORE PUSH1 0x20 DUP2 ADD DUP5 DUP5 DUP5 ADD GT ISZERO PUSH2 0x1E43 JUMPI PUSH2 0x1E42 PUSH2 0x1BFF JUMP JUMPDEST JUMPDEST PUSH2 0x1E4E DUP5 DUP3 DUP6 PUSH2 0x1CAB JUMP JUMPDEST POP SWAP4 SWAP3 POP POP POP JUMP JUMPDEST PUSH0 DUP3 PUSH1 0x1F DUP4 ADD SLT PUSH2 0x1E6A JUMPI PUSH2 0x1E69 PUSH2 0x1BFB JUMP JUMPDEST JUMPDEST DUP2 CALLDATALOAD PUSH2 0x1E7A DUP5 DUP3 PUSH1 0x20 DUP7 ADD PUSH2 0x1E15 JUMP JUMPDEST SWAP2 POP POP SWAP3 SWAP2 POP POP JUMP JUMPDEST PUSH0 PUSH1 0x20 DUP3 DUP5 SUB SLT ISZERO PUSH2 0x1E98 JUMPI PUSH2 0x1E97 PUSH2 0x1887 JUMP JUMPDEST JUMPDEST PUSH0 DUP3 ADD CALLDATALOAD PUSH8 0xFFFFFFFFFFFFFFFF DUP2 GT ISZERO PUSH2 0x1EB5 JUMPI PUSH2 0x1EB4 PUSH2 0x188B JUMP JUMPDEST JUMPDEST PUSH2 0x1EC1 DUP5 DUP3 DUP6 ADD PUSH2 0x1E56 JUMP JUMPDEST SWAP2 POP POP SWAP3 SWAP2 POP POP JUMP JUMPDEST PUSH32 0x4E487B7100000000000000000000000000000000000000000000000000000000 PUSH0 MSTORE PUSH1 0x22 PUSH1 0x4 MSTORE PUSH1 0x24 PUSH0 REVERT JUMPDEST PUSH0 PUSH1 0x2 DUP3 DIV SWAP1 POP PUSH1 0x1 DUP3 AND DUP1 PUSH2 0x1F0E JUMPI PUSH1 0x7F DUP3 AND SWAP2 POP JUMPDEST PUSH1 0x20 DUP3 LT DUP2 SUB PUSH2 0x1F21 JUMPI PUSH2 0x1F20 PUSH2 0x1ECA JUMP JUMPDEST JUMPDEST POP SWAP2 SWAP1 POP JUMP JUMPDEST PUSH0 PUSH1 0x60 DUP3 ADD SWAP1 POP PUSH2 0x1F3A PUSH0 DUP4 ADD DUP7 PUSH2 0x1A60 JUMP JUMPDEST PUSH2 0x1F47 PUSH1 0x20 DUP4 ADD DUP6 PUSH2 0x1B6B JUMP JUMPDEST PUSH2 0x1F54 PUSH1 0x40 DUP4 ADD DUP5 PUSH2 0x1A60 JUMP JUMPDEST SWAP5 SWAP4 POP POP POP POP JUMP JUMPDEST PUSH0 DUP2 SWAP1 POP SWAP3 SWAP2 POP POP JUMP JUMPDEST PUSH0 PUSH2 0x1F70 DUP3 PUSH2 0x1942 JUMP JUMPDEST PUSH2 0x1F7A DUP2 DUP6 PUSH2 0x1F5C JUMP JUMPDEST SWAP4 POP PUSH2 0x1F8A DUP2 DUP6 PUSH1 0x20 DUP7 ADD PUSH2 0x195C JUMP JUMPDEST DUP1 DUP5 ADD SWAP2 POP POP SWAP3 SWAP2 POP POP JUMP JUMPDEST PUSH0 PUSH2 0x1FA1 DUP3 DUP6 PUSH2 0x1F66 JUMP JUMPDEST SWAP2 POP PUSH2 0x1FAD DUP3 DUP5 PUSH2 0x1F66 JUMP JUMPDEST SWAP2 POP DUP2 SWAP1 POP SWAP4 SWAP3 POP POP POP JUMP JUMPDEST PUSH32 0x596F7520646F6E2774206861766520656E6F7567682066756E64730000000000 PUSH0 DUP3 ADD MSTORE POP JUMP JUMPDEST PUSH0 PUSH2 0x1FED PUSH1 0x1B DUP4 PUSH2 0x194C JUMP JUMPDEST SWAP2 POP PUSH2 0x1FF8 DUP3 PUSH2 0x1FB9 JUMP JUMPDEST PUSH1 0x20 DUP3 ADD SWAP1 POP SWAP2 SWAP1 POP JUMP JUMPDEST PUSH0 PUSH1 0x20 DUP3 ADD SWAP1 POP DUP2 DUP2 SUB PUSH0 DUP4 ADD MSTORE PUSH2 0x201A DUP2 PUSH2 0x1FE1 JUMP JUMPDEST SWAP1 POP SWAP2 SWAP1 POP JUMP JUMPDEST PUSH32 0x4E487B7100000000000000000000000000000000000000000000000000000000 PUSH0 MSTORE PUSH1 0x11 PUSH1 0x4 MSTORE PUSH1 0x24 PUSH0 REVERT JUMPDEST PUSH0 PUSH2 0x2058 DUP3 PUSH2 0x19D2 JUMP JUMPDEST SWAP2 POP PUSH2 0x2063 DUP4 PUSH2 0x19D2 JUMP JUMPDEST SWAP3 POP DUP3 DUP3 ADD SWAP1 POP DUP1 DUP3 GT ISZERO PUSH2 0x207B JUMPI PUSH2 0x207A PUSH2 0x2021 JUMP JUMPDEST JUMPDEST SWAP3 SWAP2 POP POP JUMP JUMPDEST PUSH0 DUP2 MLOAD SWAP1 POP SWAP2 SWAP1 POP JUMP JUMPDEST PUSH0 DUP3 DUP3 MSTORE PUSH1 0x20 DUP3 ADD SWAP1 POP SWAP3 SWAP2 POP POP JUMP JUMPDEST PUSH0 PUSH2 0x20A5 DUP3 PUSH2 0x2081 JUMP JUMPDEST PUSH2 0x20AF DUP2 DUP6 PUSH2 0x208B JUMP JUMPDEST SWAP4 POP PUSH2 0x20BF DUP2 DUP6 PUSH1 0x20 DUP7 ADD PUSH2 0x195C JUMP JUMPDEST PUSH2 0x20C8 DUP2 PUSH2 0x196A JUMP JUMPDEST DUP5 ADD SWAP2 POP POP SWAP3 SWAP2 POP POP JUMP JUMPDEST PUSH0 PUSH1 0x80 DUP3 ADD SWAP1 POP PUSH2 0x20E6 PUSH0 DUP4 ADD DUP8 PUSH2 0x1A60 JUMP JUMPDEST PUSH2 0x20F3 PUSH1 0x20 DUP4 ADD DUP7 PUSH2 0x1A60 JUMP JUMPDEST PUSH2 0x2100 PUSH1 0x40 DUP4 ADD DUP6 PUSH2 0x1B6B JUMP JUMPDEST DUP2 DUP2 SUB PUSH1 0x60 DUP4 ADD MSTORE PUSH2 0x2112 DUP2 DUP5 PUSH2 0x209B JUMP JUMPDEST SWAP1 POP SWAP6 SWAP5 POP POP POP POP POP JUMP JUMPDEST PUSH0 DUP2 MLOAD SWAP1 POP PUSH2 0x212B DUP2 PUSH2 0x18BA JUMP JUMPDEST SWAP3 SWAP2 POP POP JUMP JUMPDEST PUSH0 PUSH1 0x20 DUP3 DUP5 SUB SLT ISZERO PUSH2 0x2146 JUMPI PUSH2 0x2145 PUSH2 0x1887 JUMP JUMPDEST JUMPDEST PUSH0 PUSH2 0x2153 DUP5 DUP3 DUP6 ADD PUSH2 0x211D JUMP JUMPDEST SWAP2 POP POP SWAP3 SWAP2 POP POP JUMP JUMPDEST PUSH0 DUP2 SWAP1 POP DUP2 PUSH0 MSTORE PUSH1 0x20 PUSH0 KECCAK256 SWAP1 POP SWAP2 SWAP1 POP JUMP JUMPDEST PUSH0 PUSH1 0x20 PUSH1 0x1F DUP4 ADD DIV SWAP1 POP SWAP2 SWAP1 POP JUMP JUMPDEST PUSH0 DUP3 DUP3 SHL SWAP1 POP SWAP3 SWAP2 POP POP JUMP JUMPDEST PUSH0 PUSH1 0x8 DUP4 MUL PUSH2 0x21B8 PUSH32 0xFFFFFFFFFFFFFFFFFFFFFFFFFFFFFFFFFFFFFFFFFFFFFFFFFFFFFFFFFFFFFFFF DUP3 PUSH2 0x217D JUMP JUMPDEST PUSH2 0x21C2 DUP7 DUP4 PUSH2 0x217D JUMP JUMPDEST SWAP6 POP DUP1 NOT DUP5 AND SWAP4 POP DUP1 DUP7 AND DUP5 OR SWAP3 POP POP POP SWAP4 SWAP3 POP POP POP JUMP JUMPDEST PUSH0 DUP2 SWAP1 POP SWAP2 SWAP1 POP JUMP JUMPDEST PUSH0 PUSH2 0x21FD PUSH2 0x21F8 PUSH2 0x21F3 DUP5 PUSH2 0x19D2 JUMP JUMPDEST PUSH2 0x21DA JUMP JUMPDEST PUSH2 0x19D2 JUMP JUMPDEST SWAP1 POP SWAP2 SWAP1 POP JUMP JUMPDEST PUSH0 DUP2 SWAP1 POP SWAP2 SWAP1 POP JUMP JUMPDEST PUSH2 0x2216 DUP4 PUSH2 0x21E3 JUMP JUMPDEST PUSH2 0x222A PUSH2 0x2222 DUP3 PUSH2 0x2204 JUMP JUMPDEST DUP5 DUP5 SLOAD PUSH2 0x2189 JUMP JUMPDEST DUP3 SSTORE POP POP POP POP JUMP JUMPDEST PUSH0 SWAP1 JUMP JUMPDEST PUSH2 0x223E PUSH2 0x2232 JUMP JUMPDEST PUSH2 0x2249 DUP2 DUP5 DUP5 PUSH2 0x220D JUMP JUMPDEST POP POP POP JUMP JUMPDEST JUMPDEST DUP2 DUP2 LT ISZERO PUSH2 0x226C JUMPI PUSH2 0x2261 PUSH0 DUP3 PUSH2 0x2236 JUMP JUMPDEST PUSH1 0x1 DUP2 ADD SWAP1 POP PUSH2 0x224F JUMP JUMPDEST POP POP JUMP JUMPDEST PUSH1 0x1F DUP3 GT ISZERO PUSH2 0x22B1 JUMPI PUSH2 0x2282 DUP2 PUSH2 0x215C JUMP JUMPDEST PUSH2 0x228B DUP5 PUSH2 0x216E JUMP JUMPDEST DUP2 ADD PUSH1 0x20 DUP6 LT ISZERO PUSH2 0x229A JUMPI DUP2 SWAP1 POP JUMPDEST PUSH2 0x22AE PUSH2 0x22A6 DUP6 PUSH2 0x216E JUMP JUMPDEST DUP4 ADD DUP3 PUSH2 0x224E JUMP JUMPDEST POP POP JUMPDEST POP POP POP JUMP JUMPDEST PUSH0 DUP3 DUP3 SHR SWAP1 POP SWAP3 SWAP2 POP POP JUMP JUMPDEST PUSH0 PUSH2 0x22D1 PUSH0 NOT DUP5 PUSH1 0x8 MUL PUSH2 0x22B6 JUMP JUMPDEST NOT DUP1 DUP4 AND SWAP2 POP POP SWAP3 SWAP2 POP POP JUMP JUMPDEST PUSH0 PUSH2 0x22E9 DUP4 DUP4 PUSH2 0x22C2 JUMP JUMPDEST SWAP2 POP DUP3 PUSH1 0x2 MUL DUP3 OR SWAP1 POP SWAP3 SWAP2 POP POP JUMP JUMPDEST PUSH2 0x2302 DUP3 PUSH2 0x1942 JUMP JUMPDEST PUSH8 0xFFFFFFFFFFFFFFFF DUP2 GT ISZERO PUSH2 0x231B JUMPI PUSH2 0x231A PUSH2 0x1C03 JUMP JUMPDEST JUMPDEST PUSH2 0x2325 DUP3 SLOAD PUSH2 0x1EF7 JUMP JUMPDEST PUSH2 0x2330 DUP3 DUP3 DUP6 PUSH2 0x2270 JUMP JUMPDEST PUSH0 PUSH1 0x20 SWAP1 POP PUSH1 0x1F DUP4 GT PUSH1 0x1 DUP2 EQ PUSH2 0x2361 JUMPI PUSH0 DUP5 ISZERO PUSH2 0x234F JUMPI DUP3 DUP8 ADD MLOAD SWAP1 POP JUMPDEST PUSH2 0x2359 DUP6 DUP3 PUSH2 0x22DE JUMP JUMPDEST DUP7 SSTORE POP PUSH2 0x23C0 JUMP JUMPDEST PUSH1 0x1F NOT DUP5 AND PUSH2 0x236F DUP7 PUSH2 0x215C JUMP JUMPDEST PUSH0 JUMPDEST DUP3 DUP2 LT ISZERO PUSH2 0x2396 JUMPI DUP5 DUP10 ADD MLOAD DUP3 SSTORE PUSH1 0x1 DUP3 ADD SWAP2 POP PUSH1 0x20 DUP6 ADD SWAP5 POP PUSH1 0x20 DUP2 ADD SWAP1 POP PUSH2 0x2371 JUMP JUMPDEST DUP7 DUP4 LT ISZERO PUSH2 0x23B3 JUMPI DUP5 DUP10 ADD MLOAD PUSH2 0x23AF PUSH1 0x1F DUP10 AND DUP3 PUSH2 0x22C2 JUMP JUMPDEST DUP4 SSTORE POP JUMPDEST PUSH1 0x1 PUSH1 0x2 DUP9 MUL ADD DUP9 SSTORE POP POP POP JUMPDEST POP POP POP POP POP POP JUMP JUMPDEST PUSH0 PUSH1 0x40 DUP3 ADD SWAP1 POP PUSH2 0x23DB PUSH0 DUP4 ADD DUP6 PUSH2 0x1A60 JUMP JUMPDEST PUSH2 0x23E8 PUSH1 0x20 DUP4 ADD DUP5 PUSH2 0x1B6B JUMP JUMPDEST SWAP4 SWAP3 POP POP POP JUMP JUMPDEST PUSH32 0x4E487B7100000000000000000000000000000000000000000000000000000000 PUSH0 MSTORE PUSH1 0x12 PUSH1 0x4 MSTORE PUSH1 0x24 PUSH0 REVERT INVALID LOG2 PUSH5 0x6970667358 0x22 SLT KECCAK256 0xB5 0xC ADDRESS SIGNEXTEND OR 0xA6 DUP4 TIMESTAMP 0xC1 MLOAD 0x2D SUB CALLDATALOAD 0xB3 ISZERO SIGNEXTEND GT 0xCB 0xD4 0xDD 0xF7 0xAD PUSH11 0xEB3E1E8B0F9DAAD2646473 PUSH16 0x6C634300081900330000000000000000 "
				},
				"gasEstimates": {
					"creation": {
						"codeDepositCost": "1859600",
						"executionCost": "infinite",
						"totalCost": "infinite"
					},
					"external": {
						"approve(address,uint256)": "infinite",
						"balanceOf(address)": "infinite",
						"getApproved(uint256)": "infinite",
						"isApprovedForAll(address,address)": "infinite",
						"mintNFT(string)": "infinite",
						"name()": "infinite",
						"ownerOf(uint256)": "infinite",
						"safeTransferFrom(address,address,uint256)": "infinite",
						"safeTransferFrom(address,address,uint256,bytes)": "infinite",
						"setApprovalForAll(address,bool)": "infinite",
						"supportsInterface(bytes4)": "881",
						"symbol()": "infinite",
						"tokenURI(uint256)": "infinite",
						"transferFrom(address,address,uint256)": "infinite"
					}
				},
				"methodIdentifiers": {
					"approve(address,uint256)": "095ea7b3",
					"balanceOf(address)": "70a08231",
					"getApproved(uint256)": "081812fc",
					"isApprovedForAll(address,address)": "e985e9c5",
					"mintNFT(string)": "fb37e883",
					"name()": "06fdde03",
					"ownerOf(uint256)": "6352211e",
					"safeTransferFrom(address,address,uint256)": "42842e0e",
					"safeTransferFrom(address,address,uint256,bytes)": "b88d4fde",
					"setApprovalForAll(address,bool)": "a22cb465",
					"supportsInterface(bytes4)": "01ffc9a7",
					"symbol()": "95d89b41",
					"tokenURI(uint256)": "c87b56dd",
					"transferFrom(address,address,uint256)": "23b872dd"
				}
			},
			"storageLayout": {
				"storage": [
					{
						"astId": 201,
						"contract": "contracts/TokenBasic.sol:MyNFT",
						"label": "_name",
						"offset": 0,
						"slot": "0",
						"type": "t_string_storage"
					},
					{
						"astId": 203,
						"contract": "contracts/TokenBasic.sol:MyNFT",
						"label": "_symbol",
						"offset": 0,
						"slot": "1",
						"type": "t_string_storage"
					},
					{
						"astId": 207,
						"contract": "contracts/TokenBasic.sol:MyNFT",
						"label": "_owners",
						"offset": 0,
						"slot": "2",
						"type": "t_mapping(t_uint256,t_address)"
					},
					{
						"astId": 211,
						"contract": "contracts/TokenBasic.sol:MyNFT",
						"label": "_balances",
						"offset": 0,
						"slot": "3",
						"type": "t_mapping(t_address,t_uint256)"
					},
					{
						"astId": 215,
						"contract": "contracts/TokenBasic.sol:MyNFT",
						"label": "_tokenApprovals",
						"offset": 0,
						"slot": "4",
						"type": "t_mapping(t_uint256,t_address)"
					},
					{
						"astId": 221,
						"contract": "contracts/TokenBasic.sol:MyNFT",
						"label": "_operatorApprovals",
						"offset": 0,
						"slot": "5",
						"type": "t_mapping(t_address,t_mapping(t_address,t_bool))"
					},
					{
						"astId": 1340,
						"contract": "contracts/TokenBasic.sol:MyNFT",
						"label": "_tokenURIs",
						"offset": 0,
						"slot": "6",
						"type": "t_mapping(t_uint256,t_string_storage)"
					},
					{
						"astId": 2954,
						"contract": "contracts/TokenBasic.sol:MyNFT",
						"label": "_tokenIds",
						"offset": 0,
						"slot": "7",
						"type": "t_uint256"
					},
					{
						"astId": 2956,
						"contract": "contracts/TokenBasic.sol:MyNFT",
						"label": "owner",
						"offset": 0,
						"slot": "8",
						"type": "t_address_payable"
					},
					{
						"astId": 2958,
						"contract": "contracts/TokenBasic.sol:MyNFT",
						"label": "price",
						"offset": 0,
						"slot": "9",
						"type": "t_uint256"
					}
				],
				"types": {
					"t_address": {
						"encoding": "inplace",
						"label": "address",
						"numberOfBytes": "20"
					},
					"t_address_payable": {
						"encoding": "inplace",
						"label": "address payable",
						"numberOfBytes": "20"
					},
					"t_bool": {
						"encoding": "inplace",
						"label": "bool",
						"numberOfBytes": "1"
					},
					"t_mapping(t_address,t_bool)": {
						"encoding": "mapping",
						"key": "t_address",
						"label": "mapping(address => bool)",
						"numberOfBytes": "32",
						"value": "t_bool"
					},
					"t_mapping(t_address,t_mapping(t_address,t_bool))": {
						"encoding": "mapping",
						"key": "t_address",
						"label": "mapping(address => mapping(address => bool))",
						"numberOfBytes": "32",
						"value": "t_mapping(t_address,t_bool)"
					},
					"t_mapping(t_address,t_uint256)": {
						"encoding": "mapping",
						"key": "t_address",
						"label": "mapping(address => uint256)",
						"numberOfBytes": "32",
						"value": "t_uint256"
					},
					"t_mapping(t_uint256,t_address)": {
						"encoding": "mapping",
						"key": "t_uint256",
						"label": "mapping(uint256 => address)",
						"numberOfBytes": "32",
						"value": "t_address"
					},
					"t_mapping(t_uint256,t_string_storage)": {
						"encoding": "mapping",
						"key": "t_uint256",
						"label": "mapping(uint256 => string)",
						"numberOfBytes": "32",
						"value": "t_string_storage"
					},
					"t_string_storage": {
						"encoding": "bytes",
						"label": "string",
						"numberOfBytes": "32"
					},
					"t_uint256": {
						"encoding": "inplace",
						"label": "uint256",
						"numberOfBytes": "32"
					}
				}
			},
			"userdoc": {
				"kind": "user",
				"methods": {},
				"version": 1
			}
		}
	}
}