{
	"contracts/Event.sol": {
		"Event": {
			"abi": [
				{
					"inputs": [
						{
							"internalType": "uint256",
							"name": "_threshold",
							"type": "uint256"
						}
					],
					"stateMutability": "nonpayable",
					"type": "constructor"
				},
				{
					"anonymous": false,
					"inputs": [
						{
							"indexed": false,
							"internalType": "address",
							"name": "node",
							"type": "address"
						},
						{
							"indexed": false,
							"internalType": "string",
							"name": "message",
							"type": "string"
						},
						{
							"indexed": false,
							"internalType": "enum Event.Risk",
							"name": "risk",
							"type": "uint8"
						}
					],
					"name": "newAlertCreated",
					"type": "event"
				},
				{
					"anonymous": false,
					"inputs": [
						{
							"indexed": false,
							"internalType": "string",
							"name": "_event",
							"type": "string"
						}
					],
					"name": "newEventCreated",
					"type": "event"
				},
				{
					"inputs": [
						{
							"internalType": "uint256",
							"name": "",
							"type": "uint256"
						}
					],
					"name": "alerts",
					"outputs": [
						{
							"internalType": "string",
							"name": "message",
							"type": "string"
						},
						{
							"internalType": "enum Event.Risk",
							"name": "risk",
							"type": "uint8"
						},
						{
							"internalType": "address",
							"name": "node",
							"type": "address"
						}
					],
					"stateMutability": "view",
					"type": "function"
				},
				{
					"inputs": [
						{
							"internalType": "enum Event.Risk",
							"name": "risk",
							"type": "uint8"
						},
						{
							"internalType": "string",
							"name": "message",
							"type": "string"
						}
					],
					"name": "createAlert",
					"outputs": [
						{
							"internalType": "bool",
							"name": "success",
							"type": "bool"
						}
					],
					"stateMutability": "nonpayable",
					"type": "function"
				},
				{
					"inputs": [
						{
							"internalType": "string",
							"name": "_event",
							"type": "string"
						}
					],
					"name": "createEvent",
					"outputs": [
						{
							"internalType": "bool",
							"name": "success",
							"type": "bool"
						}
					],
					"stateMutability": "nonpayable",
					"type": "function"
				},
				{
					"inputs": [
						{
							"internalType": "address",
							"name": "",
							"type": "address"
						},
						{
							"internalType": "uint256",
							"name": "",
							"type": "uint256"
						}
					],
					"name": "events",
					"outputs": [
						{
							"internalType": "string",
							"name": "",
							"type": "string"
						}
					],
					"stateMutability": "view",
					"type": "function"
				},
				{
					"inputs": [
						{
							"internalType": "address",
							"name": "",
							"type": "address"
						}
					],
					"name": "eventsCounter",
					"outputs": [
						{
							"internalType": "uint256",
							"name": "",
							"type": "uint256"
						}
					],
					"stateMutability": "view",
					"type": "function"
				},
				{
					"inputs": [
						{
							"internalType": "uint256",
							"name": "_threshold",
							"type": "uint256"
						}
					],
					"name": "setThreshold",
					"outputs": [],
					"stateMutability": "nonpayable",
					"type": "function"
				},
				{
					"inputs": [],
					"name": "threshold",
					"outputs": [
						{
							"internalType": "uint256",
							"name": "",
							"type": "uint256"
						}
					],
					"stateMutability": "view",
					"type": "function"
				}
			],
			"devdoc": {
				"kind": "dev",
				"methods": {},
				"version": 1
			},
			"evm": {
				"assembly": "    /* \"contracts/Event.sol\":72:1566  contract Event {... */\n  mstore(0x40, 0x80)\n    /* \"contracts/Event.sol\":713:815  constructor(uint256 _threshold) {... */\n  callvalue\n  dup1\n  iszero\n  tag_1\n  jumpi\n  0x00\n  dup1\n  revert\ntag_1:\n  pop\n  mload(0x40)\n  sub(codesize, bytecodeSize)\n  dup1\n  bytecodeSize\n  dup4\n  codecopy\n  dup2\n  dup2\n  add\n  0x40\n  mstore\n  dup2\n  add\n  swap1\n  tag_2\n  swap2\n  swap1\n  tag_3\n  jump\t// in\ntag_2:\n    /* \"contracts/Event.sol\":768:778  _threshold */\n  dup1\n    /* \"contracts/Event.sol\":756:765  threshold */\n  0x03\n    /* \"contracts/Event.sol\":756:778  threshold = _threshold */\n  dup2\n  swap1\n  sstore\n  pop\n    /* \"contracts/Event.sol\":797:807  msg.sender */\n  caller\n    /* \"contracts/Event.sol\":789:794  owner */\n  0x04\n  0x00\n    /* \"contracts/Event.sol\":789:807  owner = msg.sender */\n  0x0100\n  exp\n  dup2\n  sload\n  dup2\n  0xffffffffffffffffffffffffffffffffffffffff\n  mul\n  not\n  and\n  swap1\n  dup4\n  0xffffffffffffffffffffffffffffffffffffffff\n  and\n  mul\n  or\n  swap1\n  sstore\n  pop\n    /* \"contracts/Event.sol\":713:815  constructor(uint256 _threshold) {... */\n  pop\n    /* \"contracts/Event.sol\":72:1566  contract Event {... */\n  jump(tag_6)\n    /* \"#utility.yul\":88:205   */\ntag_8:\n    /* \"#utility.yul\":197:198   */\n  0x00\n    /* \"#utility.yul\":194:195   */\n  dup1\n    /* \"#utility.yul\":187:199   */\n  revert\n    /* \"#utility.yul\":334:411   */\ntag_10:\n    /* \"#utility.yul\":371:378   */\n  0x00\n    /* \"#utility.yul\":400:405   */\n  dup2\n    /* \"#utility.yul\":389:405   */\n  swap1\n  pop\n    /* \"#utility.yul\":334:411   */\n  swap2\n  swap1\n  pop\n  jump\t// out\n    /* \"#utility.yul\":417:539   */\ntag_11:\n    /* \"#utility.yul\":490:514   */\n  tag_19\n    /* \"#utility.yul\":508:513   */\n  dup2\n    /* \"#utility.yul\":490:514   */\n  tag_10\n  jump\t// in\ntag_19:\n    /* \"#utility.yul\":483:488   */\n  dup2\n    /* \"#utility.yul\":480:515   */\n  eq\n    /* \"#utility.yul\":470:533   */\n  tag_20\n  jumpi\n    /* \"#utility.yul\":529:530   */\n  0x00\n    /* \"#utility.yul\":526:527   */\n  dup1\n    /* \"#utility.yul\":519:531   */\n  revert\n    /* \"#utility.yul\":470:533   */\ntag_20:\n    /* \"#utility.yul\":417:539   */\n  pop\n  jump\t// out\n    /* \"#utility.yul\":545:688   */\ntag_12:\n    /* \"#utility.yul\":602:607   */\n  0x00\n    /* \"#utility.yul\":633:639   */\n  dup2\n    /* \"#utility.yul\":627:640   */\n  mload\n    /* \"#utility.yul\":618:640   */\n  swap1\n  pop\n    /* \"#utility.yul\":649:682   */\n  tag_22\n    /* \"#utility.yul\":676:681   */\n  dup2\n    /* \"#utility.yul\":649:682   */\n  tag_11\n  jump\t// in\ntag_22:\n    /* \"#utility.yul\":545:688   */\n  swap3\n  swap2\n  pop\n  pop\n  jump\t// out\n    /* \"#utility.yul\":694:1045   */\ntag_3:\n    /* \"#utility.yul\":764:770   */\n  0x00\n    /* \"#utility.yul\":813:815   */\n  0x20\n    /* \"#utility.yul\":801:810   */\n  dup3\n    /* \"#utility.yul\":792:799   */\n  dup5\n    /* \"#utility.yul\":788:811   */\n  sub\n    /* \"#utility.yul\":784:816   */\n  slt\n    /* \"#utility.yul\":781:900   */\n  iszero\n  tag_24\n  jumpi\n    /* \"#utility.yul\":819:898   */\n  tag_25\n  tag_8\n  jump\t// in\ntag_25:\n    /* \"#utility.yul\":781:900   */\ntag_24:\n    /* \"#utility.yul\":939:940   */\n  0x00\n    /* \"#utility.yul\":964:1028   */\n  tag_26\n    /* \"#utility.yul\":1020:1027   */\n  dup5\n    /* \"#utility.yul\":1011:1017   */\n  dup3\n    /* \"#utility.yul\":1000:1009   */\n  dup6\n    /* \"#utility.yul\":996:1018   */\n  add\n    /* \"#utility.yul\":964:1028   */\n  tag_12\n  jump\t// in\ntag_26:\n    /* \"#utility.yul\":954:1028   */\n  swap2\n  pop\n    /* \"#utility.yul\":910:1038   */\n  pop\n    /* \"#utility.yul\":694:1045   */\n  swap3\n  swap2\n  pop\n  pop\n  jump\t// out\n    /* \"contracts/Event.sol\":72:1566  contract Event {... */\ntag_6:\n  dataSize(sub_0)\n  dup1\n  dataOffset(sub_0)\n  0x00\n  codecopy\n  0x00\n  return\nstop\n\nsub_0: assembly {\n        /* \"contracts/Event.sol\":72:1566  contract Event {... */\n      mstore(0x40, 0x80)\n      callvalue\n      dup1\n      iszero\n      tag_1\n      jumpi\n      0x00\n      dup1\n      revert\n    tag_1:\n      pop\n      jumpi(tag_2, lt(calldatasize, 0x04))\n      shr(0xe0, calldataload(0x00))\n      dup1\n      0x74dcdc63\n      gt\n      tag_10\n      jumpi\n      dup1\n      0x74dcdc63\n      eq\n      tag_6\n      jumpi\n      dup1\n      0x960bfe04\n      eq\n      tag_7\n      jumpi\n      dup1\n      0x9bc2bc71\n      eq\n      tag_8\n      jumpi\n      dup1\n      0xb8bf2dc2\n      eq\n      tag_9\n      jumpi\n      jump(tag_2)\n    tag_10:\n      dup1\n      0x0ad3430e\n      eq\n      tag_3\n      jumpi\n      dup1\n      0x171d073a\n      eq\n      tag_4\n      jumpi\n      dup1\n      0x42cde4e8\n      eq\n      tag_5\n      jumpi\n    tag_2:\n      0x00\n      dup1\n      revert\n        /* \"contracts/Event.sol\":469:517  mapping(address => uint256) public eventsCounter */\n    tag_3:\n      tag_11\n      0x04\n      dup1\n      calldatasize\n      sub\n      dup2\n      add\n      swap1\n      tag_12\n      swap2\n      swap1\n      tag_13\n      jump\t// in\n    tag_12:\n      tag_14\n      jump\t// in\n    tag_11:\n      mload(0x40)\n      tag_15\n      swap2\n      swap1\n      tag_16\n      jump\t// in\n    tag_15:\n      mload(0x40)\n      dup1\n      swap2\n      sub\n      swap1\n      return\n        /* \"contracts/Event.sol\":374:395  Alert[] public alerts */\n    tag_4:\n      tag_17\n      0x04\n      dup1\n      calldatasize\n      sub\n      dup2\n      add\n      swap1\n      tag_18\n      swap2\n      swap1\n      tag_19\n      jump\t// in\n    tag_18:\n      tag_20\n      jump\t// in\n    tag_17:\n      mload(0x40)\n      tag_21\n      swap4\n      swap3\n      swap2\n      swap1\n      tag_22\n      jump\t// in\n    tag_21:\n      mload(0x40)\n      dup1\n      swap2\n      sub\n      swap1\n      return\n        /* \"contracts/Event.sol\":524:548  uint256 public threshold */\n    tag_5:\n      tag_23\n      tag_24\n      jump\t// in\n    tag_23:\n      mload(0x40)\n      tag_25\n      swap2\n      swap1\n      tag_16\n      jump\t// in\n    tag_25:\n      mload(0x40)\n      dup1\n      swap2\n      sub\n      swap1\n      return\n        /* \"contracts/Event.sol\":402:462  mapping(address => mapping(uint256 => string)) public events */\n    tag_6:\n      tag_26\n      0x04\n      dup1\n      calldatasize\n      sub\n      dup2\n      add\n      swap1\n      tag_27\n      swap2\n      swap1\n      tag_28\n      jump\t// in\n    tag_27:\n      tag_29\n      jump\t// in\n    tag_26:\n      mload(0x40)\n      tag_30\n      swap2\n      swap1\n      tag_31\n      jump\t// in\n    tag_30:\n      mload(0x40)\n      dup1\n      swap2\n      sub\n      swap1\n      return\n        /* \"contracts/Event.sol\":1200:1300  function setThreshold(uint256 _threshold) public onlyOwner {... */\n    tag_7:\n      tag_32\n      0x04\n      dup1\n      calldatasize\n      sub\n      dup2\n      add\n      swap1\n      tag_33\n      swap2\n      swap1\n      tag_19\n      jump\t// in\n    tag_33:\n      tag_34\n      jump\t// in\n    tag_32:\n      stop\n        /* \"contracts/Event.sol\":823:1192  function createEvent(string memory _event) public returns (bool success) {... */\n    tag_8:\n      tag_35\n      0x04\n      dup1\n      calldatasize\n      sub\n      dup2\n      add\n      swap1\n      tag_36\n      swap2\n      swap1\n      tag_37\n      jump\t// in\n    tag_36:\n      tag_38\n      jump\t// in\n    tag_35:\n      mload(0x40)\n      tag_39\n      swap2\n      swap1\n      tag_40\n      jump\t// in\n    tag_39:\n      mload(0x40)\n      dup1\n      swap2\n      sub\n      swap1\n      return\n        /* \"contracts/Event.sol\":1308:1563  function createAlert(Risk risk, string memory message)... */\n    tag_9:\n      tag_41\n      0x04\n      dup1\n      calldatasize\n      sub\n      dup2\n      add\n      swap1\n      tag_42\n      swap2\n      swap1\n      tag_43\n      jump\t// in\n    tag_42:\n      tag_44\n      jump\t// in\n    tag_41:\n      mload(0x40)\n      tag_45\n      swap2\n      swap1\n      tag_40\n      jump\t// in\n    tag_45:\n      mload(0x40)\n      dup1\n      swap2\n      sub\n      swap1\n      return\n        /* \"contracts/Event.sol\":469:517  mapping(address => uint256) public eventsCounter */\n    tag_14:\n      mstore(0x20, 0x02)\n      dup1\n      0x00\n      mstore\n      keccak256(0x00, 0x40)\n      0x00\n      swap2\n      pop\n      swap1\n      pop\n      sload\n      dup2\n      jump\t// out\n        /* \"contracts/Event.sol\":374:395  Alert[] public alerts */\n    tag_20:\n      0x00\n      dup2\n      dup2\n      sload\n      dup2\n      lt\n      tag_46\n      jumpi\n      0x00\n      dup1\n      revert\n    tag_46:\n      swap1\n      0x00\n      mstore\n      keccak256(0x00, 0x20)\n      swap1\n      0x02\n      mul\n      add\n      0x00\n      swap2\n      pop\n      swap1\n      pop\n      dup1\n      0x00\n      add\n      dup1\n      sload\n      tag_48\n      swap1\n      tag_49\n      jump\t// in\n    tag_48:\n      dup1\n      0x1f\n      add\n      0x20\n      dup1\n      swap2\n      div\n      mul\n      0x20\n      add\n      mload(0x40)\n      swap1\n      dup2\n      add\n      0x40\n      mstore\n      dup1\n      swap3\n      swap2\n      swap1\n      dup2\n      dup2\n      mstore\n      0x20\n      add\n      dup3\n      dup1\n      sload\n      tag_50\n      swap1\n      tag_49\n      jump\t// in\n    tag_50:\n      dup1\n      iszero\n      tag_51\n      jumpi\n      dup1\n      0x1f\n      lt\n      tag_52\n      jumpi\n      0x0100\n      dup1\n      dup4\n      sload\n      div\n      mul\n      dup4\n      mstore\n      swap2\n      0x20\n      add\n      swap2\n      jump(tag_51)\n    tag_52:\n      dup3\n      add\n      swap2\n      swap1\n      0x00\n      mstore\n      keccak256(0x00, 0x20)\n      swap1\n    tag_53:\n      dup2\n      sload\n      dup2\n      mstore\n      swap1\n      0x01\n      add\n      swap1\n      0x20\n      add\n      dup1\n      dup4\n      gt\n      tag_53\n      jumpi\n      dup3\n      swap1\n      sub\n      0x1f\n      and\n      dup3\n      add\n      swap2\n    tag_51:\n      pop\n      pop\n      pop\n      pop\n      pop\n      swap1\n      dup1\n      0x01\n      add\n      0x00\n      swap1\n      sload\n      swap1\n      0x0100\n      exp\n      swap1\n      div\n      0xff\n      and\n      swap1\n      dup1\n      0x01\n      add\n      0x01\n      swap1\n      sload\n      swap1\n      0x0100\n      exp\n      swap1\n      div\n      0xffffffffffffffffffffffffffffffffffffffff\n      and\n      swap1\n      pop\n      dup4\n      jump\t// out\n        /* \"contracts/Event.sol\":524:548  uint256 public threshold */\n    tag_24:\n      sload(0x03)\n      dup2\n      jump\t// out\n        /* \"contracts/Event.sol\":402:462  mapping(address => mapping(uint256 => string)) public events */\n    tag_29:\n      mstore(0x20, 0x01)\n      dup2\n      0x00\n      mstore\n      mstore(0x20, keccak256(0x00, 0x40))\n      dup1\n      0x00\n      mstore\n      keccak256(0x00, 0x40)\n      0x00\n      swap2\n      pop\n      swap2\n      pop\n      pop\n      dup1\n      sload\n      tag_54\n      swap1\n      tag_49\n      jump\t// in\n    tag_54:\n      dup1\n      0x1f\n      add\n      0x20\n      dup1\n      swap2\n      div\n      mul\n      0x20\n      add\n      mload(0x40)\n      swap1\n      dup2\n      add\n      0x40\n      mstore\n      dup1\n      swap3\n      swap2\n      swap1\n      dup2\n      dup2\n      mstore\n      0x20\n      add\n      dup3\n      dup1\n      sload\n      tag_55\n      swap1\n      tag_49\n      jump\t// in\n    tag_55:\n      dup1\n      iszero\n      tag_56\n      jumpi\n      dup1\n      0x1f\n      lt\n      tag_57\n      jumpi\n      0x0100\n      dup1\n      dup4\n      sload\n      div\n      mul\n      dup4\n      mstore\n      swap2\n      0x20\n      add\n      swap2\n      jump(tag_56)\n    tag_57:\n      dup3\n      add\n      swap2\n      swap1\n      0x00\n      mstore\n      keccak256(0x00, 0x20)\n      swap1\n    tag_58:\n      dup2\n      sload\n      dup2\n      mstore\n      swap1\n      0x01\n      add\n      swap1\n      0x20\n      add\n      dup1\n      dup4\n      gt\n      tag_58\n      jumpi\n      dup3\n      swap1\n      sub\n      0x1f\n      and\n      dup3\n      add\n      swap2\n    tag_56:\n      pop\n      pop\n      pop\n      pop\n      pop\n      dup2\n      jump\t// out\n        /* \"contracts/Event.sol\":1200:1300  function setThreshold(uint256 _threshold) public onlyOwner {... */\n    tag_34:\n        /* \"contracts/Event.sol\":639:644  owner */\n      0x04\n      0x00\n      swap1\n      sload\n      swap1\n      0x0100\n      exp\n      swap1\n      div\n      0xffffffffffffffffffffffffffffffffffffffff\n      and\n        /* \"contracts/Event.sol\":625:644  msg.sender == owner */\n      0xffffffffffffffffffffffffffffffffffffffff\n      and\n        /* \"contracts/Event.sol\":625:635  msg.sender */\n      caller\n        /* \"contracts/Event.sol\":625:644  msg.sender == owner */\n      0xffffffffffffffffffffffffffffffffffffffff\n      and\n      eq\n        /* \"contracts/Event.sol\":617:685  require(msg.sender == owner, \"Only owner can execute this function\") */\n      tag_60\n      jumpi\n      mload(0x40)\n      0x08c379a000000000000000000000000000000000000000000000000000000000\n      dup2\n      mstore\n      0x04\n      add\n      tag_61\n      swap1\n      tag_62\n      jump\t// in\n    tag_61:\n      mload(0x40)\n      dup1\n      swap2\n      sub\n      swap1\n      revert\n    tag_60:\n        /* \"contracts/Event.sol\":1282:1292  _threshold */\n      dup1\n        /* \"contracts/Event.sol\":1270:1279  threshold */\n      0x03\n        /* \"contracts/Event.sol\":1270:1292  threshold = _threshold */\n      dup2\n      swap1\n      sstore\n      pop\n        /* \"contracts/Event.sol\":1200:1300  function setThreshold(uint256 _threshold) public onlyOwner {... */\n      pop\n      jump\t// out\n        /* \"contracts/Event.sol\":823:1192  function createEvent(string memory _event) public returns (bool success) {... */\n    tag_38:\n        /* \"contracts/Event.sol\":882:894  bool success */\n      0x00\n        /* \"contracts/Event.sol\":907:922  uint256 eventId */\n      dup1\n        /* \"contracts/Event.sol\":953:954  1 */\n      0x01\n        /* \"contracts/Event.sol\":925:938  eventsCounter */\n      0x02\n        /* \"contracts/Event.sol\":925:950  eventsCounter[msg.sender] */\n      0x00\n        /* \"contracts/Event.sol\":939:949  msg.sender */\n      caller\n        /* \"contracts/Event.sol\":925:950  eventsCounter[msg.sender] */\n      0xffffffffffffffffffffffffffffffffffffffff\n      and\n      0xffffffffffffffffffffffffffffffffffffffff\n      and\n      dup2\n      mstore\n      0x20\n      add\n      swap1\n      dup2\n      mstore\n      0x20\n      add\n      0x00\n      keccak256\n      sload\n        /* \"contracts/Event.sol\":925:954  eventsCounter[msg.sender] + 1 */\n      tag_65\n      swap2\n      swap1\n      tag_66\n      jump\t// in\n    tag_65:\n        /* \"contracts/Event.sol\":907:954  uint256 eventId = eventsCounter[msg.sender] + 1 */\n      swap1\n      pop\n        /* \"contracts/Event.sol\":979:988  threshold */\n      sload(0x03)\n        /* \"contracts/Event.sol\":969:976  eventId */\n      dup2\n        /* \"contracts/Event.sol\":969:988  eventId > threshold */\n      gt\n        /* \"contracts/Event.sol\":965:1028  if (eventId > threshold) {... */\n      iszero\n      tag_67\n      jumpi\n        /* \"contracts/Event.sol\":1015:1016  1 */\n      0x01\n        /* \"contracts/Event.sol\":1005:1016  eventId = 1 */\n      swap1\n      pop\n        /* \"contracts/Event.sol\":965:1028  if (eventId > threshold) {... */\n    tag_67:\n        /* \"contracts/Event.sol\":1066:1073  eventId */\n      dup1\n        /* \"contracts/Event.sol\":1038:1051  eventsCounter */\n      0x02\n        /* \"contracts/Event.sol\":1038:1063  eventsCounter[msg.sender] */\n      0x00\n        /* \"contracts/Event.sol\":1052:1062  msg.sender */\n      caller\n        /* \"contracts/Event.sol\":1038:1063  eventsCounter[msg.sender] */\n      0xffffffffffffffffffffffffffffffffffffffff\n      and\n      0xffffffffffffffffffffffffffffffffffffffff\n      and\n      dup2\n      mstore\n      0x20\n      add\n      swap1\n      dup2\n      mstore\n      0x20\n      add\n      0x00\n      keccak256\n        /* \"contracts/Event.sol\":1038:1073  eventsCounter[msg.sender] = eventId */\n      dup2\n      swap1\n      sstore\n      pop\n        /* \"contracts/Event.sol\":1114:1120  _event */\n      dup3\n        /* \"contracts/Event.sol\":1084:1090  events */\n      0x01\n        /* \"contracts/Event.sol\":1084:1102  events[msg.sender] */\n      0x00\n        /* \"contracts/Event.sol\":1091:1101  msg.sender */\n      caller\n        /* \"contracts/Event.sol\":1084:1102  events[msg.sender] */\n      0xffffffffffffffffffffffffffffffffffffffff\n      and\n      0xffffffffffffffffffffffffffffffffffffffff\n      and\n      dup2\n      mstore\n      0x20\n      add\n      swap1\n      dup2\n      mstore\n      0x20\n      add\n      0x00\n      keccak256\n        /* \"contracts/Event.sol\":1084:1111  events[msg.sender][eventId] */\n      0x00\n        /* \"contracts/Event.sol\":1103:1110  eventId */\n      dup4\n        /* \"contracts/Event.sol\":1084:1111  events[msg.sender][eventId] */\n      dup2\n      mstore\n      0x20\n      add\n      swap1\n      dup2\n      mstore\n      0x20\n      add\n      0x00\n      keccak256\n        /* \"contracts/Event.sol\":1084:1120  events[msg.sender][eventId] = _event */\n      swap1\n      dup2\n      tag_68\n      swap2\n      swap1\n      tag_69\n      jump\t// in\n    tag_68:\n      pop\n        /* \"contracts/Event.sol\":1136:1159  newEventCreated(_event) */\n      0x3c0c8dea9e5e5486a7d5b25f41716a0ee7b12a2a013316408a2fe0870a2f5710\n        /* \"contracts/Event.sol\":1152:1158  _event */\n      dup4\n        /* \"contracts/Event.sol\":1136:1159  newEventCreated(_event) */\n      mload(0x40)\n      tag_70\n      swap2\n      swap1\n      tag_31\n      jump\t// in\n    tag_70:\n      mload(0x40)\n      dup1\n      swap2\n      sub\n      swap1\n      log1\n        /* \"contracts/Event.sol\":1180:1184  true */\n      0x01\n        /* \"contracts/Event.sol\":1170:1184  success = true */\n      swap2\n      pop\n        /* \"contracts/Event.sol\":896:1192  {... */\n      pop\n        /* \"contracts/Event.sol\":823:1192  function createEvent(string memory _event) public returns (bool success) {... */\n      swap2\n      swap1\n      pop\n      jump\t// out\n        /* \"contracts/Event.sol\":1308:1563  function createAlert(Risk risk, string memory message)... */\n    tag_44:\n        /* \"contracts/Event.sol\":1397:1409  bool success */\n      0x00\n        /* \"contracts/Event.sol\":1427:1433  alerts */\n      dup1\n        /* \"contracts/Event.sol\":1439:1471  Alert(message, risk, msg.sender) */\n      mload(0x40)\n      dup1\n      0x60\n      add\n      0x40\n      mstore\n      dup1\n        /* \"contracts/Event.sol\":1445:1452  message */\n      dup5\n        /* \"contracts/Event.sol\":1439:1471  Alert(message, risk, msg.sender) */\n      dup2\n      mstore\n      0x20\n      add\n        /* \"contracts/Event.sol\":1454:1458  risk */\n      dup6\n        /* \"contracts/Event.sol\":1439:1471  Alert(message, risk, msg.sender) */\n      0x02\n      dup2\n      gt\n      iszero\n      tag_72\n      jumpi\n      tag_73\n      tag_74\n      jump\t// in\n    tag_73:\n    tag_72:\n      dup2\n      mstore\n      0x20\n      add\n        /* \"contracts/Event.sol\":1460:1470  msg.sender */\n      caller\n        /* \"contracts/Event.sol\":1439:1471  Alert(message, risk, msg.sender) */\n      0xffffffffffffffffffffffffffffffffffffffff\n      and\n      dup2\n      mstore\n      pop\n        /* \"contracts/Event.sol\":1427:1472  alerts.push(Alert(message, risk, msg.sender)) */\n      swap1\n      dup1\n      0x01\n      dup2\n      sload\n      add\n      dup1\n      dup3\n      sstore\n      dup1\n      swap2\n      pop\n      pop\n      0x01\n      swap1\n      sub\n      swap1\n      0x00\n      mstore\n      keccak256(0x00, 0x20)\n      swap1\n      0x02\n      mul\n      add\n      0x00\n      swap1\n      swap2\n      swap1\n      swap2\n      swap1\n      swap2\n      pop\n      0x00\n      dup3\n      add\n      mload\n      dup2\n      0x00\n      add\n      swap1\n      dup2\n      tag_76\n      swap2\n      swap1\n      tag_69\n      jump\t// in\n    tag_76:\n      pop\n      0x20\n      dup3\n      add\n      mload\n      dup2\n      0x01\n      add\n      exp(0x0100, 0x00)\n      dup2\n      sload\n      dup2\n      0xff\n      mul\n      not\n      and\n      swap1\n      dup4\n      0x02\n      dup2\n      gt\n      iszero\n      tag_77\n      jumpi\n      tag_78\n      tag_74\n      jump\t// in\n    tag_78:\n    tag_77:\n      mul\n      or\n      swap1\n      sstore\n      pop\n      0x40\n      dup3\n      add\n      mload\n      dup2\n      0x01\n      add\n      exp(0x0100, 0x01)\n      dup2\n      sload\n      dup2\n      0xffffffffffffffffffffffffffffffffffffffff\n      mul\n      not\n      and\n      swap1\n      dup4\n      0xffffffffffffffffffffffffffffffffffffffff\n      and\n      mul\n      or\n      swap1\n      sstore\n      pop\n      pop\n      pop\n        /* \"contracts/Event.sol\":1488:1530  newAlertCreated(msg.sender, message, risk) */\n      0x4d879cc56622a17616a95ef31728044fbccf96e6a5add995543398f56362e378\n        /* \"contracts/Event.sol\":1504:1514  msg.sender */\n      caller\n        /* \"contracts/Event.sol\":1516:1523  message */\n      dup4\n        /* \"contracts/Event.sol\":1525:1529  risk */\n      dup6\n        /* \"contracts/Event.sol\":1488:1530  newAlertCreated(msg.sender, message, risk) */\n      mload(0x40)\n      tag_79\n      swap4\n      swap3\n      swap2\n      swap1\n      tag_80\n      jump\t// in\n    tag_79:\n      mload(0x40)\n      dup1\n      swap2\n      sub\n      swap1\n      log1\n        /* \"contracts/Event.sol\":1551:1555  true */\n      0x01\n        /* \"contracts/Event.sol\":1541:1555  success = true */\n      swap1\n      pop\n        /* \"contracts/Event.sol\":1308:1563  function createAlert(Risk risk, string memory message)... */\n      swap3\n      swap2\n      pop\n      pop\n      jump\t// out\n        /* \"#utility.yul\":7:82   */\n    tag_81:\n        /* \"#utility.yul\":40:46   */\n      0x00\n        /* \"#utility.yul\":73:75   */\n      0x40\n        /* \"#utility.yul\":67:76   */\n      mload\n        /* \"#utility.yul\":57:76   */\n      swap1\n      pop\n        /* \"#utility.yul\":7:82   */\n      swap1\n      jump\t// out\n        /* \"#utility.yul\":88:205   */\n    tag_82:\n        /* \"#utility.yul\":197:198   */\n      0x00\n        /* \"#utility.yul\":194:195   */\n      dup1\n        /* \"#utility.yul\":187:199   */\n      revert\n        /* \"#utility.yul\":211:328   */\n    tag_83:\n        /* \"#utility.yul\":320:321   */\n      0x00\n        /* \"#utility.yul\":317:318   */\n      dup1\n        /* \"#utility.yul\":310:322   */\n      revert\n        /* \"#utility.yul\":334:460   */\n    tag_84:\n        /* \"#utility.yul\":371:378   */\n      0x00\n        /* \"#utility.yul\":411:453   */\n      0xffffffffffffffffffffffffffffffffffffffff\n        /* \"#utility.yul\":404:409   */\n      dup3\n        /* \"#utility.yul\":400:454   */\n      and\n        /* \"#utility.yul\":389:454   */\n      swap1\n      pop\n        /* \"#utility.yul\":334:460   */\n      swap2\n      swap1\n      pop\n      jump\t// out\n        /* \"#utility.yul\":466:562   */\n    tag_85:\n        /* \"#utility.yul\":503:510   */\n      0x00\n        /* \"#utility.yul\":532:556   */\n      tag_140\n        /* \"#utility.yul\":550:555   */\n      dup3\n        /* \"#utility.yul\":532:556   */\n      tag_84\n      jump\t// in\n    tag_140:\n        /* \"#utility.yul\":521:556   */\n      swap1\n      pop\n        /* \"#utility.yul\":466:562   */\n      swap2\n      swap1\n      pop\n      jump\t// out\n        /* \"#utility.yul\":568:690   */\n    tag_86:\n        /* \"#utility.yul\":641:665   */\n      tag_142\n        /* \"#utility.yul\":659:664   */\n      dup2\n        /* \"#utility.yul\":641:665   */\n      tag_85\n      jump\t// in\n    tag_142:\n        /* \"#utility.yul\":634:639   */\n      dup2\n        /* \"#utility.yul\":631:666   */\n      eq\n        /* \"#utility.yul\":621:684   */\n      tag_143\n      jumpi\n        /* \"#utility.yul\":680:681   */\n      0x00\n        /* \"#utility.yul\":677:678   */\n      dup1\n        /* \"#utility.yul\":670:682   */\n      revert\n        /* \"#utility.yul\":621:684   */\n    tag_143:\n        /* \"#utility.yul\":568:690   */\n      pop\n      jump\t// out\n        /* \"#utility.yul\":696:835   */\n    tag_87:\n        /* \"#utility.yul\":742:747   */\n      0x00\n        /* \"#utility.yul\":780:786   */\n      dup2\n        /* \"#utility.yul\":767:787   */\n      calldataload\n        /* \"#utility.yul\":758:787   */\n      swap1\n      pop\n        /* \"#utility.yul\":796:829   */\n      tag_145\n        /* \"#utility.yul\":823:828   */\n      dup2\n        /* \"#utility.yul\":796:829   */\n      tag_86\n      jump\t// in\n    tag_145:\n        /* \"#utility.yul\":696:835   */\n      swap3\n      swap2\n      pop\n      pop\n      jump\t// out\n        /* \"#utility.yul\":841:1170   */\n    tag_13:\n        /* \"#utility.yul\":900:906   */\n      0x00\n        /* \"#utility.yul\":949:951   */\n      0x20\n        /* \"#utility.yul\":937:946   */\n      dup3\n        /* \"#utility.yul\":928:935   */\n      dup5\n        /* \"#utility.yul\":924:947   */\n      sub\n        /* \"#utility.yul\":920:952   */\n      slt\n        /* \"#utility.yul\":917:1036   */\n      iszero\n      tag_147\n      jumpi\n        /* \"#utility.yul\":955:1034   */\n      tag_148\n      tag_82\n      jump\t// in\n    tag_148:\n        /* \"#utility.yul\":917:1036   */\n    tag_147:\n        /* \"#utility.yul\":1075:1076   */\n      0x00\n        /* \"#utility.yul\":1100:1153   */\n      tag_149\n        /* \"#utility.yul\":1145:1152   */\n      dup5\n        /* \"#utility.yul\":1136:1142   */\n      dup3\n        /* \"#utility.yul\":1125:1134   */\n      dup6\n        /* \"#utility.yul\":1121:1143   */\n      add\n        /* \"#utility.yul\":1100:1153   */\n      tag_87\n      jump\t// in\n    tag_149:\n        /* \"#utility.yul\":1090:1153   */\n      swap2\n      pop\n        /* \"#utility.yul\":1046:1163   */\n      pop\n        /* \"#utility.yul\":841:1170   */\n      swap3\n      swap2\n      pop\n      pop\n      jump\t// out\n        /* \"#utility.yul\":1176:1253   */\n    tag_88:\n        /* \"#utility.yul\":1213:1220   */\n      0x00\n        /* \"#utility.yul\":1242:1247   */\n      dup2\n        /* \"#utility.yul\":1231:1247   */\n      swap1\n      pop\n        /* \"#utility.yul\":1176:1253   */\n      swap2\n      swap1\n      pop\n      jump\t// out\n        /* \"#utility.yul\":1259:1377   */\n    tag_89:\n        /* \"#utility.yul\":1346:1370   */\n      tag_152\n        /* \"#utility.yul\":1364:1369   */\n      dup2\n        /* \"#utility.yul\":1346:1370   */\n      tag_88\n      jump\t// in\n    tag_152:\n        /* \"#utility.yul\":1341:1344   */\n      dup3\n        /* \"#utility.yul\":1334:1371   */\n      mstore\n        /* \"#utility.yul\":1259:1377   */\n      pop\n      pop\n      jump\t// out\n        /* \"#utility.yul\":1383:1605   */\n    tag_16:\n        /* \"#utility.yul\":1476:1480   */\n      0x00\n        /* \"#utility.yul\":1514:1516   */\n      0x20\n        /* \"#utility.yul\":1503:1512   */\n      dup3\n        /* \"#utility.yul\":1499:1517   */\n      add\n        /* \"#utility.yul\":1491:1517   */\n      swap1\n      pop\n        /* \"#utility.yul\":1527:1598   */\n      tag_154\n        /* \"#utility.yul\":1595:1596   */\n      0x00\n        /* \"#utility.yul\":1584:1593   */\n      dup4\n        /* \"#utility.yul\":1580:1597   */\n      add\n        /* \"#utility.yul\":1571:1577   */\n      dup5\n        /* \"#utility.yul\":1527:1598   */\n      tag_89\n      jump\t// in\n    tag_154:\n        /* \"#utility.yul\":1383:1605   */\n      swap3\n      swap2\n      pop\n      pop\n      jump\t// out\n        /* \"#utility.yul\":1611:1733   */\n    tag_90:\n        /* \"#utility.yul\":1684:1708   */\n      tag_156\n        /* \"#utility.yul\":1702:1707   */\n      dup2\n        /* \"#utility.yul\":1684:1708   */\n      tag_88\n      jump\t// in\n    tag_156:\n        /* \"#utility.yul\":1677:1682   */\n      dup2\n        /* \"#utility.yul\":1674:1709   */\n      eq\n        /* \"#utility.yul\":1664:1727   */\n      tag_157\n      jumpi\n        /* \"#utility.yul\":1723:1724   */\n      0x00\n        /* \"#utility.yul\":1720:1721   */\n      dup1\n        /* \"#utility.yul\":1713:1725   */\n      revert\n        /* \"#utility.yul\":1664:1727   */\n    tag_157:\n        /* \"#utility.yul\":1611:1733   */\n      pop\n      jump\t// out\n        /* \"#utility.yul\":1739:1878   */\n    tag_91:\n        /* \"#utility.yul\":1785:1790   */\n      0x00\n        /* \"#utility.yul\":1823:1829   */\n      dup2\n        /* \"#utility.yul\":1810:1830   */\n      calldataload\n        /* \"#utility.yul\":1801:1830   */\n      swap1\n      pop\n        /* \"#utility.yul\":1839:1872   */\n      tag_159\n        /* \"#utility.yul\":1866:1871   */\n      dup2\n        /* \"#utility.yul\":1839:1872   */\n      tag_90\n      jump\t// in\n    tag_159:\n        /* \"#utility.yul\":1739:1878   */\n      swap3\n      swap2\n      pop\n      pop\n      jump\t// out\n        /* \"#utility.yul\":1884:2213   */\n    tag_19:\n        /* \"#utility.yul\":1943:1949   */\n      0x00\n        /* \"#utility.yul\":1992:1994   */\n      0x20\n        /* \"#utility.yul\":1980:1989   */\n      dup3\n        /* \"#utility.yul\":1971:1978   */\n      dup5\n        /* \"#utility.yul\":1967:1990   */\n      sub\n        /* \"#utility.yul\":1963:1995   */\n      slt\n        /* \"#utility.yul\":1960:2079   */\n      iszero\n      tag_161\n      jumpi\n        /* \"#utility.yul\":1998:2077   */\n      tag_162\n      tag_82\n      jump\t// in\n    tag_162:\n        /* \"#utility.yul\":1960:2079   */\n    tag_161:\n        /* \"#utility.yul\":2118:2119   */\n      0x00\n        /* \"#utility.yul\":2143:2196   */\n      tag_163\n        /* \"#utility.yul\":2188:2195   */\n      dup5\n        /* \"#utility.yul\":2179:2185   */\n      dup3\n        /* \"#utility.yul\":2168:2177   */\n      dup6\n        /* \"#utility.yul\":2164:2186   */\n      add\n        /* \"#utility.yul\":2143:2196   */\n      tag_91\n      jump\t// in\n    tag_163:\n        /* \"#utility.yul\":2133:2196   */\n      swap2\n      pop\n        /* \"#utility.yul\":2089:2206   */\n      pop\n        /* \"#utility.yul\":1884:2213   */\n      swap3\n      swap2\n      pop\n      pop\n      jump\t// out\n        /* \"#utility.yul\":2219:2318   */\n    tag_92:\n        /* \"#utility.yul\":2271:2277   */\n      0x00\n        /* \"#utility.yul\":2305:2310   */\n      dup2\n        /* \"#utility.yul\":2299:2311   */\n      mload\n        /* \"#utility.yul\":2289:2311   */\n      swap1\n      pop\n        /* \"#utility.yul\":2219:2318   */\n      swap2\n      swap1\n      pop\n      jump\t// out\n        /* \"#utility.yul\":2324:2493   */\n    tag_93:\n        /* \"#utility.yul\":2408:2419   */\n      0x00\n        /* \"#utility.yul\":2442:2448   */\n      dup3\n        /* \"#utility.yul\":2437:2440   */\n      dup3\n        /* \"#utility.yul\":2430:2449   */\n      mstore\n        /* \"#utility.yul\":2482:2486   */\n      0x20\n        /* \"#utility.yul\":2477:2480   */\n      dup3\n        /* \"#utility.yul\":2473:2487   */\n      add\n        /* \"#utility.yul\":2458:2487   */\n      swap1\n      pop\n        /* \"#utility.yul\":2324:2493   */\n      swap3\n      swap2\n      pop\n      pop\n      jump\t// out\n        /* \"#utility.yul\":2499:2638   */\n    tag_94:\n        /* \"#utility.yul\":2588:2594   */\n      dup3\n        /* \"#utility.yul\":2583:2586   */\n      dup2\n        /* \"#utility.yul\":2578:2581   */\n      dup4\n        /* \"#utility.yul\":2572:2595   */\n      mcopy\n        /* \"#utility.yul\":2629:2630   */\n      0x00\n        /* \"#utility.yul\":2620:2626   */\n      dup4\n        /* \"#utility.yul\":2615:2618   */\n      dup4\n        /* \"#utility.yul\":2611:2627   */\n      add\n        /* \"#utility.yul\":2604:2631   */\n      mstore\n        /* \"#utility.yul\":2499:2638   */\n      pop\n      pop\n      pop\n      jump\t// out\n        /* \"#utility.yul\":2644:2746   */\n    tag_95:\n        /* \"#utility.yul\":2685:2691   */\n      0x00\n        /* \"#utility.yul\":2736:2738   */\n      0x1f\n        /* \"#utility.yul\":2732:2739   */\n      not\n        /* \"#utility.yul\":2727:2729   */\n      0x1f\n        /* \"#utility.yul\":2720:2725   */\n      dup4\n        /* \"#utility.yul\":2716:2730   */\n      add\n        /* \"#utility.yul\":2712:2740   */\n      and\n        /* \"#utility.yul\":2702:2740   */\n      swap1\n      pop\n        /* \"#utility.yul\":2644:2746   */\n      swap2\n      swap1\n      pop\n      jump\t// out\n        /* \"#utility.yul\":2752:3129   */\n    tag_96:\n        /* \"#utility.yul\":2840:2843   */\n      0x00\n        /* \"#utility.yul\":2868:2907   */\n      tag_169\n        /* \"#utility.yul\":2901:2906   */\n      dup3\n        /* \"#utility.yul\":2868:2907   */\n      tag_92\n      jump\t// in\n    tag_169:\n        /* \"#utility.yul\":2923:2994   */\n      tag_170\n        /* \"#utility.yul\":2987:2993   */\n      dup2\n        /* \"#utility.yul\":2982:2985   */\n      dup6\n        /* \"#utility.yul\":2923:2994   */\n      tag_93\n      jump\t// in\n    tag_170:\n        /* \"#utility.yul\":2916:2994   */\n      swap4\n      pop\n        /* \"#utility.yul\":3003:3068   */\n      tag_171\n        /* \"#utility.yul\":3061:3067   */\n      dup2\n        /* \"#utility.yul\":3056:3059   */\n      dup6\n        /* \"#utility.yul\":3049:3053   */\n      0x20\n        /* \"#utility.yul\":3042:3047   */\n      dup7\n        /* \"#utility.yul\":3038:3054   */\n      add\n        /* \"#utility.yul\":3003:3068   */\n      tag_94\n      jump\t// in\n    tag_171:\n        /* \"#utility.yul\":3093:3122   */\n      tag_172\n        /* \"#utility.yul\":3115:3121   */\n      dup2\n        /* \"#utility.yul\":3093:3122   */\n      tag_95\n      jump\t// in\n    tag_172:\n        /* \"#utility.yul\":3088:3091   */\n      dup5\n        /* \"#utility.yul\":3084:3123   */\n      add\n        /* \"#utility.yul\":3077:3123   */\n      swap2\n      pop\n        /* \"#utility.yul\":2844:3129   */\n      pop\n        /* \"#utility.yul\":2752:3129   */\n      swap3\n      swap2\n      pop\n      pop\n      jump\t// out\n        /* \"#utility.yul\":3135:3315   */\n    tag_74:\n        /* \"#utility.yul\":3183:3260   */\n      0x4e487b7100000000000000000000000000000000000000000000000000000000\n        /* \"#utility.yul\":3180:3181   */\n      0x00\n        /* \"#utility.yul\":3173:3261   */\n      mstore\n        /* \"#utility.yul\":3280:3284   */\n      0x21\n        /* \"#utility.yul\":3277:3278   */\n      0x04\n        /* \"#utility.yul\":3270:3285   */\n      mstore\n        /* \"#utility.yul\":3304:3308   */\n      0x24\n        /* \"#utility.yul\":3301:3302   */\n      0x00\n        /* \"#utility.yul\":3294:3309   */\n      revert\n        /* \"#utility.yul\":3321:3433   */\n    tag_97:\n        /* \"#utility.yul\":3401:3402   */\n      0x03\n        /* \"#utility.yul\":3394:3399   */\n      dup2\n        /* \"#utility.yul\":3391:3403   */\n      lt\n        /* \"#utility.yul\":3381:3427   */\n      tag_175\n      jumpi\n        /* \"#utility.yul\":3407:3425   */\n      tag_176\n      tag_74\n      jump\t// in\n    tag_176:\n        /* \"#utility.yul\":3381:3427   */\n    tag_175:\n        /* \"#utility.yul\":3321:3433   */\n      pop\n      jump\t// out\n        /* \"#utility.yul\":3439:3564   */\n    tag_98:\n        /* \"#utility.yul\":3483:3490   */\n      0x00\n        /* \"#utility.yul\":3512:3517   */\n      dup2\n        /* \"#utility.yul\":3501:3517   */\n      swap1\n      pop\n        /* \"#utility.yul\":3518:3558   */\n      tag_178\n        /* \"#utility.yul\":3552:3557   */\n      dup3\n        /* \"#utility.yul\":3518:3558   */\n      tag_97\n      jump\t// in\n    tag_178:\n        /* \"#utility.yul\":3439:3564   */\n      swap2\n      swap1\n      pop\n      jump\t// out\n        /* \"#utility.yul\":3570:3695   */\n    tag_99:\n        /* \"#utility.yul\":3625:3634   */\n      0x00\n        /* \"#utility.yul\":3658:3689   */\n      tag_180\n        /* \"#utility.yul\":3683:3688   */\n      dup3\n        /* \"#utility.yul\":3658:3689   */\n      tag_98\n      jump\t// in\n    tag_180:\n        /* \"#utility.yul\":3645:3689   */\n      swap1\n      pop\n        /* \"#utility.yul\":3570:3695   */\n      swap2\n      swap1\n      pop\n      jump\t// out\n        /* \"#utility.yul\":3701:3842   */\n    tag_100:\n        /* \"#utility.yul\":3793:3835   */\n      tag_182\n        /* \"#utility.yul\":3829:3834   */\n      dup2\n        /* \"#utility.yul\":3793:3835   */\n      tag_99\n      jump\t// in\n    tag_182:\n        /* \"#utility.yul\":3788:3791   */\n      dup3\n        /* \"#utility.yul\":3781:3836   */\n      mstore\n        /* \"#utility.yul\":3701:3842   */\n      pop\n      pop\n      jump\t// out\n        /* \"#utility.yul\":3848:3966   */\n    tag_101:\n        /* \"#utility.yul\":3935:3959   */\n      tag_184\n        /* \"#utility.yul\":3953:3958   */\n      dup2\n        /* \"#utility.yul\":3935:3959   */\n      tag_85\n      jump\t// in\n    tag_184:\n        /* \"#utility.yul\":3930:3933   */\n      dup3\n        /* \"#utility.yul\":3923:3960   */\n      mstore\n        /* \"#utility.yul\":3848:3966   */\n      pop\n      pop\n      jump\t// out\n        /* \"#utility.yul\":3972:4515   */\n    tag_22:\n        /* \"#utility.yul\":4146:4150   */\n      0x00\n        /* \"#utility.yul\":4184:4186   */\n      0x60\n        /* \"#utility.yul\":4173:4182   */\n      dup3\n        /* \"#utility.yul\":4169:4187   */\n      add\n        /* \"#utility.yul\":4161:4187   */\n      swap1\n      pop\n        /* \"#utility.yul\":4233:4242   */\n      dup2\n        /* \"#utility.yul\":4227:4231   */\n      dup2\n        /* \"#utility.yul\":4223:4243   */\n      sub\n        /* \"#utility.yul\":4219:4220   */\n      0x00\n        /* \"#utility.yul\":4208:4217   */\n      dup4\n        /* \"#utility.yul\":4204:4221   */\n      add\n        /* \"#utility.yul\":4197:4244   */\n      mstore\n        /* \"#utility.yul\":4261:4339   */\n      tag_186\n        /* \"#utility.yul\":4334:4338   */\n      dup2\n        /* \"#utility.yul\":4325:4331   */\n      dup7\n        /* \"#utility.yul\":4261:4339   */\n      tag_96\n      jump\t// in\n    tag_186:\n        /* \"#utility.yul\":4253:4339   */\n      swap1\n      pop\n        /* \"#utility.yul\":4349:4426   */\n      tag_187\n        /* \"#utility.yul\":4422:4424   */\n      0x20\n        /* \"#utility.yul\":4411:4420   */\n      dup4\n        /* \"#utility.yul\":4407:4425   */\n      add\n        /* \"#utility.yul\":4398:4404   */\n      dup6\n        /* \"#utility.yul\":4349:4426   */\n      tag_100\n      jump\t// in\n    tag_187:\n        /* \"#utility.yul\":4436:4508   */\n      tag_188\n        /* \"#utility.yul\":4504:4506   */\n      0x40\n        /* \"#utility.yul\":4493:4502   */\n      dup4\n        /* \"#utility.yul\":4489:4507   */\n      add\n        /* \"#utility.yul\":4480:4486   */\n      dup5\n        /* \"#utility.yul\":4436:4508   */\n      tag_101\n      jump\t// in\n    tag_188:\n        /* \"#utility.yul\":3972:4515   */\n      swap5\n      swap4\n      pop\n      pop\n      pop\n      pop\n      jump\t// out\n        /* \"#utility.yul\":4521:4995   */\n    tag_28:\n        /* \"#utility.yul\":4589:4595   */\n      0x00\n        /* \"#utility.yul\":4597:4603   */\n      dup1\n        /* \"#utility.yul\":4646:4648   */\n      0x40\n        /* \"#utility.yul\":4634:4643   */\n      dup4\n        /* \"#utility.yul\":4625:4632   */\n      dup6\n        /* \"#utility.yul\":4621:4644   */\n      sub\n        /* \"#utility.yul\":4617:4649   */\n      slt\n        /* \"#utility.yul\":4614:4733   */\n      iszero\n      tag_190\n      jumpi\n        /* \"#utility.yul\":4652:4731   */\n      tag_191\n      tag_82\n      jump\t// in\n    tag_191:\n        /* \"#utility.yul\":4614:4733   */\n    tag_190:\n        /* \"#utility.yul\":4772:4773   */\n      0x00\n        /* \"#utility.yul\":4797:4850   */\n      tag_192\n        /* \"#utility.yul\":4842:4849   */\n      dup6\n        /* \"#utility.yul\":4833:4839   */\n      dup3\n        /* \"#utility.yul\":4822:4831   */\n      dup7\n        /* \"#utility.yul\":4818:4840   */\n      add\n        /* \"#utility.yul\":4797:4850   */\n      tag_87\n      jump\t// in\n    tag_192:\n        /* \"#utility.yul\":4787:4850   */\n      swap3\n      pop\n        /* \"#utility.yul\":4743:4860   */\n      pop\n        /* \"#utility.yul\":4899:4901   */\n      0x20\n        /* \"#utility.yul\":4925:4978   */\n      tag_193\n        /* \"#utility.yul\":4970:4977   */\n      dup6\n        /* \"#utility.yul\":4961:4967   */\n      dup3\n        /* \"#utility.yul\":4950:4959   */\n      dup7\n        /* \"#utility.yul\":4946:4968   */\n      add\n        /* \"#utility.yul\":4925:4978   */\n      tag_91\n      jump\t// in\n    tag_193:\n        /* \"#utility.yul\":4915:4978   */\n      swap2\n      pop\n        /* \"#utility.yul\":4870:4988   */\n      pop\n        /* \"#utility.yul\":4521:4995   */\n      swap3\n      pop\n      swap3\n      swap1\n      pop\n      jump\t// out\n        /* \"#utility.yul\":5001:5314   */\n    tag_31:\n        /* \"#utility.yul\":5114:5118   */\n      0x00\n        /* \"#utility.yul\":5152:5154   */\n      0x20\n        /* \"#utility.yul\":5141:5150   */\n      dup3\n        /* \"#utility.yul\":5137:5155   */\n      add\n        /* \"#utility.yul\":5129:5155   */\n      swap1\n      pop\n        /* \"#utility.yul\":5201:5210   */\n      dup2\n        /* \"#utility.yul\":5195:5199   */\n      dup2\n        /* \"#utility.yul\":5191:5211   */\n      sub\n        /* \"#utility.yul\":5187:5188   */\n      0x00\n        /* \"#utility.yul\":5176:5185   */\n      dup4\n        /* \"#utility.yul\":5172:5189   */\n      add\n        /* \"#utility.yul\":5165:5212   */\n      mstore\n        /* \"#utility.yul\":5229:5307   */\n      tag_195\n        /* \"#utility.yul\":5302:5306   */\n      dup2\n        /* \"#utility.yul\":5293:5299   */\n      dup5\n        /* \"#utility.yul\":5229:5307   */\n      tag_96\n      jump\t// in\n    tag_195:\n        /* \"#utility.yul\":5221:5307   */\n      swap1\n      pop\n        /* \"#utility.yul\":5001:5314   */\n      swap3\n      swap2\n      pop\n      pop\n      jump\t// out\n        /* \"#utility.yul\":5320:5437   */\n    tag_102:\n        /* \"#utility.yul\":5429:5430   */\n      0x00\n        /* \"#utility.yul\":5426:5427   */\n      dup1\n        /* \"#utility.yul\":5419:5431   */\n      revert\n        /* \"#utility.yul\":5443:5560   */\n    tag_103:\n        /* \"#utility.yul\":5552:5553   */\n      0x00\n        /* \"#utility.yul\":5549:5550   */\n      dup1\n        /* \"#utility.yul\":5542:5554   */\n      revert\n        /* \"#utility.yul\":5566:5746   */\n    tag_104:\n        /* \"#utility.yul\":5614:5691   */\n      0x4e487b7100000000000000000000000000000000000000000000000000000000\n        /* \"#utility.yul\":5611:5612   */\n      0x00\n        /* \"#utility.yul\":5604:5692   */\n      mstore\n        /* \"#utility.yul\":5711:5715   */\n      0x41\n        /* \"#utility.yul\":5708:5709   */\n      0x04\n        /* \"#utility.yul\":5701:5716   */\n      mstore\n        /* \"#utility.yul\":5735:5739   */\n      0x24\n        /* \"#utility.yul\":5732:5733   */\n      0x00\n        /* \"#utility.yul\":5725:5740   */\n      revert\n        /* \"#utility.yul\":5752:6033   */\n    tag_105:\n        /* \"#utility.yul\":5835:5862   */\n      tag_200\n        /* \"#utility.yul\":5857:5861   */\n      dup3\n        /* \"#utility.yul\":5835:5862   */\n      tag_95\n      jump\t// in\n    tag_200:\n        /* \"#utility.yul\":5827:5833   */\n      dup2\n        /* \"#utility.yul\":5823:5863   */\n      add\n        /* \"#utility.yul\":5965:5971   */\n      dup2\n        /* \"#utility.yul\":5953:5963   */\n      dup2\n        /* \"#utility.yul\":5950:5972   */\n      lt\n        /* \"#utility.yul\":5929:5947   */\n      0xffffffffffffffff\n        /* \"#utility.yul\":5917:5927   */\n      dup3\n        /* \"#utility.yul\":5914:5948   */\n      gt\n        /* \"#utility.yul\":5911:5973   */\n      or\n        /* \"#utility.yul\":5908:5996   */\n      iszero\n      tag_201\n      jumpi\n        /* \"#utility.yul\":5976:5994   */\n      tag_202\n      tag_104\n      jump\t// in\n    tag_202:\n        /* \"#utility.yul\":5908:5996   */\n    tag_201:\n        /* \"#utility.yul\":6016:6026   */\n      dup1\n        /* \"#utility.yul\":6012:6014   */\n      0x40\n        /* \"#utility.yul\":6005:6027   */\n      mstore\n        /* \"#utility.yul\":5795:6033   */\n      pop\n        /* \"#utility.yul\":5752:6033   */\n      pop\n      pop\n      jump\t// out\n        /* \"#utility.yul\":6039:6168   */\n    tag_106:\n        /* \"#utility.yul\":6073:6079   */\n      0x00\n        /* \"#utility.yul\":6100:6120   */\n      tag_204\n      tag_81\n      jump\t// in\n    tag_204:\n        /* \"#utility.yul\":6090:6120   */\n      swap1\n      pop\n        /* \"#utility.yul\":6129:6162   */\n      tag_205\n        /* \"#utility.yul\":6157:6161   */\n      dup3\n        /* \"#utility.yul\":6149:6155   */\n      dup3\n        /* \"#utility.yul\":6129:6162   */\n      tag_105\n      jump\t// in\n    tag_205:\n        /* \"#utility.yul\":6039:6168   */\n      swap2\n      swap1\n      pop\n      jump\t// out\n        /* \"#utility.yul\":6174:6482   */\n    tag_107:\n        /* \"#utility.yul\":6236:6240   */\n      0x00\n        /* \"#utility.yul\":6326:6344   */\n      0xffffffffffffffff\n        /* \"#utility.yul\":6318:6324   */\n      dup3\n        /* \"#utility.yul\":6315:6345   */\n      gt\n        /* \"#utility.yul\":6312:6368   */\n      iszero\n      tag_207\n      jumpi\n        /* \"#utility.yul\":6348:6366   */\n      tag_208\n      tag_104\n      jump\t// in\n    tag_208:\n        /* \"#utility.yul\":6312:6368   */\n    tag_207:\n        /* \"#utility.yul\":6386:6415   */\n      tag_209\n        /* \"#utility.yul\":6408:6414   */\n      dup3\n        /* \"#utility.yul\":6386:6415   */\n      tag_95\n      jump\t// in\n    tag_209:\n        /* \"#utility.yul\":6378:6415   */\n      swap1\n      pop\n        /* \"#utility.yul\":6470:6474   */\n      0x20\n        /* \"#utility.yul\":6464:6468   */\n      dup2\n        /* \"#utility.yul\":6460:6475   */\n      add\n        /* \"#utility.yul\":6452:6475   */\n      swap1\n      pop\n        /* \"#utility.yul\":6174:6482   */\n      swap2\n      swap1\n      pop\n      jump\t// out\n        /* \"#utility.yul\":6488:6636   */\n    tag_108:\n        /* \"#utility.yul\":6586:6592   */\n      dup3\n        /* \"#utility.yul\":6581:6584   */\n      dup2\n        /* \"#utility.yul\":6576:6579   */\n      dup4\n        /* \"#utility.yul\":6563:6593   */\n      calldatacopy\n        /* \"#utility.yul\":6627:6628   */\n      0x00\n        /* \"#utility.yul\":6618:6624   */\n      dup4\n        /* \"#utility.yul\":6613:6616   */\n      dup4\n        /* \"#utility.yul\":6609:6625   */\n      add\n        /* \"#utility.yul\":6602:6629   */\n      mstore\n        /* \"#utility.yul\":6488:6636   */\n      pop\n      pop\n      pop\n      jump\t// out\n        /* \"#utility.yul\":6642:7067   */\n    tag_109:\n        /* \"#utility.yul\":6720:6725   */\n      0x00\n        /* \"#utility.yul\":6745:6811   */\n      tag_212\n        /* \"#utility.yul\":6761:6810   */\n      tag_213\n        /* \"#utility.yul\":6803:6809   */\n      dup5\n        /* \"#utility.yul\":6761:6810   */\n      tag_107\n      jump\t// in\n    tag_213:\n        /* \"#utility.yul\":6745:6811   */\n      tag_106\n      jump\t// in\n    tag_212:\n        /* \"#utility.yul\":6736:6811   */\n      swap1\n      pop\n        /* \"#utility.yul\":6834:6840   */\n      dup3\n        /* \"#utility.yul\":6827:6832   */\n      dup2\n        /* \"#utility.yul\":6820:6841   */\n      mstore\n        /* \"#utility.yul\":6872:6876   */\n      0x20\n        /* \"#utility.yul\":6865:6870   */\n      dup2\n        /* \"#utility.yul\":6861:6877   */\n      add\n        /* \"#utility.yul\":6910:6913   */\n      dup5\n        /* \"#utility.yul\":6901:6907   */\n      dup5\n        /* \"#utility.yul\":6896:6899   */\n      dup5\n        /* \"#utility.yul\":6892:6908   */\n      add\n        /* \"#utility.yul\":6889:6914   */\n      gt\n        /* \"#utility.yul\":6886:6998   */\n      iszero\n      tag_214\n      jumpi\n        /* \"#utility.yul\":6917:6996   */\n      tag_215\n      tag_103\n      jump\t// in\n    tag_215:\n        /* \"#utility.yul\":6886:6998   */\n    tag_214:\n        /* \"#utility.yul\":7007:7061   */\n      tag_216\n        /* \"#utility.yul\":7054:7060   */\n      dup5\n        /* \"#utility.yul\":7049:7052   */\n      dup3\n        /* \"#utility.yul\":7044:7047   */\n      dup6\n        /* \"#utility.yul\":7007:7061   */\n      tag_108\n      jump\t// in\n    tag_216:\n        /* \"#utility.yul\":6726:7067   */\n      pop\n        /* \"#utility.yul\":6642:7067   */\n      swap4\n      swap3\n      pop\n      pop\n      pop\n      jump\t// out\n        /* \"#utility.yul\":7087:7427   */\n    tag_110:\n        /* \"#utility.yul\":7143:7148   */\n      0x00\n        /* \"#utility.yul\":7192:7195   */\n      dup3\n        /* \"#utility.yul\":7185:7189   */\n      0x1f\n        /* \"#utility.yul\":7177:7183   */\n      dup4\n        /* \"#utility.yul\":7173:7190   */\n      add\n        /* \"#utility.yul\":7169:7196   */\n      slt\n        /* \"#utility.yul\":7159:7281   */\n      tag_218\n      jumpi\n        /* \"#utility.yul\":7200:7279   */\n      tag_219\n      tag_102\n      jump\t// in\n    tag_219:\n        /* \"#utility.yul\":7159:7281   */\n    tag_218:\n        /* \"#utility.yul\":7317:7323   */\n      dup2\n        /* \"#utility.yul\":7304:7324   */\n      calldataload\n        /* \"#utility.yul\":7342:7421   */\n      tag_220\n        /* \"#utility.yul\":7417:7420   */\n      dup5\n        /* \"#utility.yul\":7409:7415   */\n      dup3\n        /* \"#utility.yul\":7402:7406   */\n      0x20\n        /* \"#utility.yul\":7394:7400   */\n      dup7\n        /* \"#utility.yul\":7390:7407   */\n      add\n        /* \"#utility.yul\":7342:7421   */\n      tag_109\n      jump\t// in\n    tag_220:\n        /* \"#utility.yul\":7333:7421   */\n      swap2\n      pop\n        /* \"#utility.yul\":7149:7427   */\n      pop\n        /* \"#utility.yul\":7087:7427   */\n      swap3\n      swap2\n      pop\n      pop\n      jump\t// out\n        /* \"#utility.yul\":7433:7942   */\n    tag_37:\n        /* \"#utility.yul\":7502:7508   */\n      0x00\n        /* \"#utility.yul\":7551:7553   */\n      0x20\n        /* \"#utility.yul\":7539:7548   */\n      dup3\n        /* \"#utility.yul\":7530:7537   */\n      dup5\n        /* \"#utility.yul\":7526:7549   */\n      sub\n        /* \"#utility.yul\":7522:7554   */\n      slt\n        /* \"#utility.yul\":7519:7638   */\n      iszero\n      tag_222\n      jumpi\n        /* \"#utility.yul\":7557:7636   */\n      tag_223\n      tag_82\n      jump\t// in\n    tag_223:\n        /* \"#utility.yul\":7519:7638   */\n    tag_222:\n        /* \"#utility.yul\":7705:7706   */\n      0x00\n        /* \"#utility.yul\":7694:7703   */\n      dup3\n        /* \"#utility.yul\":7690:7707   */\n      add\n        /* \"#utility.yul\":7677:7708   */\n      calldataload\n        /* \"#utility.yul\":7735:7753   */\n      0xffffffffffffffff\n        /* \"#utility.yul\":7727:7733   */\n      dup2\n        /* \"#utility.yul\":7724:7754   */\n      gt\n        /* \"#utility.yul\":7721:7838   */\n      iszero\n      tag_224\n      jumpi\n        /* \"#utility.yul\":7757:7836   */\n      tag_225\n      tag_83\n      jump\t// in\n    tag_225:\n        /* \"#utility.yul\":7721:7838   */\n    tag_224:\n        /* \"#utility.yul\":7862:7925   */\n      tag_226\n        /* \"#utility.yul\":7917:7924   */\n      dup5\n        /* \"#utility.yul\":7908:7914   */\n      dup3\n        /* \"#utility.yul\":7897:7906   */\n      dup6\n        /* \"#utility.yul\":7893:7915   */\n      add\n        /* \"#utility.yul\":7862:7925   */\n      tag_110\n      jump\t// in\n    tag_226:\n        /* \"#utility.yul\":7852:7925   */\n      swap2\n      pop\n        /* \"#utility.yul\":7648:7935   */\n      pop\n        /* \"#utility.yul\":7433:7942   */\n      swap3\n      swap2\n      pop\n      pop\n      jump\t// out\n        /* \"#utility.yul\":7948:8038   */\n    tag_111:\n        /* \"#utility.yul\":7982:7989   */\n      0x00\n        /* \"#utility.yul\":8025:8030   */\n      dup2\n        /* \"#utility.yul\":8018:8031   */\n      iszero\n        /* \"#utility.yul\":8011:8032   */\n      iszero\n        /* \"#utility.yul\":8000:8032   */\n      swap1\n      pop\n        /* \"#utility.yul\":7948:8038   */\n      swap2\n      swap1\n      pop\n      jump\t// out\n        /* \"#utility.yul\":8044:8153   */\n    tag_112:\n        /* \"#utility.yul\":8125:8146   */\n      tag_229\n        /* \"#utility.yul\":8140:8145   */\n      dup2\n        /* \"#utility.yul\":8125:8146   */\n      tag_111\n      jump\t// in\n    tag_229:\n        /* \"#utility.yul\":8120:8123   */\n      dup3\n        /* \"#utility.yul\":8113:8147   */\n      mstore\n        /* \"#utility.yul\":8044:8153   */\n      pop\n      pop\n      jump\t// out\n        /* \"#utility.yul\":8159:8369   */\n    tag_40:\n        /* \"#utility.yul\":8246:8250   */\n      0x00\n        /* \"#utility.yul\":8284:8286   */\n      0x20\n        /* \"#utility.yul\":8273:8282   */\n      dup3\n        /* \"#utility.yul\":8269:8287   */\n      add\n        /* \"#utility.yul\":8261:8287   */\n      swap1\n      pop\n        /* \"#utility.yul\":8297:8362   */\n      tag_231\n        /* \"#utility.yul\":8359:8360   */\n      0x00\n        /* \"#utility.yul\":8348:8357   */\n      dup4\n        /* \"#utility.yul\":8344:8361   */\n      add\n        /* \"#utility.yul\":8335:8341   */\n      dup5\n        /* \"#utility.yul\":8297:8362   */\n      tag_112\n      jump\t// in\n    tag_231:\n        /* \"#utility.yul\":8159:8369   */\n      swap3\n      swap2\n      pop\n      pop\n      jump\t// out\n        /* \"#utility.yul\":8375:8481   */\n    tag_113:\n        /* \"#utility.yul\":8455:8456   */\n      0x03\n        /* \"#utility.yul\":8448:8453   */\n      dup2\n        /* \"#utility.yul\":8445:8457   */\n      lt\n        /* \"#utility.yul\":8435:8475   */\n      tag_233\n      jumpi\n        /* \"#utility.yul\":8471:8472   */\n      0x00\n        /* \"#utility.yul\":8468:8469   */\n      dup1\n        /* \"#utility.yul\":8461:8473   */\n      revert\n        /* \"#utility.yul\":8435:8475   */\n    tag_233:\n        /* \"#utility.yul\":8375:8481   */\n      pop\n      jump\t// out\n        /* \"#utility.yul\":8487:8640   */\n    tag_114:\n        /* \"#utility.yul\":8540:8545   */\n      0x00\n        /* \"#utility.yul\":8578:8584   */\n      dup2\n        /* \"#utility.yul\":8565:8585   */\n      calldataload\n        /* \"#utility.yul\":8556:8585   */\n      swap1\n      pop\n        /* \"#utility.yul\":8594:8634   */\n      tag_235\n        /* \"#utility.yul\":8628:8633   */\n      dup2\n        /* \"#utility.yul\":8594:8634   */\n      tag_113\n      jump\t// in\n    tag_235:\n        /* \"#utility.yul\":8487:8640   */\n      swap3\n      swap2\n      pop\n      pop\n      jump\t// out\n        /* \"#utility.yul\":8646:9314   */\n    tag_43:\n        /* \"#utility.yul\":8731:8737   */\n      0x00\n        /* \"#utility.yul\":8739:8745   */\n      dup1\n        /* \"#utility.yul\":8788:8790   */\n      0x40\n        /* \"#utility.yul\":8776:8785   */\n      dup4\n        /* \"#utility.yul\":8767:8774   */\n      dup6\n        /* \"#utility.yul\":8763:8786   */\n      sub\n        /* \"#utility.yul\":8759:8791   */\n      slt\n        /* \"#utility.yul\":8756:8875   */\n      iszero\n      tag_237\n      jumpi\n        /* \"#utility.yul\":8794:8873   */\n      tag_238\n      tag_82\n      jump\t// in\n    tag_238:\n        /* \"#utility.yul\":8756:8875   */\n    tag_237:\n        /* \"#utility.yul\":8914:8915   */\n      0x00\n        /* \"#utility.yul\":8939:8999   */\n      tag_239\n        /* \"#utility.yul\":8991:8998   */\n      dup6\n        /* \"#utility.yul\":8982:8988   */\n      dup3\n        /* \"#utility.yul\":8971:8980   */\n      dup7\n        /* \"#utility.yul\":8967:8989   */\n      add\n        /* \"#utility.yul\":8939:8999   */\n      tag_114\n      jump\t// in\n    tag_239:\n        /* \"#utility.yul\":8929:8999   */\n      swap3\n      pop\n        /* \"#utility.yul\":8885:9009   */\n      pop\n        /* \"#utility.yul\":9076:9078   */\n      0x20\n        /* \"#utility.yul\":9065:9074   */\n      dup4\n        /* \"#utility.yul\":9061:9079   */\n      add\n        /* \"#utility.yul\":9048:9080   */\n      calldataload\n        /* \"#utility.yul\":9107:9125   */\n      0xffffffffffffffff\n        /* \"#utility.yul\":9099:9105   */\n      dup2\n        /* \"#utility.yul\":9096:9126   */\n      gt\n        /* \"#utility.yul\":9093:9210   */\n      iszero\n      tag_240\n      jumpi\n        /* \"#utility.yul\":9129:9208   */\n      tag_241\n      tag_83\n      jump\t// in\n    tag_241:\n        /* \"#utility.yul\":9093:9210   */\n    tag_240:\n        /* \"#utility.yul\":9234:9297   */\n      tag_242\n        /* \"#utility.yul\":9289:9296   */\n      dup6\n        /* \"#utility.yul\":9280:9286   */\n      dup3\n        /* \"#utility.yul\":9269:9278   */\n      dup7\n        /* \"#utility.yul\":9265:9287   */\n      add\n        /* \"#utility.yul\":9234:9297   */\n      tag_110\n      jump\t// in\n    tag_242:\n        /* \"#utility.yul\":9224:9297   */\n      swap2\n      pop\n        /* \"#utility.yul\":9019:9307   */\n      pop\n        /* \"#utility.yul\":8646:9314   */\n      swap3\n      pop\n      swap3\n      swap1\n      pop\n      jump\t// out\n        /* \"#utility.yul\":9320:9500   */\n    tag_115:\n        /* \"#utility.yul\":9368:9445   */\n      0x4e487b7100000000000000000000000000000000000000000000000000000000\n        /* \"#utility.yul\":9365:9366   */\n      0x00\n        /* \"#utility.yul\":9358:9446   */\n      mstore\n        /* \"#utility.yul\":9465:9469   */\n      0x22\n        /* \"#utility.yul\":9462:9463   */\n      0x04\n        /* \"#utility.yul\":9455:9470   */\n      mstore\n        /* \"#utility.yul\":9489:9493   */\n      0x24\n        /* \"#utility.yul\":9486:9487   */\n      0x00\n        /* \"#utility.yul\":9479:9494   */\n      revert\n        /* \"#utility.yul\":9506:9826   */\n    tag_49:\n        /* \"#utility.yul\":9550:9556   */\n      0x00\n        /* \"#utility.yul\":9587:9588   */\n      0x02\n        /* \"#utility.yul\":9581:9585   */\n      dup3\n        /* \"#utility.yul\":9577:9589   */\n      div\n        /* \"#utility.yul\":9567:9589   */\n      swap1\n      pop\n        /* \"#utility.yul\":9634:9635   */\n      0x01\n        /* \"#utility.yul\":9628:9632   */\n      dup3\n        /* \"#utility.yul\":9624:9636   */\n      and\n        /* \"#utility.yul\":9655:9673   */\n      dup1\n        /* \"#utility.yul\":9645:9726   */\n      tag_245\n      jumpi\n        /* \"#utility.yul\":9711:9715   */\n      0x7f\n        /* \"#utility.yul\":9703:9709   */\n      dup3\n        /* \"#utility.yul\":9699:9716   */\n      and\n        /* \"#utility.yul\":9689:9716   */\n      swap2\n      pop\n        /* \"#utility.yul\":9645:9726   */\n    tag_245:\n        /* \"#utility.yul\":9773:9775   */\n      0x20\n        /* \"#utility.yul\":9765:9771   */\n      dup3\n        /* \"#utility.yul\":9762:9776   */\n      lt\n        /* \"#utility.yul\":9742:9760   */\n      dup2\n        /* \"#utility.yul\":9739:9777   */\n      sub\n        /* \"#utility.yul\":9736:9820   */\n      tag_246\n      jumpi\n        /* \"#utility.yul\":9792:9810   */\n      tag_247\n      tag_115\n      jump\t// in\n    tag_247:\n        /* \"#utility.yul\":9736:9820   */\n    tag_246:\n        /* \"#utility.yul\":9557:9826   */\n      pop\n        /* \"#utility.yul\":9506:9826   */\n      swap2\n      swap1\n      pop\n      jump\t// out\n        /* \"#utility.yul\":9832:10055   */\n    tag_116:\n        /* \"#utility.yul\":9972:10006   */\n      0x4f6e6c79206f776e65722063616e206578656375746520746869732066756e63\n        /* \"#utility.yul\":9968:9969   */\n      0x00\n        /* \"#utility.yul\":9960:9966   */\n      dup3\n        /* \"#utility.yul\":9956:9970   */\n      add\n        /* \"#utility.yul\":9949:10007   */\n      mstore\n        /* \"#utility.yul\":10041:10047   */\n      0x74696f6e00000000000000000000000000000000000000000000000000000000\n        /* \"#utility.yul\":10036:10038   */\n      0x20\n        /* \"#utility.yul\":10028:10034   */\n      dup3\n        /* \"#utility.yul\":10024:10039   */\n      add\n        /* \"#utility.yul\":10017:10048   */\n      mstore\n        /* \"#utility.yul\":9832:10055   */\n      pop\n      jump\t// out\n        /* \"#utility.yul\":10061:10427   */\n    tag_117:\n        /* \"#utility.yul\":10203:10206   */\n      0x00\n        /* \"#utility.yul\":10224:10291   */\n      tag_250\n        /* \"#utility.yul\":10288:10290   */\n      0x24\n        /* \"#utility.yul\":10283:10286   */\n      dup4\n        /* \"#utility.yul\":10224:10291   */\n      tag_93\n      jump\t// in\n    tag_250:\n        /* \"#utility.yul\":10217:10291   */\n      swap2\n      pop\n        /* \"#utility.yul\":10300:10393   */\n      tag_251\n        /* \"#utility.yul\":10389:10392   */\n      dup3\n        /* \"#utility.yul\":10300:10393   */\n      tag_116\n      jump\t// in\n    tag_251:\n        /* \"#utility.yul\":10418:10420   */\n      0x40\n        /* \"#utility.yul\":10413:10416   */\n      dup3\n        /* \"#utility.yul\":10409:10421   */\n      add\n        /* \"#utility.yul\":10402:10421   */\n      swap1\n      pop\n        /* \"#utility.yul\":10061:10427   */\n      swap2\n      swap1\n      pop\n      jump\t// out\n        /* \"#utility.yul\":10433:10852   */\n    tag_62:\n        /* \"#utility.yul\":10599:10603   */\n      0x00\n        /* \"#utility.yul\":10637:10639   */\n      0x20\n        /* \"#utility.yul\":10626:10635   */\n      dup3\n        /* \"#utility.yul\":10622:10640   */\n      add\n        /* \"#utility.yul\":10614:10640   */\n      swap1\n      pop\n        /* \"#utility.yul\":10686:10695   */\n      dup2\n        /* \"#utility.yul\":10680:10684   */\n      dup2\n        /* \"#utility.yul\":10676:10696   */\n      sub\n        /* \"#utility.yul\":10672:10673   */\n      0x00\n        /* \"#utility.yul\":10661:10670   */\n      dup4\n        /* \"#utility.yul\":10657:10674   */\n      add\n        /* \"#utility.yul\":10650:10697   */\n      mstore\n        /* \"#utility.yul\":10714:10845   */\n      tag_253\n        /* \"#utility.yul\":10840:10844   */\n      dup2\n        /* \"#utility.yul\":10714:10845   */\n      tag_117\n      jump\t// in\n    tag_253:\n        /* \"#utility.yul\":10706:10845   */\n      swap1\n      pop\n        /* \"#utility.yul\":10433:10852   */\n      swap2\n      swap1\n      pop\n      jump\t// out\n        /* \"#utility.yul\":10858:11038   */\n    tag_118:\n        /* \"#utility.yul\":10906:10983   */\n      0x4e487b7100000000000000000000000000000000000000000000000000000000\n        /* \"#utility.yul\":10903:10904   */\n      0x00\n        /* \"#utility.yul\":10896:10984   */\n      mstore\n        /* \"#utility.yul\":11003:11007   */\n      0x11\n        /* \"#utility.yul\":11000:11001   */\n      0x04\n        /* \"#utility.yul\":10993:11008   */\n      mstore\n        /* \"#utility.yul\":11027:11031   */\n      0x24\n        /* \"#utility.yul\":11024:11025   */\n      0x00\n        /* \"#utility.yul\":11017:11032   */\n      revert\n        /* \"#utility.yul\":11044:11235   */\n    tag_66:\n        /* \"#utility.yul\":11084:11087   */\n      0x00\n        /* \"#utility.yul\":11103:11123   */\n      tag_256\n        /* \"#utility.yul\":11121:11122   */\n      dup3\n        /* \"#utility.yul\":11103:11123   */\n      tag_88\n      jump\t// in\n    tag_256:\n        /* \"#utility.yul\":11098:11123   */\n      swap2\n      pop\n        /* \"#utility.yul\":11137:11157   */\n      tag_257\n        /* \"#utility.yul\":11155:11156   */\n      dup4\n        /* \"#utility.yul\":11137:11157   */\n      tag_88\n      jump\t// in\n    tag_257:\n        /* \"#utility.yul\":11132:11157   */\n      swap3\n      pop\n        /* \"#utility.yul\":11180:11181   */\n      dup3\n        /* \"#utility.yul\":11177:11178   */\n      dup3\n        /* \"#utility.yul\":11173:11182   */\n      add\n        /* \"#utility.yul\":11166:11182   */\n      swap1\n      pop\n        /* \"#utility.yul\":11201:11204   */\n      dup1\n        /* \"#utility.yul\":11198:11199   */\n      dup3\n        /* \"#utility.yul\":11195:11205   */\n      gt\n        /* \"#utility.yul\":11192:11228   */\n      iszero\n      tag_258\n      jumpi\n        /* \"#utility.yul\":11208:11226   */\n      tag_259\n      tag_118\n      jump\t// in\n    tag_259:\n        /* \"#utility.yul\":11192:11228   */\n    tag_258:\n        /* \"#utility.yul\":11044:11235   */\n      swap3\n      swap2\n      pop\n      pop\n      jump\t// out\n        /* \"#utility.yul\":11241:11382   */\n    tag_119:\n        /* \"#utility.yul\":11290:11294   */\n      0x00\n        /* \"#utility.yul\":11313:11316   */\n      dup2\n        /* \"#utility.yul\":11305:11316   */\n      swap1\n      pop\n        /* \"#utility.yul\":11336:11339   */\n      dup2\n        /* \"#utility.yul\":11333:11334   */\n      0x00\n        /* \"#utility.yul\":11326:11340   */\n      mstore\n        /* \"#utility.yul\":11370:11374   */\n      0x20\n        /* \"#utility.yul\":11367:11368   */\n      0x00\n        /* \"#utility.yul\":11357:11375   */\n      keccak256\n        /* \"#utility.yul\":11349:11375   */\n      swap1\n      pop\n        /* \"#utility.yul\":11241:11382   */\n      swap2\n      swap1\n      pop\n      jump\t// out\n        /* \"#utility.yul\":11388:11481   */\n    tag_120:\n        /* \"#utility.yul\":11425:11431   */\n      0x00\n        /* \"#utility.yul\":11472:11474   */\n      0x20\n        /* \"#utility.yul\":11467:11469   */\n      0x1f\n        /* \"#utility.yul\":11460:11465   */\n      dup4\n        /* \"#utility.yul\":11456:11470   */\n      add\n        /* \"#utility.yul\":11452:11475   */\n      div\n        /* \"#utility.yul\":11442:11475   */\n      swap1\n      pop\n        /* \"#utility.yul\":11388:11481   */\n      swap2\n      swap1\n      pop\n      jump\t// out\n        /* \"#utility.yul\":11487:11594   */\n    tag_121:\n        /* \"#utility.yul\":11531:11539   */\n      0x00\n        /* \"#utility.yul\":11581:11586   */\n      dup3\n        /* \"#utility.yul\":11575:11579   */\n      dup3\n        /* \"#utility.yul\":11571:11587   */\n      shl\n        /* \"#utility.yul\":11550:11587   */\n      swap1\n      pop\n        /* \"#utility.yul\":11487:11594   */\n      swap3\n      swap2\n      pop\n      pop\n      jump\t// out\n        /* \"#utility.yul\":11600:11993   */\n    tag_122:\n        /* \"#utility.yul\":11669:11675   */\n      0x00\n        /* \"#utility.yul\":11719:11720   */\n      0x08\n        /* \"#utility.yul\":11707:11717   */\n      dup4\n        /* \"#utility.yul\":11703:11721   */\n      mul\n        /* \"#utility.yul\":11742:11839   */\n      tag_264\n        /* \"#utility.yul\":11772:11838   */\n      0xffffffffffffffffffffffffffffffffffffffffffffffffffffffffffffffff\n        /* \"#utility.yul\":11761:11770   */\n      dup3\n        /* \"#utility.yul\":11742:11839   */\n      tag_121\n      jump\t// in\n    tag_264:\n        /* \"#utility.yul\":11860:11899   */\n      tag_265\n        /* \"#utility.yul\":11890:11898   */\n      dup7\n        /* \"#utility.yul\":11879:11888   */\n      dup4\n        /* \"#utility.yul\":11860:11899   */\n      tag_121\n      jump\t// in\n    tag_265:\n        /* \"#utility.yul\":11848:11899   */\n      swap6\n      pop\n        /* \"#utility.yul\":11932:11936   */\n      dup1\n        /* \"#utility.yul\":11928:11937   */\n      not\n        /* \"#utility.yul\":11921:11926   */\n      dup5\n        /* \"#utility.yul\":11917:11938   */\n      and\n        /* \"#utility.yul\":11908:11938   */\n      swap4\n      pop\n        /* \"#utility.yul\":11981:11985   */\n      dup1\n        /* \"#utility.yul\":11971:11979   */\n      dup7\n        /* \"#utility.yul\":11967:11986   */\n      and\n        /* \"#utility.yul\":11960:11965   */\n      dup5\n        /* \"#utility.yul\":11957:11987   */\n      or\n        /* \"#utility.yul\":11947:11987   */\n      swap3\n      pop\n        /* \"#utility.yul\":11676:11993   */\n      pop\n      pop\n        /* \"#utility.yul\":11600:11993   */\n      swap4\n      swap3\n      pop\n      pop\n      pop\n      jump\t// out\n        /* \"#utility.yul\":11999:12059   */\n    tag_123:\n        /* \"#utility.yul\":12027:12030   */\n      0x00\n        /* \"#utility.yul\":12048:12053   */\n      dup2\n        /* \"#utility.yul\":12041:12053   */\n      swap1\n      pop\n        /* \"#utility.yul\":11999:12059   */\n      swap2\n      swap1\n      pop\n      jump\t// out\n        /* \"#utility.yul\":12065:12207   */\n    tag_124:\n        /* \"#utility.yul\":12115:12124   */\n      0x00\n        /* \"#utility.yul\":12148:12201   */\n      tag_268\n        /* \"#utility.yul\":12166:12200   */\n      tag_269\n        /* \"#utility.yul\":12175:12199   */\n      tag_270\n        /* \"#utility.yul\":12193:12198   */\n      dup5\n        /* \"#utility.yul\":12175:12199   */\n      tag_88\n      jump\t// in\n    tag_270:\n        /* \"#utility.yul\":12166:12200   */\n      tag_123\n      jump\t// in\n    tag_269:\n        /* \"#utility.yul\":12148:12201   */\n      tag_88\n      jump\t// in\n    tag_268:\n        /* \"#utility.yul\":12135:12201   */\n      swap1\n      pop\n        /* \"#utility.yul\":12065:12207   */\n      swap2\n      swap1\n      pop\n      jump\t// out\n        /* \"#utility.yul\":12213:12288   */\n    tag_125:\n        /* \"#utility.yul\":12256:12259   */\n      0x00\n        /* \"#utility.yul\":12277:12282   */\n      dup2\n        /* \"#utility.yul\":12270:12282   */\n      swap1\n      pop\n        /* \"#utility.yul\":12213:12288   */\n      swap2\n      swap1\n      pop\n      jump\t// out\n        /* \"#utility.yul\":12294:12563   */\n    tag_126:\n        /* \"#utility.yul\":12404:12443   */\n      tag_273\n        /* \"#utility.yul\":12435:12442   */\n      dup4\n        /* \"#utility.yul\":12404:12443   */\n      tag_124\n      jump\t// in\n    tag_273:\n        /* \"#utility.yul\":12465:12556   */\n      tag_274\n        /* \"#utility.yul\":12514:12555   */\n      tag_275\n        /* \"#utility.yul\":12538:12554   */\n      dup3\n        /* \"#utility.yul\":12514:12555   */\n      tag_125\n      jump\t// in\n    tag_275:\n        /* \"#utility.yul\":12506:12512   */\n      dup5\n        /* \"#utility.yul\":12499:12503   */\n      dup5\n        /* \"#utility.yul\":12493:12504   */\n      sload\n        /* \"#utility.yul\":12465:12556   */\n      tag_122\n      jump\t// in\n    tag_274:\n        /* \"#utility.yul\":12459:12463   */\n      dup3\n        /* \"#utility.yul\":12452:12557   */\n      sstore\n        /* \"#utility.yul\":12370:12563   */\n      pop\n        /* \"#utility.yul\":12294:12563   */\n      pop\n      pop\n      pop\n      jump\t// out\n        /* \"#utility.yul\":12569:12642   */\n    tag_127:\n        /* \"#utility.yul\":12614:12617   */\n      0x00\n        /* \"#utility.yul\":12569:12642   */\n      swap1\n      jump\t// out\n        /* \"#utility.yul\":12648:12837   */\n    tag_128:\n        /* \"#utility.yul\":12725:12757   */\n      tag_278\n      tag_127\n      jump\t// in\n    tag_278:\n        /* \"#utility.yul\":12766:12831   */\n      tag_279\n        /* \"#utility.yul\":12824:12830   */\n      dup2\n        /* \"#utility.yul\":12816:12822   */\n      dup5\n        /* \"#utility.yul\":12810:12814   */\n      dup5\n        /* \"#utility.yul\":12766:12831   */\n      tag_126\n      jump\t// in\n    tag_279:\n        /* \"#utility.yul\":12701:12837   */\n      pop\n        /* \"#utility.yul\":12648:12837   */\n      pop\n      pop\n      jump\t// out\n        /* \"#utility.yul\":12843:13029   */\n    tag_129:\n        /* \"#utility.yul\":12903:13023   */\n    tag_281:\n        /* \"#utility.yul\":12920:12923   */\n      dup2\n        /* \"#utility.yul\":12913:12918   */\n      dup2\n        /* \"#utility.yul\":12910:12924   */\n      lt\n        /* \"#utility.yul\":12903:13023   */\n      iszero\n      tag_283\n      jumpi\n        /* \"#utility.yul\":12974:13013   */\n      tag_284\n        /* \"#utility.yul\":13011:13012   */\n      0x00\n        /* \"#utility.yul\":13004:13009   */\n      dup3\n        /* \"#utility.yul\":12974:13013   */\n      tag_128\n      jump\t// in\n    tag_284:\n        /* \"#utility.yul\":12947:12948   */\n      0x01\n        /* \"#utility.yul\":12940:12945   */\n      dup2\n        /* \"#utility.yul\":12936:12949   */\n      add\n        /* \"#utility.yul\":12927:12949   */\n      swap1\n      pop\n        /* \"#utility.yul\":12903:13023   */\n      jump(tag_281)\n    tag_283:\n        /* \"#utility.yul\":12843:13029   */\n      pop\n      pop\n      jump\t// out\n        /* \"#utility.yul\":13035:13578   */\n    tag_130:\n        /* \"#utility.yul\":13136:13138   */\n      0x1f\n        /* \"#utility.yul\":13131:13134   */\n      dup3\n        /* \"#utility.yul\":13128:13139   */\n      gt\n        /* \"#utility.yul\":13125:13571   */\n      iszero\n      tag_286\n      jumpi\n        /* \"#utility.yul\":13170:13208   */\n      tag_287\n        /* \"#utility.yul\":13202:13207   */\n      dup2\n        /* \"#utility.yul\":13170:13208   */\n      tag_119\n      jump\t// in\n    tag_287:\n        /* \"#utility.yul\":13254:13283   */\n      tag_288\n        /* \"#utility.yul\":13272:13282   */\n      dup5\n        /* \"#utility.yul\":13254:13283   */\n      tag_120\n      jump\t// in\n    tag_288:\n        /* \"#utility.yul\":13244:13252   */\n      dup2\n        /* \"#utility.yul\":13240:13284   */\n      add\n        /* \"#utility.yul\":13437:13439   */\n      0x20\n        /* \"#utility.yul\":13425:13435   */\n      dup6\n        /* \"#utility.yul\":13422:13440   */\n      lt\n        /* \"#utility.yul\":13419:13468   */\n      iszero\n      tag_289\n      jumpi\n        /* \"#utility.yul\":13458:13466   */\n      dup2\n        /* \"#utility.yul\":13443:13466   */\n      swap1\n      pop\n        /* \"#utility.yul\":13419:13468   */\n    tag_289:\n        /* \"#utility.yul\":13481:13561   */\n      tag_290\n        /* \"#utility.yul\":13537:13559   */\n      tag_291\n        /* \"#utility.yul\":13555:13558   */\n      dup6\n        /* \"#utility.yul\":13537:13559   */\n      tag_120\n      jump\t// in\n    tag_291:\n        /* \"#utility.yul\":13527:13535   */\n      dup4\n        /* \"#utility.yul\":13523:13560   */\n      add\n        /* \"#utility.yul\":13510:13521   */\n      dup3\n        /* \"#utility.yul\":13481:13561   */\n      tag_129\n      jump\t// in\n    tag_290:\n        /* \"#utility.yul\":13140:13571   */\n      pop\n      pop\n        /* \"#utility.yul\":13125:13571   */\n    tag_286:\n        /* \"#utility.yul\":13035:13578   */\n      pop\n      pop\n      pop\n      jump\t// out\n        /* \"#utility.yul\":13584:13701   */\n    tag_131:\n        /* \"#utility.yul\":13638:13646   */\n      0x00\n        /* \"#utility.yul\":13688:13693   */\n      dup3\n        /* \"#utility.yul\":13682:13686   */\n      dup3\n        /* \"#utility.yul\":13678:13694   */\n      shr\n        /* \"#utility.yul\":13657:13694   */\n      swap1\n      pop\n        /* \"#utility.yul\":13584:13701   */\n      swap3\n      swap2\n      pop\n      pop\n      jump\t// out\n        /* \"#utility.yul\":13707:13876   */\n    tag_132:\n        /* \"#utility.yul\":13751:13757   */\n      0x00\n        /* \"#utility.yul\":13784:13835   */\n      tag_294\n        /* \"#utility.yul\":13832:13833   */\n      0x00\n        /* \"#utility.yul\":13828:13834   */\n      not\n        /* \"#utility.yul\":13820:13825   */\n      dup5\n        /* \"#utility.yul\":13817:13818   */\n      0x08\n        /* \"#utility.yul\":13813:13826   */\n      mul\n        /* \"#utility.yul\":13784:13835   */\n      tag_131\n      jump\t// in\n    tag_294:\n        /* \"#utility.yul\":13780:13836   */\n      not\n        /* \"#utility.yul\":13865:13869   */\n      dup1\n        /* \"#utility.yul\":13859:13863   */\n      dup4\n        /* \"#utility.yul\":13855:13870   */\n      and\n        /* \"#utility.yul\":13845:13870   */\n      swap2\n      pop\n        /* \"#utility.yul\":13758:13876   */\n      pop\n        /* \"#utility.yul\":13707:13876   */\n      swap3\n      swap2\n      pop\n      pop\n      jump\t// out\n        /* \"#utility.yul\":13881:14176   */\n    tag_133:\n        /* \"#utility.yul\":13957:13961   */\n      0x00\n        /* \"#utility.yul\":14103:14132   */\n      tag_296\n        /* \"#utility.yul\":14128:14131   */\n      dup4\n        /* \"#utility.yul\":14122:14126   */\n      dup4\n        /* \"#utility.yul\":14103:14132   */\n      tag_132\n      jump\t// in\n    tag_296:\n        /* \"#utility.yul\":14095:14132   */\n      swap2\n      pop\n        /* \"#utility.yul\":14165:14168   */\n      dup3\n        /* \"#utility.yul\":14162:14163   */\n      0x02\n        /* \"#utility.yul\":14158:14169   */\n      mul\n        /* \"#utility.yul\":14152:14156   */\n      dup3\n        /* \"#utility.yul\":14149:14170   */\n      or\n        /* \"#utility.yul\":14141:14170   */\n      swap1\n      pop\n        /* \"#utility.yul\":13881:14176   */\n      swap3\n      swap2\n      pop\n      pop\n      jump\t// out\n        /* \"#utility.yul\":14181:15576   */\n    tag_69:\n        /* \"#utility.yul\":14298:14335   */\n      tag_298\n        /* \"#utility.yul\":14331:14334   */\n      dup3\n        /* \"#utility.yul\":14298:14335   */\n      tag_92\n      jump\t// in\n    tag_298:\n        /* \"#utility.yul\":14400:14418   */\n      0xffffffffffffffff\n        /* \"#utility.yul\":14392:14398   */\n      dup2\n        /* \"#utility.yul\":14389:14419   */\n      gt\n        /* \"#utility.yul\":14386:14442   */\n      iszero\n      tag_299\n      jumpi\n        /* \"#utility.yul\":14422:14440   */\n      tag_300\n      tag_104\n      jump\t// in\n    tag_300:\n        /* \"#utility.yul\":14386:14442   */\n    tag_299:\n        /* \"#utility.yul\":14466:14504   */\n      tag_301\n        /* \"#utility.yul\":14498:14502   */\n      dup3\n        /* \"#utility.yul\":14492:14503   */\n      sload\n        /* \"#utility.yul\":14466:14504   */\n      tag_49\n      jump\t// in\n    tag_301:\n        /* \"#utility.yul\":14551:14618   */\n      tag_302\n        /* \"#utility.yul\":14611:14617   */\n      dup3\n        /* \"#utility.yul\":14603:14609   */\n      dup3\n        /* \"#utility.yul\":14597:14601   */\n      dup6\n        /* \"#utility.yul\":14551:14618   */\n      tag_130\n      jump\t// in\n    tag_302:\n        /* \"#utility.yul\":14645:14646   */\n      0x00\n        /* \"#utility.yul\":14669:14673   */\n      0x20\n        /* \"#utility.yul\":14656:14673   */\n      swap1\n      pop\n        /* \"#utility.yul\":14701:14703   */\n      0x1f\n        /* \"#utility.yul\":14693:14699   */\n      dup4\n        /* \"#utility.yul\":14690:14704   */\n      gt\n        /* \"#utility.yul\":14718:14719   */\n      0x01\n        /* \"#utility.yul\":14713:15331   */\n      dup2\n      eq\n      tag_304\n      jumpi\n        /* \"#utility.yul\":15375:15376   */\n      0x00\n        /* \"#utility.yul\":15392:15398   */\n      dup5\n        /* \"#utility.yul\":15389:15466   */\n      iszero\n      tag_305\n      jumpi\n        /* \"#utility.yul\":15441:15450   */\n      dup3\n        /* \"#utility.yul\":15436:15439   */\n      dup8\n        /* \"#utility.yul\":15432:15451   */\n      add\n        /* \"#utility.yul\":15426:15452   */\n      mload\n        /* \"#utility.yul\":15417:15452   */\n      swap1\n      pop\n        /* \"#utility.yul\":15389:15466   */\n    tag_305:\n        /* \"#utility.yul\":15492:15559   */\n      tag_306\n        /* \"#utility.yul\":15552:15558   */\n      dup6\n        /* \"#utility.yul\":15545:15550   */\n      dup3\n        /* \"#utility.yul\":15492:15559   */\n      tag_133\n      jump\t// in\n    tag_306:\n        /* \"#utility.yul\":15486:15490   */\n      dup7\n        /* \"#utility.yul\":15479:15560   */\n      sstore\n        /* \"#utility.yul\":15348:15570   */\n      pop\n        /* \"#utility.yul\":14683:15570   */\n      jump(tag_303)\n        /* \"#utility.yul\":14713:15331   */\n    tag_304:\n        /* \"#utility.yul\":14765:14769   */\n      0x1f\n        /* \"#utility.yul\":14761:14770   */\n      not\n        /* \"#utility.yul\":14753:14759   */\n      dup5\n        /* \"#utility.yul\":14749:14771   */\n      and\n        /* \"#utility.yul\":14799:14836   */\n      tag_307\n        /* \"#utility.yul\":14831:14835   */\n      dup7\n        /* \"#utility.yul\":14799:14836   */\n      tag_119\n      jump\t// in\n    tag_307:\n        /* \"#utility.yul\":14858:14859   */\n      0x00\n        /* \"#utility.yul\":14872:15080   */\n    tag_308:\n        /* \"#utility.yul\":14886:14893   */\n      dup3\n        /* \"#utility.yul\":14883:14884   */\n      dup2\n        /* \"#utility.yul\":14880:14894   */\n      lt\n        /* \"#utility.yul\":14872:15080   */\n      iszero\n      tag_310\n      jumpi\n        /* \"#utility.yul\":14965:14974   */\n      dup5\n        /* \"#utility.yul\":14960:14963   */\n      dup10\n        /* \"#utility.yul\":14956:14975   */\n      add\n        /* \"#utility.yul\":14950:14976   */\n      mload\n        /* \"#utility.yul\":14942:14948   */\n      dup3\n        /* \"#utility.yul\":14935:14977   */\n      sstore\n        /* \"#utility.yul\":15016:15017   */\n      0x01\n        /* \"#utility.yul\":15008:15014   */\n      dup3\n        /* \"#utility.yul\":15004:15018   */\n      add\n        /* \"#utility.yul\":14994:15018   */\n      swap2\n      pop\n        /* \"#utility.yul\":15063:15065   */\n      0x20\n        /* \"#utility.yul\":15052:15061   */\n      dup6\n        /* \"#utility.yul\":15048:15066   */\n      add\n        /* \"#utility.yul\":15035:15066   */\n      swap5\n      pop\n        /* \"#utility.yul\":14909:14913   */\n      0x20\n        /* \"#utility.yul\":14906:14907   */\n      dup2\n        /* \"#utility.yul\":14902:14914   */\n      add\n        /* \"#utility.yul\":14897:14914   */\n      swap1\n      pop\n        /* \"#utility.yul\":14872:15080   */\n      jump(tag_308)\n    tag_310:\n        /* \"#utility.yul\":15108:15114   */\n      dup7\n        /* \"#utility.yul\":15099:15106   */\n      dup4\n        /* \"#utility.yul\":15096:15115   */\n      lt\n        /* \"#utility.yul\":15093:15272   */\n      iszero\n      tag_311\n      jumpi\n        /* \"#utility.yul\":15166:15175   */\n      dup5\n        /* \"#utility.yul\":15161:15164   */\n      dup10\n        /* \"#utility.yul\":15157:15176   */\n      add\n        /* \"#utility.yul\":15151:15177   */\n      mload\n        /* \"#utility.yul\":15209:15257   */\n      tag_312\n        /* \"#utility.yul\":15251:15255   */\n      0x1f\n        /* \"#utility.yul\":15243:15249   */\n      dup10\n        /* \"#utility.yul\":15239:15256   */\n      and\n        /* \"#utility.yul\":15228:15237   */\n      dup3\n        /* \"#utility.yul\":15209:15257   */\n      tag_132\n      jump\t// in\n    tag_312:\n        /* \"#utility.yul\":15201:15207   */\n      dup4\n        /* \"#utility.yul\":15194:15258   */\n      sstore\n        /* \"#utility.yul\":15116:15272   */\n      pop\n        /* \"#utility.yul\":15093:15272   */\n    tag_311:\n        /* \"#utility.yul\":15318:15319   */\n      0x01\n        /* \"#utility.yul\":15314:15315   */\n      0x02\n        /* \"#utility.yul\":15306:15312   */\n      dup9\n        /* \"#utility.yul\":15302:15316   */\n      mul\n        /* \"#utility.yul\":15298:15320   */\n      add\n        /* \"#utility.yul\":15292:15296   */\n      dup9\n        /* \"#utility.yul\":15285:15321   */\n      sstore\n        /* \"#utility.yul\":14720:15331   */\n      pop\n      pop\n      pop\n        /* \"#utility.yul\":14683:15570   */\n    tag_303:\n      pop\n        /* \"#utility.yul\":14273:15576   */\n      pop\n      pop\n      pop\n        /* \"#utility.yul\":14181:15576   */\n      pop\n      pop\n      jump\t// out\n        /* \"#utility.yul\":15582:16125   */\n    tag_80:\n        /* \"#utility.yul\":15756:15760   */\n      0x00\n        /* \"#utility.yul\":15794:15796   */\n      0x60\n        /* \"#utility.yul\":15783:15792   */\n      dup3\n        /* \"#utility.yul\":15779:15797   */\n      add\n        /* \"#utility.yul\":15771:15797   */\n      swap1\n      pop\n        /* \"#utility.yul\":15807:15878   */\n      tag_314\n        /* \"#utility.yul\":15875:15876   */\n      0x00\n        /* \"#utility.yul\":15864:15873   */\n      dup4\n        /* \"#utility.yul\":15860:15877   */\n      add\n        /* \"#utility.yul\":15851:15857   */\n      dup7\n        /* \"#utility.yul\":15807:15878   */\n      tag_101\n      jump\t// in\n    tag_314:\n        /* \"#utility.yul\":15925:15934   */\n      dup2\n        /* \"#utility.yul\":15919:15923   */\n      dup2\n        /* \"#utility.yul\":15915:15935   */\n      sub\n        /* \"#utility.yul\":15910:15912   */\n      0x20\n        /* \"#utility.yul\":15899:15908   */\n      dup4\n        /* \"#utility.yul\":15895:15913   */\n      add\n        /* \"#utility.yul\":15888:15936   */\n      mstore\n        /* \"#utility.yul\":15953:16031   */\n      tag_315\n        /* \"#utility.yul\":16026:16030   */\n      dup2\n        /* \"#utility.yul\":16017:16023   */\n      dup6\n        /* \"#utility.yul\":15953:16031   */\n      tag_96\n      jump\t// in\n    tag_315:\n        /* \"#utility.yul\":15945:16031   */\n      swap1\n      pop\n        /* \"#utility.yul\":16041:16118   */\n      tag_316\n        /* \"#utility.yul\":16114:16116   */\n      0x40\n        /* \"#utility.yul\":16103:16112   */\n      dup4\n        /* \"#utility.yul\":16099:16117   */\n      add\n        /* \"#utility.yul\":16090:16096   */\n      dup5\n        /* \"#utility.yul\":16041:16118   */\n      tag_100\n      jump\t// in\n    tag_316:\n        /* \"#utility.yul\":15582:16125   */\n      swap5\n      swap4\n      pop\n      pop\n      pop\n      pop\n      jump\t// out\n\n    auxdata: 0xa26469706673582212206a3d1bdf8dfa3bacced6c9dae2f861403b70ac3f3fe437bc9add48b0942c532e64736f6c63430008190033\n}\n",
				"bytecode": {
					"linkReferences": {},
					"object": "6080604052348015600e575f80fd5b506040516110343803806110348339818101604052810190602e919060ac565b806003819055503360045f6101000a81548173ffffffffffffffffffffffffffffffffffffffff021916908373ffffffffffffffffffffffffffffffffffffffff1602179055505060d2565b5f80fd5b5f819050919050565b608e81607e565b81146097575f80fd5b50565b5f8151905060a6816087565b92915050565b5f6020828403121560be5760bd607a565b5b5f60c984828501609a565b91505092915050565b610f55806100df5f395ff3fe608060405234801561000f575f80fd5b506004361061007b575f3560e01c806374dcdc631161005957806374dcdc63146100ff578063960bfe041461012f5780639bc2bc711461014b578063b8bf2dc21461017b5761007b565b80630ad3430e1461007f578063171d073a146100af57806342cde4e8146100e1575b5f80fd5b610099600480360381019061009491906106cc565b6101ab565b6040516100a6919061070f565b60405180910390f35b6100c960048036038101906100c49190610752565b6101c0565b6040516100d89392919061086f565b60405180910390f35b6100e96102a6565b6040516100f6919061070f565b60405180910390f35b610119600480360381019061011491906108ab565b6102ac565b60405161012691906108e9565b60405180910390f35b61014960048036038101906101449190610752565b610352565b005b61016560048036038101906101609190610a35565b6103eb565b6040516101729190610a96565b60405180910390f35b61019560048036038101906101909190610ad2565b610525565b6040516101a29190610a96565b60405180910390f35b6002602052805f5260405f205f915090505481565b5f81815481106101ce575f80fd5b905f5260205f2090600202015f91509050805f0180546101ed90610b59565b80601f016020809104026020016040519081016040528092919081815260200182805461021990610b59565b80156102645780601f1061023b57610100808354040283529160200191610264565b820191905f5260205f20905b81548152906001019060200180831161024757829003601f168201915b505050505090806001015f9054906101000a900460ff16908060010160019054906101000a900473ffffffffffffffffffffffffffffffffffffffff16905083565b60035481565b6001602052815f5260405f20602052805f5260405f205f915091505080546102d390610b59565b80601f01602080910402602001604051908101604052809291908181526020018280546102ff90610b59565b801561034a5780601f106103215761010080835404028352916020019161034a565b820191905f5260205f20905b81548152906001019060200180831161032d57829003601f168201915b505050505081565b60045f9054906101000a900473ffffffffffffffffffffffffffffffffffffffff1673ffffffffffffffffffffffffffffffffffffffff163373ffffffffffffffffffffffffffffffffffffffff16146103e1576040517f08c379a00000000000000000000000000000000000000000000000000000000081526004016103d890610bf9565b60405180910390fd5b8060038190555050565b5f80600160025f3373ffffffffffffffffffffffffffffffffffffffff1673ffffffffffffffffffffffffffffffffffffffff1681526020019081526020015f20546104379190610c44565b905060035481111561044857600190505b8060025f3373ffffffffffffffffffffffffffffffffffffffff1673ffffffffffffffffffffffffffffffffffffffff1681526020019081526020015f20819055508260015f3373ffffffffffffffffffffffffffffffffffffffff1673ffffffffffffffffffffffffffffffffffffffff1681526020019081526020015f205f8381526020019081526020015f2090816104e39190610e14565b507f3c0c8dea9e5e5486a7d5b25f41716a0ee7b12a2a013316408a2fe0870a2f57108360405161051391906108e9565b60405180910390a16001915050919050565b5f80604051806060016040528084815260200185600281111561054b5761054a6107ed565b5b81526020013373ffffffffffffffffffffffffffffffffffffffff16815250908060018154018082558091505060019003905f5260205f2090600202015f909190919091505f820151815f0190816105a39190610e14565b506020820151816001015f6101000a81548160ff021916908360028111156105ce576105cd6107ed565b5b021790555060408201518160010160016101000a81548173ffffffffffffffffffffffffffffffffffffffff021916908373ffffffffffffffffffffffffffffffffffffffff16021790555050507f4d879cc56622a17616a95ef31728044fbccf96e6a5add995543398f56362e37833838560405161064f93929190610ee3565b60405180910390a16001905092915050565b5f604051905090565b5f80fd5b5f80fd5b5f73ffffffffffffffffffffffffffffffffffffffff82169050919050565b5f61069b82610672565b9050919050565b6106ab81610691565b81146106b5575f80fd5b50565b5f813590506106c6816106a2565b92915050565b5f602082840312156106e1576106e061066a565b5b5f6106ee848285016106b8565b91505092915050565b5f819050919050565b610709816106f7565b82525050565b5f6020820190506107225f830184610700565b92915050565b610731816106f7565b811461073b575f80fd5b50565b5f8135905061074c81610728565b92915050565b5f602082840312156107675761076661066a565b5b5f6107748482850161073e565b91505092915050565b5f81519050919050565b5f82825260208201905092915050565b8281835e5f83830152505050565b5f601f19601f8301169050919050565b5f6107bf8261077d565b6107c98185610787565b93506107d9818560208601610797565b6107e2816107a5565b840191505092915050565b7f4e487b71000000000000000000000000000000000000000000000000000000005f52602160045260245ffd5b6003811061082b5761082a6107ed565b5b50565b5f81905061083b8261081a565b919050565b5f61084a8261082e565b9050919050565b61085a81610840565b82525050565b61086981610691565b82525050565b5f6060820190508181035f83015261088781866107b5565b90506108966020830185610851565b6108a36040830184610860565b949350505050565b5f80604083850312156108c1576108c061066a565b5b5f6108ce858286016106b8565b92505060206108df8582860161073e565b9150509250929050565b5f6020820190508181035f83015261090181846107b5565b905092915050565b5f80fd5b5f80fd5b7f4e487b71000000000000000000000000000000000000000000000000000000005f52604160045260245ffd5b610947826107a5565b810181811067ffffffffffffffff8211171561096657610965610911565b5b80604052505050565b5f610978610661565b9050610984828261093e565b919050565b5f67ffffffffffffffff8211156109a3576109a2610911565b5b6109ac826107a5565b9050602081019050919050565b828183375f83830152505050565b5f6109d96109d484610989565b61096f565b9050828152602081018484840111156109f5576109f461090d565b5b610a008482856109b9565b509392505050565b5f82601f830112610a1c57610a1b610909565b5b8135610a2c8482602086016109c7565b91505092915050565b5f60208284031215610a4a57610a4961066a565b5b5f82013567ffffffffffffffff811115610a6757610a6661066e565b5b610a7384828501610a08565b91505092915050565b5f8115159050919050565b610a9081610a7c565b82525050565b5f602082019050610aa95f830184610a87565b92915050565b60038110610abb575f80fd5b50565b5f81359050610acc81610aaf565b92915050565b5f8060408385031215610ae857610ae761066a565b5b5f610af585828601610abe565b925050602083013567ffffffffffffffff811115610b1657610b1561066e565b5b610b2285828601610a08565b9150509250929050565b7f4e487b71000000000000000000000000000000000000000000000000000000005f52602260045260245ffd5b5f6002820490506001821680610b7057607f821691505b602082108103610b8357610b82610b2c565b5b50919050565b7f4f6e6c79206f776e65722063616e206578656375746520746869732066756e635f8201527f74696f6e00000000000000000000000000000000000000000000000000000000602082015250565b5f610be3602483610787565b9150610bee82610b89565b604082019050919050565b5f6020820190508181035f830152610c1081610bd7565b9050919050565b7f4e487b71000000000000000000000000000000000000000000000000000000005f52601160045260245ffd5b5f610c4e826106f7565b9150610c59836106f7565b9250828201905080821115610c7157610c70610c17565b5b92915050565b5f819050815f5260205f209050919050565b5f6020601f8301049050919050565b5f82821b905092915050565b5f60088302610cd37fffffffffffffffffffffffffffffffffffffffffffffffffffffffffffffffff82610c98565b610cdd8683610c98565b95508019841693508086168417925050509392505050565b5f819050919050565b5f610d18610d13610d0e846106f7565b610cf5565b6106f7565b9050919050565b5f819050919050565b610d3183610cfe565b610d45610d3d82610d1f565b848454610ca4565b825550505050565b5f90565b610d59610d4d565b610d64818484610d28565b505050565b5b81811015610d8757610d7c5f82610d51565b600181019050610d6a565b5050565b601f821115610dcc57610d9d81610c77565b610da684610c89565b81016020851015610db5578190505b610dc9610dc185610c89565b830182610d69565b50505b505050565b5f82821c905092915050565b5f610dec5f1984600802610dd1565b1980831691505092915050565b5f610e048383610ddd565b9150826002028217905092915050565b610e1d8261077d565b67ffffffffffffffff811115610e3657610e35610911565b5b610e408254610b59565b610e4b828285610d8b565b5f60209050601f831160018114610e7c575f8415610e6a578287015190505b610e748582610df9565b865550610edb565b601f198416610e8a86610c77565b5f5b82811015610eb157848901518255600182019150602085019450602081019050610e8c565b86831015610ece5784890151610eca601f891682610ddd565b8355505b6001600288020188555050505b505050505050565b5f606082019050610ef65f830186610860565b8181036020830152610f0881856107b5565b9050610f176040830184610851565b94935050505056fea26469706673582212206a3d1bdf8dfa3bacced6c9dae2f861403b70ac3f3fe437bc9add48b0942c532e64736f6c63430008190033",
					"opcodes": "PUSH1 0x80 PUSH1 0x40 MSTORE CALLVALUE DUP1 ISZERO PUSH1 0xE JUMPI PUSH0 DUP1 REVERT JUMPDEST POP PUSH1 0x40 MLOAD PUSH2 0x1034 CODESIZE SUB DUP1 PUSH2 0x1034 DUP4 CODECOPY DUP2 DUP2 ADD PUSH1 0x40 MSTORE DUP2 ADD SWAP1 PUSH1 0x2E SWAP2 SWAP1 PUSH1 0xAC JUMP JUMPDEST DUP1 PUSH1 0x3 DUP2 SWAP1 SSTORE POP CALLER PUSH1 0x4 PUSH0 PUSH2 0x100 EXP DUP2 SLOAD DUP2 PUSH20 0xFFFFFFFFFFFFFFFFFFFFFFFFFFFFFFFFFFFFFFFF MUL NOT AND SWAP1 DUP4 PUSH20 0xFFFFFFFFFFFFFFFFFFFFFFFFFFFFFFFFFFFFFFFF AND MUL OR SWAP1 SSTORE POP POP PUSH1 0xD2 JUMP JUMPDEST PUSH0 DUP1 REVERT JUMPDEST PUSH0 DUP2 SWAP1 POP SWAP2 SWAP1 POP JUMP JUMPDEST PUSH1 0x8E DUP2 PUSH1 0x7E JUMP JUMPDEST DUP2 EQ PUSH1 0x97 JUMPI PUSH0 DUP1 REVERT JUMPDEST POP JUMP JUMPDEST PUSH0 DUP2 MLOAD SWAP1 POP PUSH1 0xA6 DUP2 PUSH1 0x87 JUMP JUMPDEST SWAP3 SWAP2 POP POP JUMP JUMPDEST PUSH0 PUSH1 0x20 DUP3 DUP5 SUB SLT ISZERO PUSH1 0xBE JUMPI PUSH1 0xBD PUSH1 0x7A JUMP JUMPDEST JUMPDEST PUSH0 PUSH1 0xC9 DUP5 DUP3 DUP6 ADD PUSH1 0x9A JUMP JUMPDEST SWAP2 POP POP SWAP3 SWAP2 POP POP JUMP JUMPDEST PUSH2 0xF55 DUP1 PUSH2 0xDF PUSH0 CODECOPY PUSH0 RETURN INVALID PUSH1 0x80 PUSH1 0x40 MSTORE CALLVALUE DUP1 ISZERO PUSH2 0xF JUMPI PUSH0 DUP1 REVERT JUMPDEST POP PUSH1 0x4 CALLDATASIZE LT PUSH2 0x7B JUMPI PUSH0 CALLDATALOAD PUSH1 0xE0 SHR DUP1 PUSH4 0x74DCDC63 GT PUSH2 0x59 JUMPI DUP1 PUSH4 0x74DCDC63 EQ PUSH2 0xFF JUMPI DUP1 PUSH4 0x960BFE04 EQ PUSH2 0x12F JUMPI DUP1 PUSH4 0x9BC2BC71 EQ PUSH2 0x14B JUMPI DUP1 PUSH4 0xB8BF2DC2 EQ PUSH2 0x17B JUMPI PUSH2 0x7B JUMP JUMPDEST DUP1 PUSH4 0xAD3430E EQ PUSH2 0x7F JUMPI DUP1 PUSH4 0x171D073A EQ PUSH2 0xAF JUMPI DUP1 PUSH4 0x42CDE4E8 EQ PUSH2 0xE1 JUMPI JUMPDEST PUSH0 DUP1 REVERT JUMPDEST PUSH2 0x99 PUSH1 0x4 DUP1 CALLDATASIZE SUB DUP2 ADD SWAP1 PUSH2 0x94 SWAP2 SWAP1 PUSH2 0x6CC JUMP JUMPDEST PUSH2 0x1AB JUMP JUMPDEST PUSH1 0x40 MLOAD PUSH2 0xA6 SWAP2 SWAP1 PUSH2 0x70F JUMP JUMPDEST PUSH1 0x40 MLOAD DUP1 SWAP2 SUB SWAP1 RETURN JUMPDEST PUSH2 0xC9 PUSH1 0x4 DUP1 CALLDATASIZE SUB DUP2 ADD SWAP1 PUSH2 0xC4 SWAP2 SWAP1 PUSH2 0x752 JUMP JUMPDEST PUSH2 0x1C0 JUMP JUMPDEST PUSH1 0x40 MLOAD PUSH2 0xD8 SWAP4 SWAP3 SWAP2 SWAP1 PUSH2 0x86F JUMP JUMPDEST PUSH1 0x40 MLOAD DUP1 SWAP2 SUB SWAP1 RETURN JUMPDEST PUSH2 0xE9 PUSH2 0x2A6 JUMP JUMPDEST PUSH1 0x40 MLOAD PUSH2 0xF6 SWAP2 SWAP1 PUSH2 0x70F JUMP JUMPDEST PUSH1 0x40 MLOAD DUP1 SWAP2 SUB SWAP1 RETURN JUMPDEST PUSH2 0x119 PUSH1 0x4 DUP1 CALLDATASIZE SUB DUP2 ADD SWAP1 PUSH2 0x114 SWAP2 SWAP1 PUSH2 0x8AB JUMP JUMPDEST PUSH2 0x2AC JUMP JUMPDEST PUSH1 0x40 MLOAD PUSH2 0x126 SWAP2 SWAP1 PUSH2 0x8E9 JUMP JUMPDEST PUSH1 0x40 MLOAD DUP1 SWAP2 SUB SWAP1 RETURN JUMPDEST PUSH2 0x149 PUSH1 0x4 DUP1 CALLDATASIZE SUB DUP2 ADD SWAP1 PUSH2 0x144 SWAP2 SWAP1 PUSH2 0x752 JUMP JUMPDEST PUSH2 0x352 JUMP JUMPDEST STOP JUMPDEST PUSH2 0x165 PUSH1 0x4 DUP1 CALLDATASIZE SUB DUP2 ADD SWAP1 PUSH2 0x160 SWAP2 SWAP1 PUSH2 0xA35 JUMP JUMPDEST PUSH2 0x3EB JUMP JUMPDEST PUSH1 0x40 MLOAD PUSH2 0x172 SWAP2 SWAP1 PUSH2 0xA96 JUMP JUMPDEST PUSH1 0x40 MLOAD DUP1 SWAP2 SUB SWAP1 RETURN JUMPDEST PUSH2 0x195 PUSH1 0x4 DUP1 CALLDATASIZE SUB DUP2 ADD SWAP1 PUSH2 0x190 SWAP2 SWAP1 PUSH2 0xAD2 JUMP JUMPDEST PUSH2 0x525 JUMP JUMPDEST PUSH1 0x40 MLOAD PUSH2 0x1A2 SWAP2 SWAP1 PUSH2 0xA96 JUMP JUMPDEST PUSH1 0x40 MLOAD DUP1 SWAP2 SUB SWAP1 RETURN JUMPDEST PUSH1 0x2 PUSH1 0x20 MSTORE DUP1 PUSH0 MSTORE PUSH1 0x40 PUSH0 KECCAK256 PUSH0 SWAP2 POP SWAP1 POP SLOAD DUP2 JUMP JUMPDEST PUSH0 DUP2 DUP2 SLOAD DUP2 LT PUSH2 0x1CE JUMPI PUSH0 DUP1 REVERT JUMPDEST SWAP1 PUSH0 MSTORE PUSH1 0x20 PUSH0 KECCAK256 SWAP1 PUSH1 0x2 MUL ADD PUSH0 SWAP2 POP SWAP1 POP DUP1 PUSH0 ADD DUP1 SLOAD PUSH2 0x1ED SWAP1 PUSH2 0xB59 JUMP JUMPDEST DUP1 PUSH1 0x1F ADD PUSH1 0x20 DUP1 SWAP2 DIV MUL PUSH1 0x20 ADD PUSH1 0x40 MLOAD SWAP1 DUP2 ADD PUSH1 0x40 MSTORE DUP1 SWAP3 SWAP2 SWAP1 DUP2 DUP2 MSTORE PUSH1 0x20 ADD DUP3 DUP1 SLOAD PUSH2 0x219 SWAP1 PUSH2 0xB59 JUMP JUMPDEST DUP1 ISZERO PUSH2 0x264 JUMPI DUP1 PUSH1 0x1F LT PUSH2 0x23B JUMPI PUSH2 0x100 DUP1 DUP4 SLOAD DIV MUL DUP4 MSTORE SWAP2 PUSH1 0x20 ADD SWAP2 PUSH2 0x264 JUMP JUMPDEST DUP3 ADD SWAP2 SWAP1 PUSH0 MSTORE PUSH1 0x20 PUSH0 KECCAK256 SWAP1 JUMPDEST DUP2 SLOAD DUP2 MSTORE SWAP1 PUSH1 0x1 ADD SWAP1 PUSH1 0x20 ADD DUP1 DUP4 GT PUSH2 0x247 JUMPI DUP3 SWAP1 SUB PUSH1 0x1F AND DUP3 ADD SWAP2 JUMPDEST POP POP POP POP POP SWAP1 DUP1 PUSH1 0x1 ADD PUSH0 SWAP1 SLOAD SWAP1 PUSH2 0x100 EXP SWAP1 DIV PUSH1 0xFF AND SWAP1 DUP1 PUSH1 0x1 ADD PUSH1 0x1 SWAP1 SLOAD SWAP1 PUSH2 0x100 EXP SWAP1 DIV PUSH20 0xFFFFFFFFFFFFFFFFFFFFFFFFFFFFFFFFFFFFFFFF AND SWAP1 POP DUP4 JUMP JUMPDEST PUSH1 0x3 SLOAD DUP2 JUMP JUMPDEST PUSH1 0x1 PUSH1 0x20 MSTORE DUP2 PUSH0 MSTORE PUSH1 0x40 PUSH0 KECCAK256 PUSH1 0x20 MSTORE DUP1 PUSH0 MSTORE PUSH1 0x40 PUSH0 KECCAK256 PUSH0 SWAP2 POP SWAP2 POP POP DUP1 SLOAD PUSH2 0x2D3 SWAP1 PUSH2 0xB59 JUMP JUMPDEST DUP1 PUSH1 0x1F ADD PUSH1 0x20 DUP1 SWAP2 DIV MUL PUSH1 0x20 ADD PUSH1 0x40 MLOAD SWAP1 DUP2 ADD PUSH1 0x40 MSTORE DUP1 SWAP3 SWAP2 SWAP1 DUP2 DUP2 MSTORE PUSH1 0x20 ADD DUP3 DUP1 SLOAD PUSH2 0x2FF SWAP1 PUSH2 0xB59 JUMP JUMPDEST DUP1 ISZERO PUSH2 0x34A JUMPI DUP1 PUSH1 0x1F LT PUSH2 0x321 JUMPI PUSH2 0x100 DUP1 DUP4 SLOAD DIV MUL DUP4 MSTORE SWAP2 PUSH1 0x20 ADD SWAP2 PUSH2 0x34A JUMP JUMPDEST DUP3 ADD SWAP2 SWAP1 PUSH0 MSTORE PUSH1 0x20 PUSH0 KECCAK256 SWAP1 JUMPDEST DUP2 SLOAD DUP2 MSTORE SWAP1 PUSH1 0x1 ADD SWAP1 PUSH1 0x20 ADD DUP1 DUP4 GT PUSH2 0x32D JUMPI DUP3 SWAP1 SUB PUSH1 0x1F AND DUP3 ADD SWAP2 JUMPDEST POP POP POP POP POP DUP2 JUMP JUMPDEST PUSH1 0x4 PUSH0 SWAP1 SLOAD SWAP1 PUSH2 0x100 EXP SWAP1 DIV PUSH20 0xFFFFFFFFFFFFFFFFFFFFFFFFFFFFFFFFFFFFFFFF AND PUSH20 0xFFFFFFFFFFFFFFFFFFFFFFFFFFFFFFFFFFFFFFFF AND CALLER PUSH20 0xFFFFFFFFFFFFFFFFFFFFFFFFFFFFFFFFFFFFFFFF AND EQ PUSH2 0x3E1 JUMPI PUSH1 0x40 MLOAD PUSH32 0x8C379A000000000000000000000000000000000000000000000000000000000 DUP2 MSTORE PUSH1 0x4 ADD PUSH2 0x3D8 SWAP1 PUSH2 0xBF9 JUMP JUMPDEST PUSH1 0x40 MLOAD DUP1 SWAP2 SUB SWAP1 REVERT JUMPDEST DUP1 PUSH1 0x3 DUP2 SWAP1 SSTORE POP POP JUMP JUMPDEST PUSH0 DUP1 PUSH1 0x1 PUSH1 0x2 PUSH0 CALLER PUSH20 0xFFFFFFFFFFFFFFFFFFFFFFFFFFFFFFFFFFFFFFFF AND PUSH20 0xFFFFFFFFFFFFFFFFFFFFFFFFFFFFFFFFFFFFFFFF AND DUP2 MSTORE PUSH1 0x20 ADD SWAP1 DUP2 MSTORE PUSH1 0x20 ADD PUSH0 KECCAK256 SLOAD PUSH2 0x437 SWAP2 SWAP1 PUSH2 0xC44 JUMP JUMPDEST SWAP1 POP PUSH1 0x3 SLOAD DUP2 GT ISZERO PUSH2 0x448 JUMPI PUSH1 0x1 SWAP1 POP JUMPDEST DUP1 PUSH1 0x2 PUSH0 CALLER PUSH20 0xFFFFFFFFFFFFFFFFFFFFFFFFFFFFFFFFFFFFFFFF AND PUSH20 0xFFFFFFFFFFFFFFFFFFFFFFFFFFFFFFFFFFFFFFFF AND DUP2 MSTORE PUSH1 0x20 ADD SWAP1 DUP2 MSTORE PUSH1 0x20 ADD PUSH0 KECCAK256 DUP2 SWAP1 SSTORE POP DUP3 PUSH1 0x1 PUSH0 CALLER PUSH20 0xFFFFFFFFFFFFFFFFFFFFFFFFFFFFFFFFFFFFFFFF AND PUSH20 0xFFFFFFFFFFFFFFFFFFFFFFFFFFFFFFFFFFFFFFFF AND DUP2 MSTORE PUSH1 0x20 ADD SWAP1 DUP2 MSTORE PUSH1 0x20 ADD PUSH0 KECCAK256 PUSH0 DUP4 DUP2 MSTORE PUSH1 0x20 ADD SWAP1 DUP2 MSTORE PUSH1 0x20 ADD PUSH0 KECCAK256 SWAP1 DUP2 PUSH2 0x4E3 SWAP2 SWAP1 PUSH2 0xE14 JUMP JUMPDEST POP PUSH32 0x3C0C8DEA9E5E5486A7D5B25F41716A0EE7B12A2A013316408A2FE0870A2F5710 DUP4 PUSH1 0x40 MLOAD PUSH2 0x513 SWAP2 SWAP1 PUSH2 0x8E9 JUMP JUMPDEST PUSH1 0x40 MLOAD DUP1 SWAP2 SUB SWAP1 LOG1 PUSH1 0x1 SWAP2 POP POP SWAP2 SWAP1 POP JUMP JUMPDEST PUSH0 DUP1 PUSH1 0x40 MLOAD DUP1 PUSH1 0x60 ADD PUSH1 0x40 MSTORE DUP1 DUP5 DUP2 MSTORE PUSH1 0x20 ADD DUP6 PUSH1 0x2 DUP2 GT ISZERO PUSH2 0x54B JUMPI PUSH2 0x54A PUSH2 0x7ED JUMP JUMPDEST JUMPDEST DUP2 MSTORE PUSH1 0x20 ADD CALLER PUSH20 0xFFFFFFFFFFFFFFFFFFFFFFFFFFFFFFFFFFFFFFFF AND DUP2 MSTORE POP SWAP1 DUP1 PUSH1 0x1 DUP2 SLOAD ADD DUP1 DUP3 SSTORE DUP1 SWAP2 POP POP PUSH1 0x1 SWAP1 SUB SWAP1 PUSH0 MSTORE PUSH1 0x20 PUSH0 KECCAK256 SWAP1 PUSH1 0x2 MUL ADD PUSH0 SWAP1 SWAP2 SWAP1 SWAP2 SWAP1 SWAP2 POP PUSH0 DUP3 ADD MLOAD DUP2 PUSH0 ADD SWAP1 DUP2 PUSH2 0x5A3 SWAP2 SWAP1 PUSH2 0xE14 JUMP JUMPDEST POP PUSH1 0x20 DUP3 ADD MLOAD DUP2 PUSH1 0x1 ADD PUSH0 PUSH2 0x100 EXP DUP2 SLOAD DUP2 PUSH1 0xFF MUL NOT AND SWAP1 DUP4 PUSH1 0x2 DUP2 GT ISZERO PUSH2 0x5CE JUMPI PUSH2 0x5CD PUSH2 0x7ED JUMP JUMPDEST JUMPDEST MUL OR SWAP1 SSTORE POP PUSH1 0x40 DUP3 ADD MLOAD DUP2 PUSH1 0x1 ADD PUSH1 0x1 PUSH2 0x100 EXP DUP2 SLOAD DUP2 PUSH20 0xFFFFFFFFFFFFFFFFFFFFFFFFFFFFFFFFFFFFFFFF MUL NOT AND SWAP1 DUP4 PUSH20 0xFFFFFFFFFFFFFFFFFFFFFFFFFFFFFFFFFFFFFFFF AND MUL OR SWAP1 SSTORE POP POP POP PUSH32 0x4D879CC56622A17616A95EF31728044FBCCF96E6A5ADD995543398F56362E378 CALLER DUP4 DUP6 PUSH1 0x40 MLOAD PUSH2 0x64F SWAP4 SWAP3 SWAP2 SWAP1 PUSH2 0xEE3 JUMP JUMPDEST PUSH1 0x40 MLOAD DUP1 SWAP2 SUB SWAP1 LOG1 PUSH1 0x1 SWAP1 POP SWAP3 SWAP2 POP POP JUMP JUMPDEST PUSH0 PUSH1 0x40 MLOAD SWAP1 POP SWAP1 JUMP JUMPDEST PUSH0 DUP1 REVERT JUMPDEST PUSH0 DUP1 REVERT JUMPDEST PUSH0 PUSH20 0xFFFFFFFFFFFFFFFFFFFFFFFFFFFFFFFFFFFFFFFF DUP3 AND SWAP1 POP SWAP2 SWAP1 POP JUMP JUMPDEST PUSH0 PUSH2 0x69B DUP3 PUSH2 0x672 JUMP JUMPDEST SWAP1 POP SWAP2 SWAP1 POP JUMP JUMPDEST PUSH2 0x6AB DUP2 PUSH2 0x691 JUMP JUMPDEST DUP2 EQ PUSH2 0x6B5 JUMPI PUSH0 DUP1 REVERT JUMPDEST POP JUMP JUMPDEST PUSH0 DUP2 CALLDATALOAD SWAP1 POP PUSH2 0x6C6 DUP2 PUSH2 0x6A2 JUMP JUMPDEST SWAP3 SWAP2 POP POP JUMP JUMPDEST PUSH0 PUSH1 0x20 DUP3 DUP5 SUB SLT ISZERO PUSH2 0x6E1 JUMPI PUSH2 0x6E0 PUSH2 0x66A JUMP JUMPDEST JUMPDEST PUSH0 PUSH2 0x6EE DUP5 DUP3 DUP6 ADD PUSH2 0x6B8 JUMP JUMPDEST SWAP2 POP POP SWAP3 SWAP2 POP POP JUMP JUMPDEST PUSH0 DUP2 SWAP1 POP SWAP2 SWAP1 POP JUMP JUMPDEST PUSH2 0x709 DUP2 PUSH2 0x6F7 JUMP JUMPDEST DUP3 MSTORE POP POP JUMP JUMPDEST PUSH0 PUSH1 0x20 DUP3 ADD SWAP1 POP PUSH2 0x722 PUSH0 DUP4 ADD DUP5 PUSH2 0x700 JUMP JUMPDEST SWAP3 SWAP2 POP POP JUMP JUMPDEST PUSH2 0x731 DUP2 PUSH2 0x6F7 JUMP JUMPDEST DUP2 EQ PUSH2 0x73B JUMPI PUSH0 DUP1 REVERT JUMPDEST POP JUMP JUMPDEST PUSH0 DUP2 CALLDATALOAD SWAP1 POP PUSH2 0x74C DUP2 PUSH2 0x728 JUMP JUMPDEST SWAP3 SWAP2 POP POP JUMP JUMPDEST PUSH0 PUSH1 0x20 DUP3 DUP5 SUB SLT ISZERO PUSH2 0x767 JUMPI PUSH2 0x766 PUSH2 0x66A JUMP JUMPDEST JUMPDEST PUSH0 PUSH2 0x774 DUP5 DUP3 DUP6 ADD PUSH2 0x73E JUMP JUMPDEST SWAP2 POP POP SWAP3 SWAP2 POP POP JUMP JUMPDEST PUSH0 DUP2 MLOAD SWAP1 POP SWAP2 SWAP1 POP JUMP JUMPDEST PUSH0 DUP3 DUP3 MSTORE PUSH1 0x20 DUP3 ADD SWAP1 POP SWAP3 SWAP2 POP POP JUMP JUMPDEST DUP3 DUP2 DUP4 MCOPY PUSH0 DUP4 DUP4 ADD MSTORE POP POP POP JUMP JUMPDEST PUSH0 PUSH1 0x1F NOT PUSH1 0x1F DUP4 ADD AND SWAP1 POP SWAP2 SWAP1 POP JUMP JUMPDEST PUSH0 PUSH2 0x7BF DUP3 PUSH2 0x77D JUMP JUMPDEST PUSH2 0x7C9 DUP2 DUP6 PUSH2 0x787 JUMP JUMPDEST SWAP4 POP PUSH2 0x7D9 DUP2 DUP6 PUSH1 0x20 DUP7 ADD PUSH2 0x797 JUMP JUMPDEST PUSH2 0x7E2 DUP2 PUSH2 0x7A5 JUMP JUMPDEST DUP5 ADD SWAP2 POP POP SWAP3 SWAP2 POP POP JUMP JUMPDEST PUSH32 0x4E487B7100000000000000000000000000000000000000000000000000000000 PUSH0 MSTORE PUSH1 0x21 PUSH1 0x4 MSTORE PUSH1 0x24 PUSH0 REVERT JUMPDEST PUSH1 0x3 DUP2 LT PUSH2 0x82B JUMPI PUSH2 0x82A PUSH2 0x7ED JUMP JUMPDEST JUMPDEST POP JUMP JUMPDEST PUSH0 DUP2 SWAP1 POP PUSH2 0x83B DUP3 PUSH2 0x81A JUMP JUMPDEST SWAP2 SWAP1 POP JUMP JUMPDEST PUSH0 PUSH2 0x84A DUP3 PUSH2 0x82E JUMP JUMPDEST SWAP1 POP SWAP2 SWAP1 POP JUMP JUMPDEST PUSH2 0x85A DUP2 PUSH2 0x840 JUMP JUMPDEST DUP3 MSTORE POP POP JUMP JUMPDEST PUSH2 0x869 DUP2 PUSH2 0x691 JUMP JUMPDEST DUP3 MSTORE POP POP JUMP JUMPDEST PUSH0 PUSH1 0x60 DUP3 ADD SWAP1 POP DUP2 DUP2 SUB PUSH0 DUP4 ADD MSTORE PUSH2 0x887 DUP2 DUP7 PUSH2 0x7B5 JUMP JUMPDEST SWAP1 POP PUSH2 0x896 PUSH1 0x20 DUP4 ADD DUP6 PUSH2 0x851 JUMP JUMPDEST PUSH2 0x8A3 PUSH1 0x40 DUP4 ADD DUP5 PUSH2 0x860 JUMP JUMPDEST SWAP5 SWAP4 POP POP POP POP JUMP JUMPDEST PUSH0 DUP1 PUSH1 0x40 DUP4 DUP6 SUB SLT ISZERO PUSH2 0x8C1 JUMPI PUSH2 0x8C0 PUSH2 0x66A JUMP JUMPDEST JUMPDEST PUSH0 PUSH2 0x8CE DUP6 DUP3 DUP7 ADD PUSH2 0x6B8 JUMP JUMPDEST SWAP3 POP POP PUSH1 0x20 PUSH2 0x8DF DUP6 DUP3 DUP7 ADD PUSH2 0x73E JUMP JUMPDEST SWAP2 POP POP SWAP3 POP SWAP3 SWAP1 POP JUMP JUMPDEST PUSH0 PUSH1 0x20 DUP3 ADD SWAP1 POP DUP2 DUP2 SUB PUSH0 DUP4 ADD MSTORE PUSH2 0x901 DUP2 DUP5 PUSH2 0x7B5 JUMP JUMPDEST SWAP1 POP SWAP3 SWAP2 POP POP JUMP JUMPDEST PUSH0 DUP1 REVERT JUMPDEST PUSH0 DUP1 REVERT JUMPDEST PUSH32 0x4E487B7100000000000000000000000000000000000000000000000000000000 PUSH0 MSTORE PUSH1 0x41 PUSH1 0x4 MSTORE PUSH1 0x24 PUSH0 REVERT JUMPDEST PUSH2 0x947 DUP3 PUSH2 0x7A5 JUMP JUMPDEST DUP2 ADD DUP2 DUP2 LT PUSH8 0xFFFFFFFFFFFFFFFF DUP3 GT OR ISZERO PUSH2 0x966 JUMPI PUSH2 0x965 PUSH2 0x911 JUMP JUMPDEST JUMPDEST DUP1 PUSH1 0x40 MSTORE POP POP POP JUMP JUMPDEST PUSH0 PUSH2 0x978 PUSH2 0x661 JUMP JUMPDEST SWAP1 POP PUSH2 0x984 DUP3 DUP3 PUSH2 0x93E JUMP JUMPDEST SWAP2 SWAP1 POP JUMP JUMPDEST PUSH0 PUSH8 0xFFFFFFFFFFFFFFFF DUP3 GT ISZERO PUSH2 0x9A3 JUMPI PUSH2 0x9A2 PUSH2 0x911 JUMP JUMPDEST JUMPDEST PUSH2 0x9AC DUP3 PUSH2 0x7A5 JUMP JUMPDEST SWAP1 POP PUSH1 0x20 DUP2 ADD SWAP1 POP SWAP2 SWAP1 POP JUMP JUMPDEST DUP3 DUP2 DUP4 CALLDATACOPY PUSH0 DUP4 DUP4 ADD MSTORE POP POP POP JUMP JUMPDEST PUSH0 PUSH2 0x9D9 PUSH2 0x9D4 DUP5 PUSH2 0x989 JUMP JUMPDEST PUSH2 0x96F JUMP JUMPDEST SWAP1 POP DUP3 DUP2 MSTORE PUSH1 0x20 DUP2 ADD DUP5 DUP5 DUP5 ADD GT ISZERO PUSH2 0x9F5 JUMPI PUSH2 0x9F4 PUSH2 0x90D JUMP JUMPDEST JUMPDEST PUSH2 0xA00 DUP5 DUP3 DUP6 PUSH2 0x9B9 JUMP JUMPDEST POP SWAP4 SWAP3 POP POP POP JUMP JUMPDEST PUSH0 DUP3 PUSH1 0x1F DUP4 ADD SLT PUSH2 0xA1C JUMPI PUSH2 0xA1B PUSH2 0x909 JUMP JUMPDEST JUMPDEST DUP2 CALLDATALOAD PUSH2 0xA2C DUP5 DUP3 PUSH1 0x20 DUP7 ADD PUSH2 0x9C7 JUMP JUMPDEST SWAP2 POP POP SWAP3 SWAP2 POP POP JUMP JUMPDEST PUSH0 PUSH1 0x20 DUP3 DUP5 SUB SLT ISZERO PUSH2 0xA4A JUMPI PUSH2 0xA49 PUSH2 0x66A JUMP JUMPDEST JUMPDEST PUSH0 DUP3 ADD CALLDATALOAD PUSH8 0xFFFFFFFFFFFFFFFF DUP2 GT ISZERO PUSH2 0xA67 JUMPI PUSH2 0xA66 PUSH2 0x66E JUMP JUMPDEST JUMPDEST PUSH2 0xA73 DUP5 DUP3 DUP6 ADD PUSH2 0xA08 JUMP JUMPDEST SWAP2 POP POP SWAP3 SWAP2 POP POP JUMP JUMPDEST PUSH0 DUP2 ISZERO ISZERO SWAP1 POP SWAP2 SWAP1 POP JUMP JUMPDEST PUSH2 0xA90 DUP2 PUSH2 0xA7C JUMP JUMPDEST DUP3 MSTORE POP POP JUMP JUMPDEST PUSH0 PUSH1 0x20 DUP3 ADD SWAP1 POP PUSH2 0xAA9 PUSH0 DUP4 ADD DUP5 PUSH2 0xA87 JUMP JUMPDEST SWAP3 SWAP2 POP POP JUMP JUMPDEST PUSH1 0x3 DUP2 LT PUSH2 0xABB JUMPI PUSH0 DUP1 REVERT JUMPDEST POP JUMP JUMPDEST PUSH0 DUP2 CALLDATALOAD SWAP1 POP PUSH2 0xACC DUP2 PUSH2 0xAAF JUMP JUMPDEST SWAP3 SWAP2 POP POP JUMP JUMPDEST PUSH0 DUP1 PUSH1 0x40 DUP4 DUP6 SUB SLT ISZERO PUSH2 0xAE8 JUMPI PUSH2 0xAE7 PUSH2 0x66A JUMP JUMPDEST JUMPDEST PUSH0 PUSH2 0xAF5 DUP6 DUP3 DUP7 ADD PUSH2 0xABE JUMP JUMPDEST SWAP3 POP POP PUSH1 0x20 DUP4 ADD CALLDATALOAD PUSH8 0xFFFFFFFFFFFFFFFF DUP2 GT ISZERO PUSH2 0xB16 JUMPI PUSH2 0xB15 PUSH2 0x66E JUMP JUMPDEST JUMPDEST PUSH2 0xB22 DUP6 DUP3 DUP7 ADD PUSH2 0xA08 JUMP JUMPDEST SWAP2 POP POP SWAP3 POP SWAP3 SWAP1 POP JUMP JUMPDEST PUSH32 0x4E487B7100000000000000000000000000000000000000000000000000000000 PUSH0 MSTORE PUSH1 0x22 PUSH1 0x4 MSTORE PUSH1 0x24 PUSH0 REVERT JUMPDEST PUSH0 PUSH1 0x2 DUP3 DIV SWAP1 POP PUSH1 0x1 DUP3 AND DUP1 PUSH2 0xB70 JUMPI PUSH1 0x7F DUP3 AND SWAP2 POP JUMPDEST PUSH1 0x20 DUP3 LT DUP2 SUB PUSH2 0xB83 JUMPI PUSH2 0xB82 PUSH2 0xB2C JUMP JUMPDEST JUMPDEST POP SWAP2 SWAP1 POP JUMP JUMPDEST PUSH32 0x4F6E6C79206F776E65722063616E206578656375746520746869732066756E63 PUSH0 DUP3 ADD MSTORE PUSH32 0x74696F6E00000000000000000000000000000000000000000000000000000000 PUSH1 0x20 DUP3 ADD MSTORE POP JUMP JUMPDEST PUSH0 PUSH2 0xBE3 PUSH1 0x24 DUP4 PUSH2 0x787 JUMP JUMPDEST SWAP2 POP PUSH2 0xBEE DUP3 PUSH2 0xB89 JUMP JUMPDEST PUSH1 0x40 DUP3 ADD SWAP1 POP SWAP2 SWAP1 POP JUMP JUMPDEST PUSH0 PUSH1 0x20 DUP3 ADD SWAP1 POP DUP2 DUP2 SUB PUSH0 DUP4 ADD MSTORE PUSH2 0xC10 DUP2 PUSH2 0xBD7 JUMP JUMPDEST SWAP1 POP SWAP2 SWAP1 POP JUMP JUMPDEST PUSH32 0x4E487B7100000000000000000000000000000000000000000000000000000000 PUSH0 MSTORE PUSH1 0x11 PUSH1 0x4 MSTORE PUSH1 0x24 PUSH0 REVERT JUMPDEST PUSH0 PUSH2 0xC4E DUP3 PUSH2 0x6F7 JUMP JUMPDEST SWAP2 POP PUSH2 0xC59 DUP4 PUSH2 0x6F7 JUMP JUMPDEST SWAP3 POP DUP3 DUP3 ADD SWAP1 POP DUP1 DUP3 GT ISZERO PUSH2 0xC71 JUMPI PUSH2 0xC70 PUSH2 0xC17 JUMP JUMPDEST JUMPDEST SWAP3 SWAP2 POP POP JUMP JUMPDEST PUSH0 DUP2 SWAP1 POP DUP2 PUSH0 MSTORE PUSH1 0x20 PUSH0 KECCAK256 SWAP1 POP SWAP2 SWAP1 POP JUMP JUMPDEST PUSH0 PUSH1 0x20 PUSH1 0x1F DUP4 ADD DIV SWAP1 POP SWAP2 SWAP1 POP JUMP JUMPDEST PUSH0 DUP3 DUP3 SHL SWAP1 POP SWAP3 SWAP2 POP POP JUMP JUMPDEST PUSH0 PUSH1 0x8 DUP4 MUL PUSH2 0xCD3 PUSH32 0xFFFFFFFFFFFFFFFFFFFFFFFFFFFFFFFFFFFFFFFFFFFFFFFFFFFFFFFFFFFFFFFF DUP3 PUSH2 0xC98 JUMP JUMPDEST PUSH2 0xCDD DUP7 DUP4 PUSH2 0xC98 JUMP JUMPDEST SWAP6 POP DUP1 NOT DUP5 AND SWAP4 POP DUP1 DUP7 AND DUP5 OR SWAP3 POP POP POP SWAP4 SWAP3 POP POP POP JUMP JUMPDEST PUSH0 DUP2 SWAP1 POP SWAP2 SWAP1 POP JUMP JUMPDEST PUSH0 PUSH2 0xD18 PUSH2 0xD13 PUSH2 0xD0E DUP5 PUSH2 0x6F7 JUMP JUMPDEST PUSH2 0xCF5 JUMP JUMPDEST PUSH2 0x6F7 JUMP JUMPDEST SWAP1 POP SWAP2 SWAP1 POP JUMP JUMPDEST PUSH0 DUP2 SWAP1 POP SWAP2 SWAP1 POP JUMP JUMPDEST PUSH2 0xD31 DUP4 PUSH2 0xCFE JUMP JUMPDEST PUSH2 0xD45 PUSH2 0xD3D DUP3 PUSH2 0xD1F JUMP JUMPDEST DUP5 DUP5 SLOAD PUSH2 0xCA4 JUMP JUMPDEST DUP3 SSTORE POP POP POP POP JUMP JUMPDEST PUSH0 SWAP1 JUMP JUMPDEST PUSH2 0xD59 PUSH2 0xD4D JUMP JUMPDEST PUSH2 0xD64 DUP2 DUP5 DUP5 PUSH2 0xD28 JUMP JUMPDEST POP POP POP JUMP JUMPDEST JUMPDEST DUP2 DUP2 LT ISZERO PUSH2 0xD87 JUMPI PUSH2 0xD7C PUSH0 DUP3 PUSH2 0xD51 JUMP JUMPDEST PUSH1 0x1 DUP2 ADD SWAP1 POP PUSH2 0xD6A JUMP JUMPDEST POP POP JUMP JUMPDEST PUSH1 0x1F DUP3 GT ISZERO PUSH2 0xDCC JUMPI PUSH2 0xD9D DUP2 PUSH2 0xC77 JUMP JUMPDEST PUSH2 0xDA6 DUP5 PUSH2 0xC89 JUMP JUMPDEST DUP2 ADD PUSH1 0x20 DUP6 LT ISZERO PUSH2 0xDB5 JUMPI DUP2 SWAP1 POP JUMPDEST PUSH2 0xDC9 PUSH2 0xDC1 DUP6 PUSH2 0xC89 JUMP JUMPDEST DUP4 ADD DUP3 PUSH2 0xD69 JUMP JUMPDEST POP POP JUMPDEST POP POP POP JUMP JUMPDEST PUSH0 DUP3 DUP3 SHR SWAP1 POP SWAP3 SWAP2 POP POP JUMP JUMPDEST PUSH0 PUSH2 0xDEC PUSH0 NOT DUP5 PUSH1 0x8 MUL PUSH2 0xDD1 JUMP JUMPDEST NOT DUP1 DUP4 AND SWAP2 POP POP SWAP3 SWAP2 POP POP JUMP JUMPDEST PUSH0 PUSH2 0xE04 DUP4 DUP4 PUSH2 0xDDD JUMP JUMPDEST SWAP2 POP DUP3 PUSH1 0x2 MUL DUP3 OR SWAP1 POP SWAP3 SWAP2 POP POP JUMP JUMPDEST PUSH2 0xE1D DUP3 PUSH2 0x77D JUMP JUMPDEST PUSH8 0xFFFFFFFFFFFFFFFF DUP2 GT ISZERO PUSH2 0xE36 JUMPI PUSH2 0xE35 PUSH2 0x911 JUMP JUMPDEST JUMPDEST PUSH2 0xE40 DUP3 SLOAD PUSH2 0xB59 JUMP JUMPDEST PUSH2 0xE4B DUP3 DUP3 DUP6 PUSH2 0xD8B JUMP JUMPDEST PUSH0 PUSH1 0x20 SWAP1 POP PUSH1 0x1F DUP4 GT PUSH1 0x1 DUP2 EQ PUSH2 0xE7C JUMPI PUSH0 DUP5 ISZERO PUSH2 0xE6A JUMPI DUP3 DUP8 ADD MLOAD SWAP1 POP JUMPDEST PUSH2 0xE74 DUP6 DUP3 PUSH2 0xDF9 JUMP JUMPDEST DUP7 SSTORE POP PUSH2 0xEDB JUMP JUMPDEST PUSH1 0x1F NOT DUP5 AND PUSH2 0xE8A DUP7 PUSH2 0xC77 JUMP JUMPDEST PUSH0 JUMPDEST DUP3 DUP2 LT ISZERO PUSH2 0xEB1 JUMPI DUP5 DUP10 ADD MLOAD DUP3 SSTORE PUSH1 0x1 DUP3 ADD SWAP2 POP PUSH1 0x20 DUP6 ADD SWAP5 POP PUSH1 0x20 DUP2 ADD SWAP1 POP PUSH2 0xE8C JUMP JUMPDEST DUP7 DUP4 LT ISZERO PUSH2 0xECE JUMPI DUP5 DUP10 ADD MLOAD PUSH2 0xECA PUSH1 0x1F DUP10 AND DUP3 PUSH2 0xDDD JUMP JUMPDEST DUP4 SSTORE POP JUMPDEST PUSH1 0x1 PUSH1 0x2 DUP9 MUL ADD DUP9 SSTORE POP POP POP JUMPDEST POP POP POP POP POP POP JUMP JUMPDEST PUSH0 PUSH1 0x60 DUP3 ADD SWAP1 POP PUSH2 0xEF6 PUSH0 DUP4 ADD DUP7 PUSH2 0x860 JUMP JUMPDEST DUP2 DUP2 SUB PUSH1 0x20 DUP4 ADD MSTORE PUSH2 0xF08 DUP2 DUP6 PUSH2 0x7B5 JUMP JUMPDEST SWAP1 POP PUSH2 0xF17 PUSH1 0x40 DUP4 ADD DUP5 PUSH2 0x851 JUMP JUMPDEST SWAP5 SWAP4 POP POP POP POP JUMP INVALID LOG2 PUSH5 0x6970667358 0x22 SLT KECCAK256 PUSH11 0x3D1BDF8DFA3BACCED6C9DA 0xE2 0xF8 PUSH2 0x403B PUSH17 0xAC3F3FE437BC9ADD48B0942C532E64736F PUSH13 0x63430008190033000000000000 "
				},
				"gasEstimates": {
					"creation": {
						"codeDepositCost": "785000",
						"executionCost": "infinite",
						"totalCost": "infinite"
					},
					"external": {
						"alerts(uint256)": "infinite",
						"createAlert(uint8,string)": "infinite",
						"createEvent(string)": "infinite",
						"events(address,uint256)": "infinite",
						"eventsCounter(address)": "2803",
						"setThreshold(uint256)": "24706",
						"threshold()": "2470"
					}
				},
				"methodIdentifiers": {
					"alerts(uint256)": "171d073a",
					"createAlert(uint8,string)": "b8bf2dc2",
					"createEvent(string)": "9bc2bc71",
					"events(address,uint256)": "74dcdc63",
					"eventsCounter(address)": "0ad3430e",
					"setThreshold(uint256)": "960bfe04",
					"threshold()": "42cde4e8"
				}
			},
			"storageLayout": {
				"storage": [
					{
						"astId": 30,
						"contract": "contracts/Event.sol:Event",
						"label": "alerts",
						"offset": 0,
						"slot": "0",
						"type": "t_array(t_struct(Alert)22_storage)dyn_storage"
					},
					{
						"astId": 36,
						"contract": "contracts/Event.sol:Event",
						"label": "events",
						"offset": 0,
						"slot": "1",
						"type": "t_mapping(t_address,t_mapping(t_uint256,t_string_storage))"
					},
					{
						"astId": 40,
						"contract": "contracts/Event.sol:Event",
						"label": "eventsCounter",
						"offset": 0,
						"slot": "2",
						"type": "t_mapping(t_address,t_uint256)"
					},
					{
						"astId": 42,
						"contract": "contracts/Event.sol:Event",
						"label": "threshold",
						"offset": 0,
						"slot": "3",
						"type": "t_uint256"
					},
					{
						"astId": 44,
						"contract": "contracts/Event.sol:Event",
						"label": "owner",
						"offset": 0,
						"slot": "4",
						"type": "t_address"
					}
				],
				"types": {
					"t_address": {
						"encoding": "inplace",
						"label": "address",
						"numberOfBytes": "20"
					},
					"t_array(t_struct(Alert)22_storage)dyn_storage": {
						"base": "t_struct(Alert)22_storage",
						"encoding": "dynamic_array",
						"label": "struct Event.Alert[]",
						"numberOfBytes": "32"
					},
					"t_enum(Risk)26": {
						"encoding": "inplace",
						"label": "enum Event.Risk",
						"numberOfBytes": "1"
					},
					"t_mapping(t_address,t_mapping(t_uint256,t_string_storage))": {
						"encoding": "mapping",
						"key": "t_address",
						"label": "mapping(address => mapping(uint256 => string))",
						"numberOfBytes": "32",
						"value": "t_mapping(t_uint256,t_string_storage)"
					},
					"t_mapping(t_address,t_uint256)": {
						"encoding": "mapping",
						"key": "t_address",
						"label": "mapping(address => uint256)",
						"numberOfBytes": "32",
						"value": "t_uint256"
					},
					"t_mapping(t_uint256,t_string_storage)": {
						"encoding": "mapping",
						"key": "t_uint256",
						"label": "mapping(uint256 => string)",
						"numberOfBytes": "32",
						"value": "t_string_storage"
					},
					"t_string_storage": {
						"encoding": "bytes",
						"label": "string",
						"numberOfBytes": "32"
					},
					"t_struct(Alert)22_storage": {
						"encoding": "inplace",
						"label": "struct Event.Alert",
						"members": [
							{
								"astId": 16,
								"contract": "contracts/Event.sol:Event",
								"label": "message",
								"offset": 0,
								"slot": "0",
								"type": "t_string_storage"
							},
							{
								"astId": 19,
								"contract": "contracts/Event.sol:Event",
								"label": "risk",
								"offset": 0,
								"slot": "1",
								"type": "t_enum(Risk)26"
							},
							{
								"astId": 21,
								"contract": "contracts/Event.sol:Event",
								"label": "node",
								"offset": 1,
								"slot": "1",
								"type": "t_address"
							}
						],
						"numberOfBytes": "64"
					},
					"t_uint256": {
						"encoding": "inplace",
						"label": "uint256",
						"numberOfBytes": "32"
					}
				}
			},
			"userdoc": {
				"kind": "user",
				"methods": {},
				"version": 1
			}
		}
	}
}