{
	"contracts/SupplyChain.sol": {
		"SupplyChain": {
			"abi": [
				{
					"anonymous": false,
					"inputs": [
						{
							"indexed": false,
							"internalType": "uint256",
							"name": "productId",
							"type": "uint256"
						},
						{
							"indexed": false,
							"internalType": "enum SupplyChain.Status",
							"name": "status",
							"type": "uint8"
						},
						{
							"indexed": false,
							"internalType": "string",
							"name": "metadata",
							"type": "string"
						},
						{
							"indexed": false,
							"internalType": "address",
							"name": "author",
							"type": "address"
						}
					],
					"name": "RegisteredStep",
					"type": "event"
				},
				{
					"inputs": [
						{
							"internalType": "uint256",
							"name": "",
							"type": "uint256"
						},
						{
							"internalType": "uint256",
							"name": "",
							"type": "uint256"
						}
					],
					"name": "products",
					"outputs": [
						{
							"internalType": "enum SupplyChain.Status",
							"name": "status",
							"type": "uint8"
						},
						{
							"internalType": "string",
							"name": "metadata",
							"type": "string"
						}
					],
					"stateMutability": "view",
					"type": "function"
				},
				{
					"inputs": [
						{
							"internalType": "uint256",
							"name": "productId",
							"type": "uint256"
						}
					],
					"name": "registerProduct",
					"outputs": [
						{
							"internalType": "bool",
							"name": "success",
							"type": "bool"
						}
					],
					"stateMutability": "nonpayable",
					"type": "function"
				},
				{
					"inputs": [
						{
							"internalType": "uint256",
							"name": "productId",
							"type": "uint256"
						},
						{
							"internalType": "string",
							"name": "metadata",
							"type": "string"
						}
					],
					"name": "registerStep",
					"outputs": [
						{
							"internalType": "bool",
							"name": "success",
							"type": "bool"
						}
					],
					"stateMutability": "payable",
					"type": "function"
				}
			],
			"devdoc": {
				"kind": "dev",
				"methods": {},
				"version": 1
			},
			"evm": {
				"assembly": "    /* \"contracts/SupplyChain.sol\":72:2054  contract SupplyChain {... */\n  mstore(0x40, 0x80)\n  callvalue\n  dup1\n  iszero\n  tag_1\n  jumpi\n  0x00\n  dup1\n  revert\ntag_1:\n  pop\n  dataSize(sub_0)\n  dup1\n  dataOffset(sub_0)\n  0x00\n  codecopy\n  0x00\n  return\nstop\n\nsub_0: assembly {\n        /* \"contracts/SupplyChain.sol\":72:2054  contract SupplyChain {... */\n      mstore(0x40, 0x80)\n      jumpi(tag_1, lt(calldatasize, 0x04))\n      shr(0xe0, calldataload(0x00))\n      dup1\n      0xa590fbdb\n      eq\n      tag_2\n      jumpi\n      dup1\n      0xc08e0f96\n      eq\n      tag_3\n      jumpi\n      dup1\n      0xd21cb5f1\n      eq\n      tag_4\n      jumpi\n    tag_1:\n      0x00\n      dup1\n      revert\n        /* \"contracts/SupplyChain.sol\":524:566  mapping(uint256 => Step[]) public products */\n    tag_2:\n      callvalue\n      dup1\n      iszero\n      tag_5\n      jumpi\n      0x00\n      dup1\n      revert\n    tag_5:\n      pop\n      tag_6\n      0x04\n      dup1\n      calldatasize\n      sub\n      dup2\n      add\n      swap1\n      tag_7\n      swap2\n      swap1\n      tag_8\n      jump\t// in\n    tag_7:\n      tag_9\n      jump\t// in\n    tag_6:\n      mload(0x40)\n      tag_10\n      swap3\n      swap2\n      swap1\n      tag_11\n      jump\t// in\n    tag_10:\n      mload(0x40)\n      dup1\n      swap2\n      sub\n      swap1\n      return\n        /* \"contracts/SupplyChain.sol\":660:1056  function registerProduct(uint256 productId) public returns (bool success) { //nos permite crear un nuevo producto... */\n    tag_3:\n      callvalue\n      dup1\n      iszero\n      tag_12\n      jumpi\n      0x00\n      dup1\n      revert\n    tag_12:\n      pop\n      tag_13\n      0x04\n      dup1\n      calldatasize\n      sub\n      dup2\n      add\n      swap1\n      tag_14\n      swap2\n      swap1\n      tag_15\n      jump\t// in\n    tag_14:\n      tag_16\n      jump\t// in\n    tag_13:\n      mload(0x40)\n      tag_17\n      swap2\n      swap1\n      tag_18\n      jump\t// in\n    tag_17:\n      mload(0x40)\n      dup1\n      swap2\n      sub\n      swap1\n      return\n        /* \"contracts/SupplyChain.sol\":1064:2051  function registerStep(uint256 productId, string calldata metadata) public payable returns (bool success) {... */\n    tag_4:\n      tag_19\n      0x04\n      dup1\n      calldatasize\n      sub\n      dup2\n      add\n      swap1\n      tag_20\n      swap2\n      swap1\n      tag_21\n      jump\t// in\n    tag_20:\n      tag_22\n      jump\t// in\n    tag_19:\n      mload(0x40)\n      tag_23\n      swap2\n      swap1\n      tag_18\n      jump\t// in\n    tag_23:\n      mload(0x40)\n      dup1\n      swap2\n      sub\n      swap1\n      return\n        /* \"contracts/SupplyChain.sol\":524:566  mapping(uint256 => Step[]) public products */\n    tag_9:\n      mstore(0x20, 0x00)\n      dup2\n      0x00\n      mstore\n      keccak256(0x00, 0x40)\n      dup2\n      dup2\n      sload\n      dup2\n      lt\n      tag_24\n      jumpi\n      0x00\n      dup1\n      revert\n    tag_24:\n      swap1\n      0x00\n      mstore\n      keccak256(0x00, 0x20)\n      swap1\n      0x02\n      mul\n      add\n      0x00\n      swap2\n      pop\n      swap2\n      pop\n      pop\n      dup1\n      0x00\n      add\n      0x00\n      swap1\n      sload\n      swap1\n      0x0100\n      exp\n      swap1\n      div\n      0xff\n      and\n      swap1\n      dup1\n      0x01\n      add\n      dup1\n      sload\n      tag_26\n      swap1\n      tag_27\n      jump\t// in\n    tag_26:\n      dup1\n      0x1f\n      add\n      0x20\n      dup1\n      swap2\n      div\n      mul\n      0x20\n      add\n      mload(0x40)\n      swap1\n      dup2\n      add\n      0x40\n      mstore\n      dup1\n      swap3\n      swap2\n      swap1\n      dup2\n      dup2\n      mstore\n      0x20\n      add\n      dup3\n      dup1\n      sload\n      tag_28\n      swap1\n      tag_27\n      jump\t// in\n    tag_28:\n      dup1\n      iszero\n      tag_29\n      jumpi\n      dup1\n      0x1f\n      lt\n      tag_30\n      jumpi\n      0x0100\n      dup1\n      dup4\n      sload\n      div\n      mul\n      dup4\n      mstore\n      swap2\n      0x20\n      add\n      swap2\n      jump(tag_29)\n    tag_30:\n      dup3\n      add\n      swap2\n      swap1\n      0x00\n      mstore\n      keccak256(0x00, 0x20)\n      swap1\n    tag_31:\n      dup2\n      sload\n      dup2\n      mstore\n      swap1\n      0x01\n      add\n      swap1\n      0x20\n      add\n      dup1\n      dup4\n      gt\n      tag_31\n      jumpi\n      dup3\n      swap1\n      sub\n      0x1f\n      and\n      dup3\n      add\n      swap2\n    tag_29:\n      pop\n      pop\n      pop\n      pop\n      pop\n      swap1\n      pop\n      dup3\n      jump\t// out\n        /* \"contracts/SupplyChain.sol\":660:1056  function registerProduct(uint256 productId) public returns (bool success) { //nos permite crear un nuevo producto... */\n    tag_16:\n        /* \"contracts/SupplyChain.sol\":720:732  bool success */\n      0x00\n        /* \"contracts/SupplyChain.sol\":821:822  0 */\n      dup1\n        /* \"contracts/SupplyChain.sol\":791:799  products */\n      0x00\n        /* \"contracts/SupplyChain.sol\":791:810  products[productId] */\n      dup1\n        /* \"contracts/SupplyChain.sol\":800:809  productId */\n      dup5\n        /* \"contracts/SupplyChain.sol\":791:810  products[productId] */\n      dup2\n      mstore\n      0x20\n      add\n      swap1\n      dup2\n      mstore\n      0x20\n      add\n      0x00\n      keccak256\n        /* \"contracts/SupplyChain.sol\":791:817  products[productId].length */\n      dup1\n      sload\n      swap1\n      pop\n        /* \"contracts/SupplyChain.sol\":791:822  products[productId].length == 0 */\n      eq\n        /* \"contracts/SupplyChain.sol\":783:854  require(products[productId].length == 0, \"This product already exists\") */\n      tag_33\n      jumpi\n      mload(0x40)\n      0x08c379a000000000000000000000000000000000000000000000000000000000\n      dup2\n      mstore\n      0x04\n      add\n      tag_34\n      swap1\n      tag_35\n      jump\t// in\n    tag_34:\n      mload(0x40)\n      dup1\n      swap2\n      sub\n      swap1\n      revert\n    tag_33:\n        /* \"contracts/SupplyChain.sol\":923:931  products */\n      0x00\n        /* \"contracts/SupplyChain.sol\":923:942  products[productId] */\n      dup1\n        /* \"contracts/SupplyChain.sol\":932:941  productId */\n      dup4\n        /* \"contracts/SupplyChain.sol\":923:942  products[productId] */\n      dup2\n      mstore\n      0x20\n      add\n      swap1\n      dup2\n      mstore\n      0x20\n      add\n      0x00\n      keccak256\n        /* \"contracts/SupplyChain.sol\":948:972  Step(Status.CREATED, '') */\n      mload(0x40)\n      dup1\n      0x40\n      add\n      0x40\n      mstore\n      dup1\n        /* \"contracts/SupplyChain.sol\":953:967  Status.CREATED */\n      0x00\n        /* \"contracts/SupplyChain.sol\":948:972  Step(Status.CREATED, '') */\n      0x04\n      dup2\n      gt\n      iszero\n      tag_36\n      jumpi\n      tag_37\n      tag_38\n      jump\t// in\n    tag_37:\n    tag_36:\n      dup2\n      mstore\n      0x20\n      add\n      mload(0x40)\n      dup1\n      0x20\n      add\n      0x40\n      mstore\n      dup1\n      0x00\n      dup2\n      mstore\n      pop\n      dup2\n      mstore\n      pop\n        /* \"contracts/SupplyChain.sol\":923:973  products[productId].push(Step(Status.CREATED, '')) */\n      swap1\n      dup1\n      0x01\n      dup2\n      sload\n      add\n      dup1\n      dup3\n      sstore\n      dup1\n      swap2\n      pop\n      pop\n      0x01\n      swap1\n      sub\n      swap1\n      0x00\n      mstore\n      keccak256(0x00, 0x20)\n      swap1\n      0x02\n      mul\n      add\n      0x00\n      swap1\n      swap2\n      swap1\n      swap2\n      swap1\n      swap2\n      pop\n      0x00\n      dup3\n      add\n      mload\n      dup2\n      0x00\n      add\n      exp(0x0100, 0x00)\n      dup2\n      sload\n      dup2\n      0xff\n      mul\n      not\n      and\n      swap1\n      dup4\n      0x04\n      dup2\n      gt\n      iszero\n      tag_40\n      jumpi\n      tag_41\n      tag_38\n      jump\t// in\n    tag_41:\n    tag_40:\n      mul\n      or\n      swap1\n      sstore\n      pop\n      0x20\n      dup3\n      add\n      mload\n      dup2\n      0x01\n      add\n      swap1\n      dup2\n      tag_42\n      swap2\n      swap1\n      tag_43\n      jump\t// in\n    tag_42:\n      pop\n      pop\n      pop\n        /* \"contracts/SupplyChain.sol\":660:1056  function registerProduct(uint256 productId) public returns (bool success) { //nos permite crear un nuevo producto... */\n      swap2\n      swap1\n      pop\n      jump\t// out\n        /* \"contracts/SupplyChain.sol\":1064:2051  function registerStep(uint256 productId, string calldata metadata) public payable returns (bool success) {... */\n    tag_22:\n        /* \"contracts/SupplyChain.sol\":1155:1167  bool success */\n      0x00\n        /* \"contracts/SupplyChain.sol\":1217:1218  0 */\n      dup1\n        /* \"contracts/SupplyChain.sol\":1188:1196  products */\n      0x00\n        /* \"contracts/SupplyChain.sol\":1188:1207  products[productId] */\n      dup1\n        /* \"contracts/SupplyChain.sol\":1197:1206  productId */\n      dup7\n        /* \"contracts/SupplyChain.sol\":1188:1207  products[productId] */\n      dup2\n      mstore\n      0x20\n      add\n      swap1\n      dup2\n      mstore\n      0x20\n      add\n      0x00\n      keccak256\n        /* \"contracts/SupplyChain.sol\":1188:1214  products[productId].length */\n      dup1\n      sload\n      swap1\n      pop\n        /* \"contracts/SupplyChain.sol\":1188:1218  products[productId].length > 0 */\n      gt\n        /* \"contracts/SupplyChain.sol\":1180:1249  require(products[productId].length > 0, \"This product doesn't exist\") */\n      tag_45\n      jumpi\n      mload(0x40)\n      0x08c379a000000000000000000000000000000000000000000000000000000000\n      dup2\n      mstore\n      0x04\n      add\n      tag_46\n      swap1\n      tag_47\n      jump\t// in\n    tag_46:\n      mload(0x40)\n      dup1\n      swap2\n      sub\n      swap1\n      revert\n    tag_45:\n        /* \"contracts/SupplyChain.sol\":1299:1323  Step[] memory stepsArray */\n      0x00\n        /* \"contracts/SupplyChain.sol\":1326:1334  products */\n      dup1\n        /* \"contracts/SupplyChain.sol\":1326:1345  products[productId] */\n      0x00\n        /* \"contracts/SupplyChain.sol\":1335:1344  productId */\n      dup7\n        /* \"contracts/SupplyChain.sol\":1326:1345  products[productId] */\n      dup2\n      mstore\n      0x20\n      add\n      swap1\n      dup2\n      mstore\n      0x20\n      add\n      0x00\n      keccak256\n        /* \"contracts/SupplyChain.sol\":1299:1345  Step[] memory stepsArray = products[productId] */\n      dup1\n      sload\n      dup1\n      0x20\n      mul\n      0x20\n      add\n      mload(0x40)\n      swap1\n      dup2\n      add\n      0x40\n      mstore\n      dup1\n      swap3\n      swap2\n      swap1\n      dup2\n      dup2\n      mstore\n      0x20\n      add\n      0x00\n      swap1\n    tag_48:\n      dup3\n      dup3\n      lt\n      iszero\n      tag_49\n      jumpi\n      dup4\n      dup3\n      swap1\n      0x00\n      mstore\n      keccak256(0x00, 0x20)\n      swap1\n      0x02\n      mul\n      add\n      mload(0x40)\n      dup1\n      0x40\n      add\n      0x40\n      mstore\n      swap1\n      dup2\n      0x00\n      dup3\n      add\n      0x00\n      swap1\n      sload\n      swap1\n      0x0100\n      exp\n      swap1\n      div\n      0xff\n      and\n      0x04\n      dup2\n      gt\n      iszero\n      tag_51\n      jumpi\n      tag_52\n      tag_38\n      jump\t// in\n    tag_52:\n    tag_51:\n      0x04\n      dup2\n      gt\n      iszero\n      tag_53\n      jumpi\n      tag_54\n      tag_38\n      jump\t// in\n    tag_54:\n    tag_53:\n      dup2\n      mstore\n      0x20\n      add\n      0x01\n      dup3\n      add\n      dup1\n      sload\n      tag_55\n      swap1\n      tag_27\n      jump\t// in\n    tag_55:\n      dup1\n      0x1f\n      add\n      0x20\n      dup1\n      swap2\n      div\n      mul\n      0x20\n      add\n      mload(0x40)\n      swap1\n      dup2\n      add\n      0x40\n      mstore\n      dup1\n      swap3\n      swap2\n      swap1\n      dup2\n      dup2\n      mstore\n      0x20\n      add\n      dup3\n      dup1\n      sload\n      tag_56\n      swap1\n      tag_27\n      jump\t// in\n    tag_56:\n      dup1\n      iszero\n      tag_57\n      jumpi\n      dup1\n      0x1f\n      lt\n      tag_58\n      jumpi\n      0x0100\n      dup1\n      dup4\n      sload\n      div\n      mul\n      dup4\n      mstore\n      swap2\n      0x20\n      add\n      swap2\n      jump(tag_57)\n    tag_58:\n      dup3\n      add\n      swap2\n      swap1\n      0x00\n      mstore\n      keccak256(0x00, 0x20)\n      swap1\n    tag_59:\n      dup2\n      sload\n      dup2\n      mstore\n      swap1\n      0x01\n      add\n      swap1\n      0x20\n      add\n      dup1\n      dup4\n      gt\n      tag_59\n      jumpi\n      dup3\n      swap1\n      sub\n      0x1f\n      and\n      dup3\n      add\n      swap2\n    tag_57:\n      pop\n      pop\n      pop\n      pop\n      pop\n      dup2\n      mstore\n      pop\n      pop\n      dup2\n      mstore\n      0x20\n      add\n      swap1\n      0x01\n      add\n      swap1\n      jump(tag_48)\n    tag_49:\n      pop\n      pop\n      pop\n      pop\n      swap1\n      pop\n        /* \"contracts/SupplyChain.sol\":1389:1410  uint256 currentStatus */\n      0x00\n        /* \"contracts/SupplyChain.sol\":1465:1466  1 */\n      0x01\n        /* \"contracts/SupplyChain.sol\":1421:1431  stepsArray */\n      dup3\n        /* \"contracts/SupplyChain.sol\":1452:1453  1 */\n      0x01\n        /* \"contracts/SupplyChain.sol\":1432:1442  stepsArray */\n      dup5\n        /* \"contracts/SupplyChain.sol\":1432:1449  stepsArray.length */\n      mload\n        /* \"contracts/SupplyChain.sol\":1432:1453  stepsArray.length - 1 */\n      tag_60\n      swap2\n      swap1\n      tag_61\n      jump\t// in\n    tag_60:\n        /* \"contracts/SupplyChain.sol\":1421:1454  stepsArray[stepsArray.length - 1] */\n      dup2\n      mload\n      dup2\n      lt\n      tag_62\n      jumpi\n      tag_63\n      tag_64\n      jump\t// in\n    tag_63:\n    tag_62:\n      0x20\n      mul\n      0x20\n      add\n      add\n      mload\n        /* \"contracts/SupplyChain.sol\":1421:1461  stepsArray[stepsArray.length - 1].status */\n      0x00\n      add\n      mload\n        /* \"contracts/SupplyChain.sol\":1413:1462  uint256(stepsArray[stepsArray.length - 1].status) */\n      0x04\n      dup2\n      gt\n      iszero\n      tag_65\n      jumpi\n      tag_66\n      tag_38\n      jump\t// in\n    tag_66:\n    tag_65:\n        /* \"contracts/SupplyChain.sol\":1413:1466  uint256(stepsArray[stepsArray.length - 1].status) + 1 */\n      tag_67\n      swap2\n      swap1\n      tag_68\n      jump\t// in\n    tag_67:\n        /* \"contracts/SupplyChain.sol\":1389:1466  uint256 currentStatus = uint256(stepsArray[stepsArray.length - 1].status) + 1 */\n      swap1\n      pop\n        /* \"contracts/SupplyChain.sol\":1542:1558  Status.DELIVERED */\n      0x04\n        /* \"contracts/SupplyChain.sol\":1534:1559  uint256(Status.DELIVERED) */\n      dup1\n      dup2\n      gt\n      iszero\n      tag_69\n      jumpi\n      tag_70\n      tag_38\n      jump\t// in\n    tag_70:\n    tag_69:\n        /* \"contracts/SupplyChain.sol\":1518:1531  currentStatus */\n      dup2\n        /* \"contracts/SupplyChain.sol\":1518:1559  currentStatus > uint256(Status.DELIVERED) */\n      gt\n        /* \"contracts/SupplyChain.sol\":1514:1702  if (currentStatus > uint256(Status.DELIVERED)) { //validamos que este estado no sea mayor que el delivery, sino lanza error... */\n      iszero\n      tag_71\n      jumpi\n        /* \"contracts/SupplyChain.sol\":1651:1690  revert(\"The product has no more steps\") */\n      mload(0x40)\n      0x08c379a000000000000000000000000000000000000000000000000000000000\n      dup2\n      mstore\n      0x04\n      add\n      tag_72\n      swap1\n      tag_73\n      jump\t// in\n    tag_72:\n      mload(0x40)\n      dup1\n      swap2\n      sub\n      swap1\n      revert\n        /* \"contracts/SupplyChain.sol\":1514:1702  if (currentStatus > uint256(Status.DELIVERED)) { //validamos que este estado no sea mayor que el delivery, sino lanza error... */\n    tag_71:\n        /* \"contracts/SupplyChain.sol\":1712:1728  Step memory step */\n      0x00\n        /* \"contracts/SupplyChain.sol\":1731:1768  Step(Status(currentStatus), metadata) */\n      mload(0x40)\n      dup1\n      0x40\n      add\n      0x40\n      mstore\n      dup1\n        /* \"contracts/SupplyChain.sol\":1743:1756  currentStatus */\n      dup4\n        /* \"contracts/SupplyChain.sol\":1736:1757  Status(currentStatus) */\n      0x04\n      dup2\n      gt\n      iszero\n      tag_74\n      jumpi\n      tag_75\n      tag_38\n      jump\t// in\n    tag_75:\n    tag_74:\n        /* \"contracts/SupplyChain.sol\":1731:1768  Step(Status(currentStatus), metadata) */\n      0x04\n      dup2\n      gt\n      iszero\n      tag_76\n      jumpi\n      tag_77\n      tag_38\n      jump\t// in\n    tag_77:\n    tag_76:\n      dup2\n      mstore\n      0x20\n      add\n        /* \"contracts/SupplyChain.sol\":1759:1767  metadata */\n      dup8\n      dup8\n        /* \"contracts/SupplyChain.sol\":1731:1768  Step(Status(currentStatus), metadata) */\n      dup1\n      dup1\n      0x1f\n      add\n      0x20\n      dup1\n      swap2\n      div\n      mul\n      0x20\n      add\n      mload(0x40)\n      swap1\n      dup2\n      add\n      0x40\n      mstore\n      dup1\n      swap4\n      swap3\n      swap2\n      swap1\n      dup2\n      dup2\n      mstore\n      0x20\n      add\n      dup4\n      dup4\n      dup1\n      dup3\n      dup5\n      calldatacopy\n      0x00\n      dup2\n      dup5\n      add\n      mstore\n      not(0x1f)\n      0x1f\n      dup3\n      add\n      and\n      swap1\n      pop\n      dup1\n      dup4\n      add\n      swap3\n      pop\n      pop\n      pop\n      pop\n      pop\n      pop\n      pop\n      dup2\n      mstore\n      pop\n        /* \"contracts/SupplyChain.sol\":1712:1768  Step memory step = Step(Status(currentStatus), metadata) */\n      swap1\n      pop\n        /* \"contracts/SupplyChain.sol\":1849:1857  products */\n      0x00\n        /* \"contracts/SupplyChain.sol\":1849:1868  products[productId] */\n      dup1\n        /* \"contracts/SupplyChain.sol\":1858:1867  productId */\n      dup9\n        /* \"contracts/SupplyChain.sol\":1849:1868  products[productId] */\n      dup2\n      mstore\n      0x20\n      add\n      swap1\n      dup2\n      mstore\n      0x20\n      add\n      0x00\n      keccak256\n        /* \"contracts/SupplyChain.sol\":1874:1878  step */\n      dup2\n        /* \"contracts/SupplyChain.sol\":1849:1879  products[productId].push(step) */\n      swap1\n      dup1\n      0x01\n      dup2\n      sload\n      add\n      dup1\n      dup3\n      sstore\n      dup1\n      swap2\n      pop\n      pop\n      0x01\n      swap1\n      sub\n      swap1\n      0x00\n      mstore\n      keccak256(0x00, 0x20)\n      swap1\n      0x02\n      mul\n      add\n      0x00\n      swap1\n      swap2\n      swap1\n      swap2\n      swap1\n      swap2\n      pop\n      0x00\n      dup3\n      add\n      mload\n      dup2\n      0x00\n      add\n      exp(0x0100, 0x00)\n      dup2\n      sload\n      dup2\n      0xff\n      mul\n      not\n      and\n      swap1\n      dup4\n      0x04\n      dup2\n      gt\n      iszero\n      tag_79\n      jumpi\n      tag_80\n      tag_38\n      jump\t// in\n    tag_80:\n    tag_79:\n      mul\n      or\n      swap1\n      sstore\n      pop\n      0x20\n      dup3\n      add\n      mload\n      dup2\n      0x01\n      add\n      swap1\n      dup2\n      tag_81\n      swap2\n      swap1\n      tag_43\n      jump\t// in\n    tag_81:\n      pop\n      pop\n      pop\n        /* \"contracts/SupplyChain.sol\":1948:2018  RegisteredStep(productId, Status(currentStatus), metadata, msg.sender) */\n      0xd9383aed0754623db576930ac0e5fd2e888ec2ba0a3cbaa724e47c49c70d9128\n        /* \"contracts/SupplyChain.sol\":1963:1972  productId */\n      dup8\n        /* \"contracts/SupplyChain.sol\":1981:1994  currentStatus */\n      dup4\n        /* \"contracts/SupplyChain.sol\":1974:1995  Status(currentStatus) */\n      0x04\n      dup2\n      gt\n      iszero\n      tag_82\n      jumpi\n      tag_83\n      tag_38\n      jump\t// in\n    tag_83:\n    tag_82:\n        /* \"contracts/SupplyChain.sol\":1997:2005  metadata */\n      dup9\n      dup9\n        /* \"contracts/SupplyChain.sol\":2007:2017  msg.sender */\n      caller\n        /* \"contracts/SupplyChain.sol\":1948:2018  RegisteredStep(productId, Status(currentStatus), metadata, msg.sender) */\n      mload(0x40)\n      tag_84\n      swap6\n      swap5\n      swap4\n      swap3\n      swap2\n      swap1\n      tag_85\n      jump\t// in\n    tag_84:\n      mload(0x40)\n      dup1\n      swap2\n      sub\n      swap1\n      log1\n        /* \"contracts/SupplyChain.sol\":2039:2043  true */\n      0x01\n        /* \"contracts/SupplyChain.sol\":2029:2043  success = true */\n      swap4\n      pop\n        /* \"contracts/SupplyChain.sol\":1169:2051  {... */\n      pop\n      pop\n      pop\n        /* \"contracts/SupplyChain.sol\":1064:2051  function registerStep(uint256 productId, string calldata metadata) public payable returns (bool success) {... */\n      swap4\n      swap3\n      pop\n      pop\n      pop\n      jump\t// out\n        /* \"#utility.yul\":88:205   */\n    tag_87:\n        /* \"#utility.yul\":197:198   */\n      0x00\n        /* \"#utility.yul\":194:195   */\n      dup1\n        /* \"#utility.yul\":187:199   */\n      revert\n        /* \"#utility.yul\":211:328   */\n    tag_88:\n        /* \"#utility.yul\":320:321   */\n      0x00\n        /* \"#utility.yul\":317:318   */\n      dup1\n        /* \"#utility.yul\":310:322   */\n      revert\n        /* \"#utility.yul\":334:411   */\n    tag_89:\n        /* \"#utility.yul\":371:378   */\n      0x00\n        /* \"#utility.yul\":400:405   */\n      dup2\n        /* \"#utility.yul\":389:405   */\n      swap1\n      pop\n        /* \"#utility.yul\":334:411   */\n      swap2\n      swap1\n      pop\n      jump\t// out\n        /* \"#utility.yul\":417:539   */\n    tag_90:\n        /* \"#utility.yul\":490:514   */\n      tag_143\n        /* \"#utility.yul\":508:513   */\n      dup2\n        /* \"#utility.yul\":490:514   */\n      tag_89\n      jump\t// in\n    tag_143:\n        /* \"#utility.yul\":483:488   */\n      dup2\n        /* \"#utility.yul\":480:515   */\n      eq\n        /* \"#utility.yul\":470:533   */\n      tag_144\n      jumpi\n        /* \"#utility.yul\":529:530   */\n      0x00\n        /* \"#utility.yul\":526:527   */\n      dup1\n        /* \"#utility.yul\":519:531   */\n      revert\n        /* \"#utility.yul\":470:533   */\n    tag_144:\n        /* \"#utility.yul\":417:539   */\n      pop\n      jump\t// out\n        /* \"#utility.yul\":545:684   */\n    tag_91:\n        /* \"#utility.yul\":591:596   */\n      0x00\n        /* \"#utility.yul\":629:635   */\n      dup2\n        /* \"#utility.yul\":616:636   */\n      calldataload\n        /* \"#utility.yul\":607:636   */\n      swap1\n      pop\n        /* \"#utility.yul\":645:678   */\n      tag_146\n        /* \"#utility.yul\":672:677   */\n      dup2\n        /* \"#utility.yul\":645:678   */\n      tag_90\n      jump\t// in\n    tag_146:\n        /* \"#utility.yul\":545:684   */\n      swap3\n      swap2\n      pop\n      pop\n      jump\t// out\n        /* \"#utility.yul\":690:1164   */\n    tag_8:\n        /* \"#utility.yul\":758:764   */\n      0x00\n        /* \"#utility.yul\":766:772   */\n      dup1\n        /* \"#utility.yul\":815:817   */\n      0x40\n        /* \"#utility.yul\":803:812   */\n      dup4\n        /* \"#utility.yul\":794:801   */\n      dup6\n        /* \"#utility.yul\":790:813   */\n      sub\n        /* \"#utility.yul\":786:818   */\n      slt\n        /* \"#utility.yul\":783:902   */\n      iszero\n      tag_148\n      jumpi\n        /* \"#utility.yul\":821:900   */\n      tag_149\n      tag_87\n      jump\t// in\n    tag_149:\n        /* \"#utility.yul\":783:902   */\n    tag_148:\n        /* \"#utility.yul\":941:942   */\n      0x00\n        /* \"#utility.yul\":966:1019   */\n      tag_150\n        /* \"#utility.yul\":1011:1018   */\n      dup6\n        /* \"#utility.yul\":1002:1008   */\n      dup3\n        /* \"#utility.yul\":991:1000   */\n      dup7\n        /* \"#utility.yul\":987:1009   */\n      add\n        /* \"#utility.yul\":966:1019   */\n      tag_91\n      jump\t// in\n    tag_150:\n        /* \"#utility.yul\":956:1019   */\n      swap3\n      pop\n        /* \"#utility.yul\":912:1029   */\n      pop\n        /* \"#utility.yul\":1068:1070   */\n      0x20\n        /* \"#utility.yul\":1094:1147   */\n      tag_151\n        /* \"#utility.yul\":1139:1146   */\n      dup6\n        /* \"#utility.yul\":1130:1136   */\n      dup3\n        /* \"#utility.yul\":1119:1128   */\n      dup7\n        /* \"#utility.yul\":1115:1137   */\n      add\n        /* \"#utility.yul\":1094:1147   */\n      tag_91\n      jump\t// in\n    tag_151:\n        /* \"#utility.yul\":1084:1147   */\n      swap2\n      pop\n        /* \"#utility.yul\":1039:1157   */\n      pop\n        /* \"#utility.yul\":690:1164   */\n      swap3\n      pop\n      swap3\n      swap1\n      pop\n      jump\t// out\n        /* \"#utility.yul\":1170:1350   */\n    tag_38:\n        /* \"#utility.yul\":1218:1295   */\n      0x4e487b7100000000000000000000000000000000000000000000000000000000\n        /* \"#utility.yul\":1215:1216   */\n      0x00\n        /* \"#utility.yul\":1208:1296   */\n      mstore\n        /* \"#utility.yul\":1315:1319   */\n      0x21\n        /* \"#utility.yul\":1312:1313   */\n      0x04\n        /* \"#utility.yul\":1305:1320   */\n      mstore\n        /* \"#utility.yul\":1339:1343   */\n      0x24\n        /* \"#utility.yul\":1336:1337   */\n      0x00\n        /* \"#utility.yul\":1329:1344   */\n      revert\n        /* \"#utility.yul\":1356:1470   */\n    tag_92:\n        /* \"#utility.yul\":1438:1439   */\n      0x05\n        /* \"#utility.yul\":1431:1436   */\n      dup2\n        /* \"#utility.yul\":1428:1440   */\n      lt\n        /* \"#utility.yul\":1418:1464   */\n      tag_154\n      jumpi\n        /* \"#utility.yul\":1444:1462   */\n      tag_155\n      tag_38\n      jump\t// in\n    tag_155:\n        /* \"#utility.yul\":1418:1464   */\n    tag_154:\n        /* \"#utility.yul\":1356:1470   */\n      pop\n      jump\t// out\n        /* \"#utility.yul\":1476:1605   */\n    tag_93:\n        /* \"#utility.yul\":1522:1529   */\n      0x00\n        /* \"#utility.yul\":1551:1556   */\n      dup2\n        /* \"#utility.yul\":1540:1556   */\n      swap1\n      pop\n        /* \"#utility.yul\":1557:1599   */\n      tag_157\n        /* \"#utility.yul\":1593:1598   */\n      dup3\n        /* \"#utility.yul\":1557:1599   */\n      tag_92\n      jump\t// in\n    tag_157:\n        /* \"#utility.yul\":1476:1605   */\n      swap2\n      swap1\n      pop\n      jump\t// out\n        /* \"#utility.yul\":1611:1740   */\n    tag_94:\n        /* \"#utility.yul\":1668:1677   */\n      0x00\n        /* \"#utility.yul\":1701:1734   */\n      tag_159\n        /* \"#utility.yul\":1728:1733   */\n      dup3\n        /* \"#utility.yul\":1701:1734   */\n      tag_93\n      jump\t// in\n    tag_159:\n        /* \"#utility.yul\":1688:1734   */\n      swap1\n      pop\n        /* \"#utility.yul\":1611:1740   */\n      swap2\n      swap1\n      pop\n      jump\t// out\n        /* \"#utility.yul\":1746:1891   */\n    tag_95:\n        /* \"#utility.yul\":1840:1884   */\n      tag_161\n        /* \"#utility.yul\":1878:1883   */\n      dup2\n        /* \"#utility.yul\":1840:1884   */\n      tag_94\n      jump\t// in\n    tag_161:\n        /* \"#utility.yul\":1835:1838   */\n      dup3\n        /* \"#utility.yul\":1828:1885   */\n      mstore\n        /* \"#utility.yul\":1746:1891   */\n      pop\n      pop\n      jump\t// out\n        /* \"#utility.yul\":1897:1996   */\n    tag_96:\n        /* \"#utility.yul\":1949:1955   */\n      0x00\n        /* \"#utility.yul\":1983:1988   */\n      dup2\n        /* \"#utility.yul\":1977:1989   */\n      mload\n        /* \"#utility.yul\":1967:1989   */\n      swap1\n      pop\n        /* \"#utility.yul\":1897:1996   */\n      swap2\n      swap1\n      pop\n      jump\t// out\n        /* \"#utility.yul\":2002:2171   */\n    tag_97:\n        /* \"#utility.yul\":2086:2097   */\n      0x00\n        /* \"#utility.yul\":2120:2126   */\n      dup3\n        /* \"#utility.yul\":2115:2118   */\n      dup3\n        /* \"#utility.yul\":2108:2127   */\n      mstore\n        /* \"#utility.yul\":2160:2164   */\n      0x20\n        /* \"#utility.yul\":2155:2158   */\n      dup3\n        /* \"#utility.yul\":2151:2165   */\n      add\n        /* \"#utility.yul\":2136:2165   */\n      swap1\n      pop\n        /* \"#utility.yul\":2002:2171   */\n      swap3\n      swap2\n      pop\n      pop\n      jump\t// out\n        /* \"#utility.yul\":2177:2316   */\n    tag_98:\n        /* \"#utility.yul\":2266:2272   */\n      dup3\n        /* \"#utility.yul\":2261:2264   */\n      dup2\n        /* \"#utility.yul\":2256:2259   */\n      dup4\n        /* \"#utility.yul\":2250:2273   */\n      mcopy\n        /* \"#utility.yul\":2307:2308   */\n      0x00\n        /* \"#utility.yul\":2298:2304   */\n      dup4\n        /* \"#utility.yul\":2293:2296   */\n      dup4\n        /* \"#utility.yul\":2289:2305   */\n      add\n        /* \"#utility.yul\":2282:2309   */\n      mstore\n        /* \"#utility.yul\":2177:2316   */\n      pop\n      pop\n      pop\n      jump\t// out\n        /* \"#utility.yul\":2322:2424   */\n    tag_99:\n        /* \"#utility.yul\":2363:2369   */\n      0x00\n        /* \"#utility.yul\":2414:2416   */\n      0x1f\n        /* \"#utility.yul\":2410:2417   */\n      not\n        /* \"#utility.yul\":2405:2407   */\n      0x1f\n        /* \"#utility.yul\":2398:2403   */\n      dup4\n        /* \"#utility.yul\":2394:2408   */\n      add\n        /* \"#utility.yul\":2390:2418   */\n      and\n        /* \"#utility.yul\":2380:2418   */\n      swap1\n      pop\n        /* \"#utility.yul\":2322:2424   */\n      swap2\n      swap1\n      pop\n      jump\t// out\n        /* \"#utility.yul\":2430:2807   */\n    tag_100:\n        /* \"#utility.yul\":2518:2521   */\n      0x00\n        /* \"#utility.yul\":2546:2585   */\n      tag_167\n        /* \"#utility.yul\":2579:2584   */\n      dup3\n        /* \"#utility.yul\":2546:2585   */\n      tag_96\n      jump\t// in\n    tag_167:\n        /* \"#utility.yul\":2601:2672   */\n      tag_168\n        /* \"#utility.yul\":2665:2671   */\n      dup2\n        /* \"#utility.yul\":2660:2663   */\n      dup6\n        /* \"#utility.yul\":2601:2672   */\n      tag_97\n      jump\t// in\n    tag_168:\n        /* \"#utility.yul\":2594:2672   */\n      swap4\n      pop\n        /* \"#utility.yul\":2681:2746   */\n      tag_169\n        /* \"#utility.yul\":2739:2745   */\n      dup2\n        /* \"#utility.yul\":2734:2737   */\n      dup6\n        /* \"#utility.yul\":2727:2731   */\n      0x20\n        /* \"#utility.yul\":2720:2725   */\n      dup7\n        /* \"#utility.yul\":2716:2732   */\n      add\n        /* \"#utility.yul\":2681:2746   */\n      tag_98\n      jump\t// in\n    tag_169:\n        /* \"#utility.yul\":2771:2800   */\n      tag_170\n        /* \"#utility.yul\":2793:2799   */\n      dup2\n        /* \"#utility.yul\":2771:2800   */\n      tag_99\n      jump\t// in\n    tag_170:\n        /* \"#utility.yul\":2766:2769   */\n      dup5\n        /* \"#utility.yul\":2762:2801   */\n      add\n        /* \"#utility.yul\":2755:2801   */\n      swap2\n      pop\n        /* \"#utility.yul\":2522:2807   */\n      pop\n        /* \"#utility.yul\":2430:2807   */\n      swap3\n      swap2\n      pop\n      pop\n      jump\t// out\n        /* \"#utility.yul\":2813:3250   */\n    tag_11:\n        /* \"#utility.yul\":2961:2965   */\n      0x00\n        /* \"#utility.yul\":2999:3001   */\n      0x40\n        /* \"#utility.yul\":2988:2997   */\n      dup3\n        /* \"#utility.yul\":2984:3002   */\n      add\n        /* \"#utility.yul\":2976:3002   */\n      swap1\n      pop\n        /* \"#utility.yul\":3012:3090   */\n      tag_172\n        /* \"#utility.yul\":3087:3088   */\n      0x00\n        /* \"#utility.yul\":3076:3085   */\n      dup4\n        /* \"#utility.yul\":3072:3089   */\n      add\n        /* \"#utility.yul\":3063:3069   */\n      dup6\n        /* \"#utility.yul\":3012:3090   */\n      tag_95\n      jump\t// in\n    tag_172:\n        /* \"#utility.yul\":3137:3146   */\n      dup2\n        /* \"#utility.yul\":3131:3135   */\n      dup2\n        /* \"#utility.yul\":3127:3147   */\n      sub\n        /* \"#utility.yul\":3122:3124   */\n      0x20\n        /* \"#utility.yul\":3111:3120   */\n      dup4\n        /* \"#utility.yul\":3107:3125   */\n      add\n        /* \"#utility.yul\":3100:3148   */\n      mstore\n        /* \"#utility.yul\":3165:3243   */\n      tag_173\n        /* \"#utility.yul\":3238:3242   */\n      dup2\n        /* \"#utility.yul\":3229:3235   */\n      dup5\n        /* \"#utility.yul\":3165:3243   */\n      tag_100\n      jump\t// in\n    tag_173:\n        /* \"#utility.yul\":3157:3243   */\n      swap1\n      pop\n        /* \"#utility.yul\":2813:3250   */\n      swap4\n      swap3\n      pop\n      pop\n      pop\n      jump\t// out\n        /* \"#utility.yul\":3256:3585   */\n    tag_15:\n        /* \"#utility.yul\":3315:3321   */\n      0x00\n        /* \"#utility.yul\":3364:3366   */\n      0x20\n        /* \"#utility.yul\":3352:3361   */\n      dup3\n        /* \"#utility.yul\":3343:3350   */\n      dup5\n        /* \"#utility.yul\":3339:3362   */\n      sub\n        /* \"#utility.yul\":3335:3367   */\n      slt\n        /* \"#utility.yul\":3332:3451   */\n      iszero\n      tag_175\n      jumpi\n        /* \"#utility.yul\":3370:3449   */\n      tag_176\n      tag_87\n      jump\t// in\n    tag_176:\n        /* \"#utility.yul\":3332:3451   */\n    tag_175:\n        /* \"#utility.yul\":3490:3491   */\n      0x00\n        /* \"#utility.yul\":3515:3568   */\n      tag_177\n        /* \"#utility.yul\":3560:3567   */\n      dup5\n        /* \"#utility.yul\":3551:3557   */\n      dup3\n        /* \"#utility.yul\":3540:3549   */\n      dup6\n        /* \"#utility.yul\":3536:3558   */\n      add\n        /* \"#utility.yul\":3515:3568   */\n      tag_91\n      jump\t// in\n    tag_177:\n        /* \"#utility.yul\":3505:3568   */\n      swap2\n      pop\n        /* \"#utility.yul\":3461:3578   */\n      pop\n        /* \"#utility.yul\":3256:3585   */\n      swap3\n      swap2\n      pop\n      pop\n      jump\t// out\n        /* \"#utility.yul\":3591:3681   */\n    tag_101:\n        /* \"#utility.yul\":3625:3632   */\n      0x00\n        /* \"#utility.yul\":3668:3673   */\n      dup2\n        /* \"#utility.yul\":3661:3674   */\n      iszero\n        /* \"#utility.yul\":3654:3675   */\n      iszero\n        /* \"#utility.yul\":3643:3675   */\n      swap1\n      pop\n        /* \"#utility.yul\":3591:3681   */\n      swap2\n      swap1\n      pop\n      jump\t// out\n        /* \"#utility.yul\":3687:3796   */\n    tag_102:\n        /* \"#utility.yul\":3768:3789   */\n      tag_180\n        /* \"#utility.yul\":3783:3788   */\n      dup2\n        /* \"#utility.yul\":3768:3789   */\n      tag_101\n      jump\t// in\n    tag_180:\n        /* \"#utility.yul\":3763:3766   */\n      dup3\n        /* \"#utility.yul\":3756:3790   */\n      mstore\n        /* \"#utility.yul\":3687:3796   */\n      pop\n      pop\n      jump\t// out\n        /* \"#utility.yul\":3802:4012   */\n    tag_18:\n        /* \"#utility.yul\":3889:3893   */\n      0x00\n        /* \"#utility.yul\":3927:3929   */\n      0x20\n        /* \"#utility.yul\":3916:3925   */\n      dup3\n        /* \"#utility.yul\":3912:3930   */\n      add\n        /* \"#utility.yul\":3904:3930   */\n      swap1\n      pop\n        /* \"#utility.yul\":3940:4005   */\n      tag_182\n        /* \"#utility.yul\":4002:4003   */\n      0x00\n        /* \"#utility.yul\":3991:4000   */\n      dup4\n        /* \"#utility.yul\":3987:4004   */\n      add\n        /* \"#utility.yul\":3978:3984   */\n      dup5\n        /* \"#utility.yul\":3940:4005   */\n      tag_102\n      jump\t// in\n    tag_182:\n        /* \"#utility.yul\":3802:4012   */\n      swap3\n      swap2\n      pop\n      pop\n      jump\t// out\n        /* \"#utility.yul\":4018:4135   */\n    tag_103:\n        /* \"#utility.yul\":4127:4128   */\n      0x00\n        /* \"#utility.yul\":4124:4125   */\n      dup1\n        /* \"#utility.yul\":4117:4129   */\n      revert\n        /* \"#utility.yul\":4141:4258   */\n    tag_104:\n        /* \"#utility.yul\":4250:4251   */\n      0x00\n        /* \"#utility.yul\":4247:4248   */\n      dup1\n        /* \"#utility.yul\":4240:4252   */\n      revert\n        /* \"#utility.yul\":4264:4381   */\n    tag_105:\n        /* \"#utility.yul\":4373:4374   */\n      0x00\n        /* \"#utility.yul\":4370:4371   */\n      dup1\n        /* \"#utility.yul\":4363:4375   */\n      revert\n        /* \"#utility.yul\":4401:4954   */\n    tag_106:\n        /* \"#utility.yul\":4459:4467   */\n      0x00\n        /* \"#utility.yul\":4469:4475   */\n      dup1\n        /* \"#utility.yul\":4519:4522   */\n      dup4\n        /* \"#utility.yul\":4512:4516   */\n      0x1f\n        /* \"#utility.yul\":4504:4510   */\n      dup5\n        /* \"#utility.yul\":4500:4517   */\n      add\n        /* \"#utility.yul\":4496:4523   */\n      slt\n        /* \"#utility.yul\":4486:4608   */\n      tag_187\n      jumpi\n        /* \"#utility.yul\":4527:4606   */\n      tag_188\n      tag_103\n      jump\t// in\n    tag_188:\n        /* \"#utility.yul\":4486:4608   */\n    tag_187:\n        /* \"#utility.yul\":4640:4646   */\n      dup3\n        /* \"#utility.yul\":4627:4647   */\n      calldataload\n        /* \"#utility.yul\":4617:4647   */\n      swap1\n      pop\n        /* \"#utility.yul\":4670:4688   */\n      0xffffffffffffffff\n        /* \"#utility.yul\":4662:4668   */\n      dup2\n        /* \"#utility.yul\":4659:4689   */\n      gt\n        /* \"#utility.yul\":4656:4773   */\n      iszero\n      tag_189\n      jumpi\n        /* \"#utility.yul\":4692:4771   */\n      tag_190\n      tag_104\n      jump\t// in\n    tag_190:\n        /* \"#utility.yul\":4656:4773   */\n    tag_189:\n        /* \"#utility.yul\":4806:4810   */\n      0x20\n        /* \"#utility.yul\":4798:4804   */\n      dup4\n        /* \"#utility.yul\":4794:4811   */\n      add\n        /* \"#utility.yul\":4782:4811   */\n      swap2\n      pop\n        /* \"#utility.yul\":4860:4863   */\n      dup4\n        /* \"#utility.yul\":4852:4856   */\n      0x01\n        /* \"#utility.yul\":4844:4850   */\n      dup3\n        /* \"#utility.yul\":4840:4857   */\n      mul\n        /* \"#utility.yul\":4830:4838   */\n      dup4\n        /* \"#utility.yul\":4826:4858   */\n      add\n        /* \"#utility.yul\":4823:4864   */\n      gt\n        /* \"#utility.yul\":4820:4948   */\n      iszero\n      tag_191\n      jumpi\n        /* \"#utility.yul\":4867:4946   */\n      tag_192\n      tag_105\n      jump\t// in\n    tag_192:\n        /* \"#utility.yul\":4820:4948   */\n    tag_191:\n        /* \"#utility.yul\":4401:4954   */\n      swap3\n      pop\n      swap3\n      swap1\n      pop\n      jump\t// out\n        /* \"#utility.yul\":4960:5634   */\n    tag_21:\n        /* \"#utility.yul\":5040:5046   */\n      0x00\n        /* \"#utility.yul\":5048:5054   */\n      dup1\n        /* \"#utility.yul\":5056:5062   */\n      0x00\n        /* \"#utility.yul\":5105:5107   */\n      0x40\n        /* \"#utility.yul\":5093:5102   */\n      dup5\n        /* \"#utility.yul\":5084:5091   */\n      dup7\n        /* \"#utility.yul\":5080:5103   */\n      sub\n        /* \"#utility.yul\":5076:5108   */\n      slt\n        /* \"#utility.yul\":5073:5192   */\n      iszero\n      tag_194\n      jumpi\n        /* \"#utility.yul\":5111:5190   */\n      tag_195\n      tag_87\n      jump\t// in\n    tag_195:\n        /* \"#utility.yul\":5073:5192   */\n    tag_194:\n        /* \"#utility.yul\":5231:5232   */\n      0x00\n        /* \"#utility.yul\":5256:5309   */\n      tag_196\n        /* \"#utility.yul\":5301:5308   */\n      dup7\n        /* \"#utility.yul\":5292:5298   */\n      dup3\n        /* \"#utility.yul\":5281:5290   */\n      dup8\n        /* \"#utility.yul\":5277:5299   */\n      add\n        /* \"#utility.yul\":5256:5309   */\n      tag_91\n      jump\t// in\n    tag_196:\n        /* \"#utility.yul\":5246:5309   */\n      swap4\n      pop\n        /* \"#utility.yul\":5202:5319   */\n      pop\n        /* \"#utility.yul\":5386:5388   */\n      0x20\n        /* \"#utility.yul\":5375:5384   */\n      dup5\n        /* \"#utility.yul\":5371:5389   */\n      add\n        /* \"#utility.yul\":5358:5390   */\n      calldataload\n        /* \"#utility.yul\":5417:5435   */\n      0xffffffffffffffff\n        /* \"#utility.yul\":5409:5415   */\n      dup2\n        /* \"#utility.yul\":5406:5436   */\n      gt\n        /* \"#utility.yul\":5403:5520   */\n      iszero\n      tag_197\n      jumpi\n        /* \"#utility.yul\":5439:5518   */\n      tag_198\n      tag_88\n      jump\t// in\n    tag_198:\n        /* \"#utility.yul\":5403:5520   */\n    tag_197:\n        /* \"#utility.yul\":5552:5617   */\n      tag_199\n        /* \"#utility.yul\":5609:5616   */\n      dup7\n        /* \"#utility.yul\":5600:5606   */\n      dup3\n        /* \"#utility.yul\":5589:5598   */\n      dup8\n        /* \"#utility.yul\":5585:5607   */\n      add\n        /* \"#utility.yul\":5552:5617   */\n      tag_106\n      jump\t// in\n    tag_199:\n        /* \"#utility.yul\":5534:5617   */\n      swap3\n      pop\n      swap3\n      pop\n        /* \"#utility.yul\":5329:5627   */\n      pop\n        /* \"#utility.yul\":4960:5634   */\n      swap3\n      pop\n      swap3\n      pop\n      swap3\n      jump\t// out\n        /* \"#utility.yul\":5640:5820   */\n    tag_107:\n        /* \"#utility.yul\":5688:5765   */\n      0x4e487b7100000000000000000000000000000000000000000000000000000000\n        /* \"#utility.yul\":5685:5686   */\n      0x00\n        /* \"#utility.yul\":5678:5766   */\n      mstore\n        /* \"#utility.yul\":5785:5789   */\n      0x22\n        /* \"#utility.yul\":5782:5783   */\n      0x04\n        /* \"#utility.yul\":5775:5790   */\n      mstore\n        /* \"#utility.yul\":5809:5813   */\n      0x24\n        /* \"#utility.yul\":5806:5807   */\n      0x00\n        /* \"#utility.yul\":5799:5814   */\n      revert\n        /* \"#utility.yul\":5826:6146   */\n    tag_27:\n        /* \"#utility.yul\":5870:5876   */\n      0x00\n        /* \"#utility.yul\":5907:5908   */\n      0x02\n        /* \"#utility.yul\":5901:5905   */\n      dup3\n        /* \"#utility.yul\":5897:5909   */\n      div\n        /* \"#utility.yul\":5887:5909   */\n      swap1\n      pop\n        /* \"#utility.yul\":5954:5955   */\n      0x01\n        /* \"#utility.yul\":5948:5952   */\n      dup3\n        /* \"#utility.yul\":5944:5956   */\n      and\n        /* \"#utility.yul\":5975:5993   */\n      dup1\n        /* \"#utility.yul\":5965:6046   */\n      tag_202\n      jumpi\n        /* \"#utility.yul\":6031:6035   */\n      0x7f\n        /* \"#utility.yul\":6023:6029   */\n      dup3\n        /* \"#utility.yul\":6019:6036   */\n      and\n        /* \"#utility.yul\":6009:6036   */\n      swap2\n      pop\n        /* \"#utility.yul\":5965:6046   */\n    tag_202:\n        /* \"#utility.yul\":6093:6095   */\n      0x20\n        /* \"#utility.yul\":6085:6091   */\n      dup3\n        /* \"#utility.yul\":6082:6096   */\n      lt\n        /* \"#utility.yul\":6062:6080   */\n      dup2\n        /* \"#utility.yul\":6059:6097   */\n      sub\n        /* \"#utility.yul\":6056:6140   */\n      tag_203\n      jumpi\n        /* \"#utility.yul\":6112:6130   */\n      tag_204\n      tag_107\n      jump\t// in\n    tag_204:\n        /* \"#utility.yul\":6056:6140   */\n    tag_203:\n        /* \"#utility.yul\":5877:6146   */\n      pop\n        /* \"#utility.yul\":5826:6146   */\n      swap2\n      swap1\n      pop\n      jump\t// out\n        /* \"#utility.yul\":6152:6329   */\n    tag_108:\n        /* \"#utility.yul\":6292:6321   */\n      0x546869732070726f6475637420616c7265616479206578697374730000000000\n        /* \"#utility.yul\":6288:6289   */\n      0x00\n        /* \"#utility.yul\":6280:6286   */\n      dup3\n        /* \"#utility.yul\":6276:6290   */\n      add\n        /* \"#utility.yul\":6269:6322   */\n      mstore\n        /* \"#utility.yul\":6152:6329   */\n      pop\n      jump\t// out\n        /* \"#utility.yul\":6335:6701   */\n    tag_109:\n        /* \"#utility.yul\":6477:6480   */\n      0x00\n        /* \"#utility.yul\":6498:6565   */\n      tag_207\n        /* \"#utility.yul\":6562:6564   */\n      0x1b\n        /* \"#utility.yul\":6557:6560   */\n      dup4\n        /* \"#utility.yul\":6498:6565   */\n      tag_97\n      jump\t// in\n    tag_207:\n        /* \"#utility.yul\":6491:6565   */\n      swap2\n      pop\n        /* \"#utility.yul\":6574:6667   */\n      tag_208\n        /* \"#utility.yul\":6663:6666   */\n      dup3\n        /* \"#utility.yul\":6574:6667   */\n      tag_108\n      jump\t// in\n    tag_208:\n        /* \"#utility.yul\":6692:6694   */\n      0x20\n        /* \"#utility.yul\":6687:6690   */\n      dup3\n        /* \"#utility.yul\":6683:6695   */\n      add\n        /* \"#utility.yul\":6676:6695   */\n      swap1\n      pop\n        /* \"#utility.yul\":6335:6701   */\n      swap2\n      swap1\n      pop\n      jump\t// out\n        /* \"#utility.yul\":6707:7126   */\n    tag_35:\n        /* \"#utility.yul\":6873:6877   */\n      0x00\n        /* \"#utility.yul\":6911:6913   */\n      0x20\n        /* \"#utility.yul\":6900:6909   */\n      dup3\n        /* \"#utility.yul\":6896:6914   */\n      add\n        /* \"#utility.yul\":6888:6914   */\n      swap1\n      pop\n        /* \"#utility.yul\":6960:6969   */\n      dup2\n        /* \"#utility.yul\":6954:6958   */\n      dup2\n        /* \"#utility.yul\":6950:6970   */\n      sub\n        /* \"#utility.yul\":6946:6947   */\n      0x00\n        /* \"#utility.yul\":6935:6944   */\n      dup4\n        /* \"#utility.yul\":6931:6948   */\n      add\n        /* \"#utility.yul\":6924:6971   */\n      mstore\n        /* \"#utility.yul\":6988:7119   */\n      tag_210\n        /* \"#utility.yul\":7114:7118   */\n      dup2\n        /* \"#utility.yul\":6988:7119   */\n      tag_109\n      jump\t// in\n    tag_210:\n        /* \"#utility.yul\":6980:7119   */\n      swap1\n      pop\n        /* \"#utility.yul\":6707:7126   */\n      swap2\n      swap1\n      pop\n      jump\t// out\n        /* \"#utility.yul\":7132:7312   */\n    tag_110:\n        /* \"#utility.yul\":7180:7257   */\n      0x4e487b7100000000000000000000000000000000000000000000000000000000\n        /* \"#utility.yul\":7177:7178   */\n      0x00\n        /* \"#utility.yul\":7170:7258   */\n      mstore\n        /* \"#utility.yul\":7277:7281   */\n      0x41\n        /* \"#utility.yul\":7274:7275   */\n      0x04\n        /* \"#utility.yul\":7267:7282   */\n      mstore\n        /* \"#utility.yul\":7301:7305   */\n      0x24\n        /* \"#utility.yul\":7298:7299   */\n      0x00\n        /* \"#utility.yul\":7291:7306   */\n      revert\n        /* \"#utility.yul\":7318:7459   */\n    tag_111:\n        /* \"#utility.yul\":7367:7371   */\n      0x00\n        /* \"#utility.yul\":7390:7393   */\n      dup2\n        /* \"#utility.yul\":7382:7393   */\n      swap1\n      pop\n        /* \"#utility.yul\":7413:7416   */\n      dup2\n        /* \"#utility.yul\":7410:7411   */\n      0x00\n        /* \"#utility.yul\":7403:7417   */\n      mstore\n        /* \"#utility.yul\":7447:7451   */\n      0x20\n        /* \"#utility.yul\":7444:7445   */\n      0x00\n        /* \"#utility.yul\":7434:7452   */\n      keccak256\n        /* \"#utility.yul\":7426:7452   */\n      swap1\n      pop\n        /* \"#utility.yul\":7318:7459   */\n      swap2\n      swap1\n      pop\n      jump\t// out\n        /* \"#utility.yul\":7465:7558   */\n    tag_112:\n        /* \"#utility.yul\":7502:7508   */\n      0x00\n        /* \"#utility.yul\":7549:7551   */\n      0x20\n        /* \"#utility.yul\":7544:7546   */\n      0x1f\n        /* \"#utility.yul\":7537:7542   */\n      dup4\n        /* \"#utility.yul\":7533:7547   */\n      add\n        /* \"#utility.yul\":7529:7552   */\n      div\n        /* \"#utility.yul\":7519:7552   */\n      swap1\n      pop\n        /* \"#utility.yul\":7465:7558   */\n      swap2\n      swap1\n      pop\n      jump\t// out\n        /* \"#utility.yul\":7564:7671   */\n    tag_113:\n        /* \"#utility.yul\":7608:7616   */\n      0x00\n        /* \"#utility.yul\":7658:7663   */\n      dup3\n        /* \"#utility.yul\":7652:7656   */\n      dup3\n        /* \"#utility.yul\":7648:7664   */\n      shl\n        /* \"#utility.yul\":7627:7664   */\n      swap1\n      pop\n        /* \"#utility.yul\":7564:7671   */\n      swap3\n      swap2\n      pop\n      pop\n      jump\t// out\n        /* \"#utility.yul\":7677:8070   */\n    tag_114:\n        /* \"#utility.yul\":7746:7752   */\n      0x00\n        /* \"#utility.yul\":7796:7797   */\n      0x08\n        /* \"#utility.yul\":7784:7794   */\n      dup4\n        /* \"#utility.yul\":7780:7798   */\n      mul\n        /* \"#utility.yul\":7819:7916   */\n      tag_216\n        /* \"#utility.yul\":7849:7915   */\n      0xffffffffffffffffffffffffffffffffffffffffffffffffffffffffffffffff\n        /* \"#utility.yul\":7838:7847   */\n      dup3\n        /* \"#utility.yul\":7819:7916   */\n      tag_113\n      jump\t// in\n    tag_216:\n        /* \"#utility.yul\":7937:7976   */\n      tag_217\n        /* \"#utility.yul\":7967:7975   */\n      dup7\n        /* \"#utility.yul\":7956:7965   */\n      dup4\n        /* \"#utility.yul\":7937:7976   */\n      tag_113\n      jump\t// in\n    tag_217:\n        /* \"#utility.yul\":7925:7976   */\n      swap6\n      pop\n        /* \"#utility.yul\":8009:8013   */\n      dup1\n        /* \"#utility.yul\":8005:8014   */\n      not\n        /* \"#utility.yul\":7998:8003   */\n      dup5\n        /* \"#utility.yul\":7994:8015   */\n      and\n        /* \"#utility.yul\":7985:8015   */\n      swap4\n      pop\n        /* \"#utility.yul\":8058:8062   */\n      dup1\n        /* \"#utility.yul\":8048:8056   */\n      dup7\n        /* \"#utility.yul\":8044:8063   */\n      and\n        /* \"#utility.yul\":8037:8042   */\n      dup5\n        /* \"#utility.yul\":8034:8064   */\n      or\n        /* \"#utility.yul\":8024:8064   */\n      swap3\n      pop\n        /* \"#utility.yul\":7753:8070   */\n      pop\n      pop\n        /* \"#utility.yul\":7677:8070   */\n      swap4\n      swap3\n      pop\n      pop\n      pop\n      jump\t// out\n        /* \"#utility.yul\":8076:8136   */\n    tag_115:\n        /* \"#utility.yul\":8104:8107   */\n      0x00\n        /* \"#utility.yul\":8125:8130   */\n      dup2\n        /* \"#utility.yul\":8118:8130   */\n      swap1\n      pop\n        /* \"#utility.yul\":8076:8136   */\n      swap2\n      swap1\n      pop\n      jump\t// out\n        /* \"#utility.yul\":8142:8284   */\n    tag_116:\n        /* \"#utility.yul\":8192:8201   */\n      0x00\n        /* \"#utility.yul\":8225:8278   */\n      tag_220\n        /* \"#utility.yul\":8243:8277   */\n      tag_221\n        /* \"#utility.yul\":8252:8276   */\n      tag_222\n        /* \"#utility.yul\":8270:8275   */\n      dup5\n        /* \"#utility.yul\":8252:8276   */\n      tag_89\n      jump\t// in\n    tag_222:\n        /* \"#utility.yul\":8243:8277   */\n      tag_115\n      jump\t// in\n    tag_221:\n        /* \"#utility.yul\":8225:8278   */\n      tag_89\n      jump\t// in\n    tag_220:\n        /* \"#utility.yul\":8212:8278   */\n      swap1\n      pop\n        /* \"#utility.yul\":8142:8284   */\n      swap2\n      swap1\n      pop\n      jump\t// out\n        /* \"#utility.yul\":8290:8365   */\n    tag_117:\n        /* \"#utility.yul\":8333:8336   */\n      0x00\n        /* \"#utility.yul\":8354:8359   */\n      dup2\n        /* \"#utility.yul\":8347:8359   */\n      swap1\n      pop\n        /* \"#utility.yul\":8290:8365   */\n      swap2\n      swap1\n      pop\n      jump\t// out\n        /* \"#utility.yul\":8371:8640   */\n    tag_118:\n        /* \"#utility.yul\":8481:8520   */\n      tag_225\n        /* \"#utility.yul\":8512:8519   */\n      dup4\n        /* \"#utility.yul\":8481:8520   */\n      tag_116\n      jump\t// in\n    tag_225:\n        /* \"#utility.yul\":8542:8633   */\n      tag_226\n        /* \"#utility.yul\":8591:8632   */\n      tag_227\n        /* \"#utility.yul\":8615:8631   */\n      dup3\n        /* \"#utility.yul\":8591:8632   */\n      tag_117\n      jump\t// in\n    tag_227:\n        /* \"#utility.yul\":8583:8589   */\n      dup5\n        /* \"#utility.yul\":8576:8580   */\n      dup5\n        /* \"#utility.yul\":8570:8581   */\n      sload\n        /* \"#utility.yul\":8542:8633   */\n      tag_114\n      jump\t// in\n    tag_226:\n        /* \"#utility.yul\":8536:8540   */\n      dup3\n        /* \"#utility.yul\":8529:8634   */\n      sstore\n        /* \"#utility.yul\":8447:8640   */\n      pop\n        /* \"#utility.yul\":8371:8640   */\n      pop\n      pop\n      pop\n      jump\t// out\n        /* \"#utility.yul\":8646:8719   */\n    tag_119:\n        /* \"#utility.yul\":8691:8694   */\n      0x00\n        /* \"#utility.yul\":8646:8719   */\n      swap1\n      jump\t// out\n        /* \"#utility.yul\":8725:8914   */\n    tag_120:\n        /* \"#utility.yul\":8802:8834   */\n      tag_230\n      tag_119\n      jump\t// in\n    tag_230:\n        /* \"#utility.yul\":8843:8908   */\n      tag_231\n        /* \"#utility.yul\":8901:8907   */\n      dup2\n        /* \"#utility.yul\":8893:8899   */\n      dup5\n        /* \"#utility.yul\":8887:8891   */\n      dup5\n        /* \"#utility.yul\":8843:8908   */\n      tag_118\n      jump\t// in\n    tag_231:\n        /* \"#utility.yul\":8778:8914   */\n      pop\n        /* \"#utility.yul\":8725:8914   */\n      pop\n      pop\n      jump\t// out\n        /* \"#utility.yul\":8920:9106   */\n    tag_121:\n        /* \"#utility.yul\":8980:9100   */\n    tag_233:\n        /* \"#utility.yul\":8997:9000   */\n      dup2\n        /* \"#utility.yul\":8990:8995   */\n      dup2\n        /* \"#utility.yul\":8987:9001   */\n      lt\n        /* \"#utility.yul\":8980:9100   */\n      iszero\n      tag_235\n      jumpi\n        /* \"#utility.yul\":9051:9090   */\n      tag_236\n        /* \"#utility.yul\":9088:9089   */\n      0x00\n        /* \"#utility.yul\":9081:9086   */\n      dup3\n        /* \"#utility.yul\":9051:9090   */\n      tag_120\n      jump\t// in\n    tag_236:\n        /* \"#utility.yul\":9024:9025   */\n      0x01\n        /* \"#utility.yul\":9017:9022   */\n      dup2\n        /* \"#utility.yul\":9013:9026   */\n      add\n        /* \"#utility.yul\":9004:9026   */\n      swap1\n      pop\n        /* \"#utility.yul\":8980:9100   */\n      jump(tag_233)\n    tag_235:\n        /* \"#utility.yul\":8920:9106   */\n      pop\n      pop\n      jump\t// out\n        /* \"#utility.yul\":9112:9655   */\n    tag_122:\n        /* \"#utility.yul\":9213:9215   */\n      0x1f\n        /* \"#utility.yul\":9208:9211   */\n      dup3\n        /* \"#utility.yul\":9205:9216   */\n      gt\n        /* \"#utility.yul\":9202:9648   */\n      iszero\n      tag_238\n      jumpi\n        /* \"#utility.yul\":9247:9285   */\n      tag_239\n        /* \"#utility.yul\":9279:9284   */\n      dup2\n        /* \"#utility.yul\":9247:9285   */\n      tag_111\n      jump\t// in\n    tag_239:\n        /* \"#utility.yul\":9331:9360   */\n      tag_240\n        /* \"#utility.yul\":9349:9359   */\n      dup5\n        /* \"#utility.yul\":9331:9360   */\n      tag_112\n      jump\t// in\n    tag_240:\n        /* \"#utility.yul\":9321:9329   */\n      dup2\n        /* \"#utility.yul\":9317:9361   */\n      add\n        /* \"#utility.yul\":9514:9516   */\n      0x20\n        /* \"#utility.yul\":9502:9512   */\n      dup6\n        /* \"#utility.yul\":9499:9517   */\n      lt\n        /* \"#utility.yul\":9496:9545   */\n      iszero\n      tag_241\n      jumpi\n        /* \"#utility.yul\":9535:9543   */\n      dup2\n        /* \"#utility.yul\":9520:9543   */\n      swap1\n      pop\n        /* \"#utility.yul\":9496:9545   */\n    tag_241:\n        /* \"#utility.yul\":9558:9638   */\n      tag_242\n        /* \"#utility.yul\":9614:9636   */\n      tag_243\n        /* \"#utility.yul\":9632:9635   */\n      dup6\n        /* \"#utility.yul\":9614:9636   */\n      tag_112\n      jump\t// in\n    tag_243:\n        /* \"#utility.yul\":9604:9612   */\n      dup4\n        /* \"#utility.yul\":9600:9637   */\n      add\n        /* \"#utility.yul\":9587:9598   */\n      dup3\n        /* \"#utility.yul\":9558:9638   */\n      tag_121\n      jump\t// in\n    tag_242:\n        /* \"#utility.yul\":9217:9648   */\n      pop\n      pop\n        /* \"#utility.yul\":9202:9648   */\n    tag_238:\n        /* \"#utility.yul\":9112:9655   */\n      pop\n      pop\n      pop\n      jump\t// out\n        /* \"#utility.yul\":9661:9778   */\n    tag_123:\n        /* \"#utility.yul\":9715:9723   */\n      0x00\n        /* \"#utility.yul\":9765:9770   */\n      dup3\n        /* \"#utility.yul\":9759:9763   */\n      dup3\n        /* \"#utility.yul\":9755:9771   */\n      shr\n        /* \"#utility.yul\":9734:9771   */\n      swap1\n      pop\n        /* \"#utility.yul\":9661:9778   */\n      swap3\n      swap2\n      pop\n      pop\n      jump\t// out\n        /* \"#utility.yul\":9784:9953   */\n    tag_124:\n        /* \"#utility.yul\":9828:9834   */\n      0x00\n        /* \"#utility.yul\":9861:9912   */\n      tag_246\n        /* \"#utility.yul\":9909:9910   */\n      0x00\n        /* \"#utility.yul\":9905:9911   */\n      not\n        /* \"#utility.yul\":9897:9902   */\n      dup5\n        /* \"#utility.yul\":9894:9895   */\n      0x08\n        /* \"#utility.yul\":9890:9903   */\n      mul\n        /* \"#utility.yul\":9861:9912   */\n      tag_123\n      jump\t// in\n    tag_246:\n        /* \"#utility.yul\":9857:9913   */\n      not\n        /* \"#utility.yul\":9942:9946   */\n      dup1\n        /* \"#utility.yul\":9936:9940   */\n      dup4\n        /* \"#utility.yul\":9932:9947   */\n      and\n        /* \"#utility.yul\":9922:9947   */\n      swap2\n      pop\n        /* \"#utility.yul\":9835:9953   */\n      pop\n        /* \"#utility.yul\":9784:9953   */\n      swap3\n      swap2\n      pop\n      pop\n      jump\t// out\n        /* \"#utility.yul\":9958:10253   */\n    tag_125:\n        /* \"#utility.yul\":10034:10038   */\n      0x00\n        /* \"#utility.yul\":10180:10209   */\n      tag_248\n        /* \"#utility.yul\":10205:10208   */\n      dup4\n        /* \"#utility.yul\":10199:10203   */\n      dup4\n        /* \"#utility.yul\":10180:10209   */\n      tag_124\n      jump\t// in\n    tag_248:\n        /* \"#utility.yul\":10172:10209   */\n      swap2\n      pop\n        /* \"#utility.yul\":10242:10245   */\n      dup3\n        /* \"#utility.yul\":10239:10240   */\n      0x02\n        /* \"#utility.yul\":10235:10246   */\n      mul\n        /* \"#utility.yul\":10229:10233   */\n      dup3\n        /* \"#utility.yul\":10226:10247   */\n      or\n        /* \"#utility.yul\":10218:10247   */\n      swap1\n      pop\n        /* \"#utility.yul\":9958:10253   */\n      swap3\n      swap2\n      pop\n      pop\n      jump\t// out\n        /* \"#utility.yul\":10258:11653   */\n    tag_43:\n        /* \"#utility.yul\":10375:10412   */\n      tag_250\n        /* \"#utility.yul\":10408:10411   */\n      dup3\n        /* \"#utility.yul\":10375:10412   */\n      tag_96\n      jump\t// in\n    tag_250:\n        /* \"#utility.yul\":10477:10495   */\n      0xffffffffffffffff\n        /* \"#utility.yul\":10469:10475   */\n      dup2\n        /* \"#utility.yul\":10466:10496   */\n      gt\n        /* \"#utility.yul\":10463:10519   */\n      iszero\n      tag_251\n      jumpi\n        /* \"#utility.yul\":10499:10517   */\n      tag_252\n      tag_110\n      jump\t// in\n    tag_252:\n        /* \"#utility.yul\":10463:10519   */\n    tag_251:\n        /* \"#utility.yul\":10543:10581   */\n      tag_253\n        /* \"#utility.yul\":10575:10579   */\n      dup3\n        /* \"#utility.yul\":10569:10580   */\n      sload\n        /* \"#utility.yul\":10543:10581   */\n      tag_27\n      jump\t// in\n    tag_253:\n        /* \"#utility.yul\":10628:10695   */\n      tag_254\n        /* \"#utility.yul\":10688:10694   */\n      dup3\n        /* \"#utility.yul\":10680:10686   */\n      dup3\n        /* \"#utility.yul\":10674:10678   */\n      dup6\n        /* \"#utility.yul\":10628:10695   */\n      tag_122\n      jump\t// in\n    tag_254:\n        /* \"#utility.yul\":10722:10723   */\n      0x00\n        /* \"#utility.yul\":10746:10750   */\n      0x20\n        /* \"#utility.yul\":10733:10750   */\n      swap1\n      pop\n        /* \"#utility.yul\":10778:10780   */\n      0x1f\n        /* \"#utility.yul\":10770:10776   */\n      dup4\n        /* \"#utility.yul\":10767:10781   */\n      gt\n        /* \"#utility.yul\":10795:10796   */\n      0x01\n        /* \"#utility.yul\":10790:11408   */\n      dup2\n      eq\n      tag_256\n      jumpi\n        /* \"#utility.yul\":11452:11453   */\n      0x00\n        /* \"#utility.yul\":11469:11475   */\n      dup5\n        /* \"#utility.yul\":11466:11543   */\n      iszero\n      tag_257\n      jumpi\n        /* \"#utility.yul\":11518:11527   */\n      dup3\n        /* \"#utility.yul\":11513:11516   */\n      dup8\n        /* \"#utility.yul\":11509:11528   */\n      add\n        /* \"#utility.yul\":11503:11529   */\n      mload\n        /* \"#utility.yul\":11494:11529   */\n      swap1\n      pop\n        /* \"#utility.yul\":11466:11543   */\n    tag_257:\n        /* \"#utility.yul\":11569:11636   */\n      tag_258\n        /* \"#utility.yul\":11629:11635   */\n      dup6\n        /* \"#utility.yul\":11622:11627   */\n      dup3\n        /* \"#utility.yul\":11569:11636   */\n      tag_125\n      jump\t// in\n    tag_258:\n        /* \"#utility.yul\":11563:11567   */\n      dup7\n        /* \"#utility.yul\":11556:11637   */\n      sstore\n        /* \"#utility.yul\":11425:11647   */\n      pop\n        /* \"#utility.yul\":10760:11647   */\n      jump(tag_255)\n        /* \"#utility.yul\":10790:11408   */\n    tag_256:\n        /* \"#utility.yul\":10842:10846   */\n      0x1f\n        /* \"#utility.yul\":10838:10847   */\n      not\n        /* \"#utility.yul\":10830:10836   */\n      dup5\n        /* \"#utility.yul\":10826:10848   */\n      and\n        /* \"#utility.yul\":10876:10913   */\n      tag_259\n        /* \"#utility.yul\":10908:10912   */\n      dup7\n        /* \"#utility.yul\":10876:10913   */\n      tag_111\n      jump\t// in\n    tag_259:\n        /* \"#utility.yul\":10935:10936   */\n      0x00\n        /* \"#utility.yul\":10949:11157   */\n    tag_260:\n        /* \"#utility.yul\":10963:10970   */\n      dup3\n        /* \"#utility.yul\":10960:10961   */\n      dup2\n        /* \"#utility.yul\":10957:10971   */\n      lt\n        /* \"#utility.yul\":10949:11157   */\n      iszero\n      tag_262\n      jumpi\n        /* \"#utility.yul\":11042:11051   */\n      dup5\n        /* \"#utility.yul\":11037:11040   */\n      dup10\n        /* \"#utility.yul\":11033:11052   */\n      add\n        /* \"#utility.yul\":11027:11053   */\n      mload\n        /* \"#utility.yul\":11019:11025   */\n      dup3\n        /* \"#utility.yul\":11012:11054   */\n      sstore\n        /* \"#utility.yul\":11093:11094   */\n      0x01\n        /* \"#utility.yul\":11085:11091   */\n      dup3\n        /* \"#utility.yul\":11081:11095   */\n      add\n        /* \"#utility.yul\":11071:11095   */\n      swap2\n      pop\n        /* \"#utility.yul\":11140:11142   */\n      0x20\n        /* \"#utility.yul\":11129:11138   */\n      dup6\n        /* \"#utility.yul\":11125:11143   */\n      add\n        /* \"#utility.yul\":11112:11143   */\n      swap5\n      pop\n        /* \"#utility.yul\":10986:10990   */\n      0x20\n        /* \"#utility.yul\":10983:10984   */\n      dup2\n        /* \"#utility.yul\":10979:10991   */\n      add\n        /* \"#utility.yul\":10974:10991   */\n      swap1\n      pop\n        /* \"#utility.yul\":10949:11157   */\n      jump(tag_260)\n    tag_262:\n        /* \"#utility.yul\":11185:11191   */\n      dup7\n        /* \"#utility.yul\":11176:11183   */\n      dup4\n        /* \"#utility.yul\":11173:11192   */\n      lt\n        /* \"#utility.yul\":11170:11349   */\n      iszero\n      tag_263\n      jumpi\n        /* \"#utility.yul\":11243:11252   */\n      dup5\n        /* \"#utility.yul\":11238:11241   */\n      dup10\n        /* \"#utility.yul\":11234:11253   */\n      add\n        /* \"#utility.yul\":11228:11254   */\n      mload\n        /* \"#utility.yul\":11286:11334   */\n      tag_264\n        /* \"#utility.yul\":11328:11332   */\n      0x1f\n        /* \"#utility.yul\":11320:11326   */\n      dup10\n        /* \"#utility.yul\":11316:11333   */\n      and\n        /* \"#utility.yul\":11305:11314   */\n      dup3\n        /* \"#utility.yul\":11286:11334   */\n      tag_124\n      jump\t// in\n    tag_264:\n        /* \"#utility.yul\":11278:11284   */\n      dup4\n        /* \"#utility.yul\":11271:11335   */\n      sstore\n        /* \"#utility.yul\":11193:11349   */\n      pop\n        /* \"#utility.yul\":11170:11349   */\n    tag_263:\n        /* \"#utility.yul\":11395:11396   */\n      0x01\n        /* \"#utility.yul\":11391:11392   */\n      0x02\n        /* \"#utility.yul\":11383:11389   */\n      dup9\n        /* \"#utility.yul\":11379:11393   */\n      mul\n        /* \"#utility.yul\":11375:11397   */\n      add\n        /* \"#utility.yul\":11369:11373   */\n      dup9\n        /* \"#utility.yul\":11362:11398   */\n      sstore\n        /* \"#utility.yul\":10797:11408   */\n      pop\n      pop\n      pop\n        /* \"#utility.yul\":10760:11647   */\n    tag_255:\n      pop\n        /* \"#utility.yul\":10350:11653   */\n      pop\n      pop\n      pop\n        /* \"#utility.yul\":10258:11653   */\n      pop\n      pop\n      jump\t// out\n        /* \"#utility.yul\":11659:11835   */\n    tag_126:\n        /* \"#utility.yul\":11799:11827   */\n      0x546869732070726f6475637420646f65736e2774206578697374000000000000\n        /* \"#utility.yul\":11795:11796   */\n      0x00\n        /* \"#utility.yul\":11787:11793   */\n      dup3\n        /* \"#utility.yul\":11783:11797   */\n      add\n        /* \"#utility.yul\":11776:11828   */\n      mstore\n        /* \"#utility.yul\":11659:11835   */\n      pop\n      jump\t// out\n        /* \"#utility.yul\":11841:12207   */\n    tag_127:\n        /* \"#utility.yul\":11983:11986   */\n      0x00\n        /* \"#utility.yul\":12004:12071   */\n      tag_267\n        /* \"#utility.yul\":12068:12070   */\n      0x1a\n        /* \"#utility.yul\":12063:12066   */\n      dup4\n        /* \"#utility.yul\":12004:12071   */\n      tag_97\n      jump\t// in\n    tag_267:\n        /* \"#utility.yul\":11997:12071   */\n      swap2\n      pop\n        /* \"#utility.yul\":12080:12173   */\n      tag_268\n        /* \"#utility.yul\":12169:12172   */\n      dup3\n        /* \"#utility.yul\":12080:12173   */\n      tag_126\n      jump\t// in\n    tag_268:\n        /* \"#utility.yul\":12198:12200   */\n      0x20\n        /* \"#utility.yul\":12193:12196   */\n      dup3\n        /* \"#utility.yul\":12189:12201   */\n      add\n        /* \"#utility.yul\":12182:12201   */\n      swap1\n      pop\n        /* \"#utility.yul\":11841:12207   */\n      swap2\n      swap1\n      pop\n      jump\t// out\n        /* \"#utility.yul\":12213:12632   */\n    tag_47:\n        /* \"#utility.yul\":12379:12383   */\n      0x00\n        /* \"#utility.yul\":12417:12419   */\n      0x20\n        /* \"#utility.yul\":12406:12415   */\n      dup3\n        /* \"#utility.yul\":12402:12420   */\n      add\n        /* \"#utility.yul\":12394:12420   */\n      swap1\n      pop\n        /* \"#utility.yul\":12466:12475   */\n      dup2\n        /* \"#utility.yul\":12460:12464   */\n      dup2\n        /* \"#utility.yul\":12456:12476   */\n      sub\n        /* \"#utility.yul\":12452:12453   */\n      0x00\n        /* \"#utility.yul\":12441:12450   */\n      dup4\n        /* \"#utility.yul\":12437:12454   */\n      add\n        /* \"#utility.yul\":12430:12477   */\n      mstore\n        /* \"#utility.yul\":12494:12625   */\n      tag_270\n        /* \"#utility.yul\":12620:12624   */\n      dup2\n        /* \"#utility.yul\":12494:12625   */\n      tag_127\n      jump\t// in\n    tag_270:\n        /* \"#utility.yul\":12486:12625   */\n      swap1\n      pop\n        /* \"#utility.yul\":12213:12632   */\n      swap2\n      swap1\n      pop\n      jump\t// out\n        /* \"#utility.yul\":12638:12818   */\n    tag_128:\n        /* \"#utility.yul\":12686:12763   */\n      0x4e487b7100000000000000000000000000000000000000000000000000000000\n        /* \"#utility.yul\":12683:12684   */\n      0x00\n        /* \"#utility.yul\":12676:12764   */\n      mstore\n        /* \"#utility.yul\":12783:12787   */\n      0x11\n        /* \"#utility.yul\":12780:12781   */\n      0x04\n        /* \"#utility.yul\":12773:12788   */\n      mstore\n        /* \"#utility.yul\":12807:12811   */\n      0x24\n        /* \"#utility.yul\":12804:12805   */\n      0x00\n        /* \"#utility.yul\":12797:12812   */\n      revert\n        /* \"#utility.yul\":12824:13018   */\n    tag_61:\n        /* \"#utility.yul\":12864:12868   */\n      0x00\n        /* \"#utility.yul\":12884:12904   */\n      tag_273\n        /* \"#utility.yul\":12902:12903   */\n      dup3\n        /* \"#utility.yul\":12884:12904   */\n      tag_89\n      jump\t// in\n    tag_273:\n        /* \"#utility.yul\":12879:12904   */\n      swap2\n      pop\n        /* \"#utility.yul\":12918:12938   */\n      tag_274\n        /* \"#utility.yul\":12936:12937   */\n      dup4\n        /* \"#utility.yul\":12918:12938   */\n      tag_89\n      jump\t// in\n    tag_274:\n        /* \"#utility.yul\":12913:12938   */\n      swap3\n      pop\n        /* \"#utility.yul\":12962:12963   */\n      dup3\n        /* \"#utility.yul\":12959:12960   */\n      dup3\n        /* \"#utility.yul\":12955:12964   */\n      sub\n        /* \"#utility.yul\":12947:12964   */\n      swap1\n      pop\n        /* \"#utility.yul\":12986:12987   */\n      dup2\n        /* \"#utility.yul\":12980:12984   */\n      dup2\n        /* \"#utility.yul\":12977:12988   */\n      gt\n        /* \"#utility.yul\":12974:13011   */\n      iszero\n      tag_275\n      jumpi\n        /* \"#utility.yul\":12991:13009   */\n      tag_276\n      tag_128\n      jump\t// in\n    tag_276:\n        /* \"#utility.yul\":12974:13011   */\n    tag_275:\n        /* \"#utility.yul\":12824:13018   */\n      swap3\n      swap2\n      pop\n      pop\n      jump\t// out\n        /* \"#utility.yul\":13024:13204   */\n    tag_64:\n        /* \"#utility.yul\":13072:13149   */\n      0x4e487b7100000000000000000000000000000000000000000000000000000000\n        /* \"#utility.yul\":13069:13070   */\n      0x00\n        /* \"#utility.yul\":13062:13150   */\n      mstore\n        /* \"#utility.yul\":13169:13173   */\n      0x32\n        /* \"#utility.yul\":13166:13167   */\n      0x04\n        /* \"#utility.yul\":13159:13174   */\n      mstore\n        /* \"#utility.yul\":13193:13197   */\n      0x24\n        /* \"#utility.yul\":13190:13191   */\n      0x00\n        /* \"#utility.yul\":13183:13198   */\n      revert\n        /* \"#utility.yul\":13210:13401   */\n    tag_68:\n        /* \"#utility.yul\":13250:13253   */\n      0x00\n        /* \"#utility.yul\":13269:13289   */\n      tag_279\n        /* \"#utility.yul\":13287:13288   */\n      dup3\n        /* \"#utility.yul\":13269:13289   */\n      tag_89\n      jump\t// in\n    tag_279:\n        /* \"#utility.yul\":13264:13289   */\n      swap2\n      pop\n        /* \"#utility.yul\":13303:13323   */\n      tag_280\n        /* \"#utility.yul\":13321:13322   */\n      dup4\n        /* \"#utility.yul\":13303:13323   */\n      tag_89\n      jump\t// in\n    tag_280:\n        /* \"#utility.yul\":13298:13323   */\n      swap3\n      pop\n        /* \"#utility.yul\":13346:13347   */\n      dup3\n        /* \"#utility.yul\":13343:13344   */\n      dup3\n        /* \"#utility.yul\":13339:13348   */\n      add\n        /* \"#utility.yul\":13332:13348   */\n      swap1\n      pop\n        /* \"#utility.yul\":13367:13370   */\n      dup1\n        /* \"#utility.yul\":13364:13365   */\n      dup3\n        /* \"#utility.yul\":13361:13371   */\n      gt\n        /* \"#utility.yul\":13358:13394   */\n      iszero\n      tag_281\n      jumpi\n        /* \"#utility.yul\":13374:13392   */\n      tag_282\n      tag_128\n      jump\t// in\n    tag_282:\n        /* \"#utility.yul\":13358:13394   */\n    tag_281:\n        /* \"#utility.yul\":13210:13401   */\n      swap3\n      swap2\n      pop\n      pop\n      jump\t// out\n        /* \"#utility.yul\":13407:13586   */\n    tag_129:\n        /* \"#utility.yul\":13547:13578   */\n      0x5468652070726f6475637420686173206e6f206d6f7265207374657073000000\n        /* \"#utility.yul\":13543:13544   */\n      0x00\n        /* \"#utility.yul\":13535:13541   */\n      dup3\n        /* \"#utility.yul\":13531:13545   */\n      add\n        /* \"#utility.yul\":13524:13579   */\n      mstore\n        /* \"#utility.yul\":13407:13586   */\n      pop\n      jump\t// out\n        /* \"#utility.yul\":13592:13958   */\n    tag_130:\n        /* \"#utility.yul\":13734:13737   */\n      0x00\n        /* \"#utility.yul\":13755:13822   */\n      tag_285\n        /* \"#utility.yul\":13819:13821   */\n      0x1d\n        /* \"#utility.yul\":13814:13817   */\n      dup4\n        /* \"#utility.yul\":13755:13822   */\n      tag_97\n      jump\t// in\n    tag_285:\n        /* \"#utility.yul\":13748:13822   */\n      swap2\n      pop\n        /* \"#utility.yul\":13831:13924   */\n      tag_286\n        /* \"#utility.yul\":13920:13923   */\n      dup3\n        /* \"#utility.yul\":13831:13924   */\n      tag_129\n      jump\t// in\n    tag_286:\n        /* \"#utility.yul\":13949:13951   */\n      0x20\n        /* \"#utility.yul\":13944:13947   */\n      dup3\n        /* \"#utility.yul\":13940:13952   */\n      add\n        /* \"#utility.yul\":13933:13952   */\n      swap1\n      pop\n        /* \"#utility.yul\":13592:13958   */\n      swap2\n      swap1\n      pop\n      jump\t// out\n        /* \"#utility.yul\":13964:14383   */\n    tag_73:\n        /* \"#utility.yul\":14130:14134   */\n      0x00\n        /* \"#utility.yul\":14168:14170   */\n      0x20\n        /* \"#utility.yul\":14157:14166   */\n      dup3\n        /* \"#utility.yul\":14153:14171   */\n      add\n        /* \"#utility.yul\":14145:14171   */\n      swap1\n      pop\n        /* \"#utility.yul\":14217:14226   */\n      dup2\n        /* \"#utility.yul\":14211:14215   */\n      dup2\n        /* \"#utility.yul\":14207:14227   */\n      sub\n        /* \"#utility.yul\":14203:14204   */\n      0x00\n        /* \"#utility.yul\":14192:14201   */\n      dup4\n        /* \"#utility.yul\":14188:14205   */\n      add\n        /* \"#utility.yul\":14181:14228   */\n      mstore\n        /* \"#utility.yul\":14245:14376   */\n      tag_288\n        /* \"#utility.yul\":14371:14375   */\n      dup2\n        /* \"#utility.yul\":14245:14376   */\n      tag_130\n      jump\t// in\n    tag_288:\n        /* \"#utility.yul\":14237:14376   */\n      swap1\n      pop\n        /* \"#utility.yul\":13964:14383   */\n      swap2\n      swap1\n      pop\n      jump\t// out\n        /* \"#utility.yul\":14389:14507   */\n    tag_131:\n        /* \"#utility.yul\":14476:14500   */\n      tag_290\n        /* \"#utility.yul\":14494:14499   */\n      dup2\n        /* \"#utility.yul\":14476:14500   */\n      tag_89\n      jump\t// in\n    tag_290:\n        /* \"#utility.yul\":14471:14474   */\n      dup3\n        /* \"#utility.yul\":14464:14501   */\n      mstore\n        /* \"#utility.yul\":14389:14507   */\n      pop\n      pop\n      jump\t// out\n        /* \"#utility.yul\":14513:14661   */\n    tag_132:\n        /* \"#utility.yul\":14611:14617   */\n      dup3\n        /* \"#utility.yul\":14606:14609   */\n      dup2\n        /* \"#utility.yul\":14601:14604   */\n      dup4\n        /* \"#utility.yul\":14588:14618   */\n      calldatacopy\n        /* \"#utility.yul\":14652:14653   */\n      0x00\n        /* \"#utility.yul\":14643:14649   */\n      dup4\n        /* \"#utility.yul\":14638:14641   */\n      dup4\n        /* \"#utility.yul\":14634:14650   */\n      add\n        /* \"#utility.yul\":14627:14654   */\n      mstore\n        /* \"#utility.yul\":14513:14661   */\n      pop\n      pop\n      pop\n      jump\t// out\n        /* \"#utility.yul\":14691:15008   */\n    tag_133:\n        /* \"#utility.yul\":14789:14792   */\n      0x00\n        /* \"#utility.yul\":14810:14881   */\n      tag_293\n        /* \"#utility.yul\":14874:14880   */\n      dup4\n        /* \"#utility.yul\":14869:14872   */\n      dup6\n        /* \"#utility.yul\":14810:14881   */\n      tag_97\n      jump\t// in\n    tag_293:\n        /* \"#utility.yul\":14803:14881   */\n      swap4\n      pop\n        /* \"#utility.yul\":14891:14947   */\n      tag_294\n        /* \"#utility.yul\":14940:14946   */\n      dup4\n        /* \"#utility.yul\":14935:14938   */\n      dup6\n        /* \"#utility.yul\":14928:14933   */\n      dup5\n        /* \"#utility.yul\":14891:14947   */\n      tag_132\n      jump\t// in\n    tag_294:\n        /* \"#utility.yul\":14972:15001   */\n      tag_295\n        /* \"#utility.yul\":14994:15000   */\n      dup4\n        /* \"#utility.yul\":14972:15001   */\n      tag_99\n      jump\t// in\n    tag_295:\n        /* \"#utility.yul\":14967:14970   */\n      dup5\n        /* \"#utility.yul\":14963:15002   */\n      add\n        /* \"#utility.yul\":14956:15002   */\n      swap1\n      pop\n        /* \"#utility.yul\":14691:15008   */\n      swap4\n      swap3\n      pop\n      pop\n      pop\n      jump\t// out\n        /* \"#utility.yul\":15014:15140   */\n    tag_134:\n        /* \"#utility.yul\":15051:15058   */\n      0x00\n        /* \"#utility.yul\":15091:15133   */\n      0xffffffffffffffffffffffffffffffffffffffff\n        /* \"#utility.yul\":15084:15089   */\n      dup3\n        /* \"#utility.yul\":15080:15134   */\n      and\n        /* \"#utility.yul\":15069:15134   */\n      swap1\n      pop\n        /* \"#utility.yul\":15014:15140   */\n      swap2\n      swap1\n      pop\n      jump\t// out\n        /* \"#utility.yul\":15146:15242   */\n    tag_135:\n        /* \"#utility.yul\":15183:15190   */\n      0x00\n        /* \"#utility.yul\":15212:15236   */\n      tag_298\n        /* \"#utility.yul\":15230:15235   */\n      dup3\n        /* \"#utility.yul\":15212:15236   */\n      tag_134\n      jump\t// in\n    tag_298:\n        /* \"#utility.yul\":15201:15236   */\n      swap1\n      pop\n        /* \"#utility.yul\":15146:15242   */\n      swap2\n      swap1\n      pop\n      jump\t// out\n        /* \"#utility.yul\":15248:15366   */\n    tag_136:\n        /* \"#utility.yul\":15335:15359   */\n      tag_300\n        /* \"#utility.yul\":15353:15358   */\n      dup2\n        /* \"#utility.yul\":15335:15359   */\n      tag_135\n      jump\t// in\n    tag_300:\n        /* \"#utility.yul\":15330:15333   */\n      dup3\n        /* \"#utility.yul\":15323:15360   */\n      mstore\n        /* \"#utility.yul\":15248:15366   */\n      pop\n      pop\n      jump\t// out\n        /* \"#utility.yul\":15372:16050   */\n    tag_85:\n        /* \"#utility.yul\":15586:15590   */\n      0x00\n        /* \"#utility.yul\":15624:15627   */\n      0x80\n        /* \"#utility.yul\":15613:15622   */\n      dup3\n        /* \"#utility.yul\":15609:15628   */\n      add\n        /* \"#utility.yul\":15601:15628   */\n      swap1\n      pop\n        /* \"#utility.yul\":15638:15709   */\n      tag_302\n        /* \"#utility.yul\":15706:15707   */\n      0x00\n        /* \"#utility.yul\":15695:15704   */\n      dup4\n        /* \"#utility.yul\":15691:15708   */\n      add\n        /* \"#utility.yul\":15682:15688   */\n      dup9\n        /* \"#utility.yul\":15638:15709   */\n      tag_131\n      jump\t// in\n    tag_302:\n        /* \"#utility.yul\":15719:15798   */\n      tag_303\n        /* \"#utility.yul\":15794:15796   */\n      0x20\n        /* \"#utility.yul\":15783:15792   */\n      dup4\n        /* \"#utility.yul\":15779:15797   */\n      add\n        /* \"#utility.yul\":15770:15776   */\n      dup8\n        /* \"#utility.yul\":15719:15798   */\n      tag_95\n      jump\t// in\n    tag_303:\n        /* \"#utility.yul\":15845:15854   */\n      dup2\n        /* \"#utility.yul\":15839:15843   */\n      dup2\n        /* \"#utility.yul\":15835:15855   */\n      sub\n        /* \"#utility.yul\":15830:15832   */\n      0x40\n        /* \"#utility.yul\":15819:15828   */\n      dup4\n        /* \"#utility.yul\":15815:15833   */\n      add\n        /* \"#utility.yul\":15808:15856   */\n      mstore\n        /* \"#utility.yul\":15873:15961   */\n      tag_304\n        /* \"#utility.yul\":15956:15960   */\n      dup2\n        /* \"#utility.yul\":15947:15953   */\n      dup6\n        /* \"#utility.yul\":15939:15945   */\n      dup8\n        /* \"#utility.yul\":15873:15961   */\n      tag_133\n      jump\t// in\n    tag_304:\n        /* \"#utility.yul\":15865:15961   */\n      swap1\n      pop\n        /* \"#utility.yul\":15971:16043   */\n      tag_305\n        /* \"#utility.yul\":16039:16041   */\n      0x60\n        /* \"#utility.yul\":16028:16037   */\n      dup4\n        /* \"#utility.yul\":16024:16042   */\n      add\n        /* \"#utility.yul\":16015:16021   */\n      dup5\n        /* \"#utility.yul\":15971:16043   */\n      tag_136\n      jump\t// in\n    tag_305:\n        /* \"#utility.yul\":15372:16050   */\n      swap7\n      swap6\n      pop\n      pop\n      pop\n      pop\n      pop\n      pop\n      jump\t// out\n\n    auxdata: 0xa2646970667358221220970e05d9a6a5139a89b908e475e6a112b710e47ee40d64e6cd5ba207ec3be12f64736f6c63430008190033\n}\n",
				"bytecode": {
					"linkReferences": {},
					"object": "6080604052348015600e575f80fd5b50610ed48061001c5f395ff3fe608060405260043610610033575f3560e01c8063a590fbdb14610037578063c08e0f9614610074578063d21cb5f1146100b0575b5f80fd5b348015610042575f80fd5b5061005d60048036038101906100589190610671565b6100e0565b60405161006b929190610792565b60405180910390f35b34801561007f575f80fd5b5061009a600480360381019061009591906107c0565b6101ab565b6040516100a79190610805565b60405180910390f35b6100ca60048036038101906100c5919061087f565b6102b6565b6040516100d79190610805565b60405180910390f35b5f602052815f5260405f2081815481106100f8575f80fd5b905f5260205f2090600202015f9150915050805f015f9054906101000a900460ff169080600101805461012a90610909565b80601f016020809104026020016040519081016040528092919081815260200182805461015690610909565b80156101a15780601f10610178576101008083540402835291602001916101a1565b820191905f5260205f20905b81548152906001019060200180831161018457829003601f168201915b5050505050905082565b5f805f808481526020019081526020015f208054905014610201576040517f08c379a00000000000000000000000000000000000000000000000000000000081526004016101f890610983565b60405180910390fd5b5f808381526020019081526020015f2060405180604001604052805f600481111561022f5761022e6106af565b5b815260200160405180602001604052805f815250815250908060018154018082558091505060019003905f5260205f2090600202015f909190919091505f820151815f015f6101000a81548160ff02191690836004811115610294576102936106af565b5b021790555060208201518160010190816102ae9190610b6b565b505050919050565b5f805f808681526020019081526020015f20805490501161030c576040517f08c379a000000000000000000000000000000000000000000000000000000000815260040161030390610c84565b60405180910390fd5b5f805f8681526020019081526020015f20805480602002602001604051908101604052809291908181526020015f905b82821015610435578382905f5260205f2090600202016040518060400160405290815f82015f9054906101000a900460ff1660048111156103805761037f6106af565b5b6004811115610392576103916106af565b5b81526020016001820180546103a690610909565b80601f01602080910402602001604051908101604052809291908181526020018280546103d290610909565b801561041d5780601f106103f45761010080835404028352916020019161041d565b820191905f5260205f20905b81548152906001019060200180831161040057829003601f168201915b5050505050815250508152602001906001019061033c565b5050505090505f6001826001845161044d9190610ccf565b8151811061045e5761045d610d02565b5b60200260200101515f0151600481111561047b5761047a6106af565b5b6104859190610d2f565b905060048081111561049a576104996106af565b5b8111156104dc576040517f08c379a00000000000000000000000000000000000000000000000000000000081526004016104d390610dac565b60405180910390fd5b5f60405180604001604052808360048111156104fb576104fa6106af565b5b600481111561050d5761050c6106af565b5b815260200187878080601f0160208091040260200160405190810160405280939291908181526020018383808284375f81840152601f19601f8201169050808301925050505050505081525090505f808881526020019081526020015f2081908060018154018082558091505060019003905f5260205f2090600202015f909190919091505f820151815f015f6101000a81548160ff021916908360048111156105ba576105b96106af565b5b021790555060208201518160010190816105d49190610b6b565b5050507fd9383aed0754623db576930ac0e5fd2e888ec2ba0a3cbaa724e47c49c70d91288783600481111561060c5761060b6106af565b5b888833604051610620959493929190610e52565b60405180910390a1600193505050509392505050565b5f80fd5b5f80fd5b5f819050919050565b6106508161063e565b811461065a575f80fd5b50565b5f8135905061066b81610647565b92915050565b5f806040838503121561068757610686610636565b5b5f6106948582860161065d565b92505060206106a58582860161065d565b9150509250929050565b7f4e487b71000000000000000000000000000000000000000000000000000000005f52602160045260245ffd5b600581106106ed576106ec6106af565b5b50565b5f8190506106fd826106dc565b919050565b5f61070c826106f0565b9050919050565b61071c81610702565b82525050565b5f81519050919050565b5f82825260208201905092915050565b8281835e5f83830152505050565b5f601f19601f8301169050919050565b5f61076482610722565b61076e818561072c565b935061077e81856020860161073c565b6107878161074a565b840191505092915050565b5f6040820190506107a55f830185610713565b81810360208301526107b7818461075a565b90509392505050565b5f602082840312156107d5576107d4610636565b5b5f6107e28482850161065d565b91505092915050565b5f8115159050919050565b6107ff816107eb565b82525050565b5f6020820190506108185f8301846107f6565b92915050565b5f80fd5b5f80fd5b5f80fd5b5f8083601f84011261083f5761083e61081e565b5b8235905067ffffffffffffffff81111561085c5761085b610822565b5b60208301915083600182028301111561087857610877610826565b5b9250929050565b5f805f6040848603121561089657610895610636565b5b5f6108a38682870161065d565b935050602084013567ffffffffffffffff8111156108c4576108c361063a565b5b6108d08682870161082a565b92509250509250925092565b7f4e487b71000000000000000000000000000000000000000000000000000000005f52602260045260245ffd5b5f600282049050600182168061092057607f821691505b602082108103610933576109326108dc565b5b50919050565b7f546869732070726f6475637420616c72656164792065786973747300000000005f82015250565b5f61096d601b8361072c565b915061097882610939565b602082019050919050565b5f6020820190508181035f83015261099a81610961565b9050919050565b7f4e487b71000000000000000000000000000000000000000000000000000000005f52604160045260245ffd5b5f819050815f5260205f209050919050565b5f6020601f8301049050919050565b5f82821b905092915050565b5f60088302610a2a7fffffffffffffffffffffffffffffffffffffffffffffffffffffffffffffffff826109ef565b610a3486836109ef565b95508019841693508086168417925050509392505050565b5f819050919050565b5f610a6f610a6a610a658461063e565b610a4c565b61063e565b9050919050565b5f819050919050565b610a8883610a55565b610a9c610a9482610a76565b8484546109fb565b825550505050565b5f90565b610ab0610aa4565b610abb818484610a7f565b505050565b5b81811015610ade57610ad35f82610aa8565b600181019050610ac1565b5050565b601f821115610b2357610af4816109ce565b610afd846109e0565b81016020851015610b0c578190505b610b20610b18856109e0565b830182610ac0565b50505b505050565b5f82821c905092915050565b5f610b435f1984600802610b28565b1980831691505092915050565b5f610b5b8383610b34565b9150826002028217905092915050565b610b7482610722565b67ffffffffffffffff811115610b8d57610b8c6109a1565b5b610b978254610909565b610ba2828285610ae2565b5f60209050601f831160018114610bd3575f8415610bc1578287015190505b610bcb8582610b50565b865550610c32565b601f198416610be1866109ce565b5f5b82811015610c0857848901518255600182019150602085019450602081019050610be3565b86831015610c255784890151610c21601f891682610b34565b8355505b6001600288020188555050505b505050505050565b7f546869732070726f6475637420646f65736e27742065786973740000000000005f82015250565b5f610c6e601a8361072c565b9150610c7982610c3a565b602082019050919050565b5f6020820190508181035f830152610c9b81610c62565b9050919050565b7f4e487b71000000000000000000000000000000000000000000000000000000005f52601160045260245ffd5b5f610cd98261063e565b9150610ce48361063e565b9250828203905081811115610cfc57610cfb610ca2565b5b92915050565b7f4e487b71000000000000000000000000000000000000000000000000000000005f52603260045260245ffd5b5f610d398261063e565b9150610d448361063e565b9250828201905080821115610d5c57610d5b610ca2565b5b92915050565b7f5468652070726f6475637420686173206e6f206d6f72652073746570730000005f82015250565b5f610d96601d8361072c565b9150610da182610d62565b602082019050919050565b5f6020820190508181035f830152610dc381610d8a565b9050919050565b610dd38161063e565b82525050565b828183375f83830152505050565b5f610df2838561072c565b9350610dff838584610dd9565b610e088361074a565b840190509392505050565b5f73ffffffffffffffffffffffffffffffffffffffff82169050919050565b5f610e3c82610e13565b9050919050565b610e4c81610e32565b82525050565b5f608082019050610e655f830188610dca565b610e726020830187610713565b8181036040830152610e85818587610de7565b9050610e946060830184610e43565b969550505050505056fea2646970667358221220970e05d9a6a5139a89b908e475e6a112b710e47ee40d64e6cd5ba207ec3be12f64736f6c63430008190033",
					"opcodes": "PUSH1 0x80 PUSH1 0x40 MSTORE CALLVALUE DUP1 ISZERO PUSH1 0xE JUMPI PUSH0 DUP1 REVERT JUMPDEST POP PUSH2 0xED4 DUP1 PUSH2 0x1C PUSH0 CODECOPY PUSH0 RETURN INVALID PUSH1 0x80 PUSH1 0x40 MSTORE PUSH1 0x4 CALLDATASIZE LT PUSH2 0x33 JUMPI PUSH0 CALLDATALOAD PUSH1 0xE0 SHR DUP1 PUSH4 0xA590FBDB EQ PUSH2 0x37 JUMPI DUP1 PUSH4 0xC08E0F96 EQ PUSH2 0x74 JUMPI DUP1 PUSH4 0xD21CB5F1 EQ PUSH2 0xB0 JUMPI JUMPDEST PUSH0 DUP1 REVERT JUMPDEST CALLVALUE DUP1 ISZERO PUSH2 0x42 JUMPI PUSH0 DUP1 REVERT JUMPDEST POP PUSH2 0x5D PUSH1 0x4 DUP1 CALLDATASIZE SUB DUP2 ADD SWAP1 PUSH2 0x58 SWAP2 SWAP1 PUSH2 0x671 JUMP JUMPDEST PUSH2 0xE0 JUMP JUMPDEST PUSH1 0x40 MLOAD PUSH2 0x6B SWAP3 SWAP2 SWAP1 PUSH2 0x792 JUMP JUMPDEST PUSH1 0x40 MLOAD DUP1 SWAP2 SUB SWAP1 RETURN JUMPDEST CALLVALUE DUP1 ISZERO PUSH2 0x7F JUMPI PUSH0 DUP1 REVERT JUMPDEST POP PUSH2 0x9A PUSH1 0x4 DUP1 CALLDATASIZE SUB DUP2 ADD SWAP1 PUSH2 0x95 SWAP2 SWAP1 PUSH2 0x7C0 JUMP JUMPDEST PUSH2 0x1AB JUMP JUMPDEST PUSH1 0x40 MLOAD PUSH2 0xA7 SWAP2 SWAP1 PUSH2 0x805 JUMP JUMPDEST PUSH1 0x40 MLOAD DUP1 SWAP2 SUB SWAP1 RETURN JUMPDEST PUSH2 0xCA PUSH1 0x4 DUP1 CALLDATASIZE SUB DUP2 ADD SWAP1 PUSH2 0xC5 SWAP2 SWAP1 PUSH2 0x87F JUMP JUMPDEST PUSH2 0x2B6 JUMP JUMPDEST PUSH1 0x40 MLOAD PUSH2 0xD7 SWAP2 SWAP1 PUSH2 0x805 JUMP JUMPDEST PUSH1 0x40 MLOAD DUP1 SWAP2 SUB SWAP1 RETURN JUMPDEST PUSH0 PUSH1 0x20 MSTORE DUP2 PUSH0 MSTORE PUSH1 0x40 PUSH0 KECCAK256 DUP2 DUP2 SLOAD DUP2 LT PUSH2 0xF8 JUMPI PUSH0 DUP1 REVERT JUMPDEST SWAP1 PUSH0 MSTORE PUSH1 0x20 PUSH0 KECCAK256 SWAP1 PUSH1 0x2 MUL ADD PUSH0 SWAP2 POP SWAP2 POP POP DUP1 PUSH0 ADD PUSH0 SWAP1 SLOAD SWAP1 PUSH2 0x100 EXP SWAP1 DIV PUSH1 0xFF AND SWAP1 DUP1 PUSH1 0x1 ADD DUP1 SLOAD PUSH2 0x12A SWAP1 PUSH2 0x909 JUMP JUMPDEST DUP1 PUSH1 0x1F ADD PUSH1 0x20 DUP1 SWAP2 DIV MUL PUSH1 0x20 ADD PUSH1 0x40 MLOAD SWAP1 DUP2 ADD PUSH1 0x40 MSTORE DUP1 SWAP3 SWAP2 SWAP1 DUP2 DUP2 MSTORE PUSH1 0x20 ADD DUP3 DUP1 SLOAD PUSH2 0x156 SWAP1 PUSH2 0x909 JUMP JUMPDEST DUP1 ISZERO PUSH2 0x1A1 JUMPI DUP1 PUSH1 0x1F LT PUSH2 0x178 JUMPI PUSH2 0x100 DUP1 DUP4 SLOAD DIV MUL DUP4 MSTORE SWAP2 PUSH1 0x20 ADD SWAP2 PUSH2 0x1A1 JUMP JUMPDEST DUP3 ADD SWAP2 SWAP1 PUSH0 MSTORE PUSH1 0x20 PUSH0 KECCAK256 SWAP1 JUMPDEST DUP2 SLOAD DUP2 MSTORE SWAP1 PUSH1 0x1 ADD SWAP1 PUSH1 0x20 ADD DUP1 DUP4 GT PUSH2 0x184 JUMPI DUP3 SWAP1 SUB PUSH1 0x1F AND DUP3 ADD SWAP2 JUMPDEST POP POP POP POP POP SWAP1 POP DUP3 JUMP JUMPDEST PUSH0 DUP1 PUSH0 DUP1 DUP5 DUP2 MSTORE PUSH1 0x20 ADD SWAP1 DUP2 MSTORE PUSH1 0x20 ADD PUSH0 KECCAK256 DUP1 SLOAD SWAP1 POP EQ PUSH2 0x201 JUMPI PUSH1 0x40 MLOAD PUSH32 0x8C379A000000000000000000000000000000000000000000000000000000000 DUP2 MSTORE PUSH1 0x4 ADD PUSH2 0x1F8 SWAP1 PUSH2 0x983 JUMP JUMPDEST PUSH1 0x40 MLOAD DUP1 SWAP2 SUB SWAP1 REVERT JUMPDEST PUSH0 DUP1 DUP4 DUP2 MSTORE PUSH1 0x20 ADD SWAP1 DUP2 MSTORE PUSH1 0x20 ADD PUSH0 KECCAK256 PUSH1 0x40 MLOAD DUP1 PUSH1 0x40 ADD PUSH1 0x40 MSTORE DUP1 PUSH0 PUSH1 0x4 DUP2 GT ISZERO PUSH2 0x22F JUMPI PUSH2 0x22E PUSH2 0x6AF JUMP JUMPDEST JUMPDEST DUP2 MSTORE PUSH1 0x20 ADD PUSH1 0x40 MLOAD DUP1 PUSH1 0x20 ADD PUSH1 0x40 MSTORE DUP1 PUSH0 DUP2 MSTORE POP DUP2 MSTORE POP SWAP1 DUP1 PUSH1 0x1 DUP2 SLOAD ADD DUP1 DUP3 SSTORE DUP1 SWAP2 POP POP PUSH1 0x1 SWAP1 SUB SWAP1 PUSH0 MSTORE PUSH1 0x20 PUSH0 KECCAK256 SWAP1 PUSH1 0x2 MUL ADD PUSH0 SWAP1 SWAP2 SWAP1 SWAP2 SWAP1 SWAP2 POP PUSH0 DUP3 ADD MLOAD DUP2 PUSH0 ADD PUSH0 PUSH2 0x100 EXP DUP2 SLOAD DUP2 PUSH1 0xFF MUL NOT AND SWAP1 DUP4 PUSH1 0x4 DUP2 GT ISZERO PUSH2 0x294 JUMPI PUSH2 0x293 PUSH2 0x6AF JUMP JUMPDEST JUMPDEST MUL OR SWAP1 SSTORE POP PUSH1 0x20 DUP3 ADD MLOAD DUP2 PUSH1 0x1 ADD SWAP1 DUP2 PUSH2 0x2AE SWAP2 SWAP1 PUSH2 0xB6B JUMP JUMPDEST POP POP POP SWAP2 SWAP1 POP JUMP JUMPDEST PUSH0 DUP1 PUSH0 DUP1 DUP7 DUP2 MSTORE PUSH1 0x20 ADD SWAP1 DUP2 MSTORE PUSH1 0x20 ADD PUSH0 KECCAK256 DUP1 SLOAD SWAP1 POP GT PUSH2 0x30C JUMPI PUSH1 0x40 MLOAD PUSH32 0x8C379A000000000000000000000000000000000000000000000000000000000 DUP2 MSTORE PUSH1 0x4 ADD PUSH2 0x303 SWAP1 PUSH2 0xC84 JUMP JUMPDEST PUSH1 0x40 MLOAD DUP1 SWAP2 SUB SWAP1 REVERT JUMPDEST PUSH0 DUP1 PUSH0 DUP7 DUP2 MSTORE PUSH1 0x20 ADD SWAP1 DUP2 MSTORE PUSH1 0x20 ADD PUSH0 KECCAK256 DUP1 SLOAD DUP1 PUSH1 0x20 MUL PUSH1 0x20 ADD PUSH1 0x40 MLOAD SWAP1 DUP2 ADD PUSH1 0x40 MSTORE DUP1 SWAP3 SWAP2 SWAP1 DUP2 DUP2 MSTORE PUSH1 0x20 ADD PUSH0 SWAP1 JUMPDEST DUP3 DUP3 LT ISZERO PUSH2 0x435 JUMPI DUP4 DUP3 SWAP1 PUSH0 MSTORE PUSH1 0x20 PUSH0 KECCAK256 SWAP1 PUSH1 0x2 MUL ADD PUSH1 0x40 MLOAD DUP1 PUSH1 0x40 ADD PUSH1 0x40 MSTORE SWAP1 DUP2 PUSH0 DUP3 ADD PUSH0 SWAP1 SLOAD SWAP1 PUSH2 0x100 EXP SWAP1 DIV PUSH1 0xFF AND PUSH1 0x4 DUP2 GT ISZERO PUSH2 0x380 JUMPI PUSH2 0x37F PUSH2 0x6AF JUMP JUMPDEST JUMPDEST PUSH1 0x4 DUP2 GT ISZERO PUSH2 0x392 JUMPI PUSH2 0x391 PUSH2 0x6AF JUMP JUMPDEST JUMPDEST DUP2 MSTORE PUSH1 0x20 ADD PUSH1 0x1 DUP3 ADD DUP1 SLOAD PUSH2 0x3A6 SWAP1 PUSH2 0x909 JUMP JUMPDEST DUP1 PUSH1 0x1F ADD PUSH1 0x20 DUP1 SWAP2 DIV MUL PUSH1 0x20 ADD PUSH1 0x40 MLOAD SWAP1 DUP2 ADD PUSH1 0x40 MSTORE DUP1 SWAP3 SWAP2 SWAP1 DUP2 DUP2 MSTORE PUSH1 0x20 ADD DUP3 DUP1 SLOAD PUSH2 0x3D2 SWAP1 PUSH2 0x909 JUMP JUMPDEST DUP1 ISZERO PUSH2 0x41D JUMPI DUP1 PUSH1 0x1F LT PUSH2 0x3F4 JUMPI PUSH2 0x100 DUP1 DUP4 SLOAD DIV MUL DUP4 MSTORE SWAP2 PUSH1 0x20 ADD SWAP2 PUSH2 0x41D JUMP JUMPDEST DUP3 ADD SWAP2 SWAP1 PUSH0 MSTORE PUSH1 0x20 PUSH0 KECCAK256 SWAP1 JUMPDEST DUP2 SLOAD DUP2 MSTORE SWAP1 PUSH1 0x1 ADD SWAP1 PUSH1 0x20 ADD DUP1 DUP4 GT PUSH2 0x400 JUMPI DUP3 SWAP1 SUB PUSH1 0x1F AND DUP3 ADD SWAP2 JUMPDEST POP POP POP POP POP DUP2 MSTORE POP POP DUP2 MSTORE PUSH1 0x20 ADD SWAP1 PUSH1 0x1 ADD SWAP1 PUSH2 0x33C JUMP JUMPDEST POP POP POP POP SWAP1 POP PUSH0 PUSH1 0x1 DUP3 PUSH1 0x1 DUP5 MLOAD PUSH2 0x44D SWAP2 SWAP1 PUSH2 0xCCF JUMP JUMPDEST DUP2 MLOAD DUP2 LT PUSH2 0x45E JUMPI PUSH2 0x45D PUSH2 0xD02 JUMP JUMPDEST JUMPDEST PUSH1 0x20 MUL PUSH1 0x20 ADD ADD MLOAD PUSH0 ADD MLOAD PUSH1 0x4 DUP2 GT ISZERO PUSH2 0x47B JUMPI PUSH2 0x47A PUSH2 0x6AF JUMP JUMPDEST JUMPDEST PUSH2 0x485 SWAP2 SWAP1 PUSH2 0xD2F JUMP JUMPDEST SWAP1 POP PUSH1 0x4 DUP1 DUP2 GT ISZERO PUSH2 0x49A JUMPI PUSH2 0x499 PUSH2 0x6AF JUMP JUMPDEST JUMPDEST DUP2 GT ISZERO PUSH2 0x4DC JUMPI PUSH1 0x40 MLOAD PUSH32 0x8C379A000000000000000000000000000000000000000000000000000000000 DUP2 MSTORE PUSH1 0x4 ADD PUSH2 0x4D3 SWAP1 PUSH2 0xDAC JUMP JUMPDEST PUSH1 0x40 MLOAD DUP1 SWAP2 SUB SWAP1 REVERT JUMPDEST PUSH0 PUSH1 0x40 MLOAD DUP1 PUSH1 0x40 ADD PUSH1 0x40 MSTORE DUP1 DUP4 PUSH1 0x4 DUP2 GT ISZERO PUSH2 0x4FB JUMPI PUSH2 0x4FA PUSH2 0x6AF JUMP JUMPDEST JUMPDEST PUSH1 0x4 DUP2 GT ISZERO PUSH2 0x50D JUMPI PUSH2 0x50C PUSH2 0x6AF JUMP JUMPDEST JUMPDEST DUP2 MSTORE PUSH1 0x20 ADD DUP8 DUP8 DUP1 DUP1 PUSH1 0x1F ADD PUSH1 0x20 DUP1 SWAP2 DIV MUL PUSH1 0x20 ADD PUSH1 0x40 MLOAD SWAP1 DUP2 ADD PUSH1 0x40 MSTORE DUP1 SWAP4 SWAP3 SWAP2 SWAP1 DUP2 DUP2 MSTORE PUSH1 0x20 ADD DUP4 DUP4 DUP1 DUP3 DUP5 CALLDATACOPY PUSH0 DUP2 DUP5 ADD MSTORE PUSH1 0x1F NOT PUSH1 0x1F DUP3 ADD AND SWAP1 POP DUP1 DUP4 ADD SWAP3 POP POP POP POP POP POP POP DUP2 MSTORE POP SWAP1 POP PUSH0 DUP1 DUP9 DUP2 MSTORE PUSH1 0x20 ADD SWAP1 DUP2 MSTORE PUSH1 0x20 ADD PUSH0 KECCAK256 DUP2 SWAP1 DUP1 PUSH1 0x1 DUP2 SLOAD ADD DUP1 DUP3 SSTORE DUP1 SWAP2 POP POP PUSH1 0x1 SWAP1 SUB SWAP1 PUSH0 MSTORE PUSH1 0x20 PUSH0 KECCAK256 SWAP1 PUSH1 0x2 MUL ADD PUSH0 SWAP1 SWAP2 SWAP1 SWAP2 SWAP1 SWAP2 POP PUSH0 DUP3 ADD MLOAD DUP2 PUSH0 ADD PUSH0 PUSH2 0x100 EXP DUP2 SLOAD DUP2 PUSH1 0xFF MUL NOT AND SWAP1 DUP4 PUSH1 0x4 DUP2 GT ISZERO PUSH2 0x5BA JUMPI PUSH2 0x5B9 PUSH2 0x6AF JUMP JUMPDEST JUMPDEST MUL OR SWAP1 SSTORE POP PUSH1 0x20 DUP3 ADD MLOAD DUP2 PUSH1 0x1 ADD SWAP1 DUP2 PUSH2 0x5D4 SWAP2 SWAP1 PUSH2 0xB6B JUMP JUMPDEST POP POP POP PUSH32 0xD9383AED0754623DB576930AC0E5FD2E888EC2BA0A3CBAA724E47C49C70D9128 DUP8 DUP4 PUSH1 0x4 DUP2 GT ISZERO PUSH2 0x60C JUMPI PUSH2 0x60B PUSH2 0x6AF JUMP JUMPDEST JUMPDEST DUP9 DUP9 CALLER PUSH1 0x40 MLOAD PUSH2 0x620 SWAP6 SWAP5 SWAP4 SWAP3 SWAP2 SWAP1 PUSH2 0xE52 JUMP JUMPDEST PUSH1 0x40 MLOAD DUP1 SWAP2 SUB SWAP1 LOG1 PUSH1 0x1 SWAP4 POP POP POP POP SWAP4 SWAP3 POP POP POP JUMP JUMPDEST PUSH0 DUP1 REVERT JUMPDEST PUSH0 DUP1 REVERT JUMPDEST PUSH0 DUP2 SWAP1 POP SWAP2 SWAP1 POP JUMP JUMPDEST PUSH2 0x650 DUP2 PUSH2 0x63E JUMP JUMPDEST DUP2 EQ PUSH2 0x65A JUMPI PUSH0 DUP1 REVERT JUMPDEST POP JUMP JUMPDEST PUSH0 DUP2 CALLDATALOAD SWAP1 POP PUSH2 0x66B DUP2 PUSH2 0x647 JUMP JUMPDEST SWAP3 SWAP2 POP POP JUMP JUMPDEST PUSH0 DUP1 PUSH1 0x40 DUP4 DUP6 SUB SLT ISZERO PUSH2 0x687 JUMPI PUSH2 0x686 PUSH2 0x636 JUMP JUMPDEST JUMPDEST PUSH0 PUSH2 0x694 DUP6 DUP3 DUP7 ADD PUSH2 0x65D JUMP JUMPDEST SWAP3 POP POP PUSH1 0x20 PUSH2 0x6A5 DUP6 DUP3 DUP7 ADD PUSH2 0x65D JUMP JUMPDEST SWAP2 POP POP SWAP3 POP SWAP3 SWAP1 POP JUMP JUMPDEST PUSH32 0x4E487B7100000000000000000000000000000000000000000000000000000000 PUSH0 MSTORE PUSH1 0x21 PUSH1 0x4 MSTORE PUSH1 0x24 PUSH0 REVERT JUMPDEST PUSH1 0x5 DUP2 LT PUSH2 0x6ED JUMPI PUSH2 0x6EC PUSH2 0x6AF JUMP JUMPDEST JUMPDEST POP JUMP JUMPDEST PUSH0 DUP2 SWAP1 POP PUSH2 0x6FD DUP3 PUSH2 0x6DC JUMP JUMPDEST SWAP2 SWAP1 POP JUMP JUMPDEST PUSH0 PUSH2 0x70C DUP3 PUSH2 0x6F0 JUMP JUMPDEST SWAP1 POP SWAP2 SWAP1 POP JUMP JUMPDEST PUSH2 0x71C DUP2 PUSH2 0x702 JUMP JUMPDEST DUP3 MSTORE POP POP JUMP JUMPDEST PUSH0 DUP2 MLOAD SWAP1 POP SWAP2 SWAP1 POP JUMP JUMPDEST PUSH0 DUP3 DUP3 MSTORE PUSH1 0x20 DUP3 ADD SWAP1 POP SWAP3 SWAP2 POP POP JUMP JUMPDEST DUP3 DUP2 DUP4 MCOPY PUSH0 DUP4 DUP4 ADD MSTORE POP POP POP JUMP JUMPDEST PUSH0 PUSH1 0x1F NOT PUSH1 0x1F DUP4 ADD AND SWAP1 POP SWAP2 SWAP1 POP JUMP JUMPDEST PUSH0 PUSH2 0x764 DUP3 PUSH2 0x722 JUMP JUMPDEST PUSH2 0x76E DUP2 DUP6 PUSH2 0x72C JUMP JUMPDEST SWAP4 POP PUSH2 0x77E DUP2 DUP6 PUSH1 0x20 DUP7 ADD PUSH2 0x73C JUMP JUMPDEST PUSH2 0x787 DUP2 PUSH2 0x74A JUMP JUMPDEST DUP5 ADD SWAP2 POP POP SWAP3 SWAP2 POP POP JUMP JUMPDEST PUSH0 PUSH1 0x40 DUP3 ADD SWAP1 POP PUSH2 0x7A5 PUSH0 DUP4 ADD DUP6 PUSH2 0x713 JUMP JUMPDEST DUP2 DUP2 SUB PUSH1 0x20 DUP4 ADD MSTORE PUSH2 0x7B7 DUP2 DUP5 PUSH2 0x75A JUMP JUMPDEST SWAP1 POP SWAP4 SWAP3 POP POP POP JUMP JUMPDEST PUSH0 PUSH1 0x20 DUP3 DUP5 SUB SLT ISZERO PUSH2 0x7D5 JUMPI PUSH2 0x7D4 PUSH2 0x636 JUMP JUMPDEST JUMPDEST PUSH0 PUSH2 0x7E2 DUP5 DUP3 DUP6 ADD PUSH2 0x65D JUMP JUMPDEST SWAP2 POP POP SWAP3 SWAP2 POP POP JUMP JUMPDEST PUSH0 DUP2 ISZERO ISZERO SWAP1 POP SWAP2 SWAP1 POP JUMP JUMPDEST PUSH2 0x7FF DUP2 PUSH2 0x7EB JUMP JUMPDEST DUP3 MSTORE POP POP JUMP JUMPDEST PUSH0 PUSH1 0x20 DUP3 ADD SWAP1 POP PUSH2 0x818 PUSH0 DUP4 ADD DUP5 PUSH2 0x7F6 JUMP JUMPDEST SWAP3 SWAP2 POP POP JUMP JUMPDEST PUSH0 DUP1 REVERT JUMPDEST PUSH0 DUP1 REVERT JUMPDEST PUSH0 DUP1 REVERT JUMPDEST PUSH0 DUP1 DUP4 PUSH1 0x1F DUP5 ADD SLT PUSH2 0x83F JUMPI PUSH2 0x83E PUSH2 0x81E JUMP JUMPDEST JUMPDEST DUP3 CALLDATALOAD SWAP1 POP PUSH8 0xFFFFFFFFFFFFFFFF DUP2 GT ISZERO PUSH2 0x85C JUMPI PUSH2 0x85B PUSH2 0x822 JUMP JUMPDEST JUMPDEST PUSH1 0x20 DUP4 ADD SWAP2 POP DUP4 PUSH1 0x1 DUP3 MUL DUP4 ADD GT ISZERO PUSH2 0x878 JUMPI PUSH2 0x877 PUSH2 0x826 JUMP JUMPDEST JUMPDEST SWAP3 POP SWAP3 SWAP1 POP JUMP JUMPDEST PUSH0 DUP1 PUSH0 PUSH1 0x40 DUP5 DUP7 SUB SLT ISZERO PUSH2 0x896 JUMPI PUSH2 0x895 PUSH2 0x636 JUMP JUMPDEST JUMPDEST PUSH0 PUSH2 0x8A3 DUP7 DUP3 DUP8 ADD PUSH2 0x65D JUMP JUMPDEST SWAP4 POP POP PUSH1 0x20 DUP5 ADD CALLDATALOAD PUSH8 0xFFFFFFFFFFFFFFFF DUP2 GT ISZERO PUSH2 0x8C4 JUMPI PUSH2 0x8C3 PUSH2 0x63A JUMP JUMPDEST JUMPDEST PUSH2 0x8D0 DUP7 DUP3 DUP8 ADD PUSH2 0x82A JUMP JUMPDEST SWAP3 POP SWAP3 POP POP SWAP3 POP SWAP3 POP SWAP3 JUMP JUMPDEST PUSH32 0x4E487B7100000000000000000000000000000000000000000000000000000000 PUSH0 MSTORE PUSH1 0x22 PUSH1 0x4 MSTORE PUSH1 0x24 PUSH0 REVERT JUMPDEST PUSH0 PUSH1 0x2 DUP3 DIV SWAP1 POP PUSH1 0x1 DUP3 AND DUP1 PUSH2 0x920 JUMPI PUSH1 0x7F DUP3 AND SWAP2 POP JUMPDEST PUSH1 0x20 DUP3 LT DUP2 SUB PUSH2 0x933 JUMPI PUSH2 0x932 PUSH2 0x8DC JUMP JUMPDEST JUMPDEST POP SWAP2 SWAP1 POP JUMP JUMPDEST PUSH32 0x546869732070726F6475637420616C7265616479206578697374730000000000 PUSH0 DUP3 ADD MSTORE POP JUMP JUMPDEST PUSH0 PUSH2 0x96D PUSH1 0x1B DUP4 PUSH2 0x72C JUMP JUMPDEST SWAP2 POP PUSH2 0x978 DUP3 PUSH2 0x939 JUMP JUMPDEST PUSH1 0x20 DUP3 ADD SWAP1 POP SWAP2 SWAP1 POP JUMP JUMPDEST PUSH0 PUSH1 0x20 DUP3 ADD SWAP1 POP DUP2 DUP2 SUB PUSH0 DUP4 ADD MSTORE PUSH2 0x99A DUP2 PUSH2 0x961 JUMP JUMPDEST SWAP1 POP SWAP2 SWAP1 POP JUMP JUMPDEST PUSH32 0x4E487B7100000000000000000000000000000000000000000000000000000000 PUSH0 MSTORE PUSH1 0x41 PUSH1 0x4 MSTORE PUSH1 0x24 PUSH0 REVERT JUMPDEST PUSH0 DUP2 SWAP1 POP DUP2 PUSH0 MSTORE PUSH1 0x20 PUSH0 KECCAK256 SWAP1 POP SWAP2 SWAP1 POP JUMP JUMPDEST PUSH0 PUSH1 0x20 PUSH1 0x1F DUP4 ADD DIV SWAP1 POP SWAP2 SWAP1 POP JUMP JUMPDEST PUSH0 DUP3 DUP3 SHL SWAP1 POP SWAP3 SWAP2 POP POP JUMP JUMPDEST PUSH0 PUSH1 0x8 DUP4 MUL PUSH2 0xA2A PUSH32 0xFFFFFFFFFFFFFFFFFFFFFFFFFFFFFFFFFFFFFFFFFFFFFFFFFFFFFFFFFFFFFFFF DUP3 PUSH2 0x9EF JUMP JUMPDEST PUSH2 0xA34 DUP7 DUP4 PUSH2 0x9EF JUMP JUMPDEST SWAP6 POP DUP1 NOT DUP5 AND SWAP4 POP DUP1 DUP7 AND DUP5 OR SWAP3 POP POP POP SWAP4 SWAP3 POP POP POP JUMP JUMPDEST PUSH0 DUP2 SWAP1 POP SWAP2 SWAP1 POP JUMP JUMPDEST PUSH0 PUSH2 0xA6F PUSH2 0xA6A PUSH2 0xA65 DUP5 PUSH2 0x63E JUMP JUMPDEST PUSH2 0xA4C JUMP JUMPDEST PUSH2 0x63E JUMP JUMPDEST SWAP1 POP SWAP2 SWAP1 POP JUMP JUMPDEST PUSH0 DUP2 SWAP1 POP SWAP2 SWAP1 POP JUMP JUMPDEST PUSH2 0xA88 DUP4 PUSH2 0xA55 JUMP JUMPDEST PUSH2 0xA9C PUSH2 0xA94 DUP3 PUSH2 0xA76 JUMP JUMPDEST DUP5 DUP5 SLOAD PUSH2 0x9FB JUMP JUMPDEST DUP3 SSTORE POP POP POP POP JUMP JUMPDEST PUSH0 SWAP1 JUMP JUMPDEST PUSH2 0xAB0 PUSH2 0xAA4 JUMP JUMPDEST PUSH2 0xABB DUP2 DUP5 DUP5 PUSH2 0xA7F JUMP JUMPDEST POP POP POP JUMP JUMPDEST JUMPDEST DUP2 DUP2 LT ISZERO PUSH2 0xADE JUMPI PUSH2 0xAD3 PUSH0 DUP3 PUSH2 0xAA8 JUMP JUMPDEST PUSH1 0x1 DUP2 ADD SWAP1 POP PUSH2 0xAC1 JUMP JUMPDEST POP POP JUMP JUMPDEST PUSH1 0x1F DUP3 GT ISZERO PUSH2 0xB23 JUMPI PUSH2 0xAF4 DUP2 PUSH2 0x9CE JUMP JUMPDEST PUSH2 0xAFD DUP5 PUSH2 0x9E0 JUMP JUMPDEST DUP2 ADD PUSH1 0x20 DUP6 LT ISZERO PUSH2 0xB0C JUMPI DUP2 SWAP1 POP JUMPDEST PUSH2 0xB20 PUSH2 0xB18 DUP6 PUSH2 0x9E0 JUMP JUMPDEST DUP4 ADD DUP3 PUSH2 0xAC0 JUMP JUMPDEST POP POP JUMPDEST POP POP POP JUMP JUMPDEST PUSH0 DUP3 DUP3 SHR SWAP1 POP SWAP3 SWAP2 POP POP JUMP JUMPDEST PUSH0 PUSH2 0xB43 PUSH0 NOT DUP5 PUSH1 0x8 MUL PUSH2 0xB28 JUMP JUMPDEST NOT DUP1 DUP4 AND SWAP2 POP POP SWAP3 SWAP2 POP POP JUMP JUMPDEST PUSH0 PUSH2 0xB5B DUP4 DUP4 PUSH2 0xB34 JUMP JUMPDEST SWAP2 POP DUP3 PUSH1 0x2 MUL DUP3 OR SWAP1 POP SWAP3 SWAP2 POP POP JUMP JUMPDEST PUSH2 0xB74 DUP3 PUSH2 0x722 JUMP JUMPDEST PUSH8 0xFFFFFFFFFFFFFFFF DUP2 GT ISZERO PUSH2 0xB8D JUMPI PUSH2 0xB8C PUSH2 0x9A1 JUMP JUMPDEST JUMPDEST PUSH2 0xB97 DUP3 SLOAD PUSH2 0x909 JUMP JUMPDEST PUSH2 0xBA2 DUP3 DUP3 DUP6 PUSH2 0xAE2 JUMP JUMPDEST PUSH0 PUSH1 0x20 SWAP1 POP PUSH1 0x1F DUP4 GT PUSH1 0x1 DUP2 EQ PUSH2 0xBD3 JUMPI PUSH0 DUP5 ISZERO PUSH2 0xBC1 JUMPI DUP3 DUP8 ADD MLOAD SWAP1 POP JUMPDEST PUSH2 0xBCB DUP6 DUP3 PUSH2 0xB50 JUMP JUMPDEST DUP7 SSTORE POP PUSH2 0xC32 JUMP JUMPDEST PUSH1 0x1F NOT DUP5 AND PUSH2 0xBE1 DUP7 PUSH2 0x9CE JUMP JUMPDEST PUSH0 JUMPDEST DUP3 DUP2 LT ISZERO PUSH2 0xC08 JUMPI DUP5 DUP10 ADD MLOAD DUP3 SSTORE PUSH1 0x1 DUP3 ADD SWAP2 POP PUSH1 0x20 DUP6 ADD SWAP5 POP PUSH1 0x20 DUP2 ADD SWAP1 POP PUSH2 0xBE3 JUMP JUMPDEST DUP7 DUP4 LT ISZERO PUSH2 0xC25 JUMPI DUP5 DUP10 ADD MLOAD PUSH2 0xC21 PUSH1 0x1F DUP10 AND DUP3 PUSH2 0xB34 JUMP JUMPDEST DUP4 SSTORE POP JUMPDEST PUSH1 0x1 PUSH1 0x2 DUP9 MUL ADD DUP9 SSTORE POP POP POP JUMPDEST POP POP POP POP POP POP JUMP JUMPDEST PUSH32 0x546869732070726F6475637420646F65736E2774206578697374000000000000 PUSH0 DUP3 ADD MSTORE POP JUMP JUMPDEST PUSH0 PUSH2 0xC6E PUSH1 0x1A DUP4 PUSH2 0x72C JUMP JUMPDEST SWAP2 POP PUSH2 0xC79 DUP3 PUSH2 0xC3A JUMP JUMPDEST PUSH1 0x20 DUP3 ADD SWAP1 POP SWAP2 SWAP1 POP JUMP JUMPDEST PUSH0 PUSH1 0x20 DUP3 ADD SWAP1 POP DUP2 DUP2 SUB PUSH0 DUP4 ADD MSTORE PUSH2 0xC9B DUP2 PUSH2 0xC62 JUMP JUMPDEST SWAP1 POP SWAP2 SWAP1 POP JUMP JUMPDEST PUSH32 0x4E487B7100000000000000000000000000000000000000000000000000000000 PUSH0 MSTORE PUSH1 0x11 PUSH1 0x4 MSTORE PUSH1 0x24 PUSH0 REVERT JUMPDEST PUSH0 PUSH2 0xCD9 DUP3 PUSH2 0x63E JUMP JUMPDEST SWAP2 POP PUSH2 0xCE4 DUP4 PUSH2 0x63E JUMP JUMPDEST SWAP3 POP DUP3 DUP3 SUB SWAP1 POP DUP2 DUP2 GT ISZERO PUSH2 0xCFC JUMPI PUSH2 0xCFB PUSH2 0xCA2 JUMP JUMPDEST JUMPDEST SWAP3 SWAP2 POP POP JUMP JUMPDEST PUSH32 0x4E487B7100000000000000000000000000000000000000000000000000000000 PUSH0 MSTORE PUSH1 0x32 PUSH1 0x4 MSTORE PUSH1 0x24 PUSH0 REVERT JUMPDEST PUSH0 PUSH2 0xD39 DUP3 PUSH2 0x63E JUMP JUMPDEST SWAP2 POP PUSH2 0xD44 DUP4 PUSH2 0x63E JUMP JUMPDEST SWAP3 POP DUP3 DUP3 ADD SWAP1 POP DUP1 DUP3 GT ISZERO PUSH2 0xD5C JUMPI PUSH2 0xD5B PUSH2 0xCA2 JUMP JUMPDEST JUMPDEST SWAP3 SWAP2 POP POP JUMP JUMPDEST PUSH32 0x5468652070726F6475637420686173206E6F206D6F7265207374657073000000 PUSH0 DUP3 ADD MSTORE POP JUMP JUMPDEST PUSH0 PUSH2 0xD96 PUSH1 0x1D DUP4 PUSH2 0x72C JUMP JUMPDEST SWAP2 POP PUSH2 0xDA1 DUP3 PUSH2 0xD62 JUMP JUMPDEST PUSH1 0x20 DUP3 ADD SWAP1 POP SWAP2 SWAP1 POP JUMP JUMPDEST PUSH0 PUSH1 0x20 DUP3 ADD SWAP1 POP DUP2 DUP2 SUB PUSH0 DUP4 ADD MSTORE PUSH2 0xDC3 DUP2 PUSH2 0xD8A JUMP JUMPDEST SWAP1 POP SWAP2 SWAP1 POP JUMP JUMPDEST PUSH2 0xDD3 DUP2 PUSH2 0x63E JUMP JUMPDEST DUP3 MSTORE POP POP JUMP JUMPDEST DUP3 DUP2 DUP4 CALLDATACOPY PUSH0 DUP4 DUP4 ADD MSTORE POP POP POP JUMP JUMPDEST PUSH0 PUSH2 0xDF2 DUP4 DUP6 PUSH2 0x72C JUMP JUMPDEST SWAP4 POP PUSH2 0xDFF DUP4 DUP6 DUP5 PUSH2 0xDD9 JUMP JUMPDEST PUSH2 0xE08 DUP4 PUSH2 0x74A JUMP JUMPDEST DUP5 ADD SWAP1 POP SWAP4 SWAP3 POP POP POP JUMP JUMPDEST PUSH0 PUSH20 0xFFFFFFFFFFFFFFFFFFFFFFFFFFFFFFFFFFFFFFFF DUP3 AND SWAP1 POP SWAP2 SWAP1 POP JUMP JUMPDEST PUSH0 PUSH2 0xE3C DUP3 PUSH2 0xE13 JUMP JUMPDEST SWAP1 POP SWAP2 SWAP1 POP JUMP JUMPDEST PUSH2 0xE4C DUP2 PUSH2 0xE32 JUMP JUMPDEST DUP3 MSTORE POP POP JUMP JUMPDEST PUSH0 PUSH1 0x80 DUP3 ADD SWAP1 POP PUSH2 0xE65 PUSH0 DUP4 ADD DUP9 PUSH2 0xDCA JUMP JUMPDEST PUSH2 0xE72 PUSH1 0x20 DUP4 ADD DUP8 PUSH2 0x713 JUMP JUMPDEST DUP2 DUP2 SUB PUSH1 0x40 DUP4 ADD MSTORE PUSH2 0xE85 DUP2 DUP6 DUP8 PUSH2 0xDE7 JUMP JUMPDEST SWAP1 POP PUSH2 0xE94 PUSH1 0x60 DUP4 ADD DUP5 PUSH2 0xE43 JUMP JUMPDEST SWAP7 SWAP6 POP POP POP POP POP POP JUMP INVALID LOG2 PUSH5 0x6970667358 0x22 SLT KECCAK256 SWAP8 0xE SDIV 0xD9 0xA6 0xA5 SGT SWAP11 DUP10 0xB9 ADDMOD 0xE4 PUSH22 0xE6A112B710E47EE40D64E6CD5BA207EC3BE12F64736F PUSH13 0x63430008190033000000000000 "
				},
				"gasEstimates": {
					"creation": {
						"codeDepositCost": "759200",
						"executionCost": "790",
						"totalCost": "759990"
					},
					"external": {
						"products(uint256,uint256)": "infinite",
						"registerProduct(uint256)": "infinite",
						"registerStep(uint256,string)": "infinite"
					}
				},
				"methodIdentifiers": {
					"products(uint256,uint256)": "a590fbdb",
					"registerProduct(uint256)": "c08e0f96",
					"registerStep(uint256,string)": "d21cb5f1"
				}
			},
			"storageLayout": {
				"storage": [
					{
						"astId": 30,
						"contract": "contracts/SupplyChain.sol:SupplyChain",
						"label": "products",
						"offset": 0,
						"slot": "0",
						"type": "t_mapping(t_uint256,t_array(t_struct(Step)7_storage)dyn_storage)"
					}
				],
				"types": {
					"t_array(t_struct(Step)7_storage)dyn_storage": {
						"base": "t_struct(Step)7_storage",
						"encoding": "dynamic_array",
						"label": "struct SupplyChain.Step[]",
						"numberOfBytes": "32"
					},
					"t_enum(Status)13": {
						"encoding": "inplace",
						"label": "enum SupplyChain.Status",
						"numberOfBytes": "1"
					},
					"t_mapping(t_uint256,t_array(t_struct(Step)7_storage)dyn_storage)": {
						"encoding": "mapping",
						"key": "t_uint256",
						"label": "mapping(uint256 => struct SupplyChain.Step[])",
						"numberOfBytes": "32",
						"value": "t_array(t_struct(Step)7_storage)dyn_storage"
					},
					"t_string_storage": {
						"encoding": "bytes",
						"label": "string",
						"numberOfBytes": "32"
					},
					"t_struct(Step)7_storage": {
						"encoding": "inplace",
						"label": "struct SupplyChain.Step",
						"members": [
							{
								"astId": 4,
								"contract": "contracts/SupplyChain.sol:SupplyChain",
								"label": "status",
								"offset": 0,
								"slot": "0",
								"type": "t_enum(Status)13"
							},
							{
								"astId": 6,
								"contract": "contracts/SupplyChain.sol:SupplyChain",
								"label": "metadata",
								"offset": 0,
								"slot": "1",
								"type": "t_string_storage"
							}
						],
						"numberOfBytes": "64"
					},
					"t_uint256": {
						"encoding": "inplace",
						"label": "uint256",
						"numberOfBytes": "32"
					}
				}
			},
			"userdoc": {
				"kind": "user",
				"methods": {},
				"version": 1
			}
		}
	}
}