{
	"contracts/Indetity.sol": {
		"Identity": {
			"abi": [
				{
					"inputs": [
						{
							"internalType": "string",
							"name": "name",
							"type": "string"
						},
						{
							"internalType": "string",
							"name": "email",
							"type": "string"
						},
						{
							"internalType": "uint256",
							"name": "salary",
							"type": "uint256"
						},
						{
							"internalType": "string",
							"name": "_address",
							"type": "string"
						}
					],
					"stateMutability": "nonpayable",
					"type": "constructor"
				},
				{
					"inputs": [
						{
							"internalType": "address",
							"name": "user",
							"type": "address"
						},
						{
							"internalType": "enum Identity.UserType",
							"name": "userType",
							"type": "uint8"
						}
					],
					"name": "UserUnauthorized",
					"type": "error"
				},
				{
					"inputs": [],
					"name": "getBasicInfo",
					"outputs": [
						{
							"components": [
								{
									"internalType": "string",
									"name": "name",
									"type": "string"
								},
								{
									"internalType": "string",
									"name": "email",
									"type": "string"
								}
							],
							"internalType": "struct Identity.BasicInfo",
							"name": "",
							"type": "tuple"
						}
					],
					"stateMutability": "view",
					"type": "function"
				},
				{
					"inputs": [],
					"name": "getPersonalInfo",
					"outputs": [
						{
							"components": [
								{
									"internalType": "uint256",
									"name": "salary",
									"type": "uint256"
								},
								{
									"internalType": "string",
									"name": "_address",
									"type": "string"
								}
							],
							"internalType": "struct Identity.PersonalInfo",
							"name": "",
							"type": "tuple"
						}
					],
					"stateMutability": "view",
					"type": "function"
				},
				{
					"inputs": [
						{
							"internalType": "enum Identity.UserType",
							"name": "userType",
							"type": "uint8"
						},
						{
							"internalType": "address",
							"name": "user",
							"type": "address"
						}
					],
					"name": "registerUser",
					"outputs": [],
					"stateMutability": "nonpayable",
					"type": "function"
				}
			],
			"devdoc": {
				"kind": "dev",
				"methods": {},
				"version": 1
			},
			"evm": {
				"assembly": "    /* \"contracts/Indetity.sol\":74:2182  contract Identity {... */\n  mstore(0x40, 0x80)\n    /* \"contracts/Indetity.sol\":778:1009  constructor(string memory name, string memory email, uint256 salary, string memory _address) {... */\n  callvalue\n  dup1\n  iszero\n  tag_1\n  jumpi\n  0x00\n  dup1\n  revert\ntag_1:\n  pop\n  mload(0x40)\n  sub(codesize, bytecodeSize)\n  dup1\n  bytecodeSize\n  dup4\n  codecopy\n  dup2\n  dup2\n  add\n  0x40\n  mstore\n  dup2\n  add\n  swap1\n  tag_2\n  swap2\n  swap1\n  tag_3\n  jump\t// in\ntag_2:\n    /* \"contracts/Indetity.sol\":894:916  BasicInfo(name, email) */\n  mload(0x40)\n  dup1\n  0x40\n  add\n  0x40\n  mstore\n  dup1\n    /* \"contracts/Indetity.sol\":904:908  name */\n  dup6\n    /* \"contracts/Indetity.sol\":894:916  BasicInfo(name, email) */\n  dup2\n  mstore\n  0x20\n  add\n    /* \"contracts/Indetity.sol\":910:915  email */\n  dup5\n    /* \"contracts/Indetity.sol\":894:916  BasicInfo(name, email) */\n  dup2\n  mstore\n  pop\n    /* \"contracts/Indetity.sol\":882:891  basicInfo */\n  0x00\n    /* \"contracts/Indetity.sol\":882:916  basicInfo = BasicInfo(name, email) */\n  dup1\n  dup3\n  add\n  mload\n  dup2\n  0x00\n  add\n  swap1\n  dup2\n  tag_6\n  swap2\n  swap1\n  tag_7\n  jump\t// in\ntag_6:\n  pop\n  0x20\n  dup3\n  add\n  mload\n  dup2\n  0x01\n  add\n  swap1\n  dup2\n  tag_8\n  swap2\n  swap1\n  tag_7\n  jump\t// in\ntag_8:\n  pop\n  swap1\n  pop\n  pop\n    /* \"contracts/Indetity.sol\":942:972  PersonalInfo(salary, _address) */\n  mload(0x40)\n  dup1\n  0x40\n  add\n  0x40\n  mstore\n  dup1\n    /* \"contracts/Indetity.sol\":955:961  salary */\n  dup4\n    /* \"contracts/Indetity.sol\":942:972  PersonalInfo(salary, _address) */\n  dup2\n  mstore\n  0x20\n  add\n    /* \"contracts/Indetity.sol\":963:971  _address */\n  dup3\n    /* \"contracts/Indetity.sol\":942:972  PersonalInfo(salary, _address) */\n  dup2\n  mstore\n  pop\n    /* \"contracts/Indetity.sol\":927:939  personalInfo */\n  0x02\n    /* \"contracts/Indetity.sol\":927:972  personalInfo = PersonalInfo(salary, _address) */\n  0x00\n  dup3\n  add\n  mload\n  dup2\n  0x00\n  add\n  sstore\n  0x20\n  dup3\n  add\n  mload\n  dup2\n  0x01\n  add\n  swap1\n  dup2\n  tag_9\n  swap2\n  swap1\n  tag_7\n  jump\t// in\ntag_9:\n  pop\n  swap1\n  pop\n  pop\n    /* \"contracts/Indetity.sol\":991:1001  msg.sender */\n  caller\n    /* \"contracts/Indetity.sol\":983:988  owner */\n  0x04\n  0x00\n    /* \"contracts/Indetity.sol\":983:1001  owner = msg.sender */\n  0x0100\n  exp\n  dup2\n  sload\n  dup2\n  0xffffffffffffffffffffffffffffffffffffffff\n  mul\n  not\n  and\n  swap1\n  dup4\n  0xffffffffffffffffffffffffffffffffffffffff\n  and\n  mul\n  or\n  swap1\n  sstore\n  pop\n    /* \"contracts/Indetity.sol\":778:1009  constructor(string memory name, string memory email, uint256 salary, string memory _address) {... */\n  pop\n  pop\n  pop\n  pop\n    /* \"contracts/Indetity.sol\":74:2182  contract Identity {... */\n  jump(tag_10)\n    /* \"#utility.yul\":7:82   */\ntag_11:\n    /* \"#utility.yul\":40:46   */\n  0x00\n    /* \"#utility.yul\":73:75   */\n  0x40\n    /* \"#utility.yul\":67:76   */\n  mload\n    /* \"#utility.yul\":57:76   */\n  swap1\n  pop\n    /* \"#utility.yul\":7:82   */\n  swap1\n  jump\t// out\n    /* \"#utility.yul\":88:205   */\ntag_12:\n    /* \"#utility.yul\":197:198   */\n  0x00\n    /* \"#utility.yul\":194:195   */\n  dup1\n    /* \"#utility.yul\":187:199   */\n  revert\n    /* \"#utility.yul\":211:328   */\ntag_13:\n    /* \"#utility.yul\":320:321   */\n  0x00\n    /* \"#utility.yul\":317:318   */\n  dup1\n    /* \"#utility.yul\":310:322   */\n  revert\n    /* \"#utility.yul\":334:451   */\ntag_14:\n    /* \"#utility.yul\":443:444   */\n  0x00\n    /* \"#utility.yul\":440:441   */\n  dup1\n    /* \"#utility.yul\":433:445   */\n  revert\n    /* \"#utility.yul\":457:574   */\ntag_15:\n    /* \"#utility.yul\":566:567   */\n  0x00\n    /* \"#utility.yul\":563:564   */\n  dup1\n    /* \"#utility.yul\":556:568   */\n  revert\n    /* \"#utility.yul\":580:682   */\ntag_16:\n    /* \"#utility.yul\":621:627   */\n  0x00\n    /* \"#utility.yul\":672:674   */\n  0x1f\n    /* \"#utility.yul\":668:675   */\n  not\n    /* \"#utility.yul\":663:665   */\n  0x1f\n    /* \"#utility.yul\":656:661   */\n  dup4\n    /* \"#utility.yul\":652:666   */\n  add\n    /* \"#utility.yul\":648:676   */\n  and\n    /* \"#utility.yul\":638:676   */\n  swap1\n  pop\n    /* \"#utility.yul\":580:682   */\n  swap2\n  swap1\n  pop\n  jump\t// out\n    /* \"#utility.yul\":688:868   */\ntag_17:\n    /* \"#utility.yul\":736:813   */\n  0x4e487b7100000000000000000000000000000000000000000000000000000000\n    /* \"#utility.yul\":733:734   */\n  0x00\n    /* \"#utility.yul\":726:814   */\n  mstore\n    /* \"#utility.yul\":833:837   */\n  0x41\n    /* \"#utility.yul\":830:831   */\n  0x04\n    /* \"#utility.yul\":823:838   */\n  mstore\n    /* \"#utility.yul\":857:861   */\n  0x24\n    /* \"#utility.yul\":854:855   */\n  0x00\n    /* \"#utility.yul\":847:862   */\n  revert\n    /* \"#utility.yul\":874:1155   */\ntag_18:\n    /* \"#utility.yul\":957:984   */\n  tag_54\n    /* \"#utility.yul\":979:983   */\n  dup3\n    /* \"#utility.yul\":957:984   */\n  tag_16\n  jump\t// in\ntag_54:\n    /* \"#utility.yul\":949:955   */\n  dup2\n    /* \"#utility.yul\":945:985   */\n  add\n    /* \"#utility.yul\":1087:1093   */\n  dup2\n    /* \"#utility.yul\":1075:1085   */\n  dup2\n    /* \"#utility.yul\":1072:1094   */\n  lt\n    /* \"#utility.yul\":1051:1069   */\n  0xffffffffffffffff\n    /* \"#utility.yul\":1039:1049   */\n  dup3\n    /* \"#utility.yul\":1036:1070   */\n  gt\n    /* \"#utility.yul\":1033:1095   */\n  or\n    /* \"#utility.yul\":1030:1118   */\n  iszero\n  tag_55\n  jumpi\n    /* \"#utility.yul\":1098:1116   */\n  tag_56\n  tag_17\n  jump\t// in\ntag_56:\n    /* \"#utility.yul\":1030:1118   */\ntag_55:\n    /* \"#utility.yul\":1138:1148   */\n  dup1\n    /* \"#utility.yul\":1134:1136   */\n  0x40\n    /* \"#utility.yul\":1127:1149   */\n  mstore\n    /* \"#utility.yul\":917:1155   */\n  pop\n    /* \"#utility.yul\":874:1155   */\n  pop\n  pop\n  jump\t// out\n    /* \"#utility.yul\":1161:1290   */\ntag_19:\n    /* \"#utility.yul\":1195:1201   */\n  0x00\n    /* \"#utility.yul\":1222:1242   */\n  tag_58\n  tag_11\n  jump\t// in\ntag_58:\n    /* \"#utility.yul\":1212:1242   */\n  swap1\n  pop\n    /* \"#utility.yul\":1251:1284   */\n  tag_59\n    /* \"#utility.yul\":1279:1283   */\n  dup3\n    /* \"#utility.yul\":1271:1277   */\n  dup3\n    /* \"#utility.yul\":1251:1284   */\n  tag_18\n  jump\t// in\ntag_59:\n    /* \"#utility.yul\":1161:1290   */\n  swap2\n  swap1\n  pop\n  jump\t// out\n    /* \"#utility.yul\":1296:1604   */\ntag_20:\n    /* \"#utility.yul\":1358:1362   */\n  0x00\n    /* \"#utility.yul\":1448:1466   */\n  0xffffffffffffffff\n    /* \"#utility.yul\":1440:1446   */\n  dup3\n    /* \"#utility.yul\":1437:1467   */\n  gt\n    /* \"#utility.yul\":1434:1490   */\n  iszero\n  tag_61\n  jumpi\n    /* \"#utility.yul\":1470:1488   */\n  tag_62\n  tag_17\n  jump\t// in\ntag_62:\n    /* \"#utility.yul\":1434:1490   */\ntag_61:\n    /* \"#utility.yul\":1508:1537   */\n  tag_63\n    /* \"#utility.yul\":1530:1536   */\n  dup3\n    /* \"#utility.yul\":1508:1537   */\n  tag_16\n  jump\t// in\ntag_63:\n    /* \"#utility.yul\":1500:1537   */\n  swap1\n  pop\n    /* \"#utility.yul\":1592:1596   */\n  0x20\n    /* \"#utility.yul\":1586:1590   */\n  dup2\n    /* \"#utility.yul\":1582:1597   */\n  add\n    /* \"#utility.yul\":1574:1597   */\n  swap1\n  pop\n    /* \"#utility.yul\":1296:1604   */\n  swap2\n  swap1\n  pop\n  jump\t// out\n    /* \"#utility.yul\":1610:1749   */\ntag_21:\n    /* \"#utility.yul\":1699:1705   */\n  dup3\n    /* \"#utility.yul\":1694:1697   */\n  dup2\n    /* \"#utility.yul\":1689:1692   */\n  dup4\n    /* \"#utility.yul\":1683:1706   */\n  mcopy\n    /* \"#utility.yul\":1740:1741   */\n  0x00\n    /* \"#utility.yul\":1731:1737   */\n  dup4\n    /* \"#utility.yul\":1726:1729   */\n  dup4\n    /* \"#utility.yul\":1722:1738   */\n  add\n    /* \"#utility.yul\":1715:1742   */\n  mstore\n    /* \"#utility.yul\":1610:1749   */\n  pop\n  pop\n  pop\n  jump\t// out\n    /* \"#utility.yul\":1755:2189   */\ntag_22:\n    /* \"#utility.yul\":1844:1849   */\n  0x00\n    /* \"#utility.yul\":1869:1935   */\n  tag_66\n    /* \"#utility.yul\":1885:1934   */\n  tag_67\n    /* \"#utility.yul\":1927:1933   */\n  dup5\n    /* \"#utility.yul\":1885:1934   */\n  tag_20\n  jump\t// in\ntag_67:\n    /* \"#utility.yul\":1869:1935   */\n  tag_19\n  jump\t// in\ntag_66:\n    /* \"#utility.yul\":1860:1935   */\n  swap1\n  pop\n    /* \"#utility.yul\":1958:1964   */\n  dup3\n    /* \"#utility.yul\":1951:1956   */\n  dup2\n    /* \"#utility.yul\":1944:1965   */\n  mstore\n    /* \"#utility.yul\":1996:2000   */\n  0x20\n    /* \"#utility.yul\":1989:1994   */\n  dup2\n    /* \"#utility.yul\":1985:2001   */\n  add\n    /* \"#utility.yul\":2034:2037   */\n  dup5\n    /* \"#utility.yul\":2025:2031   */\n  dup5\n    /* \"#utility.yul\":2020:2023   */\n  dup5\n    /* \"#utility.yul\":2016:2032   */\n  add\n    /* \"#utility.yul\":2013:2038   */\n  gt\n    /* \"#utility.yul\":2010:2122   */\n  iszero\n  tag_68\n  jumpi\n    /* \"#utility.yul\":2041:2120   */\n  tag_69\n  tag_15\n  jump\t// in\ntag_69:\n    /* \"#utility.yul\":2010:2122   */\ntag_68:\n    /* \"#utility.yul\":2131:2183   */\n  tag_70\n    /* \"#utility.yul\":2176:2182   */\n  dup5\n    /* \"#utility.yul\":2171:2174   */\n  dup3\n    /* \"#utility.yul\":2166:2169   */\n  dup6\n    /* \"#utility.yul\":2131:2183   */\n  tag_21\n  jump\t// in\ntag_70:\n    /* \"#utility.yul\":1850:2189   */\n  pop\n    /* \"#utility.yul\":1755:2189   */\n  swap4\n  swap3\n  pop\n  pop\n  pop\n  jump\t// out\n    /* \"#utility.yul\":2209:2564   */\ntag_23:\n    /* \"#utility.yul\":2276:2281   */\n  0x00\n    /* \"#utility.yul\":2325:2328   */\n  dup3\n    /* \"#utility.yul\":2318:2322   */\n  0x1f\n    /* \"#utility.yul\":2310:2316   */\n  dup4\n    /* \"#utility.yul\":2306:2323   */\n  add\n    /* \"#utility.yul\":2302:2329   */\n  slt\n    /* \"#utility.yul\":2292:2414   */\n  tag_72\n  jumpi\n    /* \"#utility.yul\":2333:2412   */\n  tag_73\n  tag_14\n  jump\t// in\ntag_73:\n    /* \"#utility.yul\":2292:2414   */\ntag_72:\n    /* \"#utility.yul\":2443:2449   */\n  dup2\n    /* \"#utility.yul\":2437:2450   */\n  mload\n    /* \"#utility.yul\":2468:2558   */\n  tag_74\n    /* \"#utility.yul\":2554:2557   */\n  dup5\n    /* \"#utility.yul\":2546:2552   */\n  dup3\n    /* \"#utility.yul\":2539:2543   */\n  0x20\n    /* \"#utility.yul\":2531:2537   */\n  dup7\n    /* \"#utility.yul\":2527:2544   */\n  add\n    /* \"#utility.yul\":2468:2558   */\n  tag_22\n  jump\t// in\ntag_74:\n    /* \"#utility.yul\":2459:2558   */\n  swap2\n  pop\n    /* \"#utility.yul\":2282:2564   */\n  pop\n    /* \"#utility.yul\":2209:2564   */\n  swap3\n  swap2\n  pop\n  pop\n  jump\t// out\n    /* \"#utility.yul\":2570:2647   */\ntag_24:\n    /* \"#utility.yul\":2607:2614   */\n  0x00\n    /* \"#utility.yul\":2636:2641   */\n  dup2\n    /* \"#utility.yul\":2625:2641   */\n  swap1\n  pop\n    /* \"#utility.yul\":2570:2647   */\n  swap2\n  swap1\n  pop\n  jump\t// out\n    /* \"#utility.yul\":2653:2775   */\ntag_25:\n    /* \"#utility.yul\":2726:2750   */\n  tag_77\n    /* \"#utility.yul\":2744:2749   */\n  dup2\n    /* \"#utility.yul\":2726:2750   */\n  tag_24\n  jump\t// in\ntag_77:\n    /* \"#utility.yul\":2719:2724   */\n  dup2\n    /* \"#utility.yul\":2716:2751   */\n  eq\n    /* \"#utility.yul\":2706:2769   */\n  tag_78\n  jumpi\n    /* \"#utility.yul\":2765:2766   */\n  0x00\n    /* \"#utility.yul\":2762:2763   */\n  dup1\n    /* \"#utility.yul\":2755:2767   */\n  revert\n    /* \"#utility.yul\":2706:2769   */\ntag_78:\n    /* \"#utility.yul\":2653:2775   */\n  pop\n  jump\t// out\n    /* \"#utility.yul\":2781:2924   */\ntag_26:\n    /* \"#utility.yul\":2838:2843   */\n  0x00\n    /* \"#utility.yul\":2869:2875   */\n  dup2\n    /* \"#utility.yul\":2863:2876   */\n  mload\n    /* \"#utility.yul\":2854:2876   */\n  swap1\n  pop\n    /* \"#utility.yul\":2885:2918   */\n  tag_80\n    /* \"#utility.yul\":2912:2917   */\n  dup2\n    /* \"#utility.yul\":2885:2918   */\n  tag_25\n  jump\t// in\ntag_80:\n    /* \"#utility.yul\":2781:2924   */\n  swap3\n  swap2\n  pop\n  pop\n  jump\t// out\n    /* \"#utility.yul\":2930:4269   */\ntag_3:\n    /* \"#utility.yul\":3057:3063   */\n  0x00\n    /* \"#utility.yul\":3065:3071   */\n  dup1\n    /* \"#utility.yul\":3073:3079   */\n  0x00\n    /* \"#utility.yul\":3081:3087   */\n  dup1\n    /* \"#utility.yul\":3130:3133   */\n  0x80\n    /* \"#utility.yul\":3118:3127   */\n  dup6\n    /* \"#utility.yul\":3109:3116   */\n  dup8\n    /* \"#utility.yul\":3105:3128   */\n  sub\n    /* \"#utility.yul\":3101:3134   */\n  slt\n    /* \"#utility.yul\":3098:3218   */\n  iszero\n  tag_82\n  jumpi\n    /* \"#utility.yul\":3137:3216   */\n  tag_83\n  tag_12\n  jump\t// in\ntag_83:\n    /* \"#utility.yul\":3098:3218   */\ntag_82:\n    /* \"#utility.yul\":3278:3279   */\n  0x00\n    /* \"#utility.yul\":3267:3276   */\n  dup6\n    /* \"#utility.yul\":3263:3280   */\n  add\n    /* \"#utility.yul\":3257:3281   */\n  mload\n    /* \"#utility.yul\":3308:3326   */\n  0xffffffffffffffff\n    /* \"#utility.yul\":3300:3306   */\n  dup2\n    /* \"#utility.yul\":3297:3327   */\n  gt\n    /* \"#utility.yul\":3294:3411   */\n  iszero\n  tag_84\n  jumpi\n    /* \"#utility.yul\":3330:3409   */\n  tag_85\n  tag_13\n  jump\t// in\ntag_85:\n    /* \"#utility.yul\":3294:3411   */\ntag_84:\n    /* \"#utility.yul\":3435:3509   */\n  tag_86\n    /* \"#utility.yul\":3501:3508   */\n  dup8\n    /* \"#utility.yul\":3492:3498   */\n  dup3\n    /* \"#utility.yul\":3481:3490   */\n  dup9\n    /* \"#utility.yul\":3477:3499   */\n  add\n    /* \"#utility.yul\":3435:3509   */\n  tag_23\n  jump\t// in\ntag_86:\n    /* \"#utility.yul\":3425:3509   */\n  swap5\n  pop\n    /* \"#utility.yul\":3228:3519   */\n  pop\n    /* \"#utility.yul\":3579:3581   */\n  0x20\n    /* \"#utility.yul\":3568:3577   */\n  dup6\n    /* \"#utility.yul\":3564:3582   */\n  add\n    /* \"#utility.yul\":3558:3583   */\n  mload\n    /* \"#utility.yul\":3610:3628   */\n  0xffffffffffffffff\n    /* \"#utility.yul\":3602:3608   */\n  dup2\n    /* \"#utility.yul\":3599:3629   */\n  gt\n    /* \"#utility.yul\":3596:3713   */\n  iszero\n  tag_87\n  jumpi\n    /* \"#utility.yul\":3632:3711   */\n  tag_88\n  tag_13\n  jump\t// in\ntag_88:\n    /* \"#utility.yul\":3596:3713   */\ntag_87:\n    /* \"#utility.yul\":3737:3811   */\n  tag_89\n    /* \"#utility.yul\":3803:3810   */\n  dup8\n    /* \"#utility.yul\":3794:3800   */\n  dup3\n    /* \"#utility.yul\":3783:3792   */\n  dup9\n    /* \"#utility.yul\":3779:3801   */\n  add\n    /* \"#utility.yul\":3737:3811   */\n  tag_23\n  jump\t// in\ntag_89:\n    /* \"#utility.yul\":3727:3811   */\n  swap4\n  pop\n    /* \"#utility.yul\":3529:3821   */\n  pop\n    /* \"#utility.yul\":3860:3862   */\n  0x40\n    /* \"#utility.yul\":3886:3950   */\n  tag_90\n    /* \"#utility.yul\":3942:3949   */\n  dup8\n    /* \"#utility.yul\":3933:3939   */\n  dup3\n    /* \"#utility.yul\":3922:3931   */\n  dup9\n    /* \"#utility.yul\":3918:3940   */\n  add\n    /* \"#utility.yul\":3886:3950   */\n  tag_26\n  jump\t// in\ntag_90:\n    /* \"#utility.yul\":3876:3950   */\n  swap3\n  pop\n    /* \"#utility.yul\":3831:3960   */\n  pop\n    /* \"#utility.yul\":4020:4022   */\n  0x60\n    /* \"#utility.yul\":4009:4018   */\n  dup6\n    /* \"#utility.yul\":4005:4023   */\n  add\n    /* \"#utility.yul\":3999:4024   */\n  mload\n    /* \"#utility.yul\":4051:4069   */\n  0xffffffffffffffff\n    /* \"#utility.yul\":4043:4049   */\n  dup2\n    /* \"#utility.yul\":4040:4070   */\n  gt\n    /* \"#utility.yul\":4037:4154   */\n  iszero\n  tag_91\n  jumpi\n    /* \"#utility.yul\":4073:4152   */\n  tag_92\n  tag_13\n  jump\t// in\ntag_92:\n    /* \"#utility.yul\":4037:4154   */\ntag_91:\n    /* \"#utility.yul\":4178:4252   */\n  tag_93\n    /* \"#utility.yul\":4244:4251   */\n  dup8\n    /* \"#utility.yul\":4235:4241   */\n  dup3\n    /* \"#utility.yul\":4224:4233   */\n  dup9\n    /* \"#utility.yul\":4220:4242   */\n  add\n    /* \"#utility.yul\":4178:4252   */\n  tag_23\n  jump\t// in\ntag_93:\n    /* \"#utility.yul\":4168:4252   */\n  swap2\n  pop\n    /* \"#utility.yul\":3970:4262   */\n  pop\n    /* \"#utility.yul\":2930:4269   */\n  swap3\n  swap6\n  swap2\n  swap5\n  pop\n  swap3\n  pop\n  jump\t// out\n    /* \"#utility.yul\":4275:4374   */\ntag_27:\n    /* \"#utility.yul\":4327:4333   */\n  0x00\n    /* \"#utility.yul\":4361:4366   */\n  dup2\n    /* \"#utility.yul\":4355:4367   */\n  mload\n    /* \"#utility.yul\":4345:4367   */\n  swap1\n  pop\n    /* \"#utility.yul\":4275:4374   */\n  swap2\n  swap1\n  pop\n  jump\t// out\n    /* \"#utility.yul\":4380:4560   */\ntag_28:\n    /* \"#utility.yul\":4428:4505   */\n  0x4e487b7100000000000000000000000000000000000000000000000000000000\n    /* \"#utility.yul\":4425:4426   */\n  0x00\n    /* \"#utility.yul\":4418:4506   */\n  mstore\n    /* \"#utility.yul\":4525:4529   */\n  0x22\n    /* \"#utility.yul\":4522:4523   */\n  0x04\n    /* \"#utility.yul\":4515:4530   */\n  mstore\n    /* \"#utility.yul\":4549:4553   */\n  0x24\n    /* \"#utility.yul\":4546:4547   */\n  0x00\n    /* \"#utility.yul\":4539:4554   */\n  revert\n    /* \"#utility.yul\":4566:4886   */\ntag_29:\n    /* \"#utility.yul\":4610:4616   */\n  0x00\n    /* \"#utility.yul\":4647:4648   */\n  0x02\n    /* \"#utility.yul\":4641:4645   */\n  dup3\n    /* \"#utility.yul\":4637:4649   */\n  div\n    /* \"#utility.yul\":4627:4649   */\n  swap1\n  pop\n    /* \"#utility.yul\":4694:4695   */\n  0x01\n    /* \"#utility.yul\":4688:4692   */\n  dup3\n    /* \"#utility.yul\":4684:4696   */\n  and\n    /* \"#utility.yul\":4715:4733   */\n  dup1\n    /* \"#utility.yul\":4705:4786   */\n  tag_97\n  jumpi\n    /* \"#utility.yul\":4771:4775   */\n  0x7f\n    /* \"#utility.yul\":4763:4769   */\n  dup3\n    /* \"#utility.yul\":4759:4776   */\n  and\n    /* \"#utility.yul\":4749:4776   */\n  swap2\n  pop\n    /* \"#utility.yul\":4705:4786   */\ntag_97:\n    /* \"#utility.yul\":4833:4835   */\n  0x20\n    /* \"#utility.yul\":4825:4831   */\n  dup3\n    /* \"#utility.yul\":4822:4836   */\n  lt\n    /* \"#utility.yul\":4802:4820   */\n  dup2\n    /* \"#utility.yul\":4799:4837   */\n  sub\n    /* \"#utility.yul\":4796:4880   */\n  tag_98\n  jumpi\n    /* \"#utility.yul\":4852:4870   */\n  tag_99\n  tag_28\n  jump\t// in\ntag_99:\n    /* \"#utility.yul\":4796:4880   */\ntag_98:\n    /* \"#utility.yul\":4617:4886   */\n  pop\n    /* \"#utility.yul\":4566:4886   */\n  swap2\n  swap1\n  pop\n  jump\t// out\n    /* \"#utility.yul\":4892:5033   */\ntag_30:\n    /* \"#utility.yul\":4941:4945   */\n  0x00\n    /* \"#utility.yul\":4964:4967   */\n  dup2\n    /* \"#utility.yul\":4956:4967   */\n  swap1\n  pop\n    /* \"#utility.yul\":4987:4990   */\n  dup2\n    /* \"#utility.yul\":4984:4985   */\n  0x00\n    /* \"#utility.yul\":4977:4991   */\n  mstore\n    /* \"#utility.yul\":5021:5025   */\n  0x20\n    /* \"#utility.yul\":5018:5019   */\n  0x00\n    /* \"#utility.yul\":5008:5026   */\n  keccak256\n    /* \"#utility.yul\":5000:5026   */\n  swap1\n  pop\n    /* \"#utility.yul\":4892:5033   */\n  swap2\n  swap1\n  pop\n  jump\t// out\n    /* \"#utility.yul\":5039:5132   */\ntag_31:\n    /* \"#utility.yul\":5076:5082   */\n  0x00\n    /* \"#utility.yul\":5123:5125   */\n  0x20\n    /* \"#utility.yul\":5118:5120   */\n  0x1f\n    /* \"#utility.yul\":5111:5116   */\n  dup4\n    /* \"#utility.yul\":5107:5121   */\n  add\n    /* \"#utility.yul\":5103:5126   */\n  div\n    /* \"#utility.yul\":5093:5126   */\n  swap1\n  pop\n    /* \"#utility.yul\":5039:5132   */\n  swap2\n  swap1\n  pop\n  jump\t// out\n    /* \"#utility.yul\":5138:5245   */\ntag_32:\n    /* \"#utility.yul\":5182:5190   */\n  0x00\n    /* \"#utility.yul\":5232:5237   */\n  dup3\n    /* \"#utility.yul\":5226:5230   */\n  dup3\n    /* \"#utility.yul\":5222:5238   */\n  shl\n    /* \"#utility.yul\":5201:5238   */\n  swap1\n  pop\n    /* \"#utility.yul\":5138:5245   */\n  swap3\n  swap2\n  pop\n  pop\n  jump\t// out\n    /* \"#utility.yul\":5251:5644   */\ntag_33:\n    /* \"#utility.yul\":5320:5326   */\n  0x00\n    /* \"#utility.yul\":5370:5371   */\n  0x08\n    /* \"#utility.yul\":5358:5368   */\n  dup4\n    /* \"#utility.yul\":5354:5372   */\n  mul\n    /* \"#utility.yul\":5393:5490   */\n  tag_104\n    /* \"#utility.yul\":5423:5489   */\n  0xffffffffffffffffffffffffffffffffffffffffffffffffffffffffffffffff\n    /* \"#utility.yul\":5412:5421   */\n  dup3\n    /* \"#utility.yul\":5393:5490   */\n  tag_32\n  jump\t// in\ntag_104:\n    /* \"#utility.yul\":5511:5550   */\n  tag_105\n    /* \"#utility.yul\":5541:5549   */\n  dup7\n    /* \"#utility.yul\":5530:5539   */\n  dup4\n    /* \"#utility.yul\":5511:5550   */\n  tag_32\n  jump\t// in\ntag_105:\n    /* \"#utility.yul\":5499:5550   */\n  swap6\n  pop\n    /* \"#utility.yul\":5583:5587   */\n  dup1\n    /* \"#utility.yul\":5579:5588   */\n  not\n    /* \"#utility.yul\":5572:5577   */\n  dup5\n    /* \"#utility.yul\":5568:5589   */\n  and\n    /* \"#utility.yul\":5559:5589   */\n  swap4\n  pop\n    /* \"#utility.yul\":5632:5636   */\n  dup1\n    /* \"#utility.yul\":5622:5630   */\n  dup7\n    /* \"#utility.yul\":5618:5637   */\n  and\n    /* \"#utility.yul\":5611:5616   */\n  dup5\n    /* \"#utility.yul\":5608:5638   */\n  or\n    /* \"#utility.yul\":5598:5638   */\n  swap3\n  pop\n    /* \"#utility.yul\":5327:5644   */\n  pop\n  pop\n    /* \"#utility.yul\":5251:5644   */\n  swap4\n  swap3\n  pop\n  pop\n  pop\n  jump\t// out\n    /* \"#utility.yul\":5650:5710   */\ntag_34:\n    /* \"#utility.yul\":5678:5681   */\n  0x00\n    /* \"#utility.yul\":5699:5704   */\n  dup2\n    /* \"#utility.yul\":5692:5704   */\n  swap1\n  pop\n    /* \"#utility.yul\":5650:5710   */\n  swap2\n  swap1\n  pop\n  jump\t// out\n    /* \"#utility.yul\":5716:5858   */\ntag_35:\n    /* \"#utility.yul\":5766:5775   */\n  0x00\n    /* \"#utility.yul\":5799:5852   */\n  tag_108\n    /* \"#utility.yul\":5817:5851   */\n  tag_109\n    /* \"#utility.yul\":5826:5850   */\n  tag_110\n    /* \"#utility.yul\":5844:5849   */\n  dup5\n    /* \"#utility.yul\":5826:5850   */\n  tag_24\n  jump\t// in\ntag_110:\n    /* \"#utility.yul\":5817:5851   */\n  tag_34\n  jump\t// in\ntag_109:\n    /* \"#utility.yul\":5799:5852   */\n  tag_24\n  jump\t// in\ntag_108:\n    /* \"#utility.yul\":5786:5852   */\n  swap1\n  pop\n    /* \"#utility.yul\":5716:5858   */\n  swap2\n  swap1\n  pop\n  jump\t// out\n    /* \"#utility.yul\":5864:5939   */\ntag_36:\n    /* \"#utility.yul\":5907:5910   */\n  0x00\n    /* \"#utility.yul\":5928:5933   */\n  dup2\n    /* \"#utility.yul\":5921:5933   */\n  swap1\n  pop\n    /* \"#utility.yul\":5864:5939   */\n  swap2\n  swap1\n  pop\n  jump\t// out\n    /* \"#utility.yul\":5945:6214   */\ntag_37:\n    /* \"#utility.yul\":6055:6094   */\n  tag_113\n    /* \"#utility.yul\":6086:6093   */\n  dup4\n    /* \"#utility.yul\":6055:6094   */\n  tag_35\n  jump\t// in\ntag_113:\n    /* \"#utility.yul\":6116:6207   */\n  tag_114\n    /* \"#utility.yul\":6165:6206   */\n  tag_115\n    /* \"#utility.yul\":6189:6205   */\n  dup3\n    /* \"#utility.yul\":6165:6206   */\n  tag_36\n  jump\t// in\ntag_115:\n    /* \"#utility.yul\":6157:6163   */\n  dup5\n    /* \"#utility.yul\":6150:6154   */\n  dup5\n    /* \"#utility.yul\":6144:6155   */\n  sload\n    /* \"#utility.yul\":6116:6207   */\n  tag_33\n  jump\t// in\ntag_114:\n    /* \"#utility.yul\":6110:6114   */\n  dup3\n    /* \"#utility.yul\":6103:6208   */\n  sstore\n    /* \"#utility.yul\":6021:6214   */\n  pop\n    /* \"#utility.yul\":5945:6214   */\n  pop\n  pop\n  pop\n  jump\t// out\n    /* \"#utility.yul\":6220:6293   */\ntag_38:\n    /* \"#utility.yul\":6265:6268   */\n  0x00\n    /* \"#utility.yul\":6220:6293   */\n  swap1\n  jump\t// out\n    /* \"#utility.yul\":6299:6488   */\ntag_39:\n    /* \"#utility.yul\":6376:6408   */\n  tag_118\n  tag_38\n  jump\t// in\ntag_118:\n    /* \"#utility.yul\":6417:6482   */\n  tag_119\n    /* \"#utility.yul\":6475:6481   */\n  dup2\n    /* \"#utility.yul\":6467:6473   */\n  dup5\n    /* \"#utility.yul\":6461:6465   */\n  dup5\n    /* \"#utility.yul\":6417:6482   */\n  tag_37\n  jump\t// in\ntag_119:\n    /* \"#utility.yul\":6352:6488   */\n  pop\n    /* \"#utility.yul\":6299:6488   */\n  pop\n  pop\n  jump\t// out\n    /* \"#utility.yul\":6494:6680   */\ntag_40:\n    /* \"#utility.yul\":6554:6674   */\ntag_121:\n    /* \"#utility.yul\":6571:6574   */\n  dup2\n    /* \"#utility.yul\":6564:6569   */\n  dup2\n    /* \"#utility.yul\":6561:6575   */\n  lt\n    /* \"#utility.yul\":6554:6674   */\n  iszero\n  tag_123\n  jumpi\n    /* \"#utility.yul\":6625:6664   */\n  tag_124\n    /* \"#utility.yul\":6662:6663   */\n  0x00\n    /* \"#utility.yul\":6655:6660   */\n  dup3\n    /* \"#utility.yul\":6625:6664   */\n  tag_39\n  jump\t// in\ntag_124:\n    /* \"#utility.yul\":6598:6599   */\n  0x01\n    /* \"#utility.yul\":6591:6596   */\n  dup2\n    /* \"#utility.yul\":6587:6600   */\n  add\n    /* \"#utility.yul\":6578:6600   */\n  swap1\n  pop\n    /* \"#utility.yul\":6554:6674   */\n  jump(tag_121)\ntag_123:\n    /* \"#utility.yul\":6494:6680   */\n  pop\n  pop\n  jump\t// out\n    /* \"#utility.yul\":6686:7229   */\ntag_41:\n    /* \"#utility.yul\":6787:6789   */\n  0x1f\n    /* \"#utility.yul\":6782:6785   */\n  dup3\n    /* \"#utility.yul\":6779:6790   */\n  gt\n    /* \"#utility.yul\":6776:7222   */\n  iszero\n  tag_126\n  jumpi\n    /* \"#utility.yul\":6821:6859   */\n  tag_127\n    /* \"#utility.yul\":6853:6858   */\n  dup2\n    /* \"#utility.yul\":6821:6859   */\n  tag_30\n  jump\t// in\ntag_127:\n    /* \"#utility.yul\":6905:6934   */\n  tag_128\n    /* \"#utility.yul\":6923:6933   */\n  dup5\n    /* \"#utility.yul\":6905:6934   */\n  tag_31\n  jump\t// in\ntag_128:\n    /* \"#utility.yul\":6895:6903   */\n  dup2\n    /* \"#utility.yul\":6891:6935   */\n  add\n    /* \"#utility.yul\":7088:7090   */\n  0x20\n    /* \"#utility.yul\":7076:7086   */\n  dup6\n    /* \"#utility.yul\":7073:7091   */\n  lt\n    /* \"#utility.yul\":7070:7119   */\n  iszero\n  tag_129\n  jumpi\n    /* \"#utility.yul\":7109:7117   */\n  dup2\n    /* \"#utility.yul\":7094:7117   */\n  swap1\n  pop\n    /* \"#utility.yul\":7070:7119   */\ntag_129:\n    /* \"#utility.yul\":7132:7212   */\n  tag_130\n    /* \"#utility.yul\":7188:7210   */\n  tag_131\n    /* \"#utility.yul\":7206:7209   */\n  dup6\n    /* \"#utility.yul\":7188:7210   */\n  tag_31\n  jump\t// in\ntag_131:\n    /* \"#utility.yul\":7178:7186   */\n  dup4\n    /* \"#utility.yul\":7174:7211   */\n  add\n    /* \"#utility.yul\":7161:7172   */\n  dup3\n    /* \"#utility.yul\":7132:7212   */\n  tag_40\n  jump\t// in\ntag_130:\n    /* \"#utility.yul\":6791:7222   */\n  pop\n  pop\n    /* \"#utility.yul\":6776:7222   */\ntag_126:\n    /* \"#utility.yul\":6686:7229   */\n  pop\n  pop\n  pop\n  jump\t// out\n    /* \"#utility.yul\":7235:7352   */\ntag_42:\n    /* \"#utility.yul\":7289:7297   */\n  0x00\n    /* \"#utility.yul\":7339:7344   */\n  dup3\n    /* \"#utility.yul\":7333:7337   */\n  dup3\n    /* \"#utility.yul\":7329:7345   */\n  shr\n    /* \"#utility.yul\":7308:7345   */\n  swap1\n  pop\n    /* \"#utility.yul\":7235:7352   */\n  swap3\n  swap2\n  pop\n  pop\n  jump\t// out\n    /* \"#utility.yul\":7358:7527   */\ntag_43:\n    /* \"#utility.yul\":7402:7408   */\n  0x00\n    /* \"#utility.yul\":7435:7486   */\n  tag_134\n    /* \"#utility.yul\":7483:7484   */\n  0x00\n    /* \"#utility.yul\":7479:7485   */\n  not\n    /* \"#utility.yul\":7471:7476   */\n  dup5\n    /* \"#utility.yul\":7468:7469   */\n  0x08\n    /* \"#utility.yul\":7464:7477   */\n  mul\n    /* \"#utility.yul\":7435:7486   */\n  tag_42\n  jump\t// in\ntag_134:\n    /* \"#utility.yul\":7431:7487   */\n  not\n    /* \"#utility.yul\":7516:7520   */\n  dup1\n    /* \"#utility.yul\":7510:7514   */\n  dup4\n    /* \"#utility.yul\":7506:7521   */\n  and\n    /* \"#utility.yul\":7496:7521   */\n  swap2\n  pop\n    /* \"#utility.yul\":7409:7527   */\n  pop\n    /* \"#utility.yul\":7358:7527   */\n  swap3\n  swap2\n  pop\n  pop\n  jump\t// out\n    /* \"#utility.yul\":7532:7827   */\ntag_44:\n    /* \"#utility.yul\":7608:7612   */\n  0x00\n    /* \"#utility.yul\":7754:7783   */\n  tag_136\n    /* \"#utility.yul\":7779:7782   */\n  dup4\n    /* \"#utility.yul\":7773:7777   */\n  dup4\n    /* \"#utility.yul\":7754:7783   */\n  tag_43\n  jump\t// in\ntag_136:\n    /* \"#utility.yul\":7746:7783   */\n  swap2\n  pop\n    /* \"#utility.yul\":7816:7819   */\n  dup3\n    /* \"#utility.yul\":7813:7814   */\n  0x02\n    /* \"#utility.yul\":7809:7820   */\n  mul\n    /* \"#utility.yul\":7803:7807   */\n  dup3\n    /* \"#utility.yul\":7800:7821   */\n  or\n    /* \"#utility.yul\":7792:7821   */\n  swap1\n  pop\n    /* \"#utility.yul\":7532:7827   */\n  swap3\n  swap2\n  pop\n  pop\n  jump\t// out\n    /* \"#utility.yul\":7832:9227   */\ntag_7:\n    /* \"#utility.yul\":7949:7986   */\n  tag_138\n    /* \"#utility.yul\":7982:7985   */\n  dup3\n    /* \"#utility.yul\":7949:7986   */\n  tag_27\n  jump\t// in\ntag_138:\n    /* \"#utility.yul\":8051:8069   */\n  0xffffffffffffffff\n    /* \"#utility.yul\":8043:8049   */\n  dup2\n    /* \"#utility.yul\":8040:8070   */\n  gt\n    /* \"#utility.yul\":8037:8093   */\n  iszero\n  tag_139\n  jumpi\n    /* \"#utility.yul\":8073:8091   */\n  tag_140\n  tag_17\n  jump\t// in\ntag_140:\n    /* \"#utility.yul\":8037:8093   */\ntag_139:\n    /* \"#utility.yul\":8117:8155   */\n  tag_141\n    /* \"#utility.yul\":8149:8153   */\n  dup3\n    /* \"#utility.yul\":8143:8154   */\n  sload\n    /* \"#utility.yul\":8117:8155   */\n  tag_29\n  jump\t// in\ntag_141:\n    /* \"#utility.yul\":8202:8269   */\n  tag_142\n    /* \"#utility.yul\":8262:8268   */\n  dup3\n    /* \"#utility.yul\":8254:8260   */\n  dup3\n    /* \"#utility.yul\":8248:8252   */\n  dup6\n    /* \"#utility.yul\":8202:8269   */\n  tag_41\n  jump\t// in\ntag_142:\n    /* \"#utility.yul\":8296:8297   */\n  0x00\n    /* \"#utility.yul\":8320:8324   */\n  0x20\n    /* \"#utility.yul\":8307:8324   */\n  swap1\n  pop\n    /* \"#utility.yul\":8352:8354   */\n  0x1f\n    /* \"#utility.yul\":8344:8350   */\n  dup4\n    /* \"#utility.yul\":8341:8355   */\n  gt\n    /* \"#utility.yul\":8369:8370   */\n  0x01\n    /* \"#utility.yul\":8364:8982   */\n  dup2\n  eq\n  tag_144\n  jumpi\n    /* \"#utility.yul\":9026:9027   */\n  0x00\n    /* \"#utility.yul\":9043:9049   */\n  dup5\n    /* \"#utility.yul\":9040:9117   */\n  iszero\n  tag_145\n  jumpi\n    /* \"#utility.yul\":9092:9101   */\n  dup3\n    /* \"#utility.yul\":9087:9090   */\n  dup8\n    /* \"#utility.yul\":9083:9102   */\n  add\n    /* \"#utility.yul\":9077:9103   */\n  mload\n    /* \"#utility.yul\":9068:9103   */\n  swap1\n  pop\n    /* \"#utility.yul\":9040:9117   */\ntag_145:\n    /* \"#utility.yul\":9143:9210   */\n  tag_146\n    /* \"#utility.yul\":9203:9209   */\n  dup6\n    /* \"#utility.yul\":9196:9201   */\n  dup3\n    /* \"#utility.yul\":9143:9210   */\n  tag_44\n  jump\t// in\ntag_146:\n    /* \"#utility.yul\":9137:9141   */\n  dup7\n    /* \"#utility.yul\":9130:9211   */\n  sstore\n    /* \"#utility.yul\":8999:9221   */\n  pop\n    /* \"#utility.yul\":8334:9221   */\n  jump(tag_143)\n    /* \"#utility.yul\":8364:8982   */\ntag_144:\n    /* \"#utility.yul\":8416:8420   */\n  0x1f\n    /* \"#utility.yul\":8412:8421   */\n  not\n    /* \"#utility.yul\":8404:8410   */\n  dup5\n    /* \"#utility.yul\":8400:8422   */\n  and\n    /* \"#utility.yul\":8450:8487   */\n  tag_147\n    /* \"#utility.yul\":8482:8486   */\n  dup7\n    /* \"#utility.yul\":8450:8487   */\n  tag_30\n  jump\t// in\ntag_147:\n    /* \"#utility.yul\":8509:8510   */\n  0x00\n    /* \"#utility.yul\":8523:8731   */\ntag_148:\n    /* \"#utility.yul\":8537:8544   */\n  dup3\n    /* \"#utility.yul\":8534:8535   */\n  dup2\n    /* \"#utility.yul\":8531:8545   */\n  lt\n    /* \"#utility.yul\":8523:8731   */\n  iszero\n  tag_150\n  jumpi\n    /* \"#utility.yul\":8616:8625   */\n  dup5\n    /* \"#utility.yul\":8611:8614   */\n  dup10\n    /* \"#utility.yul\":8607:8626   */\n  add\n    /* \"#utility.yul\":8601:8627   */\n  mload\n    /* \"#utility.yul\":8593:8599   */\n  dup3\n    /* \"#utility.yul\":8586:8628   */\n  sstore\n    /* \"#utility.yul\":8667:8668   */\n  0x01\n    /* \"#utility.yul\":8659:8665   */\n  dup3\n    /* \"#utility.yul\":8655:8669   */\n  add\n    /* \"#utility.yul\":8645:8669   */\n  swap2\n  pop\n    /* \"#utility.yul\":8714:8716   */\n  0x20\n    /* \"#utility.yul\":8703:8712   */\n  dup6\n    /* \"#utility.yul\":8699:8717   */\n  add\n    /* \"#utility.yul\":8686:8717   */\n  swap5\n  pop\n    /* \"#utility.yul\":8560:8564   */\n  0x20\n    /* \"#utility.yul\":8557:8558   */\n  dup2\n    /* \"#utility.yul\":8553:8565   */\n  add\n    /* \"#utility.yul\":8548:8565   */\n  swap1\n  pop\n    /* \"#utility.yul\":8523:8731   */\n  jump(tag_148)\ntag_150:\n    /* \"#utility.yul\":8759:8765   */\n  dup7\n    /* \"#utility.yul\":8750:8757   */\n  dup4\n    /* \"#utility.yul\":8747:8766   */\n  lt\n    /* \"#utility.yul\":8744:8923   */\n  iszero\n  tag_151\n  jumpi\n    /* \"#utility.yul\":8817:8826   */\n  dup5\n    /* \"#utility.yul\":8812:8815   */\n  dup10\n    /* \"#utility.yul\":8808:8827   */\n  add\n    /* \"#utility.yul\":8802:8828   */\n  mload\n    /* \"#utility.yul\":8860:8908   */\n  tag_152\n    /* \"#utility.yul\":8902:8906   */\n  0x1f\n    /* \"#utility.yul\":8894:8900   */\n  dup10\n    /* \"#utility.yul\":8890:8907   */\n  and\n    /* \"#utility.yul\":8879:8888   */\n  dup3\n    /* \"#utility.yul\":8860:8908   */\n  tag_43\n  jump\t// in\ntag_152:\n    /* \"#utility.yul\":8852:8858   */\n  dup4\n    /* \"#utility.yul\":8845:8909   */\n  sstore\n    /* \"#utility.yul\":8767:8923   */\n  pop\n    /* \"#utility.yul\":8744:8923   */\ntag_151:\n    /* \"#utility.yul\":8969:8970   */\n  0x01\n    /* \"#utility.yul\":8965:8966   */\n  0x02\n    /* \"#utility.yul\":8957:8963   */\n  dup9\n    /* \"#utility.yul\":8953:8967   */\n  mul\n    /* \"#utility.yul\":8949:8971   */\n  add\n    /* \"#utility.yul\":8943:8947   */\n  dup9\n    /* \"#utility.yul\":8936:8972   */\n  sstore\n    /* \"#utility.yul\":8371:8982   */\n  pop\n  pop\n  pop\n    /* \"#utility.yul\":8334:9221   */\ntag_143:\n  pop\n    /* \"#utility.yul\":7924:9227   */\n  pop\n  pop\n  pop\n    /* \"#utility.yul\":7832:9227   */\n  pop\n  pop\n  jump\t// out\n    /* \"contracts/Indetity.sol\":74:2182  contract Identity {... */\ntag_10:\n  dataSize(sub_0)\n  dup1\n  dataOffset(sub_0)\n  0x00\n  codecopy\n  0x00\n  return\nstop\n\nsub_0: assembly {\n        /* \"contracts/Indetity.sol\":74:2182  contract Identity {... */\n      mstore(0x40, 0x80)\n      callvalue\n      dup1\n      iszero\n      tag_1\n      jumpi\n      0x00\n      dup1\n      revert\n    tag_1:\n      pop\n      jumpi(tag_2, lt(calldatasize, 0x04))\n      shr(0xe0, calldataload(0x00))\n      dup1\n      0x81f539ff\n      eq\n      tag_3\n      jumpi\n      dup1\n      0x9f0010fc\n      eq\n      tag_4\n      jumpi\n      dup1\n      0x9f999da3\n      eq\n      tag_5\n      jumpi\n    tag_2:\n      0x00\n      dup1\n      revert\n        /* \"contracts/Indetity.sol\":2039:2179  function getPersonalInfo() public view authorizeUser(UserType.Personal) returns (PersonalInfo memory) {... */\n    tag_3:\n      tag_6\n      tag_7\n      jump\t// in\n    tag_6:\n      mload(0x40)\n      tag_8\n      swap2\n      swap1\n      tag_9\n      jump\t// in\n    tag_8:\n      mload(0x40)\n      dup1\n      swap2\n      sub\n      swap1\n      return\n        /* \"contracts/Indetity.sol\":1625:1891  function registerUser(UserType userType, address user) public onlyOwner {... */\n    tag_4:\n      tag_10\n      0x04\n      dup1\n      calldatasize\n      sub\n      dup2\n      add\n      swap1\n      tag_11\n      swap2\n      swap1\n      tag_12\n      jump\t// in\n    tag_11:\n      tag_13\n      jump\t// in\n    tag_10:\n      stop\n        /* \"contracts/Indetity.sol\":1903:2031  function getBasicInfo() public view authorizeUser(UserType.Basic) returns (BasicInfo memory) {... */\n    tag_5:\n      tag_14\n      tag_15\n      jump\t// in\n    tag_14:\n      mload(0x40)\n      tag_16\n      swap2\n      swap1\n      tag_17\n      jump\t// in\n    tag_16:\n      mload(0x40)\n      dup1\n      swap2\n      sub\n      swap1\n      return\n        /* \"contracts/Indetity.sol\":2039:2179  function getPersonalInfo() public view authorizeUser(UserType.Personal) returns (PersonalInfo memory) {... */\n    tag_7:\n        /* \"contracts/Indetity.sol\":2120:2139  PersonalInfo memory */\n      tag_18\n      tag_19\n      jump\t// in\n    tag_18:\n        /* \"contracts/Indetity.sol\":2092:2109  UserType.Personal */\n      0x01\n        /* \"contracts/Indetity.sol\":1137:1142  owner */\n      0x04\n      0x00\n      swap1\n      sload\n      swap1\n      0x0100\n      exp\n      swap1\n      div\n      0xffffffffffffffffffffffffffffffffffffffff\n      and\n        /* \"contracts/Indetity.sol\":1123:1142  msg.sender == owner */\n      0xffffffffffffffffffffffffffffffffffffffff\n      and\n        /* \"contracts/Indetity.sol\":1123:1133  msg.sender */\n      caller\n        /* \"contracts/Indetity.sol\":1123:1142  msg.sender == owner */\n      0xffffffffffffffffffffffffffffffffffffffff\n      and\n      eq\n        /* \"contracts/Indetity.sol\":1123:1171  msg.sender == owner || personalUsers[msg.sender] */\n      dup1\n      tag_21\n      jumpi\n      pop\n        /* \"contracts/Indetity.sol\":1146:1159  personalUsers */\n      0x06\n        /* \"contracts/Indetity.sol\":1146:1171  personalUsers[msg.sender] */\n      0x00\n        /* \"contracts/Indetity.sol\":1160:1170  msg.sender */\n      caller\n        /* \"contracts/Indetity.sol\":1146:1171  personalUsers[msg.sender] */\n      0xffffffffffffffffffffffffffffffffffffffff\n      and\n      0xffffffffffffffffffffffffffffffffffffffff\n      and\n      dup2\n      mstore\n      0x20\n      add\n      swap1\n      dup2\n      mstore\n      0x20\n      add\n      0x00\n      keccak256\n      0x00\n      swap1\n      sload\n      swap1\n      0x0100\n      exp\n      swap1\n      div\n      0xff\n      and\n        /* \"contracts/Indetity.sol\":1123:1171  msg.sender == owner || personalUsers[msg.sender] */\n    tag_21:\n        /* \"contracts/Indetity.sol\":1119:1371  if (msg.sender == owner || personalUsers[msg.sender]) {... */\n      iszero\n      tag_22\n      jumpi\n        /* \"contracts/Indetity.sol\":2159:2171  personalInfo */\n      0x02\n        /* \"contracts/Indetity.sol\":2152:2171  return personalInfo */\n      mload(0x40)\n      dup1\n      0x40\n      add\n      0x40\n      mstore\n      swap1\n      dup2\n      0x00\n      dup3\n      add\n      sload\n      dup2\n      mstore\n      0x20\n      add\n      0x01\n      dup3\n      add\n      dup1\n      sload\n      tag_24\n      swap1\n      tag_25\n      jump\t// in\n    tag_24:\n      dup1\n      0x1f\n      add\n      0x20\n      dup1\n      swap2\n      div\n      mul\n      0x20\n      add\n      mload(0x40)\n      swap1\n      dup2\n      add\n      0x40\n      mstore\n      dup1\n      swap3\n      swap2\n      swap1\n      dup2\n      dup2\n      mstore\n      0x20\n      add\n      dup3\n      dup1\n      sload\n      tag_26\n      swap1\n      tag_25\n      jump\t// in\n    tag_26:\n      dup1\n      iszero\n      tag_27\n      jumpi\n      dup1\n      0x1f\n      lt\n      tag_28\n      jumpi\n      0x0100\n      dup1\n      dup4\n      sload\n      div\n      mul\n      dup4\n      mstore\n      swap2\n      0x20\n      add\n      swap2\n      jump(tag_27)\n    tag_28:\n      dup3\n      add\n      swap2\n      swap1\n      0x00\n      mstore\n      keccak256(0x00, 0x20)\n      swap1\n    tag_29:\n      dup2\n      sload\n      dup2\n      mstore\n      swap1\n      0x01\n      add\n      swap1\n      0x20\n      add\n      dup1\n      dup4\n      gt\n      tag_29\n      jumpi\n      dup3\n      swap1\n      sub\n      0x1f\n      and\n      dup3\n      add\n      swap2\n    tag_27:\n      pop\n      pop\n      pop\n      pop\n      pop\n      dup2\n      mstore\n      pop\n      pop\n      swap2\n      pop\n        /* \"contracts/Indetity.sol\":1119:1371  if (msg.sender == owner || personalUsers[msg.sender]) {... */\n      jump(tag_30)\n    tag_22:\n        /* \"contracts/Indetity.sol\":1223:1237  UserType.Basic */\n      0x00\n        /* \"contracts/Indetity.sol\":1211:1237  userType == UserType.Basic */\n      0x01\n      dup2\n      gt\n      iszero\n      tag_31\n      jumpi\n      tag_32\n      tag_33\n      jump\t// in\n    tag_32:\n    tag_31:\n        /* \"contracts/Indetity.sol\":1211:1219  userType */\n      dup2\n        /* \"contracts/Indetity.sol\":1211:1237  userType == UserType.Basic */\n      0x01\n      dup2\n      gt\n      iszero\n      tag_34\n      jumpi\n      tag_35\n      tag_33\n      jump\t// in\n    tag_35:\n    tag_34:\n      eq\n        /* \"contracts/Indetity.sol\":1211:1263  userType == UserType.Basic && basicUsers[msg.sender] */\n      dup1\n      iszero\n      tag_36\n      jumpi\n      pop\n        /* \"contracts/Indetity.sol\":1241:1251  basicUsers */\n      0x05\n        /* \"contracts/Indetity.sol\":1241:1263  basicUsers[msg.sender] */\n      0x00\n        /* \"contracts/Indetity.sol\":1252:1262  msg.sender */\n      caller\n        /* \"contracts/Indetity.sol\":1241:1263  basicUsers[msg.sender] */\n      0xffffffffffffffffffffffffffffffffffffffff\n      and\n      0xffffffffffffffffffffffffffffffffffffffff\n      and\n      dup2\n      mstore\n      0x20\n      add\n      swap1\n      dup2\n      mstore\n      0x20\n      add\n      0x00\n      keccak256\n      0x00\n      swap1\n      sload\n      swap1\n      0x0100\n      exp\n      swap1\n      div\n      0xff\n      and\n        /* \"contracts/Indetity.sol\":1211:1263  userType == UserType.Basic && basicUsers[msg.sender] */\n    tag_36:\n        /* \"contracts/Indetity.sol\":1207:1371  if (userType == UserType.Basic && basicUsers[msg.sender]) {... */\n      iszero\n      tag_37\n      jumpi\n        /* \"contracts/Indetity.sol\":2159:2171  personalInfo */\n      0x02\n        /* \"contracts/Indetity.sol\":2152:2171  return personalInfo */\n      mload(0x40)\n      dup1\n      0x40\n      add\n      0x40\n      mstore\n      swap1\n      dup2\n      0x00\n      dup3\n      add\n      sload\n      dup2\n      mstore\n      0x20\n      add\n      0x01\n      dup3\n      add\n      dup1\n      sload\n      tag_39\n      swap1\n      tag_25\n      jump\t// in\n    tag_39:\n      dup1\n      0x1f\n      add\n      0x20\n      dup1\n      swap2\n      div\n      mul\n      0x20\n      add\n      mload(0x40)\n      swap1\n      dup2\n      add\n      0x40\n      mstore\n      dup1\n      swap3\n      swap2\n      swap1\n      dup2\n      dup2\n      mstore\n      0x20\n      add\n      dup3\n      dup1\n      sload\n      tag_40\n      swap1\n      tag_25\n      jump\t// in\n    tag_40:\n      dup1\n      iszero\n      tag_41\n      jumpi\n      dup1\n      0x1f\n      lt\n      tag_42\n      jumpi\n      0x0100\n      dup1\n      dup4\n      sload\n      div\n      mul\n      dup4\n      mstore\n      swap2\n      0x20\n      add\n      swap2\n      jump(tag_41)\n    tag_42:\n      dup3\n      add\n      swap2\n      swap1\n      0x00\n      mstore\n      keccak256(0x00, 0x20)\n      swap1\n    tag_43:\n      dup2\n      sload\n      dup2\n      mstore\n      swap1\n      0x01\n      add\n      swap1\n      0x20\n      add\n      dup1\n      dup4\n      gt\n      tag_43\n      jumpi\n      dup3\n      swap1\n      sub\n      0x1f\n      and\n      dup3\n      add\n      swap2\n    tag_41:\n      pop\n      pop\n      pop\n      pop\n      pop\n      dup2\n      mstore\n      pop\n      pop\n      swap2\n      pop\n        /* \"contracts/Indetity.sol\":1207:1371  if (userType == UserType.Basic && basicUsers[msg.sender]) {... */\n      jump(tag_44)\n    tag_37:\n        /* \"contracts/Indetity.sol\":1338:1348  msg.sender */\n      caller\n        /* \"contracts/Indetity.sol\":1350:1358  userType */\n      dup2\n        /* \"contracts/Indetity.sol\":1321:1359  UserUnauthorized(msg.sender, userType) */\n      mload(0x40)\n      0x301d703b00000000000000000000000000000000000000000000000000000000\n      dup2\n      mstore\n      0x04\n      add\n      tag_45\n      swap3\n      swap2\n      swap1\n      tag_46\n      jump\t// in\n    tag_45:\n      mload(0x40)\n      dup1\n      swap2\n      sub\n      swap1\n      revert\n        /* \"contracts/Indetity.sol\":1207:1371  if (userType == UserType.Basic && basicUsers[msg.sender]) {... */\n    tag_44:\n        /* \"contracts/Indetity.sol\":1119:1371  if (msg.sender == owner || personalUsers[msg.sender]) {... */\n    tag_30:\n        /* \"contracts/Indetity.sol\":2039:2179  function getPersonalInfo() public view authorizeUser(UserType.Personal) returns (PersonalInfo memory) {... */\n      pop\n      swap1\n      jump\t// out\n        /* \"contracts/Indetity.sol\":1625:1891  function registerUser(UserType userType, address user) public onlyOwner {... */\n    tag_13:\n        /* \"contracts/Indetity.sol\":1501:1506  owner */\n      0x04\n      0x00\n      swap1\n      sload\n      swap1\n      0x0100\n      exp\n      swap1\n      div\n      0xffffffffffffffffffffffffffffffffffffffff\n      and\n        /* \"contracts/Indetity.sol\":1487:1506  msg.sender == owner */\n      0xffffffffffffffffffffffffffffffffffffffff\n      and\n        /* \"contracts/Indetity.sol\":1487:1497  msg.sender */\n      caller\n        /* \"contracts/Indetity.sol\":1487:1506  msg.sender == owner */\n      0xffffffffffffffffffffffffffffffffffffffff\n      and\n      eq\n        /* \"contracts/Indetity.sol\":1479:1541  require(msg.sender == owner, \"Only owner can authorize users\") */\n      tag_48\n      jumpi\n      mload(0x40)\n      0x08c379a000000000000000000000000000000000000000000000000000000000\n      dup2\n      mstore\n      0x04\n      add\n      tag_49\n      swap1\n      tag_50\n      jump\t// in\n    tag_49:\n      mload(0x40)\n      dup1\n      swap2\n      sub\n      swap1\n      revert\n    tag_48:\n        /* \"contracts/Indetity.sol\":1724:1738  UserType.Basic */\n      0x00\n        /* \"contracts/Indetity.sol\":1712:1738  userType == UserType.Basic */\n      0x01\n      dup2\n      gt\n      iszero\n      tag_52\n      jumpi\n      tag_53\n      tag_33\n      jump\t// in\n    tag_53:\n    tag_52:\n        /* \"contracts/Indetity.sol\":1712:1720  userType */\n      dup3\n        /* \"contracts/Indetity.sol\":1712:1738  userType == UserType.Basic */\n      0x01\n      dup2\n      gt\n      iszero\n      tag_54\n      jumpi\n      tag_55\n      tag_33\n      jump\t// in\n    tag_55:\n    tag_54:\n      sub\n        /* \"contracts/Indetity.sol\":1708:1884  if (userType == UserType.Basic) {... */\n      tag_56\n      jumpi\n        /* \"contracts/Indetity.sol\":1774:1778  true */\n      0x01\n        /* \"contracts/Indetity.sol\":1755:1765  basicUsers */\n      0x05\n        /* \"contracts/Indetity.sol\":1755:1771  basicUsers[user] */\n      0x00\n        /* \"contracts/Indetity.sol\":1766:1770  user */\n      dup4\n        /* \"contracts/Indetity.sol\":1755:1771  basicUsers[user] */\n      0xffffffffffffffffffffffffffffffffffffffff\n      and\n      0xffffffffffffffffffffffffffffffffffffffff\n      and\n      dup2\n      mstore\n      0x20\n      add\n      swap1\n      dup2\n      mstore\n      0x20\n      add\n      0x00\n      keccak256\n      0x00\n        /* \"contracts/Indetity.sol\":1755:1778  basicUsers[user] = true */\n      0x0100\n      exp\n      dup2\n      sload\n      dup2\n      0xff\n      mul\n      not\n      and\n      swap1\n      dup4\n      iszero\n      iszero\n      mul\n      or\n      swap1\n      sstore\n      pop\n        /* \"contracts/Indetity.sol\":1708:1884  if (userType == UserType.Basic) {... */\n      jump(tag_57)\n    tag_56:\n        /* \"contracts/Indetity.sol\":1812:1829  UserType.Personal */\n      0x01\n        /* \"contracts/Indetity.sol\":1800:1829  userType == UserType.Personal */\n      dup1\n      dup2\n      gt\n      iszero\n      tag_58\n      jumpi\n      tag_59\n      tag_33\n      jump\t// in\n    tag_59:\n    tag_58:\n        /* \"contracts/Indetity.sol\":1800:1808  userType */\n      dup3\n        /* \"contracts/Indetity.sol\":1800:1829  userType == UserType.Personal */\n      0x01\n      dup2\n      gt\n      iszero\n      tag_60\n      jumpi\n      tag_61\n      tag_33\n      jump\t// in\n    tag_61:\n    tag_60:\n      sub\n        /* \"contracts/Indetity.sol\":1796:1884  if (userType == UserType.Personal) {... */\n      tag_62\n      jumpi\n        /* \"contracts/Indetity.sol\":1868:1872  true */\n      0x01\n        /* \"contracts/Indetity.sol\":1846:1859  personalUsers */\n      0x06\n        /* \"contracts/Indetity.sol\":1846:1865  personalUsers[user] */\n      0x00\n        /* \"contracts/Indetity.sol\":1860:1864  user */\n      dup4\n        /* \"contracts/Indetity.sol\":1846:1865  personalUsers[user] */\n      0xffffffffffffffffffffffffffffffffffffffff\n      and\n      0xffffffffffffffffffffffffffffffffffffffff\n      and\n      dup2\n      mstore\n      0x20\n      add\n      swap1\n      dup2\n      mstore\n      0x20\n      add\n      0x00\n      keccak256\n      0x00\n        /* \"contracts/Indetity.sol\":1846:1872  personalUsers[user] = true */\n      0x0100\n      exp\n      dup2\n      sload\n      dup2\n      0xff\n      mul\n      not\n      and\n      swap1\n      dup4\n      iszero\n      iszero\n      mul\n      or\n      swap1\n      sstore\n      pop\n        /* \"contracts/Indetity.sol\":1796:1884  if (userType == UserType.Personal) {... */\n    tag_62:\n        /* \"contracts/Indetity.sol\":1708:1884  if (userType == UserType.Basic) {... */\n    tag_57:\n        /* \"contracts/Indetity.sol\":1625:1891  function registerUser(UserType userType, address user) public onlyOwner {... */\n      pop\n      pop\n      jump\t// out\n        /* \"contracts/Indetity.sol\":1903:2031  function getBasicInfo() public view authorizeUser(UserType.Basic) returns (BasicInfo memory) {... */\n    tag_15:\n        /* \"contracts/Indetity.sol\":1978:1994  BasicInfo memory */\n      tag_63\n      tag_64\n      jump\t// in\n    tag_63:\n        /* \"contracts/Indetity.sol\":1953:1967  UserType.Basic */\n      0x00\n        /* \"contracts/Indetity.sol\":1137:1142  owner */\n      0x04\n      0x00\n      swap1\n      sload\n      swap1\n      0x0100\n      exp\n      swap1\n      div\n      0xffffffffffffffffffffffffffffffffffffffff\n      and\n        /* \"contracts/Indetity.sol\":1123:1142  msg.sender == owner */\n      0xffffffffffffffffffffffffffffffffffffffff\n      and\n        /* \"contracts/Indetity.sol\":1123:1133  msg.sender */\n      caller\n        /* \"contracts/Indetity.sol\":1123:1142  msg.sender == owner */\n      0xffffffffffffffffffffffffffffffffffffffff\n      and\n      eq\n        /* \"contracts/Indetity.sol\":1123:1171  msg.sender == owner || personalUsers[msg.sender] */\n      dup1\n      tag_66\n      jumpi\n      pop\n        /* \"contracts/Indetity.sol\":1146:1159  personalUsers */\n      0x06\n        /* \"contracts/Indetity.sol\":1146:1171  personalUsers[msg.sender] */\n      0x00\n        /* \"contracts/Indetity.sol\":1160:1170  msg.sender */\n      caller\n        /* \"contracts/Indetity.sol\":1146:1171  personalUsers[msg.sender] */\n      0xffffffffffffffffffffffffffffffffffffffff\n      and\n      0xffffffffffffffffffffffffffffffffffffffff\n      and\n      dup2\n      mstore\n      0x20\n      add\n      swap1\n      dup2\n      mstore\n      0x20\n      add\n      0x00\n      keccak256\n      0x00\n      swap1\n      sload\n      swap1\n      0x0100\n      exp\n      swap1\n      div\n      0xff\n      and\n        /* \"contracts/Indetity.sol\":1123:1171  msg.sender == owner || personalUsers[msg.sender] */\n    tag_66:\n        /* \"contracts/Indetity.sol\":1119:1371  if (msg.sender == owner || personalUsers[msg.sender]) {... */\n      iszero\n      tag_67\n      jumpi\n        /* \"contracts/Indetity.sol\":2014:2023  basicInfo */\n      0x00\n        /* \"contracts/Indetity.sol\":2007:2023  return basicInfo */\n      mload(0x40)\n      dup1\n      0x40\n      add\n      0x40\n      mstore\n      swap1\n      dup2\n      0x00\n      dup3\n      add\n      dup1\n      sload\n      tag_69\n      swap1\n      tag_25\n      jump\t// in\n    tag_69:\n      dup1\n      0x1f\n      add\n      0x20\n      dup1\n      swap2\n      div\n      mul\n      0x20\n      add\n      mload(0x40)\n      swap1\n      dup2\n      add\n      0x40\n      mstore\n      dup1\n      swap3\n      swap2\n      swap1\n      dup2\n      dup2\n      mstore\n      0x20\n      add\n      dup3\n      dup1\n      sload\n      tag_70\n      swap1\n      tag_25\n      jump\t// in\n    tag_70:\n      dup1\n      iszero\n      tag_71\n      jumpi\n      dup1\n      0x1f\n      lt\n      tag_72\n      jumpi\n      0x0100\n      dup1\n      dup4\n      sload\n      div\n      mul\n      dup4\n      mstore\n      swap2\n      0x20\n      add\n      swap2\n      jump(tag_71)\n    tag_72:\n      dup3\n      add\n      swap2\n      swap1\n      0x00\n      mstore\n      keccak256(0x00, 0x20)\n      swap1\n    tag_73:\n      dup2\n      sload\n      dup2\n      mstore\n      swap1\n      0x01\n      add\n      swap1\n      0x20\n      add\n      dup1\n      dup4\n      gt\n      tag_73\n      jumpi\n      dup3\n      swap1\n      sub\n      0x1f\n      and\n      dup3\n      add\n      swap2\n    tag_71:\n      pop\n      pop\n      pop\n      pop\n      pop\n      dup2\n      mstore\n      0x20\n      add\n      0x01\n      dup3\n      add\n      dup1\n      sload\n      tag_74\n      swap1\n      tag_25\n      jump\t// in\n    tag_74:\n      dup1\n      0x1f\n      add\n      0x20\n      dup1\n      swap2\n      div\n      mul\n      0x20\n      add\n      mload(0x40)\n      swap1\n      dup2\n      add\n      0x40\n      mstore\n      dup1\n      swap3\n      swap2\n      swap1\n      dup2\n      dup2\n      mstore\n      0x20\n      add\n      dup3\n      dup1\n      sload\n      tag_75\n      swap1\n      tag_25\n      jump\t// in\n    tag_75:\n      dup1\n      iszero\n      tag_76\n      jumpi\n      dup1\n      0x1f\n      lt\n      tag_77\n      jumpi\n      0x0100\n      dup1\n      dup4\n      sload\n      div\n      mul\n      dup4\n      mstore\n      swap2\n      0x20\n      add\n      swap2\n      jump(tag_76)\n    tag_77:\n      dup3\n      add\n      swap2\n      swap1\n      0x00\n      mstore\n      keccak256(0x00, 0x20)\n      swap1\n    tag_78:\n      dup2\n      sload\n      dup2\n      mstore\n      swap1\n      0x01\n      add\n      swap1\n      0x20\n      add\n      dup1\n      dup4\n      gt\n      tag_78\n      jumpi\n      dup3\n      swap1\n      sub\n      0x1f\n      and\n      dup3\n      add\n      swap2\n    tag_76:\n      pop\n      pop\n      pop\n      pop\n      pop\n      dup2\n      mstore\n      pop\n      pop\n      swap2\n      pop\n        /* \"contracts/Indetity.sol\":1119:1371  if (msg.sender == owner || personalUsers[msg.sender]) {... */\n      jump(tag_79)\n    tag_67:\n        /* \"contracts/Indetity.sol\":1223:1237  UserType.Basic */\n      0x00\n        /* \"contracts/Indetity.sol\":1211:1237  userType == UserType.Basic */\n      0x01\n      dup2\n      gt\n      iszero\n      tag_80\n      jumpi\n      tag_81\n      tag_33\n      jump\t// in\n    tag_81:\n    tag_80:\n        /* \"contracts/Indetity.sol\":1211:1219  userType */\n      dup2\n        /* \"contracts/Indetity.sol\":1211:1237  userType == UserType.Basic */\n      0x01\n      dup2\n      gt\n      iszero\n      tag_82\n      jumpi\n      tag_83\n      tag_33\n      jump\t// in\n    tag_83:\n    tag_82:\n      eq\n        /* \"contracts/Indetity.sol\":1211:1263  userType == UserType.Basic && basicUsers[msg.sender] */\n      dup1\n      iszero\n      tag_84\n      jumpi\n      pop\n        /* \"contracts/Indetity.sol\":1241:1251  basicUsers */\n      0x05\n        /* \"contracts/Indetity.sol\":1241:1263  basicUsers[msg.sender] */\n      0x00\n        /* \"contracts/Indetity.sol\":1252:1262  msg.sender */\n      caller\n        /* \"contracts/Indetity.sol\":1241:1263  basicUsers[msg.sender] */\n      0xffffffffffffffffffffffffffffffffffffffff\n      and\n      0xffffffffffffffffffffffffffffffffffffffff\n      and\n      dup2\n      mstore\n      0x20\n      add\n      swap1\n      dup2\n      mstore\n      0x20\n      add\n      0x00\n      keccak256\n      0x00\n      swap1\n      sload\n      swap1\n      0x0100\n      exp\n      swap1\n      div\n      0xff\n      and\n        /* \"contracts/Indetity.sol\":1211:1263  userType == UserType.Basic && basicUsers[msg.sender] */\n    tag_84:\n        /* \"contracts/Indetity.sol\":1207:1371  if (userType == UserType.Basic && basicUsers[msg.sender]) {... */\n      iszero\n      tag_85\n      jumpi\n        /* \"contracts/Indetity.sol\":2014:2023  basicInfo */\n      0x00\n        /* \"contracts/Indetity.sol\":2007:2023  return basicInfo */\n      mload(0x40)\n      dup1\n      0x40\n      add\n      0x40\n      mstore\n      swap1\n      dup2\n      0x00\n      dup3\n      add\n      dup1\n      sload\n      tag_87\n      swap1\n      tag_25\n      jump\t// in\n    tag_87:\n      dup1\n      0x1f\n      add\n      0x20\n      dup1\n      swap2\n      div\n      mul\n      0x20\n      add\n      mload(0x40)\n      swap1\n      dup2\n      add\n      0x40\n      mstore\n      dup1\n      swap3\n      swap2\n      swap1\n      dup2\n      dup2\n      mstore\n      0x20\n      add\n      dup3\n      dup1\n      sload\n      tag_88\n      swap1\n      tag_25\n      jump\t// in\n    tag_88:\n      dup1\n      iszero\n      tag_89\n      jumpi\n      dup1\n      0x1f\n      lt\n      tag_90\n      jumpi\n      0x0100\n      dup1\n      dup4\n      sload\n      div\n      mul\n      dup4\n      mstore\n      swap2\n      0x20\n      add\n      swap2\n      jump(tag_89)\n    tag_90:\n      dup3\n      add\n      swap2\n      swap1\n      0x00\n      mstore\n      keccak256(0x00, 0x20)\n      swap1\n    tag_91:\n      dup2\n      sload\n      dup2\n      mstore\n      swap1\n      0x01\n      add\n      swap1\n      0x20\n      add\n      dup1\n      dup4\n      gt\n      tag_91\n      jumpi\n      dup3\n      swap1\n      sub\n      0x1f\n      and\n      dup3\n      add\n      swap2\n    tag_89:\n      pop\n      pop\n      pop\n      pop\n      pop\n      dup2\n      mstore\n      0x20\n      add\n      0x01\n      dup3\n      add\n      dup1\n      sload\n      tag_92\n      swap1\n      tag_25\n      jump\t// in\n    tag_92:\n      dup1\n      0x1f\n      add\n      0x20\n      dup1\n      swap2\n      div\n      mul\n      0x20\n      add\n      mload(0x40)\n      swap1\n      dup2\n      add\n      0x40\n      mstore\n      dup1\n      swap3\n      swap2\n      swap1\n      dup2\n      dup2\n      mstore\n      0x20\n      add\n      dup3\n      dup1\n      sload\n      tag_93\n      swap1\n      tag_25\n      jump\t// in\n    tag_93:\n      dup1\n      iszero\n      tag_94\n      jumpi\n      dup1\n      0x1f\n      lt\n      tag_95\n      jumpi\n      0x0100\n      dup1\n      dup4\n      sload\n      div\n      mul\n      dup4\n      mstore\n      swap2\n      0x20\n      add\n      swap2\n      jump(tag_94)\n    tag_95:\n      dup3\n      add\n      swap2\n      swap1\n      0x00\n      mstore\n      keccak256(0x00, 0x20)\n      swap1\n    tag_96:\n      dup2\n      sload\n      dup2\n      mstore\n      swap1\n      0x01\n      add\n      swap1\n      0x20\n      add\n      dup1\n      dup4\n      gt\n      tag_96\n      jumpi\n      dup3\n      swap1\n      sub\n      0x1f\n      and\n      dup3\n      add\n      swap2\n    tag_94:\n      pop\n      pop\n      pop\n      pop\n      pop\n      dup2\n      mstore\n      pop\n      pop\n      swap2\n      pop\n        /* \"contracts/Indetity.sol\":1207:1371  if (userType == UserType.Basic && basicUsers[msg.sender]) {... */\n      jump(tag_97)\n    tag_85:\n        /* \"contracts/Indetity.sol\":1338:1348  msg.sender */\n      caller\n        /* \"contracts/Indetity.sol\":1350:1358  userType */\n      dup2\n        /* \"contracts/Indetity.sol\":1321:1359  UserUnauthorized(msg.sender, userType) */\n      mload(0x40)\n      0x301d703b00000000000000000000000000000000000000000000000000000000\n      dup2\n      mstore\n      0x04\n      add\n      tag_98\n      swap3\n      swap2\n      swap1\n      tag_46\n      jump\t// in\n    tag_98:\n      mload(0x40)\n      dup1\n      swap2\n      sub\n      swap1\n      revert\n        /* \"contracts/Indetity.sol\":1207:1371  if (userType == UserType.Basic && basicUsers[msg.sender]) {... */\n    tag_97:\n        /* \"contracts/Indetity.sol\":1119:1371  if (msg.sender == owner || personalUsers[msg.sender]) {... */\n    tag_79:\n        /* \"contracts/Indetity.sol\":1903:2031  function getBasicInfo() public view authorizeUser(UserType.Basic) returns (BasicInfo memory) {... */\n      pop\n      swap1\n      jump\t// out\n    tag_19:\n      mload(0x40)\n      dup1\n      0x40\n      add\n      0x40\n      mstore\n      dup1\n      0x00\n      dup2\n      mstore\n      0x20\n      add\n      0x60\n      dup2\n      mstore\n      pop\n      swap1\n      jump\t// out\n    tag_64:\n      mload(0x40)\n      dup1\n      0x40\n      add\n      0x40\n      mstore\n      dup1\n      0x60\n      dup2\n      mstore\n      0x20\n      add\n      0x60\n      dup2\n      mstore\n      pop\n      swap1\n      jump\t// out\n        /* \"#utility.yul\":7:84   */\n    tag_99:\n        /* \"#utility.yul\":44:51   */\n      0x00\n        /* \"#utility.yul\":73:78   */\n      dup2\n        /* \"#utility.yul\":62:78   */\n      swap1\n      pop\n        /* \"#utility.yul\":7:84   */\n      swap2\n      swap1\n      pop\n      jump\t// out\n        /* \"#utility.yul\":90:198   */\n    tag_100:\n        /* \"#utility.yul\":167:191   */\n      tag_129\n        /* \"#utility.yul\":185:190   */\n      dup2\n        /* \"#utility.yul\":167:191   */\n      tag_99\n      jump\t// in\n    tag_129:\n        /* \"#utility.yul\":162:165   */\n      dup3\n        /* \"#utility.yul\":155:192   */\n      mstore\n        /* \"#utility.yul\":90:198   */\n      pop\n      pop\n      jump\t// out\n        /* \"#utility.yul\":204:303   */\n    tag_101:\n        /* \"#utility.yul\":256:262   */\n      0x00\n        /* \"#utility.yul\":290:295   */\n      dup2\n        /* \"#utility.yul\":284:296   */\n      mload\n        /* \"#utility.yul\":274:296   */\n      swap1\n      pop\n        /* \"#utility.yul\":204:303   */\n      swap2\n      swap1\n      pop\n      jump\t// out\n        /* \"#utility.yul\":309:468   */\n    tag_102:\n        /* \"#utility.yul\":383:394   */\n      0x00\n        /* \"#utility.yul\":417:423   */\n      dup3\n        /* \"#utility.yul\":412:415   */\n      dup3\n        /* \"#utility.yul\":405:424   */\n      mstore\n        /* \"#utility.yul\":457:461   */\n      0x20\n        /* \"#utility.yul\":452:455   */\n      dup3\n        /* \"#utility.yul\":448:462   */\n      add\n        /* \"#utility.yul\":433:462   */\n      swap1\n      pop\n        /* \"#utility.yul\":309:468   */\n      swap3\n      swap2\n      pop\n      pop\n      jump\t// out\n        /* \"#utility.yul\":474:613   */\n    tag_103:\n        /* \"#utility.yul\":563:569   */\n      dup3\n        /* \"#utility.yul\":558:561   */\n      dup2\n        /* \"#utility.yul\":553:556   */\n      dup4\n        /* \"#utility.yul\":547:570   */\n      mcopy\n        /* \"#utility.yul\":604:605   */\n      0x00\n        /* \"#utility.yul\":595:601   */\n      dup4\n        /* \"#utility.yul\":590:593   */\n      dup4\n        /* \"#utility.yul\":586:602   */\n      add\n        /* \"#utility.yul\":579:606   */\n      mstore\n        /* \"#utility.yul\":474:613   */\n      pop\n      pop\n      pop\n      jump\t// out\n        /* \"#utility.yul\":619:721   */\n    tag_104:\n        /* \"#utility.yul\":660:666   */\n      0x00\n        /* \"#utility.yul\":711:713   */\n      0x1f\n        /* \"#utility.yul\":707:714   */\n      not\n        /* \"#utility.yul\":702:704   */\n      0x1f\n        /* \"#utility.yul\":695:700   */\n      dup4\n        /* \"#utility.yul\":691:705   */\n      add\n        /* \"#utility.yul\":687:715   */\n      and\n        /* \"#utility.yul\":677:715   */\n      swap1\n      pop\n        /* \"#utility.yul\":619:721   */\n      swap2\n      swap1\n      pop\n      jump\t// out\n        /* \"#utility.yul\":727:1084   */\n    tag_105:\n        /* \"#utility.yul\":805:808   */\n      0x00\n        /* \"#utility.yul\":833:872   */\n      tag_135\n        /* \"#utility.yul\":866:871   */\n      dup3\n        /* \"#utility.yul\":833:872   */\n      tag_101\n      jump\t// in\n    tag_135:\n        /* \"#utility.yul\":888:949   */\n      tag_136\n        /* \"#utility.yul\":942:948   */\n      dup2\n        /* \"#utility.yul\":937:940   */\n      dup6\n        /* \"#utility.yul\":888:949   */\n      tag_102\n      jump\t// in\n    tag_136:\n        /* \"#utility.yul\":881:949   */\n      swap4\n      pop\n        /* \"#utility.yul\":958:1023   */\n      tag_137\n        /* \"#utility.yul\":1016:1022   */\n      dup2\n        /* \"#utility.yul\":1011:1014   */\n      dup6\n        /* \"#utility.yul\":1004:1008   */\n      0x20\n        /* \"#utility.yul\":997:1002   */\n      dup7\n        /* \"#utility.yul\":993:1009   */\n      add\n        /* \"#utility.yul\":958:1023   */\n      tag_103\n      jump\t// in\n    tag_137:\n        /* \"#utility.yul\":1048:1077   */\n      tag_138\n        /* \"#utility.yul\":1070:1076   */\n      dup2\n        /* \"#utility.yul\":1048:1077   */\n      tag_104\n      jump\t// in\n    tag_138:\n        /* \"#utility.yul\":1043:1046   */\n      dup5\n        /* \"#utility.yul\":1039:1078   */\n      add\n        /* \"#utility.yul\":1032:1078   */\n      swap2\n      pop\n        /* \"#utility.yul\":809:1084   */\n      pop\n        /* \"#utility.yul\":727:1084   */\n      swap3\n      swap2\n      pop\n      pop\n      jump\t// out\n        /* \"#utility.yul\":1158:1776   */\n    tag_106:\n        /* \"#utility.yul\":1283:1286   */\n      0x00\n        /* \"#utility.yul\":1319:1323   */\n      0x40\n        /* \"#utility.yul\":1314:1317   */\n      dup4\n        /* \"#utility.yul\":1310:1324   */\n      add\n        /* \"#utility.yul\":1408:1412   */\n      0x00\n        /* \"#utility.yul\":1401:1406   */\n      dup4\n        /* \"#utility.yul\":1397:1413   */\n      add\n        /* \"#utility.yul\":1391:1414   */\n      mload\n        /* \"#utility.yul\":1427:1490   */\n      tag_140\n        /* \"#utility.yul\":1484:1488   */\n      0x00\n        /* \"#utility.yul\":1479:1482   */\n      dup7\n        /* \"#utility.yul\":1475:1489   */\n      add\n        /* \"#utility.yul\":1461:1473   */\n      dup3\n        /* \"#utility.yul\":1427:1490   */\n      tag_100\n      jump\t// in\n    tag_140:\n        /* \"#utility.yul\":1334:1500   */\n      pop\n        /* \"#utility.yul\":1586:1590   */\n      0x20\n        /* \"#utility.yul\":1579:1584   */\n      dup4\n        /* \"#utility.yul\":1575:1591   */\n      add\n        /* \"#utility.yul\":1569:1592   */\n      mload\n        /* \"#utility.yul\":1639:1642   */\n      dup5\n        /* \"#utility.yul\":1633:1637   */\n      dup3\n        /* \"#utility.yul\":1629:1643   */\n      sub\n        /* \"#utility.yul\":1622:1626   */\n      0x20\n        /* \"#utility.yul\":1617:1620   */\n      dup7\n        /* \"#utility.yul\":1613:1627   */\n      add\n        /* \"#utility.yul\":1606:1644   */\n      mstore\n        /* \"#utility.yul\":1665:1738   */\n      tag_141\n        /* \"#utility.yul\":1733:1737   */\n      dup3\n        /* \"#utility.yul\":1719:1731   */\n      dup3\n        /* \"#utility.yul\":1665:1738   */\n      tag_105\n      jump\t// in\n    tag_141:\n        /* \"#utility.yul\":1657:1738   */\n      swap2\n      pop\n        /* \"#utility.yul\":1510:1749   */\n      pop\n        /* \"#utility.yul\":1766:1770   */\n      dup1\n        /* \"#utility.yul\":1759:1770   */\n      swap2\n      pop\n        /* \"#utility.yul\":1288:1776   */\n      pop\n        /* \"#utility.yul\":1158:1776   */\n      swap3\n      swap2\n      pop\n      pop\n      jump\t// out\n        /* \"#utility.yul\":1782:2167   */\n    tag_9:\n        /* \"#utility.yul\":1931:1935   */\n      0x00\n        /* \"#utility.yul\":1969:1971   */\n      0x20\n        /* \"#utility.yul\":1958:1967   */\n      dup3\n        /* \"#utility.yul\":1954:1972   */\n      add\n        /* \"#utility.yul\":1946:1972   */\n      swap1\n      pop\n        /* \"#utility.yul\":2018:2027   */\n      dup2\n        /* \"#utility.yul\":2012:2016   */\n      dup2\n        /* \"#utility.yul\":2008:2028   */\n      sub\n        /* \"#utility.yul\":2004:2005   */\n      0x00\n        /* \"#utility.yul\":1993:2002   */\n      dup4\n        /* \"#utility.yul\":1989:2006   */\n      add\n        /* \"#utility.yul\":1982:2029   */\n      mstore\n        /* \"#utility.yul\":2046:2160   */\n      tag_143\n        /* \"#utility.yul\":2155:2159   */\n      dup2\n        /* \"#utility.yul\":2146:2152   */\n      dup5\n        /* \"#utility.yul\":2046:2160   */\n      tag_106\n      jump\t// in\n    tag_143:\n        /* \"#utility.yul\":2038:2160   */\n      swap1\n      pop\n        /* \"#utility.yul\":1782:2167   */\n      swap3\n      swap2\n      pop\n      pop\n      jump\t// out\n        /* \"#utility.yul\":2254:2371   */\n    tag_108:\n        /* \"#utility.yul\":2363:2364   */\n      0x00\n        /* \"#utility.yul\":2360:2361   */\n      dup1\n        /* \"#utility.yul\":2353:2365   */\n      revert\n        /* \"#utility.yul\":2500:2610   */\n    tag_110:\n        /* \"#utility.yul\":2584:2585   */\n      0x02\n        /* \"#utility.yul\":2577:2582   */\n      dup2\n        /* \"#utility.yul\":2574:2586   */\n      lt\n        /* \"#utility.yul\":2564:2604   */\n      tag_148\n      jumpi\n        /* \"#utility.yul\":2600:2601   */\n      0x00\n        /* \"#utility.yul\":2597:2598   */\n      dup1\n        /* \"#utility.yul\":2590:2602   */\n      revert\n        /* \"#utility.yul\":2564:2604   */\n    tag_148:\n        /* \"#utility.yul\":2500:2610   */\n      pop\n      jump\t// out\n        /* \"#utility.yul\":2616:2777   */\n    tag_111:\n        /* \"#utility.yul\":2673:2678   */\n      0x00\n        /* \"#utility.yul\":2711:2717   */\n      dup2\n        /* \"#utility.yul\":2698:2718   */\n      calldataload\n        /* \"#utility.yul\":2689:2718   */\n      swap1\n      pop\n        /* \"#utility.yul\":2727:2771   */\n      tag_150\n        /* \"#utility.yul\":2765:2770   */\n      dup2\n        /* \"#utility.yul\":2727:2771   */\n      tag_110\n      jump\t// in\n    tag_150:\n        /* \"#utility.yul\":2616:2777   */\n      swap3\n      swap2\n      pop\n      pop\n      jump\t// out\n        /* \"#utility.yul\":2783:2909   */\n    tag_112:\n        /* \"#utility.yul\":2820:2827   */\n      0x00\n        /* \"#utility.yul\":2860:2902   */\n      0xffffffffffffffffffffffffffffffffffffffff\n        /* \"#utility.yul\":2853:2858   */\n      dup3\n        /* \"#utility.yul\":2849:2903   */\n      and\n        /* \"#utility.yul\":2838:2903   */\n      swap1\n      pop\n        /* \"#utility.yul\":2783:2909   */\n      swap2\n      swap1\n      pop\n      jump\t// out\n        /* \"#utility.yul\":2915:3011   */\n    tag_113:\n        /* \"#utility.yul\":2952:2959   */\n      0x00\n        /* \"#utility.yul\":2981:3005   */\n      tag_153\n        /* \"#utility.yul\":2999:3004   */\n      dup3\n        /* \"#utility.yul\":2981:3005   */\n      tag_112\n      jump\t// in\n    tag_153:\n        /* \"#utility.yul\":2970:3005   */\n      swap1\n      pop\n        /* \"#utility.yul\":2915:3011   */\n      swap2\n      swap1\n      pop\n      jump\t// out\n        /* \"#utility.yul\":3017:3139   */\n    tag_114:\n        /* \"#utility.yul\":3090:3114   */\n      tag_155\n        /* \"#utility.yul\":3108:3113   */\n      dup2\n        /* \"#utility.yul\":3090:3114   */\n      tag_113\n      jump\t// in\n    tag_155:\n        /* \"#utility.yul\":3083:3088   */\n      dup2\n        /* \"#utility.yul\":3080:3115   */\n      eq\n        /* \"#utility.yul\":3070:3133   */\n      tag_156\n      jumpi\n        /* \"#utility.yul\":3129:3130   */\n      0x00\n        /* \"#utility.yul\":3126:3127   */\n      dup1\n        /* \"#utility.yul\":3119:3131   */\n      revert\n        /* \"#utility.yul\":3070:3133   */\n    tag_156:\n        /* \"#utility.yul\":3017:3139   */\n      pop\n      jump\t// out\n        /* \"#utility.yul\":3145:3284   */\n    tag_115:\n        /* \"#utility.yul\":3191:3196   */\n      0x00\n        /* \"#utility.yul\":3229:3235   */\n      dup2\n        /* \"#utility.yul\":3216:3236   */\n      calldataload\n        /* \"#utility.yul\":3207:3236   */\n      swap1\n      pop\n        /* \"#utility.yul\":3245:3278   */\n      tag_158\n        /* \"#utility.yul\":3272:3277   */\n      dup2\n        /* \"#utility.yul\":3245:3278   */\n      tag_114\n      jump\t// in\n    tag_158:\n        /* \"#utility.yul\":3145:3284   */\n      swap3\n      swap2\n      pop\n      pop\n      jump\t// out\n        /* \"#utility.yul\":3290:3786   */\n    tag_12:\n        /* \"#utility.yul\":3369:3375   */\n      0x00\n        /* \"#utility.yul\":3377:3383   */\n      dup1\n        /* \"#utility.yul\":3426:3428   */\n      0x40\n        /* \"#utility.yul\":3414:3423   */\n      dup4\n        /* \"#utility.yul\":3405:3412   */\n      dup6\n        /* \"#utility.yul\":3401:3424   */\n      sub\n        /* \"#utility.yul\":3397:3429   */\n      slt\n        /* \"#utility.yul\":3394:3513   */\n      iszero\n      tag_160\n      jumpi\n        /* \"#utility.yul\":3432:3511   */\n      tag_161\n      tag_108\n      jump\t// in\n    tag_161:\n        /* \"#utility.yul\":3394:3513   */\n    tag_160:\n        /* \"#utility.yul\":3552:3553   */\n      0x00\n        /* \"#utility.yul\":3577:3641   */\n      tag_162\n        /* \"#utility.yul\":3633:3640   */\n      dup6\n        /* \"#utility.yul\":3624:3630   */\n      dup3\n        /* \"#utility.yul\":3613:3622   */\n      dup7\n        /* \"#utility.yul\":3609:3631   */\n      add\n        /* \"#utility.yul\":3577:3641   */\n      tag_111\n      jump\t// in\n    tag_162:\n        /* \"#utility.yul\":3567:3641   */\n      swap3\n      pop\n        /* \"#utility.yul\":3523:3651   */\n      pop\n        /* \"#utility.yul\":3690:3692   */\n      0x20\n        /* \"#utility.yul\":3716:3769   */\n      tag_163\n        /* \"#utility.yul\":3761:3768   */\n      dup6\n        /* \"#utility.yul\":3752:3758   */\n      dup3\n        /* \"#utility.yul\":3741:3750   */\n      dup7\n        /* \"#utility.yul\":3737:3759   */\n      add\n        /* \"#utility.yul\":3716:3769   */\n      tag_115\n      jump\t// in\n    tag_163:\n        /* \"#utility.yul\":3706:3769   */\n      swap2\n      pop\n        /* \"#utility.yul\":3661:3779   */\n      pop\n        /* \"#utility.yul\":3290:3786   */\n      swap3\n      pop\n      swap3\n      swap1\n      pop\n      jump\t// out\n        /* \"#utility.yul\":3854:4530   */\n    tag_116:\n        /* \"#utility.yul\":3971:3974   */\n      0x00\n        /* \"#utility.yul\":4007:4011   */\n      0x40\n        /* \"#utility.yul\":4002:4005   */\n      dup4\n        /* \"#utility.yul\":3998:4012   */\n      add\n        /* \"#utility.yul\":4094:4098   */\n      0x00\n        /* \"#utility.yul\":4087:4092   */\n      dup4\n        /* \"#utility.yul\":4083:4099   */\n      add\n        /* \"#utility.yul\":4077:4100   */\n      mload\n        /* \"#utility.yul\":4147:4150   */\n      dup5\n        /* \"#utility.yul\":4141:4145   */\n      dup3\n        /* \"#utility.yul\":4137:4151   */\n      sub\n        /* \"#utility.yul\":4130:4134   */\n      0x00\n        /* \"#utility.yul\":4125:4128   */\n      dup7\n        /* \"#utility.yul\":4121:4135   */\n      add\n        /* \"#utility.yul\":4114:4152   */\n      mstore\n        /* \"#utility.yul\":4173:4246   */\n      tag_165\n        /* \"#utility.yul\":4241:4245   */\n      dup3\n        /* \"#utility.yul\":4227:4239   */\n      dup3\n        /* \"#utility.yul\":4173:4246   */\n      tag_105\n      jump\t// in\n    tag_165:\n        /* \"#utility.yul\":4165:4246   */\n      swap2\n      pop\n        /* \"#utility.yul\":4022:4257   */\n      pop\n        /* \"#utility.yul\":4340:4344   */\n      0x20\n        /* \"#utility.yul\":4333:4338   */\n      dup4\n        /* \"#utility.yul\":4329:4345   */\n      add\n        /* \"#utility.yul\":4323:4346   */\n      mload\n        /* \"#utility.yul\":4393:4396   */\n      dup5\n        /* \"#utility.yul\":4387:4391   */\n      dup3\n        /* \"#utility.yul\":4383:4397   */\n      sub\n        /* \"#utility.yul\":4376:4380   */\n      0x20\n        /* \"#utility.yul\":4371:4374   */\n      dup7\n        /* \"#utility.yul\":4367:4381   */\n      add\n        /* \"#utility.yul\":4360:4398   */\n      mstore\n        /* \"#utility.yul\":4419:4492   */\n      tag_166\n        /* \"#utility.yul\":4487:4491   */\n      dup3\n        /* \"#utility.yul\":4473:4485   */\n      dup3\n        /* \"#utility.yul\":4419:4492   */\n      tag_105\n      jump\t// in\n    tag_166:\n        /* \"#utility.yul\":4411:4492   */\n      swap2\n      pop\n        /* \"#utility.yul\":4267:4503   */\n      pop\n        /* \"#utility.yul\":4520:4524   */\n      dup1\n        /* \"#utility.yul\":4513:4524   */\n      swap2\n      pop\n        /* \"#utility.yul\":3976:4530   */\n      pop\n        /* \"#utility.yul\":3854:4530   */\n      swap3\n      swap2\n      pop\n      pop\n      jump\t// out\n        /* \"#utility.yul\":4536:4905   */\n    tag_17:\n        /* \"#utility.yul\":4677:4681   */\n      0x00\n        /* \"#utility.yul\":4715:4717   */\n      0x20\n        /* \"#utility.yul\":4704:4713   */\n      dup3\n        /* \"#utility.yul\":4700:4718   */\n      add\n        /* \"#utility.yul\":4692:4718   */\n      swap1\n      pop\n        /* \"#utility.yul\":4764:4773   */\n      dup2\n        /* \"#utility.yul\":4758:4762   */\n      dup2\n        /* \"#utility.yul\":4754:4774   */\n      sub\n        /* \"#utility.yul\":4750:4751   */\n      0x00\n        /* \"#utility.yul\":4739:4748   */\n      dup4\n        /* \"#utility.yul\":4735:4752   */\n      add\n        /* \"#utility.yul\":4728:4775   */\n      mstore\n        /* \"#utility.yul\":4792:4898   */\n      tag_168\n        /* \"#utility.yul\":4893:4897   */\n      dup2\n        /* \"#utility.yul\":4884:4890   */\n      dup5\n        /* \"#utility.yul\":4792:4898   */\n      tag_116\n      jump\t// in\n    tag_168:\n        /* \"#utility.yul\":4784:4898   */\n      swap1\n      pop\n        /* \"#utility.yul\":4536:4905   */\n      swap3\n      swap2\n      pop\n      pop\n      jump\t// out\n        /* \"#utility.yul\":4911:5091   */\n    tag_117:\n        /* \"#utility.yul\":4959:5036   */\n      0x4e487b7100000000000000000000000000000000000000000000000000000000\n        /* \"#utility.yul\":4956:4957   */\n      0x00\n        /* \"#utility.yul\":4949:5037   */\n      mstore\n        /* \"#utility.yul\":5056:5060   */\n      0x22\n        /* \"#utility.yul\":5053:5054   */\n      0x04\n        /* \"#utility.yul\":5046:5061   */\n      mstore\n        /* \"#utility.yul\":5080:5084   */\n      0x24\n        /* \"#utility.yul\":5077:5078   */\n      0x00\n        /* \"#utility.yul\":5070:5085   */\n      revert\n        /* \"#utility.yul\":5097:5417   */\n    tag_25:\n        /* \"#utility.yul\":5141:5147   */\n      0x00\n        /* \"#utility.yul\":5178:5179   */\n      0x02\n        /* \"#utility.yul\":5172:5176   */\n      dup3\n        /* \"#utility.yul\":5168:5180   */\n      div\n        /* \"#utility.yul\":5158:5180   */\n      swap1\n      pop\n        /* \"#utility.yul\":5225:5226   */\n      0x01\n        /* \"#utility.yul\":5219:5223   */\n      dup3\n        /* \"#utility.yul\":5215:5227   */\n      and\n        /* \"#utility.yul\":5246:5264   */\n      dup1\n        /* \"#utility.yul\":5236:5317   */\n      tag_171\n      jumpi\n        /* \"#utility.yul\":5302:5306   */\n      0x7f\n        /* \"#utility.yul\":5294:5300   */\n      dup3\n        /* \"#utility.yul\":5290:5307   */\n      and\n        /* \"#utility.yul\":5280:5307   */\n      swap2\n      pop\n        /* \"#utility.yul\":5236:5317   */\n    tag_171:\n        /* \"#utility.yul\":5364:5366   */\n      0x20\n        /* \"#utility.yul\":5356:5362   */\n      dup3\n        /* \"#utility.yul\":5353:5367   */\n      lt\n        /* \"#utility.yul\":5333:5351   */\n      dup2\n        /* \"#utility.yul\":5330:5368   */\n      sub\n        /* \"#utility.yul\":5327:5411   */\n      tag_172\n      jumpi\n        /* \"#utility.yul\":5383:5401   */\n      tag_173\n      tag_117\n      jump\t// in\n    tag_173:\n        /* \"#utility.yul\":5327:5411   */\n    tag_172:\n        /* \"#utility.yul\":5148:5417   */\n      pop\n        /* \"#utility.yul\":5097:5417   */\n      swap2\n      swap1\n      pop\n      jump\t// out\n        /* \"#utility.yul\":5423:5603   */\n    tag_33:\n        /* \"#utility.yul\":5471:5548   */\n      0x4e487b7100000000000000000000000000000000000000000000000000000000\n        /* \"#utility.yul\":5468:5469   */\n      0x00\n        /* \"#utility.yul\":5461:5549   */\n      mstore\n        /* \"#utility.yul\":5568:5572   */\n      0x21\n        /* \"#utility.yul\":5565:5566   */\n      0x04\n        /* \"#utility.yul\":5558:5573   */\n      mstore\n        /* \"#utility.yul\":5592:5596   */\n      0x24\n        /* \"#utility.yul\":5589:5590   */\n      0x00\n        /* \"#utility.yul\":5582:5597   */\n      revert\n        /* \"#utility.yul\":5609:5727   */\n    tag_118:\n        /* \"#utility.yul\":5696:5720   */\n      tag_176\n        /* \"#utility.yul\":5714:5719   */\n      dup2\n        /* \"#utility.yul\":5696:5720   */\n      tag_113\n      jump\t// in\n    tag_176:\n        /* \"#utility.yul\":5691:5694   */\n      dup3\n        /* \"#utility.yul\":5684:5721   */\n      mstore\n        /* \"#utility.yul\":5609:5727   */\n      pop\n      pop\n      jump\t// out\n        /* \"#utility.yul\":5733:5849   */\n    tag_119:\n        /* \"#utility.yul\":5817:5818   */\n      0x02\n        /* \"#utility.yul\":5810:5815   */\n      dup2\n        /* \"#utility.yul\":5807:5819   */\n      lt\n        /* \"#utility.yul\":5797:5843   */\n      tag_178\n      jumpi\n        /* \"#utility.yul\":5823:5841   */\n      tag_179\n      tag_33\n      jump\t// in\n    tag_179:\n        /* \"#utility.yul\":5797:5843   */\n    tag_178:\n        /* \"#utility.yul\":5733:5849   */\n      pop\n      jump\t// out\n        /* \"#utility.yul\":5855:5988   */\n    tag_120:\n        /* \"#utility.yul\":5903:5910   */\n      0x00\n        /* \"#utility.yul\":5932:5937   */\n      dup2\n        /* \"#utility.yul\":5921:5937   */\n      swap1\n      pop\n        /* \"#utility.yul\":5938:5982   */\n      tag_181\n        /* \"#utility.yul\":5976:5981   */\n      dup3\n        /* \"#utility.yul\":5938:5982   */\n      tag_119\n      jump\t// in\n    tag_181:\n        /* \"#utility.yul\":5855:5988   */\n      swap2\n      swap1\n      pop\n      jump\t// out\n        /* \"#utility.yul\":5994:6127   */\n    tag_121:\n        /* \"#utility.yul\":6053:6062   */\n      0x00\n        /* \"#utility.yul\":6086:6121   */\n      tag_183\n        /* \"#utility.yul\":6115:6120   */\n      dup3\n        /* \"#utility.yul\":6086:6121   */\n      tag_120\n      jump\t// in\n    tag_183:\n        /* \"#utility.yul\":6073:6121   */\n      swap1\n      pop\n        /* \"#utility.yul\":5994:6127   */\n      swap2\n      swap1\n      pop\n      jump\t// out\n        /* \"#utility.yul\":6133:6282   */\n    tag_122:\n        /* \"#utility.yul\":6229:6275   */\n      tag_185\n        /* \"#utility.yul\":6269:6274   */\n      dup2\n        /* \"#utility.yul\":6229:6275   */\n      tag_121\n      jump\t// in\n    tag_185:\n        /* \"#utility.yul\":6224:6227   */\n      dup3\n        /* \"#utility.yul\":6217:6276   */\n      mstore\n        /* \"#utility.yul\":6133:6282   */\n      pop\n      pop\n      jump\t// out\n        /* \"#utility.yul\":6288:6638   */\n    tag_46:\n        /* \"#utility.yul\":6418:6422   */\n      0x00\n        /* \"#utility.yul\":6456:6458   */\n      0x40\n        /* \"#utility.yul\":6445:6454   */\n      dup3\n        /* \"#utility.yul\":6441:6459   */\n      add\n        /* \"#utility.yul\":6433:6459   */\n      swap1\n      pop\n        /* \"#utility.yul\":6469:6540   */\n      tag_187\n        /* \"#utility.yul\":6537:6538   */\n      0x00\n        /* \"#utility.yul\":6526:6535   */\n      dup4\n        /* \"#utility.yul\":6522:6539   */\n      add\n        /* \"#utility.yul\":6513:6519   */\n      dup6\n        /* \"#utility.yul\":6469:6540   */\n      tag_118\n      jump\t// in\n    tag_187:\n        /* \"#utility.yul\":6550:6631   */\n      tag_188\n        /* \"#utility.yul\":6627:6629   */\n      0x20\n        /* \"#utility.yul\":6616:6625   */\n      dup4\n        /* \"#utility.yul\":6612:6630   */\n      add\n        /* \"#utility.yul\":6603:6609   */\n      dup5\n        /* \"#utility.yul\":6550:6631   */\n      tag_122\n      jump\t// in\n    tag_188:\n        /* \"#utility.yul\":6288:6638   */\n      swap4\n      swap3\n      pop\n      pop\n      pop\n      jump\t// out\n        /* \"#utility.yul\":6644:6813   */\n    tag_123:\n        /* \"#utility.yul\":6728:6739   */\n      0x00\n        /* \"#utility.yul\":6762:6768   */\n      dup3\n        /* \"#utility.yul\":6757:6760   */\n      dup3\n        /* \"#utility.yul\":6750:6769   */\n      mstore\n        /* \"#utility.yul\":6802:6806   */\n      0x20\n        /* \"#utility.yul\":6797:6800   */\n      dup3\n        /* \"#utility.yul\":6793:6807   */\n      add\n        /* \"#utility.yul\":6778:6807   */\n      swap1\n      pop\n        /* \"#utility.yul\":6644:6813   */\n      swap3\n      swap2\n      pop\n      pop\n      jump\t// out\n        /* \"#utility.yul\":6819:6999   */\n    tag_124:\n        /* \"#utility.yul\":6959:6991   */\n      0x4f6e6c79206f776e65722063616e20617574686f72697a652075736572730000\n        /* \"#utility.yul\":6955:6956   */\n      0x00\n        /* \"#utility.yul\":6947:6953   */\n      dup3\n        /* \"#utility.yul\":6943:6957   */\n      add\n        /* \"#utility.yul\":6936:6992   */\n      mstore\n        /* \"#utility.yul\":6819:6999   */\n      pop\n      jump\t// out\n        /* \"#utility.yul\":7005:7371   */\n    tag_125:\n        /* \"#utility.yul\":7147:7150   */\n      0x00\n        /* \"#utility.yul\":7168:7235   */\n      tag_192\n        /* \"#utility.yul\":7232:7234   */\n      0x1e\n        /* \"#utility.yul\":7227:7230   */\n      dup4\n        /* \"#utility.yul\":7168:7235   */\n      tag_123\n      jump\t// in\n    tag_192:\n        /* \"#utility.yul\":7161:7235   */\n      swap2\n      pop\n        /* \"#utility.yul\":7244:7337   */\n      tag_193\n        /* \"#utility.yul\":7333:7336   */\n      dup3\n        /* \"#utility.yul\":7244:7337   */\n      tag_124\n      jump\t// in\n    tag_193:\n        /* \"#utility.yul\":7362:7364   */\n      0x20\n        /* \"#utility.yul\":7357:7360   */\n      dup3\n        /* \"#utility.yul\":7353:7365   */\n      add\n        /* \"#utility.yul\":7346:7365   */\n      swap1\n      pop\n        /* \"#utility.yul\":7005:7371   */\n      swap2\n      swap1\n      pop\n      jump\t// out\n        /* \"#utility.yul\":7377:7796   */\n    tag_50:\n        /* \"#utility.yul\":7543:7547   */\n      0x00\n        /* \"#utility.yul\":7581:7583   */\n      0x20\n        /* \"#utility.yul\":7570:7579   */\n      dup3\n        /* \"#utility.yul\":7566:7584   */\n      add\n        /* \"#utility.yul\":7558:7584   */\n      swap1\n      pop\n        /* \"#utility.yul\":7630:7639   */\n      dup2\n        /* \"#utility.yul\":7624:7628   */\n      dup2\n        /* \"#utility.yul\":7620:7640   */\n      sub\n        /* \"#utility.yul\":7616:7617   */\n      0x00\n        /* \"#utility.yul\":7605:7614   */\n      dup4\n        /* \"#utility.yul\":7601:7618   */\n      add\n        /* \"#utility.yul\":7594:7641   */\n      mstore\n        /* \"#utility.yul\":7658:7789   */\n      tag_195\n        /* \"#utility.yul\":7784:7788   */\n      dup2\n        /* \"#utility.yul\":7658:7789   */\n      tag_125\n      jump\t// in\n    tag_195:\n        /* \"#utility.yul\":7650:7789   */\n      swap1\n      pop\n        /* \"#utility.yul\":7377:7796   */\n      swap2\n      swap1\n      pop\n      jump\t// out\n\n    auxdata: 0xa2646970667358221220e8192904eed9710dfa483f5add403b5ea722919fb8cdf0779123e003d39a4d1264736f6c63430008190033\n}\n",
				"bytecode": {
					"linkReferences": {},
					"object": "608060405234801561000f575f80fd5b506040516112cc3803806112cc83398181016040528101906100319190610275565b6040518060400160405280858152602001848152505f80820151815f01908161005a9190610531565b5060208201518160010190816100709190610531565b5090505060405180604001604052808381526020018281525060025f820151815f015560208201518160010190816100a89190610531565b509050503360045f6101000a81548173ffffffffffffffffffffffffffffffffffffffff021916908373ffffffffffffffffffffffffffffffffffffffff16021790555050505050610600565b5f604051905090565b5f80fd5b5f80fd5b5f80fd5b5f80fd5b5f601f19601f8301169050919050565b7f4e487b71000000000000000000000000000000000000000000000000000000005f52604160045260245ffd5b6101548261010e565b810181811067ffffffffffffffff821117156101735761017261011e565b5b80604052505050565b5f6101856100f5565b9050610191828261014b565b919050565b5f67ffffffffffffffff8211156101b0576101af61011e565b5b6101b98261010e565b9050602081019050919050565b8281835e5f83830152505050565b5f6101e66101e184610196565b61017c565b9050828152602081018484840111156102025761020161010a565b5b61020d8482856101c6565b509392505050565b5f82601f83011261022957610228610106565b5b81516102398482602086016101d4565b91505092915050565b5f819050919050565b61025481610242565b811461025e575f80fd5b50565b5f8151905061026f8161024b565b92915050565b5f805f806080858703121561028d5761028c6100fe565b5b5f85015167ffffffffffffffff8111156102aa576102a9610102565b5b6102b687828801610215565b945050602085015167ffffffffffffffff8111156102d7576102d6610102565b5b6102e387828801610215565b93505060406102f487828801610261565b925050606085015167ffffffffffffffff81111561031557610314610102565b5b61032187828801610215565b91505092959194509250565b5f81519050919050565b7f4e487b71000000000000000000000000000000000000000000000000000000005f52602260045260245ffd5b5f600282049050600182168061037b57607f821691505b60208210810361038e5761038d610337565b5b50919050565b5f819050815f5260205f209050919050565b5f6020601f8301049050919050565b5f82821b905092915050565b5f600883026103f07fffffffffffffffffffffffffffffffffffffffffffffffffffffffffffffffff826103b5565b6103fa86836103b5565b95508019841693508086168417925050509392505050565b5f819050919050565b5f61043561043061042b84610242565b610412565b610242565b9050919050565b5f819050919050565b61044e8361041b565b61046261045a8261043c565b8484546103c1565b825550505050565b5f90565b61047661046a565b610481818484610445565b505050565b5b818110156104a4576104995f8261046e565b600181019050610487565b5050565b601f8211156104e9576104ba81610394565b6104c3846103a6565b810160208510156104d2578190505b6104e66104de856103a6565b830182610486565b50505b505050565b5f82821c905092915050565b5f6105095f19846008026104ee565b1980831691505092915050565b5f61052183836104fa565b9150826002028217905092915050565b61053a8261032d565b67ffffffffffffffff8111156105535761055261011e565b5b61055d8254610364565b6105688282856104a8565b5f60209050601f831160018114610599575f8415610587578287015190505b6105918582610516565b8655506105f8565b601f1984166105a786610394565b5f5b828110156105ce578489015182556001820191506020850194506020810190506105a9565b868310156105eb57848901516105e7601f8916826104fa565b8355505b6001600288020188555050505b505050505050565b610cbf8061060d5f395ff3fe608060405234801561000f575f80fd5b506004361061003f575f3560e01c806381f539ff146100435780639f0010fc146100615780639f999da31461007d575b5f80fd5b61004b61009b565b60405161005891906109cb565b60405180910390f35b61007b60048036038101906100769190610a6c565b610367565b005b610085610501565b6040516100929190610aeb565b60405180910390f35b6100a36108d6565b600160045f9054906101000a900473ffffffffffffffffffffffffffffffffffffffff1673ffffffffffffffffffffffffffffffffffffffff163373ffffffffffffffffffffffffffffffffffffffff161480610146575060065f3373ffffffffffffffffffffffffffffffffffffffff1673ffffffffffffffffffffffffffffffffffffffff1681526020019081526020015f205f9054906101000a900460ff165b156101f85760026040518060400160405290815f820154815260200160018201805461017190610b38565b80601f016020809104026020016040519081016040528092919081815260200182805461019d90610b38565b80156101e85780601f106101bf576101008083540402835291602001916101e8565b820191905f5260205f20905b8154815290600101906020018083116101cb57829003601f168201915b5050505050815250509150610363565b5f600181111561020b5761020a610b68565b5b81600181111561021e5761021d610b68565b5b148015610271575060055f3373ffffffffffffffffffffffffffffffffffffffff1673ffffffffffffffffffffffffffffffffffffffff1681526020019081526020015f205f9054906101000a900460ff165b156103235760026040518060400160405290815f820154815260200160018201805461029c90610b38565b80601f01602080910402602001604051908101604052809291908181526020018280546102c890610b38565b80156103135780601f106102ea57610100808354040283529160200191610313565b820191905f5260205f20905b8154815290600101906020018083116102f657829003601f168201915b5050505050815250509150610362565b33816040517f301d703b000000000000000000000000000000000000000000000000000000008152600401610359929190610bea565b60405180910390fd5b5b5090565b60045f9054906101000a900473ffffffffffffffffffffffffffffffffffffffff1673ffffffffffffffffffffffffffffffffffffffff163373ffffffffffffffffffffffffffffffffffffffff16146103f6576040517f08c379a00000000000000000000000000000000000000000000000000000000081526004016103ed90610c6b565b60405180910390fd5b5f600181111561040957610408610b68565b5b82600181111561041c5761041b610b68565b5b0361047b57600160055f8373ffffffffffffffffffffffffffffffffffffffff1673ffffffffffffffffffffffffffffffffffffffff1681526020019081526020015f205f6101000a81548160ff0219169083151502179055506104fd565b60018081111561048e5761048d610b68565b5b8260018111156104a1576104a0610b68565b5b036104fc57600160065f8373ffffffffffffffffffffffffffffffffffffffff1673ffffffffffffffffffffffffffffffffffffffff1681526020019081526020015f205f6101000a81548160ff0219169083151502179055505b5b5050565b6105096108ef565b5f60045f9054906101000a900473ffffffffffffffffffffffffffffffffffffffff1673ffffffffffffffffffffffffffffffffffffffff163373ffffffffffffffffffffffffffffffffffffffff1614806105ab575060065f3373ffffffffffffffffffffffffffffffffffffffff1673ffffffffffffffffffffffffffffffffffffffff1681526020019081526020015f205f9054906101000a900460ff165b156106e2575f6040518060400160405290815f820180546105cb90610b38565b80601f01602080910402602001604051908101604052809291908181526020018280546105f790610b38565b80156106425780601f1061061957610100808354040283529160200191610642565b820191905f5260205f20905b81548152906001019060200180831161062557829003601f168201915b5050505050815260200160018201805461065b90610b38565b80601f016020809104026020016040519081016040528092919081815260200182805461068790610b38565b80156106d25780601f106106a9576101008083540402835291602001916106d2565b820191905f5260205f20905b8154815290600101906020018083116106b557829003601f168201915b50505050508152505091506108d2565b5f60018111156106f5576106f4610b68565b5b81600181111561070857610707610b68565b5b14801561075b575060055f3373ffffffffffffffffffffffffffffffffffffffff1673ffffffffffffffffffffffffffffffffffffffff1681526020019081526020015f205f9054906101000a900460ff165b15610892575f6040518060400160405290815f8201805461077b90610b38565b80601f01602080910402602001604051908101604052809291908181526020018280546107a790610b38565b80156107f25780601f106107c9576101008083540402835291602001916107f2565b820191905f5260205f20905b8154815290600101906020018083116107d557829003601f168201915b5050505050815260200160018201805461080b90610b38565b80601f016020809104026020016040519081016040528092919081815260200182805461083790610b38565b80156108825780601f1061085957610100808354040283529160200191610882565b820191905f5260205f20905b81548152906001019060200180831161086557829003601f168201915b50505050508152505091506108d1565b33816040517f301d703b0000000000000000000000000000000000000000000000000000000081526004016108c8929190610bea565b60405180910390fd5b5b5090565b60405180604001604052805f8152602001606081525090565b604051806040016040528060608152602001606081525090565b5f819050919050565b61091b81610909565b82525050565b5f81519050919050565b5f82825260208201905092915050565b8281835e5f83830152505050565b5f601f19601f8301169050919050565b5f61096382610921565b61096d818561092b565b935061097d81856020860161093b565b61098681610949565b840191505092915050565b5f604083015f8301516109a65f860182610912565b50602083015184820360208601526109be8282610959565b9150508091505092915050565b5f6020820190508181035f8301526109e38184610991565b905092915050565b5f80fd5b600281106109fb575f80fd5b50565b5f81359050610a0c816109ef565b92915050565b5f73ffffffffffffffffffffffffffffffffffffffff82169050919050565b5f610a3b82610a12565b9050919050565b610a4b81610a31565b8114610a55575f80fd5b50565b5f81359050610a6681610a42565b92915050565b5f8060408385031215610a8257610a816109eb565b5b5f610a8f858286016109fe565b9250506020610aa085828601610a58565b9150509250929050565b5f604083015f8301518482035f860152610ac48282610959565b91505060208301518482036020860152610ade8282610959565b9150508091505092915050565b5f6020820190508181035f830152610b038184610aaa565b905092915050565b7f4e487b71000000000000000000000000000000000000000000000000000000005f52602260045260245ffd5b5f6002820490506001821680610b4f57607f821691505b602082108103610b6257610b61610b0b565b5b50919050565b7f4e487b71000000000000000000000000000000000000000000000000000000005f52602160045260245ffd5b610b9e81610a31565b82525050565b60028110610bb557610bb4610b68565b5b50565b5f819050610bc582610ba4565b919050565b5f610bd482610bb8565b9050919050565b610be481610bca565b82525050565b5f604082019050610bfd5f830185610b95565b610c0a6020830184610bdb565b9392505050565b5f82825260208201905092915050565b7f4f6e6c79206f776e65722063616e20617574686f72697a6520757365727300005f82015250565b5f610c55601e83610c11565b9150610c6082610c21565b602082019050919050565b5f6020820190508181035f830152610c8281610c49565b905091905056fea2646970667358221220e8192904eed9710dfa483f5add403b5ea722919fb8cdf0779123e003d39a4d1264736f6c63430008190033",
					"opcodes": "PUSH1 0x80 PUSH1 0x40 MSTORE CALLVALUE DUP1 ISZERO PUSH2 0xF JUMPI PUSH0 DUP1 REVERT JUMPDEST POP PUSH1 0x40 MLOAD PUSH2 0x12CC CODESIZE SUB DUP1 PUSH2 0x12CC DUP4 CODECOPY DUP2 DUP2 ADD PUSH1 0x40 MSTORE DUP2 ADD SWAP1 PUSH2 0x31 SWAP2 SWAP1 PUSH2 0x275 JUMP JUMPDEST PUSH1 0x40 MLOAD DUP1 PUSH1 0x40 ADD PUSH1 0x40 MSTORE DUP1 DUP6 DUP2 MSTORE PUSH1 0x20 ADD DUP5 DUP2 MSTORE POP PUSH0 DUP1 DUP3 ADD MLOAD DUP2 PUSH0 ADD SWAP1 DUP2 PUSH2 0x5A SWAP2 SWAP1 PUSH2 0x531 JUMP JUMPDEST POP PUSH1 0x20 DUP3 ADD MLOAD DUP2 PUSH1 0x1 ADD SWAP1 DUP2 PUSH2 0x70 SWAP2 SWAP1 PUSH2 0x531 JUMP JUMPDEST POP SWAP1 POP POP PUSH1 0x40 MLOAD DUP1 PUSH1 0x40 ADD PUSH1 0x40 MSTORE DUP1 DUP4 DUP2 MSTORE PUSH1 0x20 ADD DUP3 DUP2 MSTORE POP PUSH1 0x2 PUSH0 DUP3 ADD MLOAD DUP2 PUSH0 ADD SSTORE PUSH1 0x20 DUP3 ADD MLOAD DUP2 PUSH1 0x1 ADD SWAP1 DUP2 PUSH2 0xA8 SWAP2 SWAP1 PUSH2 0x531 JUMP JUMPDEST POP SWAP1 POP POP CALLER PUSH1 0x4 PUSH0 PUSH2 0x100 EXP DUP2 SLOAD DUP2 PUSH20 0xFFFFFFFFFFFFFFFFFFFFFFFFFFFFFFFFFFFFFFFF MUL NOT AND SWAP1 DUP4 PUSH20 0xFFFFFFFFFFFFFFFFFFFFFFFFFFFFFFFFFFFFFFFF AND MUL OR SWAP1 SSTORE POP POP POP POP POP PUSH2 0x600 JUMP JUMPDEST PUSH0 PUSH1 0x40 MLOAD SWAP1 POP SWAP1 JUMP JUMPDEST PUSH0 DUP1 REVERT JUMPDEST PUSH0 DUP1 REVERT JUMPDEST PUSH0 DUP1 REVERT JUMPDEST PUSH0 DUP1 REVERT JUMPDEST PUSH0 PUSH1 0x1F NOT PUSH1 0x1F DUP4 ADD AND SWAP1 POP SWAP2 SWAP1 POP JUMP JUMPDEST PUSH32 0x4E487B7100000000000000000000000000000000000000000000000000000000 PUSH0 MSTORE PUSH1 0x41 PUSH1 0x4 MSTORE PUSH1 0x24 PUSH0 REVERT JUMPDEST PUSH2 0x154 DUP3 PUSH2 0x10E JUMP JUMPDEST DUP2 ADD DUP2 DUP2 LT PUSH8 0xFFFFFFFFFFFFFFFF DUP3 GT OR ISZERO PUSH2 0x173 JUMPI PUSH2 0x172 PUSH2 0x11E JUMP JUMPDEST JUMPDEST DUP1 PUSH1 0x40 MSTORE POP POP POP JUMP JUMPDEST PUSH0 PUSH2 0x185 PUSH2 0xF5 JUMP JUMPDEST SWAP1 POP PUSH2 0x191 DUP3 DUP3 PUSH2 0x14B JUMP JUMPDEST SWAP2 SWAP1 POP JUMP JUMPDEST PUSH0 PUSH8 0xFFFFFFFFFFFFFFFF DUP3 GT ISZERO PUSH2 0x1B0 JUMPI PUSH2 0x1AF PUSH2 0x11E JUMP JUMPDEST JUMPDEST PUSH2 0x1B9 DUP3 PUSH2 0x10E JUMP JUMPDEST SWAP1 POP PUSH1 0x20 DUP2 ADD SWAP1 POP SWAP2 SWAP1 POP JUMP JUMPDEST DUP3 DUP2 DUP4 MCOPY PUSH0 DUP4 DUP4 ADD MSTORE POP POP POP JUMP JUMPDEST PUSH0 PUSH2 0x1E6 PUSH2 0x1E1 DUP5 PUSH2 0x196 JUMP JUMPDEST PUSH2 0x17C JUMP JUMPDEST SWAP1 POP DUP3 DUP2 MSTORE PUSH1 0x20 DUP2 ADD DUP5 DUP5 DUP5 ADD GT ISZERO PUSH2 0x202 JUMPI PUSH2 0x201 PUSH2 0x10A JUMP JUMPDEST JUMPDEST PUSH2 0x20D DUP5 DUP3 DUP6 PUSH2 0x1C6 JUMP JUMPDEST POP SWAP4 SWAP3 POP POP POP JUMP JUMPDEST PUSH0 DUP3 PUSH1 0x1F DUP4 ADD SLT PUSH2 0x229 JUMPI PUSH2 0x228 PUSH2 0x106 JUMP JUMPDEST JUMPDEST DUP2 MLOAD PUSH2 0x239 DUP5 DUP3 PUSH1 0x20 DUP7 ADD PUSH2 0x1D4 JUMP JUMPDEST SWAP2 POP POP SWAP3 SWAP2 POP POP JUMP JUMPDEST PUSH0 DUP2 SWAP1 POP SWAP2 SWAP1 POP JUMP JUMPDEST PUSH2 0x254 DUP2 PUSH2 0x242 JUMP JUMPDEST DUP2 EQ PUSH2 0x25E JUMPI PUSH0 DUP1 REVERT JUMPDEST POP JUMP JUMPDEST PUSH0 DUP2 MLOAD SWAP1 POP PUSH2 0x26F DUP2 PUSH2 0x24B JUMP JUMPDEST SWAP3 SWAP2 POP POP JUMP JUMPDEST PUSH0 DUP1 PUSH0 DUP1 PUSH1 0x80 DUP6 DUP8 SUB SLT ISZERO PUSH2 0x28D JUMPI PUSH2 0x28C PUSH2 0xFE JUMP JUMPDEST JUMPDEST PUSH0 DUP6 ADD MLOAD PUSH8 0xFFFFFFFFFFFFFFFF DUP2 GT ISZERO PUSH2 0x2AA JUMPI PUSH2 0x2A9 PUSH2 0x102 JUMP JUMPDEST JUMPDEST PUSH2 0x2B6 DUP8 DUP3 DUP9 ADD PUSH2 0x215 JUMP JUMPDEST SWAP5 POP POP PUSH1 0x20 DUP6 ADD MLOAD PUSH8 0xFFFFFFFFFFFFFFFF DUP2 GT ISZERO PUSH2 0x2D7 JUMPI PUSH2 0x2D6 PUSH2 0x102 JUMP JUMPDEST JUMPDEST PUSH2 0x2E3 DUP8 DUP3 DUP9 ADD PUSH2 0x215 JUMP JUMPDEST SWAP4 POP POP PUSH1 0x40 PUSH2 0x2F4 DUP8 DUP3 DUP9 ADD PUSH2 0x261 JUMP JUMPDEST SWAP3 POP POP PUSH1 0x60 DUP6 ADD MLOAD PUSH8 0xFFFFFFFFFFFFFFFF DUP2 GT ISZERO PUSH2 0x315 JUMPI PUSH2 0x314 PUSH2 0x102 JUMP JUMPDEST JUMPDEST PUSH2 0x321 DUP8 DUP3 DUP9 ADD PUSH2 0x215 JUMP JUMPDEST SWAP2 POP POP SWAP3 SWAP6 SWAP2 SWAP5 POP SWAP3 POP JUMP JUMPDEST PUSH0 DUP2 MLOAD SWAP1 POP SWAP2 SWAP1 POP JUMP JUMPDEST PUSH32 0x4E487B7100000000000000000000000000000000000000000000000000000000 PUSH0 MSTORE PUSH1 0x22 PUSH1 0x4 MSTORE PUSH1 0x24 PUSH0 REVERT JUMPDEST PUSH0 PUSH1 0x2 DUP3 DIV SWAP1 POP PUSH1 0x1 DUP3 AND DUP1 PUSH2 0x37B JUMPI PUSH1 0x7F DUP3 AND SWAP2 POP JUMPDEST PUSH1 0x20 DUP3 LT DUP2 SUB PUSH2 0x38E JUMPI PUSH2 0x38D PUSH2 0x337 JUMP JUMPDEST JUMPDEST POP SWAP2 SWAP1 POP JUMP JUMPDEST PUSH0 DUP2 SWAP1 POP DUP2 PUSH0 MSTORE PUSH1 0x20 PUSH0 KECCAK256 SWAP1 POP SWAP2 SWAP1 POP JUMP JUMPDEST PUSH0 PUSH1 0x20 PUSH1 0x1F DUP4 ADD DIV SWAP1 POP SWAP2 SWAP1 POP JUMP JUMPDEST PUSH0 DUP3 DUP3 SHL SWAP1 POP SWAP3 SWAP2 POP POP JUMP JUMPDEST PUSH0 PUSH1 0x8 DUP4 MUL PUSH2 0x3F0 PUSH32 0xFFFFFFFFFFFFFFFFFFFFFFFFFFFFFFFFFFFFFFFFFFFFFFFFFFFFFFFFFFFFFFFF DUP3 PUSH2 0x3B5 JUMP JUMPDEST PUSH2 0x3FA DUP7 DUP4 PUSH2 0x3B5 JUMP JUMPDEST SWAP6 POP DUP1 NOT DUP5 AND SWAP4 POP DUP1 DUP7 AND DUP5 OR SWAP3 POP POP POP SWAP4 SWAP3 POP POP POP JUMP JUMPDEST PUSH0 DUP2 SWAP1 POP SWAP2 SWAP1 POP JUMP JUMPDEST PUSH0 PUSH2 0x435 PUSH2 0x430 PUSH2 0x42B DUP5 PUSH2 0x242 JUMP JUMPDEST PUSH2 0x412 JUMP JUMPDEST PUSH2 0x242 JUMP JUMPDEST SWAP1 POP SWAP2 SWAP1 POP JUMP JUMPDEST PUSH0 DUP2 SWAP1 POP SWAP2 SWAP1 POP JUMP JUMPDEST PUSH2 0x44E DUP4 PUSH2 0x41B JUMP JUMPDEST PUSH2 0x462 PUSH2 0x45A DUP3 PUSH2 0x43C JUMP JUMPDEST DUP5 DUP5 SLOAD PUSH2 0x3C1 JUMP JUMPDEST DUP3 SSTORE POP POP POP POP JUMP JUMPDEST PUSH0 SWAP1 JUMP JUMPDEST PUSH2 0x476 PUSH2 0x46A JUMP JUMPDEST PUSH2 0x481 DUP2 DUP5 DUP5 PUSH2 0x445 JUMP JUMPDEST POP POP POP JUMP JUMPDEST JUMPDEST DUP2 DUP2 LT ISZERO PUSH2 0x4A4 JUMPI PUSH2 0x499 PUSH0 DUP3 PUSH2 0x46E JUMP JUMPDEST PUSH1 0x1 DUP2 ADD SWAP1 POP PUSH2 0x487 JUMP JUMPDEST POP POP JUMP JUMPDEST PUSH1 0x1F DUP3 GT ISZERO PUSH2 0x4E9 JUMPI PUSH2 0x4BA DUP2 PUSH2 0x394 JUMP JUMPDEST PUSH2 0x4C3 DUP5 PUSH2 0x3A6 JUMP JUMPDEST DUP2 ADD PUSH1 0x20 DUP6 LT ISZERO PUSH2 0x4D2 JUMPI DUP2 SWAP1 POP JUMPDEST PUSH2 0x4E6 PUSH2 0x4DE DUP6 PUSH2 0x3A6 JUMP JUMPDEST DUP4 ADD DUP3 PUSH2 0x486 JUMP JUMPDEST POP POP JUMPDEST POP POP POP JUMP JUMPDEST PUSH0 DUP3 DUP3 SHR SWAP1 POP SWAP3 SWAP2 POP POP JUMP JUMPDEST PUSH0 PUSH2 0x509 PUSH0 NOT DUP5 PUSH1 0x8 MUL PUSH2 0x4EE JUMP JUMPDEST NOT DUP1 DUP4 AND SWAP2 POP POP SWAP3 SWAP2 POP POP JUMP JUMPDEST PUSH0 PUSH2 0x521 DUP4 DUP4 PUSH2 0x4FA JUMP JUMPDEST SWAP2 POP DUP3 PUSH1 0x2 MUL DUP3 OR SWAP1 POP SWAP3 SWAP2 POP POP JUMP JUMPDEST PUSH2 0x53A DUP3 PUSH2 0x32D JUMP JUMPDEST PUSH8 0xFFFFFFFFFFFFFFFF DUP2 GT ISZERO PUSH2 0x553 JUMPI PUSH2 0x552 PUSH2 0x11E JUMP JUMPDEST JUMPDEST PUSH2 0x55D DUP3 SLOAD PUSH2 0x364 JUMP JUMPDEST PUSH2 0x568 DUP3 DUP3 DUP6 PUSH2 0x4A8 JUMP JUMPDEST PUSH0 PUSH1 0x20 SWAP1 POP PUSH1 0x1F DUP4 GT PUSH1 0x1 DUP2 EQ PUSH2 0x599 JUMPI PUSH0 DUP5 ISZERO PUSH2 0x587 JUMPI DUP3 DUP8 ADD MLOAD SWAP1 POP JUMPDEST PUSH2 0x591 DUP6 DUP3 PUSH2 0x516 JUMP JUMPDEST DUP7 SSTORE POP PUSH2 0x5F8 JUMP JUMPDEST PUSH1 0x1F NOT DUP5 AND PUSH2 0x5A7 DUP7 PUSH2 0x394 JUMP JUMPDEST PUSH0 JUMPDEST DUP3 DUP2 LT ISZERO PUSH2 0x5CE JUMPI DUP5 DUP10 ADD MLOAD DUP3 SSTORE PUSH1 0x1 DUP3 ADD SWAP2 POP PUSH1 0x20 DUP6 ADD SWAP5 POP PUSH1 0x20 DUP2 ADD SWAP1 POP PUSH2 0x5A9 JUMP JUMPDEST DUP7 DUP4 LT ISZERO PUSH2 0x5EB JUMPI DUP5 DUP10 ADD MLOAD PUSH2 0x5E7 PUSH1 0x1F DUP10 AND DUP3 PUSH2 0x4FA JUMP JUMPDEST DUP4 SSTORE POP JUMPDEST PUSH1 0x1 PUSH1 0x2 DUP9 MUL ADD DUP9 SSTORE POP POP POP JUMPDEST POP POP POP POP POP POP JUMP JUMPDEST PUSH2 0xCBF DUP1 PUSH2 0x60D PUSH0 CODECOPY PUSH0 RETURN INVALID PUSH1 0x80 PUSH1 0x40 MSTORE CALLVALUE DUP1 ISZERO PUSH2 0xF JUMPI PUSH0 DUP1 REVERT JUMPDEST POP PUSH1 0x4 CALLDATASIZE LT PUSH2 0x3F JUMPI PUSH0 CALLDATALOAD PUSH1 0xE0 SHR DUP1 PUSH4 0x81F539FF EQ PUSH2 0x43 JUMPI DUP1 PUSH4 0x9F0010FC EQ PUSH2 0x61 JUMPI DUP1 PUSH4 0x9F999DA3 EQ PUSH2 0x7D JUMPI JUMPDEST PUSH0 DUP1 REVERT JUMPDEST PUSH2 0x4B PUSH2 0x9B JUMP JUMPDEST PUSH1 0x40 MLOAD PUSH2 0x58 SWAP2 SWAP1 PUSH2 0x9CB JUMP JUMPDEST PUSH1 0x40 MLOAD DUP1 SWAP2 SUB SWAP1 RETURN JUMPDEST PUSH2 0x7B PUSH1 0x4 DUP1 CALLDATASIZE SUB DUP2 ADD SWAP1 PUSH2 0x76 SWAP2 SWAP1 PUSH2 0xA6C JUMP JUMPDEST PUSH2 0x367 JUMP JUMPDEST STOP JUMPDEST PUSH2 0x85 PUSH2 0x501 JUMP JUMPDEST PUSH1 0x40 MLOAD PUSH2 0x92 SWAP2 SWAP1 PUSH2 0xAEB JUMP JUMPDEST PUSH1 0x40 MLOAD DUP1 SWAP2 SUB SWAP1 RETURN JUMPDEST PUSH2 0xA3 PUSH2 0x8D6 JUMP JUMPDEST PUSH1 0x1 PUSH1 0x4 PUSH0 SWAP1 SLOAD SWAP1 PUSH2 0x100 EXP SWAP1 DIV PUSH20 0xFFFFFFFFFFFFFFFFFFFFFFFFFFFFFFFFFFFFFFFF AND PUSH20 0xFFFFFFFFFFFFFFFFFFFFFFFFFFFFFFFFFFFFFFFF AND CALLER PUSH20 0xFFFFFFFFFFFFFFFFFFFFFFFFFFFFFFFFFFFFFFFF AND EQ DUP1 PUSH2 0x146 JUMPI POP PUSH1 0x6 PUSH0 CALLER PUSH20 0xFFFFFFFFFFFFFFFFFFFFFFFFFFFFFFFFFFFFFFFF AND PUSH20 0xFFFFFFFFFFFFFFFFFFFFFFFFFFFFFFFFFFFFFFFF AND DUP2 MSTORE PUSH1 0x20 ADD SWAP1 DUP2 MSTORE PUSH1 0x20 ADD PUSH0 KECCAK256 PUSH0 SWAP1 SLOAD SWAP1 PUSH2 0x100 EXP SWAP1 DIV PUSH1 0xFF AND JUMPDEST ISZERO PUSH2 0x1F8 JUMPI PUSH1 0x2 PUSH1 0x40 MLOAD DUP1 PUSH1 0x40 ADD PUSH1 0x40 MSTORE SWAP1 DUP2 PUSH0 DUP3 ADD SLOAD DUP2 MSTORE PUSH1 0x20 ADD PUSH1 0x1 DUP3 ADD DUP1 SLOAD PUSH2 0x171 SWAP1 PUSH2 0xB38 JUMP JUMPDEST DUP1 PUSH1 0x1F ADD PUSH1 0x20 DUP1 SWAP2 DIV MUL PUSH1 0x20 ADD PUSH1 0x40 MLOAD SWAP1 DUP2 ADD PUSH1 0x40 MSTORE DUP1 SWAP3 SWAP2 SWAP1 DUP2 DUP2 MSTORE PUSH1 0x20 ADD DUP3 DUP1 SLOAD PUSH2 0x19D SWAP1 PUSH2 0xB38 JUMP JUMPDEST DUP1 ISZERO PUSH2 0x1E8 JUMPI DUP1 PUSH1 0x1F LT PUSH2 0x1BF JUMPI PUSH2 0x100 DUP1 DUP4 SLOAD DIV MUL DUP4 MSTORE SWAP2 PUSH1 0x20 ADD SWAP2 PUSH2 0x1E8 JUMP JUMPDEST DUP3 ADD SWAP2 SWAP1 PUSH0 MSTORE PUSH1 0x20 PUSH0 KECCAK256 SWAP1 JUMPDEST DUP2 SLOAD DUP2 MSTORE SWAP1 PUSH1 0x1 ADD SWAP1 PUSH1 0x20 ADD DUP1 DUP4 GT PUSH2 0x1CB JUMPI DUP3 SWAP1 SUB PUSH1 0x1F AND DUP3 ADD SWAP2 JUMPDEST POP POP POP POP POP DUP2 MSTORE POP POP SWAP2 POP PUSH2 0x363 JUMP JUMPDEST PUSH0 PUSH1 0x1 DUP2 GT ISZERO PUSH2 0x20B JUMPI PUSH2 0x20A PUSH2 0xB68 JUMP JUMPDEST JUMPDEST DUP2 PUSH1 0x1 DUP2 GT ISZERO PUSH2 0x21E JUMPI PUSH2 0x21D PUSH2 0xB68 JUMP JUMPDEST JUMPDEST EQ DUP1 ISZERO PUSH2 0x271 JUMPI POP PUSH1 0x5 PUSH0 CALLER PUSH20 0xFFFFFFFFFFFFFFFFFFFFFFFFFFFFFFFFFFFFFFFF AND PUSH20 0xFFFFFFFFFFFFFFFFFFFFFFFFFFFFFFFFFFFFFFFF AND DUP2 MSTORE PUSH1 0x20 ADD SWAP1 DUP2 MSTORE PUSH1 0x20 ADD PUSH0 KECCAK256 PUSH0 SWAP1 SLOAD SWAP1 PUSH2 0x100 EXP SWAP1 DIV PUSH1 0xFF AND JUMPDEST ISZERO PUSH2 0x323 JUMPI PUSH1 0x2 PUSH1 0x40 MLOAD DUP1 PUSH1 0x40 ADD PUSH1 0x40 MSTORE SWAP1 DUP2 PUSH0 DUP3 ADD SLOAD DUP2 MSTORE PUSH1 0x20 ADD PUSH1 0x1 DUP3 ADD DUP1 SLOAD PUSH2 0x29C SWAP1 PUSH2 0xB38 JUMP JUMPDEST DUP1 PUSH1 0x1F ADD PUSH1 0x20 DUP1 SWAP2 DIV MUL PUSH1 0x20 ADD PUSH1 0x40 MLOAD SWAP1 DUP2 ADD PUSH1 0x40 MSTORE DUP1 SWAP3 SWAP2 SWAP1 DUP2 DUP2 MSTORE PUSH1 0x20 ADD DUP3 DUP1 SLOAD PUSH2 0x2C8 SWAP1 PUSH2 0xB38 JUMP JUMPDEST DUP1 ISZERO PUSH2 0x313 JUMPI DUP1 PUSH1 0x1F LT PUSH2 0x2EA JUMPI PUSH2 0x100 DUP1 DUP4 SLOAD DIV MUL DUP4 MSTORE SWAP2 PUSH1 0x20 ADD SWAP2 PUSH2 0x313 JUMP JUMPDEST DUP3 ADD SWAP2 SWAP1 PUSH0 MSTORE PUSH1 0x20 PUSH0 KECCAK256 SWAP1 JUMPDEST DUP2 SLOAD DUP2 MSTORE SWAP1 PUSH1 0x1 ADD SWAP1 PUSH1 0x20 ADD DUP1 DUP4 GT PUSH2 0x2F6 JUMPI DUP3 SWAP1 SUB PUSH1 0x1F AND DUP3 ADD SWAP2 JUMPDEST POP POP POP POP POP DUP2 MSTORE POP POP SWAP2 POP PUSH2 0x362 JUMP JUMPDEST CALLER DUP2 PUSH1 0x40 MLOAD PUSH32 0x301D703B00000000000000000000000000000000000000000000000000000000 DUP2 MSTORE PUSH1 0x4 ADD PUSH2 0x359 SWAP3 SWAP2 SWAP1 PUSH2 0xBEA JUMP JUMPDEST PUSH1 0x40 MLOAD DUP1 SWAP2 SUB SWAP1 REVERT JUMPDEST JUMPDEST POP SWAP1 JUMP JUMPDEST PUSH1 0x4 PUSH0 SWAP1 SLOAD SWAP1 PUSH2 0x100 EXP SWAP1 DIV PUSH20 0xFFFFFFFFFFFFFFFFFFFFFFFFFFFFFFFFFFFFFFFF AND PUSH20 0xFFFFFFFFFFFFFFFFFFFFFFFFFFFFFFFFFFFFFFFF AND CALLER PUSH20 0xFFFFFFFFFFFFFFFFFFFFFFFFFFFFFFFFFFFFFFFF AND EQ PUSH2 0x3F6 JUMPI PUSH1 0x40 MLOAD PUSH32 0x8C379A000000000000000000000000000000000000000000000000000000000 DUP2 MSTORE PUSH1 0x4 ADD PUSH2 0x3ED SWAP1 PUSH2 0xC6B JUMP JUMPDEST PUSH1 0x40 MLOAD DUP1 SWAP2 SUB SWAP1 REVERT JUMPDEST PUSH0 PUSH1 0x1 DUP2 GT ISZERO PUSH2 0x409 JUMPI PUSH2 0x408 PUSH2 0xB68 JUMP JUMPDEST JUMPDEST DUP3 PUSH1 0x1 DUP2 GT ISZERO PUSH2 0x41C JUMPI PUSH2 0x41B PUSH2 0xB68 JUMP JUMPDEST JUMPDEST SUB PUSH2 0x47B JUMPI PUSH1 0x1 PUSH1 0x5 PUSH0 DUP4 PUSH20 0xFFFFFFFFFFFFFFFFFFFFFFFFFFFFFFFFFFFFFFFF AND PUSH20 0xFFFFFFFFFFFFFFFFFFFFFFFFFFFFFFFFFFFFFFFF AND DUP2 MSTORE PUSH1 0x20 ADD SWAP1 DUP2 MSTORE PUSH1 0x20 ADD PUSH0 KECCAK256 PUSH0 PUSH2 0x100 EXP DUP2 SLOAD DUP2 PUSH1 0xFF MUL NOT AND SWAP1 DUP4 ISZERO ISZERO MUL OR SWAP1 SSTORE POP PUSH2 0x4FD JUMP JUMPDEST PUSH1 0x1 DUP1 DUP2 GT ISZERO PUSH2 0x48E JUMPI PUSH2 0x48D PUSH2 0xB68 JUMP JUMPDEST JUMPDEST DUP3 PUSH1 0x1 DUP2 GT ISZERO PUSH2 0x4A1 JUMPI PUSH2 0x4A0 PUSH2 0xB68 JUMP JUMPDEST JUMPDEST SUB PUSH2 0x4FC JUMPI PUSH1 0x1 PUSH1 0x6 PUSH0 DUP4 PUSH20 0xFFFFFFFFFFFFFFFFFFFFFFFFFFFFFFFFFFFFFFFF AND PUSH20 0xFFFFFFFFFFFFFFFFFFFFFFFFFFFFFFFFFFFFFFFF AND DUP2 MSTORE PUSH1 0x20 ADD SWAP1 DUP2 MSTORE PUSH1 0x20 ADD PUSH0 KECCAK256 PUSH0 PUSH2 0x100 EXP DUP2 SLOAD DUP2 PUSH1 0xFF MUL NOT AND SWAP1 DUP4 ISZERO ISZERO MUL OR SWAP1 SSTORE POP JUMPDEST JUMPDEST POP POP JUMP JUMPDEST PUSH2 0x509 PUSH2 0x8EF JUMP JUMPDEST PUSH0 PUSH1 0x4 PUSH0 SWAP1 SLOAD SWAP1 PUSH2 0x100 EXP SWAP1 DIV PUSH20 0xFFFFFFFFFFFFFFFFFFFFFFFFFFFFFFFFFFFFFFFF AND PUSH20 0xFFFFFFFFFFFFFFFFFFFFFFFFFFFFFFFFFFFFFFFF AND CALLER PUSH20 0xFFFFFFFFFFFFFFFFFFFFFFFFFFFFFFFFFFFFFFFF AND EQ DUP1 PUSH2 0x5AB JUMPI POP PUSH1 0x6 PUSH0 CALLER PUSH20 0xFFFFFFFFFFFFFFFFFFFFFFFFFFFFFFFFFFFFFFFF AND PUSH20 0xFFFFFFFFFFFFFFFFFFFFFFFFFFFFFFFFFFFFFFFF AND DUP2 MSTORE PUSH1 0x20 ADD SWAP1 DUP2 MSTORE PUSH1 0x20 ADD PUSH0 KECCAK256 PUSH0 SWAP1 SLOAD SWAP1 PUSH2 0x100 EXP SWAP1 DIV PUSH1 0xFF AND JUMPDEST ISZERO PUSH2 0x6E2 JUMPI PUSH0 PUSH1 0x40 MLOAD DUP1 PUSH1 0x40 ADD PUSH1 0x40 MSTORE SWAP1 DUP2 PUSH0 DUP3 ADD DUP1 SLOAD PUSH2 0x5CB SWAP1 PUSH2 0xB38 JUMP JUMPDEST DUP1 PUSH1 0x1F ADD PUSH1 0x20 DUP1 SWAP2 DIV MUL PUSH1 0x20 ADD PUSH1 0x40 MLOAD SWAP1 DUP2 ADD PUSH1 0x40 MSTORE DUP1 SWAP3 SWAP2 SWAP1 DUP2 DUP2 MSTORE PUSH1 0x20 ADD DUP3 DUP1 SLOAD PUSH2 0x5F7 SWAP1 PUSH2 0xB38 JUMP JUMPDEST DUP1 ISZERO PUSH2 0x642 JUMPI DUP1 PUSH1 0x1F LT PUSH2 0x619 JUMPI PUSH2 0x100 DUP1 DUP4 SLOAD DIV MUL DUP4 MSTORE SWAP2 PUSH1 0x20 ADD SWAP2 PUSH2 0x642 JUMP JUMPDEST DUP3 ADD SWAP2 SWAP1 PUSH0 MSTORE PUSH1 0x20 PUSH0 KECCAK256 SWAP1 JUMPDEST DUP2 SLOAD DUP2 MSTORE SWAP1 PUSH1 0x1 ADD SWAP1 PUSH1 0x20 ADD DUP1 DUP4 GT PUSH2 0x625 JUMPI DUP3 SWAP1 SUB PUSH1 0x1F AND DUP3 ADD SWAP2 JUMPDEST POP POP POP POP POP DUP2 MSTORE PUSH1 0x20 ADD PUSH1 0x1 DUP3 ADD DUP1 SLOAD PUSH2 0x65B SWAP1 PUSH2 0xB38 JUMP JUMPDEST DUP1 PUSH1 0x1F ADD PUSH1 0x20 DUP1 SWAP2 DIV MUL PUSH1 0x20 ADD PUSH1 0x40 MLOAD SWAP1 DUP2 ADD PUSH1 0x40 MSTORE DUP1 SWAP3 SWAP2 SWAP1 DUP2 DUP2 MSTORE PUSH1 0x20 ADD DUP3 DUP1 SLOAD PUSH2 0x687 SWAP1 PUSH2 0xB38 JUMP JUMPDEST DUP1 ISZERO PUSH2 0x6D2 JUMPI DUP1 PUSH1 0x1F LT PUSH2 0x6A9 JUMPI PUSH2 0x100 DUP1 DUP4 SLOAD DIV MUL DUP4 MSTORE SWAP2 PUSH1 0x20 ADD SWAP2 PUSH2 0x6D2 JUMP JUMPDEST DUP3 ADD SWAP2 SWAP1 PUSH0 MSTORE PUSH1 0x20 PUSH0 KECCAK256 SWAP1 JUMPDEST DUP2 SLOAD DUP2 MSTORE SWAP1 PUSH1 0x1 ADD SWAP1 PUSH1 0x20 ADD DUP1 DUP4 GT PUSH2 0x6B5 JUMPI DUP3 SWAP1 SUB PUSH1 0x1F AND DUP3 ADD SWAP2 JUMPDEST POP POP POP POP POP DUP2 MSTORE POP POP SWAP2 POP PUSH2 0x8D2 JUMP JUMPDEST PUSH0 PUSH1 0x1 DUP2 GT ISZERO PUSH2 0x6F5 JUMPI PUSH2 0x6F4 PUSH2 0xB68 JUMP JUMPDEST JUMPDEST DUP2 PUSH1 0x1 DUP2 GT ISZERO PUSH2 0x708 JUMPI PUSH2 0x707 PUSH2 0xB68 JUMP JUMPDEST JUMPDEST EQ DUP1 ISZERO PUSH2 0x75B JUMPI POP PUSH1 0x5 PUSH0 CALLER PUSH20 0xFFFFFFFFFFFFFFFFFFFFFFFFFFFFFFFFFFFFFFFF AND PUSH20 0xFFFFFFFFFFFFFFFFFFFFFFFFFFFFFFFFFFFFFFFF AND DUP2 MSTORE PUSH1 0x20 ADD SWAP1 DUP2 MSTORE PUSH1 0x20 ADD PUSH0 KECCAK256 PUSH0 SWAP1 SLOAD SWAP1 PUSH2 0x100 EXP SWAP1 DIV PUSH1 0xFF AND JUMPDEST ISZERO PUSH2 0x892 JUMPI PUSH0 PUSH1 0x40 MLOAD DUP1 PUSH1 0x40 ADD PUSH1 0x40 MSTORE SWAP1 DUP2 PUSH0 DUP3 ADD DUP1 SLOAD PUSH2 0x77B SWAP1 PUSH2 0xB38 JUMP JUMPDEST DUP1 PUSH1 0x1F ADD PUSH1 0x20 DUP1 SWAP2 DIV MUL PUSH1 0x20 ADD PUSH1 0x40 MLOAD SWAP1 DUP2 ADD PUSH1 0x40 MSTORE DUP1 SWAP3 SWAP2 SWAP1 DUP2 DUP2 MSTORE PUSH1 0x20 ADD DUP3 DUP1 SLOAD PUSH2 0x7A7 SWAP1 PUSH2 0xB38 JUMP JUMPDEST DUP1 ISZERO PUSH2 0x7F2 JUMPI DUP1 PUSH1 0x1F LT PUSH2 0x7C9 JUMPI PUSH2 0x100 DUP1 DUP4 SLOAD DIV MUL DUP4 MSTORE SWAP2 PUSH1 0x20 ADD SWAP2 PUSH2 0x7F2 JUMP JUMPDEST DUP3 ADD SWAP2 SWAP1 PUSH0 MSTORE PUSH1 0x20 PUSH0 KECCAK256 SWAP1 JUMPDEST DUP2 SLOAD DUP2 MSTORE SWAP1 PUSH1 0x1 ADD SWAP1 PUSH1 0x20 ADD DUP1 DUP4 GT PUSH2 0x7D5 JUMPI DUP3 SWAP1 SUB PUSH1 0x1F AND DUP3 ADD SWAP2 JUMPDEST POP POP POP POP POP DUP2 MSTORE PUSH1 0x20 ADD PUSH1 0x1 DUP3 ADD DUP1 SLOAD PUSH2 0x80B SWAP1 PUSH2 0xB38 JUMP JUMPDEST DUP1 PUSH1 0x1F ADD PUSH1 0x20 DUP1 SWAP2 DIV MUL PUSH1 0x20 ADD PUSH1 0x40 MLOAD SWAP1 DUP2 ADD PUSH1 0x40 MSTORE DUP1 SWAP3 SWAP2 SWAP1 DUP2 DUP2 MSTORE PUSH1 0x20 ADD DUP3 DUP1 SLOAD PUSH2 0x837 SWAP1 PUSH2 0xB38 JUMP JUMPDEST DUP1 ISZERO PUSH2 0x882 JUMPI DUP1 PUSH1 0x1F LT PUSH2 0x859 JUMPI PUSH2 0x100 DUP1 DUP4 SLOAD DIV MUL DUP4 MSTORE SWAP2 PUSH1 0x20 ADD SWAP2 PUSH2 0x882 JUMP JUMPDEST DUP3 ADD SWAP2 SWAP1 PUSH0 MSTORE PUSH1 0x20 PUSH0 KECCAK256 SWAP1 JUMPDEST DUP2 SLOAD DUP2 MSTORE SWAP1 PUSH1 0x1 ADD SWAP1 PUSH1 0x20 ADD DUP1 DUP4 GT PUSH2 0x865 JUMPI DUP3 SWAP1 SUB PUSH1 0x1F AND DUP3 ADD SWAP2 JUMPDEST POP POP POP POP POP DUP2 MSTORE POP POP SWAP2 POP PUSH2 0x8D1 JUMP JUMPDEST CALLER DUP2 PUSH1 0x40 MLOAD PUSH32 0x301D703B00000000000000000000000000000000000000000000000000000000 DUP2 MSTORE PUSH1 0x4 ADD PUSH2 0x8C8 SWAP3 SWAP2 SWAP1 PUSH2 0xBEA JUMP JUMPDEST PUSH1 0x40 MLOAD DUP1 SWAP2 SUB SWAP1 REVERT JUMPDEST JUMPDEST POP SWAP1 JUMP JUMPDEST PUSH1 0x40 MLOAD DUP1 PUSH1 0x40 ADD PUSH1 0x40 MSTORE DUP1 PUSH0 DUP2 MSTORE PUSH1 0x20 ADD PUSH1 0x60 DUP2 MSTORE POP SWAP1 JUMP JUMPDEST PUSH1 0x40 MLOAD DUP1 PUSH1 0x40 ADD PUSH1 0x40 MSTORE DUP1 PUSH1 0x60 DUP2 MSTORE PUSH1 0x20 ADD PUSH1 0x60 DUP2 MSTORE POP SWAP1 JUMP JUMPDEST PUSH0 DUP2 SWAP1 POP SWAP2 SWAP1 POP JUMP JUMPDEST PUSH2 0x91B DUP2 PUSH2 0x909 JUMP JUMPDEST DUP3 MSTORE POP POP JUMP JUMPDEST PUSH0 DUP2 MLOAD SWAP1 POP SWAP2 SWAP1 POP JUMP JUMPDEST PUSH0 DUP3 DUP3 MSTORE PUSH1 0x20 DUP3 ADD SWAP1 POP SWAP3 SWAP2 POP POP JUMP JUMPDEST DUP3 DUP2 DUP4 MCOPY PUSH0 DUP4 DUP4 ADD MSTORE POP POP POP JUMP JUMPDEST PUSH0 PUSH1 0x1F NOT PUSH1 0x1F DUP4 ADD AND SWAP1 POP SWAP2 SWAP1 POP JUMP JUMPDEST PUSH0 PUSH2 0x963 DUP3 PUSH2 0x921 JUMP JUMPDEST PUSH2 0x96D DUP2 DUP6 PUSH2 0x92B JUMP JUMPDEST SWAP4 POP PUSH2 0x97D DUP2 DUP6 PUSH1 0x20 DUP7 ADD PUSH2 0x93B JUMP JUMPDEST PUSH2 0x986 DUP2 PUSH2 0x949 JUMP JUMPDEST DUP5 ADD SWAP2 POP POP SWAP3 SWAP2 POP POP JUMP JUMPDEST PUSH0 PUSH1 0x40 DUP4 ADD PUSH0 DUP4 ADD MLOAD PUSH2 0x9A6 PUSH0 DUP7 ADD DUP3 PUSH2 0x912 JUMP JUMPDEST POP PUSH1 0x20 DUP4 ADD MLOAD DUP5 DUP3 SUB PUSH1 0x20 DUP7 ADD MSTORE PUSH2 0x9BE DUP3 DUP3 PUSH2 0x959 JUMP JUMPDEST SWAP2 POP POP DUP1 SWAP2 POP POP SWAP3 SWAP2 POP POP JUMP JUMPDEST PUSH0 PUSH1 0x20 DUP3 ADD SWAP1 POP DUP2 DUP2 SUB PUSH0 DUP4 ADD MSTORE PUSH2 0x9E3 DUP2 DUP5 PUSH2 0x991 JUMP JUMPDEST SWAP1 POP SWAP3 SWAP2 POP POP JUMP JUMPDEST PUSH0 DUP1 REVERT JUMPDEST PUSH1 0x2 DUP2 LT PUSH2 0x9FB JUMPI PUSH0 DUP1 REVERT JUMPDEST POP JUMP JUMPDEST PUSH0 DUP2 CALLDATALOAD SWAP1 POP PUSH2 0xA0C DUP2 PUSH2 0x9EF JUMP JUMPDEST SWAP3 SWAP2 POP POP JUMP JUMPDEST PUSH0 PUSH20 0xFFFFFFFFFFFFFFFFFFFFFFFFFFFFFFFFFFFFFFFF DUP3 AND SWAP1 POP SWAP2 SWAP1 POP JUMP JUMPDEST PUSH0 PUSH2 0xA3B DUP3 PUSH2 0xA12 JUMP JUMPDEST SWAP1 POP SWAP2 SWAP1 POP JUMP JUMPDEST PUSH2 0xA4B DUP2 PUSH2 0xA31 JUMP JUMPDEST DUP2 EQ PUSH2 0xA55 JUMPI PUSH0 DUP1 REVERT JUMPDEST POP JUMP JUMPDEST PUSH0 DUP2 CALLDATALOAD SWAP1 POP PUSH2 0xA66 DUP2 PUSH2 0xA42 JUMP JUMPDEST SWAP3 SWAP2 POP POP JUMP JUMPDEST PUSH0 DUP1 PUSH1 0x40 DUP4 DUP6 SUB SLT ISZERO PUSH2 0xA82 JUMPI PUSH2 0xA81 PUSH2 0x9EB JUMP JUMPDEST JUMPDEST PUSH0 PUSH2 0xA8F DUP6 DUP3 DUP7 ADD PUSH2 0x9FE JUMP JUMPDEST SWAP3 POP POP PUSH1 0x20 PUSH2 0xAA0 DUP6 DUP3 DUP7 ADD PUSH2 0xA58 JUMP JUMPDEST SWAP2 POP POP SWAP3 POP SWAP3 SWAP1 POP JUMP JUMPDEST PUSH0 PUSH1 0x40 DUP4 ADD PUSH0 DUP4 ADD MLOAD DUP5 DUP3 SUB PUSH0 DUP7 ADD MSTORE PUSH2 0xAC4 DUP3 DUP3 PUSH2 0x959 JUMP JUMPDEST SWAP2 POP POP PUSH1 0x20 DUP4 ADD MLOAD DUP5 DUP3 SUB PUSH1 0x20 DUP7 ADD MSTORE PUSH2 0xADE DUP3 DUP3 PUSH2 0x959 JUMP JUMPDEST SWAP2 POP POP DUP1 SWAP2 POP POP SWAP3 SWAP2 POP POP JUMP JUMPDEST PUSH0 PUSH1 0x20 DUP3 ADD SWAP1 POP DUP2 DUP2 SUB PUSH0 DUP4 ADD MSTORE PUSH2 0xB03 DUP2 DUP5 PUSH2 0xAAA JUMP JUMPDEST SWAP1 POP SWAP3 SWAP2 POP POP JUMP JUMPDEST PUSH32 0x4E487B7100000000000000000000000000000000000000000000000000000000 PUSH0 MSTORE PUSH1 0x22 PUSH1 0x4 MSTORE PUSH1 0x24 PUSH0 REVERT JUMPDEST PUSH0 PUSH1 0x2 DUP3 DIV SWAP1 POP PUSH1 0x1 DUP3 AND DUP1 PUSH2 0xB4F JUMPI PUSH1 0x7F DUP3 AND SWAP2 POP JUMPDEST PUSH1 0x20 DUP3 LT DUP2 SUB PUSH2 0xB62 JUMPI PUSH2 0xB61 PUSH2 0xB0B JUMP JUMPDEST JUMPDEST POP SWAP2 SWAP1 POP JUMP JUMPDEST PUSH32 0x4E487B7100000000000000000000000000000000000000000000000000000000 PUSH0 MSTORE PUSH1 0x21 PUSH1 0x4 MSTORE PUSH1 0x24 PUSH0 REVERT JUMPDEST PUSH2 0xB9E DUP2 PUSH2 0xA31 JUMP JUMPDEST DUP3 MSTORE POP POP JUMP JUMPDEST PUSH1 0x2 DUP2 LT PUSH2 0xBB5 JUMPI PUSH2 0xBB4 PUSH2 0xB68 JUMP JUMPDEST JUMPDEST POP JUMP JUMPDEST PUSH0 DUP2 SWAP1 POP PUSH2 0xBC5 DUP3 PUSH2 0xBA4 JUMP JUMPDEST SWAP2 SWAP1 POP JUMP JUMPDEST PUSH0 PUSH2 0xBD4 DUP3 PUSH2 0xBB8 JUMP JUMPDEST SWAP1 POP SWAP2 SWAP1 POP JUMP JUMPDEST PUSH2 0xBE4 DUP2 PUSH2 0xBCA JUMP JUMPDEST DUP3 MSTORE POP POP JUMP JUMPDEST PUSH0 PUSH1 0x40 DUP3 ADD SWAP1 POP PUSH2 0xBFD PUSH0 DUP4 ADD DUP6 PUSH2 0xB95 JUMP JUMPDEST PUSH2 0xC0A PUSH1 0x20 DUP4 ADD DUP5 PUSH2 0xBDB JUMP JUMPDEST SWAP4 SWAP3 POP POP POP JUMP JUMPDEST PUSH0 DUP3 DUP3 MSTORE PUSH1 0x20 DUP3 ADD SWAP1 POP SWAP3 SWAP2 POP POP JUMP JUMPDEST PUSH32 0x4F6E6C79206F776E65722063616E20617574686F72697A652075736572730000 PUSH0 DUP3 ADD MSTORE POP JUMP JUMPDEST PUSH0 PUSH2 0xC55 PUSH1 0x1E DUP4 PUSH2 0xC11 JUMP JUMPDEST SWAP2 POP PUSH2 0xC60 DUP3 PUSH2 0xC21 JUMP JUMPDEST PUSH1 0x20 DUP3 ADD SWAP1 POP SWAP2 SWAP1 POP JUMP JUMPDEST PUSH0 PUSH1 0x20 DUP3 ADD SWAP1 POP DUP2 DUP2 SUB PUSH0 DUP4 ADD MSTORE PUSH2 0xC82 DUP2 PUSH2 0xC49 JUMP JUMPDEST SWAP1 POP SWAP2 SWAP1 POP JUMP INVALID LOG2 PUSH5 0x6970667358 0x22 SLT KECCAK256 0xE8 NOT 0x29 DIV 0xEE 0xD9 PUSH18 0xDFA483F5ADD403B5EA722919FB8CDF07791 0x23 0xE0 SUB 0xD3 SWAP11 0x4D SLT PUSH5 0x736F6C6343 STOP ADDMOD NOT STOP CALLER "
				},
				"gasEstimates": {
					"creation": {
						"codeDepositCost": "652600",
						"executionCost": "infinite",
						"totalCost": "infinite"
					},
					"external": {
						"getBasicInfo()": "infinite",
						"getPersonalInfo()": "infinite",
						"registerUser(uint8,address)": "27251"
					}
				},
				"methodIdentifiers": {
					"getBasicInfo()": "9f999da3",
					"getPersonalInfo()": "81f539ff",
					"registerUser(uint8,address)": "9f0010fc"
				}
			},
			"storageLayout": {
				"storage": [
					{
						"astId": 24,
						"contract": "contracts/Indetity.sol:Identity",
						"label": "basicInfo",
						"offset": 0,
						"slot": "0",
						"type": "t_struct(BasicInfo)6_storage"
					},
					{
						"astId": 27,
						"contract": "contracts/Indetity.sol:Identity",
						"label": "personalInfo",
						"offset": 0,
						"slot": "2",
						"type": "t_struct(PersonalInfo)11_storage"
					},
					{
						"astId": 29,
						"contract": "contracts/Indetity.sol:Identity",
						"label": "owner",
						"offset": 0,
						"slot": "4",
						"type": "t_address"
					},
					{
						"astId": 33,
						"contract": "contracts/Indetity.sol:Identity",
						"label": "basicUsers",
						"offset": 0,
						"slot": "5",
						"type": "t_mapping(t_address,t_bool)"
					},
					{
						"astId": 37,
						"contract": "contracts/Indetity.sol:Identity",
						"label": "personalUsers",
						"offset": 0,
						"slot": "6",
						"type": "t_mapping(t_address,t_bool)"
					}
				],
				"types": {
					"t_address": {
						"encoding": "inplace",
						"label": "address",
						"numberOfBytes": "20"
					},
					"t_bool": {
						"encoding": "inplace",
						"label": "bool",
						"numberOfBytes": "1"
					},
					"t_mapping(t_address,t_bool)": {
						"encoding": "mapping",
						"key": "t_address",
						"label": "mapping(address => bool)",
						"numberOfBytes": "32",
						"value": "t_bool"
					},
					"t_string_storage": {
						"encoding": "bytes",
						"label": "string",
						"numberOfBytes": "32"
					},
					"t_struct(BasicInfo)6_storage": {
						"encoding": "inplace",
						"label": "struct Identity.BasicInfo",
						"members": [
							{
								"astId": 3,
								"contract": "contracts/Indetity.sol:Identity",
								"label": "name",
								"offset": 0,
								"slot": "0",
								"type": "t_string_storage"
							},
							{
								"astId": 5,
								"contract": "contracts/Indetity.sol:Identity",
								"label": "email",
								"offset": 0,
								"slot": "1",
								"type": "t_string_storage"
							}
						],
						"numberOfBytes": "64"
					},
					"t_struct(PersonalInfo)11_storage": {
						"encoding": "inplace",
						"label": "struct Identity.PersonalInfo",
						"members": [
							{
								"astId": 8,
								"contract": "contracts/Indetity.sol:Identity",
								"label": "salary",
								"offset": 0,
								"slot": "0",
								"type": "t_uint256"
							},
							{
								"astId": 10,
								"contract": "contracts/Indetity.sol:Identity",
								"label": "_address",
								"offset": 0,
								"slot": "1",
								"type": "t_string_storage"
							}
						],
						"numberOfBytes": "64"
					},
					"t_uint256": {
						"encoding": "inplace",
						"label": "uint256",
						"numberOfBytes": "32"
					}
				}
			},
			"userdoc": {
				"kind": "user",
				"methods": {},
				"version": 1
			}
		}
	}
}